{
  "_format": "hh-sol-artifact-1",
  "contractName": "HintHelpers",
  "sourceName": "contracts/HintHelpers.sol",
  "abi": [
    {
      "anonymous": false,
      "inputs": [
        {
          "indexed": false,
          "internalType": "address",
          "name": "_collateralConfigAddress",
          "type": "address"
        }
      ],
      "name": "CollateralConfigAddressChanged",
      "type": "event"
    },
    {
      "anonymous": false,
      "inputs": [
        {
          "indexed": true,
          "internalType": "address",
          "name": "previousOwner",
          "type": "address"
        },
        {
          "indexed": true,
          "internalType": "address",
          "name": "newOwner",
          "type": "address"
        }
      ],
      "name": "OwnershipTransferred",
      "type": "event"
    },
    {
      "anonymous": false,
      "inputs": [
        {
          "indexed": false,
          "internalType": "address",
          "name": "_sortedTrovesAddress",
          "type": "address"
        }
      ],
      "name": "SortedTrovesAddressChanged",
      "type": "event"
    },
    {
      "anonymous": false,
      "inputs": [
        {
          "indexed": false,
          "internalType": "address",
          "name": "_troveManagerAddress",
          "type": "address"
        }
      ],
      "name": "TroveManagerAddressChanged",
      "type": "event"
    },
    {
      "inputs": [],
      "name": "BORROWING_FEE_FLOOR",
      "outputs": [
        {
          "internalType": "uint256",
          "name": "",
          "type": "uint256"
        }
      ],
      "stateMutability": "view",
      "type": "function"
    },
    {
      "inputs": [],
      "name": "DECIMAL_PRECISION",
      "outputs": [
        {
          "internalType": "uint256",
          "name": "",
          "type": "uint256"
        }
      ],
      "stateMutability": "view",
      "type": "function"
    },
    {
      "inputs": [],
      "name": "LUSD_GAS_COMPENSATION",
      "outputs": [
        {
          "internalType": "uint256",
          "name": "",
          "type": "uint256"
        }
      ],
      "stateMutability": "view",
      "type": "function"
    },
    {
      "inputs": [],
      "name": "MIN_NET_DEBT",
      "outputs": [
        {
          "internalType": "uint256",
          "name": "",
          "type": "uint256"
        }
      ],
      "stateMutability": "view",
      "type": "function"
    },
    {
      "inputs": [],
      "name": "NAME",
      "outputs": [
        {
          "internalType": "string",
          "name": "",
          "type": "string"
        }
      ],
      "stateMutability": "view",
      "type": "function"
    },
    {
      "inputs": [],
      "name": "PERCENT_DIVISOR",
      "outputs": [
        {
          "internalType": "uint256",
          "name": "",
          "type": "uint256"
        }
      ],
      "stateMutability": "view",
      "type": "function"
    },
    {
      "inputs": [],
      "name": "_100pct",
      "outputs": [
        {
          "internalType": "uint256",
          "name": "",
          "type": "uint256"
        }
      ],
      "stateMutability": "view",
      "type": "function"
    },
    {
      "inputs": [],
      "name": "activePool",
      "outputs": [
        {
          "internalType": "contract IActivePool",
          "name": "",
          "type": "address"
        }
      ],
      "stateMutability": "view",
      "type": "function"
    },
    {
      "inputs": [],
      "name": "collateralConfig",
      "outputs": [
        {
          "internalType": "contract ICollateralConfig",
          "name": "",
          "type": "address"
        }
      ],
      "stateMutability": "view",
      "type": "function"
    },
    {
      "inputs": [
        {
          "internalType": "uint256",
          "name": "_coll",
          "type": "uint256"
        },
        {
          "internalType": "uint256",
          "name": "_debt",
          "type": "uint256"
        },
        {
          "internalType": "uint256",
          "name": "_price",
          "type": "uint256"
        },
        {
          "internalType": "uint8",
          "name": "_collDecimals",
          "type": "uint8"
        }
      ],
      "name": "computeCR",
      "outputs": [
        {
          "internalType": "uint256",
          "name": "",
          "type": "uint256"
        }
      ],
      "stateMutability": "pure",
      "type": "function"
    },
    {
      "inputs": [
        {
          "internalType": "uint256",
          "name": "_coll",
          "type": "uint256"
        },
        {
          "internalType": "uint256",
          "name": "_debt",
          "type": "uint256"
        },
        {
          "internalType": "uint8",
          "name": "_collDecimals",
          "type": "uint8"
        }
      ],
      "name": "computeNominalCR",
      "outputs": [
        {
          "internalType": "uint256",
          "name": "",
          "type": "uint256"
        }
      ],
      "stateMutability": "pure",
      "type": "function"
    },
    {
      "inputs": [],
      "name": "defaultPool",
      "outputs": [
        {
          "internalType": "contract IDefaultPool",
          "name": "",
          "type": "address"
        }
      ],
      "stateMutability": "view",
      "type": "function"
    },
    {
      "inputs": [
        {
          "internalType": "address",
          "name": "_collateral",
          "type": "address"
        },
        {
          "internalType": "uint256",
          "name": "_CR",
          "type": "uint256"
        },
        {
          "internalType": "uint256",
          "name": "_numTrials",
          "type": "uint256"
        },
        {
          "internalType": "uint256",
          "name": "_inputRandomSeed",
          "type": "uint256"
        }
      ],
      "name": "getApproxHint",
      "outputs": [
        {
          "internalType": "address",
          "name": "hintAddress",
          "type": "address"
        },
        {
          "internalType": "uint256",
          "name": "diff",
          "type": "uint256"
        },
        {
          "internalType": "uint256",
          "name": "latestRandomSeed",
          "type": "uint256"
        }
      ],
      "stateMutability": "view",
      "type": "function"
    },
    {
      "inputs": [
        {
          "internalType": "address",
          "name": "_collateral",
          "type": "address"
        }
      ],
      "name": "getEntireSystemColl",
      "outputs": [
        {
          "internalType": "uint256",
          "name": "entireSystemColl",
          "type": "uint256"
        }
      ],
      "stateMutability": "view",
      "type": "function"
    },
    {
      "inputs": [
        {
          "internalType": "address",
          "name": "_collateral",
          "type": "address"
        }
      ],
      "name": "getEntireSystemDebt",
      "outputs": [
        {
          "internalType": "uint256",
          "name": "entireSystemDebt",
          "type": "uint256"
        }
      ],
      "stateMutability": "view",
      "type": "function"
    },
    {
      "inputs": [
        {
          "internalType": "address",
          "name": "_collateral",
          "type": "address"
        },
        {
          "internalType": "uint256",
          "name": "_LUSDamount",
          "type": "uint256"
        },
        {
          "internalType": "uint256",
          "name": "_price",
          "type": "uint256"
        },
        {
          "internalType": "uint256",
          "name": "_maxIterations",
          "type": "uint256"
        }
      ],
      "name": "getRedemptionHints",
      "outputs": [
        {
          "internalType": "address",
          "name": "firstRedemptionHint",
          "type": "address"
        },
        {
          "internalType": "uint256",
          "name": "partialRedemptionHintNICR",
          "type": "uint256"
        },
        {
          "internalType": "uint256",
          "name": "truncatedLUSDamount",
          "type": "uint256"
        }
      ],
      "stateMutability": "view",
      "type": "function"
    },
    {
      "inputs": [],
      "name": "isOwner",
      "outputs": [
        {
          "internalType": "bool",
          "name": "",
          "type": "bool"
        }
      ],
      "stateMutability": "view",
      "type": "function"
    },
    {
      "inputs": [],
      "name": "owner",
      "outputs": [
        {
          "internalType": "address",
          "name": "",
          "type": "address"
        }
      ],
      "stateMutability": "view",
      "type": "function"
    },
    {
      "inputs": [],
      "name": "priceFeed",
      "outputs": [
        {
          "internalType": "contract IPriceFeed",
          "name": "",
          "type": "address"
        }
      ],
      "stateMutability": "view",
      "type": "function"
    },
    {
      "inputs": [
        {
          "internalType": "address",
          "name": "_collateralConfigAddress",
          "type": "address"
        },
        {
          "internalType": "address",
          "name": "_sortedTrovesAddress",
          "type": "address"
        },
        {
          "internalType": "address",
          "name": "_troveManagerAddress",
          "type": "address"
        }
      ],
      "name": "setAddresses",
      "outputs": [],
      "stateMutability": "nonpayable",
      "type": "function"
    },
    {
      "inputs": [],
      "name": "sortedTroves",
      "outputs": [
        {
          "internalType": "contract ISortedTroves",
          "name": "",
          "type": "address"
        }
      ],
      "stateMutability": "view",
      "type": "function"
    },
    {
      "inputs": [],
      "name": "troveManager",
      "outputs": [
        {
          "internalType": "contract ITroveManager",
          "name": "",
          "type": "address"
        }
      ],
      "stateMutability": "view",
      "type": "function"
    }
  ],
  "bytecode": "0x608060405234801561001057600080fd5b50600380546001600160a01b031916339081179091556040516000907f8be0079c531659141344cd1fd0a4f28419497f9722a3daafe3b4186f6b6457e0908290a36118ee806100606000396000f3fe608060405234801561001057600080fd5b50600436106101425760003560e01c806372fe25aa116100b85780639e86d0c41161007c5780639e86d0c41461030b578063a20baee6146102cf578063a3f4df7e14610331578063acec9edf146103ae578063ae918754146103da578063f92d3433146103e257610142565b806372fe25aa146102cf578063741bef1a146102d75780637f7dde4a146102df5780638da5cb5b146102e75780638f32d59b146102ef57610142565b8063363bf9641161010a578063363bf964146102215780633cc742251461025b5780633d83908a1461027f5780634870dd9a146102875780635c0ab4de1461028f578063701526b41461029757610142565b80630f765544146101475780631bf435551461018b57806327d04b35146101935780632e86bbd8146101b9578063301be459146101c1575b600080fd5b6101796004803603608081101561015d57600080fd5b508035906020810135906040810135906060013560ff166103ea565b60408051918252519081900360200190f35b610179610406565b610179600480360360208110156101a957600080fd5b50356001600160a01b0316610413565b610179610521565b6101f9600480360360808110156101d757600080fd5b506001600160a01b03813516906020810135906040810135906060013561052d565b604080516001600160a01b039094168452602084019290925282820152519081900360600190f35b6102596004803603606081101561023757600080fd5b506001600160a01b038135811691602081013582169160409091013516610c99565b005b610263610dff565b604080516001600160a01b039092168252519081900360200190f35b610263610e0e565b610179610e1d565b610263610e22565b6101f9600480360360808110156102ad57600080fd5b506001600160a01b038135169060208101359060408101359060600135610e31565b610179611168565b610263611174565b610263611183565b610263611192565b6102f76111a1565b604080519115158252519081900360200190f35b6101796004803603602081101561032157600080fd5b50356001600160a01b03166111b2565b610339611282565b6040805160208082528351818301528351919283929083019185019080838360005b8381101561037357818101518382015260200161035b565b50505050905090810190601f1680156103a05780820380516001836020036101000a031916815260200191505b509250505060405180910390f35b610179600480360360608110156103c457600080fd5b508035906020810135906040013560ff166112a9565b6102636112c3565b6101796112d2565b60006103fb8585858560ff166112dd565b90505b949350505050565b6804e1003b28d928000081565b6000805460408051634b14fa8760e01b81526001600160a01b038581166004830152915184939290921691634b14fa8791602480820192602092909190829003018186803b15801561046457600080fd5b505afa158015610478573d6000803e3d6000fd5b505050506040513d602081101561048e57600080fd5b505160015460408051634b14fa8760e01b81526001600160a01b03878116600483015291519394506000939190921691634b14fa87916024808301926020929190829003018186803b1580156104e357600080fd5b505afa1580156104f7573d6000803e3d6000fd5b505050506040513d602081101561050d57600080fd5b505190506103fe828263ffffffff61131c16565b678ac7230489e8000081565b600080600061053b8761137f565b61054361182b565b600480546040805163eb7aac5f60e01b81526001600160a01b038c8116948201949094529051929091169163eb7aac5f91602480820192602092909190829003018186803b15801561059457600080fd5b505afa1580156105a8573d6000803e3d6000fd5b505050506040513d60208110156105be57600080fd5b5051815260048054604080516311e2c60b60e11b81526001600160a01b038c811694820194909452905192909116916323c58c1691602480820192602092909190829003018186803b15801561061357600080fd5b505afa158015610627573d6000803e3d6000fd5b505050506040513d602081101561063d57600080fd5b505160208281019190915260408083018990526005546001600160a01b03908116606085018190528251637608271560e01b8152918c16600483015291519192637608271592602480840193829003018186803b15801561069d57600080fd5b505afa1580156106b1573d6000803e3d6000fd5b505050506040513d60208110156106c757600080fd5b50516001600160a01b031660808201525b60808101516001600160a01b031615801590610783575060208082015160065460808401516040805163b1eafaab60e01b81526001600160a01b0392831660048201528d83166024820152604481018c905290519394919092169263b1eafaab926064808201939291829003018186803b15801561075557600080fd5b505afa158015610769573d6000803e3d6000fd5b505050506040513d602081101561077f57600080fd5b5051105b156108225760608101516080820151604080516239c6e160ea1b81526001600160a01b038c8116600483015292831660248201529051919092169163e71b8400916044808301926020929190829003018186803b1580156107e357600080fd5b505afa1580156107f7573d6000803e3d6000fd5b505050506040513d602081101561080d57600080fd5b50516001600160a01b031660808201526106d8565b60808101519350846108345760001994505b60808101516001600160a01b031615801590610854575060008160400151115b8015610864575060001985019415155b15610c76576006546080820151604080516339c004f360e11b81526001600160a01b0392831660048201528b83166024820152905161099093929092169163738009e691604480820192602092909190829003018186803b1580156108c857600080fd5b505afa1580156108dc573d6000803e3d6000fd5b505050506040513d60208110156108f257600080fd5b5051600654608084015160408051631e7c58c160e31b81526001600160a01b0392831660048201528d83166024820152905161098493929092169163f3e2c60891604480820192602092909190829003018186803b15801561095357600080fd5b505afa158015610967573d6000803e3d6000fd5b505050506040513d602081101561097d57600080fd5b5051611450565b9063ffffffff61131c16565b60a0820181905260408201511015610bbe576804e1003b28d92800008160a001511115610bb9576109e481604001516109df6804e1003b28d92800008460a0015161146a90919063ffffffff16565b6114ac565b60c082015260065460808201516040805163752fd9a160e01b81526001600160a01b0392831660048201528b831660248201529051610b0693929092169163752fd9a191604480820192602092909190829003018186803b158015610a4857600080fd5b505afa158015610a5c573d6000803e3d6000fd5b505050506040513d6020811015610a7257600080fd5b505160065460808401516040805163305a536960e01b81526001600160a01b0392831660048201528d831660248201529051919092169163305a5369916044808301926020929190829003018186803b158015610ace57600080fd5b505afa158015610ae2573d6000803e3d6000fd5b505050506040513d6020811015610af857600080fd5b50519063ffffffff61131c16565b60e0820152805160c0820151610b4c91610b3b918991610b2f9190600a0a63ffffffff6114c216565b9063ffffffff61151b16565b60e08301519063ffffffff61146a16565b61010082015260c081015160a0820151610b6b9163ffffffff61146a16565b6101208201819052610b7c9061155d565b61014082018190526101008201518251610b969290611577565b9250610bb38160c00151826040015161146a90919063ffffffff16565b60408201525b610c76565b60a08101516040820151610bd79163ffffffff61146a16565b604082015260608101516080820151604080516239c6e160ea1b81526001600160a01b038c8116600483015292831660248201529051919092169163e71b8400916044808301926020929190829003018186803b158015610c3757600080fd5b505afa158015610c4b573d6000803e3d6000fd5b505050506040513d6020811015610c6157600080fd5b50516001600160a01b03166080820152610834565b6040810151610c8c90889063ffffffff61146a16565b9150509450945094915050565b610ca16111a1565b610cf2576040805162461bcd60e51b815260206004820181905260248201527f4f776e61626c653a2063616c6c6572206973206e6f7420746865206f776e6572604482015290519081900360640190fd5b610cfb836115bb565b610d04826115bb565b610d0d816115bb565b600480546001600160a01b038086166001600160a01b0319928316811790935560058054868316908416179055600680549185169190921617905560408051918252517f6a69409f44477d8556c3c8040edc75d9bc1b3dee7846f6045c0b99556fe7bc919181900360200190a1604080516001600160a01b038416815290517f65f4cf077bc01e4742eb5ad98326f6e95b63548ea24b17f8d5e823111fe788009181900360200190a1604080516001600160a01b038316815290517f143219c9e69b09e07e095fcc889b43d8f46ca892bba65f08dc3a0050869a56789181900360200190a1610dfa61166e565b505050565b6001546001600160a01b031681565b6006546001600160a01b031681565b60c881565b6004546001600160a01b031681565b6000806000610e3f8761137f565b600654604080516320618ae960e11b81526001600160a01b038a81166004830152915160009392909216916340c315d291602480820192602092909190829003018186803b158015610e9057600080fd5b505afa158015610ea4573d6000803e3d6000fd5b505050506040513d6020811015610eba57600080fd5b5051905080610ed357506000925082915083905061115e565b60055460408051637608271560e01b81526001600160a01b038b81166004830152915191909216916376082715916024808301926020929190829003018186803b158015610f2057600080fd5b505afa158015610f34573d6000803e3d6000fd5b505050506040513d6020811015610f4a57600080fd5b5051600654604080516390ec230160e01b81526001600160a01b0380851660048301528c811660248301529151939750610fdc938b9392909216916390ec230191604480820192602092909190829003018186803b158015610fab57600080fd5b505afa158015610fbf573d6000803e3d6000fd5b505050506040513d6020811015610fd557600080fd5b50516116b8565b925084915060015b8681101561115b5760408051602080820195909552815180820386018152908201909152805193019290922091600082848161101c57fe5b60065460408051638424ce7760e01b81526001600160a01b038f811660048301529490930660248401819052905190945060009390911691638424ce77916044808301926020929190829003018186803b15801561107957600080fd5b505afa15801561108d573d6000803e3d6000fd5b505050506040513d60208110156110a357600080fd5b5051600654604080516390ec230160e01b81526001600160a01b0380851660048301528f81166024830152915193945060009391909216916390ec2301916044808301926020929190829003018186803b15801561110057600080fd5b505afa158015611114573d6000803e3d6000fd5b505050506040513d602081101561112a57600080fd5b50519050600061113a828d6116b8565b90508781101561114b578097508298505b505060019092019150610fe49050565b50505b9450945094915050565b670de0b6b3a764000081565b6002546001600160a01b031681565b6000546001600160a01b031681565b6003546001600160a01b031690565b6003546001600160a01b0316331490565b6000805460408051639b56d6c960e01b81526001600160a01b038581166004830152915184939290921691639b56d6c991602480820192602092909190829003018186803b15801561120357600080fd5b505afa158015611217573d6000803e3d6000fd5b505050506040513d602081101561122d57600080fd5b505160015460408051639b56d6c960e01b81526001600160a01b03878116600483015291519394506000939190921691639b56d6c9916024808301926020929190829003018186803b1580156104e357600080fd5b6040518060400160405280600b81526020016a48696e7448656c7065727360a81b81525081565b60006112b984848460ff16611577565b90505b9392505050565b6005546001600160a01b031681565b6611c37937e0800081565b600083156113135760006112f186846116e7565b9050600061130986610b2f848863ffffffff6114c216565b92506103fe915050565b506000196103fe565b600082820183811015611376576040805162461bcd60e51b815260206004820152601b60248201527f536166654d6174683a206164646974696f6e206f766572666c6f770000000000604482015290519081900360640190fd5b90505b92915050565b6004805460408051630658339960e51b81526001600160a01b03858116948201949094529051929091169163cb06732091602480820192602092909190829003018186803b1580156113d057600080fd5b505afa1580156113e4573d6000803e3d6000fd5b505050506040513d60208110156113fa57600080fd5b505161144d576040805162461bcd60e51b815260206004820152601a60248201527f496e76616c696420636f6c6c61746572616c2061646472657373000000000000604482015290519081900360640190fd5b50565b600061137982678ac7230489e8000063ffffffff61146a16565b600061137683836040518060400160405280601e81526020017f536166654d6174683a207375627472616374696f6e206f766572666c6f77000081525061172f565b60008183106114bb5781611376565b5090919050565b6000826114d157506000611379565b828202828482816114de57fe5b04146113765760405162461bcd60e51b81526004018080602001828103825260218152602001806118986021913960400191505060405180910390fd5b600061137683836040518060400160405280601a81526020017f536166654d6174683a206469766973696f6e206279207a65726f0000000000008152506117c6565b600061137982678ac7230489e8000063ffffffff61131c16565b600082156115b257600061158b85846116e7565b90506115aa84610b2f8368056bc75e2d6310000063ffffffff6114c216565b9150506112bc565b506000196112bc565b6001600160a01b038116611616576040805162461bcd60e51b815260206004820152601e60248201527f4163636f756e742063616e6e6f74206265207a65726f20616464726573730000604482015290519081900360640190fd5b803b8061166a576040805162461bcd60e51b815260206004820181905260248201527f4163636f756e7420636f64652073697a652063616e6e6f74206265207a65726f604482015290519081900360640190fd5b5050565b6003546040516000916001600160a01b0316907f8be0079c531659141344cd1fd0a4f28419497f9722a3daafe3b4186f6b6457e0908390a3600380546001600160a01b0319169055565b6000818310156116d7576116d2828463ffffffff61146a16565b611376565b611376838363ffffffff61146a16565b81601282111561170f57611708816011198401600a0a63ffffffff61151b16565b9050611379565b601282101561137957611376816012849003600a0a63ffffffff6114c216565b600081848411156117be5760405162461bcd60e51b81526004018080602001828103825283818151815260200191508051906020019080838360005b8381101561178357818101518382015260200161176b565b50505050905090810190601f1680156117b05780820380516001836020036101000a031916815260200191505b509250505060405180910390fd5b505050900390565b600081836118155760405162461bcd60e51b815260206004820181815283516024840152835190928392604490910191908501908083836000831561178357818101518382015260200161176b565b50600083858161182157fe5b0495945050505050565b60405180610160016040528060008152602001600081526020016000815260200160006001600160a01b0316815260200160006001600160a01b03168152602001600081526020016000815260200160008152602001600081526020016000815260200160008152509056fe536166654d6174683a206d756c7469706c69636174696f6e206f766572666c6f77a2646970667358221220834f2f784d9817259fa638217b6a7f59f6c472600643c3009323013b70b8054e64736f6c634300060b0033",
  "linkReferences": {},
  "deployedLinkReferences": {}
}