{
  "_format": "hh-sol-artifact-1",
  "contractName": "CollateralConfig",
  "sourceName": "contracts/CollateralConfig.sol",
  "abi": [
    {
      "anonymous": false,
      "inputs": [
        {
          "indexed": false,
          "internalType": "address",
          "name": "_collateral",
          "type": "address"
        },
        {
          "indexed": false,
          "internalType": "uint256",
          "name": "_MCR",
          "type": "uint256"
        },
        {
          "indexed": false,
          "internalType": "uint256",
          "name": "_CCR",
          "type": "uint256"
        }
      ],
      "name": "CollateralRatiosUpdated",
      "type": "event"
    },
    {
      "anonymous": false,
      "inputs": [
        {
          "indexed": false,
          "internalType": "address",
          "name": "_collateral",
          "type": "address"
        },
        {
          "indexed": false,
          "internalType": "uint256",
          "name": "_decimals",
          "type": "uint256"
        },
        {
          "indexed": false,
          "internalType": "uint256",
          "name": "_MCR",
          "type": "uint256"
        },
        {
          "indexed": false,
          "internalType": "uint256",
          "name": "_CCR",
          "type": "uint256"
        }
      ],
      "name": "CollateralWhitelisted",
      "type": "event"
    },
    {
      "anonymous": false,
      "inputs": [
        {
          "indexed": true,
          "internalType": "address",
          "name": "previousOwner",
          "type": "address"
        },
        {
          "indexed": true,
          "internalType": "address",
          "name": "newOwner",
          "type": "address"
        }
      ],
      "name": "OwnershipTransferred",
      "type": "event"
    },
    {
      "inputs": [],
      "name": "MIN_ALLOWED_CCR",
      "outputs": [
        {
          "internalType": "uint256",
          "name": "",
          "type": "uint256"
        }
      ],
      "stateMutability": "view",
      "type": "function"
    },
    {
      "inputs": [],
      "name": "MIN_ALLOWED_MCR",
      "outputs": [
        {
          "internalType": "uint256",
          "name": "",
          "type": "uint256"
        }
      ],
      "stateMutability": "view",
      "type": "function"
    },
    {
      "inputs": [
        {
          "internalType": "address",
          "name": "",
          "type": "address"
        }
      ],
      "name": "collateralConfig",
      "outputs": [
        {
          "internalType": "bool",
          "name": "allowed",
          "type": "bool"
        },
        {
          "internalType": "uint256",
          "name": "decimals",
          "type": "uint256"
        },
        {
          "internalType": "uint256",
          "name": "MCR",
          "type": "uint256"
        },
        {
          "internalType": "uint256",
          "name": "CCR",
          "type": "uint256"
        }
      ],
      "stateMutability": "view",
      "type": "function"
    },
    {
      "inputs": [
        {
          "internalType": "uint256",
          "name": "",
          "type": "uint256"
        }
      ],
      "name": "collaterals",
      "outputs": [
        {
          "internalType": "address",
          "name": "",
          "type": "address"
        }
      ],
      "stateMutability": "view",
      "type": "function"
    },
    {
      "inputs": [],
      "name": "getAllowedCollaterals",
      "outputs": [
        {
          "internalType": "address[]",
          "name": "",
          "type": "address[]"
        }
      ],
      "stateMutability": "view",
      "type": "function"
    },
    {
      "inputs": [
        {
          "internalType": "address",
          "name": "_collateral",
          "type": "address"
        }
      ],
      "name": "getCollateralCCR",
      "outputs": [
        {
          "internalType": "uint256",
          "name": "",
          "type": "uint256"
        }
      ],
      "stateMutability": "view",
      "type": "function"
    },
    {
      "inputs": [
        {
          "internalType": "address",
          "name": "_collateral",
          "type": "address"
        }
      ],
      "name": "getCollateralDecimals",
      "outputs": [
        {
          "internalType": "uint256",
          "name": "",
          "type": "uint256"
        }
      ],
      "stateMutability": "view",
      "type": "function"
    },
    {
      "inputs": [
        {
          "internalType": "address",
          "name": "_collateral",
          "type": "address"
        }
      ],
      "name": "getCollateralMCR",
      "outputs": [
        {
          "internalType": "uint256",
          "name": "",
          "type": "uint256"
        }
      ],
      "stateMutability": "view",
      "type": "function"
    },
    {
      "inputs": [
        {
          "internalType": "address[]",
          "name": "_collaterals",
          "type": "address[]"
        },
        {
          "internalType": "uint256[]",
          "name": "_MCRs",
          "type": "uint256[]"
        },
        {
          "internalType": "uint256[]",
          "name": "_CCRs",
          "type": "uint256[]"
        }
      ],
      "name": "initialize",
      "outputs": [],
      "stateMutability": "nonpayable",
      "type": "function"
    },
    {
      "inputs": [],
      "name": "initialized",
      "outputs": [
        {
          "internalType": "bool",
          "name": "",
          "type": "bool"
        }
      ],
      "stateMutability": "view",
      "type": "function"
    },
    {
      "inputs": [
        {
          "internalType": "address",
          "name": "_collateral",
          "type": "address"
        }
      ],
      "name": "isCollateralAllowed",
      "outputs": [
        {
          "internalType": "bool",
          "name": "",
          "type": "bool"
        }
      ],
      "stateMutability": "view",
      "type": "function"
    },
    {
      "inputs": [],
      "name": "isOwner",
      "outputs": [
        {
          "internalType": "bool",
          "name": "",
          "type": "bool"
        }
      ],
      "stateMutability": "view",
      "type": "function"
    },
    {
      "inputs": [],
      "name": "owner",
      "outputs": [
        {
          "internalType": "address",
          "name": "",
          "type": "address"
        }
      ],
      "stateMutability": "view",
      "type": "function"
    },
    {
      "inputs": [
        {
          "internalType": "address",
          "name": "_collateral",
          "type": "address"
        },
        {
          "internalType": "uint256",
          "name": "_MCR",
          "type": "uint256"
        },
        {
          "internalType": "uint256",
          "name": "_CCR",
          "type": "uint256"
        }
      ],
      "name": "updateCollateralRatios",
      "outputs": [],
      "stateMutability": "nonpayable",
      "type": "function"
    }
  ],
  "bytecode": "0x60806040526000805460ff60a01b1916905534801561001d57600080fd5b50600080546001600160a01b0319163390811782556040519091907f8be0079c531659141344cd1fd0a4f28419497f9722a3daafe3b4186f6b6457e0908290a3610e568061006c6000396000f3fe608060405234801561001057600080fd5b50600436106100ca5760003560e01c80638da5cb5b1161007c5780638da5cb5b146101e05780638f32d59b146101e8578063b2604ecf146101f0578063c600876214610248578063cb0673201461027c578063eb7aac5f146102a2578063f553c910146102c8576100ca565b80630b3b8818146100cf5780630cc248ad146100e957806312f16f5014610137578063158ef93e1461013f57806323c58c161461015b57806324c1173b146101815780638a7d7d6a146101ba575b600080fd5b6100d76103d6565b60408051918252519081900360200190f35b61010f600480360360208110156100ff57600080fd5b50356001600160a01b03166103e2565b6040805194151585526020850193909352838301919091526060830152519081900360800190f35b6100d761040f565b61014761041b565b604080519115158252519081900360200190f35b6100d76004803603602081101561017157600080fd5b50356001600160a01b031661042b565b61019e6004803603602081101561019757600080fd5b50356104a9565b604080516001600160a01b039092168252519081900360200190f35b6100d7600480360360208110156101d057600080fd5b50356001600160a01b03166104d0565b61019e61054d565b61014761055c565b6101f861056d565b60408051602080825283518183015283519192839290830191858101910280838360005b8381101561023457818101518382015260200161021c565b505050509050019250505060405180910390f35b61027a6004803603606081101561025e57600080fd5b506001600160a01b0381351690602081013590604001356105cf565b005b6101476004803603602081101561029257600080fd5b50356001600160a01b0316610861565b6100d7600480360360208110156102b857600080fd5b50356001600160a01b031661087f565b61027a600480360360608110156102de57600080fd5b810190602081018135600160201b8111156102f857600080fd5b82018360208201111561030a57600080fd5b803590602001918460208302840111600160201b8311171561032b57600080fd5b919390929091602081019035600160201b81111561034857600080fd5b82018360208201111561035a57600080fd5b803590602001918460208302840111600160201b8311171561037b57600080fd5b919390929091602081019035600160201b81111561039857600080fd5b8201836020820111156103aa57600080fd5b803590602001918460208302840111600160201b831117156103cb57600080fd5b5090925090506108fc565b670f43fc2c04ee000081565b6002602081905260009182526040909120805460018201549282015460039092015460ff90911692919084565b6714d1120d7b16000081565b600054600160a01b900460ff1681565b6001600160a01b038116600090815260026020526040812054829060ff16610488576040805162461bcd60e51b815260206004820152601a6024820152600080516020610e01833981519152604482015290519081900360640190fd5b50506001600160a01b03166000908152600260208190526040909120015490565b600181815481106104b657fe5b6000918252602090912001546001600160a01b0316905081565b6001600160a01b038116600090815260026020526040812054829060ff1661052d576040805162461bcd60e51b815260206004820152601a6024820152600080516020610e01833981519152604482015290519081900360640190fd5b50506001600160a01b031660009081526002602052604090206003015490565b6000546001600160a01b031690565b6000546001600160a01b0316331490565b606060018054806020026020016040519081016040528092919081815260200182805480156105c557602002820191906000526020600020905b81546001600160a01b031681526001909101906020018083116105a7575b5050505050905090565b6105d761055c565b610628576040805162461bcd60e51b815260206004820181905260248201527f4f776e61626c653a2063616c6c6572206973206e6f7420746865206f776e6572604482015290519081900360640190fd5b6001600160a01b038316600090815260026020526040902054839060ff16610685576040805162461bcd60e51b815260206004820152601a6024820152600080516020610e01833981519152604482015290519081900360640190fd5b6001600160a01b0384166000908152600260208190526040909120908101548411156106f8576040805162461bcd60e51b815260206004820152601a60248201527f43616e206f6e6c792077616c6b20646f776e20746865204d4352000000000000604482015290519081900360640190fd5b8060030154831115610751576040805162461bcd60e51b815260206004820152601a60248201527f43616e206f6e6c792077616c6b20646f776e2074686520434352000000000000604482015290519081900360640190fd5b670f43fc2c04ee00008410156107aa576040805162461bcd60e51b81526020600482015260196024820152784d43522062656c6f7720616c6c6f776564206d696e696d756d60381b604482015290519081900360640190fd5b600281018490556714d1120d7b16000083101561080a576040805162461bcd60e51b81526020600482015260196024820152784343522062656c6f7720616c6c6f776564206d696e696d756d60381b604482015290519081900360640190fd5b60038101839055604080516001600160a01b03871681526020810186905280820185905290517f6298a28d1e343ba1ced1672f02ae0ca17bb3bdc4a9fc79741f539025478f153e9181900360600190a15050505050565b6001600160a01b031660009081526002602052604090205460ff1690565b6001600160a01b038116600090815260026020526040812054829060ff166108dc576040805162461bcd60e51b815260206004820152601a6024820152600080516020610e01833981519152604482015290519081900360640190fd5b50506001600160a01b031660009081526002602052604090206001015490565b61090461055c565b610955576040805162461bcd60e51b815260206004820181905260248201527f4f776e61626c653a2063616c6c6572206973206e6f7420746865206f776e6572604482015290519081900360640190fd5b600054600160a01b900460ff16156109af576040805162461bcd60e51b815260206004820152601860248201527743616e206f6e6c7920696e697469616c697a65206f6e636560401b604482015290519081900360640190fd5b84610a01576040805162461bcd60e51b815260206004820181905260248201527f4174206c65617374206f6e6520636f6c6c61746572616c207265717569726564604482015290519081900360640190fd5b828514610a50576040805162461bcd60e51b8152602060048201526018602482015277082e4e4c2f240d8cadccee8d0e640daeae6e840dac2e8c6d60431b604482015290519081900360640190fd5b808514610a9f576040805162461bcd60e51b8152602060048201526018602482015277082e4e4c2f240d8cadcced0e8e640daeae6e840dac2e8c6d60431b604482015290519081900360640190fd5b60005b85811015610d31576000878783818110610ab857fe5b905060200201356001600160a01b03169050610ad381610d4d565b6001805480820182557fb10e2d527612073b26eecdfd717e6a320cf44b4afac2b0732d9fcbe2b7fa0cf60180546001600160a01b0319166001600160a01b0384169081179091556000818152600260209081526040808320805460ff19169095178555805163313ce56760e01b8152905192939263313ce56792600480840193919291829003018186803b158015610b6a57600080fd5b505afa158015610b7e573d6000803e3d6000fd5b505050506040513d6020811015610b9457600080fd5b505160ff16600183018190559050670f43fc2c04ee0000888886818110610bb757fe5b905060200201351015610c0d576040805162461bcd60e51b81526020600482015260196024820152784d43522062656c6f7720616c6c6f776564206d696e696d756d60381b604482015290519081900360640190fd5b878785818110610c1957fe5b60200291909101356002840155506714d1120d7b160000868686818110610c3c57fe5b905060200201351015610c92576040805162461bcd60e51b81526020600482015260196024820152784343522062656c6f7720616c6c6f776564206d696e696d756d60381b604482015290519081900360640190fd5b858585818110610c9e57fe5b60200291909101356003840155507fa9e2b2b9c6ab23c8be97399d947520cfd68780b1c35957ddbdcd82309976f75483828a8a88818110610cdb57fe5b90506020020135898989818110610cee57fe5b604080516001600160a01b0390971687526020878101969096528681019490945293909302013560608401525191829003608001919050a1505050600101610aa2565b50506000805460ff60a01b1916600160a01b1790555050505050565b6001600160a01b038116610da8576040805162461bcd60e51b815260206004820152601e60248201527f4163636f756e742063616e6e6f74206265207a65726f20616464726573730000604482015290519081900360640190fd5b803b80610dfc576040805162461bcd60e51b815260206004820181905260248201527f4163636f756e7420636f64652073697a652063616e6e6f74206265207a65726f604482015290519081900360640190fd5b505056fe496e76616c696420636f6c6c61746572616c2061646472657373000000000000a2646970667358221220fcdd04080f4cb18f351b201f2d7494e1b26074d37207716c6f83e3b4cc193ebe64736f6c634300060b0033",
  "linkReferences": {},
  "deployedLinkReferences": {}
}