{
  "_format": "hh-sol-artifact-1",
  "contractName": "LUSDToken",
  "sourceName": "contracts/LUSDToken.sol",
  "abi": [
    {
      "inputs": [
        {
          "internalType": "address",
          "name": "_troveManagerAddress",
          "type": "address"
        },
        {
          "internalType": "address",
          "name": "_stabilityPoolAddress",
          "type": "address"
        },
        {
          "internalType": "address",
          "name": "_borrowerOperationsAddress",
          "type": "address"
        },
        {
          "internalType": "address",
          "name": "_governanceAddress",
          "type": "address"
        },
        {
          "internalType": "address",
          "name": "_guardianAddress",
          "type": "address"
        }
      ],
      "stateMutability": "nonpayable",
      "type": "constructor"
    },
    {
      "anonymous": false,
      "inputs": [
        {
          "indexed": true,
          "internalType": "address",
          "name": "owner",
          "type": "address"
        },
        {
          "indexed": true,
          "internalType": "address",
          "name": "spender",
          "type": "address"
        },
        {
          "indexed": false,
          "internalType": "uint256",
          "name": "value",
          "type": "uint256"
        }
      ],
      "name": "Approval",
      "type": "event"
    },
    {
      "anonymous": false,
      "inputs": [
        {
          "indexed": false,
          "internalType": "address",
          "name": "_newBorrowerOperationsAddress",
          "type": "address"
        }
      ],
      "name": "BorrowerOperationsAddressChanged",
      "type": "event"
    },
    {
      "anonymous": false,
      "inputs": [
        {
          "indexed": false,
          "internalType": "address",
          "name": "_governanceAddress",
          "type": "address"
        }
      ],
      "name": "GovernanceAddressChanged",
      "type": "event"
    },
    {
      "anonymous": false,
      "inputs": [
        {
          "indexed": false,
          "internalType": "address",
          "name": "_guardianAddress",
          "type": "address"
        }
      ],
      "name": "GuardianAddressChanged",
      "type": "event"
    },
    {
      "anonymous": false,
      "inputs": [
        {
          "indexed": false,
          "internalType": "address",
          "name": "_user",
          "type": "address"
        },
        {
          "indexed": false,
          "internalType": "uint256",
          "name": "_amount",
          "type": "uint256"
        }
      ],
      "name": "LUSDTokenBalanceUpdated",
      "type": "event"
    },
    {
      "anonymous": false,
      "inputs": [
        {
          "indexed": false,
          "internalType": "address",
          "name": "_newStabilityPoolAddress",
          "type": "address"
        }
      ],
      "name": "StabilityPoolAddressChanged",
      "type": "event"
    },
    {
      "anonymous": false,
      "inputs": [
        {
          "indexed": true,
          "internalType": "address",
          "name": "from",
          "type": "address"
        },
        {
          "indexed": true,
          "internalType": "address",
          "name": "to",
          "type": "address"
        },
        {
          "indexed": false,
          "internalType": "uint256",
          "name": "value",
          "type": "uint256"
        }
      ],
      "name": "Transfer",
      "type": "event"
    },
    {
      "anonymous": false,
      "inputs": [
        {
          "indexed": false,
          "internalType": "address",
          "name": "_troveManagerAddress",
          "type": "address"
        }
      ],
      "name": "TroveManagerAddressChanged",
      "type": "event"
    },
    {
      "inputs": [
        {
          "internalType": "address",
          "name": "owner",
          "type": "address"
        },
        {
          "internalType": "address",
          "name": "spender",
          "type": "address"
        }
      ],
      "name": "allowance",
      "outputs": [
        {
          "internalType": "uint256",
          "name": "",
          "type": "uint256"
        }
      ],
      "stateMutability": "view",
      "type": "function"
    },
    {
      "inputs": [
        {
          "internalType": "address",
          "name": "spender",
          "type": "address"
        },
        {
          "internalType": "uint256",
          "name": "amount",
          "type": "uint256"
        }
      ],
      "name": "approve",
      "outputs": [
        {
          "internalType": "bool",
          "name": "",
          "type": "bool"
        }
      ],
      "stateMutability": "nonpayable",
      "type": "function"
    },
    {
      "inputs": [
        {
          "internalType": "address",
          "name": "account",
          "type": "address"
        }
      ],
      "name": "balanceOf",
      "outputs": [
        {
          "internalType": "uint256",
          "name": "",
          "type": "uint256"
        }
      ],
      "stateMutability": "view",
      "type": "function"
    },
    {
      "inputs": [
        {
          "internalType": "address",
          "name": "",
          "type": "address"
        }
      ],
      "name": "borrowerOperations",
      "outputs": [
        {
          "internalType": "bool",
          "name": "",
          "type": "bool"
        }
      ],
      "stateMutability": "view",
      "type": "function"
    },
    {
      "inputs": [],
      "name": "borrowerOperationsAddress",
      "outputs": [
        {
          "internalType": "address",
          "name": "",
          "type": "address"
        }
      ],
      "stateMutability": "view",
      "type": "function"
    },
    {
      "inputs": [
        {
          "internalType": "address",
          "name": "_account",
          "type": "address"
        },
        {
          "internalType": "uint256",
          "name": "_amount",
          "type": "uint256"
        }
      ],
      "name": "burn",
      "outputs": [],
      "stateMutability": "nonpayable",
      "type": "function"
    },
    {
      "inputs": [],
      "name": "decimals",
      "outputs": [
        {
          "internalType": "uint8",
          "name": "",
          "type": "uint8"
        }
      ],
      "stateMutability": "view",
      "type": "function"
    },
    {
      "inputs": [
        {
          "internalType": "address",
          "name": "spender",
          "type": "address"
        },
        {
          "internalType": "uint256",
          "name": "subtractedValue",
          "type": "uint256"
        }
      ],
      "name": "decreaseAllowance",
      "outputs": [
        {
          "internalType": "bool",
          "name": "",
          "type": "bool"
        }
      ],
      "stateMutability": "nonpayable",
      "type": "function"
    },
    {
      "inputs": [],
      "name": "domainSeparator",
      "outputs": [
        {
          "internalType": "bytes32",
          "name": "",
          "type": "bytes32"
        }
      ],
      "stateMutability": "view",
      "type": "function"
    },
    {
      "inputs": [],
      "name": "getDeploymentStartTime",
      "outputs": [
        {
          "internalType": "uint256",
          "name": "",
          "type": "uint256"
        }
      ],
      "stateMutability": "view",
      "type": "function"
    },
    {
      "inputs": [],
      "name": "governanceAddress",
      "outputs": [
        {
          "internalType": "address",
          "name": "",
          "type": "address"
        }
      ],
      "stateMutability": "view",
      "type": "function"
    },
    {
      "inputs": [],
      "name": "guardianAddress",
      "outputs": [
        {
          "internalType": "address",
          "name": "",
          "type": "address"
        }
      ],
      "stateMutability": "view",
      "type": "function"
    },
    {
      "inputs": [
        {
          "internalType": "address",
          "name": "spender",
          "type": "address"
        },
        {
          "internalType": "uint256",
          "name": "addedValue",
          "type": "uint256"
        }
      ],
      "name": "increaseAllowance",
      "outputs": [
        {
          "internalType": "bool",
          "name": "",
          "type": "bool"
        }
      ],
      "stateMutability": "nonpayable",
      "type": "function"
    },
    {
      "inputs": [
        {
          "internalType": "address",
          "name": "_account",
          "type": "address"
        },
        {
          "internalType": "uint256",
          "name": "_amount",
          "type": "uint256"
        }
      ],
      "name": "mint",
      "outputs": [],
      "stateMutability": "nonpayable",
      "type": "function"
    },
    {
      "inputs": [],
      "name": "mintingPaused",
      "outputs": [
        {
          "internalType": "bool",
          "name": "",
          "type": "bool"
        }
      ],
      "stateMutability": "view",
      "type": "function"
    },
    {
      "inputs": [],
      "name": "name",
      "outputs": [
        {
          "internalType": "string",
          "name": "",
          "type": "string"
        }
      ],
      "stateMutability": "view",
      "type": "function"
    },
    {
      "inputs": [
        {
          "internalType": "address",
          "name": "owner",
          "type": "address"
        }
      ],
      "name": "nonces",
      "outputs": [
        {
          "internalType": "uint256",
          "name": "",
          "type": "uint256"
        }
      ],
      "stateMutability": "view",
      "type": "function"
    },
    {
      "inputs": [],
      "name": "pauseMinting",
      "outputs": [],
      "stateMutability": "nonpayable",
      "type": "function"
    },
    {
      "inputs": [
        {
          "internalType": "address",
          "name": "owner",
          "type": "address"
        },
        {
          "internalType": "address",
          "name": "spender",
          "type": "address"
        },
        {
          "internalType": "uint256",
          "name": "amount",
          "type": "uint256"
        },
        {
          "internalType": "uint256",
          "name": "deadline",
          "type": "uint256"
        },
        {
          "internalType": "uint8",
          "name": "v",
          "type": "uint8"
        },
        {
          "internalType": "bytes32",
          "name": "r",
          "type": "bytes32"
        },
        {
          "internalType": "bytes32",
          "name": "s",
          "type": "bytes32"
        }
      ],
      "name": "permit",
      "outputs": [],
      "stateMutability": "nonpayable",
      "type": "function"
    },
    {
      "inputs": [],
      "name": "permitTypeHash",
      "outputs": [
        {
          "internalType": "bytes32",
          "name": "",
          "type": "bytes32"
        }
      ],
      "stateMutability": "view",
      "type": "function"
    },
    {
      "inputs": [
        {
          "internalType": "address",
          "name": "_poolAddress",
          "type": "address"
        },
        {
          "internalType": "address",
          "name": "_receiver",
          "type": "address"
        },
        {
          "internalType": "uint256",
          "name": "_amount",
          "type": "uint256"
        }
      ],
      "name": "returnFromPool",
      "outputs": [],
      "stateMutability": "nonpayable",
      "type": "function"
    },
    {
      "inputs": [
        {
          "internalType": "address",
          "name": "_sender",
          "type": "address"
        },
        {
          "internalType": "address",
          "name": "_poolAddress",
          "type": "address"
        },
        {
          "internalType": "uint256",
          "name": "_amount",
          "type": "uint256"
        }
      ],
      "name": "sendToPool",
      "outputs": [],
      "stateMutability": "nonpayable",
      "type": "function"
    },
    {
      "inputs": [],
      "name": "stabilityPoolAddress",
      "outputs": [
        {
          "internalType": "address",
          "name": "",
          "type": "address"
        }
      ],
      "stateMutability": "view",
      "type": "function"
    },
    {
      "inputs": [
        {
          "internalType": "address",
          "name": "",
          "type": "address"
        }
      ],
      "name": "stabilityPools",
      "outputs": [
        {
          "internalType": "bool",
          "name": "",
          "type": "bool"
        }
      ],
      "stateMutability": "view",
      "type": "function"
    },
    {
      "inputs": [],
      "name": "symbol",
      "outputs": [
        {
          "internalType": "string",
          "name": "",
          "type": "string"
        }
      ],
      "stateMutability": "view",
      "type": "function"
    },
    {
      "inputs": [],
      "name": "totalSupply",
      "outputs": [
        {
          "internalType": "uint256",
          "name": "",
          "type": "uint256"
        }
      ],
      "stateMutability": "view",
      "type": "function"
    },
    {
      "inputs": [
        {
          "internalType": "address",
          "name": "recipient",
          "type": "address"
        },
        {
          "internalType": "uint256",
          "name": "amount",
          "type": "uint256"
        }
      ],
      "name": "transfer",
      "outputs": [
        {
          "internalType": "bool",
          "name": "",
          "type": "bool"
        }
      ],
      "stateMutability": "nonpayable",
      "type": "function"
    },
    {
      "inputs": [
        {
          "internalType": "address",
          "name": "sender",
          "type": "address"
        },
        {
          "internalType": "address",
          "name": "recipient",
          "type": "address"
        },
        {
          "internalType": "uint256",
          "name": "amount",
          "type": "uint256"
        }
      ],
      "name": "transferFrom",
      "outputs": [
        {
          "internalType": "bool",
          "name": "",
          "type": "bool"
        }
      ],
      "stateMutability": "nonpayable",
      "type": "function"
    },
    {
      "inputs": [],
      "name": "troveManagerAddress",
      "outputs": [
        {
          "internalType": "address",
          "name": "",
          "type": "address"
        }
      ],
      "stateMutability": "view",
      "type": "function"
    },
    {
      "inputs": [
        {
          "internalType": "address",
          "name": "",
          "type": "address"
        }
      ],
      "name": "troveManagers",
      "outputs": [
        {
          "internalType": "bool",
          "name": "",
          "type": "bool"
        }
      ],
      "stateMutability": "view",
      "type": "function"
    },
    {
      "inputs": [],
      "name": "unpauseMinting",
      "outputs": [],
      "stateMutability": "nonpayable",
      "type": "function"
    },
    {
      "inputs": [
        {
          "internalType": "address",
          "name": "_newGovernanceAddress",
          "type": "address"
        }
      ],
      "name": "updateGovernance",
      "outputs": [],
      "stateMutability": "nonpayable",
      "type": "function"
    },
    {
      "inputs": [
        {
          "internalType": "address",
          "name": "_newGuardianAddress",
          "type": "address"
        }
      ],
      "name": "updateGuardian",
      "outputs": [],
      "stateMutability": "nonpayable",
      "type": "function"
    },
    {
      "inputs": [
        {
          "internalType": "address",
          "name": "_newTroveManagerAddress",
          "type": "address"
        },
        {
          "internalType": "address",
          "name": "_newStabilityPoolAddress",
          "type": "address"
        },
        {
          "internalType": "address",
          "name": "_newBorrowerOperationsAddress",
          "type": "address"
        }
      ],
      "name": "upgradeProtocol",
      "outputs": [],
      "stateMutability": "nonpayable",
      "type": "function"
    },
    {
      "inputs": [],
      "name": "version",
      "outputs": [
        {
          "internalType": "string",
          "name": "",
          "type": "string"
        }
      ],
      "stateMutability": "view",
      "type": "function"
    }
  ],
  "bytecode": "0x6101206040526001805460ff191690553480156200001c57600080fd5b5060405162001f5b38038062001f5b833981810160405260a08110156200004257600080fd5b5080516020820151604083015160608401516080909401519293919290919062000075856001600160e01b036200039316565b62000089846001600160e01b036200039316565b6200009d836001600160e01b036200039316565b620000b1826001600160e01b036200039316565b620000c5816001600160e01b036200039316565b600880546001600160a01b0319166001600160a01b038716908117909155600081815260056020908152604091829020805460ff19166001179055815192835290517f143219c9e69b09e07e095fcc889b43d8f46ca892bba65f08dc3a0050869a56789281900390910190a1600980546001600160a01b0319166001600160a01b038616908117909155600081815260066020908152604091829020805460ff19166001179055815192835290517f82966d27eea39b038ee0fa30cd16532bb24f6e65d31cb58fb227aa5766cdcc7f9281900390910190a1600a80546001600160a01b0319166001600160a01b038516908117909155600081815260076020908152604091829020805460ff19166001179055815192835290517f3ca631ffcd2a9b5d9ae18543fc82f58eb4ca33af9e6ab01b7a8e95331e6ed9859281900390910190a1600b80546001600160a01b0384166001600160a01b0319909116811790915560408051918252517fa29a633a0eef2d1151c7c3b24a4f75c7c7a3b8a7eee6b54f75b7b168f1c87fec9181900360200190a1600c80546001600160a01b0383166001600160a01b0319909116811790915560408051918252517ff0ec871fc9fea2efa0febe6a5edbe4ffb7c4b3460cd48ca56833fb544595ce8c9181900360200190a1604080518082018252600f81526e262aa9a21029ba30b13632b1b7b4b760891b602091820152815180830190925260018252603160f81b9101527fabccaf2943f70764a048255e50e07d10e3c94973a6c6ba8b8ea62b1155209b0160c08190527fc89efdaa54c0f20c7adf612882df0950f5a951637e0307cdcb4c672f298b8bc660e0819052620003446001600160e01b036200044816565b60a0526200037d7f8b73c3c69bb8fe3d512ecc4cf759cc79239f7b179b0ffacaa9a75d522b39400f83836001600160e01b036200044c16565b6080525050426101005250620004ad9350505050565b6001600160a01b038116620003ef576040805162461bcd60e51b815260206004820152601e60248201527f4163636f756e742063616e6e6f74206265207a65726f20616464726573730000604482015290519081900360640190fd5b803b8062000444576040805162461bcd60e51b815260206004820181905260248201527f4163636f756e7420636f64652073697a652063616e6e6f74206265207a65726f604482015290519081900360640190fd5b5050565b4690565b6000838383620004646001600160e01b036200044816565b6040805160208082019690965280820194909452606084019290925260808301523060a0808401919091528151808403909101815260c090920190528051910120949350505050565b60805160a05160c05160e05161010051611a6e620004ed60003980610806525080610d9b525080610d7a525080610d00525080610d305250611a6e6000f3fe608060405234801561001057600080fd5b50600436106101d15760003560e01c8063795053d311610105578063bb997bac1161009d578063bb997bac1461053f578063c0b94e9f14610575578063d505accf1461059b578063da8fbf2a146105ec578063dd62ed3e146105f4578063e1a283d614610622578063f698da251461062a578063fc52539514610632578063fc72092f14610658576101d1565b8063795053d31461044f5780637ecebe001461045757806395d89b411461047d5780639dc29fac14610485578063a457c2d7146104b1578063a9059cbb146104dd578063ae20032214610509578063b256126314610511578063b7f8cf9b14610537576101d1565b806323b872dd1161017857806323b872dd1461035d578063313ce5671461039357806339509351146103b15780633c84b7c2146103dd57806340c10f19146103e557806342e444181461041157806354fd4d50146104195780635a4d28bb1461042157806370a0823114610429576101d1565b806306fdde03146101d6578063095ea7b3146102535780630b622ab21461029357806310ce43bd146102b7578063122540cb146102d157806316d556d0146102f757806318160ddd1461031d57806320c582be14610325575b600080fd5b6101de610690565b6040805160208082528351818301528351919283929083019185019080838360005b83811015610218578181015183820152602001610200565b50505050905090810190601f1680156102455780820380516001836020036101000a031916815260200191505b509250505060405180910390f35b61027f6004803603604081101561026957600080fd5b506001600160a01b0381351690602001356106ba565b604080519115158252519081900360200190f35b61029b6106d0565b604080516001600160a01b039092168252519081900360200190f35b6102bf6106df565b60408051918252519081900360200190f35b61027f600480360360208110156102e757600080fd5b50356001600160a01b0316610703565b61027f6004803603602081101561030d57600080fd5b50356001600160a01b0316610718565b6102bf61072d565b61035b6004803603606081101561033b57600080fd5b506001600160a01b03813581169160208101359091169060400135610733565b005b61027f6004803603606081101561037357600080fd5b506001600160a01b0381358116916020810135909116906040013561074b565b61039b6107c3565b6040805160ff9092168252519081900360200190f35b61027f600480360360408110156103c757600080fd5b506001600160a01b0381351690602001356107c8565b6102bf610804565b61035b600480360360408110156103fb57600080fd5b506001600160a01b038135169060200135610828565b61029b610846565b6101de610855565b61029b610870565b6102bf6004803603602081101561043f57600080fd5b50356001600160a01b031661087f565b61029b61089a565b6102bf6004803603602081101561046d57600080fd5b50356001600160a01b03166108a9565b6101de6108c4565b61035b6004803603604081101561049b57600080fd5b506001600160a01b0381351690602001356108e2565b61027f600480360360408110156104c757600080fd5b506001600160a01b0381351690602001356108f4565b61027f600480360360408110156104f357600080fd5b506001600160a01b038135169060200135610949565b61035b61095f565b61035b6004803603602081101561052757600080fd5b50356001600160a01b0316610973565b61029b6109d8565b61035b6004803603606081101561055557600080fd5b506001600160a01b038135811691602081013590911690604001356109e7565b61027f6004803603602081101561058b57600080fd5b50356001600160a01b03166109ef565b61035b600480360360e08110156105b157600080fd5b506001600160a01b03813581169160208101359091169060408101359060608101359060ff6080820135169060a08101359060c00135610a04565b61035b610c5c565b6102bf6004803603604081101561060a57600080fd5b506001600160a01b0381358116916020013516610cc8565b61027f610cf3565b6102bf610cfc565b61035b6004803603602081101561064857600080fd5b50356001600160a01b0316610dc6565b61035b6004803603606081101561066e57600080fd5b506001600160a01b038135811691602081013582169160409091013516610e2b565b60408051808201909152600f81526e262aa9a21029ba30b13632b1b7b4b760891b60208201525b90565b60006106c7338484610f97565b50600192915050565b6009546001600160a01b031681565b7f6e71edae12b1b97f4d1f60370fef10105fa2faae0126114a169c64845d6126c990565b60066020526000908152604090205460ff1681565b60056020526000908152604090205460ff1681565b60005490565b61073b611019565b610746838383611083565b505050565b600061075683611165565b610761848484611083565b6107b984336107b4856040518060600160405280602881526020016118f7602891396001600160a01b038a166000908152600460209081526040808320338452909152902054919063ffffffff61126616565b610f97565b5060019392505050565b601290565b3360008181526004602090815260408083206001600160a01b038716845290915281205490916106c79185906107b4908663ffffffff6112fd16565b7f000000000000000000000000000000000000000000000000000000000000000090565b61083061135e565b6108386113a0565b61084282826113e9565b5050565b600c546001600160a01b031681565b6040805180820190915260018152603160f81b602082015290565b6008546001600160a01b031681565b6001600160a01b031660009081526003602052604090205490565b600b546001600160a01b031681565b6001600160a01b031660009081526002602052604090205490565b604080518082019091526004815263131554d160e21b602082015290565b6108ea61147d565b61084282826114ff565b60006106c733846107b4856040518060600160405280602581526020016119c0602591393360009081526004602090815260408083206001600160a01b038d168452909152902054919063ffffffff61126616565b600061095483611165565b6106c7338484611083565b6109676115b5565b6001805460ff19169055565b61097b6115b5565b610984816115fe565b600b80546001600160a01b0383166001600160a01b0319909116811790915560408051918252517fa29a633a0eef2d1151c7c3b24a4f75c7c7a3b8a7eee6b54f75b7b168f1c87fec9181900360200190a150565b600a546001600160a01b031681565b61073b6116ad565b60076020526000908152604090205460ff1681565b6fa2a8918ca85bafe22016d0b997e4df60600160ff1b03811115610a67576040805162461bcd60e51b81526020600482015260156024820152744c5553443a20496e76616c696420732076616c756560581b604482015290519081900360640190fd5b42841015610ab5576040805162461bcd60e51b81526020600482015260166024820152754c5553443a206578706972656420646561646c696e6560501b604482015290519081900360640190fd5b6000610abf610cfc565b6001600160a01b03808a1660008181526002602090815260408083208054600180820190925582517f6e71edae12b1b97f4d1f60370fef10105fa2faae0126114a169c64845d6126c98186015280840196909652958e166060860152608085018d905260a085019590955260c08085018c90528151808603909101815260e08501825280519083012061190160f01b6101008601526101028501969096526101228085019690965280518085039096018652610142840180825286519683019690962095839052610162840180825286905260ff8a166101828501526101a284018990526101c284018890525194955090936101e280840193601f198301929081900390910190855afa158015610bda573d6000803e3d6000fd5b505050602060405103519050886001600160a01b0316816001600160a01b031614610c46576040805162461bcd60e51b81526020600482015260176024820152764c5553443a20696e76616c6964207369676e617475726560481b604482015290519081900360640190fd5b610c51898989610f97565b505050505050505050565b600c546001600160a01b0316331480610c7f5750600b546001600160a01b031633145b610cba5760405162461bcd60e51b815260040180806020018281038252602a815260200180611996602a913960400191505060405180910390fd5b6001805460ff191681179055565b6001600160a01b03918216600090815260046020908152604080832093909416825291909152205490565b60015460ff1681565b60007f0000000000000000000000000000000000000000000000000000000000000000610d276116f6565b1415610d5457507f00000000000000000000000000000000000000000000000000000000000000006106b7565b610dbf7f8b73c3c69bb8fe3d512ecc4cf759cc79239f7b179b0ffacaa9a75d522b39400f7f00000000000000000000000000000000000000000000000000000000000000007f00000000000000000000000000000000000000000000000000000000000000006116fa565b90506106b7565b610dce6115b5565b610dd7816115fe565b600c80546001600160a01b0383166001600160a01b0319909116811790915560408051918252517ff0ec871fc9fea2efa0febe6a5edbe4ffb7c4b3460cd48ca56833fb544595ce8c9181900360200190a150565b610e336115b5565b610e3c836115fe565b610e45826115fe565b610e4e816115fe565b600880546001600160a01b0319166001600160a01b038516908117909155600081815260056020908152604091829020805460ff19166001179055815192835290517f143219c9e69b09e07e095fcc889b43d8f46ca892bba65f08dc3a0050869a56789281900390910190a1600980546001600160a01b0319166001600160a01b038416908117909155600081815260066020908152604091829020805460ff19166001179055815192835290517f82966d27eea39b038ee0fa30cd16532bb24f6e65d31cb58fb227aa5766cdcc7f9281900390910190a1600a80546001600160a01b0319166001600160a01b038316908117909155600081815260076020908152604091829020805460ff19166001179055815192835290517f3ca631ffcd2a9b5d9ae18543fc82f58eb4ca33af9e6ab01b7a8e95331e6ed9859281900390910190a1505050565b6001600160a01b038316610fa757fe5b6001600160a01b038216610fb757fe5b6001600160a01b03808416600081815260046020908152604080832094871680845294825291829020859055815185815291517f8c5be1e5ebec7d5bd14f71427d1e84f3dd0314c0f7b2291e5b200ac8c7c3b9259281900390910190a3505050565b3360009081526005602052604090205460ff168061104657503360009081526006602052604090205460ff165b6110815760405162461bcd60e51b81526004018080602001828103825260368152602001806117936036913960400191505060405180910390fd5b565b6001600160a01b03831661109357fe5b6001600160a01b0382166110a357fe5b6110e6816040518060600160405280602681526020016117eb602691396001600160a01b038616600090815260036020526040902054919063ffffffff61126616565b6001600160a01b03808516600090815260036020526040808220939093559084168152205461111b908263ffffffff6112fd16565b6001600160a01b03808416600081815260036020908152604091829020949094558051858152905191939287169260008051602061197683398151915292918290030190a3505050565b6001600160a01b0381161580159061118657506001600160a01b0381163014155b6111c15760405162461bcd60e51b81526004018080602001828103825260548152602001806119e56054913960600191505060405180910390fd5b6001600160a01b03811660009081526006602052604090205460ff1615801561120357506001600160a01b03811660009081526005602052604090205460ff16155b801561122857506001600160a01b03811660009081526007602052604090205460ff16155b6112635760405162461bcd60e51b815260040180806020018281038252605781526020018061191f6057913960600191505060405180910390fd5b50565b600081848411156112f55760405162461bcd60e51b81526004018080602001828103825283818151815260200191508051906020019080838360005b838110156112ba5781810151838201526020016112a2565b50505050905090810190601f1680156112e75780820380516001836020036101000a031916815260200191505b509250505060405180910390fd5b505050900390565b600082820183811015611357576040805162461bcd60e51b815260206004820152601b60248201527f536166654d6174683a206164646974696f6e206f766572666c6f770000000000604482015290519081900360640190fd5b9392505050565b60015460ff16156110815760405162461bcd60e51b815260040180806020018281038252602681526020018061185e6026913960400191505060405180910390fd5b600a546001600160a01b031633146110815760405162461bcd60e51b815260040180806020018281038252602b8152602001806118cc602b913960400191505060405180910390fd5b6001600160a01b0382166113f957fe5b60005461140c908263ffffffff6112fd16565b60009081556001600160a01b038316815260036020526040902054611437908263ffffffff6112fd16565b6001600160a01b03831660008181526003602090815260408083209490945583518581529351929391926000805160206119768339815191529281900390910190a35050565b3360009081526005602052604090205460ff16806114aa57503360009081526006602052604090205460ff165b806114c457503360009081526007602052604090205460ff165b6110815760405162461bcd60e51b815260040180806020018281038252604d815260200180611811604d913960600191505060405180910390fd5b6001600160a01b03821661150f57fe5b611552816040518060600160405280602281526020016117c9602291396001600160a01b038516600090815260036020526040902054919063ffffffff61126616565b6001600160a01b0383166000908152600360205260408120919091555461157f908263ffffffff61175016565b60009081556040805183815290516001600160a01b03851691600080516020611976833981519152919081900360200190a35050565b600b546001600160a01b031633146110815760405162461bcd60e51b81526004018080602001828103825260238152602001806118a96023913960400191505060405180910390fd5b6001600160a01b038116611659576040805162461bcd60e51b815260206004820152601e60248201527f4163636f756e742063616e6e6f74206265207a65726f20616464726573730000604482015290519081900360640190fd5b803b80610842576040805162461bcd60e51b815260206004820181905260248201527f4163636f756e7420636f64652073697a652063616e6e6f74206265207a65726f604482015290519081900360640190fd5b6009546001600160a01b031633146110815760405162461bcd60e51b81526004018080602001828103825260258152602001806118846025913960400191505060405180910390fd5b4690565b60008383836117076116f6565b6040805160208082019690965280820194909452606084019290925260808301523060a0808401919091528151808403909101815260c090920190528051910120949350505050565b600061135783836040518060400160405280601e81526020017f536166654d6174683a207375627472616374696f6e206f766572666c6f77000081525061126656fe4c5553443a2043616c6c6572206973206e6569746865722054726f76654d616e61676572206e6f722053746162696c697479506f6f6c45524332303a206275726e20616d6f756e7420657863656564732062616c616e636545524332303a207472616e7366657220616d6f756e7420657863656564732062616c616e63654c5553443a2043616c6c6572206973206e65697468657220426f72726f7765724f7065726174696f6e73206e6f722054726f76654d616e61676572206e6f722053746162696c697479506f6f6c4c555344546f6b656e3a204d696e74696e672069732063757272656e746c79207061757365644c5553443a2043616c6c6572206973206e6f74207468652053746162696c697479506f6f6c4c555344546f6b656e3a2043616c6c6572206973206e6f7420476f7665726e616e63654c555344546f6b656e3a2043616c6c6572206973206e6f7420426f72726f7765724f7065726174696f6e7345524332303a207472616e7366657220616d6f756e74206578636565647320616c6c6f77616e63654c5553443a2043616e6e6f74207472616e7366657220746f6b656e73206469726563746c7920746f207468652053746162696c697479506f6f6c2c2054726f76654d616e61676572206f7220426f72726f7765724f7073ddf252ad1be2c89b69c2b068fc378daa952ba7f163c4a11628f55a4df523b3ef4c5553443a2043616c6c6572206973206e6f7420677561726469616e206f7220676f7665726e616e636545524332303a2064656372656173656420616c6c6f77616e63652062656c6f77207a65726f4c5553443a2043616e6e6f74207472616e7366657220746f6b656e73206469726563746c7920746f20746865204c55534420746f6b656e20636f6e7472616374206f7220746865207a65726f2061646472657373a2646970667358221220bd3374595aa69aa63f7e05ed8c034e1ed60e8843afc37d597d57da8901937c1f64736f6c634300060b0033",
  "linkReferences": {},
  "deployedLinkReferences": {}
}