{
  "_format": "hh-sol-artifact-1",
  "contractName": "DefaultPool",
  "sourceName": "contracts/DefaultPool.sol",
  "abi": [
    {
      "anonymous": false,
      "inputs": [
        {
          "indexed": false,
          "internalType": "address",
          "name": "_newActivePoolAddress",
          "type": "address"
        }
      ],
      "name": "ActivePoolAddressChanged",
      "type": "event"
    },
    {
      "anonymous": false,
      "inputs": [
        {
          "indexed": false,
          "internalType": "address",
          "name": "_newCollateralConfigAddress",
          "type": "address"
        }
      ],
      "name": "CollateralConfigAddressChanged",
      "type": "event"
    },
    {
      "anonymous": false,
      "inputs": [
        {
          "indexed": false,
          "internalType": "address",
          "name": "_collateral",
          "type": "address"
        },
        {
          "indexed": false,
          "internalType": "address",
          "name": "_to",
          "type": "address"
        },
        {
          "indexed": false,
          "internalType": "uint256",
          "name": "_amount",
          "type": "uint256"
        }
      ],
      "name": "CollateralSent",
      "type": "event"
    },
    {
      "anonymous": false,
      "inputs": [
        {
          "indexed": false,
          "internalType": "address",
          "name": "_newDefaultPoolAddress",
          "type": "address"
        }
      ],
      "name": "DefaultPoolAddressChanged",
      "type": "event"
    },
    {
      "anonymous": false,
      "inputs": [
        {
          "indexed": false,
          "internalType": "address",
          "name": "_collateral",
          "type": "address"
        },
        {
          "indexed": false,
          "internalType": "uint256",
          "name": "_amount",
          "type": "uint256"
        }
      ],
      "name": "DefaultPoolCollateralBalanceUpdated",
      "type": "event"
    },
    {
      "anonymous": false,
      "inputs": [
        {
          "indexed": false,
          "internalType": "address",
          "name": "_collateral",
          "type": "address"
        },
        {
          "indexed": false,
          "internalType": "uint256",
          "name": "_LUSDDebt",
          "type": "uint256"
        }
      ],
      "name": "DefaultPoolLUSDDebtUpdated",
      "type": "event"
    },
    {
      "anonymous": false,
      "inputs": [
        {
          "indexed": true,
          "internalType": "address",
          "name": "previousOwner",
          "type": "address"
        },
        {
          "indexed": true,
          "internalType": "address",
          "name": "newOwner",
          "type": "address"
        }
      ],
      "name": "OwnershipTransferred",
      "type": "event"
    },
    {
      "anonymous": false,
      "inputs": [
        {
          "indexed": false,
          "internalType": "address",
          "name": "_newStabilityPoolAddress",
          "type": "address"
        }
      ],
      "name": "StabilityPoolAddressChanged",
      "type": "event"
    },
    {
      "anonymous": false,
      "inputs": [
        {
          "indexed": false,
          "internalType": "address",
          "name": "_newTroveManagerAddress",
          "type": "address"
        }
      ],
      "name": "TroveManagerAddressChanged",
      "type": "event"
    },
    {
      "inputs": [],
      "name": "NAME",
      "outputs": [
        {
          "internalType": "string",
          "name": "",
          "type": "string"
        }
      ],
      "stateMutability": "view",
      "type": "function"
    },
    {
      "inputs": [],
      "name": "activePoolAddress",
      "outputs": [
        {
          "internalType": "address",
          "name": "",
          "type": "address"
        }
      ],
      "stateMutability": "view",
      "type": "function"
    },
    {
      "inputs": [],
      "name": "collateralConfigAddress",
      "outputs": [
        {
          "internalType": "address",
          "name": "",
          "type": "address"
        }
      ],
      "stateMutability": "view",
      "type": "function"
    },
    {
      "inputs": [
        {
          "internalType": "address",
          "name": "_collateral",
          "type": "address"
        },
        {
          "internalType": "uint256",
          "name": "_amount",
          "type": "uint256"
        }
      ],
      "name": "decreaseLUSDDebt",
      "outputs": [],
      "stateMutability": "nonpayable",
      "type": "function"
    },
    {
      "inputs": [
        {
          "internalType": "address",
          "name": "_collateral",
          "type": "address"
        }
      ],
      "name": "getCollateral",
      "outputs": [
        {
          "internalType": "uint256",
          "name": "",
          "type": "uint256"
        }
      ],
      "stateMutability": "view",
      "type": "function"
    },
    {
      "inputs": [
        {
          "internalType": "address",
          "name": "_collateral",
          "type": "address"
        }
      ],
      "name": "getLUSDDebt",
      "outputs": [
        {
          "internalType": "uint256",
          "name": "",
          "type": "uint256"
        }
      ],
      "stateMutability": "view",
      "type": "function"
    },
    {
      "inputs": [
        {
          "internalType": "address",
          "name": "_collateral",
          "type": "address"
        },
        {
          "internalType": "uint256",
          "name": "_amount",
          "type": "uint256"
        }
      ],
      "name": "increaseLUSDDebt",
      "outputs": [],
      "stateMutability": "nonpayable",
      "type": "function"
    },
    {
      "inputs": [],
      "name": "isOwner",
      "outputs": [
        {
          "internalType": "bool",
          "name": "",
          "type": "bool"
        }
      ],
      "stateMutability": "view",
      "type": "function"
    },
    {
      "inputs": [],
      "name": "owner",
      "outputs": [
        {
          "internalType": "address",
          "name": "",
          "type": "address"
        }
      ],
      "stateMutability": "view",
      "type": "function"
    },
    {
      "inputs": [
        {
          "internalType": "address",
          "name": "_collateral",
          "type": "address"
        },
        {
          "internalType": "uint256",
          "name": "_amount",
          "type": "uint256"
        }
      ],
      "name": "pullCollateralFromActivePool",
      "outputs": [],
      "stateMutability": "nonpayable",
      "type": "function"
    },
    {
      "inputs": [
        {
          "internalType": "address",
          "name": "_collateral",
          "type": "address"
        },
        {
          "internalType": "uint256",
          "name": "_amount",
          "type": "uint256"
        }
      ],
      "name": "sendCollateralToActivePool",
      "outputs": [],
      "stateMutability": "nonpayable",
      "type": "function"
    },
    {
      "inputs": [
        {
          "internalType": "address",
          "name": "_collateralConfigAddress",
          "type": "address"
        },
        {
          "internalType": "address",
          "name": "_troveManagerAddress",
          "type": "address"
        },
        {
          "internalType": "address",
          "name": "_activePoolAddress",
          "type": "address"
        }
      ],
      "name": "setAddresses",
      "outputs": [],
      "stateMutability": "nonpayable",
      "type": "function"
    },
    {
      "inputs": [],
      "name": "troveManagerAddress",
      "outputs": [
        {
          "internalType": "address",
          "name": "",
          "type": "address"
        }
      ],
      "stateMutability": "view",
      "type": "function"
    }
  ],
  "bytecode": "0x608060405234801561001057600080fd5b50600080546001600160a01b0319163390811782556040519091907f8be0079c531659141344cd1fd0a4f28419497f9722a3daafe3b4186f6b6457e0908290a36110408061005f6000396000f3fe608060405234801561001057600080fd5b50600436106100bf5760003560e01c80635fc7b5e81161007c5780635fc7b5e8146101ba57806374448ef9146101e65780638da5cb5b146102125780638f32d59b1461021a5780639b56d6c914610236578063a3f4df7e1461025c578063b08bc722146102d9576100bf565b806334e53962146100c4578063363bf964146100f257806336c855df1461012a5780633aacc8151461014e5780634b14fa871461017a5780635a4d28bb146101b2575b600080fd5b6100f0600480360360408110156100da57600080fd5b506001600160a01b0381351690602001356102e1565b005b6100f06004803603606081101561010857600080fd5b506001600160a01b03813581169160208101358216916040909101351661044f565b6101326105b5565b604080516001600160a01b039092168252519081900360200190f35b6100f06004803603604081101561016457600080fd5b506001600160a01b0381351690602001356105c4565b6101a06004803603602081101561019057600080fd5b50356001600160a01b0316610659565b60408051918252519081900360200190f35b610132610680565b6100f0600480360360408110156101d057600080fd5b506001600160a01b03813516906020013561068f565b6100f0600480360360408110156101fc57600080fd5b506001600160a01b0381351690602001356106c9565b61013261077f565b61022261078e565b604080519115158252519081900360200190f35b6101a06004803603602081101561024c57600080fd5b50356001600160a01b031661079f565b6102646107c6565b6040805160208082528351818301528351919283929083019185019080838360005b8381101561029e578181015183820152602001610286565b50505050905090810190601f1680156102cb5780820380516001836020036101000a031916815260200191505b509250505060405180910390f35b6101326107ed565b6102ea826107fc565b6102f26108c9565b6003546001600160a01b03838116600090815260046020526040902054911690610322908363ffffffff61091416565b6001600160a01b038416600081815260046020908152604091829020849055815192835282019290925281517f92cf70cc465be5b8377a4b155f26c9f6160e0238e1238fb2f11dcc07cd4f4a5e929181900390910190a1604080516001600160a01b0380861682528316602082015280820184905290517fe664153eb516123e000bb334869ec912418f6fe4c1abb53fe2f848c947a8405d9181900360600190a16103dd6001600160a01b038416828463ffffffff61095d16565b60035460408051630eb13cd160e41b81526001600160a01b038681166004830152602482018690529151919092169163eb13cd1091604480830192600092919082900301818387803b15801561043257600080fd5b505af1158015610446573d6000803e3d6000fd5b50505050505050565b61045761078e565b6104a8576040805162461bcd60e51b815260206004820181905260248201527f4f776e61626c653a2063616c6c6572206973206e6f7420746865206f776e6572604482015290519081900360640190fd5b6104b183610a49565b6104ba82610a49565b6104c381610a49565b600180546001600160a01b038086166001600160a01b0319928316811790935560028054868316908416179055600380549185169190921617905560408051918252517f6a69409f44477d8556c3c8040edc75d9bc1b3dee7846f6045c0b99556fe7bc919181900360200190a1604080516001600160a01b038416815290517f143219c9e69b09e07e095fcc889b43d8f46ca892bba65f08dc3a0050869a56789181900360200190a1604080516001600160a01b038316815290517f78f058b189175430c48dc02699e3a0031ea4ff781536dc2fab847de4babdd8829181900360200190a16105b0610af8565b505050565b6001546001600160a01b031681565b6105cd826107fc565b6105d56108c9565b6001600160a01b0382166000908152600560205260409020546105fe908263ffffffff61091416565b6001600160a01b038316600081815260056020908152604091829020849055815192835282019290925281517f01f4554a8e623756a4793453edc303955290ab5cd047f27f28677c76eb199feb929181900390910190a15050565b6000610664826107fc565b506001600160a01b031660009081526005602052604090205490565b6002546001600160a01b031681565b610698826107fc565b6106a06108c9565b6001600160a01b0382166000908152600560205260409020546105fe908263ffffffff610b4216565b6106d2826107fc565b6106da610b9c565b6001600160a01b038216600090815260046020526040902054610703908263ffffffff610b4216565b6001600160a01b038316600081815260046020908152604091829020849055815192835282019290925281517f92cf70cc465be5b8377a4b155f26c9f6160e0238e1238fb2f11dcc07cd4f4a5e929181900390910190a160035461077b906001600160a01b038481169116308463ffffffff610be516565b5050565b6000546001600160a01b031690565b6000546001600160a01b0316331490565b60006107aa826107fc565b506001600160a01b031660009081526004602052604090205490565b6040518060400160405280600b81526020016a111959985d5b1d141bdbdb60aa1b81525081565b6003546001600160a01b031681565b60015460408051630658339960e51b81526001600160a01b0384811660048301529151919092169163cb067320916024808301926020929190829003018186803b15801561084957600080fd5b505afa15801561085d573d6000803e3d6000fd5b505050506040513d602081101561087357600080fd5b50516108c6576040805162461bcd60e51b815260206004820152601a60248201527f496e76616c696420636f6c6c61746572616c2061646472657373000000000000604482015290519081900360640190fd5b50565b6002546001600160a01b031633146109125760405162461bcd60e51b815260040180806020018281038252602b815260200180610fb6602b913960400191505060405180910390fd5b565b600061095683836040518060400160405280601e81526020017f536166654d6174683a207375627472616374696f6e206f766572666c6f770000815250610c3f565b9392505050565b60408051636eb1769f60e11b81523060048201526001600160a01b03848116602483015291516000926109ee9285929188169163dd62ed3e91604480820192602092909190829003018186803b1580156109b657600080fd5b505afa1580156109ca573d6000803e3d6000fd5b505050506040513d60208110156109e057600080fd5b50519063ffffffff610b4216565b604080516001600160a01b038616602482015260448082018490528251808303909101815260649091019091526020810180516001600160e01b031663095ea7b360e01b179052909150610a43908590610cd6565b50505050565b6001600160a01b038116610aa4576040805162461bcd60e51b815260206004820152601e60248201527f4163636f756e742063616e6e6f74206265207a65726f20616464726573730000604482015290519081900360640190fd5b803b8061077b576040805162461bcd60e51b815260206004820181905260248201527f4163636f756e7420636f64652073697a652063616e6e6f74206265207a65726f604482015290519081900360640190fd5b600080546040516001600160a01b03909116907f8be0079c531659141344cd1fd0a4f28419497f9722a3daafe3b4186f6b6457e0908390a3600080546001600160a01b0319169055565b600082820183811015610956576040805162461bcd60e51b815260206004820152601b60248201527f536166654d6174683a206164646974696f6e206f766572666c6f770000000000604482015290519081900360640190fd5b6003546001600160a01b031633146109125760405162461bcd60e51b8152600401808060200182810382526029815260200180610f676029913960400191505060405180910390fd5b604080516001600160a01b0380861660248301528416604482015260648082018490528251808303909101815260849091019091526020810180516001600160e01b03166323b872dd60e01b179052610a43908590610cd6565b60008184841115610cce5760405162461bcd60e51b81526004018080602001828103825283818151815260200191508051906020019080838360005b83811015610c93578181015183820152602001610c7b565b50505050905090810190601f168015610cc05780820380516001836020036101000a031916815260200191505b509250505060405180910390fd5b505050900390565b6060610d2b826040518060400160405280602081526020017f5361666545524332303a206c6f772d6c6576656c2063616c6c206661696c6564815250856001600160a01b0316610d879092919063ffffffff16565b8051909150156105b057808060200190516020811015610d4a57600080fd5b50516105b05760405162461bcd60e51b815260040180806020018281038252602a815260200180610fe1602a913960400191505060405180910390fd5b6060610d968484600085610d9e565b949350505050565b606082471015610ddf5760405162461bcd60e51b8152600401808060200182810382526026815260200180610f906026913960400191505060405180910390fd5b610de885610efa565b610e39576040805162461bcd60e51b815260206004820152601d60248201527f416464726573733a2063616c6c20746f206e6f6e2d636f6e7472616374000000604482015290519081900360640190fd5b60006060866001600160a01b031685876040518082805190602001908083835b60208310610e785780518252601f199092019160209182019101610e59565b6001836020036101000a03801982511681845116808217855250505050505090500191505060006040518083038185875af1925050503d8060008114610eda576040519150601f19603f3d011682016040523d82523d6000602084013e610edf565b606091505b5091509150610eef828286610f00565b979650505050505050565b3b151590565b60608315610f0f575081610956565b825115610f1f5782518084602001fd5b60405162461bcd60e51b8152602060048201818152845160248401528451859391928392604401919085019080838360008315610c93578181015183820152602001610c7b56fe44656661756c74506f6f6c3a2043616c6c6572206973206e6f742074686520416374697665506f6f6c416464726573733a20696e73756666696369656e742062616c616e636520666f722063616c6c44656661756c74506f6f6c3a2043616c6c6572206973206e6f74207468652054726f76654d616e616765725361666545524332303a204552433230206f7065726174696f6e20646964206e6f742073756363656564a26469706673582212202acafbd72d5fad99e954d3a7ab7679f715c03dcaae9e50a3bb3c8b8ea44d6b7464736f6c634300060b0033",
  "linkReferences": {},
  "deployedLinkReferences": {}
}