{
  "_format": "hh-sol-artifact-1",
  "contractName": "EchidnaTester",
  "sourceName": "contracts/TestContracts/EchidnaTester.sol",
  "abi": [
    {
      "inputs": [
        {
          "internalType": "address",
          "name": "_treasuryAddress",
          "type": "address"
        },
        {
          "internalType": "address",
          "name": "_collateral",
          "type": "address"
        },
        {
          "internalType": "address",
          "name": "_erc4626vault",
          "type": "address"
        },
        {
          "internalType": "address",
          "name": "_governance",
          "type": "address"
        },
        {
          "internalType": "address",
          "name": "_guardian",
          "type": "address"
        }
      ],
      "stateMutability": "nonpayable",
      "type": "constructor"
    },
    {
      "inputs": [],
      "name": "activePool",
      "outputs": [
        {
          "internalType": "contract ActivePool",
          "name": "",
          "type": "address"
        }
      ],
      "stateMutability": "view",
      "type": "function"
    },
    {
      "inputs": [
        {
          "internalType": "uint256",
          "name": "_i",
          "type": "uint256"
        },
        {
          "internalType": "uint256",
          "name": "_collAmount",
          "type": "uint256"
        }
      ],
      "name": "addCollExt",
      "outputs": [],
      "stateMutability": "nonpayable",
      "type": "function"
    },
    {
      "inputs": [
        {
          "internalType": "uint256",
          "name": "_i",
          "type": "uint256"
        },
        {
          "internalType": "uint256",
          "name": "_collAmount",
          "type": "uint256"
        },
        {
          "internalType": "address",
          "name": "_upperHint",
          "type": "address"
        },
        {
          "internalType": "address",
          "name": "_lowerHint",
          "type": "address"
        }
      ],
      "name": "addCollRawExt",
      "outputs": [],
      "stateMutability": "nonpayable",
      "type": "function"
    },
    {
      "inputs": [
        {
          "internalType": "uint256",
          "name": "_i",
          "type": "uint256"
        },
        {
          "internalType": "uint256",
          "name": "_collTopUp",
          "type": "uint256"
        },
        {
          "internalType": "uint256",
          "name": "_collWithdrawal",
          "type": "uint256"
        },
        {
          "internalType": "uint256",
          "name": "_debtChange",
          "type": "uint256"
        },
        {
          "internalType": "bool",
          "name": "_isDebtIncrease",
          "type": "bool"
        }
      ],
      "name": "adjustTroveExt",
      "outputs": [],
      "stateMutability": "nonpayable",
      "type": "function"
    },
    {
      "inputs": [
        {
          "internalType": "uint256",
          "name": "_i",
          "type": "uint256"
        },
        {
          "internalType": "uint256",
          "name": "_collTopUp",
          "type": "uint256"
        },
        {
          "internalType": "uint256",
          "name": "_collWithdrawal",
          "type": "uint256"
        },
        {
          "internalType": "uint256",
          "name": "_debtChange",
          "type": "uint256"
        },
        {
          "internalType": "bool",
          "name": "_isDebtIncrease",
          "type": "bool"
        },
        {
          "internalType": "address",
          "name": "_upperHint",
          "type": "address"
        },
        {
          "internalType": "address",
          "name": "_lowerHint",
          "type": "address"
        },
        {
          "internalType": "uint256",
          "name": "_maxFee",
          "type": "uint256"
        }
      ],
      "name": "adjustTroveRawExt",
      "outputs": [],
      "stateMutability": "nonpayable",
      "type": "function"
    },
    {
      "inputs": [
        {
          "internalType": "uint256",
          "name": "_i",
          "type": "uint256"
        },
        {
          "internalType": "address",
          "name": "spender",
          "type": "address"
        },
        {
          "internalType": "uint256",
          "name": "amount",
          "type": "uint256"
        }
      ],
      "name": "approveExt",
      "outputs": [
        {
          "internalType": "bool",
          "name": "",
          "type": "bool"
        }
      ],
      "stateMutability": "nonpayable",
      "type": "function"
    },
    {
      "inputs": [
        {
          "internalType": "uint256",
          "name": "_i",
          "type": "uint256"
        },
        {
          "internalType": "address[]",
          "name": "_troveArray",
          "type": "address[]"
        }
      ],
      "name": "batchLiquidateTrovesExt",
      "outputs": [],
      "stateMutability": "nonpayable",
      "type": "function"
    },
    {
      "inputs": [],
      "name": "borrowerOperations",
      "outputs": [
        {
          "internalType": "contract BorrowerOperations",
          "name": "",
          "type": "address"
        }
      ],
      "stateMutability": "view",
      "type": "function"
    },
    {
      "inputs": [
        {
          "internalType": "uint256",
          "name": "_i",
          "type": "uint256"
        }
      ],
      "name": "closeTroveExt",
      "outputs": [],
      "stateMutability": "nonpayable",
      "type": "function"
    },
    {
      "inputs": [],
      "name": "collSurplusPool",
      "outputs": [
        {
          "internalType": "contract CollSurplusPool",
          "name": "",
          "type": "address"
        }
      ],
      "stateMutability": "view",
      "type": "function"
    },
    {
      "inputs": [],
      "name": "collateralConfig",
      "outputs": [
        {
          "internalType": "contract CollateralConfig",
          "name": "",
          "type": "address"
        }
      ],
      "stateMutability": "view",
      "type": "function"
    },
    {
      "inputs": [
        {
          "internalType": "uint256",
          "name": "_i",
          "type": "uint256"
        },
        {
          "internalType": "address",
          "name": "spender",
          "type": "address"
        },
        {
          "internalType": "uint256",
          "name": "subtractedValue",
          "type": "uint256"
        }
      ],
      "name": "decreaseAllowanceExt",
      "outputs": [
        {
          "internalType": "bool",
          "name": "",
          "type": "bool"
        }
      ],
      "stateMutability": "nonpayable",
      "type": "function"
    },
    {
      "inputs": [],
      "name": "defaultPool",
      "outputs": [
        {
          "internalType": "contract DefaultPool",
          "name": "",
          "type": "address"
        }
      ],
      "stateMutability": "view",
      "type": "function"
    },
    {
      "inputs": [
        {
          "internalType": "uint256",
          "name": "",
          "type": "uint256"
        }
      ],
      "name": "echidnaProxies",
      "outputs": [
        {
          "internalType": "contract EchidnaProxy",
          "name": "",
          "type": "address"
        }
      ],
      "stateMutability": "view",
      "type": "function"
    },
    {
      "inputs": [],
      "name": "echidna_ETH_balances",
      "outputs": [
        {
          "internalType": "bool",
          "name": "",
          "type": "bool"
        }
      ],
      "stateMutability": "view",
      "type": "function"
    },
    {
      "inputs": [],
      "name": "echidna_LUSD_global_balances",
      "outputs": [
        {
          "internalType": "bool",
          "name": "",
          "type": "bool"
        }
      ],
      "stateMutability": "view",
      "type": "function"
    },
    {
      "inputs": [],
      "name": "echidna_canary_active_pool_balance",
      "outputs": [
        {
          "internalType": "bool",
          "name": "",
          "type": "bool"
        }
      ],
      "stateMutability": "view",
      "type": "function"
    },
    {
      "inputs": [],
      "name": "echidna_canary_number_of_troves",
      "outputs": [
        {
          "internalType": "bool",
          "name": "",
          "type": "bool"
        }
      ],
      "stateMutability": "view",
      "type": "function"
    },
    {
      "inputs": [],
      "name": "echidna_price",
      "outputs": [
        {
          "internalType": "bool",
          "name": "",
          "type": "bool"
        }
      ],
      "stateMutability": "view",
      "type": "function"
    },
    {
      "inputs": [],
      "name": "echidna_trove_properties",
      "outputs": [
        {
          "internalType": "bool",
          "name": "",
          "type": "bool"
        }
      ],
      "stateMutability": "view",
      "type": "function"
    },
    {
      "inputs": [],
      "name": "echidna_troves_order",
      "outputs": [
        {
          "internalType": "bool",
          "name": "",
          "type": "bool"
        }
      ],
      "stateMutability": "view",
      "type": "function"
    },
    {
      "inputs": [],
      "name": "gasPool",
      "outputs": [
        {
          "internalType": "contract GasPool",
          "name": "",
          "type": "address"
        }
      ],
      "stateMutability": "view",
      "type": "function"
    },
    {
      "inputs": [
        {
          "internalType": "uint256",
          "name": "_i",
          "type": "uint256"
        },
        {
          "internalType": "address",
          "name": "spender",
          "type": "address"
        },
        {
          "internalType": "uint256",
          "name": "addedValue",
          "type": "uint256"
        }
      ],
      "name": "increaseAllowanceExt",
      "outputs": [
        {
          "internalType": "bool",
          "name": "",
          "type": "bool"
        }
      ],
      "stateMutability": "nonpayable",
      "type": "function"
    },
    {
      "inputs": [
        {
          "internalType": "uint256",
          "name": "_i",
          "type": "uint256"
        },
        {
          "internalType": "address",
          "name": "_user",
          "type": "address"
        }
      ],
      "name": "liquidateExt",
      "outputs": [],
      "stateMutability": "nonpayable",
      "type": "function"
    },
    {
      "inputs": [
        {
          "internalType": "uint256",
          "name": "_i",
          "type": "uint256"
        },
        {
          "internalType": "uint256",
          "name": "_n",
          "type": "uint256"
        }
      ],
      "name": "liquidateTrovesExt",
      "outputs": [],
      "stateMutability": "nonpayable",
      "type": "function"
    },
    {
      "inputs": [],
      "name": "lusdToken",
      "outputs": [
        {
          "internalType": "contract LUSDToken",
          "name": "",
          "type": "address"
        }
      ],
      "stateMutability": "view",
      "type": "function"
    },
    {
      "inputs": [
        {
          "internalType": "uint256",
          "name": "_i",
          "type": "uint256"
        },
        {
          "internalType": "uint256",
          "name": "_collAmount",
          "type": "uint256"
        },
        {
          "internalType": "uint256",
          "name": "_LUSDAmount",
          "type": "uint256"
        }
      ],
      "name": "openTroveExt",
      "outputs": [],
      "stateMutability": "nonpayable",
      "type": "function"
    },
    {
      "inputs": [
        {
          "internalType": "uint256",
          "name": "_i",
          "type": "uint256"
        },
        {
          "internalType": "uint256",
          "name": "_collAmount",
          "type": "uint256"
        },
        {
          "internalType": "uint256",
          "name": "_LUSDAmount",
          "type": "uint256"
        },
        {
          "internalType": "address",
          "name": "_upperHint",
          "type": "address"
        },
        {
          "internalType": "address",
          "name": "_lowerHint",
          "type": "address"
        },
        {
          "internalType": "uint256",
          "name": "_maxFee",
          "type": "uint256"
        }
      ],
      "name": "openTroveRawExt",
      "outputs": [],
      "stateMutability": "nonpayable",
      "type": "function"
    },
    {
      "inputs": [
        {
          "internalType": "uint256",
          "name": "_i",
          "type": "uint256"
        },
        {
          "internalType": "uint256",
          "name": "_amount",
          "type": "uint256"
        }
      ],
      "name": "provideToSPExt",
      "outputs": [],
      "stateMutability": "nonpayable",
      "type": "function"
    },
    {
      "inputs": [
        {
          "internalType": "uint256",
          "name": "_i",
          "type": "uint256"
        },
        {
          "internalType": "uint256",
          "name": "_LUSDAmount",
          "type": "uint256"
        },
        {
          "internalType": "address",
          "name": "_firstRedemptionHint",
          "type": "address"
        },
        {
          "internalType": "address",
          "name": "_upperPartialRedemptionHint",
          "type": "address"
        },
        {
          "internalType": "address",
          "name": "_lowerPartialRedemptionHint",
          "type": "address"
        },
        {
          "internalType": "uint256",
          "name": "_partialRedemptionHintNICR",
          "type": "uint256"
        }
      ],
      "name": "redeemCollateralExt",
      "outputs": [],
      "stateMutability": "nonpayable",
      "type": "function"
    },
    {
      "inputs": [],
      "name": "redemptionHelper",
      "outputs": [
        {
          "internalType": "contract RedemptionHelper",
          "name": "",
          "type": "address"
        }
      ],
      "stateMutability": "view",
      "type": "function"
    },
    {
      "inputs": [
        {
          "internalType": "uint256",
          "name": "_i",
          "type": "uint256"
        },
        {
          "internalType": "uint256",
          "name": "_amount",
          "type": "uint256"
        },
        {
          "internalType": "address",
          "name": "_upperHint",
          "type": "address"
        },
        {
          "internalType": "address",
          "name": "_lowerHint",
          "type": "address"
        }
      ],
      "name": "repayLUSDExt",
      "outputs": [],
      "stateMutability": "nonpayable",
      "type": "function"
    },
    {
      "inputs": [
        {
          "internalType": "uint256",
          "name": "_price",
          "type": "uint256"
        }
      ],
      "name": "setPriceExt",
      "outputs": [],
      "stateMutability": "nonpayable",
      "type": "function"
    },
    {
      "inputs": [],
      "name": "stabilityPool",
      "outputs": [
        {
          "internalType": "contract StabilityPool",
          "name": "",
          "type": "address"
        }
      ],
      "stateMutability": "view",
      "type": "function"
    },
    {
      "inputs": [
        {
          "internalType": "uint256",
          "name": "_i",
          "type": "uint256"
        },
        {
          "internalType": "address",
          "name": "recipient",
          "type": "address"
        },
        {
          "internalType": "uint256",
          "name": "amount",
          "type": "uint256"
        }
      ],
      "name": "transferExt",
      "outputs": [
        {
          "internalType": "bool",
          "name": "",
          "type": "bool"
        }
      ],
      "stateMutability": "nonpayable",
      "type": "function"
    },
    {
      "inputs": [
        {
          "internalType": "uint256",
          "name": "_i",
          "type": "uint256"
        },
        {
          "internalType": "address",
          "name": "sender",
          "type": "address"
        },
        {
          "internalType": "address",
          "name": "recipient",
          "type": "address"
        },
        {
          "internalType": "uint256",
          "name": "amount",
          "type": "uint256"
        }
      ],
      "name": "transferFromExt",
      "outputs": [
        {
          "internalType": "bool",
          "name": "",
          "type": "bool"
        }
      ],
      "stateMutability": "nonpayable",
      "type": "function"
    },
    {
      "inputs": [],
      "name": "troveManager",
      "outputs": [
        {
          "internalType": "contract TroveManager",
          "name": "",
          "type": "address"
        }
      ],
      "stateMutability": "view",
      "type": "function"
    },
    {
      "inputs": [
        {
          "internalType": "uint256",
          "name": "_i",
          "type": "uint256"
        },
        {
          "internalType": "uint256",
          "name": "_amount",
          "type": "uint256"
        },
        {
          "internalType": "address",
          "name": "_upperHint",
          "type": "address"
        },
        {
          "internalType": "address",
          "name": "_lowerHint",
          "type": "address"
        }
      ],
      "name": "withdrawCollExt",
      "outputs": [],
      "stateMutability": "nonpayable",
      "type": "function"
    },
    {
      "inputs": [
        {
          "internalType": "uint256",
          "name": "_i",
          "type": "uint256"
        },
        {
          "internalType": "uint256",
          "name": "_amount",
          "type": "uint256"
        }
      ],
      "name": "withdrawFromSPExt",
      "outputs": [],
      "stateMutability": "nonpayable",
      "type": "function"
    },
    {
      "inputs": [
        {
          "internalType": "uint256",
          "name": "_i",
          "type": "uint256"
        },
        {
          "internalType": "uint256",
          "name": "_amount",
          "type": "uint256"
        },
        {
          "internalType": "address",
          "name": "_upperHint",
          "type": "address"
        },
        {
          "internalType": "address",
          "name": "_lowerHint",
          "type": "address"
        },
        {
          "internalType": "uint256",
          "name": "_maxFee",
          "type": "uint256"
        }
      ],
      "name": "withdrawLUSDExt",
      "outputs": [],
      "stateMutability": "nonpayable",
      "type": "function"
    }
  ],
  "bytecode": "0x60806040523480156200001157600080fd5b506040516201edec3803806201edec833981810160405260a08110156200003757600080fd5b5080516020820151604080840151606085015160809095015191519394929390929190620000659062001031565b604051809103906000f08015801562000082573d6000803e3d6000fd5b50600380546001600160a01b0319166001600160a01b0392909216919091179055604051620000b1906200103f565b604051809103906000f080158015620000ce573d6000803e3d6000fd5b50600480546001600160a01b0319166001600160a01b0392909216919091179055604051620000fd906200104d565b604051809103906000f0801580156200011a573d6000803e3d6000fd5b50600580546001600160a01b0319166001600160a01b039290921691909117905560405162000149906200105b565b604051809103906000f08015801562000166573d6000803e3d6000fd5b50600680546001600160a01b0319166001600160a01b0392909216919091179055604051620001959062001069565b604051809103906000f080158015620001b2573d6000803e3d6000fd5b50600780546001600160a01b0319166001600160a01b0392909216919091179055604051620001e19062001077565b604051809103906000f080158015620001fe573d6000803e3d6000fd5b50600880546001600160a01b0319166001600160a01b03929092169190911790556040516200022d9062001085565b604051809103906000f0801580156200024a573d6000803e3d6000fd5b50600980546001600160a01b0319166001600160a01b0392909216919091179055604051620002799062001093565b604051809103906000f08015801562000296573d6000803e3d6000fd5b50600a80546001600160a01b0319166001600160a01b03928316179055600454600954600654604051928416939182169291169085908590620002d990620010a0565b6001600160a01b039586168152938516602085015291841660408085019190915290841660608401529216608082015290519081900360a001906000f08015801562000329573d6000803e3d6000fd5b50600c80546001600160a01b0319166001600160a01b03929092169190911790556040516200035890620010ae565b604051809103906000f08015801562000375573d6000803e3d6000fd5b50600b80546001600160a01b0319166001600160a01b0392909216919091179055604051620003a490620010bc565b604051809103906000f080158015620003c1573d6000803e3d6000fd5b50600d80546001600160a01b0319166001600160a01b0392909216919091179055604051620003f090620010ca565b604051809103906000f0801580156200040d573d6000803e3d6000fd5b50600e80546001600160a01b03199081166001600160a01b0393841617909155600f805460018181019092557f8d1108e10bcb7c27dddfc02ed9d693a074039d026cf4ea4240b40f7d581ac80201805483168885161790556010805480830182556000919091527f1b6847dc741a1b0cd08d278845f9d819d87b734759afb55fe2de5cb82a9ae6720180549092169286169290921790556040805182815280820190915260609160208083019080368337505060035460408051630167710360e31b815290519394506001600160a01b0390911692630b3b881892506004808301926020929190829003018186803b1580156200050957600080fd5b505afa1580156200051e573d6000803e3d6000fd5b505050506040513d60208110156200053557600080fd5b5051815182906000906200054557fe5b602090810291909101015260408051600180825281830190925260609181602001602082028036833750506003546040805163012f16f560e41b815290519394506001600160a01b03909116926312f16f5092506004808301926020929190829003018186803b158015620005b957600080fd5b505afa158015620005ce573d6000803e3d6000fd5b505050506040513d6020811015620005e557600080fd5b505181518290600090620005f557fe5b6020908102919091010152600354604051630f553c9160e41b8152606060048201908152600f8054606484018190526001600160a01b039094169363f553c9109391928792879282916024810191604482019160840190889080156200068557602002820191906000526020600020905b81546001600160a01b0316815260019091019060200180831162000666575b50508481038352865181528651602091820191808901910280838360005b83811015620006bd578181015183820152602001620006a3565b50505050905001848103825285818151815260200191508051906020019060200280838360005b83811015620006fe578181015183820152602001620006e4565b505050509050019650505050505050600060405180830381600087803b1580156200072857600080fd5b505af11580156200073d573d6000803e3d6000fd5b505060048054600654600354600754600854600954600a54600b54600d54600c54600e546005546040805163db5e732160e01b81526001600160a01b039c8d169e81019e909e52998b1660248e0152978a1660448d015295891660648c015293881660848b015291871660a48a0152861660c4890152851660e488015284166101048701528316610124860152600061014486018190526101648601819052908316610184860152905191909216945063db5e732193506101a48084019382900301818387803b1580156200081157600080fd5b505af115801562000826573d6000803e3d6000fd5b505060065460035460048054600754600854600954600a54600b54600d54600e54600c5460408051631e61717960e21b81526001600160a01b039c8d169b81019b909b52988b1660248b0152968a1660448a01529489166064890152928816608488015290871660a4870152861660c4860152851660e485015284166101048401528316610124830152600061014483018190529051929093169450637985c5e4935061016480820193929182900301818387803b158015620008e857600080fd5b505af1158015620008fd573d6000803e3d6000fd5b50505050600760009054906101000a90046001600160a01b03166001600160a01b031663c707f625600360009054906101000a90046001600160a01b0316600660009054906101000a90046001600160a01b0316600460009054906101000a90046001600160a01b0316600960009054906101000a90046001600160a01b0316600860009054906101000a90046001600160a01b0316600b60009054906101000a90046001600160a01b03168e600060106040518a63ffffffff1660e01b8152600401808a6001600160a01b03166001600160a01b03168152602001896001600160a01b03166001600160a01b03168152602001886001600160a01b03166001600160a01b03168152602001876001600160a01b03166001600160a01b03168152602001866001600160a01b03166001600160a01b03168152602001856001600160a01b03166001600160a01b03168152602001846001600160a01b03166001600160a01b03168152602001836001600160a01b03166001600160a01b0316815260200180602001828103825283818154815260200191508054801562000ace57602002820191906000526020600020905b81546001600160a01b0316815260019091019060200180831162000aaf575b50509a5050505050505050505050600060405180830381600087803b15801562000af757600080fd5b505af115801562000b0c573d6000803e3d6000fd5b50506008546003546004805460075460408051630d8efe5960e21b81526001600160a01b03958616948101949094529184166024840152831660448301525191909216935063363bf9649250606480830192600092919082900301818387803b15801562000b7957600080fd5b505af115801562000b8e573d6000803e3d6000fd5b505060095460065460035460048054600754600c54600e54600d5460408051630d733cfd60e41b81526001600160a01b03998a169781019790975296881660248701529387166044860152918616606485015285166084840152841660a4830152831660c4820152600060e48201819052915192909316945063d733cfd093506101048084019391929182900301818387803b15801562000c2e57600080fd5b505af115801562000c43573d6000803e3d6000fd5b5050600b546003546006546004805460075460408051634a945f8d60e01b81526001600160a01b039687169481019490945293851660248401529084166044830152831660648201529051919092169350634a945f8d9250608480830192600092919082900301818387803b15801562000cbc57600080fd5b505af115801562000cd1573d6000803e3d6000fd5b5050600e546004805460065460408051630fecb29560e31b81526001600160a01b039384169481019490945290821660248401525192169350637f6594a8925060448082019260009290919082900301818387803b15801562000d3357600080fd5b505af115801562000d48573d6000803e3d6000fd5b506000925050505b606481101562000e0b57600454600654600954600c546040516001600160a01b039485169493841693928316929091169062000d8c90620010d8565b6001600160a01b039485168152928416602084015290831660408084019190915292166060820152905190819003608001906000f08015801562000dd4573d6000803e3d6000fd5b506011826064811062000de357fe5b0180546001600160a01b0319166001600160a01b039290921691909117905560010162000d50565b50600360009054906101000a90046001600160a01b03166001600160a01b0316630b3b88186040518163ffffffff1660e01b815260040160206040518083038186803b15801562000e5b57600080fd5b505afa15801562000e70573d6000803e3d6000fd5b505050506040513d602081101562000e8757600080fd5b50516000556003546040805163012f16f560e41b815290516001600160a01b03909216916312f16f5091600480820192602092909190829003018186803b15801562000ed257600080fd5b505afa15801562000ee7573d6000803e3d6000fd5b505050506040513d602081101562000efe57600080fd5b5051600155600654604080516305d0d77b60e31b815290516001600160a01b0390921691632e86bbd891600480820192602092909190829003018186803b15801562000f4957600080fd5b505afa15801562000f5e573d6000803e3d6000fd5b505050506040513d602081101562000f7557600080fd5b505160025560005462000f8757600080fd5b60006001541162000f9757600080fd5b600d546040805162e4768b60e01b81526001600160a01b03898116600483015269021e19e0c9bab240000060248301529151919092169162e4768b9160448083019260209291908290030181600087803b15801562000ff557600080fd5b505af11580156200100a573d6000803e3d6000fd5b505050506040513d60208110156200102157600080fd5b50620010e6975050505050505050565b610ec2806200436683390190565b615f98806200522883390190565b6123c5806200b1c083390190565b6144d8806200d58583390190565b6128bb8062011a5d83390190565b61109f806201431883390190565b6138d180620153b783390190565b605c8062018c8883390190565b611f5b8062018ce483390190565b6110d4806201ac3f83390190565b6101e5806201bd1383390190565b611b68806201bef883390190565b61138c806201da6083390190565b61327080620010f66000396000f3fe608060405234801561001057600080fd5b50600436106102485760003560e01c80637f7dde4a1161013b578063b83f91a2116100b8578063d21af9681161007c578063d21af96814610724578063e44891271461074d578063efa83cf914610770578063f2a903a7146107b8578063fa08b038146107c057610248565b8063b83f91a214610672578063baf5d65f1461067a578063c325347f1461069d578063c91b364a14610714578063cda775f91461071c57610248565b80639d9da9d8116100ff5780639d9da9d8146105de5780639f56ac1814610620578063a2f5cbdd14610628578063a3d3683414610630578063aff5917f1461066a57610248565b80637f7dde4a1461054d5780638e4707d31461055557806391a4a42614610587578063980c55d7146105a45780639cdd0978146105ac57610248565b806357285cc5116101c95780635c0ab4de1161018d5780635c0ab4de1461047f578063696909361461048757806377553ad4146104c15780637c22900e146104c95780637ca8b0281461050557610248565b806357285cc5146103d25780635895ac4e146103f5578063597ec799146103fd57806359bed84b146104545780635aee59aa1461045c57610248565b80633d83908a116102105780633d83908a1461032a57806340ba2e27146103325780634104fbd31461034f5780634557559f146103895780634e792a30146103a657610248565b8063048c661d1461024d57806304bbf59c14610271578063119be5d0146102b75780631c6fbd23146102e95780633cc7422514610322575b600080fd5b6102556107c8565b604080516001600160a01b039092168252519081900360200190f35b6102a36004803603606081101561028757600080fd5b508035906001600160a01b0360208201351690604001356107d7565b604080519115158252519081900360200190f35b6102a3600480360360608110156102cd57600080fd5b508035906001600160a01b036020820135169060400135610877565b610320600480360360a08110156102ff57600080fd5b508035906020810135906040810135906060810135906080013515156108e2565b005b610255610a85565b610255610a94565b6103206004803603602081101561034857600080fd5b5035610aa3565b6103206004803603608081101561036557600080fd5b508035906020810135906001600160a01b0360408201358116916060013516610b43565b6103206004803603602081101561039f57600080fd5b5035610bfd565b610320600480360360408110156103bc57600080fd5b50803590602001356001600160a01b0316610cb0565b610320600480360360408110156103e857600080fd5b5080359060200135610d5a565b6102a3610ec4565b610320600480360361010081101561041457600080fd5b5080359060208101359060408101359060608101359060808101351515906001600160a01b0360a082013581169160c08101359091169060e00135610f7f565b6102a361105b565b6103206004803603604081101561047257600080fd5b50803590602001356113e5565b610255611446565b6103206004803603608081101561049d57600080fd5b508035906020810135906001600160a01b0360408201358116916060013516611455565b61025561148c565b6102a3600480360360808110156104df57600080fd5b508035906001600160a01b0360208201358116916040810135909116906060013561149b565b610320600480360360c081101561051b57600080fd5b508035906020810135906001600160a01b03604082013581169160608101358216916080820135169060a00135611544565b61025561161e565b6102a36004803603606081101561056b57600080fd5b508035906001600160a01b03602082013516906040013561162d565b6102556004803603602081101561059d57600080fd5b5035611698565b6102a36116b5565b6102a3600480360360608110156105c257600080fd5b508035906001600160a01b036020820135169060400135611a4e565b610320600480360360a08110156105f457600080fd5b508035906020810135906001600160a01b03604082013581169160608101359091169060800135611ab9565b6102a3611b5b565b6102a3611c02565b6103206004803603608081101561064657600080fd5b508035906020810135906001600160a01b0360408201358116916060013516611c17565b610255611c4e565b610255611c5d565b6103206004803603604081101561069057600080fd5b5080359060200135611c6c565b610320600480360360408110156106b357600080fd5b813591908101906040810160208201356401000000008111156106d557600080fd5b8201836020820111156106e757600080fd5b8035906020019184602083028401116401000000008311171561070957600080fd5b509092509050611cf7565b6102a3611de9565b6102556122bd565b6103206004803603606081101561073a57600080fd5b50803590602081013590604001356122cc565b6103206004803603604081101561076357600080fd5b50803590602001356124f6565b610320600480360360c081101561078657600080fd5b508035906020810135906040810135906001600160a01b03606082013581169160808101359091169060a00135612557565b6102a3612600565b610255612c91565b6009546001600160a01b031681565b600080606485069050601181606481106107ed57fe5b01546040805163d466e4eb60e01b81526001600160a01b038781166004830152602482018790529151919092169163d466e4eb9160448083019260209291908290030181600087803b15801561084257600080fd5b505af1158015610856573d6000803e3d6000fd5b505050506040513d602081101561086c57600080fd5b509195945050505050565b6000806064850690506011816064811061088d57fe5b01546040805163cf83544f60e01b81526001600160a01b038781166004830152602482018790529151919092169163cf83544f9160448083019260209291908290030181600087803b15801561084257600080fd5b60006064860690506000601182606481106108f957fe5b0154600f80546001600160a01b039092169250600091829061091757fe5b60009182526020918290200154604080516370a0823160e01b81526001600160a01b038681166004830152915191909216926370a082319260248082019391829003018186803b15801561096a57600080fd5b505afa15801561097e573d6000803e3d6000fd5b505050506040513d602081101561099457600080fd5b505160008054919250906109ab9083908a90612ca0565b90508585156109c4576109c18288600054612d9e565b90505b836001600160a01b031663a13edfda600f6000815481106109e157fe5b6000918252602082200154604080516001600160e01b031960e086901b1681526001600160a01b03909216600483015260248201879052604482018d9052606482018690528a1515608483015260a4820183905260c4820183905260e4820183905251610104808301939282900301818387803b158015610a6157600080fd5b505af1158015610a75573d6000803e3d6000fd5b5050505050505050505050505050565b6008546001600160a01b031681565b6004546001600160a01b031681565b600060648206905060118160648110610ab857fe5b0154600f80546001600160a01b0390921691637b8244a29190600090610ada57fe5b6000918252602082200154604080516001600160e01b031960e086901b1681526001600160a01b039092166004830152516024808301939282900301818387803b158015610b2757600080fd5b505af1158015610b3b573d6000803e3d6000fd5b505050505050565b600060648506905060118160648110610b5857fe5b0154600f80546001600160a01b039092169163ba82dbd99190600090610b7a57fe5b6000918252602082200154604080516001600160e01b031960e086901b1681526001600160a01b039283166004820152602481018a905288831660448201529187166064830152516084808301939282900301818387803b158015610bde57600080fd5b505af1158015610bf2573d6000803e3d6000fd5b505050505050505050565b600d54600f80546000926001600160a01b03169162e4768b918490610c1e57fe5b6000918252602080832090910154604080516001600160e01b031960e087901b1681526001600160a01b039092166004830152602482018890525160448083019491928390030190829087803b158015610c7757600080fd5b505af1158015610c8b573d6000803e3d6000fd5b505050506040513d6020811015610ca157600080fd5b5051905080610cac57fe5b5050565b600060648306905060118160648110610cc557fe5b0154600f80546001600160a01b03909216916339f14955918591600090610ce857fe5b6000918252602082200154604080516001600160e01b031960e087901b1681526001600160a01b0394851660048201529390911660248401525160448084019382900301818387803b158015610d3d57600080fd5b505af1158015610d51573d6000803e3d6000fd5b50505050505050565b6000606483069050600060118260648110610d7157fe5b0154600f80546001600160a01b0390921692506000918290610d8f57fe5b60009182526020918290200154604080516370a0823160e01b81526001600160a01b038681166004830152915191909216926370a082319260248082019391829003018186803b158015610de257600080fd5b505afa158015610df6573d6000803e3d6000fd5b505050506040513d6020811015610e0c57600080fd5b50516000805491925090610e239083908790612ca0565b9050826001600160a01b0316637dcfc4d1600f600081548110610e4257fe5b6000918252602082200154604080516001600160e01b031960e086901b1681526001600160a01b039092166004830152602482018690526044820183905260648201839052516084808301939282900301818387803b158015610ea457600080fd5b505af1158015610eb8573d6000803e3d6000fd5b50505050505050505050565b600d54600f805460009283926001600160a01b03909116916341976e0991908490610eeb57fe5b60009182526020918290200154604080516001600160e01b031960e086901b1681526001600160a01b0390921660048301525160248083019392829003018186803b158015610f3957600080fd5b505afa158015610f4d573d6000803e3d6000fd5b505050506040513d6020811015610f6357600080fd5b5051905080610f76576000915050610f7c565b60019150505b90565b600060648906905060118160648110610f9457fe5b0154600f80546001600160a01b039092169163a13edfda9190600090610fb657fe5b6000918252602082200154604080516001600160e01b031960e086901b1681526001600160a01b039283166004820152602481018e9052604481018d9052606481018c90528a1515608482015289831660a482015291881660c483015260e4820187905251610104808301939282900301818387803b15801561103857600080fd5b505af115801561104c573d6000803e3d6000fd5b50505050505050505050505050565b600e54600f805460009283926001600160a01b0390911691631bdb4c8d9190849061108257fe5b60009182526020918290200154604080516001600160e01b031960e086901b1681526001600160a01b0390921660048301525160248083019392829003018186803b1580156110d057600080fd5b505afa1580156110e4573d6000803e3d6000fd5b505050506040513d60208110156110fa57600080fd5b5051600e54600f80549293506000926001600160a01b03909216916339ed25cd9190849061112457fe5b60009182526020918290200154604080516001600160e01b031960e086901b1681526001600160a01b03928316600482015291871660248301525160448083019392829003018186803b15801561117a57600080fd5b505afa15801561118e573d6000803e3d6000fd5b505050506040513d60208110156111a457600080fd5b505190505b6001600160a01b038216158015906111c957506001600160a01b03811615155b156113dc57600454600f80546001600160a01b03909216916390ec23019185916000906111f257fe5b60009182526020918290200154604080516001600160e01b031960e087901b1681526001600160a01b03948516600482015293909116602484015251604480840193829003018186803b15801561124857600080fd5b505afa15801561125c573d6000803e3d6000fd5b505050506040513d602081101561127257600080fd5b5051600454600f80546001600160a01b03909216916390ec230191859160009061129857fe5b60009182526020918290200154604080516001600160e01b031960e087901b1681526001600160a01b03948516600482015293909116602484015251604480840193829003018186803b1580156112ee57600080fd5b505afa158015611302573d6000803e3d6000fd5b505050506040513d602081101561131857600080fd5b5051111561132b57600092505050610f7c565b600e54600f805492935083926001600160a01b03909216916339ed25cd919060009061135357fe5b60009182526020918290200154604080516001600160e01b031960e086901b1681526001600160a01b03928316600482015291871660248301525160448083019392829003018186803b1580156113a957600080fd5b505afa1580156113bd573d6000803e3d6000fd5b505050506040513d60208110156113d357600080fd5b505190506111a9565b60019250505090565b6000606483069050601181606481106113fa57fe5b015460408051630186373f60e61b81526004810185905290516001600160a01b039092169163618dcfc09160248082019260009290919082900301818387803b158015610d3d57600080fd5b6003546001600160a01b031681565b60006064850690506011816064811061146a57fe5b0154600f80546001600160a01b0390921691637dcfc4d19190600090610b7a57fe5b6006546001600160a01b031681565b600080606486069050601181606481106114b157fe5b015460408051636ca5e76160e11b81526001600160a01b0388811660048301528781166024830152604482018790529151919092169163d94bcec29160648083019260209291908290030181600087803b15801561150e57600080fd5b505af1158015611522573d6000803e3d6000fd5b505050506040513d602081101561153857600080fd5b50919695505050505050565b60006064870690506011816064811061155957fe5b0154600f80546001600160a01b039092169163c89c3bc2919060009061157b57fe5b6000918252602082200154604080516001600160e01b031960e086901b1681526001600160a01b039283166004820152602481018c90528a831660448201528983166064820152918816608483015260a4820187905260c4820183905260e4820183905251610104808301939282900301818387803b1580156115fd57600080fd5b505af1158015611611573d6000803e3d6000fd5b5050505050505050505050565b6007546001600160a01b031681565b6000806064850690506011816064811061164357fe5b015460408051636628d36160e11b81526001600160a01b038781166004830152602482018790529151919092169163cc51a6c29160448083019260209291908290030181600087803b15801561084257600080fd5b601181606481106116a557fe5b01546001600160a01b0316905081565b600e54600f805460009283926001600160a01b0390911691631bdb4c8d919084906116dc57fe5b60009182526020918290200154604080516001600160e01b031960e086901b1681526001600160a01b0390921660048301525160248083019392829003018186803b15801561172a57600080fd5b505afa15801561173e573d6000803e3d6000fd5b505050506040513d602081101561175457600080fd5b505190505b6001600160a01b03811615610f76576001600454600f80546001600160a01b039092169163614d120991859160009061178e57fe5b60009182526020918290200154604080516001600160e01b031960e087901b1681526001600160a01b03948516600482015293909116602484015251604480840193829003018186803b1580156117e457600080fd5b505afa1580156117f8573d6000803e3d6000fd5b505050506040513d602081101561180e57600080fd5b5051600481111561181b57fe5b600481111561182657fe5b14611835576000915050610f7c565b600254600454600f80546001600160a01b039092169163f3e2c60891859160009061185c57fe5b60009182526020918290200154604080516001600160e01b031960e087901b1681526001600160a01b03948516600482015293909116602484015251604480840193829003018186803b1580156118b257600080fd5b505afa1580156118c6573d6000803e3d6000fd5b505050506040513d60208110156118dc57600080fd5b505110156118ee576000915050610f7c565b600454600f80546001600160a01b039092169163dc3fe76f91849160009061191257fe5b60009182526020918290200154604080516001600160e01b031960e087901b1681526001600160a01b03948516600482015293909116602484015251604480840193829003018186803b15801561196857600080fd5b505afa15801561197c573d6000803e3d6000fd5b505050506040513d602081101561199257600080fd5b50516119a2576000915050610f7c565b600e54600f80546001600160a01b03909216916339ed25cd91906000906119c557fe5b60009182526020918290200154604080516001600160e01b031960e086901b1681526001600160a01b03928316600482015291861660248301525160448083019392829003018186803b158015611a1b57600080fd5b505afa158015611a2f573d6000803e3d6000fd5b505050506040513d6020811015611a4557600080fd5b50519050611759565b60008060648506905060118160648110611a6457fe5b01546040805163390b5f2760e01b81526001600160a01b038781166004830152602482018790529151919092169163390b5f279160448083019260209291908290030181600087803b15801561084257600080fd5b600060648606905060118160648110611ace57fe5b0154600f80546001600160a01b0390921691630121ff8a9190600090611af057fe5b6000918252602082200154604080516001600160e01b031960e086901b1681526001600160a01b039283166004820152602481018b905289831660448201529188166064830152608482018790525160a4808301939282900301818387803b158015610ea457600080fd5b600080600f600081548110611b6c57fe5b60009182526020918290200154600754604080516370a0823160e01b81526001600160a01b039283166004820152905191909216926370a082319260248082019391829003018186803b158015611bc257600080fd5b505afa158015611bd6573d6000803e3d6000fd5b505050506040513d6020811015611bec57600080fd5b50511115611bfc57506000610f7c565b50600190565b600060146075541115611bfc57506000610f7c565b600060648506905060118160648110611c2c57fe5b0154600f80546001600160a01b0390921691638ebb2f389190600090610b7a57fe5b6005546001600160a01b031681565b600c546001600160a01b031681565b600060648306905060118160648110611c8157fe5b0154600f80546001600160a01b0390921691630970f5d69190600090611ca357fe5b6000918252602082200154604080516001600160e01b031960e086901b1681526001600160a01b03909216600483015260248201879052516044808301939282900301818387803b158015610d3d57600080fd5b600060648406905060118160648110611d0c57fe5b0154600f80546001600160a01b039092169163c23922279190600090611d2e57fe5b9060005260206000200160009054906101000a90046001600160a01b031685856040518463ffffffff1660e01b815260040180846001600160a01b03166001600160a01b03168152602001806020018281038252848482818152602001925060200280828437600081840152601f19601f820116905080830192505050945050505050600060405180830381600087803b158015611dcb57600080fd5b505af1158015611ddf573d6000803e3d6000fd5b5050505050505050565b600080600c60009054906101000a90046001600160a01b03166001600160a01b03166318160ddd6040518163ffffffff1660e01b815260040160206040518083038186803b158015611e3a57600080fd5b505afa158015611e4e573d6000803e3d6000fd5b505050506040513d6020811015611e6457600080fd5b5051600c54600a54604080516370a0823160e01b81526001600160a01b039283166004820152905193945060009391909216916370a08231916024808301926020929190829003018186803b158015611ebc57600080fd5b505afa158015611ed0573d6000803e3d6000fd5b505050506040513d6020811015611ee657600080fd5b5051600754600f80549293506000926001600160a01b0390921691634b14fa8791908490611f1057fe5b60009182526020918290200154604080516001600160e01b031960e086901b1681526001600160a01b0390921660048301525160248083019392829003018186803b158015611f5e57600080fd5b505afa158015611f72573d6000803e3d6000fd5b505050506040513d6020811015611f8857600080fd5b5051600854600f80549293506000926001600160a01b0390921691634b14fa8791908490611fb257fe5b60009182526020918290200154604080516001600160e01b031960e086901b1681526001600160a01b0390921660048301525160248083019392829003018186803b15801561200057600080fd5b505afa158015612014573d6000803e3d6000fd5b505050506040513d602081101561202a57600080fd5b505190508181018414612044576000945050505050610f7c565b600954604080516326fcbc6b60e21b815290516000926001600160a01b031691639bf2f1ac916004808301926020929190829003018186803b15801561208957600080fd5b505afa15801561209d573d6000803e3d6000fd5b505050506040513d60208110156120b357600080fd5b5051600e54600f80549293506000926001600160a01b0390921691631bdb4c8d919084906120dd57fe5b60009182526020918290200154604080516001600160e01b031960e086901b1681526001600160a01b0390921660048301525160248083019392829003018186803b15801561212b57600080fd5b505afa15801561213f573d6000803e3d6000fd5b505050506040513d602081101561215557600080fd5b5051905060005b6001600160a01b0382161561229457600c54604080516370a0823160e01b81526001600160a01b038581166004830152915191909216916370a08231916024808301926020929190829003018186803b1580156121b857600080fd5b505afa1580156121cc573d6000803e3d6000fd5b505050506040513d60208110156121e257600080fd5b5051600e54600f805493909201926001600160a01b03909116916339ed25cd9160009061220b57fe5b60009182526020918290200154604080516001600160e01b031960e086901b1681526001600160a01b03928316600482015291871660248301525160448083019392829003018186803b15801561226157600080fd5b505afa158015612275573d6000803e3d6000fd5b505050506040513d602081101561228b57600080fd5b5051915061215c565b858184010187116122af576000975050505050505050610f7c565b600197505050505050505090565b600b546001600160a01b031681565b60006064840690506000601182606481106122e357fe5b0154600f80546001600160a01b039092169250600091829061230157fe5b60009182526020918290200154604080516370a0823160e01b81526001600160a01b038681166004830152915191909216926370a082319260248082019391829003018186803b15801561235457600080fd5b505afa158015612368573d6000803e3d6000fd5b505050506040513d602081101561237e57600080fd5b50516001549091506000906123969083908890612ca0565b905060006123a78287600154612d9e565b9050836001600160a01b031663a819ee1b600f6000815481106123c657fe5b6000918252602082200154604080516001600160e01b031960e086901b1681526001600160a01b0390921660048301526024820187905260448201869052606482018390526084820183905260a482018390525160c4808301939282900301818387803b15801561243657600080fd5b505af115801561244a573d6000803e3d6000fd5b5050600454600f80546001600160a01b0390921693506340c315d292509060009061247157fe5b60009182526020918290200154604080516001600160e01b031960e086901b1681526001600160a01b0390921660048301525160248083019392829003018186803b1580156124bf57600080fd5b505afa1580156124d3573d6000803e3d6000fd5b505050506040513d60208110156124e957600080fd5b50516075819055611ddf57fe5b60006064830690506011816064811061250b57fe5b01546040805163320d84db60e11b81526004810185905290516001600160a01b039092169163641b09b69160248082019260009290919082900301818387803b158015610d3d57600080fd5b60006064870690506011816064811061256c57fe5b0154600f80546001600160a01b039092169163a819ee1b919060009061258e57fe5b6000918252602082200154604080516001600160e01b031960e086901b1681526001600160a01b039283166004820152602481018c9052604481018b90528983166064820152918816608483015260a482018790525160c4808301939282900301818387803b1580156115fd57600080fd5b600080600f60008154811061261157fe5b6000918252602091829020015460048054604080516370a0823160e01b81526001600160a01b0392831693810193909352519216926370a0823192602480840193829003018186803b15801561266657600080fd5b505afa15801561267a573d6000803e3d6000fd5b505050506040513d602081101561269057600080fd5b505111156126a057506000610f7c565b6000600f6000815481106126b057fe5b60009182526020918290200154600654604080516370a0823160e01b81526001600160a01b039283166004820152905191909216926370a082319260248082019391829003018186803b15801561270657600080fd5b505afa15801561271a573d6000803e3d6000fd5b505050506040513d602081101561273057600080fd5b5051111561274057506000610f7c565b600754600f80546001600160a01b0390921691639b56d6c9919060009061276357fe5b60009182526020918290200154604080516001600160e01b031960e086901b1681526001600160a01b0390921660048301525160248083019392829003018186803b1580156127b157600080fd5b505afa1580156127c5573d6000803e3d6000fd5b505050506040513d60208110156127db57600080fd5b5051600f80546000906127ea57fe5b60009182526020918290200154600754604080516370a0823160e01b81526001600160a01b039283166004820152905191909216926370a082319260248082019391829003018186803b15801561284057600080fd5b505afa158015612854573d6000803e3d6000fd5b505050506040513d602081101561286a57600080fd5b50511461287957506000610f7c565b600854600f80546001600160a01b0390921691639b56d6c9919060009061289c57fe5b60009182526020918290200154604080516001600160e01b031960e086901b1681526001600160a01b0390921660048301525160248083019392829003018186803b1580156128ea57600080fd5b505afa1580156128fe573d6000803e3d6000fd5b505050506040513d602081101561291457600080fd5b5051600f805460009061292357fe5b60009182526020918290200154600854604080516370a0823160e01b81526001600160a01b039283166004820152905191909216926370a082319260248082019391829003018186803b15801561297957600080fd5b505afa15801561298d573d6000803e3d6000fd5b505050506040513d60208110156129a357600080fd5b5051146129b257506000610f7c565b600954600f80546001600160a01b0390921691639b56d6c991906000906129d557fe5b60009182526020918290200154604080516001600160e01b031960e086901b1681526001600160a01b0390921660048301525160248083019392829003018186803b158015612a2357600080fd5b505afa158015612a37573d6000803e3d6000fd5b505050506040513d6020811015612a4d57600080fd5b5051600f8054600090612a5c57fe5b60009182526020918290200154600954604080516370a0823160e01b81526001600160a01b039283166004820152905191909216926370a082319260248082019391829003018186803b158015612ab257600080fd5b505afa158015612ac6573d6000803e3d6000fd5b505050506040513d6020811015612adc57600080fd5b505114612aeb57506000610f7c565b6000600f600081548110612afb57fe5b60009182526020918290200154600c54604080516370a0823160e01b81526001600160a01b039283166004820152905191909216926370a082319260248082019391829003018186803b158015612b5157600080fd5b505afa158015612b65573d6000803e3d6000fd5b505050506040513d6020811015612b7b57600080fd5b50511115612b8b57506000610f7c565b6000600f600081548110612b9b57fe5b60009182526020918290200154600d54604080516370a0823160e01b81526001600160a01b039283166004820152905191909216926370a082319260248082019391829003018186803b158015612bf157600080fd5b505afa158015612c05573d6000803e3d6000fd5b505050506040513d6020811015612c1b57600080fd5b50511115612c2b57506000610f7c565b6000600f600081548110612c3b57fe5b60009182526020918290200154600e54604080516370a0823160e01b81526001600160a01b039283166004820152905191909216926370a082319260248082019391829003018186803b158015611bc257600080fd5b600a546001600160a01b031681565b600d54600f805460009283926001600160a01b03909116916341976e0991908490612cc757fe5b60009182526020918290200154604080516001600160e01b031960e086901b1681526001600160a01b0390921660048301525160248083019392829003018186803b158015612d1557600080fd5b505afa158015612d29573d6000803e3d6000fd5b505050506040513d6020811015612d3f57600080fd5b5051905080612d4d57600080fd5b6000612d7482612d6860025487612f5290919063ffffffff16565b9063ffffffff612fb416565b9050808611612d8257600080fd5b60008187038681612d8f57fe5b06919091019695505050505050565b600d54600f805460009283926001600160a01b03909116916341976e0991908490612dc557fe5b60009182526020918290200154604080516001600160e01b031960e086901b1681526001600160a01b0390921660048301525160248083019392829003018186803b158015612e1357600080fd5b505afa158015612e27573d6000803e3d6000fd5b505050506040513d6020811015612e3d57600080fd5b50516002549091508490600090612e5b90839063ffffffff612ff616565b600354600f80549293506000926001600160a01b039092169163eb7aac5f91908490612e8357fe5b60009182526020918290200154604080516001600160e01b031960e086901b1681526001600160a01b0390921660048301525160248083019392829003018186803b158015612ed157600080fd5b505afa158015612ee5573d6000803e3d6000fd5b505050506040513d6020811015612efb57600080fd5b505190506000612f0d89848785613050565b905086811015612f4557612f2b87612d688b8863ffffffff612f5216565b9250612f426002548461309390919063ffffffff16565b93505b5091979650505050505050565b600082612f6157506000612fae565b82820282848281612f6e57fe5b0414612fab5760405162461bcd60e51b815260040180806020018281038252602181526020018061321a6021913960400191505060405180910390fd5b90505b92915050565b6000612fab83836040518060400160405280601a81526020017f536166654d6174683a206469766973696f6e206279207a65726f0000000000008152506130d5565b600082820183811015612fab576040805162461bcd60e51b815260206004820152601b60248201527f536166654d6174683a206164646974696f6e206f766572666c6f770000000000604482015290519081900360640190fd5b600083156130865760006130648684613177565b9050600061307c86612d68848863ffffffff612f5216565b925061308b915050565b506000195b949350505050565b6000612fab83836040518060400160405280601e81526020017f536166654d6174683a207375627472616374696f6e206f766572666c6f7700008152506131bf565b600081836131615760405162461bcd60e51b81526004018080602001828103825283818151815260200191508051906020019080838360005b8381101561312657818101518382015260200161310e565b50505050905090810190601f1680156131535780820380516001836020036101000a031916815260200191505b509250505060405180910390fd5b50600083858161316d57fe5b0495945050505050565b81601282111561319f57613198816011198401600a0a63ffffffff612fb416565b9050612fae565b6012821015612fae57612fab816012849003600a0a63ffffffff612f5216565b600081848411156132115760405162461bcd60e51b815260206004820181815283516024840152835190928392604490910191908501908083836000831561312657818101518382015260200161310e565b50505090039056fe536166654d6174683a206d756c7469706c69636174696f6e206f766572666c6f77a26469706673582212207b77438170181ac841396477a029515baf83fc8d549f6abe4e359622f759e0a564736f6c634300060b003360806040526000805460ff60a01b1916905534801561001d57600080fd5b50600080546001600160a01b0319163390811782556040519091907f8be0079c531659141344cd1fd0a4f28419497f9722a3daafe3b4186f6b6457e0908290a3610e568061006c6000396000f3fe608060405234801561001057600080fd5b50600436106100ca5760003560e01c80638da5cb5b1161007c5780638da5cb5b146101e05780638f32d59b146101e8578063b2604ecf146101f0578063c600876214610248578063cb0673201461027c578063eb7aac5f146102a2578063f553c910146102c8576100ca565b80630b3b8818146100cf5780630cc248ad146100e957806312f16f5014610137578063158ef93e1461013f57806323c58c161461015b57806324c1173b146101815780638a7d7d6a146101ba575b600080fd5b6100d76103d6565b60408051918252519081900360200190f35b61010f600480360360208110156100ff57600080fd5b50356001600160a01b03166103e2565b6040805194151585526020850193909352838301919091526060830152519081900360800190f35b6100d761040f565b61014761041b565b604080519115158252519081900360200190f35b6100d76004803603602081101561017157600080fd5b50356001600160a01b031661042b565b61019e6004803603602081101561019757600080fd5b50356104a9565b604080516001600160a01b039092168252519081900360200190f35b6100d7600480360360208110156101d057600080fd5b50356001600160a01b03166104d0565b61019e61054d565b61014761055c565b6101f861056d565b60408051602080825283518183015283519192839290830191858101910280838360005b8381101561023457818101518382015260200161021c565b505050509050019250505060405180910390f35b61027a6004803603606081101561025e57600080fd5b506001600160a01b0381351690602081013590604001356105cf565b005b6101476004803603602081101561029257600080fd5b50356001600160a01b0316610861565b6100d7600480360360208110156102b857600080fd5b50356001600160a01b031661087f565b61027a600480360360608110156102de57600080fd5b810190602081018135600160201b8111156102f857600080fd5b82018360208201111561030a57600080fd5b803590602001918460208302840111600160201b8311171561032b57600080fd5b919390929091602081019035600160201b81111561034857600080fd5b82018360208201111561035a57600080fd5b803590602001918460208302840111600160201b8311171561037b57600080fd5b919390929091602081019035600160201b81111561039857600080fd5b8201836020820111156103aa57600080fd5b803590602001918460208302840111600160201b831117156103cb57600080fd5b5090925090506108fc565b670f43fc2c04ee000081565b6002602081905260009182526040909120805460018201549282015460039092015460ff90911692919084565b6714d1120d7b16000081565b600054600160a01b900460ff1681565b6001600160a01b038116600090815260026020526040812054829060ff16610488576040805162461bcd60e51b815260206004820152601a6024820152600080516020610e01833981519152604482015290519081900360640190fd5b50506001600160a01b03166000908152600260208190526040909120015490565b600181815481106104b657fe5b6000918252602090912001546001600160a01b0316905081565b6001600160a01b038116600090815260026020526040812054829060ff1661052d576040805162461bcd60e51b815260206004820152601a6024820152600080516020610e01833981519152604482015290519081900360640190fd5b50506001600160a01b031660009081526002602052604090206003015490565b6000546001600160a01b031690565b6000546001600160a01b0316331490565b606060018054806020026020016040519081016040528092919081815260200182805480156105c557602002820191906000526020600020905b81546001600160a01b031681526001909101906020018083116105a7575b5050505050905090565b6105d761055c565b610628576040805162461bcd60e51b815260206004820181905260248201527f4f776e61626c653a2063616c6c6572206973206e6f7420746865206f776e6572604482015290519081900360640190fd5b6001600160a01b038316600090815260026020526040902054839060ff16610685576040805162461bcd60e51b815260206004820152601a6024820152600080516020610e01833981519152604482015290519081900360640190fd5b6001600160a01b0384166000908152600260208190526040909120908101548411156106f8576040805162461bcd60e51b815260206004820152601a60248201527f43616e206f6e6c792077616c6b20646f776e20746865204d4352000000000000604482015290519081900360640190fd5b8060030154831115610751576040805162461bcd60e51b815260206004820152601a60248201527f43616e206f6e6c792077616c6b20646f776e2074686520434352000000000000604482015290519081900360640190fd5b670f43fc2c04ee00008410156107aa576040805162461bcd60e51b81526020600482015260196024820152784d43522062656c6f7720616c6c6f776564206d696e696d756d60381b604482015290519081900360640190fd5b600281018490556714d1120d7b16000083101561080a576040805162461bcd60e51b81526020600482015260196024820152784343522062656c6f7720616c6c6f776564206d696e696d756d60381b604482015290519081900360640190fd5b60038101839055604080516001600160a01b03871681526020810186905280820185905290517f6298a28d1e343ba1ced1672f02ae0ca17bb3bdc4a9fc79741f539025478f153e9181900360600190a15050505050565b6001600160a01b031660009081526002602052604090205460ff1690565b6001600160a01b038116600090815260026020526040812054829060ff166108dc576040805162461bcd60e51b815260206004820152601a6024820152600080516020610e01833981519152604482015290519081900360640190fd5b50506001600160a01b031660009081526002602052604090206001015490565b61090461055c565b610955576040805162461bcd60e51b815260206004820181905260248201527f4f776e61626c653a2063616c6c6572206973206e6f7420746865206f776e6572604482015290519081900360640190fd5b600054600160a01b900460ff16156109af576040805162461bcd60e51b815260206004820152601860248201527743616e206f6e6c7920696e697469616c697a65206f6e636560401b604482015290519081900360640190fd5b84610a01576040805162461bcd60e51b815260206004820181905260248201527f4174206c65617374206f6e6520636f6c6c61746572616c207265717569726564604482015290519081900360640190fd5b828514610a50576040805162461bcd60e51b8152602060048201526018602482015277082e4e4c2f240d8cadccee8d0e640daeae6e840dac2e8c6d60431b604482015290519081900360640190fd5b808514610a9f576040805162461bcd60e51b8152602060048201526018602482015277082e4e4c2f240d8cadcced0e8e640daeae6e840dac2e8c6d60431b604482015290519081900360640190fd5b60005b85811015610d31576000878783818110610ab857fe5b905060200201356001600160a01b03169050610ad381610d4d565b6001805480820182557fb10e2d527612073b26eecdfd717e6a320cf44b4afac2b0732d9fcbe2b7fa0cf60180546001600160a01b0319166001600160a01b0384169081179091556000818152600260209081526040808320805460ff19169095178555805163313ce56760e01b8152905192939263313ce56792600480840193919291829003018186803b158015610b6a57600080fd5b505afa158015610b7e573d6000803e3d6000fd5b505050506040513d6020811015610b9457600080fd5b505160ff16600183018190559050670f43fc2c04ee0000888886818110610bb757fe5b905060200201351015610c0d576040805162461bcd60e51b81526020600482015260196024820152784d43522062656c6f7720616c6c6f776564206d696e696d756d60381b604482015290519081900360640190fd5b878785818110610c1957fe5b60200291909101356002840155506714d1120d7b160000868686818110610c3c57fe5b905060200201351015610c92576040805162461bcd60e51b81526020600482015260196024820152784343522062656c6f7720616c6c6f776564206d696e696d756d60381b604482015290519081900360640190fd5b858585818110610c9e57fe5b60200291909101356003840155507fa9e2b2b9c6ab23c8be97399d947520cfd68780b1c35957ddbdcd82309976f75483828a8a88818110610cdb57fe5b90506020020135898989818110610cee57fe5b604080516001600160a01b0390971687526020878101969096528681019490945293909302013560608401525191829003608001919050a1505050600101610aa2565b50506000805460ff60a01b1916600160a01b1790555050505050565b6001600160a01b038116610da8576040805162461bcd60e51b815260206004820152601e60248201527f4163636f756e742063616e6e6f74206265207a65726f20616464726573730000604482015290519081900360640190fd5b803b80610dfc576040805162461bcd60e51b815260206004820181905260248201527f4163636f756e7420636f64652073697a652063616e6e6f74206265207a65726f604482015290519081900360640190fd5b505056fe496e76616c696420636f6c6c61746572616c2061646472657373000000000000a2646970667358221220fcdd04080f4cb18f351b201f2d7494e1b26074d37207716c6f83e3b4cc193ebe64736f6c634300060b0033608060405234801561001057600080fd5b50600380546001600160a01b03191633179055615f6580620000336000396000f3fe608060405234801561001057600080fd5b506004361061048b5760003560e01c806386b9d81f11610262578063bfce1fd711610151578063dc3fe76f116100ce578063eeb20c6211610092578063eeb20c6214610f97578063f36b242514610fc3578063f3e2c60814610fcb578063f92d3433146105e0578063fb4e863c14610ff9578063fe4b0df6146110275761048b565b8063dc3fe76f14610ed2578063de66583514610f00578063df349ed514610f26578063df4fb9ef14610f4c578063e85b603c14610f7a5761048b565b8063d380a37c11610115578063d380a37c14610dcb578063d5b3563514610dd3578063da15d85414610df0578063db5e732114610e16578063dbe9f91914610ea45761048b565b8063bfce1fd714610d20578063c52861f214610d46578063c7a1bbdb14610d4e578063c7b5548114610d7c578063c93fd44a14610d845761048b565b8063aad64613116101df578063b64500c7116101a3578063b64500c714610c68578063b7f8cf9b14610c8e578063b83f91a214610c96578063bc9b5bd514610c9e578063bed8854b14610ce45761048b565b8063aad6461314610bc0578063ae91875414610bfc578063af3700dc14610c04578063aff5917f14610c2a578063b1eafaab14610c325761048b565b80639e86d0c4116102265780639e86d0c414610b3d578063a1a79bea14610b63578063a20baee61461084b578063a3a6401714610b92578063a9a6363414610b9a5761048b565b806386b9d81f14610a775780638a25363c14610aa55780638a490ebf14610adb5780638da5cb5b14610b0757806390ec230114610b0f5761048b565b8063477d66cf1161037e57806372fe25aa116102fb5780637f258d50116102bf5780637f258d501461096a5780637f551157146109e15780637f7dde4a14610a0d5780638424ce7714610a155780638463b16a14610a415761048b565b806372fe25aa1461084b578063738009e614610853578063741bef1a14610881578063752fd9a1146108895780637c92590f146108b75761048b565b8063614d120911610342578063614d1209146107ba57806361ec893d146107e8578063621117b6146107f0578063631203b01461082657806366ca4a21146108435761048b565b8063477d66cf146107595780634870dd9a1461077657806349fe88581461077e5780635c0ab4de146107aa5780635dba4c4a146107b25761048b565b806328d28b5b1161040c578063305a5369116103d0578063305a5369146106705780633cc742251461069e57806340a44bd1146106a657806340c315d2146106fd57806345978366146107235761048b565b806328d28b5b146105e05780632b11551a146105e85780632dcfca60146105f05780632e86bbd8146106325780632fae77001461063a5761048b565b80631f68f20a116104535780631f68f20a1461054e5780631f7af3c314610556578063240926691461055e57806326f7a0d41461056657806327d04b35146105ba5761048b565b8063048c661d14610490578063071a7541146104b4578063099a676e146104ce5780630e0d7bfe146105185780631bf4355514610546575b600080fd5b61049861105d565b604080516001600160a01b039092168252519081900360200190f35b6104bc61106c565b60408051918252519081900360200190f35b610516600480360360c08110156104e457600080fd5b506001600160a01b03813581169160208101359091169060408101359060608101359060808101359060a00135611071565b005b6104bc6004803603604081101561052e57600080fd5b506001600160a01b0381358116916020013516611146565b6104bc61116c565b6104bc611179565b61049861117f565b6104bc61118e565b6105946004803603604081101561057c57600080fd5b506001600160a01b03813581169160200135166111a1565b604080519485526020850193909352838301919091526060830152519081900360800190f35b6104bc600480360360208110156105d057600080fd5b50356001600160a01b0316611218565b6104bc61132e565b6104bc61133f565b61061e6004803603604081101561060657600080fd5b506001600160a01b0381358116916020013516611351565b604080519115158252519081900360200190f35b6104bc6113d1565b6104bc6004803603606081101561065057600080fd5b506001600160a01b038135811691602081013590911690604001356113dd565b6104bc6004803603604081101561068657600080fd5b506001600160a01b0381358116916020013516611458565b610498611486565b61051660048036036101008110156106bd57600080fd5b506001600160a01b038135811691602081013591604082013581169160608101358216916080820135169060a08101359060c08101359060e00135611495565b6104bc6004803603602081101561071357600080fd5b50356001600160a01b0316611541565b6104bc6004803603606081101561073957600080fd5b506001600160a01b0381358116916020810135909116906040013561155c565b6104bc6004803603602081101561076f57600080fd5b50356115a1565b6104bc6115b4565b6104bc6004803603604081101561079457600080fd5b506001600160a01b0381351690602001356115b9565b610498611641565b610516611650565b6104bc600480360360408110156107d057600080fd5b506001600160a01b03813581169160200135166116b9565b6104bc6116f2565b6105166004803603606081101561080657600080fd5b506001600160a01b038135811691602081013590911690604001356116f7565b6104bc6004803603602081101561083c57600080fd5b503561171a565b6104bc611727565b6104bc611739565b6104bc6004803603604081101561086957600080fd5b506001600160a01b0381358116916020013516611745565b6104986118b0565b6104bc6004803603604081101561089f57600080fd5b506001600160a01b03813581169160200135166118bf565b610516600480360360408110156108cd57600080fd5b6001600160a01b0382351691908101906040810160208201356401000000008111156108f857600080fd5b82018360208201111561090a57600080fd5b8035906020019184602083028401116401000000008311171561092c57600080fd5b919080806020026020016040519081016040528093929190818152602001838360200280828437600092019190915250929550611905945050505050565b6109986004803603604081101561098057600080fd5b506001600160a01b0381358116916020013516611e10565b604051808681526020018581526020018481526020018360048111156109ba57fe5b60ff1681526001600160801b03909216602083015250604080519182900301945092505050f35b610516600480360360408110156109f757600080fd5b506001600160a01b038135169060200135611e55565b610498612156565b61049860048036036040811015610a2b57600080fd5b506001600160a01b038135169060200135612165565b6104bc60048036036060811015610a5757600080fd5b506001600160a01b038135811691602081013590911690604001356121a5565b61051660048036036040811015610a8d57600080fd5b506001600160a01b0381358116916020013516612219565b61051660048036036060811015610abb57600080fd5b506001600160a01b0381358116916020810135909116906040013561227d565b61061e60048036036040811015610af157600080fd5b506001600160a01b0381351690602001356122d7565b6104986123e8565b6104bc60048036036040811015610b2557600080fd5b506001600160a01b03813581169160200135166123f7565b6104bc60048036036020811015610b5357600080fd5b50356001600160a01b03166124a0565b6104bc60048036036080811015610b7957600080fd5b5080359060208101359060408101359060600135612570565b61049861262b565b6104bc60048036036020811015610bb057600080fd5b50356001600160a01b031661263a565b61051660048036036080811015610bd657600080fd5b506001600160a01b0381358116916020810135909116906040810135906060013561264c565b610498612710565b6104bc60048036036020811015610c1a57600080fd5b50356001600160a01b031661271f565b610498612731565b6104bc60048036036060811015610c4857600080fd5b506001600160a01b03813581169160208101359091169060400135612740565b6104bc60048036036020811015610c7e57600080fd5b50356001600160a01b03166127df565b6104986127f1565b610498612800565b610516600480360360a0811015610cb457600080fd5b506001600160a01b038135811691602081013582169160408201359160608101358216916080909101351661280f565b61051660048036036080811015610cfa57600080fd5b506001600160a01b038135811691602081013590911690604081013590606001356128a3565b6104bc60048036036020811015610d3657600080fd5b50356001600160a01b0316612aca565b6104bc612adc565b61051660048036036040811015610d6457600080fd5b506001600160a01b0381358116916020013516612aee565b6104bc612b04565b610db260048036036040811015610d9a57600080fd5b506001600160a01b0381358116916020013516612b10565b6040805192835260208301919091528051918290030190f35b6104bc612b34565b6104bc60048036036020811015610de957600080fd5b5035612b3a565b6104bc60048036036020811015610e0657600080fd5b50356001600160a01b0316612b4d565b61051660048036036101a0811015610e2d57600080fd5b506001600160a01b038135811691602081013582169160408201358116916060810135821691608082013581169160a081013582169160c082013581169160e08101358216916101008201358116916101208101358216916101408201358116916101608101358216916101809091013516612b5f565b6104bc60048036036040811015610eba57600080fd5b506001600160a01b038135811691602001351661311d565b6104bc60048036036040811015610ee857600080fd5b506001600160a01b0381358116916020013516613131565b6104bc60048036036020811015610f1657600080fd5b50356001600160a01b031661315f565b6104bc60048036036020811015610f3c57600080fd5b50356001600160a01b0316613171565b61051660048036036040811015610f6257600080fd5b506001600160a01b0381358116916020013516613183565b6104bc60048036036020811015610f9057600080fd5b50356131a9565b61049860048036036040811015610fad57600080fd5b506001600160a01b0381351690602001356131b6565b6104bc6131eb565b6104bc60048036036040811015610fe157600080fd5b506001600160a01b03813581169160200135166131f8565b6105166004803603604081101561100f57600080fd5b506001600160a01b0381358116916020013516613223565b6104bc6004803603606081101561103d57600080fd5b506001600160a01b03813581169160208101359091169060400135613235565b6006546001600160a01b031681565b600281565b611079613277565b60095460408051632770a7eb60e21b81526001600160a01b0389811660048301526024820187905291519190921691639dc29fac91604480830192600092919082900301818387803b1580156110ce57600080fd5b505af11580156110e2573d6000803e3d6000fd5b5050604080516001600160a01b038916815260208101889052808201879052606081018690526080810185905290517f08b6f1ce3f9ab2722e8ea40c31a3e3a806a41702c5994f29af43dc0c1f2837df93509081900360a0019150a1505050505050565b6000611150613290565b61115a83836132a7565b6001600160801b031690505b92915050565b6804e1003b28d928000081565b600e5481565b600a546001600160a01b031681565b6064670de0b6b3a76400005b0460050281565b6001600160a01b038281166000908152601060209081526040808320938516835292905290812080546001909101549091806111dd8686611745565b91506111e986866118bf565b90506111fb848363ffffffff61334516565b935061120d838263ffffffff61334516565b925092959194509250565b6000805460408051634b14fa8760e01b81526001600160a01b038581166004830152915184939290921691634b14fa8791602480820192602092909190829003018186803b15801561126957600080fd5b505afa15801561127d573d6000803e3d6000fd5b505050506040513d602081101561129357600080fd5b505160015460408051634b14fa8760e01b81526001600160a01b03878116600483015291519394506000939190921691634b14fa87916024808301926020929190829003018186803b1580156112e857600080fd5b505afa1580156112fc573d6000803e3d6000fd5b505050506040513d602081101561131257600080fd5b50519050611326828263ffffffff61334516565b949350505050565b6103e8670de0b6b3a764000061119a565b600061134c600e5461339f565b905090565b600060016001600160a01b0380851660009081526010602090815260408083209387168352929052206003015460ff16600481111561138c57fe5b1461139957506000611166565b506001600160a01b03908116600081815260146020908152604080832054959094168252601681528382209282529190915220541090565b678ac7230489e8000081565b60006113e7613290565b6001600160a01b038085166000908152601060209081526040808320938716835292905290812060010154611422908463ffffffff6133d516565b6001600160a01b0380871660009081526010602090815260408083209389168352929052206001018190559150505b9392505050565b6001600160a01b03918216600090815260106020908152604080832093909416825291909152206001015490565b6001546001600160a01b031681565b600d5460408051635e275a7d60e01b81526001600160a01b038b81166004830152336024830152604482018b90528981166064830152888116608483015287811660a483015260c4820187905260e48201869052610104820185905291519190921691635e275a7d9161012480830192600092919082900301818387803b15801561151f57600080fd5b505af1158015611533573d6000803e3d6000fd5b505050505050505050505050565b6001600160a01b031660009081526017602052604090205490565b6000611566613290565b6001600160a01b038085166000908152601060209081526040808320938716835292905290812060010154611422908463ffffffff61334516565b60006111666115ae611727565b83613417565b60c881565b6005546040805163eb7aac5f60e01b81526001600160a01b03858116600483015291516000938493169163eb7aac5f916024808301926020929190829003018186803b15801561160857600080fd5b505afa15801561161c573d6000803e3d6000fd5b505050506040513d602081101561163257600080fd5b50519050611326848483613435565b6005546001600160a01b031681565b611658613290565b6000611662613466565b9050670de0b6b3a764000081111561167657fe5b600e8190556040805182815290517fc454ee9b76c52f782a256af821b857ca6e125d1e3333bcede402fec2bed9600c9181900360200190a16116b66134b1565b50565b6001600160a01b03808316600090815260106020908152604080832093851683529290529081206003015460ff16600481111561145157fe5b603c81565b6116ff61350d565b611715838383600481111561171057fe5b613539565b505050565b60006111666115ae6131eb565b600061134c611734613466565b613699565b670de0b6b3a764000081565b6001600160a01b038083166000908152601660209081526040808320938516835292815282822060010154601590915291812054909190829061178e908363ffffffff6133d516565b90508015806117d4575060016001600160a01b0380871660009081526010602090815260408083209389168352929052206003015460ff1660048111156117d157fe5b14155b156117e457600092505050611166565b6001600160a01b03808616600090815260106020908152604080832088851680855290835281842060020154600554835163eb7aac5f60e01b8152600481019390935292519095929092169263eb7aac5f92602480840193829003018186803b15801561185057600080fd5b505afa158015611864573d6000803e3d6000fd5b505050506040513d602081101561187a57600080fd5b5051905060006118a4600a83900a611898858763ffffffff6136c016565b9063ffffffff61371916565b98975050505050505050565b6002546001600160a01b031681565b6001600160a01b038083166000908152601660209081526040808320938516835292815282822054601490915291812054909190829061178e908363ffffffff6133d516565b805161191057600080fd5b6000546001546006546001600160a01b03928316929182169116611932615db5565b61193a615dfc565b6005546040805163eb7aac5f60e01b81526001600160a01b038a811660048301529151919092169163eb7aac5f916024808301926020929190829003018186803b15801561198757600080fd5b505afa15801561199b573d6000803e3d6000fd5b505050506040513d60208110156119b157600080fd5b505182526005546040805163453ebeb560e11b81526001600160a01b038a8116600483015291519190921691638a7d7d6a916024808301926020929190829003018186803b158015611a0257600080fd5b505afa158015611a16573d6000803e3d6000fd5b505050506040513d6020811015611a2c57600080fd5b5051602083810191909152600554604080516311e2c60b60e11b81526001600160a01b038b81166004830152915191909216926323c58c169260248082019391829003018186803b158015611a8057600080fd5b505afa158015611a94573d6000803e3d6000fd5b505050506040513d6020811015611aaa57600080fd5b50516040808401919091526002548151635670bcc760e11b81526001600160a01b038a811660048301529251929091169163ace1798e916024808201926020929091908290030181600087803b158015611b0357600080fd5b505af1158015611b17573d6000803e3d6000fd5b505050506040513d6020811015611b2d57600080fd5b50516060830152604080516326fcbc6b60e21b815290516001600160a01b03851691639bf2f1ac916004808301926020929190829003018186803b158015611b7457600080fd5b505afa158015611b88573d6000803e3d6000fd5b505050506040513d6020811015611b9e57600080fd5b50516080830152606082015160208301518351611bbe928a92909161375b565b15801560a0840152611be757611be0858589856060015186608001518b613775565b9050611c05565b611c028585898560600151866040015187608001518c613b44565b90505b6000816020015111611c1657600080fd5b826001600160a01b031663e66667338883608001518460a001516040518463ffffffff1660e01b815260040180846001600160a01b03166001600160a01b031681526020018381526020018281526020019350505050600060405180830381600087803b158015611c8657600080fd5b505af1158015611c9a573d6000803e3d6000fd5b50505050611cb88585898460c001518560e001518760000151613c13565b61010081015115611d3f576008546101008201516040805163715aa61b60e01b81526001600160a01b038b8116600483015293841660248201526044810192909252519187169163715aa61b9160648082019260009290919082900301818387803b158015611d2657600080fd5b505af1158015611d3a573d6000803e3d6000fd5b505050505b611d4e85888360400151613fae565b602081015160c083015261010081015160408201518251611d869291611d7a919063ffffffff6133d516565b9063ffffffff6133d516565b60e0830181905260c083015160408084015160608086015183516001600160a01b038e168152602081019590955284840195909552830152608082019290925290517fa3f221854f649364e9a3bb384dd1ff938482664f4a0eac0f6e39a542f5193bd39181900360a00190a1611e078588338460600151856040015161413b565b50505050505050565b601060209081526000928352604080842090915290825290208054600182015460028301546003909301549192909160ff81169061010090046001600160801b031685565b6000546001546006546001600160a01b03928316929182169116611e77615db5565b611e7f615dfc565b6005546040805163453ebeb560e11b81526001600160a01b038a8116600483015291519190921691638a7d7d6a916024808301926020929190829003018186803b158015611ecc57600080fd5b505afa158015611ee0573d6000803e3d6000fd5b505050506040513d6020811015611ef657600080fd5b50516020838101919091526005546040805163eb7aac5f60e01b81526001600160a01b038b811660048301529151919092169263eb7aac5f9260248082019391829003018186803b158015611f4a57600080fd5b505afa158015611f5e573d6000803e3d6000fd5b505050506040513d6020811015611f7457600080fd5b50518252600554604080516311e2c60b60e11b81526001600160a01b038a81166004830152915191909216916323c58c16916024808301926020929190829003018186803b158015611fc557600080fd5b505afa158015611fd9573d6000803e3d6000fd5b505050506040513d6020811015611fef57600080fd5b50516040808401919091526002548151635670bcc760e11b81526001600160a01b038a811660048301529251929091169163ace1798e916024808201926020929091908290030181600087803b15801561204857600080fd5b505af115801561205c573d6000803e3d6000fd5b505050506040513d602081101561207257600080fd5b50516060830152604080516326fcbc6b60e21b815290516001600160a01b03851691639bf2f1ac916004808301926020929190829003018186803b1580156120b957600080fd5b505afa1580156120cd573d6000803e3d6000fd5b505050506040513d60208110156120e357600080fd5b50516080830152606082015160208301518351612103928a92909161375b565b15801560a084015261213b57611be08585600c60009054906101000a90046001600160a01b03168a866060015187608001518c614221565b611c028585898560600151866040015187608001518c61474c565b6000546001600160a01b031681565b6001600160a01b038216600090815260176020526040812080548390811061218957fe5b6000918252602090912001546001600160a01b03169392505050565b60006121af613290565b6001600160a01b0380851660009081526010602090815260408083209387168352929052908120546121e7908463ffffffff6133d516565b6001600160a01b0380871660009081526010602090815260408083209389168352929052208190559150509392505050565b6122238282614889565b60408051600180825281830190925260609160208083019080368337019050509050828160008151811061225357fe5b60200260200101906001600160a01b031690816001600160a01b0316815250506117158282611905565b612285613290565b80600481111561229157fe5b6001600160a01b038085166000908152601060209081526040808320938716835292905220600301805460ff191660018360048111156122cd57fe5b0217905550505050565b6005546040805163453ebeb560e11b81526001600160a01b038581166004830152915160009384931691638a7d7d6a916024808301926020929190829003018186803b15801561232657600080fd5b505afa15801561233a573d6000803e3d6000fd5b505050506040513d602081101561235057600080fd5b50516005546040805163eb7aac5f60e01b81526001600160a01b0388811660048301529151939450600093919092169163eb7aac5f916024808301926020929190829003018186803b1580156123a557600080fd5b505afa1580156123b9573d6000803e3d6000fd5b505050506040513d60208110156123cf57600080fd5b505190506123df8585848461375b565b95945050505050565b6003546001600160a01b031681565b600080600061240685856148cc565b6005546040805163eb7aac5f60e01b81526001600160a01b038981166004830152915194965092945060009391169163eb7aac5f916024808301926020929190829003018186803b15801561245a57600080fd5b505afa15801561246e573d6000803e3d6000fd5b505050506040513d602081101561248457600080fd5b505190506000612495848484614973565b979650505050505050565b6000805460408051639b56d6c960e01b81526001600160a01b038581166004830152915184939290921691639b56d6c991602480820192602092909190829003018186803b1580156124f157600080fd5b505afa158015612505573d6000803e3d6000fd5b505050506040513d602081101561251b57600080fd5b505160015460408051639b56d6c960e01b81526001600160a01b03878116600483015291519394506000939190921691639b56d6c9916024808301926020929190829003018186803b1580156112e857600080fd5b600061257a613277565b6000612584613466565b905060006125a6846118988861259a8b8a6149b7565b9063ffffffff6136c016565b905060006125cb6125be83600263ffffffff61371916565b849063ffffffff61334516565b90506125df81670de0b6b3a76400006149ff565b9050600081116125eb57fe5b600e8190556040805182815290517fc454ee9b76c52f782a256af821b857ca6e125d1e3333bcede402fec2bed9600c9181900360200190a16124956134b1565b600b546001600160a01b031681565b60156020526000908152604090205481565b612654613277565b6001600160a01b03848116600090815260106020908152604080832093871683529290522082815560010181905561268c8484614a15565b506001600160a01b03808516600081815260106020908152604080832094881680845294825291829020600201548251948552908401869052908301849052606083018190529091600080516020615f108339815191529186918691869160039060808101825b60ff1681526020019550505050505060405180910390a250505050565b600c546001600160a01b031681565b60126020526000908152604090205481565b600d546001600160a01b031681565b600080600061274f86866148cc565b6005546040805163eb7aac5f60e01b81526001600160a01b038a81166004830152915194965092945060009391169163eb7aac5f916024808301926020929190829003018186803b1580156127a357600080fd5b505afa1580156127b7573d6000803e3d6000fd5b505050506040513d60208110156127cd57600080fd5b5051905060006118a484848885614af9565b60146020526000908152604090205481565b6004546001600160a01b031681565b6009546001600160a01b031681565b612817613277565b600c546040805163bc9b5bd560e01b81526001600160a01b038881166004830152878116602483015260448201879052858116606483015284811660848301529151919092169163bc9b5bd59160a480830192600092919082900301818387803b15801561288457600080fd5b505af1158015612898573d6000803e3d6000fd5b505050505050505050565b6128ab613277565b60095460075460408051632770a7eb60e21b81526001600160a01b0392831660048201526024810186905290519190921691639dc29fac91604480830192600092919082900301818387803b15801561290357600080fd5b505af1158015612917573d6000803e3d6000fd5b50506000805460408051633aacc81560e01b81526001600160a01b038981166004830152602482018990529151919092169450633aacc81593506044808301939282900301818387803b15801561296d57600080fd5b505af1158015612981573d6000803e3d6000fd5b505060085460408051633fa5152d60e21b81526001600160a01b038981166004830152888116602483015260448201879052915191909216935063fe9454b49250606480830192600092919082900301818387803b1580156129e257600080fd5b505af11580156129f6573d6000803e3d6000fd5b5050600080546008546040805163715aa61b60e01b81526001600160a01b038a81166004830152928316602482015260448101889052905191909216945063715aa61b93506064808301939282900301818387803b158015612a5757600080fd5b505af1158015612a6b573d6000803e3d6000fd5b50505050836001600160a01b0316600080516020615f10833981519152846000806000600360405180866001600160a01b03166001600160a01b031681526020018581526020018481526020018381526020018260038111156126f357fe5b60186020526000908152604090205481565b600061134c612ae9613466565b61339f565b612af6613290565b612b008282614b38565b5050565b670ddd4b8c6c7d70d881565b60166020908152600092835260408084209091529082529020805460019091015482565b600f5481565b6000611166612b47612adc565b83614bc0565b60196020526000908152604090205481565b6003546001600160a01b03163314612b7657600080fd5b612b7f8d614bed565b612b888c614bed565b612b918b614bed565b612b9a8a614bed565b612ba389614bed565b612bac88614bed565b612bb587614bed565b612bbe86614bed565b612bc785614bed565b612bd084614bed565b612bd983614bed565b612be282614bed565b612beb81614bed565b8c600460006101000a8154816001600160a01b0302191690836001600160a01b031602179055508b600560006101000a8154816001600160a01b0302191690836001600160a01b031602179055508a6000806101000a8154816001600160a01b0302191690836001600160a01b0316021790555089600160006101000a8154816001600160a01b0302191690836001600160a01b0316021790555088600660006101000a8154816001600160a01b0302191690836001600160a01b0316021790555087600760006101000a8154816001600160a01b0302191690836001600160a01b0316021790555086600860006101000a8154816001600160a01b0302191690836001600160a01b0316021790555085600260006101000a8154816001600160a01b0302191690836001600160a01b0316021790555084600960006101000a8154816001600160a01b0302191690836001600160a01b0316021790555083600c60006101000a8154816001600160a01b0302191690836001600160a01b0316021790555082600a60006101000a8154816001600160a01b0302191690836001600160a01b0316021790555081600b60006101000a8154816001600160a01b0302191690836001600160a01b0316021790555080600d60006101000a8154816001600160a01b0302191690836001600160a01b031602179055507f3ca631ffcd2a9b5d9ae18543fc82f58eb4ca33af9e6ab01b7a8e95331e6ed9858d60405180826001600160a01b03166001600160a01b0316815260200191505060405180910390a1604080516001600160a01b038e16815290517f6a69409f44477d8556c3c8040edc75d9bc1b3dee7846f6045c0b99556fe7bc919181900360200190a1604080516001600160a01b038d16815290517f78f058b189175430c48dc02699e3a0031ea4ff781536dc2fab847de4babdd8829181900360200190a1604080516001600160a01b038c16815290517f5ee0cae2f063ed938bb55046f6a932fb6ae792bf43624806bb90abe68a50be9b9181900360200190a1604080516001600160a01b038b16815290517f82966d27eea39b038ee0fa30cd16532bb24f6e65d31cb58fb227aa5766cdcc7f9181900360200190a1604080516001600160a01b038a16815290517fcfb07d791fcafc032b35837b50eb84b74df518cf4cc287e8084f47630fa70fa09181900360200190a1604080516001600160a01b038916815290517fe67f36a6e961157d6eff83b91f3af5a62131ceb6f04954ef74f51c1c05e7f88d9181900360200190a1604080516001600160a01b038816815290517f8c537274438aa850a330284665d81a85dd38267d09e4050d416bfc94142db2649181900360200190a1604080516001600160a01b038716815290517f227eec0ec317af6ab1a9587ffa1c84332522eb4c583a908f89babc05f8f339bd9181900360200190a1604080516001600160a01b038616815290517f65f4cf077bc01e4742eb5ad98326f6e95b63548ea24b17f8d5e823111fe788009181900360200190a1604080516001600160a01b038516815290517f2ac6e99201ddc1b6eac6f8f28662d1ecafee131f6eb98c29de54528a9888a7d19181900360200190a1604080516001600160a01b038416815290517f756ebc192164c295bba134b5aacd72cc7aff8098a670d1f0a5f6b3a0b4ce67079181900360200190a1604080516001600160a01b038316815290517f60fc0872daa3654ed011fd931f5591def43e40ef6dd33b860b9307056e7da9c19181900360200190a15050600380546001600160a01b03191690555050505050505050505050565b6000613127613290565b6114518383614a15565b6001600160a01b03918216600090815260106020908152604080832093909416825291909152206002015490565b60136020526000908152604090205481565b60116020526000908152604090205481565b61318b61350d565b600054600154612b00916001600160a01b0390811691168484614c9c565b6000611166612b4761133f565b601760205281600052604060002081815481106131cf57fe5b6000918252602090912001546001600160a01b03169150829050565b600061134c600e54613699565b6001600160a01b03918216600090815260106020908152604080832093909416825291909152205490565b61322b61350d565b612b008282614df7565b600061323f613290565b6001600160a01b0380851660009081526010602090815260408083209387168352929052908120546121e7908463ffffffff61334516565b600d546001600160a01b0316331461328e57600080fd5b565b6004546001600160a01b0316331461328e57600080fd5b6001600160a01b03818116600081815260176020908152604082208054600180820183558285529284200180546001600160a01b0319169588169590951790945591815291546132f6916133d5565b6001600160a01b03938416600090815260106020908152604080832095909616825293909352929091206003018054610100600160881b0319166101006001600160801b038516021790555090565b600082820183811015611451576040805162461bcd60e51b815260206004820152601b60248201527f536166654d6174683a206164646974696f6e206f766572666c6f770000000000604482015290519081900360640190fd5b60006111666133c7836103e8670de0b6b3a76400005b0460050261334590919063ffffffff16565b670de0b6b3a76400006149ff565b600061145183836040518060400160405280601e81526020017f536166654d6174683a207375627472616374696f6e206f766572666c6f770000815250614e78565b6000611451670de0b6b3a7640000611898858563ffffffff6136c016565b600080613441856124a0565b9050600061344e86611218565b905061345c82828787614af9565b9695505050505050565b600080613471614f0f565b90506000613487670ddd4b8c6c7d70d883614f2b565b90506134aa670de0b6b3a764000061189883600e546136c090919063ffffffff16565b9250505090565b60006134c8600f54426133d590919063ffffffff16565b9050603c81106116b65742600f81905560408051918252517f860f8d2f0c74dd487e89e2883e3b25b8159ce1e1b3433a291cba7b82c508f3bc9181900360200190a150565b6004546001600160a01b03163314806135305750600d546001600160a01b031633145b61328e57600080fd5b600081600481111561354757fe5b141580156135615750600181600481111561355e57fe5b14155b61356757fe5b6001600160a01b03821660009081526017602052604090205461358a8184614fd6565b6001600160a01b038085166000908152601060209081526040808320938716835292905220600301805483919060ff191660018360048111156135c957fe5b02179055506001600160a01b038481166000818152601060209081526040808320948816808452948252808320600180820185905590849055938352601682528083209483529390529182208281550155613625848483615069565b600c5460408051637f7c149160e01b81526001600160a01b038681166004830152878116602483015291519190921691637f7c149191604480830192600092919082900301818387803b15801561367b57600080fd5b505af115801561368f573d6000803e3d6000fd5b5050505050505050565b60006111666136b3836103e8670de0b6b3a76400006133b5565b66b1a2bc2ec500006149ff565b6000826136cf57506000611166565b828202828482816136dc57fe5b04146114515760405162461bcd60e51b8152600401808060200182810382526021815260200180615eef6021913960400191505060405180910390fd5b600061145183836040518060400160405280601a81526020017f536166654d6174683a206469766973696f6e206279207a65726f00000000000081525061527b565b600080613769868685613435565b90931195945050505050565b61377d615dfc565b613785615e48565b6005546040805163eb7aac5f60e01b81526001600160a01b0389811660048301529151919092169163eb7aac5f916024808301926020929190829003018186803b1580156137d257600080fd5b505afa1580156137e6573d6000803e3d6000fd5b505050506040513d60208110156137fc57600080fd5b50516101008201526005546040805163453ebeb560e11b81526001600160a01b03898116600483015291519190921691638a7d7d6a916024808301926020929190829003018186803b15801561385157600080fd5b505afa158015613865573d6000803e3d6000fd5b505050506040513d602081101561387b57600080fd5b5051610120820152600554604080516311e2c60b60e11b81526001600160a01b038981166004830152915191909216916323c58c16916024808301926020929190829003018186803b1580156138d057600080fd5b505afa1580156138e4573d6000803e3d6000fd5b505050506040513d60208110156138fa57600080fd5b505161014082015261390a615dfc565b848252600060a083015261391d87611218565b60c083015261392b876124a0565b60e0830152600060208301525b835182602001511015613b38578382602001518151811061395557fe5b6020908102919091018101516001600160a01b03908116608085018190526000908152601083526040808220928b1682529190925290206003015460019060ff1660048111156139a157fe5b146139ab57613b28565b6139ba82608001518888612740565b604083015260a0820151613acc578161014001518260400151101580156139e057508151155b156139ea57613b28565b6000613a058360e001518460c0015189866101000151614af9565b9050613a298a8a8a866080015187604001518860000151878e8b61014001516152e0565b60808101518451919350613a43919063ffffffff6133d516565b8352608082015160c0840151613a5e9163ffffffff6133d516565b60c0840152610100820151604083015160a084015160e0860151613a909392611d7a929091839163ffffffff6133d516565b60e0840152613a9f8483615788565b9350613ac08360e001518460c001518986610100015187610120015161589f565b1560a084015250613b28565b8160a001518015613ae557508161014001518260400151105b15613b2857613aff898989856080015186600001516158bb565b60808101518351919250613b19919063ffffffff6133d516565b8252613b258382615788565b92505b6020820180516001019052613938565b50509695505050505050565b613b4c615dfc565b613b54615e48565b613b5c615dfc565b848252600060208301525b835182602001511015613c065783826020015181518110613b8457fe5b60209081029190910101516001600160a01b031660808301819052613baa908989612740565b60408301819052861115613bf657613bcd8a8a8a856080015186600001516158bb565b60808101518351919250613be7919063ffffffff6133d516565b8252613bf38382615788565b92505b6020820180516001019052613b67565b5050979650505050505050565b82613c1d57613fa6565b6001600160a01b038416600090815260186020526040812054613c5a90613c4e85600a86900a63ffffffff6136c016565b9063ffffffff61334516565b6001600160a01b03861660009081526019602052604081205491925090613c8f90613c4e87600a87900a63ffffffff6136c016565b6001600160a01b03871660009081526011602052604081205491925090613cbd90849063ffffffff61371916565b6001600160a01b03881660009081526011602052604081205491925090613ceb90849063ffffffff61371916565b6001600160a01b038916600090815260116020526040902054909150613d2990613d1c90849063ffffffff6136c016565b859063ffffffff6133d516565b6001600160a01b038916600090815260186020908152604080832093909355601190522054613d7090613d6390839063ffffffff6136c016565b849063ffffffff6133d516565b6001600160a01b038916600090815260196020908152604080832093909355601490522054613da5908363ffffffff61334516565b6001600160a01b038916600090815260146020908152604080832093909355601590522054613dda908263ffffffff61334516565b6001600160a01b038916600081815260156020818152604080842086905560148252928390205491815282519384528301528181019290925290517f6f63d00bdf85957664165c9e20900aabd5a17378cb5c0955ce760e48a6ae48c79181900360600190a1896001600160a01b0316633aacc81589896040518363ffffffff1660e01b815260040180836001600160a01b03166001600160a01b0316815260200182815260200192505050600060405180830381600087803b158015613e9f57600080fd5b505af1158015613eb3573d6000803e3d6000fd5b50505050886001600160a01b0316635fc7b5e889896040518363ffffffff1660e01b815260040180836001600160a01b03166001600160a01b0316815260200182815260200192505050600060405180830381600087803b158015613f1757600080fd5b505af1158015613f2b573d6000803e3d6000fd5b50506040805163715aa61b60e01b81526001600160a01b038c811660048301528d81166024830152604482018b90529151918e16935063715aa61b925060648082019260009290919082900301818387803b158015613f8957600080fd5b505af1158015613f9d573d6000803e3d6000fd5b50505050505050505b505050505050565b6001600160a01b0380831660008181526011602090815260408083205460128352818420558051639b56d6c960e01b81526004810194909452519193871692639b56d6c99260248083019392829003018186803b15801561400e57600080fd5b505afa158015614022573d6000803e3d6000fd5b505050506040513d602081101561403857600080fd5b505160015460408051639b56d6c960e01b81526001600160a01b03878116600483015291519394506000939190921691639b56d6c9916024808301926020929190829003018186803b15801561408d57600080fd5b505afa1580156140a1573d6000803e3d6000fd5b505050506040513d60208110156140b757600080fd5b505190506140cf81613c4e848663ffffffff6133d516565b6001600160a01b038516600081815260136020818152604080842086905560128252928390205491815282519384528301528181019290925290517f9ea5863ffc9d961d6c6bb67235c553dfbdbcc8fe12671cdba8887a50501efbaf9181900360600190a15050505050565b81156141ba5760095460075460408051631062c15f60e11b81526001600160a01b039283166004820152868316602482015260448101869052905191909216916320c582be91606480830192600092919082900301818387803b1580156141a157600080fd5b505af11580156141b5573d6000803e3d6000fd5b505050505b801561421a576040805163715aa61b60e01b81526001600160a01b03868116600483015285811660248301526044820184905291519187169163715aa61b9160648082019260009290919082900301818387803b15801561288457600080fd5b5050505050565b614229615dfc565b614231615e48565b6005546040805163eb7aac5f60e01b81526001600160a01b0389811660048301529151919092169163eb7aac5f916024808301926020929190829003018186803b15801561427e57600080fd5b505afa158015614292573d6000803e3d6000fd5b505050506040513d60208110156142a857600080fd5b50516101008201526005546040805163453ebeb560e11b81526001600160a01b03898116600483015291519190921691638a7d7d6a916024808301926020929190829003018186803b1580156142fd57600080fd5b505afa158015614311573d6000803e3d6000fd5b505050506040513d602081101561432757600080fd5b5051610120820152600554604080516311e2c60b60e11b81526001600160a01b038981166004830152915191909216916323c58c16916024808301926020929190829003018186803b15801561437c57600080fd5b505afa158015614390573d6000803e3d6000fd5b505050506040513d60208110156143a657600080fd5b50516101408201526143b6615dfc565b848252600060a08301526143c987611218565b60c08301526143d7876124a0565b60e083015260408051637608271560e01b81526001600160a01b0389811660048301529151918a1691637608271591602480820192602092909190829003018186803b15801561442657600080fd5b505afa15801561443a573d6000803e3d6000fd5b505050506040513d602081101561445057600080fd5b50516001600160a01b03908116608084015260408051631bdb4c8d60e01b8152898316600482015290516000928b1691631bdb4c8d916024808301926020929190829003018186803b1580156144a557600080fd5b505afa1580156144b9573d6000803e3d6000fd5b505050506040513d60208110156144cf57600080fd5b50516000602085015290505b8483602001511080156145045750806001600160a01b031683608001516001600160a01b031614155b1561473e576080830151604080516239c6e160ea1b81526001600160a01b038b81166004830152928316602482015290516000928c169163e71b8400916044808301926020929190829003018186803b15801561456057600080fd5b505afa158015614574573d6000803e3d6000fd5b505050506040513d602081101561458a57600080fd5b5051608085015190915061459f908a8a612740565b604085015260a08401516146ba578361014001518460400151101580156145c557508351155b156145d0575061473e565b6145e98460e001518560c001518a876101000151614af9565b8460600181815250506146188c8c8b8760800151886040015189600001518a606001518f8c61014001516152e0565b60808101518551919450614632919063ffffffff6133d516565b8452608083015160c085015161464d9163ffffffff6133d516565b60c0850152610100830151604084015160a085015160e087015161467f9392611d7a929091839163ffffffff6133d516565b60e085015261468e8584615788565b94506146af8460e001518560c001518a87610100015188610120015161589f565b1560a0850152614720565b8360a0015180156146d357508361014001518460400151105b1561471a576146ed8c8c8b876080015188600001516158bb565b60808101518551919450614707919063ffffffff6133d516565b84526147138584615788565b9450614720565b5061473e565b6001600160a01b0316608084015260208301805160010190526144db565b505050979650505050505050565b614754615dfc565b61475c615e48565b614764615dfc565b600c54858352600060208401526001600160a01b03165b848360200151101561473e57806001600160a01b031663760827158a6040518263ffffffff1660e01b815260040180826001600160a01b03166001600160a01b0316815260200191505060206040518083038186803b1580156147dd57600080fd5b505afa1580156147f1573d6000803e3d6000fd5b505050506040513d602081101561480757600080fd5b50516001600160a01b031660808401819052614824908a8a612740565b60408401819052871115614874576148478b8b8b866080015187600001516158bb565b60808101518451919350614861919063ffffffff6133d516565b835261486d8483615788565b9350614879565b61473e565b602083018051600101905261477b565b60016001600160a01b0380841660009081526010602090815260408083209386168352929052206003015460ff1660048111156148c257fe5b14612b0057600080fd5b60008060006148db85856118bf565b905060006148e98686611745565b6001600160a01b038088166000908152601060209081526040808320938a1683529290529081206001015491925090614928908463ffffffff61334516565b6001600160a01b038089166000908152601060209081526040808320938b1683529290529081205491925090614964908463ffffffff61334516565b91989197509095505050505050565b600082156149ae57600061498785846149b7565b90506149a6846118988368056bc75e2d6310000063ffffffff6136c016565b915050611451565b50600019611451565b8160128211156149df576149d8816011198401600a0a63ffffffff61371916565b9050611166565b601282101561116657611451816012849003600a0a63ffffffff6136c016565b6000818310614a0e5781611451565b5090919050565b6001600160a01b0380831660009081526010602090815260408083209385168352929052908120600101548190614a4d908490615a62565b6001600160a01b038581166000908152601060209081526040808320938816835292815282822060020180549085905560119091529190205491925090614a9a908390613c4e90846133d5565b6001600160a01b038516600081815260116020908152604091829020849055815192835282019290925281517fd5630907014190fb9340da1cf427c96f094dabfbf73d25506e4b0cda9e3a4ca0929181900390910190a1509392505050565b60008315614b2f576000614b0d86846149b7565b90506000614b2586611898848863ffffffff6136c016565b9250611326915050565b50600019611326565b6001600160a01b03818116600081815260146020908152604080832080549588168452601683528184208585528352818420958655601583529281902054600190950185905591548251938452908301528181019290925290517fc3d426bcfc672bd74f6fae61c225e06f556f80dad48af8a4631b295030a7ad3d9181900360600190a15050565b600080614bdf670de0b6b3a7640000611898868663ffffffff6136c016565b905082811061145157600080fd5b6001600160a01b038116614c48576040805162461bcd60e51b815260206004820152601e60248201527f4163636f756e742063616e6e6f74206265207a65726f20616464726573730000604482015290519081900360640190fd5b803b80612b00576040805162461bcd60e51b815260206004820181905260248201527f4163636f756e7420636f64652073697a652063616e6e6f74206265207a65726f604482015290519081900360640190fd5b614ca68282611351565b15614df157614cb58282614889565b6000614cc183836118bf565b90506000614ccf8484611745565b6001600160a01b03808616600090815260106020908152604080832093881683529290522060010154909150614d0b908363ffffffff61334516565b6001600160a01b038581166000908152601060209081526040808320938816835292905220600181019190915554614d439082613345565b6001600160a01b03808616600090815260106020908152604080832093881683529290522055614d738484614b38565b614d808686858486615ae2565b6001600160a01b038481166000818152601060209081526040808320948816808452948252808320805460018201546002909201548351978852938701528582015260608501919091526080840191909152519091600080516020615f10833981519152919081900360a00190a250505b50505050565b6001600160a01b038083166000908152601060209081526040808320938516835292815282822060020154601190915291902054614e3b908263ffffffff6133d516565b6001600160a01b03928316600081815260116020908152604080832094909455959094168452601085528184209084529093525090812060020155565b60008184841115614f075760405162461bcd60e51b81526004018080602001828103825283818151815260200191508051906020019080838360005b83811015614ecc578181015183820152602001614eb4565b50505050905090810190601f168015614ef95780820380516001836020036101000a031916815260200191505b509250505060405180910390fd5b505050900390565b600061134c603c611898600f54426133d590919063ffffffff16565b6000631f540500821115614f4157631f54050091505b81614f555750670de0b6b3a7640000611166565b670de0b6b3a764000083835b6001811115614fcc5760028106614f9657614f7c8283615c32565b9150614f8f81600263ffffffff61371916565b9050614fc7565b614fa08284615c32565b9250614fac8283615c32565b9150614fc4600261189883600163ffffffff6133d516565b90505b614f61565b61345c8284615c32565b6001821180156150605750600c546040805163504f167160e01b81526001600160a01b0384811660048301529151600193929092169163504f167191602480820192602092909190829003018186803b15801561503257600080fd5b505afa158015615046573d6000803e3d6000fd5b505050506040513d602081101561505c57600080fd5b5051115b612b0057600080fd5b6001600160a01b03808416600090815260106020908152604080832093861683529290529081206003015460ff16908160048111156150a457fe5b141580156150be575060018160048111156150bb57fe5b14155b6150c457fe5b6001600160a01b03848116600090815260106020908152604080832093871683529290529081206003015461010090046001600160801b031690839061510b8260016133d5565b905080836001600160801b0316111561512057fe5b6001600160a01b038616600090815260176020526040812080548390811061514457fe5b60009182526020808320909101546001600160a01b038a811684526017909252604090922080549190921692508291906001600160801b03871690811061518757fe5b600091825260208083209190910180546001600160a01b0319166001600160a01b03948516179055838316808352601082526040808420948c16808552948352928390206003018054610100600160881b0319166101006001600160801b038b169081029190911790915583519182529181019390935282820152517f596c08527bf037a7d30b01f257c1ba24ebd2a664cde69f8315accfee1199c668916060908290030190a16001600160a01b038716600090815260176020526040902080548061524f57fe5b600082815260209020810160001990810180546001600160a01b03191690550190555050505050505050565b600081836152ca5760405162461bcd60e51b8152602060048201818152835160248401528351909283926044909101919085019080838360008315614ecc578181015183820152602001614eb4565b5060008385816152d657fe5b0495945050505050565b6152e8615dfc565b6152f0615ead565b6001600160a01b038916600090815260176020526040902054600110615316575061577b565b615320888a6111a1565b6040850152602084810191909152840181905290835261533f90615c65565b60408301819052678ac7230489e80000606084015260208301516153689163ffffffff6133d516565b8152670de0b6b3a764000087116154a75761538e8b8b8b84602001518560400151615ae2565b615398888a614df7565b60006080830181905260a0830152815160c0830152805160e08301526153c0888a6003613539565b876001600160a01b0316600080516020615ecf8339815191528a84600001518560200151600260405180856001600160a01b03166001600160a01b0316815260200184815260200183815260200182600381111561541a57fe5b60ff16815260200194505050505060405180910390a2876001600160a01b0316600080516020615f108339815191528a6000806000600260405180866001600160a01b03166001600160a01b0316815260200185815260200184815260200183815260200182600381111561548b57fe5b60ff1681526020019550505050505060405180910390a2615779565b670de0b6b3a7640000871180156154bd57508287105b15615510576154d78b8b8b84602001518560400151615ae2565b6154e1888a614df7565b815181516154f0919088615c6c565b60e086015260c085015260a084015260808301526153c0888a6003613539565b82871015801561551f57508487105b801561552c575081518610155b15615768576155468b8b8b84602001518560400151615ae2565b8561554d57fe5b615557888a614df7565b6005546040805163eb7aac5f60e01b81526001600160a01b038c811660048301529151600093929092169163eb7aac5f91602480820192602092909190829003018186803b1580156155a857600080fd5b505afa1580156155bc573d6000803e3d6000fd5b505050506040513d60208110156155d257600080fd5b5051835160208501519192506155ea91878785615cd8565b92506155f8898b6003613539565b610100830151156156805760085461010084015160408051633fa5152d60e21b81526001600160a01b038d811660048301528e8116602483015260448201939093529051919092169163fe9454b491606480830192600092919082900301818387803b15801561566757600080fd5b505af115801561567b573d6000803e3d6000fd5b505050505b886001600160a01b0316600080516020615ecf8339815191528b85600001518660a00151600260405180856001600160a01b03166001600160a01b031681526020018481526020018381526020018260038111156156da57fe5b60ff16815260200194505050505060405180910390a2886001600160a01b0316600080516020615f108339815191528b6000806000600260405180866001600160a01b03166001600160a01b0316815260200185815260200184815260200183815260200182600381111561574b57fe5b60ff1681526020019550505050505060405180910390a250615779565b615770615dfc565b915061577b9050565b505b9998505050505050505050565b615790615dfc565b604080830151908401516157a99163ffffffff61334516565b6040820152606080830151908401516157c79163ffffffff61334516565b6060820152815160208401516157e29163ffffffff61334516565b60208083019190915282015183516157ff9163ffffffff61334516565b81526080808301519084015161581a9163ffffffff61334516565b608082015260a080830151908401516158389163ffffffff61334516565b60a082015260c080830151908401516158569163ffffffff61334516565b60c082015260e080830151908401516158749163ffffffff61334516565b60e082015261010080830151908401516158939163ffffffff61334516565b61010082015292915050565b6000806158ae87878787614af9565b9092119695505050505050565b6158c3615dfc565b6158cb615ead565b6158d584866111a1565b6040850190815260208581019283528601929092529184529051905161590091899189918991615ae2565b61590a8486614df7565b6159178260200151615c65565b60408301819052678ac7230489e8000060608401526020830151600091615944919063ffffffff6133d516565b905061595583600001518286615c6c565b60e087015260c086015260a0850152608084015261597585876003613539565b846001600160a01b0316600080516020615ecf8339815191528785600001518660200151600160405180856001600160a01b03166001600160a01b031681526020018481526020018381526020018260038111156159cf57fe5b60ff16815260200194505050505060405180910390a2846001600160a01b0316600080516020615f10833981519152876000806000600160405180866001600160a01b03166001600160a01b03168152602001858152602001848152602001838152602001826003811115615a4057fe5b60ff1681526020019550505050505060405180910390a2505095945050505050565b6001600160a01b0382166000908152601360205260408120548190615a88575081611451565b6001600160a01b038416600090815260126020526040902054615aa757fe5b6001600160a01b038416600090815260136020908152604080832054601290925290912054611326919061189890869063ffffffff6136c016565b836001600160a01b0316633aacc81584846040518363ffffffff1660e01b815260040180836001600160a01b03166001600160a01b0316815260200182815260200192505050600060405180830381600087803b158015615b4257600080fd5b505af1158015615b56573d6000803e3d6000fd5b50505050846001600160a01b0316635fc7b5e884846040518363ffffffff1660e01b815260040180836001600160a01b03166001600160a01b0316815260200182815260200192505050600060405180830381600087803b158015615bba57600080fd5b505af1158015615bce573d6000803e3d6000fd5b50505050836001600160a01b03166334e5396284836040518363ffffffff1660e01b815260040180836001600160a01b03166001600160a01b0316815260200182815260200192505050600060405180830381600087803b15801561288457600080fd5b600080615c45848463ffffffff6136c016565b9050611326670de0b6b3a7640000611898836706f05b59d3b20000613345565b60c8900490565b60008080808415615cc257615c8187866149ff565b9350615c9787611898888763ffffffff6136c016565b9250615ca9878563ffffffff6133d516565b9150615cbb868463ffffffff6133d516565b9050615ccf565b5060009250829150859050845b93509350935093565b615ce0615dfc565b858152602081018590526000615d0085611898898763ffffffff6136c016565b90506012831015615d2957615d22816012859003600a0a63ffffffff61371916565b9050615d4c565b6012831115615d4c57615d49816011198501600a0a63ffffffff6136c016565b90505b615d5581615c65565b60408301819052678ac7230489e80000606084015260808301889052615d8290829063ffffffff6133d516565b60a0830152615d97868263ffffffff6133d516565b61010083015250600060c0820181905260e082015295945050505050565b604051806101000160405280600081526020016000815260200160008152602001600081526020016000815260200160001515815260200160008152602001600081525090565b6040518061012001604052806000815260200160008152602001600081526020016000815260200160008152602001600081526020016000815260200160008152602001600081525090565b6040518061016001604052806000815260200160008152602001600081526020016000815260200160006001600160a01b0316815260200160001515815260200160008152602001600081526020016000815260200160008152602001600081525090565b6040518060600160405280600081526020016000815260200160008152509056fe44b1a33c624451b36e8d636828145aa4eb39bd6cc5e2cf623bb270d3abc38c88536166654d6174683a206d756c7469706c69636174696f6e206f766572666c6f77100d2512a463b515ea8d03a69afbcc791f1bd9139132e820631bec236f524ec1a26469706673582212208a9cf765c967745d47555df6b420bacf0968a88542f46a69fffa9df166cd22c364736f6c634300060b0033608060405234801561001057600080fd5b50600380546001600160a01b031916339081179091556040516000907f8be0079c531659141344cd1fd0a4f28419497f9722a3daafe3b4186f6b6457e0908290a3612365806100606000396000f3fe608060405234801561001057600080fd5b50600436106101425760003560e01c8063741bef1a116100b8578063a20baee61161007c578063a20baee6146102a1578063a3a6401714610303578063ae9187541461030b578063b83f91a214610313578063c35bc5501461031b578063f92d34331461032357610142565b8063741bef1a146102a95780637f7dde4a146102b15780638da5cb5b146102b95780638f32d59b146102c15780639e86d0c4146102dd57610142565b80633d83908a1161010a5780633d83908a146101bb5780634870dd9a146101c35780635c0ab4de146101cb5780635e275a7d146101d3578063662720441461023757806372fe25aa146102a157610142565b80631bf43555146101475780631f7af3c31461016157806327d04b35146101855780632e86bbd8146101ab5780633cc74225146101b3575b600080fd5b61014f61032b565b60408051918252519081900360200190f35b610169610338565b604080516001600160a01b039092168252519081900360200190f35b61014f6004803603602081101561019b57600080fd5b50356001600160a01b0316610347565b61014f61045d565b610169610469565b610169610478565b61014f610487565b61016961048c565b61023560048036036101208110156101ea57600080fd5b506001600160a01b03813581169160208101358216916040820135916060810135821691608082013581169160a08101359091169060c08101359060e081013590610100013561049b565b005b610235600480360361012081101561024e57600080fd5b506001600160a01b038135811691602081013582169160408201358116916060810135821691608082013581169160a081013582169160c082013581169160e08101358216916101009091013516611038565b61014f61112a565b610169611136565b610169611145565b610169611154565b6102c9611163565b604080519115158252519081900360200190f35b61014f600480360360208110156102f357600080fd5b50356001600160a01b0316611174565b610169611244565b610169611253565b610169611262565b61014f611271565b61014f611278565b6804e1003b28d928000081565b6006546001600160a01b031681565b6000805460408051634b14fa8760e01b81526001600160a01b038581166004830152915184939290921691634b14fa8791602480820192602092909190829003018186803b15801561039857600080fd5b505afa1580156103ac573d6000803e3d6000fd5b505050506040513d60208110156103c257600080fd5b505160015460408051634b14fa8760e01b81526001600160a01b03878116600483015291519394506000939190921691634b14fa87916024808301926020929190829003018186803b15801561041757600080fd5b505afa15801561042b573d6000803e3d6000fd5b505050506040513d602081101561044157600080fd5b50519050610455828263ffffffff61128316565b949350505050565b678ac7230489e8000081565b6001546001600160a01b031681565b6004546001600160a01b031681565b60c881565b6005546001600160a01b031681565b6104a36112e6565b6104ac89611331565b6104b4612234565b6104bd826113fe565b6104c561148c565b60025460408051635670bcc760e11b81526001600160a01b038d811660048301529151919092169163ace1798e9160248083019260209291908290030181600087803b15801561051457600080fd5b505af1158015610528573d6000803e3d6000fd5b505050506040513d602081101561053e57600080fd5b505160c08201526005546040805163eb7aac5f60e01b81526001600160a01b038d8116600483015291519190921691829163eb7aac5f91602480820192602092909190829003018186803b15801561059557600080fd5b505afa1580156105a9573d6000803e3d6000fd5b505050506040513d60208110156105bf57600080fd5b5051610100830152604080516311e2c60b60e11b81526001600160a01b038d811660048301529151918316916323c58c1691602480820192602092909190829003018186803b15801561061157600080fd5b505afa158015610625573d6000803e3d6000fd5b505050506040513d602081101561063b57600080fd5b5051610120830181905260c083015161010084015161065d928e92919061151e565b6106668961153b565b60075461067d906001600160a01b03168b8b611548565b6106868b610347565b60e08301819052600754604080516370a0823160e01b81526001600160a01b038e81166004830152915191909216916370a08231916024808301926020929190829003018186803b1580156106da57600080fd5b505afa1580156106ee573d6000803e3d6000fd5b505050506040513d602081101561070457600080fd5b5051111561070e57fe5b88825260085460c08301516101208401516001600160a01b039092169161073a9183918f918d916115db565b15610754576001600160a01b038916610140840152610964565b806001600160a01b031663760827158d6040518263ffffffff1660e01b815260040180826001600160a01b03166001600160a01b0316815260200191505060206040518083038186803b1580156107aa57600080fd5b505afa1580156107be573d6000803e3d6000fd5b505050506040513d60208110156107d457600080fd5b50516001600160a01b03166101408401525b6101408301516001600160a01b0316158015906108c85750826101200151600460009054906101000a90046001600160a01b03166001600160a01b031663b1eafaab8561014001518f8760c001516040518463ffffffff1660e01b815260040180846001600160a01b03166001600160a01b03168152602001836001600160a01b03166001600160a01b03168152602001828152602001935050505060206040518083038186803b15801561089a57600080fd5b505afa1580156108ae573d6000803e3d6000fd5b505050506040513d60208110156108c457600080fd5b5051105b1561096457610140830151604080516239c6e160ea1b81526001600160a01b038f81166004830152928316602482015290519183169163e71b840091604480820192602092909190829003018186803b15801561092457600080fd5b505afa158015610938573d6000803e3d6000fd5b505050506040513d602081101561094e57600080fd5b50516001600160a01b03166101408401526107e6565b8461096f5760001994505b6101408301516001600160a01b03161580159061098c5750825115155b80156109985750600085115b15610b7a57610140830151604080516239c6e160ea1b81526001600160a01b038f81166004830152928316602482015290516000199097019660009284169163e71b8400916044808301926020929190829003018186803b1580156109fc57600080fd5b505afa158015610a10573d6000803e3d6000fd5b505050506040513d6020811015610a2657600080fd5b81019080805190602001909291905050509050600460009054906101000a90046001600160a01b03166001600160a01b031663df4fb9ef8561014001518f6040518363ffffffff1660e01b815260040180836001600160a01b03166001600160a01b03168152602001826001600160a01b03166001600160a01b0316815260200192505050600060405180830381600087803b158015610ac557600080fd5b505af1158015610ad9573d6000803e3d6000fd5b50505050610ae5612297565b610b028561014001518f87600001518860c001518e8e8e8b61183e565b9050806040015115610b15575050610b7a565b80516020860151610b2b9163ffffffff61128316565b6020808701919091528101516040860151610b4b9163ffffffff61128316565b604086015280518551610b639163ffffffff611e6b16565b8552506001600160a01b031661014084015261096f565b6000836040015111610b8b57600080fd5b6004805460408086015160c087015161010088015160e089015184516350d3cdf560e11b815296870193909352602486019190915260448501526064840152516001600160a01b039091169163a1a79bea9160848083019260209291908290030181600087803b158015610bfe57600080fd5b505af1158015610c12573d6000803e3d6000fd5b505050506040513d6020811015610c2857600080fd5b5050600480546040808601518151633a16d80f60e21b815293840152516001600160a01b039091169163e85b603c916024808301926020929190829003018186803b158015610c7657600080fd5b505afa158015610c8a573d6000803e3d6000fd5b505050506040513d6020811015610ca057600080fd5b5051606084018190526040840151610cb9919086611ead565b6000809054906101000a90046001600160a01b03166001600160a01b031663715aa61b8d600960009054906101000a90046001600160a01b031686606001516040518463ffffffff1660e01b815260040180846001600160a01b03166001600160a01b03168152602001836001600160a01b03166001600160a01b031681526020018281526020019350505050600060405180830381600087803b158015610d6057600080fd5b505af1158015610d74573d6000803e3d6000fd5b50505050600960009054906101000a90046001600160a01b03166001600160a01b031663d66274bc8d85606001516040518363ffffffff1660e01b815260040180836001600160a01b03166001600160a01b0316815260200182815260200192505050600060405180830381600087803b158015610df157600080fd5b505af1158015610e05573d6000803e3d6000fd5b5050505060608301516040840151610e1c91611e6b565b836080018181525050600460009054906101000a90046001600160a01b03166001600160a01b031663099a676e8c8e8d8760200151886040015189606001516040518763ffffffff1660e01b815260040180876001600160a01b03166001600160a01b03168152602001866001600160a01b03166001600160a01b031681526020018581526020018481526020018381526020018281526020019650505050505050600060405180830381600087803b158015610ed857600080fd5b505af1158015610eec573d6000803e3d6000fd5b505050506000809054906101000a90046001600160a01b03166001600160a01b0316633aacc8158d85602001516040518363ffffffff1660e01b815260040180836001600160a01b03166001600160a01b0316815260200182815260200192505050600060405180830381600087803b158015610f6857600080fd5b505af1158015610f7c573d6000803e3d6000fd5b505050506000809054906101000a90046001600160a01b03166001600160a01b031663715aa61b8d8d86608001516040518463ffffffff1660e01b815260040180846001600160a01b03166001600160a01b03168152602001836001600160a01b03166001600160a01b031681526020018281526020019350505050600060405180830381600087803b15801561101257600080fd5b505af1158015611026573d6000803e3d6000fd5b50505050505050505050505050505050565b611040611163565b611091576040805162461bcd60e51b815260206004820181905260248201527f4f776e61626c653a2063616c6c6572206973206e6f7420746865206f776e6572604482015290519081900360640190fd5b600080546001600160a01b03199081166001600160a01b038c8116919091179092556001805482168b84161790556004805482168a84161790556005805482168984161790556006805482168884161790556002805482168784161790556007805482168684161790556008805482168584161790556009805490911691831691909117905561111f611f22565b505050505050505050565b670de0b6b3a764000081565b6002546001600160a01b031681565b6000546001600160a01b031681565b6003546001600160a01b031690565b6003546001600160a01b0316331490565b6000805460408051639b56d6c960e01b81526001600160a01b038581166004830152915184939290921691639b56d6c991602480820192602092909190829003018186803b1580156111c557600080fd5b505afa1580156111d9573d6000803e3d6000fd5b505050506040513d60208110156111ef57600080fd5b505160015460408051639b56d6c960e01b81526001600160a01b03878116600483015291519394506000939190921691639b56d6c9916024808301926020929190829003018186803b15801561041757600080fd5b6009546001600160a01b031681565b6008546001600160a01b031681565b6007546001600160a01b031681565b6212750081565b6611c37937e0800081565b6000828201838110156112dd576040805162461bcd60e51b815260206004820152601b60248201527f536166654d6174683a206164646974696f6e206f766572666c6f770000000000604482015290519081900360640190fd5b90505b92915050565b6004546001600160a01b0316331461132f5760405162461bcd60e51b815260040180806020018281038252602c8152602001806122e3602c913960400191505060405180910390fd5b565b60055460408051630658339960e51b81526001600160a01b0384811660048301529151919092169163cb067320916024808301926020929190829003018186803b15801561137e57600080fd5b505afa158015611392573d6000803e3d6000fd5b505050506040513d60208110156113a857600080fd5b50516113fb576040805162461bcd60e51b815260206004820152601a60248201527f496e76616c696420636f6c6c61746572616c2061646472657373000000000000604482015290519081900360640190fd5b50565b60048054604080516328d28b5b60e01b815290516001600160a01b03909216926328d28b5b928282019260209290829003018186803b15801561144057600080fd5b505afa158015611454573d6000803e3d6000fd5b505050506040513d602081101561146a57600080fd5b505181108015906114835750670de0b6b3a76400008111155b6113fb57600080fd5b60075460408051631e425be160e11b815290516000926001600160a01b031691633c84b7c2916004808301926020929190829003018186803b1580156114d157600080fd5b505afa1580156114e5573d6000803e3d6000fd5b505050506040513d60208110156114fb57600080fd5b50519050611512816212750063ffffffff61128316565b4210156113fb57600080fd5b8061152a858585611f6c565b101561153557600080fd5b50505050565b600081116113fb57600080fd5b80836001600160a01b03166370a08231846040518263ffffffff1660e01b815260040180826001600160a01b03166001600160a01b0316815260200191505060206040518083038186803b15801561159f57600080fd5b505afa1580156115b3573d6000803e3d6000fd5b505050506040513d60208110156115c957600080fd5b505110156115d657600080fd5b505050565b60006001600160a01b038416158061166e575060408051631da4d95d60e31b81526001600160a01b038781166004830152868116602483015291519188169163ed26cae891604480820192602092909190829003018186803b15801561164057600080fd5b505afa158015611654573d6000803e3d6000fd5b505050506040513d602081101561166a57600080fd5b5051155b806117035750600480546040805163b1eafaab60e01b81526001600160a01b0388811694820194909452888416602482015260448101879052905185939092169163b1eafaab91606480820192602092909190829003018186803b1580156116d557600080fd5b505afa1580156116e9573d6000803e3d6000fd5b505050506040513d60208110156116ff57600080fd5b5051105b1561171057506000611835565b604080516339ed25cd60e01b81526001600160a01b038781166004830152868116602483015291516000928916916339ed25cd916044808301926020929190829003018186803b15801561176357600080fd5b505afa158015611777573d6000803e3d6000fd5b505050506040513d602081101561178d57600080fd5b505190506001600160a01b03811615806118315750600480546040805163b1eafaab60e01b81526001600160a01b0385811694820194909452898416602482015260448101889052905186939092169163b1eafaab91606480820192602092909190829003018186803b15801561180357600080fd5b505afa158015611817573d6000803e3d6000fd5b505050506040513d602081101561182d57600080fd5b5051105b9150505b95945050505050565b611846612297565b6004805460408051631e7c58c160e31b81526001600160a01b038d8116948201949094528b8416602482015290516118f0938b936118eb93678ac7230489e8000093929091169163f3e2c60891604480820192602092909190829003018186803b1580156118b357600080fd5b505afa1580156118c7573d6000803e3d6000fd5b505050506040513d60208110156118dd57600080fd5b50519063ffffffff611e6b16565b611f9f565b81526118fa6122ba565b826001600160a01b031663eb7aac5f8a6040518263ffffffff1660e01b815260040180826001600160a01b03166001600160a01b0316815260200191505060206040518083038186803b15801561195057600080fd5b505afa158015611964573d6000803e3d6000fd5b505050506040513d602081101561197a57600080fd5b50516060820181905282516119a991899161199d91600a0a63ffffffff611fb516565b9063ffffffff61200e16565b826020018181525050611a3f8260000151600460009054906101000a90046001600160a01b03166001600160a01b031663f3e2c6088d8d6040518363ffffffff1660e01b815260040180836001600160a01b03166001600160a01b03168152602001826001600160a01b03166001600160a01b031681526020019250505060206040518083038186803b1580156118b357600080fd5b816000018181525050611ad58260200151600460009054906101000a90046001600160a01b03166001600160a01b031663305a53698d8d6040518363ffffffff1660e01b815260040180836001600160a01b03166001600160a01b03168152602001826001600160a01b03166001600160a01b031681526020019250505060206040518083038186803b1580156118b357600080fd5b60208201528051678ac7230489e800001415611cc5576004805460408051633ed3a18f60e21b81526001600160a01b038e8116948201949094528c841660248201529051929091169163fb4e863c9160448082019260009290919082900301818387803b158015611b4557600080fd5b505af1158015611b59573d6000803e3d6000fd5b50505050600460009054906101000a90046001600160a01b03166001600160a01b031663621117b68b8b60046040518463ffffffff1660e01b815260040180846001600160a01b03166001600160a01b03168152602001836001600160a01b03166001600160a01b031681526020018281526020019350505050600060405180830381600087803b158015611bed57600080fd5b505af1158015611c01573d6000803e3d6000fd5b50505050600460009054906101000a90046001600160a01b03166001600160a01b031663bed8854b8b8b678ac7230489e8000085602001516040518563ffffffff1660e01b815260040180856001600160a01b03166001600160a01b03168152602001846001600160a01b03166001600160a01b03168152602001838152602001828152602001945050505050600060405180830381600087803b158015611ca857600080fd5b505af1158015611cbc573d6000803e3d6000fd5b50505050611e5d565b611cdc816020015182600001518360600151612050565b6040820181905284141580611d0557506804e1003b28d9280000611d038260000151612094565b105b15611d17575060016040820152611e5f565b60048054604080840151815163bc9b5bd560e01b81526001600160a01b038f8116958201959095528d851660248201526044810191909152898416606482015288841660848201529051929091169163bc9b5bd59160a48082019260009290919082900301818387803b158015611d8d57600080fd5b505af1158015611da1573d6000803e3d6000fd5b50505050600460009054906101000a90046001600160a01b03166001600160a01b031663aad646138b8b846000015185602001516040518563ffffffff1660e01b815260040180856001600160a01b03166001600160a01b03168152602001846001600160a01b03166001600160a01b03168152602001838152602001828152602001945050505050600060405180830381600087803b158015611e4457600080fd5b505af1158015611e58573d6000803e3d6000fd5b505050505b505b98975050505050505050565b60006112dd83836040518060400160405280601e81526020017f536166654d6174683a207375627472616374696f6e206f766572666c6f7700008152506120ae565b6000611ecb8361199d86670de0b6b3a764000063ffffffff611fb516565b905081811115611535576040805162461bcd60e51b815260206004820152601d60248201527f4665652065786365656465642070726f7669646564206d6178696d756d000000604482015290519081900360640190fd5b6003546040516000916001600160a01b0316907f8be0079c531659141344cd1fd0a4f28419497f9722a3daafe3b4186f6b6457e0908390a3600380546001600160a01b0319169055565b600080611f7885611174565b90506000611f8586610347565b9050611f9382828787612145565b925050505b9392505050565b6000818310611fae57816112dd565b5090919050565b600082611fc4575060006112e0565b82820282848281611fd157fe5b04146112dd5760405162461bcd60e51b815260040180806020018281038252602181526020018061230f6021913960400191505060405180910390fd5b60006112dd83836040518060400160405280601a81526020017f536166654d6174683a206469766973696f6e206279207a65726f000000000000815250612187565b6000821561208b57600061206485846121ec565b90506120838461199d8368056bc75e2d6310000063ffffffff611fb516565b915050611f98565b50600019611f98565b60006112e082678ac7230489e8000063ffffffff611e6b16565b6000818484111561213d5760405162461bcd60e51b81526004018080602001828103825283818151815260200191508051906020019080838360005b838110156121025781810151838201526020016120ea565b50505050905090810190601f16801561212f5780820380516001836020036101000a031916815260200191505b509250505060405180910390fd5b505050900390565b6000831561217b57600061215986846121ec565b905060006121718661199d848863ffffffff611fb516565b9250610455915050565b50600019949350505050565b600081836121d65760405162461bcd60e51b81526020600482018181528351602484015283519092839260449091019190850190808383600083156121025781810151838201526020016120ea565b5060008385816121e257fe5b0495945050505050565b8160128211156122145761220d816011198401600a0a63ffffffff61200e16565b90506112e0565b60128210156112e0576112dd816012849003600a0a63ffffffff611fb516565b6040518061016001604052806000815260200160008152602001600081526020016000815260200160008152602001600081526020016000815260200160008152602001600081526020016000815260200160006001600160a01b031681525090565b604051806060016040528060008152602001600081526020016000151581525090565b604051806080016040528060008152602001600081526020016000815260200160008152509056fe526564656d7074696f6e48656c7065723a2043616c6c6572206973206e6f742054726f76654d616e61676572536166654d6174683a206d756c7469706c69636174696f6e206f766572666c6f77a264697066735822122063586c3332cdde797d780a95e9afc1fceeef8e630ae1aecdf3cdded647efaaec64736f6c634300060b0033608060405234801561001057600080fd5b50600380546001600160a01b031916339081179091556040516000907f8be0079c531659141344cd1fd0a4f28419497f9722a3daafe3b4186f6b6457e0908290a3614478806100606000396000f3fe608060405234801561001057600080fd5b50600436106101a55760003560e01c80637985c5e4116100ef578063a20baee611610092578063a20baee614610309578063a3a64017146104f0578063a3f4df7e146104f8578063ae91875414610575578063b83f91a21461057d578063cbd138ae14610585578063e213354a146105ab578063f92d3433146105f1576101a5565b80637985c5e4146103785780637da0b1fa146103f45780637f7dde4a1461043c5780638235b2841461044457806386a3e59a1461046a5780638da5cb5b146104a65780638f32d59b146104ae5780639e86d0c4146104ca576101a5565b806349b010c51161015757806349b010c5146102645780634ff81443146102a05780635c0ab4de146102bd5780635e66c921146102c557806372fe25aa14610309578063741bef1a146103115780637439902114610319578063761ab22c14610370576101a5565b80631bf43555146101aa57806327d04b35146101c45780632e86bbd8146101ea5780633cc74225146101f25780633d83908a146102165780634870dd9a1461021e57806348a4a39d14610226575b600080fd5b6101b26105f9565b60408051918252519081900360200190f35b6101b2600480360360208110156101da57600080fd5b50356001600160a01b0316610606565b6101b261071c565b6101fa610728565b604080516001600160a01b039092168252519081900360200190f35b6101fa610737565b6101b2610746565b6102626004803603608081101561023c57600080fd5b506001600160a01b0381358116916020810135916040820135811691606001351661074b565b005b6102626004803603608081101561027a57600080fd5b506001600160a01b03813581169160208101359160408201358116916060013516610770565b6101b2600480360360208110156102b657600080fd5b5035610784565b6101fa610795565b610262600480360360a08110156102db57600080fd5b506001600160a01b0381358116916020810135916040820135916060810135821691608090910135166107a4565b6101b26107be565b6101fa6107ca565b610262600480360361010081101561033057600080fd5b506001600160a01b03813581169160208101359160408201359160608101359160808201359160a081013515159160c082013581169160e00135166107d9565b6101fa610805565b610262600480360361016081101561038f57600080fd5b506001600160a01b038135811691602081013582169160408201358116916060810135821691608082013581169160a081013582169160c082013581169160e08101358216916101008201358116916101208101358216916101409091013516610814565b610262600480360360c081101561040a57600080fd5b506001600160a01b038135811691602081013591604082013591606081013591608082013581169160a0013516610c17565b6101fa6114ac565b6102626004803603602081101561045a57600080fd5b50356001600160a01b03166114bb565b6102626004803603608081101561048057600080fd5b506001600160a01b03813581169160208101359160408201358116916060013516611523565b6101fa611537565b6104b6611546565b604080519115158252519081900360200190f35b6101b2600480360360208110156104e057600080fd5b50356001600160a01b0316611557565b6101fa611627565b610500611636565b6040805160208082528351818301528351919283929083019185019080838360005b8381101561053a578181015183820152602001610522565b50505050905090810190601f1680156105675780820380516001836020036101000a031916815260200191505b509250505060405180910390f35b6101fa611664565b6101fa611673565b6102626004803603602081101561059b57600080fd5b50356001600160a01b0316611682565b610262600480360360a08110156105c157600080fd5b506001600160a01b0381358116916020810135821691604082013591606081013582169160809091013516611bf2565b6101b2611c0e565b6804e1003b28d928000081565b6000805460408051634b14fa8760e01b81526001600160a01b038581166004830152915184939290921691634b14fa8791602480820192602092909190829003018186803b15801561065757600080fd5b505afa15801561066b573d6000803e3d6000fd5b505050506040513d602081101561068157600080fd5b505160015460408051634b14fa8760e01b81526001600160a01b03878116600483015291519394506000939190921691634b14fa87916024808301926020929190829003018186803b1580156106d657600080fd5b505afa1580156106ea573d6000803e3d6000fd5b505050506040513d602081101561070057600080fd5b50519050610714828263ffffffff611c1916565b949350505050565b678ac7230489e8000081565b6001546001600160a01b031681565b6005546001600160a01b031681565b60c881565b610756338585611c7a565b61076a338585600080600088886000611df8565b50505050565b61076a338560008660008088886000611df8565b600061078f82612641565b92915050565b6004546001600160a01b031681565b6107b7338660008087600188888c611df8565b5050505050565b670de0b6b3a764000081565b6002546001600160a01b031681565b85156107ea576107ea338988611c7a565b6107fb33898888888888888f611df8565b5050505050505050565b600a546001600160a01b031681565b61081c611546565b61086d576040805162461bcd60e51b815260206004820181905260248201527f4f776e61626c653a2063616c6c6572206973206e6f7420746865206f776e6572604482015290519081900360640190fd5b6108768b61265b565b61087f8a61265b565b6108888961265b565b6108918861265b565b61089a8761265b565b6108a38661265b565b6108ac8561265b565b6108b58461265b565b6108be8361265b565b6108c78261265b565b6108d08161265b565b600480546001600160a01b03199081166001600160a01b038e81169182179093556005805483168e85161790556000805483168d85161790556001805483168c85161790556006805483168b85161790556007805483168a8516179055600880548316898516179055600280548316888516179055600c80548316878516179055600b80548316868516179055600a80548316938516938417905560098054909216909217905560408051918252517f6a69409f44477d8556c3c8040edc75d9bc1b3dee7846f6045c0b99556fe7bc91916020908290030190a1604080516001600160a01b038c16815290517f143219c9e69b09e07e095fcc889b43d8f46ca892bba65f08dc3a0050869a56789181900360200190a1604080516001600160a01b038b16815290517f78f058b189175430c48dc02699e3a0031ea4ff781536dc2fab847de4babdd8829181900360200190a1604080516001600160a01b038a16815290517f5ee0cae2f063ed938bb55046f6a932fb6ae792bf43624806bb90abe68a50be9b9181900360200190a1604080516001600160a01b038916815290517f82966d27eea39b038ee0fa30cd16532bb24f6e65d31cb58fb227aa5766cdcc7f9181900360200190a1604080516001600160a01b038816815290517fcfb07d791fcafc032b35837b50eb84b74df518cf4cc287e8084f47630fa70fa09181900360200190a1604080516001600160a01b038716815290517fe67f36a6e961157d6eff83b91f3af5a62131ceb6f04954ef74f51c1c05e7f88d9181900360200190a1604080516001600160a01b038616815290517f8c537274438aa850a330284665d81a85dd38267d09e4050d416bfc94142db2649181900360200190a1604080516001600160a01b038516815290517f65f4cf077bc01e4742eb5ad98326f6e95b63548ea24b17f8d5e823111fe788009181900360200190a1604080516001600160a01b038416815290517f227eec0ec317af6ab1a9587ffa1c84332522eb4c583a908f89babc05f8f339bd9181900360200190a1604080516001600160a01b038316815290517f756ebc192164c295bba134b5aacd72cc7aff8098a670d1f0a5f6b3a0b4ce67079181900360200190a1610c0a61270e565b5050505050505050505050565b610c2086612758565b610c2b338787611c7a565b610c33613eac565b50604080516060810182526005546001600160a01b03908116825260005481166020830152600b541691810191909152610c6b613ecc565b600480546040805163453ebeb560e11b81526001600160a01b038c81169482019490945290519290911691638a7d7d6a91602480820192602092909190829003018186803b158015610cbc57600080fd5b505afa158015610cd0573d6000803e3d6000fd5b505050506040513d6020811015610ce657600080fd5b5051815260048054604080516311e2c60b60e11b81526001600160a01b038c811694820194909452905192909116916323c58c1691602480820192602092909190829003018186803b158015610d3b57600080fd5b505afa158015610d4f573d6000803e3d6000fd5b505050506040513d6020811015610d6557600080fd5b5051602082810191909152600480546040805163eb7aac5f60e01b81526001600160a01b038d8116948201949094529051929091169263eb7aac5f92602480840193829003018186803b158015610dbb57600080fd5b505afa158015610dcf573d6000803e3d6000fd5b505050506040513d6020811015610de557600080fd5b50516040808301919091526002548151635670bcc760e11b81526001600160a01b038b811660048301529251929091169163ace1798e916024808201926020929091908290030181600087803b158015610e3e57600080fd5b505af1158015610e52573d6000803e3d6000fd5b505050506040513d6020811015610e6857600080fd5b50516060820181905281516040830151600092610e86928c92612813565b9050610e92878261282d565b8251610e9f90338b6128d9565b60a0820186905280610ee057610ebf83600001518460400151888a6129b0565b6080830181905260a0830151610eda9163ffffffff611c1916565b60a08301525b610eed8260a00151612b60565b610efa8260a00151612641565b60c08301819052610f0757fe5b610f1f888360c0015184606001518560400151612ba8565b60e083015260c08201516040830151610f39918a91612bf3565b6101008301528015610f5c57610f578260e001518360000151612c39565b610f9f565b610f6e8260e001518360200151612c78565b6000610f8d8a8a60018660c00151600188606001518960400151612cb7565b9050610f9d818460000151612d47565b505b8251604080516322894d8f60e21b81523360048201526001600160a01b038c811660248301526001604483015291519190921691638a25363c91606480830192600092919082900301818387803b158015610ff957600080fd5b505af115801561100d573d6000803e3d6000fd5b50508451604080516322cbc1b360e11b81523360048201526001600160a01b038e81166024830152604482018e905291519190921693506345978366925060648083019260209291908290030181600087803b15801561106c57600080fd5b505af1158015611080573d6000803e3d6000fd5b505050506040513d602081101561109657600080fd5b5050825160c083015160408051637f2586fb60e11b81523360048201526001600160a01b038d8116602483015260448201939093529051919092169163fe4b0df69160648083019260209291908290030181600087803b1580156110f957600080fd5b505af115801561110d573d6000803e3d6000fd5b505050506040513d602081101561112357600080fd5b505082516040805163c7a1bbdb60e01b81523360048201526001600160a01b038c811660248301529151919092169163c7a1bbdb91604480830192600092919082900301818387803b15801561117857600080fd5b505af115801561118c573d6000803e3d6000fd5b505084516040805163dbe9f91960e01b81523360048201526001600160a01b038e81166024830152915191909216935063dbe9f919925060448083019260209291908290030181600087803b1580156111e457600080fd5b505af11580156111f8573d6000803e3d6000fd5b505050506040513d602081101561120e57600080fd5b5051610120830152600c5461010083015160408051633e499e0560e11b81526001600160a01b038d8116600483015233602483015260448201939093528883166064820152878316608482015290519190921691637c933c0a9160a480830192600092919082900301818387803b15801561128857600080fd5b505af115801561129c573d6000803e3d6000fd5b5050845160408051630706bdff60e11b81523360048201526001600160a01b038e811660248301529151919092169350630e0d7bfe925060448083019260209291908290030181600087803b1580156112f457600080fd5b505af1158015611308573d6000803e3d6000fd5b505050506040513d602081101561131e57600080fd5b50516101408301819052604080516001600160a01b038c1681526020810192909252805133927fc78aeff453faf39d5a4a56acb99641aa471118956e00bdf4ca3e08ee6687fef692908290030190a26113886001600160a01b038a1633308b63ffffffff612d8616565b61139783602001518a8a612de0565b6113b1836020015184604001518b338a8760a00151612e77565b602083015160408401516007546113de9291908c906001600160a01b0316678ac7230489e8000080612e77565b336001600160a01b03166000805160206144238339815191528a8460c001518b866101200151600060405180866001600160a01b03166001600160a01b0316815260200185815260200184815260200183815260200182600281111561144057fe5b60ff1681526020019550505050505060405180910390a26080820151604080516001600160a01b038c1681526020810192909252805133927fc124a8aee2d1e87da7bdee4cd86125637943b6ab32894b8ab8f83543beabf74292908290030190a2505050505050505050565b6000546001600160a01b031681565b6008546040805163ea16003f60e01b81523360048201526001600160a01b0384811660248301529151919092169163ea16003f91604480830192600092919082900301818387803b15801561150f57600080fd5b505af11580156107b7573d6000803e3d6000fd5b61076a338560008087600088886000611df8565b6003546001600160a01b031690565b6003546001600160a01b0316331490565b6000805460408051639b56d6c960e01b81526001600160a01b038581166004830152915184939290921691639b56d6c991602480820192602092909190829003018186803b1580156115a857600080fd5b505afa1580156115bc573d6000803e3d6000fd5b505050506040513d60208110156115d257600080fd5b505160015460408051639b56d6c960e01b81526001600160a01b03878116600483015291519394506000939190921691639b56d6c9916024808301926020929190829003018186803b1580156106d657600080fd5b6009546001600160a01b031681565b60405180604001604052806012815260200171426f72726f7765724f7065726174696f6e7360701b81525081565b600c546001600160a01b031681565b600b546001600160a01b031681565b600554600054600b546001600160a01b039283169291821691166116a7833386612f6f565b600480546040805163453ebeb560e11b81526001600160a01b0388811694820194909452905160009390921691638a7d7d6a91602480820192602092909190829003018186803b1580156116fa57600080fd5b505afa15801561170e573d6000803e3d6000fd5b505050506040513d602081101561172457600080fd5b5051600480546040805163eb7aac5f60e01b81526001600160a01b038a8116948201949094529051939450600093929091169163eb7aac5f91602480820192602092909190829003018186803b15801561177d57600080fd5b505afa158015611791573d6000803e3d6000fd5b505050506040513d60208110156117a757600080fd5b505160025460408051635670bcc760e11b81526001600160a01b038a811660048301529151939450600093919092169163ace1798e91602480830192602092919082900301818787803b1580156117fd57600080fd5b505af1158015611811573d6000803e3d6000fd5b505050506040513d602081101561182757600080fd5b505190506118378782858561302f565b6040805163df4fb9ef60e01b81523360048201526001600160a01b03898116602483015291519188169163df4fb9ef9160448082019260009290919082900301818387803b15801561188857600080fd5b505af115801561189c573d6000803e3d6000fd5b50506040805163305a536960e01b81523360048201526001600160a01b038b81166024830152915160009450918a16925063305a5369916044808301926020929190829003018186803b1580156118f257600080fd5b505afa158015611906573d6000803e3d6000fd5b505050506040513d602081101561191c57600080fd5b505160408051631e7c58c160e31b81523360048201526001600160a01b038b811660248301529151929350600092918a169163f3e2c60891604480820192602092909190829003018186803b15801561197457600080fd5b505afa158015611988573d6000803e3d6000fd5b505050506040513d602081101561199e57600080fd5b505190506119c486336119bf84678ac7230489e8000063ffffffff61307716565b6130b9565b60006119d78a846000856000898b612cb7565b90506119e38187612d47565b60408051633ed3a18f60e21b81523360048201526001600160a01b038c811660248301529151918b169163fb4e863c9160448082019260009290919082900301818387803b158015611a3457600080fd5b505af1158015611a48573d6000803e3d6000fd5b5050604080516331088bdb60e11b81523360048201526001600160a01b038e81166024830152600260448301529151918d16935063621117b6925060648082019260009290919082900301818387803b158015611aa457600080fd5b505af1158015611ab8573d6000803e3d6000fd5b50505050336001600160a01b03166000805160206144238339815191528b6000806000600160405180866001600160a01b03166001600160a01b03168152602001858152602001848152602001838152602001826002811115611b1757fe5b60ff1681526020019550505050505060405180910390a2611b5288888c33611b4d87678ac7230489e8000063ffffffff61307716565b613179565b600754611b7690899089908d906001600160a01b0316678ac7230489e80000613179565b6040805163715aa61b60e01b81526001600160a01b038c81166004830152336024830152604482018690529151918a169163715aa61b9160648082019260009290919082900301818387803b158015611bce57600080fd5b505af1158015611be2573d6000803e3d6000fd5b5050505050505050505050505050565b611bfa613270565b6107b7858585600080600088886000611df8565b6611c37937e0800081565b600082820183811015611c73576040805162461bcd60e51b815260206004820152601b60248201527f536166654d6174683a206164646974696f6e206f766572666c6f770000000000604482015290519081900360640190fd5b9392505050565b80826001600160a01b03166370a08231856040518263ffffffff1660e01b815260040180826001600160a01b03166001600160a01b0316815260200191505060206040518083038186803b158015611cd157600080fd5b505afa158015611ce5573d6000803e3d6000fd5b505050506040513d6020811015611cfb57600080fd5b50511015611d3a5760405162461bcd60e51b8152600401808060200182810382526038815260200180613fa66038913960400191505060405180910390fd5b60408051636eb1769f60e11b81526001600160a01b0385811660048301523060248301529151839285169163dd62ed3e916044808301926020929190829003018186803b158015611d8a57600080fd5b505afa158015611d9e573d6000803e3d6000fd5b505050506040513d6020811015611db457600080fd5b50511015611df35760405162461bcd60e51b81526004018080602001828103825260358152602001806141f36035913960400191505060405180910390fd5b505050565b611e00613eac565b50604080516060810182526005546001600160a01b03908116825260005481166020830152600b541691810191909152611e38613f26565b600480546040805163453ebeb560e11b81526001600160a01b038e81169482019490945290519290911691638a7d7d6a91602480820192602092909190829003018186803b158015611e8957600080fd5b505afa158015611e9d573d6000803e3d6000fd5b505050506040513d6020811015611eb357600080fd5b5051815260048054604080516311e2c60b60e11b81526001600160a01b038e811694820194909452905192909116916323c58c1691602480820192602092909190829003018186803b158015611f0857600080fd5b505afa158015611f1c573d6000803e3d6000fd5b505050506040513d6020811015611f3257600080fd5b5051602082810191909152600480546040805163eb7aac5f60e01b81526001600160a01b038f8116948201949094529051929091169263eb7aac5f92602480840193829003018186803b158015611f8857600080fd5b505afa158015611f9c573d6000803e3d6000fd5b505050506040513d6020811015611fb257600080fd5b50516040808301919091526002548151635670bcc760e11b81526001600160a01b038d811660048301529251929091169163ace1798e916024808201926020929091908290030181600087803b15801561200b57600080fd5b505af115801561201f573d6000803e3d6000fd5b505050506040513d602081101561203557600080fd5b50516060820181905281516040830151600092612053928e92612813565b9050861561206e57612065848261282d565b61206e886132bb565b6120788a8a6132fa565b6120838a8a8a613340565b8251612090908d8d612f6f565b336001600160a01b038d1614806120c657506006546001600160a01b0316331480156120bc575060008a115b80156120c6575087155b6120cc57fe5b82516040805163df4fb9ef60e01b81526001600160a01b038f811660048301528e811660248301529151919092169163df4fb9ef91604480830192600092919082900301818387803b15801561212157600080fd5b505af1158015612135573d6000803e3d6000fd5b505050506121438a8a613392565b151560c0840152608083015260a08201889052868015612161575080155b1561219c5761217a836000015184604001518a876129b0565b610180830181905260a08301516121969163ffffffff611c1916565b60a08301525b825160408051631e7c58c160e31b81526001600160a01b038f811660048301528e811660248301529151919092169163f3e2c608916044808301926020929190829003018186803b1580156121f057600080fd5b505afa158015612204573d6000803e3d6000fd5b505050506040513d602081101561221a57600080fd5b505160e083015282516040805163305a536960e01b81526001600160a01b038f811660048301528e811660248301529151919092169163305a5369916044808301926020929190829003018186803b15801561227557600080fd5b505afa158015612289573d6000803e3d6000fd5b505050506040513d602081101561229f57600080fd5b5051610100830181905260e0830151606084015160408501516122c493929190612ba8565b826101200181815250506122fb8261010001518360e0015184608001518560c001518660a001518c886060015189604001516133b1565b61014083015261010082015189111561231057fe5b61231d818c8b8a866133e6565b8615801561232b5750600088115b1561237e576123596123548360a001516123488560e00151613471565b9063ffffffff61307716565b612b60565b61236b8260e001518360a0015161348b565b61237e83604001518d8460a001516130b9565b61239d83600001518d8d85608001518660c001518760a001518d6134e1565b6101a08401526101c083015282516040805163dbe9f91960e01b81526001600160a01b038f811660048301528e811660248301529151919092169163dbe9f9199160448083019260209291908290030181600087803b1580156123ff57600080fd5b505af1158015612413573d6000803e3d6000fd5b505050506040513d602081101561242957600080fd5b50516101e083015261010082015160e0830151608084015160c085015160a086015160408701516000956124669590949093909290918e9061372d565b9050600c60009054906101000a90046001600160a01b03166001600160a01b031663bc9b5bd58e8e848b8b6040518663ffffffff1660e01b815260040180866001600160a01b03166001600160a01b03168152602001856001600160a01b03166001600160a01b03168152602001848152602001836001600160a01b03166001600160a01b03168152602001826001600160a01b03166001600160a01b0316815260200195505050505050600060405180830381600087803b15801561252b57600080fd5b505af115801561253f573d6000803e3d6000fd5b505050508c6001600160a01b03166000805160206144238339815191528d856101a00151866101c00151876101e00151600260405180866001600160a01b03166001600160a01b031681526020018581526020018481526020018381526020018260028111156125ab57fe5b60ff1681526020019550505050505060405180910390a2610180830151604080516001600160a01b038f1681526020810192909252805133927fc124a8aee2d1e87da7bdee4cd86125637943b6ab32894b8ab8f83543beabf74292908290030190a261263284602001518560400151338f87608001518860c001518f8f8b60a00151613751565b50505050505050505050505050565b600061078f82678ac7230489e8000063ffffffff611c1916565b6001600160a01b0381166126b6576040805162461bcd60e51b815260206004820152601e60248201527f4163636f756e742063616e6e6f74206265207a65726f20616464726573730000604482015290519081900360640190fd5b803b8061270a576040805162461bcd60e51b815260206004820181905260248201527f4163636f756e7420636f64652073697a652063616e6e6f74206265207a65726f604482015290519081900360640190fd5b5050565b6003546040516000916001600160a01b0316907f8be0079c531659141344cd1fd0a4f28419497f9722a3daafe3b4186f6b6457e0908390a3600380546001600160a01b0319169055565b6004805460408051630658339960e51b81526001600160a01b03858116948201949094529051929091169163cb06732091602480820192602092909190829003018186803b1580156127a957600080fd5b505afa1580156127bd573d6000803e3d6000fd5b505050506040513d60208110156127d357600080fd5b50516128105760405162461bcd60e51b815260040180806020018281038252602781526020018061418e6027913960400191505060405180910390fd5b50565b600080612821868685613816565b90931195945050505050565b801561287f57670de0b6b3a764000082111561287a5760405162461bcd60e51b815260040180806020018281038252603281526020018061407e6032913960400191505060405180910390fd5b61270a565b6611c37937e08000821080159061289e5750670de0b6b3a76400008211155b61270a5760405162461bcd60e51b815260040180806020018281038252603081526020018061437e6030913960400191505060405180910390fd5b6040805163614d120960e01b81526001600160a01b0384811660048301528381166024830152915160009286169163614d1209916044808301926020929190829003018186803b15801561292c57600080fd5b505afa158015612940573d6000803e3d6000fd5b505050506040513d602081101561295657600080fd5b50519050600181141561076a576040805162461bcd60e51b815260206004820152601c60248201527f426f72726f7765724f70733a2054726f76652069732061637469766500000000604482015290519081900360640190fd5b6000846001600160a01b0316635dba4c4a6040518163ffffffff1660e01b8152600401600060405180830381600087803b1580156129ed57600080fd5b505af1158015612a01573d6000803e3d6000fd5b505050506000856001600160a01b031663631203b0856040518263ffffffff1660e01b81526004018082815260200191505060206040518083038186803b158015612a4b57600080fd5b505afa158015612a5f573d6000803e3d6000fd5b505050506040513d6020811015612a7557600080fd5b50519050612a84818585613847565b60095460408051634677ffb360e01b81526004810184905290516001600160a01b0390921691634677ffb39160248082019260009290919082900301818387803b158015612ad157600080fd5b505af1158015612ae5573d6000803e3d6000fd5b5050600a54604080516340c10f1960e01b81526001600160a01b03928316600482015260248101869052905191891693506340c10f19925060448082019260009290919082900301818387803b158015612b3e57600080fd5b505af1158015612b52573d6000803e3d6000fd5b509298975050505050505050565b6804e1003b28d92800008110156128105760405162461bcd60e51b815260040180806020018281038252603a8152602001806142ae603a913960400191505060405180910390fd5b60008315612bea576000612bbc86846138bc565b90506000612be086612bd4848863ffffffff61390416565b9063ffffffff61395d16565b9250610714915050565b50600019610714565b60008215612c2e576000612c0785846138bc565b9050612c2684612bd48368056bc75e2d6310000063ffffffff61390416565b915050611c73565b506000199392505050565b8082101561270a5760405162461bcd60e51b81526004018080602001828103825260378152602001806140476037913960400191505060405180910390fd5b8082101561270a5760405162461bcd60e51b81526004018080602001828103825260498152602001806142656049913960600191505060405180910390fd5b600080612cc389611557565b90506000612cd08a610606565b905087612cec57612ce7828a63ffffffff61307716565b612cfc565b612cfc828a63ffffffff611c1916565b915085612d1857612d13818863ffffffff61307716565b612d28565b612d28818863ffffffff611c1916565b90506000612d3883838888612ba8565b9b9a5050505050505050505050565b8082101561270a5760405162461bcd60e51b81526004018080602001828103825260498152602001806141176049913960600191505060405180910390fd5b604080516001600160a01b0380861660248301528416604482015260648082018490528251808303909101815260849091019091526020810180516001600160e01b03166323b872dd60e01b17905261076a90859061399f565b612dfa6001600160a01b038316848363ffffffff613a5016565b826001600160a01b031663eb13cd1083836040518363ffffffff1660e01b815260040180836001600160a01b03166001600160a01b0316815260200182815260200192505050600060405180830381600087803b158015612e5a57600080fd5b505af1158015612e6e573d6000803e3d6000fd5b50505050505050565b856001600160a01b0316635fc7b5e885836040518363ffffffff1660e01b815260040180836001600160a01b03166001600160a01b0316815260200182815260200192505050600060405180830381600087803b158015612ed757600080fd5b505af1158015612eeb573d6000803e3d6000fd5b50505050846001600160a01b03166340c10f1984846040518363ffffffff1660e01b815260040180836001600160a01b03166001600160a01b0316815260200182815260200192505050600060405180830381600087803b158015612f4f57600080fd5b505af1158015612f63573d6000803e3d6000fd5b50505050505050505050565b6040805163614d120960e01b81526001600160a01b0384811660048301528381166024830152915160009286169163614d1209916044808301926020929190829003018186803b158015612fc257600080fd5b505afa158015612fd6573d6000803e3d6000fd5b505050506040513d6020811015612fec57600080fd5b505190506001811461076a5760405162461bcd60e51b815260040180806020018281038252602e815260200180614160602e913960400191505060405180910390fd5b61303b84848484612813565b1561076a5760405162461bcd60e51b815260040180806020018281038252603981526020018061400e6039913960400191505060405180910390fd5b6000611c7383836040518060400160405280601e81526020017f536166654d6174683a207375627472616374696f6e206f766572666c6f770000815250613b36565b80836001600160a01b03166370a08231846040518263ffffffff1660e01b815260040180826001600160a01b03166001600160a01b0316815260200191505060206040518083038186803b15801561311057600080fd5b505afa158015613124573d6000803e3d6000fd5b505050506040513d602081101561313a57600080fd5b50511015611df35760405162461bcd60e51b815260040180806020018281038252603d815260200180614228603d913960400191505060405180910390fd5b846001600160a01b0316633aacc81584836040518363ffffffff1660e01b815260040180836001600160a01b03166001600160a01b0316815260200182815260200192505050600060405180830381600087803b1580156131d957600080fd5b505af11580156131ed573d6000803e3d6000fd5b50505050836001600160a01b0316639dc29fac83836040518363ffffffff1660e01b815260040180836001600160a01b03166001600160a01b0316815260200182815260200192505050600060405180830381600087803b15801561325157600080fd5b505af1158015613265573d6000803e3d6000fd5b505050505050505050565b6006546001600160a01b031633146132b95760405162461bcd60e51b815260040180806020018281038252602981526020018061432b6029913960400191505060405180910390fd5b565b600081116128105760405162461bcd60e51b81526004018080602001828103825260378152602001806143ae6037913960400191505060405180910390fd5b811580613305575080155b61270a5760405162461bcd60e51b8152600401808060200182810382526030815260200180613fde6030913960400191505060405180910390fd5b8215158061334d57508115155b8061335757508015155b611df35760405162461bcd60e51b81526004018080602001828103825260468152602001806140b06046913960600191505060405180910390fd5b60008083156133a6575082905060016133aa565b8291505b9250929050565b60008060006133c48b8b8b8b8b8b613bcd565b9150915060006133d683838888612ba8565b9c9b505050505050505050505050565b8415613427576133f583613c39565b81156134225761340e8161014001518260000151612c39565b613422816101400151826101200151613c76565b6107b7565b61343a8161014001518260200151612c78565b61345d8482608001518360c001518460a001518686606001518760400151612cb7565b610160820181905281516107b79190612d47565b600061078f82678ac7230489e8000063ffffffff61307716565b6134a382678ac7230489e8000063ffffffff61307716565b81111561270a5760405162461bcd60e51b81526004018080602001828103825260438152602001806142e86043913960600191505060405180910390fd5b6000806000856135765760408051622fae7760e81b81526001600160a01b038b811660048301528a81166024830152604482018a90529151918c1691632fae7700916064808201926020929091908290030181600087803b15801561354557600080fd5b505af1158015613559573d6000803e3d6000fd5b505050506040513d602081101561356f57600080fd5b50516135fe565b604080516322cbc1b360e11b81526001600160a01b038b811660048301528a81166024830152604482018a90529151918c16916345978366916064808201926020929091908290030181600087803b1580156135d157600080fd5b505af11580156135e5573d6000803e3d6000fd5b505050506040513d60208110156135fb57600080fd5b50515b90506000846136935760408051634231d8b560e11b81526001600160a01b038c811660048301528b81166024830152604482018990529151918d1691638463b16a916064808201926020929091908290030181600087803b15801561366257600080fd5b505af1158015613676573d6000803e3d6000fd5b505050506040513d602081101561368c57600080fd5b505161371b565b60408051637f2586fb60e11b81526001600160a01b038c811660048301528b81166024830152604482018990529151918d169163fe4b0df6916064808201926020929091908290030181600087803b1580156136ee57600080fd5b505af1158015613702573d6000803e3d6000fd5b505050506040513d602081101561371857600080fd5b50515b919b919a509098505050505050505050565b60008060006137408a8a8a8a8a8a613bcd565b915091506000612d38838387612bf3565b811561376a576137658989888a8786612e77565b613777565b6137778989888a87613179565b83156137a8576137986001600160a01b03871633308863ffffffff612d8616565b6137a3898787612de0565b613265565b6040805163715aa61b60e01b81526001600160a01b0388811660048301528981166024830152604482018890529151918b169163715aa61b9160648082019260009290919082900301818387803b15801561380257600080fd5b505af1158015612632573d6000803e3d6000fd5b60008061382285611557565b9050600061382f86610606565b905061383d82828787612ba8565b9695505050505050565b600061386583612bd486670de0b6b3a764000063ffffffff61390416565b90508181111561076a576040805162461bcd60e51b815260206004820152601d60248201527f4665652065786365656465642070726f7669646564206d6178696d756d000000604482015290519081900360640190fd5b8160128211156138e4576138dd816011198401600a0a63ffffffff61395d16565b905061078f565b601282101561078f57611c73816012849003600a0a63ffffffff61390416565b6000826139135750600061078f565b8282028284828161392057fe5b0414611c735760405162461bcd60e51b81526004018080602001828103825260218152602001806140f66021913960400191505060405180910390fd5b6000611c7383836040518060400160405280601a81526020017f536166654d6174683a206469766973696f6e206279207a65726f000000000000815250613cb5565b60606139f4826040518060400160405280602081526020017f5361666545524332303a206c6f772d6c6576656c2063616c6c206661696c6564815250856001600160a01b0316613d1a9092919063ffffffff16565b805190915015611df357808060200190516020811015613a1357600080fd5b5051611df35760405162461bcd60e51b815260040180806020018281038252602a815260200180614354602a913960400191505060405180910390fd5b60408051636eb1769f60e11b81523060048201526001600160a01b0384811660248301529151600092613ae19285929188169163dd62ed3e91604480820192602092909190829003018186803b158015613aa957600080fd5b505afa158015613abd573d6000803e3d6000fd5b505050506040513d6020811015613ad357600080fd5b50519063ffffffff611c1916565b604080516001600160a01b038616602482015260448082018490528251808303909101815260649091019091526020810180516001600160e01b031663095ea7b360e01b17905290915061076a90859061399f565b60008184841115613bc55760405162461bcd60e51b81526004018080602001828103825283818151815260200191508051906020019080838360005b83811015613b8a578181015183820152602001613b72565b50505050905090810190601f168015613bb75780820380516001836020036101000a031916815260200191505b509250505060405180910390fd5b505050900390565b600080878786613bec57613be78a8963ffffffff61307716565b613bfc565b613bfc8a8963ffffffff611c1916565b915084613c1857613c13898763ffffffff61307716565b613c28565b613c28898763ffffffff611c1916565b919a91995090975050505050505050565b80156128105760405162461bcd60e51b815260040180806020018281038252603e8152602001806141b5603e913960400191505060405180910390fd5b8082101561270a5760405162461bcd60e51b815260040180806020018281038252603e8152602001806143e5603e913960400191505060405180910390fd5b60008183613d045760405162461bcd60e51b8152602060048201818152835160248401528351909283926044909101919085019080838360008315613b8a578181015183820152602001613b72565b506000838581613d1057fe5b0495945050505050565b6060610714848460008585613d2e85613e40565b613d7f576040805162461bcd60e51b815260206004820152601d60248201527f416464726573733a2063616c6c20746f206e6f6e2d636f6e7472616374000000604482015290519081900360640190fd5b60006060866001600160a01b031685876040518082805190602001908083835b60208310613dbe5780518252601f199092019160209182019101613d9f565b6001836020036101000a03801982511681845116808217855250505050505090500191505060006040518083038185875af1925050503d8060008114613e20576040519150601f19603f3d011682016040523d82523d6000602084013e613e25565b606091505b5091509150613e35828286613e46565b979650505050505050565b3b151590565b60608315613e55575081611c73565b825115613e655782518084602001fd5b60405162461bcd60e51b8152602060048201818152845160248401528451859391928392604401919085019080838360008315613b8a578181015183820152602001613b72565b604080516060810182526000808252602082018190529181019190915290565b60405180610160016040528060008152602001600081526020016000815260200160008152602001600081526020016000815260200160008152602001600081526020016000815260200160008152602001600081525090565b604051806102000160405280600081526020016000815260200160008152602001600081526020016000815260200160008152602001600015158152602001600081526020016000815260200160008152602001600081526020016000815260200160008152602001600081526020016000815260200160008152509056fe426f72726f7765724f7065726174696f6e733a20496e73756666696369656e74207573657220636f6c6c61746572616c2062616c616e6365426f72726f7765724f7065726174696f6e733a2043616e6e6f7420776974686472617720616e642061646420636f6c6c426f72726f7765724f70733a204f7065726174696f6e206e6f74207065726d697474656420647572696e67205265636f76657279204d6f6465426f72726f7765724f70733a204f7065726174696f6e206d757374206c656176652074726f7665207769746820494352203e3d204343524d6178206665652070657263656e74616765206d757374206c657373207468616e206f7220657175616c20746f2031303025426f72726f7765724f70733a205468657265206d75737420626520656974686572206120636f6c6c61746572616c206368616e6765206f7220612064656274206368616e6765536166654d6174683a206d756c7469706c69636174696f6e206f766572666c6f77426f72726f7765724f70733a20416e206f7065726174696f6e207468617420776f756c6420726573756c7420696e20544352203c20434352206973206e6f74207065726d6974746564426f72726f7765724f70733a2054726f766520646f6573206e6f74206578697374206f7220697320636c6f736564426f72726f7765724f70733a20496e76616c696420636f6c6c61746572616c2061646472657373426f72726f7765724f70733a20436f6c6c61746572616c207769746864726177616c206e6f74207065726d6974746564205265636f76657279204d6f6465426f72726f7765724f7065726174696f6e733a20496e73756666696369656e7420636f6c6c61746572616c20616c6c6f77616e6365426f72726f7765724f70733a2043616c6c657220646f65736e74206861766520656e6f756768204c55534420746f206d616b652072657061796d656e74426f72726f7765724f70733a20416e206f7065726174696f6e207468617420776f756c6420726573756c7420696e20494352203c204d4352206973206e6f74207065726d6974746564426f72726f7765724f70733a2054726f76652773206e65742064656274206d7573742062652067726561746572207468616e206d696e696d756d426f72726f7765724f70733a20416d6f756e7420726570616964206d757374206e6f74206265206c6172676572207468616e207468652054726f766527732064656274426f72726f7765724f70733a2043616c6c6572206973206e6f742053746162696c69747920506f6f6c5361666545524332303a204552433230206f7065726174696f6e20646964206e6f7420737563636565644d6178206665652070657263656e74616765206d757374206265206265747765656e20302e352520616e642031303025426f72726f7765724f70733a204465627420696e637265617365207265717569726573206e6f6e2d7a65726f20646562744368616e6765426f72726f7765724f70733a2043616e6e6f7420646563726561736520796f75722054726f766527732049435220696e205265636f76657279204d6f6465100d2512a463b515ea8d03a69afbcc791f1bd9139132e820631bec236f524ec1a2646970667358221220fefea255f1b4926941b59e22357cd8b560d3864c292faa01b535784200f1844164736f6c634300060b003360806040526000805460ff60a01b191690556064600f556107d0601055610fa0601181905560125534801561003357600080fd5b50600080546001600160a01b0319163390811782556040519091907f8be0079c531659141344cd1fd0a4f28419497f9722a3daafe3b4186f6b6457e0908290a3612839806100826000396000f3fe608060405234801561001057600080fd5b50600436106101b05760003560e01c8063761ab22c116100ef578063a3f4df7e11610092578063a3f4df7e14610467578063aac1846f146104e4578063b7f8cf9b146104ec578063c0835ed8146104f4578063c5f956af1461051a578063c707f62514610522578063eb13cd10146105dc578063fc08a27814610608576101b0565b8063761ab22c146103b35780638c943115146103bb5780638da5cb5b146103c35780638f32d59b146103cb5780638fca46f4146103e75780639b56d6c9146104135780639e6ed128146104395780639f7d52571461045f576101b0565b806346a804411161015757806346a80441146102915780634b14fa87146102ba5780635a4d28bb146102e05780635fc7b5e8146102e8578063622c07071461031457806362782a2f1461033a5780636dc85da814610360578063715aa61b1461037d576101b0565b8063015933de146101b55780630b622ab2146101cf5780632a9043ec146101f35780632bc75d35146101fb578063315851611461022957806336c855df146102555780633aacc8151461025d5780633de2e09814610289575b600080fd5b6101bd610610565b60408051918252519081900360200190f35b6101d7610616565b604080516001600160a01b039092168252519081900360200190f35b6101d7610625565b6102276004803603604081101561021157600080fd5b506001600160a01b038135169060200135610634565b005b6102276004803603604081101561023f57600080fd5b506001600160a01b0381351690602001356106dd565b6101d761073b565b6102276004803603604081101561027357600080fd5b506001600160a01b03813516906020013561074a565b6101bd6107df565b610227600480360360608110156102a757600080fd5b50803590602081013590604001356107e5565b6101bd600480360360208110156102d057600080fd5b50356001600160a01b03166108da565b6101d7610901565b610227600480360360408110156102fe57600080fd5b506001600160a01b038135169060200135610910565b6101d76004803603602081101561032a57600080fd5b50356001600160a01b031661094a565b6101bd6004803603602081101561035057600080fd5b50356001600160a01b0316610965565b6102276004803603602081101561037657600080fd5b5035610977565b6102276004803603606081101561039357600080fd5b506001600160a01b03813581169160208101359091169060400135610a3a565b6101d7610c71565b6101bd610c80565b6101d7610c86565b6103d3610c95565b604080519115158252519081900360200190f35b610227600480360360408110156103fd57600080fd5b506001600160a01b038135169060200135610ca6565b6101bd6004803603602081101561042957600080fd5b50356001600160a01b0316610d9a565b6101bd6004803603602081101561044f57600080fd5b50356001600160a01b0316610dc1565b6101bd610dd3565b61046f610dd9565b6040805160208082528351818301528351919283929083019185019080838360005b838110156104a9578181015183820152602001610491565b50505050905090810190601f1680156104d65780820380516001836020036101000a031916815260200191505b509250505060405180910390f35b6101d7610dff565b6101d7610e0e565b6101bd6004803603602081101561050a57600080fd5b50356001600160a01b0316610e1d565b6101d7610e2f565b610227600480360361012081101561053957600080fd5b6001600160a01b038235811692602081013582169260408201358316926060830135811692608081013582169260a082013583169260c083013581169260e0810135909116918101906101208101610100820135600160201b81111561059e57600080fd5b8201836020820111156105b057600080fd5b803590602001918460208302840111600160201b831117156105d157600080fd5b509092509050610e3e565b610227600480360360408110156105f257600080fd5b506001600160a01b038135169060200135611407565b6103d36114be565b60105481565b6004546001600160a01b031681565b6006546001600160a01b031681565b61063c610c95565b61067b576040805162461bcd60e51b81526020600482018190526024820152600080516020612796833981519152604482015290519081900360640190fd5b610684826114ce565b6001600160a01b0382166000818152600e60209081526040918290208490558151928352820183905280517f24a014d0281283d717dc5b79bbcc192595a3c2d44607b8a2b919946d38011c4d9281900390910190a15050565b6106e5610c95565b610724576040805162461bcd60e51b81526020600482018190526024820152600080516020612796833981519152604482015290519081900360640190fd5b61072d826114ce565b610737828261159b565b5050565b6001546001600160a01b031681565b610753826114ce565b61075b611d37565b6001600160a01b0382166000908152600a6020526040902054610784908263ffffffff611e3116565b6001600160a01b0383166000818152600a6020908152604091829020849055815192835282019290925281517fc302289861a161b94f85213e562f9203e1a260db17e251062f09d18d2e33bbd9929181900390910190a15050565b60115481565b6107ed610c95565b61082c576040805162461bcd60e51b81526020600482018190526024820152600080516020612796833981519152604482015290519081900360640190fd5b808284010161271014610886576040805162461bcd60e51b815260206004820152601f60248201527f53706c697473206d7573742061646420757020746f2031303030302042505300604482015290519081900360640190fd5b601083905560118290556012819055604080518481526020810184905280820183905290517feea977fcccce470b4253ee1d11ad740fd2d7fb6f7b0d11bc1d4e95420391ba9c9181900360600190a1505050565b60006108e5826114ce565b506001600160a01b03166000908152600a602052604090205490565b6003546001600160a01b031681565b610919826114ce565b610921611e7c565b6001600160a01b0382166000908152600a6020526040902054610784908263ffffffff611edc16565b600d602052600090815260409020546001600160a01b031681565b600c6020526000908152604090205481565b61097f610c95565b6109be576040805162461bcd60e51b81526020600482018190526024820152600080516020612796833981519152604482015290519081900360640190fd5b6101f48111156109ff5760405162461bcd60e51b81526004018080602001828103825260248152602001806127e06024913960400191505060405180910390fd5b600f8190556040805182815290517f5fbcff1e8cc75f2709306df7afa256d08e0fa54056bf30c960d04027aa4184cd9181900360200190a150565b610a43836114ce565b610a4b611d37565b610a55838261159b565b6001600160a01b038316600090815260096020526040902054610a7e908263ffffffff611e3116565b6001600160a01b038416600081815260096020908152604091829020849055815192835282019290925281517f1425c832aad46d3d2e1f005ff3fc09c5576e2105c0649b973375224e6fec1704929181900390910190a1604080516001600160a01b0380861682528416602082015280820183905290517fe664153eb516123e000bb334869ec912418f6fe4c1abb53fe2f848c947a8405d9181900360600190a16005546001600160a01b0383811691161415610bc757600554610b55906001600160a01b0385811691168363ffffffff611f3616565b600554604080516374448ef960e01b81526001600160a01b03868116600483015260248201859052915191909216916374448ef991604480830192600092919082900301818387803b158015610baa57600080fd5b505af1158015610bbe573d6000803e3d6000fd5b50505050610c6c565b6006546001600160a01b0383811691161415610c5257600654610bfd906001600160a01b0385811691168363ffffffff611f3616565b600654604080516374448ef960e01b81526001600160a01b03868116600483015260248201859052915191909216916374448ef991604480830192600092919082900301818387803b158015610baa57600080fd5b610c6c6001600160a01b038416838363ffffffff611fea16565b505050565b6008546001600160a01b031681565b600f5481565b6000546001600160a01b031690565b6000546001600160a01b0316331490565b610cae610c95565b610ced576040805162461bcd60e51b81526020600482018190526024820152600080516020612796833981519152604482015290519081900360640190fd5b610cf6826114ce565b612710811115610d41576040805162461bcd60e51b8152602060048201526011602482015270496e76616c6964204250532076616c756560781b604482015290519081900360640190fd5b6001600160a01b0382166000818152600b60209081526040918290208490558151928352820183905280517ffeec3b80df49ed96aaf58c164a6c183a9cc1b48d44e43bfe0162b01e428371689281900390910190a15050565b6000610da5826114ce565b506001600160a01b031660009081526009602052604090205490565b600e6020526000908152604090205481565b60125481565b6040518060400160405280600a8152602001691058dd1a5d99541bdbdb60b21b81525081565b6005546001600160a01b031681565b6002546001600160a01b031681565b600b6020526000908152604090205481565b6007546001600160a01b031681565b610e46610c95565b610e85576040805162461bcd60e51b81526020600482018190526024820152600080516020612796833981519152604482015290519081900360640190fd5b600054600160a01b900460ff1615610ee4576040805162461bcd60e51b815260206004820152601f60248201527f43616e2063616c6c20736574416464726573736573206f6e6c79206f6e636500604482015290519081900360640190fd5b610eed8a61203c565b610ef68961203c565b610eff8861203c565b610f088761203c565b610f118661203c565b610f1a8561203c565b6001600160a01b038416610f75576040805162461bcd60e51b815260206004820152601c60248201527f54726561737572792063616e6e6f742062652030206164647265737300000000604482015290519081900360640190fd5b610f7e8361203c565b600180546001600160a01b03199081166001600160a01b038d811691909117928390556002805483168d83161790556003805483168c83161790556004805483168b83161781556005805484168b84161790556006805484168a841617905560078054841689841617905560088054909316878316179092556040805163b2604ecf60e01b815290516060949092169263b2604ecf928282019260009290829003018186803b15801561103057600080fd5b505afa158015611044573d6000803e3d6000fd5b505050506040513d6000823e601f3d908101601f19168201604052602081101561106d57600080fd5b8101908080516040519392919084600160201b82111561108c57600080fd5b9083019060208201858111156110a157600080fd5b82518660208202830111600160201b821117156110bd57600080fd5b82525081516020918201928201910280838360005b838110156110ea5781810151838201526020016110d2565b505050509190910160405250508251929350505082811461113c5760405162461bcd60e51b81526004018080602001828103825260348152602001806126976034913960400191505060405180910390fd5b60005b8181101561127d57600083828151811061115557fe5b60200260200101519050600086868481811061116d57fe5b905060200201356001600160a01b03169050816001600160a01b0316816001600160a01b03166338d52e0f6040518163ffffffff1660e01b815260040160206040518083038186803b1580156111c257600080fd5b505afa1580156111d6573d6000803e3d6000fd5b505050506040513d60208110156111ec57600080fd5b50516001600160a01b031614611249576040805162461bcd60e51b815260206004820152601e60248201527f5661756c74206173736574206d75737420626520636f6c6c61746572616c0000604482015290519081900360640190fd5b6001600160a01b039182166000908152600d6020526040902080546001600160a01b0319169190921617905560010161113f565b50604080516001600160a01b038e16815290517f6a69409f44477d8556c3c8040edc75d9bc1b3dee7846f6045c0b99556fe7bc919181900360200190a1604080516001600160a01b038d16815290517f3ca631ffcd2a9b5d9ae18543fc82f58eb4ca33af9e6ab01b7a8e95331e6ed9859181900360200190a1604080516001600160a01b038c16815290517f143219c9e69b09e07e095fcc889b43d8f46ca892bba65f08dc3a0050869a56789181900360200190a1604080516001600160a01b038b16815290517f82966d27eea39b038ee0fa30cd16532bb24f6e65d31cb58fb227aa5766cdcc7f9181900360200190a1604080516001600160a01b038a16815290517f5ee0cae2f063ed938bb55046f6a932fb6ae792bf43624806bb90abe68a50be9b9181900360200190a1604080516001600160a01b038916815290517fe67f36a6e961157d6eff83b91f3af5a62131ceb6f04954ef74f51c1c05e7f88d9181900360200190a150506000805460ff60a01b1916600160a01b17905550505050505050505050565b611410826114ce565b6114186120eb565b6001600160a01b038216600090815260096020526040902054611441908263ffffffff611edc16565b6001600160a01b038316600081815260096020908152604091829020849055815192835282019290925281517f1425c832aad46d3d2e1f005ff3fc09c5576e2105c0649b973375224e6fec1704929181900390910190a16114b36001600160a01b03831633308463ffffffff61214916565b61073782600061159b565b600054600160a01b900460ff1681565b60015460408051630658339960e51b81526001600160a01b0384811660048301529151919092169163cb067320916024808301926020929190829003018186803b15801561151b57600080fd5b505afa15801561152f573d6000803e3d6000fd5b505050506040513d602081101561154557600080fd5b5051611598576040805162461bcd60e51b815260206004820152601a60248201527f496e76616c696420636f6c6c61746572616c2061646472657373000000000000604482015290519081900360640190fd5b50565b6115a36125cf565b6001600160a01b038084166000818152600c60209081526040808320548652928252600d8152908290205490921683830181905281516370a0823160e01b8152306004820152915190926370a082319260248082019391829003018186803b15801561160e57600080fd5b505afa158015611622573d6000803e3d6000fd5b505050506040513d602081101561163857600080fd5b5051604080830182905260208381015182516303d1689d60e11b8152600481019490945291516001600160a01b03909216926307a2d13a9260248083019392829003018186803b15801561168b57600080fd5b505afa15801561169f573d6000803e3d6000fd5b505050506040513d60208110156116b557600080fd5b50516060820181905281516116d0919063ffffffff611e3116565b608082019081526001600160a01b0384166000908152600e60205260409020549051101561170057600060808201525b6001600160a01b038316600090815260096020526040902054611729908363ffffffff611e3116565b60a08201819052156117645760a0810151815161175f91906117539061271063ffffffff6121a316565b9063ffffffff6121fc16565b611768565b6000195b60c08201526001600160a01b0383166000908152600b602052604090205460e0820181905260a08201516117a991612710916117539163ffffffff6121a316565b6101608201526001600160a01b0383166000908152600c602052604090205461014082015260e081015160c08201511180156117fe5750600f5460e082015160c08301516117fc9163ffffffff611e3116565b115b1561185d57610160810151815161181a9163ffffffff611e3116565b61012082018190526101408201516118379163ffffffff611e3116565b61014082018190526001600160a01b0384166000908152600c60205260409020556118e8565b8060e001518160c0015110801561188d5750600f5460c082015160e083015161188b9163ffffffff611e3116565b115b156118e85780516101608201516118a99163ffffffff611e3116565b61010082018190526101408201516118c69163ffffffff611edc16565b61014082018190526001600160a01b0384166000908152600c60205260409020555b608081015161012082015161010083015103036101808201819052600012156119d6576001600160a01b038084166000818152600d602052604090205461018084015161193f93919091169063ffffffff611f3616565b6001600160a01b038084166000908152600d60209081526040808320546101808601518251636e553f6560e01b815260048101919091523060248201529151941693636e553f6593604480840194938390030190829087803b1580156119a457600080fd5b505af11580156119b8573d6000803e3d6000fd5b505050506040513d60208110156119ce57600080fd5b50611a7d9050565b60008161018001511215611a7d576001600160a01b038084166000908152600d60209081526040808320546101808601518251632d182be560e21b8152908503600482015230602482018190526044820152915194169363b460af9493606480840194938390030190829087803b158015611a5057600080fd5b505af1158015611a64573d6000803e3d6000fd5b505050506040513d6020811015611a7a57600080fd5b50505b608081015115610c6c576001600160a01b0383166000818152600960209081526040918290205461014085015183516370a0823160e01b81523060048201529351611b2f959294611b23949293926370a0823192602480840193829003018186803b158015611aeb57600080fd5b505afa158015611aff573d6000803e3d6000fd5b505050506040513d6020811015611b1557600080fd5b50519063ffffffff611edc16565b9063ffffffff611e3116565b6080820181905215610c6c57611b5a61271061175360105484608001516121a390919063ffffffff16565b6101a0820181905215611b8e576007546101a0820151611b8e916001600160a01b038681169291169063ffffffff611fea16565b611bad61271061175360125484608001516121a390919063ffffffff16565b6101c0820181905215611c56576008546101c0820151611be1916001600160a01b038681169291169063ffffffff611fea16565b6008546101c0820151604080516335989d2f60e21b81526001600160a01b03878116600483015260248201939093529051919092169163d66274bc91604480830192600092919082900301818387803b158015611c3d57600080fd5b505af1158015611c51573d6000803e3d6000fd5b505050505b611c87611c76826101c00151836101a00151611edc90919063ffffffff16565b60808301519063ffffffff611e3116565b6101e0820181905215610c6c576004546101e0820151611cbb916001600160a01b038681169291169063ffffffff611fea16565b600480546101e0830151604080516309dc14af60e31b81526001600160a01b03888116958201959095526024810192909252519290911691634ee0a5789160448082019260009290919082900301818387803b158015611d1a57600080fd5b505af1158015611d2e573d6000803e3d6000fd5b50505050505050565b6003546040805163aff5917f60e01b815290516000926001600160a01b03169163aff5917f916004808301926020929190829003018186803b158015611d7c57600080fd5b505afa158015611d90573d6000803e3d6000fd5b505050506040513d6020811015611da657600080fd5b50516002549091506001600160a01b0316331480611dce57506003546001600160a01b031633145b80611de15750336001600160a01b038216145b80611df657506004546001600160a01b031633145b6115985760405162461bcd60e51b81526004018080602001828103825260538152602001806126f16053913960600191505060405180910390fd5b6000611e7383836040518060400160405280601e81526020017f536166654d6174683a207375627472616374696f6e206f766572666c6f77000081525061223e565b90505b92915050565b6002546001600160a01b0316331480611e9f57506003546001600160a01b031633145b611eda5760405162461bcd60e51b81526004018080602001828103825260418152602001806126566041913960600191505060405180910390fd5b565b600082820183811015611e73576040805162461bcd60e51b815260206004820152601b60248201527f536166654d6174683a206164646974696f6e206f766572666c6f770000000000604482015290519081900360640190fd5b60408051636eb1769f60e11b81523060048201526001600160a01b0384811660248301529151600092611f8f9285929188169163dd62ed3e91604480820192602092909190829003018186803b158015611aeb57600080fd5b604080516001600160a01b038616602482015260448082018490528251808303909101815260649091019091526020810180516001600160e01b031663095ea7b360e01b179052909150611fe49085906122da565b50505050565b604080516001600160a01b038416602482015260448082018490528251808303909101815260649091019091526020810180516001600160e01b031663a9059cbb60e01b179052610c6c9084906122da565b6001600160a01b038116612097576040805162461bcd60e51b815260206004820152601e60248201527f4163636f756e742063616e6e6f74206265207a65726f20616464726573730000604482015290519081900360640190fd5b803b80610737576040805162461bcd60e51b815260206004820181905260248201527f4163636f756e7420636f64652073697a652063616e6e6f74206265207a65726f604482015290519081900360640190fd5b6002546001600160a01b031633148061210e57506005546001600160a01b031633145b611eda5760405162461bcd60e51b81526004018080602001828103825260318152602001806127446031913960400191505060405180910390fd5b604080516001600160a01b0380861660248301528416604482015260648082018490528251808303909101815260849091019091526020810180516001600160e01b03166323b872dd60e01b179052611fe49085906122da565b6000826121b257506000611e76565b828202828482816121bf57fe5b0414611e735760405162461bcd60e51b81526004018080602001828103825260218152602001806127756021913960400191505060405180910390fd5b6000611e7383836040518060400160405280601a81526020017f536166654d6174683a206469766973696f6e206279207a65726f00000000000081525061238b565b600081848411156122cd5760405162461bcd60e51b81526004018080602001828103825283818151815260200191508051906020019080838360005b8381101561229257818101518382015260200161227a565b50505050905090810190601f1680156122bf5780820380516001836020036101000a031916815260200191505b509250505060405180910390fd5b50508183035b9392505050565b606061232f826040518060400160405280602081526020017f5361666545524332303a206c6f772d6c6576656c2063616c6c206661696c6564815250856001600160a01b03166123f09092919063ffffffff16565b805190915015610c6c5780806020019051602081101561234e57600080fd5b5051610c6c5760405162461bcd60e51b815260040180806020018281038252602a8152602001806127b6602a913960400191505060405180910390fd5b600081836123da5760405162461bcd60e51b815260206004820181815283516024840152835190928392604490910191908501908083836000831561229257818101518382015260200161227a565b5060008385816123e657fe5b0495945050505050565b60606123ff8484600085612407565b949350505050565b6060824710156124485760405162461bcd60e51b81526004018080602001828103825260268152602001806126cb6026913960400191505060405180910390fd5b61245185612563565b6124a2576040805162461bcd60e51b815260206004820152601d60248201527f416464726573733a2063616c6c20746f206e6f6e2d636f6e7472616374000000604482015290519081900360640190fd5b60006060866001600160a01b031685876040518082805190602001908083835b602083106124e15780518252601f1990920191602091820191016124c2565b6001836020036101000a03801982511681845116808217855250505050505090500191505060006040518083038185875af1925050503d8060008114612543576040519150601f19603f3d011682016040523d82523d6000602084013e612548565b606091505b5091509150612558828286612569565b979650505050505050565b3b151590565b606083156125785750816122d3565b8251156125885782518084602001fd5b60405162461bcd60e51b815260206004820181815284516024840152845185939192839260440191908501908083836000831561229257818101518382015260200161227a565b6040518061020001604052806000815260200160006001600160a01b031681526020016000815260200160008152602001600081526020016000815260200160008152602001600081526020016000815260200160008152602001600081526020016000815260200160008152602001600081526020016000815260200160008152509056fe416374697665506f6f6c3a2043616c6c6572206973206e65697468657220426f72726f7765724f7065726174696f6e73206e6f722054726f76654d616e616765725661756c7473206172726179206c656e677468206d757374206d61746368206e756d626572206f6620636f6c6c61746572616c73416464726573733a20696e73756666696369656e742062616c616e636520666f722063616c6c416374697665506f6f6c3a2043616c6c6572206973206e65697468657220426f72726f7765724f7065726174696f6e73206e6f722054726f76654d616e61676572206e6f722053746162696c697479506f6f6c416374697665506f6f6c3a2043616c6c6572206973206e65697468657220424f206e6f722044656661756c7420506f6f6c536166654d6174683a206d756c7469706c69636174696f6e206f766572666c6f774f776e61626c653a2063616c6c6572206973206e6f7420746865206f776e65725361666545524332303a204552433230206f7065726174696f6e20646964206e6f74207375636365656445786365656473206d617820616c6c6f7765642076616c7565206f662035303020425053a2646970667358221220c248f0eac7680c793f68bfb81e9f547fc2947a77c59482ee3cab9ad5dc251dc664736f6c634300060b0033608060405234801561001057600080fd5b50600080546001600160a01b0319163390811782556040519091907f8be0079c531659141344cd1fd0a4f28419497f9722a3daafe3b4186f6b6457e0908290a36110408061005f6000396000f3fe608060405234801561001057600080fd5b50600436106100bf5760003560e01c80635fc7b5e81161007c5780635fc7b5e8146101ba57806374448ef9146101e65780638da5cb5b146102125780638f32d59b1461021a5780639b56d6c914610236578063a3f4df7e1461025c578063b08bc722146102d9576100bf565b806334e53962146100c4578063363bf964146100f257806336c855df1461012a5780633aacc8151461014e5780634b14fa871461017a5780635a4d28bb146101b2575b600080fd5b6100f0600480360360408110156100da57600080fd5b506001600160a01b0381351690602001356102e1565b005b6100f06004803603606081101561010857600080fd5b506001600160a01b03813581169160208101358216916040909101351661044f565b6101326105b5565b604080516001600160a01b039092168252519081900360200190f35b6100f06004803603604081101561016457600080fd5b506001600160a01b0381351690602001356105c4565b6101a06004803603602081101561019057600080fd5b50356001600160a01b0316610659565b60408051918252519081900360200190f35b610132610680565b6100f0600480360360408110156101d057600080fd5b506001600160a01b03813516906020013561068f565b6100f0600480360360408110156101fc57600080fd5b506001600160a01b0381351690602001356106c9565b61013261077f565b61022261078e565b604080519115158252519081900360200190f35b6101a06004803603602081101561024c57600080fd5b50356001600160a01b031661079f565b6102646107c6565b6040805160208082528351818301528351919283929083019185019080838360005b8381101561029e578181015183820152602001610286565b50505050905090810190601f1680156102cb5780820380516001836020036101000a031916815260200191505b509250505060405180910390f35b6101326107ed565b6102ea826107fc565b6102f26108c9565b6003546001600160a01b03838116600090815260046020526040902054911690610322908363ffffffff61091416565b6001600160a01b038416600081815260046020908152604091829020849055815192835282019290925281517f92cf70cc465be5b8377a4b155f26c9f6160e0238e1238fb2f11dcc07cd4f4a5e929181900390910190a1604080516001600160a01b0380861682528316602082015280820184905290517fe664153eb516123e000bb334869ec912418f6fe4c1abb53fe2f848c947a8405d9181900360600190a16103dd6001600160a01b038416828463ffffffff61095d16565b60035460408051630eb13cd160e41b81526001600160a01b038681166004830152602482018690529151919092169163eb13cd1091604480830192600092919082900301818387803b15801561043257600080fd5b505af1158015610446573d6000803e3d6000fd5b50505050505050565b61045761078e565b6104a8576040805162461bcd60e51b815260206004820181905260248201527f4f776e61626c653a2063616c6c6572206973206e6f7420746865206f776e6572604482015290519081900360640190fd5b6104b183610a49565b6104ba82610a49565b6104c381610a49565b600180546001600160a01b038086166001600160a01b0319928316811790935560028054868316908416179055600380549185169190921617905560408051918252517f6a69409f44477d8556c3c8040edc75d9bc1b3dee7846f6045c0b99556fe7bc919181900360200190a1604080516001600160a01b038416815290517f143219c9e69b09e07e095fcc889b43d8f46ca892bba65f08dc3a0050869a56789181900360200190a1604080516001600160a01b038316815290517f78f058b189175430c48dc02699e3a0031ea4ff781536dc2fab847de4babdd8829181900360200190a16105b0610af8565b505050565b6001546001600160a01b031681565b6105cd826107fc565b6105d56108c9565b6001600160a01b0382166000908152600560205260409020546105fe908263ffffffff61091416565b6001600160a01b038316600081815260056020908152604091829020849055815192835282019290925281517f01f4554a8e623756a4793453edc303955290ab5cd047f27f28677c76eb199feb929181900390910190a15050565b6000610664826107fc565b506001600160a01b031660009081526005602052604090205490565b6002546001600160a01b031681565b610698826107fc565b6106a06108c9565b6001600160a01b0382166000908152600560205260409020546105fe908263ffffffff610b4216565b6106d2826107fc565b6106da610b9c565b6001600160a01b038216600090815260046020526040902054610703908263ffffffff610b4216565b6001600160a01b038316600081815260046020908152604091829020849055815192835282019290925281517f92cf70cc465be5b8377a4b155f26c9f6160e0238e1238fb2f11dcc07cd4f4a5e929181900390910190a160035461077b906001600160a01b038481169116308463ffffffff610be516565b5050565b6000546001600160a01b031690565b6000546001600160a01b0316331490565b60006107aa826107fc565b506001600160a01b031660009081526004602052604090205490565b6040518060400160405280600b81526020016a111959985d5b1d141bdbdb60aa1b81525081565b6003546001600160a01b031681565b60015460408051630658339960e51b81526001600160a01b0384811660048301529151919092169163cb067320916024808301926020929190829003018186803b15801561084957600080fd5b505afa15801561085d573d6000803e3d6000fd5b505050506040513d602081101561087357600080fd5b50516108c6576040805162461bcd60e51b815260206004820152601a60248201527f496e76616c696420636f6c6c61746572616c2061646472657373000000000000604482015290519081900360640190fd5b50565b6002546001600160a01b031633146109125760405162461bcd60e51b815260040180806020018281038252602b815260200180610fb6602b913960400191505060405180910390fd5b565b600061095683836040518060400160405280601e81526020017f536166654d6174683a207375627472616374696f6e206f766572666c6f770000815250610c3f565b9392505050565b60408051636eb1769f60e11b81523060048201526001600160a01b03848116602483015291516000926109ee9285929188169163dd62ed3e91604480820192602092909190829003018186803b1580156109b657600080fd5b505afa1580156109ca573d6000803e3d6000fd5b505050506040513d60208110156109e057600080fd5b50519063ffffffff610b4216565b604080516001600160a01b038616602482015260448082018490528251808303909101815260649091019091526020810180516001600160e01b031663095ea7b360e01b179052909150610a43908590610cd6565b50505050565b6001600160a01b038116610aa4576040805162461bcd60e51b815260206004820152601e60248201527f4163636f756e742063616e6e6f74206265207a65726f20616464726573730000604482015290519081900360640190fd5b803b8061077b576040805162461bcd60e51b815260206004820181905260248201527f4163636f756e7420636f64652073697a652063616e6e6f74206265207a65726f604482015290519081900360640190fd5b600080546040516001600160a01b03909116907f8be0079c531659141344cd1fd0a4f28419497f9722a3daafe3b4186f6b6457e0908390a3600080546001600160a01b0319169055565b600082820183811015610956576040805162461bcd60e51b815260206004820152601b60248201527f536166654d6174683a206164646974696f6e206f766572666c6f770000000000604482015290519081900360640190fd5b6003546001600160a01b031633146109125760405162461bcd60e51b8152600401808060200182810382526029815260200180610f676029913960400191505060405180910390fd5b604080516001600160a01b0380861660248301528416604482015260648082018490528251808303909101815260849091019091526020810180516001600160e01b03166323b872dd60e01b179052610a43908590610cd6565b60008184841115610cce5760405162461bcd60e51b81526004018080602001828103825283818151815260200191508051906020019080838360005b83811015610c93578181015183820152602001610c7b565b50505050905090810190601f168015610cc05780820380516001836020036101000a031916815260200191505b509250505060405180910390fd5b505050900390565b6060610d2b826040518060400160405280602081526020017f5361666545524332303a206c6f772d6c6576656c2063616c6c206661696c6564815250856001600160a01b0316610d879092919063ffffffff16565b8051909150156105b057808060200190516020811015610d4a57600080fd5b50516105b05760405162461bcd60e51b815260040180806020018281038252602a815260200180610fe1602a913960400191505060405180910390fd5b6060610d968484600085610d9e565b949350505050565b606082471015610ddf5760405162461bcd60e51b8152600401808060200182810382526026815260200180610f906026913960400191505060405180910390fd5b610de885610efa565b610e39576040805162461bcd60e51b815260206004820152601d60248201527f416464726573733a2063616c6c20746f206e6f6e2d636f6e7472616374000000604482015290519081900360640190fd5b60006060866001600160a01b031685876040518082805190602001908083835b60208310610e785780518252601f199092019160209182019101610e59565b6001836020036101000a03801982511681845116808217855250505050505090500191505060006040518083038185875af1925050503d8060008114610eda576040519150601f19603f3d011682016040523d82523d6000602084013e610edf565b606091505b5091509150610eef828286610f00565b979650505050505050565b3b151590565b60608315610f0f575081610956565b825115610f1f5782518084602001fd5b60405162461bcd60e51b8152602060048201818152845160248401528451859391928392604401919085019080838360008315610c93578181015183820152602001610c7b56fe44656661756c74506f6f6c3a2043616c6c6572206973206e6f742074686520416374697665506f6f6c416464726573733a20696e73756666696369656e742062616c616e636520666f722063616c6c44656661756c74506f6f6c3a2043616c6c6572206973206e6f74207468652054726f76654d616e616765725361666545524332303a204552433230206f7065726174696f6e20646964206e6f742073756363656564a26469706673582212202acafbd72d5fad99e954d3a7ab7679f715c03dcaae9e50a3bb3c8b8ea44d6b7464736f6c634300060b00336080604052670de0b6b3a7640000600f5534801561001c57600080fd5b50600380546001600160a01b031916339081179091556040516000907f8be0079c531659141344cd1fd0a4f28419497f9722a3daafe3b4186f6b6457e0908290a36138658061006c6000396000f3fe608060405234801561001057600080fd5b50600436106102695760003560e01c80638b8fbd9211610151578063b83f91a2116100c3578063cef941e811610087578063cef941e8146106cf578063d733cfd0146106d7578063e666673314610736578063f5f1595d14610768578063f92d34331461078e578063fc7e286d1461079657610269565b8063b83f91a21461062b578063ba10b65a14610633578063c2ac8abd14610673578063c6ff82d914610699578063ce4b5bbe146106c757610269565b80639bf2f1ac116101155780639bf2f1ac146105705780639e86d0c414610578578063a20baee61461042a578063a3f4df7e1461059e578063a4e59ac81461061b578063ae9187541461062357610269565b80638b8fbd92146105165780638da5cb5b1461051e5780638f32d59b1461052657806395fb16bb146105425780639b56d6c91461054a57610269565b8063538153ca116101ea57806377553ad4116101ae57806377553ad41461045e57806378c77a24146104665780637f7dde4a14610483578063817f64811461048b57806382e0a5741461049357806386da0824146104c157610269565b8063538153ca1461041a5780635c0ab4de1461042257806372fe25aa1461042a578063741bef1a14610432578063766718081461043a57610269565b8063307d361211610231578063307d3612146102fb5780633cc74225146103ba5780633d83908a146103de5780634870dd9a146103e65780634ee0a578146103ee57610269565b80631bf435551461026e5780631cdc47001461028857806327d04b35146102ae5780632e54bf95146102d45780632e86bbd8146102f3575b600080fd5b6102766107bc565b60408051918252519081900360200190f35b6102766004803603602081101561029e57600080fd5b50356001600160a01b03166107c9565b610276600480360360208110156102c457600080fd5b50356001600160a01b0316610869565b6102f1600480360360208110156102ea57600080fd5b503561097f565b005b610276610b1b565b6103216004803603602081101561031157600080fd5b50356001600160a01b0316610b27565b604051808060200180602001838103835285818151815260200191508051906020019060200280838360005b8381101561036557818101518382015260200161034d565b50505050905001838103825284818151815260200191508051906020019060200280838360005b838110156103a457818101518382015260200161038c565b5050505090500194505050505060405180910390f35b6103c2610b7f565b604080516001600160a01b039092168252519081900360200190f35b6103c2610b8e565b610276610b9d565b6102f16004803603604081101561040457600080fd5b506001600160a01b038135169060200135610ba2565b610276610c73565b6103c2610c79565b610276610c88565b6103c2610c94565b610442610ca3565b604080516001600160801b039092168252519081900360200190f35b6103c2610cb9565b6102f16004803603602081101561047c57600080fd5b5035610cc8565b6103c2610e47565b6103c2610e56565b610276600480360360408110156104a957600080fd5b506001600160801b0381358116916020013516610e65565b6104e7600480360360208110156104d757600080fd5b50356001600160a01b0316610e82565b6040805194855260208501939093526001600160801b0391821684840152166060830152519081900360800190f35b610276610eba565b6103c2610ec0565b61052e610ecf565b604080519115158252519081900360200190f35b6103c2610ee0565b6102766004803603602081101561056057600080fd5b50356001600160a01b0316610eef565b610276610f0a565b6102766004803603602081101561058e57600080fd5b50356001600160a01b0316610f10565b6105a6610fe0565b6040805160208082528351818301528351919283929083019185019080838360005b838110156105e05781810151838201526020016105c8565b50505050905090810190601f16801561060d5780820380516001836020036101000a031916815260200191505b509250505060405180910390f35b610442611009565b6103c2611018565b6103c2611027565b6102766004803603606081101561064957600080fd5b5080356001600160801b0390811691602081013590911690604001356001600160a01b0316611036565b6102766004803603602081101561068957600080fd5b50356001600160a01b0316611059565b610276600480360360408110156106af57600080fd5b506001600160a01b038135811691602001351661106b565b610276611098565b6102766110a0565b6102f160048036036101008110156106ee57600080fd5b506001600160a01b038135811691602081013582169160408201358116916060810135821691608082013581169160a081013582169160c082013581169160e00135166110a6565b6102f16004803603606081101561074c57600080fd5b506001600160a01b0381351690602081013590604001356113a9565b6102766004803603602081101561077e57600080fd5b50356001600160a01b0316611411565b6102766114a6565b610276600480360360208110156107ac57600080fd5b50356001600160a01b03166114b1565b6804e1003b28d928000081565b6001600160a01b0381166000908152600d6020526040812054806107f1576000915050610864565b6107f961361c565b506001600160a01b0383166000908152600e60209081526040808320815160808101835260018201548152600282015493810193909352600301546001600160801b0380821692840192909252600160801b90041660608201529061085e83836114c3565b93505050505b919050565b6000805460408051634b14fa8760e01b81526001600160a01b038581166004830152915184939290921691634b14fa8791602480820192602092909190829003018186803b1580156108ba57600080fd5b505afa1580156108ce573d6000803e3d6000fd5b505050506040513d60208110156108e457600080fd5b505160015460408051634b14fa8760e01b81526001600160a01b03878116600483015291519394506000939190921691634b14fa87916024808301926020929190829003018186803b15801561093957600080fd5b505afa15801561094d573d6000803e3d6000fd5b505050506040513d602081101561096357600080fd5b50519050610977828263ffffffff6115c816565b949350505050565b801561098d5761098d611629565b336000908152600d60205260409020546109a6816119bd565b600a546001600160a01b03166109bb816119ff565b6060806109c733610b27565b9150915060006109d6336107c9565b905060006109e48783611a73565b905060006109f8878463ffffffff611a8916565b9050610a048633611acb565b610a0e3383611b94565b6000610a20848463ffffffff611a8916565b9050610a2c3382611c1a565b60408051828152905133917fbce78369dccab09eec1986f4d409ab09ffbb47d65423e5148fcf98411c5111c9919081900360200190a2855160005b81811015610b0e576000888281518110610a7d57fe5b602002602001015190506000888381518110610a9557fe5b60200260200101519050336001600160a01b03167fbca22cb1a675adf66fa540a4c7a885a6f8f1d14d7ae9410d464c1ded5dd2ebe3838360405180836001600160a01b03166001600160a01b031681526020018281526020019250505060405180910390a2610b048282612148565b5050600101610a67565b5050505050505050505050565b678ac7230489e8000081565b6001600160a01b0381166000908152600d602052604090205460609081908015610b78576001600160a01b0384166000908152600e60205260409020610b6d8282612234565b935093505050610b7a565b505b915091565b6001546001600160a01b031681565b6006546001600160a01b031681565b60c881565b610baa6123e4565b600c5480610bb85750610c6f565b600a54610bcd906001600160a01b03166119ff565b6000610bdc848460008561242f565b509050610beb84826000612552565b6001600160a01b0384166000908152600b6020526040812054610c14908563ffffffff6115c816565b6001600160a01b0386166000818152600b60209081526040918290208490558151928352820183905280519293507f409eef87fc6b8bf65be7975e9a5e3cf900368e9109bf6bb4a1bb110e1725bdda92918290030190a15050505b5050565b60155481565b6005546001600160a01b031681565b670de0b6b3a764000081565b6002546001600160a01b031681565b601054600160801b90046001600160801b031681565b6004546001600160a01b031681565b610cd1816128e6565b336000908152600d6020526040902054600a546001600160a01b0316610cf6816119ff565b606080610d0233610b27565b915091506000610d11336107c9565b90506000610d25868363ffffffff611a8916565b9050610d318533611acb565b610d3b3388612925565b6000610d4d838963ffffffff6115c816565b9050610d593382611c1a565b60408051828152905133917fbce78369dccab09eec1986f4d409ab09ffbb47d65423e5148fcf98411c5111c9919081900360200190a2845160005b81811015610e3b576000878281518110610daa57fe5b602002602001015190506000878381518110610dc257fe5b60200260200101519050336001600160a01b03167fbca22cb1a675adf66fa540a4c7a885a6f8f1d14d7ae9410d464c1ded5dd2ebe3838360405180836001600160a01b03166001600160a01b031681526020018281526020019250505060405180910390a2610e318282612148565b5050600101610d94565b50505050505050505050565b6000546001600160a01b031681565b6008546001600160a01b031681565b601260209081526000928352604080842090915290825290205481565b600e602052600090815260409020600181015460028201546003909201549091906001600160801b0380821691600160801b90041684565b600f5481565b6003546001600160a01b031690565b6003546001600160a01b0316331490565b600a546001600160a01b031681565b6001600160a01b03166000908152600b602052604090205490565b600c5490565b6000805460408051639b56d6c960e01b81526001600160a01b038581166004830152915184939290921691639b56d6c991602480820192602092909190829003018186803b158015610f6157600080fd5b505afa158015610f75573d6000803e3d6000fd5b505050506040513d6020811015610f8b57600080fd5b505160015460408051639b56d6c960e01b81526001600160a01b03878116600483015291519394506000939190921691639b56d6c9916024808301926020929190829003018186803b15801561093957600080fd5b6040518060400160405280600d81526020016c14dd18589a5b1a5d1e541bdbdb609a1b81525081565b6010546001600160801b031681565b6009546001600160a01b031681565b6007546001600160a01b031681565b601160209081526000938452604080852082529284528284209052825290205481565b60146020526000908152604090205481565b6001600160a01b038083166000908152600e60209081526040808320938516835292905220545b92915050565b633b9aca0081565b60135481565b6110ae610ecf565b6110ff576040805162461bcd60e51b815260206004820181905260248201527f4f776e61626c653a2063616c6c6572206973206e6f7420746865206f776e6572604482015290519081900360640190fd5b611108886129ef565b611111876129ef565b61111a866129ef565b611123856129ef565b61112c846129ef565b611135836129ef565b61113e826129ef565b611147816129ef565b600480546001600160a01b03199081166001600160a01b038b81169182179093556005805483168b85161790556006805483168a8516179055600080548316898516179055600780548316888516179055600980548316878516179055600280548316868516179055600a805490921692841692909217905560408051918252517f3ca631ffcd2a9b5d9ae18543fc82f58eb4ca33af9e6ab01b7a8e95331e6ed985916020908290030190a1604080516001600160a01b038916815290517f6a69409f44477d8556c3c8040edc75d9bc1b3dee7846f6045c0b99556fe7bc919181900360200190a1604080516001600160a01b038816815290517f143219c9e69b09e07e095fcc889b43d8f46ca892bba65f08dc3a0050869a56789181900360200190a1604080516001600160a01b038716815290517f78f058b189175430c48dc02699e3a0031ea4ff781536dc2fab847de4babdd8829181900360200190a1604080516001600160a01b038616815290517f227eec0ec317af6ab1a9587ffa1c84332522eb4c583a908f89babc05f8f339bd9181900360200190a1604080516001600160a01b038516815290517f65f4cf077bc01e4742eb5ad98326f6e95b63548ea24b17f8d5e823111fe788009181900360200190a1604080516001600160a01b038416815290517f8c537274438aa850a330284665d81a85dd38267d09e4050d416bfc94142db2649181900360200190a1604080516001600160a01b038316815290517f3055265812fb8447b9ada4a5d804ec43bd528ec40e89c952bbc7b85dc5ac68119181900360200190a161139f612a9e565b5050505050505050565b6113b1612ae8565b600c548015806113bf575082155b156113ca575061140c565b600a546113df906001600160a01b03166119ff565b6000806113ee8685878661242f565b915091506113fd868383612552565b611408868587612b31565b5050505b505050565b6001600160a01b0381166000908152600d602052604081205480611439576000915050610864565b61144161361c565b506001600160a01b0383166000908152600e60209081526040808320815160808101835260018201548152600282015493810193909352600301546001600160801b0380821692840192909252600160801b90041660608201529061085e8383612ca4565b6611c37937e0800081565b600d6020526000908152604090205481565b8051604082015160608301516010546000939291906001600160801b03600160801b909104811690821610156114ff5760009350505050611092565b6010546000908190611520906001600160801b03168563ffffffff612d9316565b90506001600160801b03811661155c5761155585611549600f548b612dec90919063ffffffff16565b9063ffffffff612e4516565b9150611594565b806001600160801b03166001141561158f57611555633b9aca0061154987611549600f548d612dec90919063ffffffff16565b600091505b6115a888633b9aca0063ffffffff612e4516565b8210156115bd57600095505050505050611092565b509695505050505050565b600082820183811015611622576040805162461bcd60e51b815260206004820152601b60248201527f536166654d6174683a206164646974696f6e206f766572666c6f770000000000604482015290519081900360640190fd5b9392505050565b6005546040805163b2604ecf60e01b815290516060926001600160a01b03169163b2604ecf916004808301926000929190829003018186803b15801561166e57600080fd5b505afa158015611682573d6000803e3d6000fd5b505050506040513d6000823e601f3d908101601f1916820160405260208110156116ab57600080fd5b8101908080516040519392919084600160201b8211156116ca57600080fd5b9083019060208201858111156116df57600080fd5b82518660208202830111600160201b821117156116fb57600080fd5b82525081516020918201928201910280838360005b83811015611728578181015183820152602001611710565b50505050919091016040525050825192935060009150505b8181101561140c57600083828151811061175657fe5b60209081029190910181015160025460408051635670bcc760e11b81526001600160a01b0380851660048301529151939550600094919092169263ace1798e92602480820193929182900301818787803b1580156117b357600080fd5b505af11580156117c7573d6000803e3d6000fd5b505050506040513d60208110156117dd57600080fd5b505160095460408051637608271560e01b81526001600160a01b038681166004830152915193945060009391909216916376082715916024808301926020929190829003018186803b15801561183257600080fd5b505afa158015611846573d6000803e3d6000fd5b505050506040513d602081101561185c57600080fd5b5051600554604080516311e2c60b60e11b81526001600160a01b038781166004830152915193945060009391909216916323c58c16916024808301926020929190829003018186803b1580156118b157600080fd5b505afa1580156118c5573d6000803e3d6000fd5b505050506040513d60208110156118db57600080fd5b50516006546040805163b1eafaab60e01b81526001600160a01b0386811660048301528881166024830152604482018890529151939450600093919092169163b1eafaab916064808301926020929190829003018186803b15801561193f57600080fd5b505afa158015611953573d6000803e3d6000fd5b505050506040513d602081101561196957600080fd5b50519050818110156119ac5760405162461bcd60e51b81526004018080602001828103825260448152602001806137ec6044913960600191505060405180910390fd5b505060019093019250611740915050565b600081116119fc5760405162461bcd60e51b815260040180806020018281038252603081526020018061376f6030913960400191505060405180910390fd5b50565b6000816001600160a01b031663281020476040518163ffffffff1660e01b8152600401602060405180830381600087803b158015611a3c57600080fd5b505af1158015611a50573d6000803e3d6000fd5b505050506040513d6020811015611a6657600080fd5b50519050610c6f81612e87565b6000818310611a825781611622565b5090919050565b600061162283836040518060400160405280601e81526020017f536166654d6174683a207375627472616374696f6e206f766572666c6f770000815250612fa2565b6000611ad682611411565b9050826001600160a01b031663de622bf083836040518363ffffffff1660e01b815260040180836001600160a01b03166001600160a01b0316815260200182815260200192505050600060405180830381600087803b158015611b3857600080fd5b505af1158015611b4c573d6000803e3d6000fd5b50506040805184815290516001600160a01b03861693507f2608b986a6ac0f6c629ca37018e80af5561e366252ae93602a96d3ab2e73e42d92509081900360200190a2505050565b80611b9e57610c6f565b60075460408051631062c15f60e11b81523060048201526001600160a01b03858116602483015260448201859052915191909216916320c582be91606480830192600092919082900301818387803b158015611bf957600080fd5b505af1158015611c0d573d6000803e3d6000fd5b50505050610c6f81613039565b6001600160a01b038083166000908152600d6020526040808220849055600554815163b2604ecf60e01b81529151606094919091169263b2604ecf9260048082019391829003018186803b158015611c7157600080fd5b505afa158015611c85573d6000803e3d6000fd5b505050506040513d6000823e601f3d908101601f191682016040526020811015611cae57600080fd5b8101908080516040519392919084600160201b821115611ccd57600080fd5b908301906020820185811115611ce257600080fd5b82518660208202830111600160201b82111715611cfe57600080fd5b82525081516020918201928201910280838360005b83811015611d2b578181015183820152602001611d13565b5050505090500160405250505090506060815167ffffffffffffffff81118015611d5457600080fd5b50604051908082528060200260200182016040528015611d7e578160200160208202803683370190505b50905082611eed5760005b8251811015611de9576001600160a01b0385166000908152600e602052604081208451909190859084908110611dbb57fe5b6020908102919091018101516001600160a01b03168252810191909152604001600090812055600101611d89565b506001600160a01b0384166000818152600e602090815260408083206001810184905560028101849055600301839055805183815260608101849052608081840181815288519183019190915287517f0733ad41f8d5341e0a51113482115dde66a75a14959119c5589ebab3902914c59594899489948794909390929184019160a08501918882019102808383895b83811015611e90578181015183820152602001611e78565b50505050905001838103825285818151815260200191508051906020019060200280838360005b83811015611ecf578181015183820152602001611eb7565b50505050905001965050505050505060405180910390a25050610c6f565b601054600f546001600160801b03600160801b80840482166000818152601260209081526040808320978616808452978252808320546001600160a01b038d168452600e9092528220600181018790556002810182905560030180546001600160801b03191688179095169383029390931790935592915b8651811015612068576000878281518110611f7c57fe5b60200260200101519050600060116000876001600160801b03166001600160801b031681526020019081526020016000206000886001600160801b03166001600160801b031681526020019081526020016000206000836001600160a01b03166001600160a01b0316815260200190815260200160002054905080600e60008d6001600160a01b03166001600160a01b031681526020019081526020016000206000016000846001600160a01b03166001600160a01b03168152602001908152602001600020819055508088848151811061205357fe5b60209081029190910101525050600101611f65565b50876001600160a01b03167f0733ad41f8d5341e0a51113482115dde66a75a14959119c5589ebab3902914c583888885604051808581526020018060200180602001848152602001838103835286818151815260200191508051906020019060200280838360005b838110156120e85781810151838201526020016120d0565b50505050905001838103825285818151815260200191508051906020019060200280838360005b8381101561212757818101518382015260200161210f565b50505050905001965050505050505060405180910390a25050505050505050565b8061215257610c6f565b6001600160a01b0382166000908152600b602052604081205461217b908363ffffffff611a8916565b6001600160a01b0384166000818152600b60209081526040918290208490558151928352820183905280519293507f409eef87fc6b8bf65be7975e9a5e3cf900368e9109bf6bb4a1bb110e1725bdda92918290030190a1604080516001600160a01b038516815233602082015280820184905290517fe664153eb516123e000bb334869ec912418f6fe4c1abb53fe2f848c947a8405d9181900360600190a161140c6001600160a01b038416338463ffffffff61308f16565b606080600560009054906101000a90046001600160a01b03166001600160a01b031663b2604ecf6040518163ffffffff1660e01b815260040160006040518083038186803b15801561228557600080fd5b505afa158015612299573d6000803e3d6000fd5b505050506040513d6000823e601f3d908101601f1916820160405260208110156122c257600080fd5b8101908080516040519392919084600160201b8211156122e157600080fd5b9083019060208201858111156122f657600080fd5b82518660208202830111600160201b8211171561231257600080fd5b82525081516020918201928201910280838360005b8381101561233f578181015183820152602001612327565b505050509050016040525050509150815167ffffffffffffffff8111801561236657600080fd5b50604051908082528060200260200182016040528015612390578160200160208202803683370190505b50905060005b82518110156123dc576123bd858483815181106123af57fe5b6020026020010151866130e1565b8282815181106123c957fe5b6020908102919091010152600101612396565b509250929050565b6000546001600160a01b0316331461242d5760405162461bcd60e51b81526004018080602001828103825260278152602001806136ae6027913960400191505060405180910390fd5b565b6001600160a01b038416600090815260146020526040812054819081906124749061246888670de0b6b3a764000063ffffffff612dec16565b9063ffffffff6115c816565b90508385111561248057fe5b8385141561249d576000601555670de0b6b3a764000091506124fd565b6015546000906124cb906124bf88670de0b6b3a764000063ffffffff612dec16565b9063ffffffff611a8916565b90506124e26001612468838863ffffffff612e4516565b92506124f8816124bf858863ffffffff612dec16565b601555505b61250d818563ffffffff612e4516565b925061252f612522848663ffffffff612dec16565b829063ffffffff611a8916565b6001600160a01b0388166000908152601460205260409020555094509492505050565b600f546000670de0b6b3a764000083111561256957fe5b6000612583670de0b6b3a76400008563ffffffff611a8916565b6010546001600160801b03600160801b820481166000818152601160209081526040808320949095168083529381528482206001600160a01b038d168352905292832054939450909290916125d88988612dec565b905060006125ec838363ffffffff6115c816565b90508060116000866001600160801b03166001600160801b031681526020019081526020016000206000876001600160801b03166001600160801b0316815260200190815260200160002060008d6001600160a01b03166001600160a01b03168152602001908152602001600020819055507fe799d8213ffd47c58af0bad222f3f83a7bacf689130d897017d6c2cb9346e8cb8b82868860405180856001600160a01b03166001600160a01b03168152602001848152602001836001600160801b03166001600160801b03168152602001826001600160801b03166001600160801b0316815260200194505050505060405180910390a1856127ab576127026001600160801b038516600163ffffffff6132bf16565b601080546001600160801b03908116600160801b938216840217918290556040805193909204168252517fb50f0f59e7cb5b421dc77581c3a9919e3806e076e5fa78a874c3f120cb7d874d916020908290030190a1601080546001600160801b0319169055604080516000815290517f1f9dfc70cd666adb18a39d60a797518f7b4febf4b6e24ef37d44f6e1e7219fbe9181900360200190a1670de0b6b3a76400009650612897565b633b9aca006127cc670de0b6b3a76400006115498b8a63ffffffff612dec16565b101561287857612802670de0b6b3a7640000611549633b9aca006127f68c8b63ffffffff612dec16565b9063ffffffff612dec16565b965061281e6001600160801b038616600163ffffffff6132bf16565b601080546001600160801b0319166001600160801b0392831617908190556040805191909216815290517f1f9dfc70cd666adb18a39d60a797518f7b4febf4b6e24ef37d44f6e1e7219fbe916020908290030190a1612897565b612894670de0b6b3a76400006115498a8963ffffffff612dec16565b96505b600087116128a157fe5b600f8790556040805188815290517fc1a9618cb59ebca77cbdbc2949f126823c407ff13edb285fd0262519a9c18e8c9181900360200190a15050505050505050505050565b600081116119fc5760405162461bcd60e51b815260040180806020018281038252602681526020018061371f6026913960400191505060405180910390fd5b60075460408051632ee65eeb60e21b81526001600160a01b038581166004830152306024830152604482018590529151919092169163bb997bac91606480830192600092919082900301818387803b15801561298057600080fd5b505af1158015612994573d6000803e3d6000fd5b5050600c54600092506129ae91508363ffffffff6115c816565b600c8190556040805182815290519192507fa8e886449d8f7e765877b4a4f54632da3943ae454d5a272bdccb1781f086ff29919081900360200190a1505050565b6001600160a01b038116612a4a576040805162461bcd60e51b815260206004820152601e60248201527f4163636f756e742063616e6e6f74206265207a65726f20616464726573730000604482015290519081900360640190fd5b803b80610c6f576040805162461bcd60e51b815260206004820181905260248201527f4163636f756e7420636f64652073697a652063616e6e6f74206265207a65726f604482015290519081900360640190fd5b6003546040516000916001600160a01b0316907f8be0079c531659141344cd1fd0a4f28419497f9722a3daafe3b4186f6b6457e0908390a3600380546001600160a01b0319169055565b6006546001600160a01b0316331461242d5760405162461bcd60e51b81526004018080602001828103825260298152602001806136d56029913960400191505060405180910390fd5b6000805460408051633aacc81560e01b81526001600160a01b03878116600483015260248201869052915191909216928392633aacc815926044808301939282900301818387803b158015612b8557600080fd5b505af1158015612b99573d6000803e3d6000fd5b50505050612ba682613039565b60075460408051632770a7eb60e21b81523060048201526024810185905290516001600160a01b0390921691639dc29fac9160448082019260009290919082900301818387803b158015612bf957600080fd5b505af1158015612c0d573d6000803e3d6000fd5b50506040805163715aa61b60e01b81526001600160a01b038881166004830152306024830152604482018890529151918516935063715aa61b925060648082019260009290919082900301818387803b158015612c6957600080fd5b505af1158015612c7d573d6000803e3d6000fd5b505050506001600160a01b0384166000908152600b6020526040812054610c1490856115c8565b606081015160408083015160208085015185516001600160801b03808716600090815260128552868120918616815293529382205491949390918590612cf0908463ffffffff611a8916565b6001600160801b03808716600090815260126020526040812092935091612d5391633b9aca0091908490612d2d908a16600163ffffffff6132bf16565b6001600160801b031681526020810191909152604001600020549063ffffffff612e4516565b90506000612d85670de0b6b3a76400006115498681612d78888863ffffffff6115c816565b8f9063ffffffff612dec16565b9a9950505050505050505050565b6000826001600160801b0316826001600160801b03161115612de65760405162461bcd60e51b815260040180806020018281038252602881526020018061379f6028913960400191505060405180910390fd5b50900390565b600082612dfb57506000611092565b82820282848281612e0857fe5b04146116225760405162461bcd60e51b81526004018080602001828103825260218152602001806136fe6021913960400191505060405180910390fd5b600061162283836040518060400160405280601a81526020017f536166654d6174683a206469766973696f6e206279207a65726f00000000000081525061330f565b600c54801580612e95575081155b15612ea057506119fc565b6000612eac8383613374565b90506000612ec5600f5483612dec90919063ffffffff16565b6010546001600160801b03600160801b820481166000908152601260209081526040808320939094168252919091522054909150612f09908263ffffffff6115c816565b601080546001600160801b03600160801b808304821660009081526012602081815260408084209686168452958152858320979097559454918204831680825294865283812091909216808352908552908290205482519081529384019290925282810191909152517f2d6127771b164a9cc8827d24b5955db2a77e7a81dac389107ebb8bce9fb649689181900360600190a150505050565b600081848411156130315760405162461bcd60e51b81526004018080602001828103825283818151815260200191508051906020019080838360005b83811015612ff6578181015183820152602001612fde565b50505050905090810190601f1680156130235780820380516001836020036101000a031916815260200191505b509250505060405180910390fd5b505050900390565b600c5460009061304f908363ffffffff611a8916565b600c8190556040805182815290519192507fa8e886449d8f7e765877b4a4f54632da3943ae454d5a272bdccb1781f086ff29919081900360200190a15050565b604080516001600160a01b038416602482015260448082018490528251808303909101815260649091019091526020810180516001600160e01b031663a9059cbb60e01b17905261140c9084906133d9565b60006130eb613656565b6005546040805163eb7aac5f60e01b81526001600160a01b0387811660048301529151919092169163eb7aac5f916024808301926020929190829003018186803b15801561313857600080fd5b505afa15801561314c573d6000803e3d6000fd5b505050506040513d602081101561316257600080fd5b5051815260038301546001600160801b03600160801b8204811660208481019182529282166040808601918252600188015460608701526001600160a01b0389166000818152898752828120546080890181905294518616815260118752828120935190951685529185528084209184529352919020546131e89163ffffffff611a8916565b60a08201526020808201516001600160801b039081166000908152601190925260408083209084015161326b93633b9aca0093909161322f9116600163ffffffff6132bf16565b6001600160801b03168152602080820192909252604090810160009081206001600160a01b038a1682529092529020549063ffffffff612e4516565b60c08201819052606082015160a08301516132ae92670de0b6b3a76400009261154992909183916132a19163ffffffff6115c816565b8a9063ffffffff612dec16565b60e090910181905290509392505050565b60008282016001600160801b0380851690821610156116225760405162461bcd60e51b81526004018080602001828103825260258152602001806137c76025913960400191505060405180910390fd5b6000818361335e5760405162461bcd60e51b8152602060048201818152835160248401528351909283926044909101919085019080838360008315612ff6578181015183820152602001612fde565b50600083858161336a57fe5b0495945050505050565b600080613398601354612468670de0b6b3a764000087612dec90919063ffffffff16565b905060006133ac828563ffffffff612e4516565b90506133ce6133c1828663ffffffff612dec16565b839063ffffffff611a8916565b601355949350505050565b606061342e826040518060400160405280602081526020017f5361666545524332303a206c6f772d6c6576656c2063616c6c206661696c6564815250856001600160a01b031661348a9092919063ffffffff16565b80519091501561140c5780806020019051602081101561344d57600080fd5b505161140c5760405162461bcd60e51b815260040180806020018281038252602a815260200180613745602a913960400191505060405180910390fd5b606061097784846000858561349e856135b0565b6134ef576040805162461bcd60e51b815260206004820152601d60248201527f416464726573733a2063616c6c20746f206e6f6e2d636f6e7472616374000000604482015290519081900360640190fd5b60006060866001600160a01b031685876040518082805190602001908083835b6020831061352e5780518252601f19909201916020918201910161350f565b6001836020036101000a03801982511681845116808217855250505050505090500191505060006040518083038185875af1925050503d8060008114613590576040519150601f19603f3d011682016040523d82523d6000602084013e613595565b606091505b50915091506135a58282866135b6565b979650505050505050565b3b151590565b606083156135c5575081611622565b8251156135d55782518084602001fd5b60405162461bcd60e51b8152602060048201818152845160248401528451859391928392604401919085019080838360008315612ff6578181015183820152602001612fde565b6040518060800160405280600081526020016000815260200160006001600160801b0316815260200160006001600160801b031681525090565b6040518061010001604052806000815260200160006001600160801b0316815260200160006001600160801b031681526020016000815260200160008152602001600081526020016000815260200160008152509056fe53746162696c697479506f6f6c3a2043616c6c6572206973206e6f7420416374697665506f6f6c53746162696c697479506f6f6c3a2043616c6c6572206973206e6f742054726f76654d616e61676572536166654d6174683a206d756c7469706c69636174696f6e206f766572666c6f7753746162696c697479506f6f6c3a20416d6f756e74206d757374206265206e6f6e2d7a65726f5361666545524332303a204552433230206f7065726174696f6e20646964206e6f74207375636365656453746162696c697479506f6f6c3a2055736572206d75737420686176652061206e6f6e2d7a65726f206465706f7369744c697175697479536166654d6174683132383a207375627472616374696f6e206f766572666c6f774c697175697479536166654d6174683132383a206164646974696f6e206f766572666c6f7753746162696c697479506f6f6c3a2043616e6e6f74207769746864726177207768696c65207468657265206172652074726f766573207769746820494352203c204d4352a2646970667358221220b97c1c75d6aff5008f1b10560ad88cf66442d2abe992d7f3799a8c092081da0264736f6c634300060b00336080604052348015600f57600080fd5b50603f80601d6000396000f3fe6080604052600080fdfea2646970667358221220c99458d72cc5ba909cee190fc4264b2b463a9131fbf645c1bf2aa6868a3aacfa64736f6c634300060b00336101206040526001805460ff191690553480156200001c57600080fd5b5060405162001f5b38038062001f5b833981810160405260a08110156200004257600080fd5b5080516020820151604083015160608401516080909401519293919290919062000075856001600160e01b036200039316565b62000089846001600160e01b036200039316565b6200009d836001600160e01b036200039316565b620000b1826001600160e01b036200039316565b620000c5816001600160e01b036200039316565b600880546001600160a01b0319166001600160a01b038716908117909155600081815260056020908152604091829020805460ff19166001179055815192835290517f143219c9e69b09e07e095fcc889b43d8f46ca892bba65f08dc3a0050869a56789281900390910190a1600980546001600160a01b0319166001600160a01b038616908117909155600081815260066020908152604091829020805460ff19166001179055815192835290517f82966d27eea39b038ee0fa30cd16532bb24f6e65d31cb58fb227aa5766cdcc7f9281900390910190a1600a80546001600160a01b0319166001600160a01b038516908117909155600081815260076020908152604091829020805460ff19166001179055815192835290517f3ca631ffcd2a9b5d9ae18543fc82f58eb4ca33af9e6ab01b7a8e95331e6ed9859281900390910190a1600b80546001600160a01b0384166001600160a01b0319909116811790915560408051918252517fa29a633a0eef2d1151c7c3b24a4f75c7c7a3b8a7eee6b54f75b7b168f1c87fec9181900360200190a1600c80546001600160a01b0383166001600160a01b0319909116811790915560408051918252517ff0ec871fc9fea2efa0febe6a5edbe4ffb7c4b3460cd48ca56833fb544595ce8c9181900360200190a1604080518082018252600f81526e262aa9a21029ba30b13632b1b7b4b760891b602091820152815180830190925260018252603160f81b9101527fabccaf2943f70764a048255e50e07d10e3c94973a6c6ba8b8ea62b1155209b0160c08190527fc89efdaa54c0f20c7adf612882df0950f5a951637e0307cdcb4c672f298b8bc660e0819052620003446001600160e01b036200044816565b60a0526200037d7f8b73c3c69bb8fe3d512ecc4cf759cc79239f7b179b0ffacaa9a75d522b39400f83836001600160e01b036200044c16565b6080525050426101005250620004ad9350505050565b6001600160a01b038116620003ef576040805162461bcd60e51b815260206004820152601e60248201527f4163636f756e742063616e6e6f74206265207a65726f20616464726573730000604482015290519081900360640190fd5b803b8062000444576040805162461bcd60e51b815260206004820181905260248201527f4163636f756e7420636f64652073697a652063616e6e6f74206265207a65726f604482015290519081900360640190fd5b5050565b4690565b6000838383620004646001600160e01b036200044816565b6040805160208082019690965280820194909452606084019290925260808301523060a0808401919091528151808403909101815260c090920190528051910120949350505050565b60805160a05160c05160e05161010051611a6e620004ed60003980610806525080610d9b525080610d7a525080610d00525080610d305250611a6e6000f3fe608060405234801561001057600080fd5b50600436106101d15760003560e01c8063795053d311610105578063bb997bac1161009d578063bb997bac1461053f578063c0b94e9f14610575578063d505accf1461059b578063da8fbf2a146105ec578063dd62ed3e146105f4578063e1a283d614610622578063f698da251461062a578063fc52539514610632578063fc72092f14610658576101d1565b8063795053d31461044f5780637ecebe001461045757806395d89b411461047d5780639dc29fac14610485578063a457c2d7146104b1578063a9059cbb146104dd578063ae20032214610509578063b256126314610511578063b7f8cf9b14610537576101d1565b806323b872dd1161017857806323b872dd1461035d578063313ce5671461039357806339509351146103b15780633c84b7c2146103dd57806340c10f19146103e557806342e444181461041157806354fd4d50146104195780635a4d28bb1461042157806370a0823114610429576101d1565b806306fdde03146101d6578063095ea7b3146102535780630b622ab21461029357806310ce43bd146102b7578063122540cb146102d157806316d556d0146102f757806318160ddd1461031d57806320c582be14610325575b600080fd5b6101de610690565b6040805160208082528351818301528351919283929083019185019080838360005b83811015610218578181015183820152602001610200565b50505050905090810190601f1680156102455780820380516001836020036101000a031916815260200191505b509250505060405180910390f35b61027f6004803603604081101561026957600080fd5b506001600160a01b0381351690602001356106ba565b604080519115158252519081900360200190f35b61029b6106d0565b604080516001600160a01b039092168252519081900360200190f35b6102bf6106df565b60408051918252519081900360200190f35b61027f600480360360208110156102e757600080fd5b50356001600160a01b0316610703565b61027f6004803603602081101561030d57600080fd5b50356001600160a01b0316610718565b6102bf61072d565b61035b6004803603606081101561033b57600080fd5b506001600160a01b03813581169160208101359091169060400135610733565b005b61027f6004803603606081101561037357600080fd5b506001600160a01b0381358116916020810135909116906040013561074b565b61039b6107c3565b6040805160ff9092168252519081900360200190f35b61027f600480360360408110156103c757600080fd5b506001600160a01b0381351690602001356107c8565b6102bf610804565b61035b600480360360408110156103fb57600080fd5b506001600160a01b038135169060200135610828565b61029b610846565b6101de610855565b61029b610870565b6102bf6004803603602081101561043f57600080fd5b50356001600160a01b031661087f565b61029b61089a565b6102bf6004803603602081101561046d57600080fd5b50356001600160a01b03166108a9565b6101de6108c4565b61035b6004803603604081101561049b57600080fd5b506001600160a01b0381351690602001356108e2565b61027f600480360360408110156104c757600080fd5b506001600160a01b0381351690602001356108f4565b61027f600480360360408110156104f357600080fd5b506001600160a01b038135169060200135610949565b61035b61095f565b61035b6004803603602081101561052757600080fd5b50356001600160a01b0316610973565b61029b6109d8565b61035b6004803603606081101561055557600080fd5b506001600160a01b038135811691602081013590911690604001356109e7565b61027f6004803603602081101561058b57600080fd5b50356001600160a01b03166109ef565b61035b600480360360e08110156105b157600080fd5b506001600160a01b03813581169160208101359091169060408101359060608101359060ff6080820135169060a08101359060c00135610a04565b61035b610c5c565b6102bf6004803603604081101561060a57600080fd5b506001600160a01b0381358116916020013516610cc8565b61027f610cf3565b6102bf610cfc565b61035b6004803603602081101561064857600080fd5b50356001600160a01b0316610dc6565b61035b6004803603606081101561066e57600080fd5b506001600160a01b038135811691602081013582169160409091013516610e2b565b60408051808201909152600f81526e262aa9a21029ba30b13632b1b7b4b760891b60208201525b90565b60006106c7338484610f97565b50600192915050565b6009546001600160a01b031681565b7f6e71edae12b1b97f4d1f60370fef10105fa2faae0126114a169c64845d6126c990565b60066020526000908152604090205460ff1681565b60056020526000908152604090205460ff1681565b60005490565b61073b611019565b610746838383611083565b505050565b600061075683611165565b610761848484611083565b6107b984336107b4856040518060600160405280602881526020016118f7602891396001600160a01b038a166000908152600460209081526040808320338452909152902054919063ffffffff61126616565b610f97565b5060019392505050565b601290565b3360008181526004602090815260408083206001600160a01b038716845290915281205490916106c79185906107b4908663ffffffff6112fd16565b7f000000000000000000000000000000000000000000000000000000000000000090565b61083061135e565b6108386113a0565b61084282826113e9565b5050565b600c546001600160a01b031681565b6040805180820190915260018152603160f81b602082015290565b6008546001600160a01b031681565b6001600160a01b031660009081526003602052604090205490565b600b546001600160a01b031681565b6001600160a01b031660009081526002602052604090205490565b604080518082019091526004815263131554d160e21b602082015290565b6108ea61147d565b61084282826114ff565b60006106c733846107b4856040518060600160405280602581526020016119c0602591393360009081526004602090815260408083206001600160a01b038d168452909152902054919063ffffffff61126616565b600061095483611165565b6106c7338484611083565b6109676115b5565b6001805460ff19169055565b61097b6115b5565b610984816115fe565b600b80546001600160a01b0383166001600160a01b0319909116811790915560408051918252517fa29a633a0eef2d1151c7c3b24a4f75c7c7a3b8a7eee6b54f75b7b168f1c87fec9181900360200190a150565b600a546001600160a01b031681565b61073b6116ad565b60076020526000908152604090205460ff1681565b6fa2a8918ca85bafe22016d0b997e4df60600160ff1b03811115610a67576040805162461bcd60e51b81526020600482015260156024820152744c5553443a20496e76616c696420732076616c756560581b604482015290519081900360640190fd5b42841015610ab5576040805162461bcd60e51b81526020600482015260166024820152754c5553443a206578706972656420646561646c696e6560501b604482015290519081900360640190fd5b6000610abf610cfc565b6001600160a01b03808a1660008181526002602090815260408083208054600180820190925582517f6e71edae12b1b97f4d1f60370fef10105fa2faae0126114a169c64845d6126c98186015280840196909652958e166060860152608085018d905260a085019590955260c08085018c90528151808603909101815260e08501825280519083012061190160f01b6101008601526101028501969096526101228085019690965280518085039096018652610142840180825286519683019690962095839052610162840180825286905260ff8a166101828501526101a284018990526101c284018890525194955090936101e280840193601f198301929081900390910190855afa158015610bda573d6000803e3d6000fd5b505050602060405103519050886001600160a01b0316816001600160a01b031614610c46576040805162461bcd60e51b81526020600482015260176024820152764c5553443a20696e76616c6964207369676e617475726560481b604482015290519081900360640190fd5b610c51898989610f97565b505050505050505050565b600c546001600160a01b0316331480610c7f5750600b546001600160a01b031633145b610cba5760405162461bcd60e51b815260040180806020018281038252602a815260200180611996602a913960400191505060405180910390fd5b6001805460ff191681179055565b6001600160a01b03918216600090815260046020908152604080832093909416825291909152205490565b60015460ff1681565b60007f0000000000000000000000000000000000000000000000000000000000000000610d276116f6565b1415610d5457507f00000000000000000000000000000000000000000000000000000000000000006106b7565b610dbf7f8b73c3c69bb8fe3d512ecc4cf759cc79239f7b179b0ffacaa9a75d522b39400f7f00000000000000000000000000000000000000000000000000000000000000007f00000000000000000000000000000000000000000000000000000000000000006116fa565b90506106b7565b610dce6115b5565b610dd7816115fe565b600c80546001600160a01b0383166001600160a01b0319909116811790915560408051918252517ff0ec871fc9fea2efa0febe6a5edbe4ffb7c4b3460cd48ca56833fb544595ce8c9181900360200190a150565b610e336115b5565b610e3c836115fe565b610e45826115fe565b610e4e816115fe565b600880546001600160a01b0319166001600160a01b038516908117909155600081815260056020908152604091829020805460ff19166001179055815192835290517f143219c9e69b09e07e095fcc889b43d8f46ca892bba65f08dc3a0050869a56789281900390910190a1600980546001600160a01b0319166001600160a01b038416908117909155600081815260066020908152604091829020805460ff19166001179055815192835290517f82966d27eea39b038ee0fa30cd16532bb24f6e65d31cb58fb227aa5766cdcc7f9281900390910190a1600a80546001600160a01b0319166001600160a01b038316908117909155600081815260076020908152604091829020805460ff19166001179055815192835290517f3ca631ffcd2a9b5d9ae18543fc82f58eb4ca33af9e6ab01b7a8e95331e6ed9859281900390910190a1505050565b6001600160a01b038316610fa757fe5b6001600160a01b038216610fb757fe5b6001600160a01b03808416600081815260046020908152604080832094871680845294825291829020859055815185815291517f8c5be1e5ebec7d5bd14f71427d1e84f3dd0314c0f7b2291e5b200ac8c7c3b9259281900390910190a3505050565b3360009081526005602052604090205460ff168061104657503360009081526006602052604090205460ff165b6110815760405162461bcd60e51b81526004018080602001828103825260368152602001806117936036913960400191505060405180910390fd5b565b6001600160a01b03831661109357fe5b6001600160a01b0382166110a357fe5b6110e6816040518060600160405280602681526020016117eb602691396001600160a01b038616600090815260036020526040902054919063ffffffff61126616565b6001600160a01b03808516600090815260036020526040808220939093559084168152205461111b908263ffffffff6112fd16565b6001600160a01b03808416600081815260036020908152604091829020949094558051858152905191939287169260008051602061197683398151915292918290030190a3505050565b6001600160a01b0381161580159061118657506001600160a01b0381163014155b6111c15760405162461bcd60e51b81526004018080602001828103825260548152602001806119e56054913960600191505060405180910390fd5b6001600160a01b03811660009081526006602052604090205460ff1615801561120357506001600160a01b03811660009081526005602052604090205460ff16155b801561122857506001600160a01b03811660009081526007602052604090205460ff16155b6112635760405162461bcd60e51b815260040180806020018281038252605781526020018061191f6057913960600191505060405180910390fd5b50565b600081848411156112f55760405162461bcd60e51b81526004018080602001828103825283818151815260200191508051906020019080838360005b838110156112ba5781810151838201526020016112a2565b50505050905090810190601f1680156112e75780820380516001836020036101000a031916815260200191505b509250505060405180910390fd5b505050900390565b600082820183811015611357576040805162461bcd60e51b815260206004820152601b60248201527f536166654d6174683a206164646974696f6e206f766572666c6f770000000000604482015290519081900360640190fd5b9392505050565b60015460ff16156110815760405162461bcd60e51b815260040180806020018281038252602681526020018061185e6026913960400191505060405180910390fd5b600a546001600160a01b031633146110815760405162461bcd60e51b815260040180806020018281038252602b8152602001806118cc602b913960400191505060405180910390fd5b6001600160a01b0382166113f957fe5b60005461140c908263ffffffff6112fd16565b60009081556001600160a01b038316815260036020526040902054611437908263ffffffff6112fd16565b6001600160a01b03831660008181526003602090815260408083209490945583518581529351929391926000805160206119768339815191529281900390910190a35050565b3360009081526005602052604090205460ff16806114aa57503360009081526006602052604090205460ff165b806114c457503360009081526007602052604090205460ff165b6110815760405162461bcd60e51b815260040180806020018281038252604d815260200180611811604d913960600191505060405180910390fd5b6001600160a01b03821661150f57fe5b611552816040518060600160405280602281526020016117c9602291396001600160a01b038516600090815260036020526040902054919063ffffffff61126616565b6001600160a01b0383166000908152600360205260408120919091555461157f908263ffffffff61175016565b60009081556040805183815290516001600160a01b03851691600080516020611976833981519152919081900360200190a35050565b600b546001600160a01b031633146110815760405162461bcd60e51b81526004018080602001828103825260238152602001806118a96023913960400191505060405180910390fd5b6001600160a01b038116611659576040805162461bcd60e51b815260206004820152601e60248201527f4163636f756e742063616e6e6f74206265207a65726f20616464726573730000604482015290519081900360640190fd5b803b80610842576040805162461bcd60e51b815260206004820181905260248201527f4163636f756e7420636f64652073697a652063616e6e6f74206265207a65726f604482015290519081900360640190fd5b6009546001600160a01b031633146110815760405162461bcd60e51b81526004018080602001828103825260258152602001806118846025913960400191505060405180910390fd5b4690565b60008383836117076116f6565b6040805160208082019690965280820194909452606084019290925260808301523060a0808401919091528151808403909101815260c090920190528051910120949350505050565b600061135783836040518060400160405280601e81526020017f536166654d6174683a207375627472616374696f6e206f766572666c6f77000081525061126656fe4c5553443a2043616c6c6572206973206e6569746865722054726f76654d616e61676572206e6f722053746162696c697479506f6f6c45524332303a206275726e20616d6f756e7420657863656564732062616c616e636545524332303a207472616e7366657220616d6f756e7420657863656564732062616c616e63654c5553443a2043616c6c6572206973206e65697468657220426f72726f7765724f7065726174696f6e73206e6f722054726f76654d616e61676572206e6f722053746162696c697479506f6f6c4c555344546f6b656e3a204d696e74696e672069732063757272656e746c79207061757365644c5553443a2043616c6c6572206973206e6f74207468652053746162696c697479506f6f6c4c555344546f6b656e3a2043616c6c6572206973206e6f7420476f7665726e616e63654c555344546f6b656e3a2043616c6c6572206973206e6f7420426f72726f7765724f7065726174696f6e7345524332303a207472616e7366657220616d6f756e74206578636565647320616c6c6f77616e63654c5553443a2043616e6e6f74207472616e7366657220746f6b656e73206469726563746c7920746f207468652053746162696c697479506f6f6c2c2054726f76654d616e61676572206f7220426f72726f7765724f7073ddf252ad1be2c89b69c2b068fc378daa952ba7f163c4a11628f55a4df523b3ef4c5553443a2043616c6c6572206973206e6f7420677561726469616e206f7220676f7665726e616e636545524332303a2064656372656173656420616c6c6f77616e63652062656c6f77207a65726f4c5553443a2043616e6e6f74207472616e7366657220746f6b656e73206469726563746c7920746f20746865204c55534420746f6b656e20636f6e7472616374206f7220746865207a65726f2061646472657373a2646970667358221220bd3374595aa69aa63f7e05ed8c034e1ed60e8843afc37d597d57da8901937c1f64736f6c634300060b0033608060405234801561001057600080fd5b50600080546001600160a01b0319163390811782556040519091907f8be0079c531659141344cd1fd0a4f28419497f9722a3daafe3b4186f6b6457e0908290a36110758061005f6000396000f3fe608060405234801561001057600080fd5b50600436106100bf5760003560e01c80639b56d6c91161007c5780639b56d6c914610180578063a3f4df7e146101b8578063a55e866814610235578063b08bc72214610263578063b7f8cf9b1461026b578063ea16003f14610273578063fe9454b4146102a1576100bf565b806336c855df146100c45780634a945f8d146100e85780635a4d28bb1461012857806374448ef9146101305780638da5cb5b1461015c5780638f32d59b14610164575b600080fd5b6100cc6102d7565b604080516001600160a01b039092168252519081900360200190f35b610126600480360360808110156100fe57600080fd5b506001600160a01b0381358116916020810135821691604082013581169160600135166102e6565b005b6100cc61049f565b6101266004803603604081101561014657600080fd5b506001600160a01b0381351690602001356104ae565b6100cc61051f565b61016c61052e565b604080519115158252519081900360200190f35b6101a66004803603602081101561019657600080fd5b50356001600160a01b031661053f565b60408051918252519081900360200190f35b6101c0610566565b6040805160208082528351818301528351919283929083019185019080838360005b838110156101fa5781810151838201526020016101e2565b50505050905090810190601f1680156102275780820380516001836020036101000a031916815260200191505b509250505060405180910390f35b6101a66004803603604081101561024b57600080fd5b506001600160a01b0381358116916020013516610591565b6100cc6105c8565b6100cc6105d7565b6101266004803603604081101561028957600080fd5b506001600160a01b03813581169160200135166105e6565b610126600480360360608110156102b757600080fd5b506001600160a01b03813581169160208101359091169060400135610768565b6001546001600160a01b031681565b6102ee61052e565b61033f576040805162461bcd60e51b815260206004820181905260248201527f4f776e61626c653a2063616c6c6572206973206e6f7420746865206f776e6572604482015290519081900360640190fd5b6103488461081e565b6103518361081e565b61035a8261081e565b6103638161081e565b600180546001600160a01b038087166001600160a01b031992831681179093556002805487831690841617905560038054868316908416179055600480549185169190921617905560408051918252517f6a69409f44477d8556c3c8040edc75d9bc1b3dee7846f6045c0b99556fe7bc919181900360200190a1604080516001600160a01b038516815290517f3ca631ffcd2a9b5d9ae18543fc82f58eb4ca33af9e6ab01b7a8e95331e6ed9859181900360200190a1604080516001600160a01b038416815290517f143219c9e69b09e07e095fcc889b43d8f46ca892bba65f08dc3a0050869a56789181900360200190a1604080516001600160a01b038316815290517f78f058b189175430c48dc02699e3a0031ea4ff781536dc2fab847de4babdd8829181900360200190a16104996108cd565b50505050565b6003546001600160a01b031681565b6104b782610917565b6104bf6109e4565b6001600160a01b0382166000908152600560205260409020546104e8908263ffffffff610a2f16565b6001600160a01b0380841660008181526005602052604090209290925560045461051b929116308463ffffffff610a9016565b5050565b6000546001600160a01b031690565b6000546001600160a01b0316331490565b600061054a82610917565b506001600160a01b031660009081526005602052604090205490565b6040518060400160405280600f81526020016e10dbdb1b14dd5c9c1b1d5cd41bdbdb608a1b81525081565b600061059c82610917565b506001600160a01b03918216600090815260066020908152604080832093909416825291909152205490565b6004546001600160a01b031681565b6002546001600160a01b031681565b6105ef81610917565b6105f7610aea565b6001600160a01b03808316600090815260066020908152604080832093851683529290522054806106595760405162461bcd60e51b8152600401808060200182810382526031815260200180610f386031913960400191505060405180910390fd5b6001600160a01b038084166000818152600660209081526040808320948716808452948252808320839055805194855290840191909152805191927f9e7e85157365034bbcd01bfc0bd32e8756a5c44dc5ef1ddf77ea28346be3ef51929081900390910190a26001600160a01b0382166000908152600560205260409020546106e8908263ffffffff610b3316565b6001600160a01b0380841660008181526005602090815260409182902094909455805191825291861692810192909252818101839052517fe664153eb516123e000bb334869ec912418f6fe4c1abb53fe2f848c947a8405d9181900360600190a16107636001600160a01b038316848363ffffffff610b7516565b505050565b61077182610917565b610779610bc7565b6001600160a01b0380841660009081526006602090815260408083209386168352929052908120546107b1908363ffffffff610a2f16565b6001600160a01b0380861660008181526006602090815260408083209489168084529482529182902085905581519384528301849052805193945090927f9e7e85157365034bbcd01bfc0bd32e8756a5c44dc5ef1ddf77ea28346be3ef519281900390910190a250505050565b6001600160a01b038116610879576040805162461bcd60e51b815260206004820152601e60248201527f4163636f756e742063616e6e6f74206265207a65726f20616464726573730000604482015290519081900360640190fd5b803b8061051b576040805162461bcd60e51b815260206004820181905260248201527f4163636f756e7420636f64652073697a652063616e6e6f74206265207a65726f604482015290519081900360640190fd5b600080546040516001600160a01b03909116907f8be0079c531659141344cd1fd0a4f28419497f9722a3daafe3b4186f6b6457e0908390a3600080546001600160a01b0319169055565b60015460408051630658339960e51b81526001600160a01b0384811660048301529151919092169163cb067320916024808301926020929190829003018186803b15801561096457600080fd5b505afa158015610978573d6000803e3d6000fd5b505050506040513d602081101561098e57600080fd5b50516109e1576040805162461bcd60e51b815260206004820152601a60248201527f496e76616c696420636f6c6c61746572616c2061646472657373000000000000604482015290519081900360640190fd5b50565b6004546001600160a01b03163314610a2d5760405162461bcd60e51b815260040180806020018281038252602a815260200180610f69602a913960400191505060405180910390fd5b565b600082820183811015610a89576040805162461bcd60e51b815260206004820152601b60248201527f536166654d6174683a206164646974696f6e206f766572666c6f770000000000604482015290519081900360640190fd5b9392505050565b604080516001600160a01b0380861660248301528416604482015260648082018490528251808303909101815260849091019091526020810180516001600160e01b03166323b872dd60e01b179052610499908590610c10565b6002546001600160a01b03163314610a2d5760405162461bcd60e51b8152600401808060200182810382526032815260200180610fe36032913960400191505060405180910390fd5b6000610a8983836040518060400160405280601e81526020017f536166654d6174683a207375627472616374696f6e206f766572666c6f770000815250610cc1565b604080516001600160a01b038416602482015260448082018490528251808303909101815260649091019091526020810180516001600160e01b031663a9059cbb60e01b179052610763908490610c10565b6003546001600160a01b03163314610a2d5760405162461bcd60e51b815260040180806020018281038252602b815260200180611015602b913960400191505060405180910390fd5b6060610c65826040518060400160405280602081526020017f5361666545524332303a206c6f772d6c6576656c2063616c6c206661696c6564815250856001600160a01b0316610d589092919063ffffffff16565b80519091501561076357808060200190516020811015610c8457600080fd5b50516107635760405162461bcd60e51b815260040180806020018281038252602a815260200180610fb9602a913960400191505060405180910390fd5b60008184841115610d505760405162461bcd60e51b81526004018080602001828103825283818151815260200191508051906020019080838360005b83811015610d15578181015183820152602001610cfd565b50505050905090810190601f168015610d425780820380516001836020036101000a031916815260200191505b509250505060405180910390fd5b505050900390565b6060610d678484600085610d6f565b949350505050565b606082471015610db05760405162461bcd60e51b8152600401808060200182810382526026815260200180610f936026913960400191505060405180910390fd5b610db985610ecb565b610e0a576040805162461bcd60e51b815260206004820152601d60248201527f416464726573733a2063616c6c20746f206e6f6e2d636f6e7472616374000000604482015290519081900360640190fd5b60006060866001600160a01b031685876040518082805190602001908083835b60208310610e495780518252601f199092019160209182019101610e2a565b6001836020036101000a03801982511681845116808217855250505050505090500191505060006040518083038185875af1925050503d8060008114610eab576040519150601f19603f3d011682016040523d82523d6000602084013e610eb0565b606091505b5091509150610ec0828286610ed1565b979650505050505050565b3b151590565b60608315610ee0575081610a89565b825115610ef05782518084602001fd5b60405162461bcd60e51b8152602060048201818152845160248401528451859391928392604401919085019080838360008315610d15578181015183820152602001610cfd56fe436f6c6c537572706c7573506f6f6c3a204e6f20636f6c6c61746572616c20617661696c61626c6520746f20636c61696d436f6c6c537572706c7573506f6f6c3a2043616c6c6572206973206e6f742041637469766520506f6f6c416464726573733a20696e73756666696369656e742062616c616e636520666f722063616c6c5361666545524332303a204552433230206f7065726174696f6e20646964206e6f742073756363656564436f6c6c537572706c7573506f6f6c3a2043616c6c6572206973206e6f7420426f72726f776572204f7065726174696f6e73436f6c6c537572706c7573506f6f6c3a2043616c6c6572206973206e6f742054726f76654d616e61676572a2646970667358221220c5d703e0ff680aebb6e201da4ff39ab36854725fa3a134d69dbdfcad4c8d1ab564736f6c634300060b0033608060405234801561001057600080fd5b506101c5806100206000396000f3fe608060405234801561001057600080fd5b50600436106100405760003560e01c8062e4768b1461004557806341976e0914610085578063ace1798e146100bd575b600080fd5b6100716004803603604081101561005b57600080fd5b506001600160a01b0381351690602001356100e3565b604080519115158252519081900360200190f35b6100ab6004803603602081101561009b57600080fd5b50356001600160a01b0316610103565b60408051918252519081900360200190f35b6100ab600480360360208110156100d357600080fd5b50356001600160a01b031661011e565b6001600160a01b0391909116600090815260208190526040902055600190565b6001600160a01b031660009081526020819052604090205490565b6001600160a01b03811660008181526020818152604080832054815194855291840191909152805191927f9a696fe6a955b23852e2b245b6847dfda7d8944623d9b42628e087344ad17963929081900390910190a1506001600160a01b03166000908152602081905260409020549056fea2646970667358221220a25effacb3e00fb5d57562e15c8803b310adfac5cffa5ef861c868f3185625cb64736f6c634300060b0033608060405234801561001057600080fd5b50600080546001600160a01b0319163390811782556040519091907f8be0079c531659141344cd1fd0a4f28419497f9722a3daafe3b4186f6b6457e0908290a3611b098061005f6000396000f3fe608060405234801561001057600080fd5b50600436106101115760003560e01c80638da5cb5b116100ad578063bc9b5bd511610071578063bc9b5bd5146103af578063bff365c4146103f5578063e71b840014610457578063eceea2fb14610485578063ed26cae8146104c157610111565b80638da5cb5b146102ca5780638f32d59b146102d2578063a3f4df7e146102da578063b7f8cf9b14610357578063b90d3d0c1461035f57610111565b80631bdb4c8d1461011657806339ed25cd146101585780633b725b23146101865780633d83908a146101c0578063504f1671146101c857806376082715146102005780637c933c0a146102265780637f6594a81461026e5780637f7c14911461029c575b600080fd5b61013c6004803603602081101561012c57600080fd5b50356001600160a01b03166104ef565b604080516001600160a01b039092168252519081900360200190f35b61013c6004803603604081101561016e57600080fd5b506001600160a01b038135811691602001351661050d565b6101ac6004803603602081101561019c57600080fd5b50356001600160a01b031661053f565b604080519115158252519081900360200190f35b61013c61055e565b6101ee600480360360208110156101de57600080fd5b50356001600160a01b031661056d565b60408051918252519081900360200190f35b61013c6004803603602081101561021657600080fd5b50356001600160a01b031661058b565b61026c600480360360a081101561023c57600080fd5b506001600160a01b03813581169160208101358216916040820135916060810135821691608090910135166105ac565b005b61026c6004803603604081101561028457600080fd5b506001600160a01b03813581169160200135166105d7565b61026c600480360360408110156102b257600080fd5b506001600160a01b03813581169160200135166106ea565b61013c6106fc565b6101ac61070b565b6102e261071c565b6040805160208082528351818301528351919283929083019185019080838360005b8381101561031c578181015183820152602001610304565b50505050905090810190601f1680156103495780820380516001836020036101000a031916815260200191505b509250505060405180910390f35b61013c610744565b6103856004803603602081101561037557600080fd5b50356001600160a01b0316610753565b604080516001600160a01b0394851681529290931660208301528183015290519081900360600190f35b61026c600480360360a08110156103c557600080fd5b506001600160a01b0381358116916020810135821691604082013591606081013582169160809091013516610781565b6104316004803603608081101561040b57600080fd5b506001600160a01b03813581169160208101359160408201358116916060013516610832565b604080516001600160a01b03938416815291909216602082015281519081900390910190f35b61013c6004803603604081101561046d57600080fd5b506001600160a01b038135811691602001351661085e565b6101ac6004803603608081101561049b57600080fd5b506001600160a01b0381358116916020810135916040820135811691606001351661088e565b6101ac600480360360408110156104d757600080fd5b506001600160a01b03813581169160200135166108b3565b6001600160a01b039081166000908152600360205260409020541690565b6001600160a01b0391821660009081526003602081815260408084209486168452939091019052205461010090041690565b6001600160a01b03166000908152600360205260409020600201541590565b6002546001600160a01b031681565b6001600160a01b031660009081526003602052604090206002015490565b6001600160a01b039081166000908152600360205260409020600101541690565b6002546001600160a01b03166105c1816108e2565b6105cf818787878787610941565b505050505050565b6105df61070b565b610630576040805162461bcd60e51b815260206004820181905260248201527f4f776e61626c653a2063616c6c6572206973206e6f7420746865206f776e6572604482015290519081900360640190fd5b61063982610d02565b61064281610d02565b600280546001600160a01b038085166001600160a01b03199283168117909355600180549185169190921617905560408051918252517f143219c9e69b09e07e095fcc889b43d8f46ca892bba65f08dc3a0050869a56789181900360200190a1604080516001600160a01b038316815290517f3ca631ffcd2a9b5d9ae18543fc82f58eb4ca33af9e6ab01b7a8e95331e6ed9859181900360200190a16106e6610db1565b5050565b6106f2610dfb565b6106e68282610e46565b6000546001600160a01b031690565b6000546001600160a01b0316331490565b6040518060400160405280600c81526020016b536f7274656454726f76657360a01b81525081565b6001546001600160a01b031681565b6003602052600090815260409020805460018201546002909201546001600160a01b03918216929091169083565b6002546001600160a01b0316610796816108e2565b6107a085876108b3565b6107db5760405162461bcd60e51b815260040180806020018281038252602a815260200180611a2e602a913960400191505060405180910390fd5b6000841161081a5760405162461bcd60e51b8152600401808060200182810382526023815260200180611ab16023913960400191505060405180910390fd5b6108248587610e46565b6105cf818688878787610941565b6002546000908190610850906001600160a01b031687878787611137565b915091505b94509492505050565b6001600160a01b039182166000908152600360208181526040808420948616845293909101905220600101541690565b6002546000906108aa906001600160a01b031686868686611333565b95945050505050565b6001600160a01b0391821660009081526003602081815260408084209490951683529201909152205460ff1690565b6001546001600160a01b03163314806109035750336001600160a01b038216145b61093e5760405162461bcd60e51b815260040180806020018281038252602d815260200180611a84602d913960400191505060405180910390fd5b50565b61094b85856108b3565b156109875760405162461bcd60e51b815260040180806020018281038252602c815260200180611a02602c913960400191505060405180910390fd5b6001600160a01b0384166109e2576040805162461bcd60e51b815260206004820152601f60248201527f536f7274656454726f7665733a2049642063616e6e6f74206265207a65726f00604482015290519081900360640190fd5b60008311610a215760405162461bcd60e51b8152600401808060200182810382526023815260200180611ab16023913960400191505060405180910390fd5b8181610a308888878585611333565b610a4757610a418888878585611137565b90925090505b6001600160a01b0380881660009081526003602081815260408084208b8616855290920190529020805460ff191660011790558216158015610a9057506001600160a01b038116155b15610ad5576001600160a01b03808816600090815260036020526040902080549188166001600160a01b03199283168117825560019091018054909216179055610c67565b6001600160a01b038216610b60576001600160a01b03878116600081815260036020818152604080842080548d881680875282860185528387208054928a1661010002610100600160a81b0319909316929092179091558154909716855290842060010180546001600160a01b03199081168817909155949093525280549091169091179055610c67565b6001600160a01b038116610be5576001600160a01b038781166000818152600360208181526040808420600180820180548f8a1680895293870186528488209092018054928a166001600160a01b0319938416179055805490981686529185208054610100600160a81b03191661010083021790559490935252825416179055610c67565b6001600160a01b0387811660009081526003602081815260408084208b861680865293019091528083208054868616610100818102610100600160a81b031993841617845560019384018054988b166001600160a01b0319998a1681179091558752848720805491870291909316179091558452922090910180549092161790555b6001600160a01b038716600090815260036020526040902060020154610c9490600163ffffffff6115fa16565b6001600160a01b0380891660008181526003602090815260409182902060020194909455805191825291891692810192909252818101879052517fa74a9cd584cc27d44e7f746f6715fae75b600cc5eb8f85a95752788d6b4547a59181900360600190a15050505050505050565b6001600160a01b038116610d5d576040805162461bcd60e51b815260206004820152601e60248201527f4163636f756e742063616e6e6f74206265207a65726f20616464726573730000604482015290519081900360640190fd5b803b806106e6576040805162461bcd60e51b815260206004820181905260248201527f4163636f756e7420636f64652073697a652063616e6e6f74206265207a65726f604482015290519081900360640190fd5b600080546040516001600160a01b03909116907f8be0079c531659141344cd1fd0a4f28419497f9722a3daafe3b4186f6b6457e0908390a3600080546001600160a01b0319169055565b6002546001600160a01b03163314610e445760405162461bcd60e51b815260040180806020018281038252602c815260200180611a58602c913960400191505060405180910390fd5b565b610e5082826108b3565b610e8b5760405162461bcd60e51b815260040180806020018281038252602a815260200180611a2e602a913960400191505060405180910390fd5b6001600160a01b0382166000908152600360205260409020600201546001101561103b576001600160a01b0380831660009081526003602052604090205482821691161415610f32576001600160a01b038281166000908152600360208181526040808420868616855292830190915280832054825461010090910485166001600160a01b0319918216179283905591909316825291902060010180549091169055611036565b6001600160a01b0380831660009081526003602052604090206001015482821691161415610fbc576001600160a01b0382811660009081526003602081815260408084208686168552928301909152808320600190810154920180546001600160a01b031916928516929092179182905592168152208054610100600160a81b0319169055611036565b6001600160a01b03828116600090815260036020818152604080842086861685529092019052808220805460018083018054871686528486208054610100600160a81b0319166101009485900489168502179055549254919091048516845291909220018054919092166001600160a01b03199091161790555b611070565b6001600160a01b038216600090815260036020526040902080546001600160a01b031990811682556001909101805490911690555b6001600160a01b03808316600081815260036020818152604080842095871684528583018252832080546001600160a81b0319168155600190810180546001600160a01b03191690559390925290526002909101546110d49163ffffffff61165b16565b6001600160a01b038084166000818152600360209081526040918290206002019490945580519182529184169281019290925280517f202321eaea3aa2b5e1e2ef1dfd98a9d6ba8c90e293f5dc2755b32eb921a477979281900390910190a15050565b60008083836001600160a01b038216156111e75761115588836108b3565b15806111dd5750604080516390ec230160e01b81526001600160a01b0384811660048301528a811660248301529151918b16916390ec230191604480820192602092909190829003018186803b1580156111ae57600080fd5b505afa1580156111c2573d6000803e3d6000fd5b505050506040513d60208110156111d857600080fd5b505187115b156111e757600091505b6001600160a01b038116156112915761120088826108b3565b15806112885750604080516390ec230160e01b81526001600160a01b0383811660048301528a811660248301529151918b16916390ec230191604480820192602092909190829003018186803b15801561125957600080fd5b505afa15801561126d573d6000803e3d6000fd5b505050506040513d602081101561128357600080fd5b505187105b15611291575060005b6001600160a01b0382161580156112af57506001600160a01b038116155b156112e9576001600160a01b038089166000908152600360205260409020546112de918b918b918b911661169d565b935093505050611329565b6001600160a01b038216611303576112de89898984611805565b6001600160a01b03811661131d576112de8989898561169d565b6112de8989898561169d565b9550959350505050565b60006001600160a01b03831615801561135357506001600160a01b038216155b15611368576113618561053f565b90506108aa565b6001600160a01b038316611425576001600160a01b0385811660009081526003602052604090205481169083161480156113615750604080516390ec230160e01b81526001600160a01b03848116600483015287811660248301529151918816916390ec230191604480820192602092909190829003018186803b1580156113ef57600080fd5b505afa158015611403573d6000803e3d6000fd5b505050506040513d602081101561141957600080fd5b505184101590506108aa565b6001600160a01b0382166114e5576001600160a01b0385811660009081526003602052604090206001015481169084161480156113615750604080516390ec230160e01b81526001600160a01b03858116600483015287811660248301529151918816916390ec230191604480820192602092909190829003018186803b1580156114af57600080fd5b505afa1580156114c3573d6000803e3d6000fd5b505050506040513d60208110156114d957600080fd5b505184111590506108aa565b6001600160a01b03858116600090815260036020818152604080842088861685529092019052902054610100900481169083161480156115a15750604080516390ec230160e01b81526001600160a01b0385811660048301528781166024830152915186928916916390ec2301916044808301926020929190829003018186803b15801561157257600080fd5b505afa158015611586573d6000803e3d6000fd5b505050506040513d602081101561159c57600080fd5b505110155b80156113615750604080516390ec230160e01b81526001600160a01b03848116600483015287811660248301529151918816916390ec230191604480820192602092909190829003018186803b1580156113ef57600080fd5b600082820183811015611654576040805162461bcd60e51b815260206004820152601b60248201527f536166654d6174683a206164646974696f6e206f766572666c6f770000000000604482015290519081900360640190fd5b9392505050565b600061165483836040518060400160405280601e81526020017f536166654d6174683a207375627472616374696f6e206f766572666c6f77000081525061196a565b6001600160a01b0383811660009081526003602052604081205490918291811690841614801561174a5750604080516390ec230160e01b81526001600160a01b03858116600483015287811660248301529151918816916390ec230191604480820192602092909190829003018186803b15801561171a57600080fd5b505afa15801561172e573d6000803e3d6000fd5b505050506040513d602081101561174457600080fd5b50518410155b1561175a57506000905081610855565b6001600160a01b038086166000908152600360208181526040808420858916855290920190529020548491610100909104165b6001600160a01b038216158015906117af57506117ad8888888585611333565b155b156117f857506001600160a01b0386811660009081526003602081815260408084209585168452949091019052828120546101009081900483168083529390912054041661178d565b9097909650945050505050565b6001600160a01b038381166000908152600360205260408120600101549091829181169084161480156118b55750604080516390ec230160e01b81526001600160a01b03858116600483015287811660248301529151918816916390ec230191604480820192602092909190829003018186803b15801561188557600080fd5b505afa158015611899573d6000803e3d6000fd5b505050506040513d60208110156118af57600080fd5b50518411155b156118c557508190506000610855565b6001600160a01b038086166000908152600360208181526040808420858916855290920190529020600101548491165b6001600160a01b0382161580159061191757506119158888888486611333565b155b1561195e57506001600160a01b03868116600090815260036020818152604080842095851684529490910190528281206001908101548316808352939091200154166118f5565b97909650945050505050565b600081848411156119f95760405162461bcd60e51b81526004018080602001828103825283818151815260200191508051906020019080838360005b838110156119be5781810151838201526020016119a6565b50505050905090810190601f1680156119eb5780820380516001836020036101000a031916815260200191505b509250505060405180910390fd5b50505090039056fe536f7274656454726f7665733a204c69737420616c726561647920636f6e7461696e7320746865206e6f6465536f7274656454726f7665733a204c69737420646f6573206e6f7420636f6e7461696e20746865206964536f7274656454726f7665733a2043616c6c6572206973206e6f74207468652054726f76654d616e61676572536f7274656454726f7665733a2043616c6c6572206973206e65697468657220424f206e6f722054726f76654d536f7274656454726f7665733a204e494352206d75737420626520706f736974697665a2646970667358221220b5ef7745a8f6c1266431ae7c9048cc8e72c2746adfe5420f98d1668efda0804564736f6c634300060b0033608060405234801561001057600080fd5b5060405161138c38038061138c8339818101604052608081101561003357600080fd5b50805160208201516040830151606090930151600080546001600160a01b039485166001600160a01b03199182161790915560018054938516938216939093179092556002805494841694831694909417909355600380549290931691161790556112e9806100a36000396000f3fe608060405234801561001057600080fd5b50600436106100f65760003560e01c8063a13edfda11610092578063a13edfda146102b3578063a819ee1b1461030a578063ba82dbd914610352578063c23922271461038e578063c89c3bc21461040e578063cc51a6c214610465578063cf83544f14610491578063d466e4eb146104bd578063d94bcec2146104e9576100f6565b80630121ff8a146100fb5780630970f5d614610141578063390b5f271461016d57806339f14955146101ad578063618dcfc0146101db578063641b09b6146101f85780637b8244a2146102155780637dcfc4d11461023b5780638ebb2f3814610277575b600080fd5b61013f600480360360a081101561011157600080fd5b506001600160a01b03813581169160208101359160408201358116916060810135909116906080013561051f565b005b61013f6004803603604081101561015757600080fd5b506001600160a01b0381351690602001356105aa565b6101996004803603604081101561018357600080fd5b506001600160a01b038135169060200135610618565b604080519115158252519081900360200190f35b61013f600480360360408110156101c357600080fd5b506001600160a01b03813581169160200135166106a4565b61013f600480360360208110156101f157600080fd5b50356106f7565b61013f6004803603602081101561020e57600080fd5b503561075f565b61013f6004803603602081101561022b57600080fd5b50356001600160a01b03166107ac565b61013f6004803603608081101561025157600080fd5b506001600160a01b038135811691602081013591604082013581169160600135166107fa565b61013f6004803603608081101561028d57600080fd5b506001600160a01b038135811691602081013591604082013581169160600135166108b8565b61013f60048036036101008110156102ca57600080fd5b506001600160a01b038135811691602081013591604082013591606081013591608082013515159160a081013582169160c0820135169060e0013561091d565b61013f600480360360c081101561032057600080fd5b506001600160a01b03813581169160208101359160408201359160608101358216916080820135169060a001356109fd565b61013f6004803603608081101561036857600080fd5b506001600160a01b03813581169160208101359160408201358116916060013516610acb565b61013f600480360360408110156103a457600080fd5b6001600160a01b0382351691908101906040810160208201356401000000008111156103cf57600080fd5b8201836020820111156103e157600080fd5b8035906020019184602083028401116401000000008311171561040357600080fd5b509092509050610b30565b61013f600480360361010081101561042557600080fd5b506001600160a01b038135811691602081013591604082013581169160608101358216916080820135169060a08101359060c08101359060e00135610bd2565b6101996004803603604081101561047b57600080fd5b506001600160a01b038135169060200135610c52565b610199600480360360408110156104a757600080fd5b506001600160a01b038135169060200135610cab565b610199600480360360408110156104d357600080fd5b506001600160a01b038135169060200135610d04565b610199600480360360608110156104ff57600080fd5b506001600160a01b03813581169160208101359091169060400135610d5d565b60015460408051635e66c92160e01b81526001600160a01b03888116600483015260248201859052604482018890528681166064830152858116608483015291519190921691635e66c9219160a480830192600092919082900301818387803b15801561058b57600080fd5b505af115801561059f573d6000803e3d6000fd5b505050505050505050565b6000805460408051637f55115760e01b81526001600160a01b0386811660048301526024820186905291519190921692637f551157926044808201939182900301818387803b1580156105fc57600080fd5b505af1158015610610573d6000803e3d6000fd5b505050505050565b6003546040805163a9059cbb60e01b81526001600160a01b038581166004830152602482018590529151600093929092169163a9059cbb9160448082019260209290919082900301818787803b15801561067157600080fd5b505af1158015610685573d6000803e3d6000fd5b505050506040513d602081101561069b57600080fd5b50519392505050565b60008054604080516386b9d81f60e01b81526001600160a01b0386811660048301528581166024830152915191909216926386b9d81f926044808201939182900301818387803b1580156105fc57600080fd5b60025460408051631e31de8960e21b81526004810184905290516001600160a01b03909216916378c77a249160248082019260009290919082900301818387803b15801561074457600080fd5b505af1158015610758573d6000803e3d6000fd5b5050505050565b60025460408051632e54bf9560e01b81526004810184905290516001600160a01b0390921691632e54bf959160248082019260009290919082900301818387803b15801561074457600080fd5b600154604080516365e89c5760e11b81526001600160a01b0384811660048301529151919092169163cbd138ae91602480830192600092919082900301818387803b15801561074457600080fd5b6108156001600160a01b03851633308663ffffffff610df416565b600154610835906001600160a01b0386811691168563ffffffff610e5416565b600154604080516348a4a39d60e01b81526001600160a01b0387811660048301526024820187905285811660448301528481166064830152915191909216916348a4a39d91608480830192600092919082900301818387803b15801561089a57600080fd5b505af11580156108ae573d6000803e3d6000fd5b5050505050505050565b600154604080516349b010c560e01b81526001600160a01b0387811660048301526024820187905285811660448301528481166064830152915191909216916349b010c591608480830192600092919082900301818387803b15801561089a57600080fd5b6109386001600160a01b03891633308a63ffffffff610df416565b600154610958906001600160a01b038a811691168963ffffffff610e5416565b60015460408051637439902160e01b81526001600160a01b038b8116600483015260248201859052604482018b9052606482018a90526084820189905287151560a483015286811660c483015285811660e48301529151919092169163743990219161010480830192600092919082900301818387803b1580156109db57600080fd5b505af11580156109ef573d6000803e3d6000fd5b505050505050505050505050565b610a186001600160a01b03871633308863ffffffff610df416565b600154610a38906001600160a01b0388811691168763ffffffff610e5416565b60015460408051633ed058fd60e11b81526001600160a01b038981166004830152602482018990526044820185905260648201889052868116608483015285811660a483015291519190921691637da0b1fa9160c480830192600092919082900301818387803b158015610aab57600080fd5b505af1158015610abf573d6000803e3d6000fd5b50505050505050505050565b60015460408051634351f2cd60e11b81526001600160a01b0387811660048301526024820187905285811660448301528481166064830152915191909216916386a3e59a91608480830192600092919082900301818387803b15801561089a57600080fd5b60005460408051637c92590f60e01b81526001600160a01b03868116600483019081526024830193845260448301869052931692637c92590f928792879287929091606401846020850280828437600081840152601f19601f820116905080830192505050945050505050600060405180830381600087803b158015610bb557600080fd5b505af1158015610bc9573d6000803e3d6000fd5b50505050505050565b60008054604080516340a44bd160e01b81526001600160a01b038c81166004830152602482018c90528a811660448301528981166064830152888116608483015260a4820188905260c4820187905260e48201869052915191909216926340a44bd192610104808201939182900301818387803b1580156109db57600080fd5b60035460408051633950935160e01b81526001600160a01b038581166004830152602482018590529151600093929092169163395093519160448082019260209290919082900301818787803b15801561067157600080fd5b6003546040805163095ea7b360e01b81526001600160a01b038581166004830152602482018590529151600093929092169163095ea7b39160448082019260209290919082900301818787803b15801561067157600080fd5b6003546040805163a457c2d760e01b81526001600160a01b038581166004830152602482018590529151600093929092169163a457c2d79160448082019260209290919082900301818787803b15801561067157600080fd5b600354604080516323b872dd60e01b81526001600160a01b038681166004830152858116602483015260448201859052915160009392909216916323b872dd9160648082019260209290919082900301818787803b158015610dbe57600080fd5b505af1158015610dd2573d6000803e3d6000fd5b505050506040513d6020811015610de857600080fd5b505190505b9392505050565b604080516001600160a01b0380861660248301528416604482015260648082018490528251808303909101815260849091019091526020810180516001600160e01b03166323b872dd60e01b179052610e4e908590610f36565b50505050565b60408051636eb1769f60e11b81523060048201526001600160a01b0384811660248301529151600092610ee59285929188169163dd62ed3e91604480820192602092909190829003018186803b158015610ead57600080fd5b505afa158015610ec1573d6000803e3d6000fd5b505050506040513d6020811015610ed757600080fd5b50519063ffffffff610fec16565b604080516001600160a01b038616602482015260448082018490528251808303909101815260649091019091526020810180516001600160e01b031663095ea7b360e01b179052909150610e4e9085905b6060610f8b826040518060400160405280602081526020017f5361666545524332303a206c6f772d6c6576656c2063616c6c206661696c6564815250856001600160a01b03166110469092919063ffffffff16565b805190915015610fe757808060200190516020811015610faa57600080fd5b5051610fe75760405162461bcd60e51b815260040180806020018281038252602a81526020018061128a602a913960400191505060405180910390fd5b505050565b600082820183811015610ded576040805162461bcd60e51b815260206004820152601b60248201527f536166654d6174683a206164646974696f6e206f766572666c6f770000000000604482015290519081900360640190fd5b6060611055848460008561105d565b949350505050565b60608247101561109e5760405162461bcd60e51b81526004018080602001828103825260268152602001806112646026913960400191505060405180910390fd5b6110a7856111b9565b6110f8576040805162461bcd60e51b815260206004820152601d60248201527f416464726573733a2063616c6c20746f206e6f6e2d636f6e7472616374000000604482015290519081900360640190fd5b60006060866001600160a01b031685876040518082805190602001908083835b602083106111375780518252601f199092019160209182019101611118565b6001836020036101000a03801982511681845116808217855250505050505090500191505060006040518083038185875af1925050503d8060008114611199576040519150601f19603f3d011682016040523d82523d6000602084013e61119e565b606091505b50915091506111ae8282866111bf565b979650505050505050565b3b151590565b606083156111ce575081610ded565b8251156111de5782518084602001fd5b8160405162461bcd60e51b81526004018080602001828103825283818151815260200191508051906020019080838360005b83811015611228578181015183820152602001611210565b50505050905090810190601f1680156112555780820380516001836020036101000a031916815260200191505b509250505060405180910390fdfe416464726573733a20696e73756666696369656e742062616c616e636520666f722063616c6c5361666545524332303a204552433230206f7065726174696f6e20646964206e6f742073756363656564a2646970667358221220cc536374910d974500c2966828268b9443efa789899032f4905dadd4ab2f7b6664736f6c634300060b0033",
  "linkReferences": {},
  "deployedLinkReferences": {}
}