{
  "_format": "hh-sol-artifact-1",
  "contractName": "LUSDToken",
  "sourceName": "contracts/LUSDToken.sol",
  "abi": [
    {
      "inputs": [
        {
          "internalType": "address",
          "name": "_troveManagerAddress",
          "type": "address"
        },
        {
          "internalType": "address",
          "name": "_stabilityPoolAddress",
          "type": "address"
        },
        {
          "internalType": "address",
          "name": "_borrowerOperationsAddress",
          "type": "address"
        },
        {
          "internalType": "address",
          "name": "_governanceAddress",
          "type": "address"
        },
        {
          "internalType": "address",
          "name": "_guardianAddress",
          "type": "address"
        }
      ],
      "stateMutability": "nonpayable",
      "type": "constructor"
    },
    {
      "anonymous": false,
      "inputs": [
        {
          "indexed": true,
          "internalType": "address",
          "name": "owner",
          "type": "address"
        },
        {
          "indexed": true,
          "internalType": "address",
          "name": "spender",
          "type": "address"
        },
        {
          "indexed": false,
          "internalType": "uint256",
          "name": "value",
          "type": "uint256"
        }
      ],
      "name": "Approval",
      "type": "event"
    },
    {
      "anonymous": false,
      "inputs": [
        {
          "indexed": false,
          "internalType": "address",
          "name": "_newBorrowerOperationsAddress",
          "type": "address"
        }
      ],
      "name": "BorrowerOperationsAddressChanged",
      "type": "event"
    },
    {
      "anonymous": false,
      "inputs": [
        {
          "indexed": false,
          "internalType": "address",
          "name": "_governanceAddress",
          "type": "address"
        }
      ],
      "name": "GovernanceAddressChanged",
      "type": "event"
    },
    {
      "anonymous": false,
      "inputs": [
        {
          "indexed": false,
          "internalType": "address",
          "name": "_guardianAddress",
          "type": "address"
        }
      ],
      "name": "GuardianAddressChanged",
      "type": "event"
    },
    {
      "anonymous": false,
      "inputs": [
        {
          "indexed": false,
          "internalType": "address",
          "name": "_user",
          "type": "address"
        },
        {
          "indexed": false,
          "internalType": "uint256",
          "name": "_amount",
          "type": "uint256"
        }
      ],
      "name": "LUSDTokenBalanceUpdated",
      "type": "event"
    },
    {
      "anonymous": false,
      "inputs": [
        {
          "indexed": false,
          "internalType": "address",
          "name": "_newStabilityPoolAddress",
          "type": "address"
        }
      ],
      "name": "StabilityPoolAddressChanged",
      "type": "event"
    },
    {
      "anonymous": false,
      "inputs": [
        {
          "indexed": true,
          "internalType": "address",
          "name": "from",
          "type": "address"
        },
        {
          "indexed": true,
          "internalType": "address",
          "name": "to",
          "type": "address"
        },
        {
          "indexed": false,
          "internalType": "uint256",
          "name": "value",
          "type": "uint256"
        }
      ],
      "name": "Transfer",
      "type": "event"
    },
    {
      "anonymous": false,
      "inputs": [
        {
          "indexed": false,
          "internalType": "address",
          "name": "_troveManagerAddress",
          "type": "address"
        }
      ],
      "name": "TroveManagerAddressChanged",
      "type": "event"
    },
    {
      "inputs": [
        {
          "internalType": "address",
          "name": "owner",
          "type": "address"
        },
        {
          "internalType": "address",
          "name": "spender",
          "type": "address"
        }
      ],
      "name": "allowance",
      "outputs": [
        {
          "internalType": "uint256",
          "name": "",
          "type": "uint256"
        }
      ],
      "stateMutability": "view",
      "type": "function"
    },
    {
      "inputs": [
        {
          "internalType": "address",
          "name": "spender",
          "type": "address"
        },
        {
          "internalType": "uint256",
          "name": "amount",
          "type": "uint256"
        }
      ],
      "name": "approve",
      "outputs": [
        {
          "internalType": "bool",
          "name": "",
          "type": "bool"
        }
      ],
      "stateMutability": "nonpayable",
      "type": "function"
    },
    {
      "inputs": [
        {
          "internalType": "address",
          "name": "account",
          "type": "address"
        }
      ],
      "name": "balanceOf",
      "outputs": [
        {
          "internalType": "uint256",
          "name": "",
          "type": "uint256"
        }
      ],
      "stateMutability": "view",
      "type": "function"
    },
    {
      "inputs": [
        {
          "internalType": "address",
          "name": "",
          "type": "address"
        }
      ],
      "name": "borrowerOperations",
      "outputs": [
        {
          "internalType": "bool",
          "name": "",
          "type": "bool"
        }
      ],
      "stateMutability": "view",
      "type": "function"
    },
    {
      "inputs": [],
      "name": "borrowerOperationsAddress",
      "outputs": [
        {
          "internalType": "address",
          "name": "",
          "type": "address"
        }
      ],
      "stateMutability": "view",
      "type": "function"
    },
    {
      "inputs": [
        {
          "internalType": "address",
          "name": "_account",
          "type": "address"
        },
        {
          "internalType": "uint256",
          "name": "_amount",
          "type": "uint256"
        }
      ],
      "name": "burn",
      "outputs": [],
      "stateMutability": "nonpayable",
      "type": "function"
    },
    {
      "inputs": [],
      "name": "decimals",
      "outputs": [
        {
          "internalType": "uint8",
          "name": "",
          "type": "uint8"
        }
      ],
      "stateMutability": "view",
      "type": "function"
    },
    {
      "inputs": [
        {
          "internalType": "address",
          "name": "spender",
          "type": "address"
        },
        {
          "internalType": "uint256",
          "name": "subtractedValue",
          "type": "uint256"
        }
      ],
      "name": "decreaseAllowance",
      "outputs": [
        {
          "internalType": "bool",
          "name": "",
          "type": "bool"
        }
      ],
      "stateMutability": "nonpayable",
      "type": "function"
    },
    {
      "inputs": [],
      "name": "domainSeparator",
      "outputs": [
        {
          "internalType": "bytes32",
          "name": "",
          "type": "bytes32"
        }
      ],
      "stateMutability": "view",
      "type": "function"
    },
    {
      "inputs": [],
      "name": "getDeploymentStartTime",
      "outputs": [
        {
          "internalType": "uint256",
          "name": "",
          "type": "uint256"
        }
      ],
      "stateMutability": "view",
      "type": "function"
    },
    {
      "inputs": [],
      "name": "governanceAddress",
      "outputs": [
        {
          "internalType": "address",
          "name": "",
          "type": "address"
        }
      ],
      "stateMutability": "view",
      "type": "function"
    },
    {
      "inputs": [],
      "name": "guardianAddress",
      "outputs": [
        {
          "internalType": "address",
          "name": "",
          "type": "address"
        }
      ],
      "stateMutability": "view",
      "type": "function"
    },
    {
      "inputs": [
        {
          "internalType": "address",
          "name": "spender",
          "type": "address"
        },
        {
          "internalType": "uint256",
          "name": "addedValue",
          "type": "uint256"
        }
      ],
      "name": "increaseAllowance",
      "outputs": [
        {
          "internalType": "bool",
          "name": "",
          "type": "bool"
        }
      ],
      "stateMutability": "nonpayable",
      "type": "function"
    },
    {
      "inputs": [
        {
          "internalType": "address",
          "name": "_account",
          "type": "address"
        },
        {
          "internalType": "uint256",
          "name": "_amount",
          "type": "uint256"
        }
      ],
      "name": "mint",
      "outputs": [],
      "stateMutability": "nonpayable",
      "type": "function"
    },
    {
      "inputs": [],
      "name": "mintingPaused",
      "outputs": [
        {
          "internalType": "bool",
          "name": "",
          "type": "bool"
        }
      ],
      "stateMutability": "view",
      "type": "function"
    },
    {
      "inputs": [],
      "name": "name",
      "outputs": [
        {
          "internalType": "string",
          "name": "",
          "type": "string"
        }
      ],
      "stateMutability": "view",
      "type": "function"
    },
    {
      "inputs": [
        {
          "internalType": "address",
          "name": "owner",
          "type": "address"
        }
      ],
      "name": "nonces",
      "outputs": [
        {
          "internalType": "uint256",
          "name": "",
          "type": "uint256"
        }
      ],
      "stateMutability": "view",
      "type": "function"
    },
    {
      "inputs": [],
      "name": "pauseMinting",
      "outputs": [],
      "stateMutability": "nonpayable",
      "type": "function"
    },
    {
      "inputs": [
        {
          "internalType": "address",
          "name": "owner",
          "type": "address"
        },
        {
          "internalType": "address",
          "name": "spender",
          "type": "address"
        },
        {
          "internalType": "uint256",
          "name": "amount",
          "type": "uint256"
        },
        {
          "internalType": "uint256",
          "name": "deadline",
          "type": "uint256"
        },
        {
          "internalType": "uint8",
          "name": "v",
          "type": "uint8"
        },
        {
          "internalType": "bytes32",
          "name": "r",
          "type": "bytes32"
        },
        {
          "internalType": "bytes32",
          "name": "s",
          "type": "bytes32"
        }
      ],
      "name": "permit",
      "outputs": [],
      "stateMutability": "nonpayable",
      "type": "function"
    },
    {
      "inputs": [],
      "name": "permitTypeHash",
      "outputs": [
        {
          "internalType": "bytes32",
          "name": "",
          "type": "bytes32"
        }
      ],
      "stateMutability": "view",
      "type": "function"
    },
    {
      "inputs": [
        {
          "internalType": "address",
          "name": "_poolAddress",
          "type": "address"
        },
        {
          "internalType": "address",
          "name": "_receiver",
          "type": "address"
        },
        {
          "internalType": "uint256",
          "name": "_amount",
          "type": "uint256"
        }
      ],
      "name": "returnFromPool",
      "outputs": [],
      "stateMutability": "nonpayable",
      "type": "function"
    },
    {
      "inputs": [
        {
          "internalType": "address",
          "name": "_sender",
          "type": "address"
        },
        {
          "internalType": "address",
          "name": "_poolAddress",
          "type": "address"
        },
        {
          "internalType": "uint256",
          "name": "_amount",
          "type": "uint256"
        }
      ],
      "name": "sendToPool",
      "outputs": [],
      "stateMutability": "nonpayable",
      "type": "function"
    },
    {
      "inputs": [],
      "name": "stabilityPoolAddress",
      "outputs": [
        {
          "internalType": "address",
          "name": "",
          "type": "address"
        }
      ],
      "stateMutability": "view",
      "type": "function"
    },
    {
      "inputs": [
        {
          "internalType": "address",
          "name": "",
          "type": "address"
        }
      ],
      "name": "stabilityPools",
      "outputs": [
        {
          "internalType": "bool",
          "name": "",
          "type": "bool"
        }
      ],
      "stateMutability": "view",
      "type": "function"
    },
    {
      "inputs": [],
      "name": "symbol",
      "outputs": [
        {
          "internalType": "string",
          "name": "",
          "type": "string"
        }
      ],
      "stateMutability": "view",
      "type": "function"
    },
    {
      "inputs": [],
      "name": "totalSupply",
      "outputs": [
        {
          "internalType": "uint256",
          "name": "",
          "type": "uint256"
        }
      ],
      "stateMutability": "view",
      "type": "function"
    },
    {
      "inputs": [
        {
          "internalType": "address",
          "name": "recipient",
          "type": "address"
        },
        {
          "internalType": "uint256",
          "name": "amount",
          "type": "uint256"
        }
      ],
      "name": "transfer",
      "outputs": [
        {
          "internalType": "bool",
          "name": "",
          "type": "bool"
        }
      ],
      "stateMutability": "nonpayable",
      "type": "function"
    },
    {
      "inputs": [
        {
          "internalType": "address",
          "name": "sender",
          "type": "address"
        },
        {
          "internalType": "address",
          "name": "recipient",
          "type": "address"
        },
        {
          "internalType": "uint256",
          "name": "amount",
          "type": "uint256"
        }
      ],
      "name": "transferFrom",
      "outputs": [
        {
          "internalType": "bool",
          "name": "",
          "type": "bool"
        }
      ],
      "stateMutability": "nonpayable",
      "type": "function"
    },
    {
      "inputs": [],
      "name": "troveManagerAddress",
      "outputs": [
        {
          "internalType": "address",
          "name": "",
          "type": "address"
        }
      ],
      "stateMutability": "view",
      "type": "function"
    },
    {
      "inputs": [
        {
          "internalType": "address",
          "name": "",
          "type": "address"
        }
      ],
      "name": "troveManagers",
      "outputs": [
        {
          "internalType": "bool",
          "name": "",
          "type": "bool"
        }
      ],
      "stateMutability": "view",
      "type": "function"
    },
    {
      "inputs": [],
      "name": "unpauseMinting",
      "outputs": [],
      "stateMutability": "nonpayable",
      "type": "function"
    },
    {
      "inputs": [
        {
          "internalType": "address",
          "name": "_newGovernanceAddress",
          "type": "address"
        }
      ],
      "name": "updateGovernance",
      "outputs": [],
      "stateMutability": "nonpayable",
      "type": "function"
    },
    {
      "inputs": [
        {
          "internalType": "address",
          "name": "_newGuardianAddress",
          "type": "address"
        }
      ],
      "name": "updateGuardian",
      "outputs": [],
      "stateMutability": "nonpayable",
      "type": "function"
    },
    {
      "inputs": [
        {
          "internalType": "address",
          "name": "_newTroveManagerAddress",
          "type": "address"
        },
        {
          "internalType": "address",
          "name": "_newStabilityPoolAddress",
          "type": "address"
        },
        {
          "internalType": "address",
          "name": "_newBorrowerOperationsAddress",
          "type": "address"
        }
      ],
      "name": "upgradeProtocol",
      "outputs": [],
      "stateMutability": "nonpayable",
      "type": "function"
    },
    {
      "inputs": [],
      "name": "version",
      "outputs": [
        {
          "internalType": "string",
          "name": "",
          "type": "string"
        }
      ],
      "stateMutability": "view",
      "type": "function"
    }
  ],
  "bytecode": "0x6101206040526001805460ff191690553480156200001c57600080fd5b5060405162001f6038038062001f60833981810160405260a08110156200004257600080fd5b5080516020820151604083015160608401516080909401519293919290919062000075856001600160e01b036200039616565b62000089846001600160e01b036200039616565b6200009d836001600160e01b036200039616565b620000b1826001600160e01b036200039616565b620000c5816001600160e01b036200039616565b600880546001600160a01b0319166001600160a01b038716908117909155600081815260056020908152604091829020805460ff19166001179055815192835290517f143219c9e69b09e07e095fcc889b43d8f46ca892bba65f08dc3a0050869a56789281900390910190a1600980546001600160a01b0319166001600160a01b038616908117909155600081815260066020908152604091829020805460ff19166001179055815192835290517f82966d27eea39b038ee0fa30cd16532bb24f6e65d31cb58fb227aa5766cdcc7f9281900390910190a1600a80546001600160a01b0319166001600160a01b038516908117909155600081815260076020908152604091829020805460ff19166001179055815192835290517f3ca631ffcd2a9b5d9ae18543fc82f58eb4ca33af9e6ab01b7a8e95331e6ed9859281900390910190a1600b80546001600160a01b0384166001600160a01b0319909116811790915560408051918252517fa29a633a0eef2d1151c7c3b24a4f75c7c7a3b8a7eee6b54f75b7b168f1c87fec9181900360200190a1600c80546001600160a01b0383166001600160a01b0319909116811790915560408051918252517ff0ec871fc9fea2efa0febe6a5edbe4ffb7c4b3460cd48ca56833fb544595ce8c9181900360200190a160408051808201825260128152714574686f732052657365727665204e6f746560701b602091820152815180830190925260018252603160f81b9101527ff1782f2194740efe26358e051b003b5ce36ee1578860315971b815fcc7d59d5660c08190527fc89efdaa54c0f20c7adf612882df0950f5a951637e0307cdcb4c672f298b8bc660e0819052620003476001600160e01b036200044b16565b60a052620003807f8b73c3c69bb8fe3d512ecc4cf759cc79239f7b179b0ffacaa9a75d522b39400f83836001600160e01b036200044f16565b6080525050426101005250620004b09350505050565b6001600160a01b038116620003f2576040805162461bcd60e51b815260206004820152601e60248201527f4163636f756e742063616e6e6f74206265207a65726f20616464726573730000604482015290519081900360640190fd5b803b8062000447576040805162461bcd60e51b815260206004820181905260248201527f4163636f756e7420636f64652073697a652063616e6e6f74206265207a65726f604482015290519081900360640190fd5b5050565b4690565b6000838383620004676001600160e01b036200044b16565b6040805160208082019690965280820194909452606084019290925260808301523060a0808401919091528151808403909101815260c090920190528051910120949350505050565b60805160a05160c05160e05161010051611a70620004f060003980610809525080610d9d525080610d7c525080610d02525080610d325250611a706000f3fe608060405234801561001057600080fd5b50600436106101d15760003560e01c8063795053d311610105578063bb997bac1161009d578063bb997bac1461053f578063c0b94e9f14610575578063d505accf1461059b578063da8fbf2a146105ec578063dd62ed3e146105f4578063e1a283d614610622578063f698da251461062a578063fc52539514610632578063fc72092f14610658576101d1565b8063795053d31461044f5780637ecebe001461045757806395d89b411461047d5780639dc29fac14610485578063a457c2d7146104b1578063a9059cbb146104dd578063ae20032214610509578063b256126314610511578063b7f8cf9b14610537576101d1565b806323b872dd1161017857806323b872dd1461035d578063313ce5671461039357806339509351146103b15780633c84b7c2146103dd57806340c10f19146103e557806342e444181461041157806354fd4d50146104195780635a4d28bb1461042157806370a0823114610429576101d1565b806306fdde03146101d6578063095ea7b3146102535780630b622ab21461029357806310ce43bd146102b7578063122540cb146102d157806316d556d0146102f757806318160ddd1461031d57806320c582be14610325575b600080fd5b6101de610690565b6040805160208082528351818301528351919283929083019185019080838360005b83811015610218578181015183820152602001610200565b50505050905090810190601f1680156102455780820380516001836020036101000a031916815260200191505b509250505060405180910390f35b61027f6004803603604081101561026957600080fd5b506001600160a01b0381351690602001356106bd565b604080519115158252519081900360200190f35b61029b6106d3565b604080516001600160a01b039092168252519081900360200190f35b6102bf6106e2565b60408051918252519081900360200190f35b61027f600480360360208110156102e757600080fd5b50356001600160a01b0316610706565b61027f6004803603602081101561030d57600080fd5b50356001600160a01b031661071b565b6102bf610730565b61035b6004803603606081101561033b57600080fd5b506001600160a01b03813581169160208101359091169060400135610736565b005b61027f6004803603606081101561037357600080fd5b506001600160a01b0381358116916020810135909116906040013561074e565b61039b6107c6565b6040805160ff9092168252519081900360200190f35b61027f600480360360408110156103c757600080fd5b506001600160a01b0381351690602001356107cb565b6102bf610807565b61035b600480360360408110156103fb57600080fd5b506001600160a01b03813516906020013561082b565b61029b610849565b6101de610858565b61029b610873565b6102bf6004803603602081101561043f57600080fd5b50356001600160a01b0316610882565b61029b61089d565b6102bf6004803603602081101561046d57600080fd5b50356001600160a01b03166108ac565b6101de6108c7565b61035b6004803603604081101561049b57600080fd5b506001600160a01b0381351690602001356108e4565b61027f600480360360408110156104c757600080fd5b506001600160a01b0381351690602001356108f6565b61027f600480360360408110156104f357600080fd5b506001600160a01b03813516906020013561094b565b61035b610961565b61035b6004803603602081101561052757600080fd5b50356001600160a01b0316610975565b61029b6109da565b61035b6004803603606081101561055557600080fd5b506001600160a01b038135811691602081013590911690604001356109e9565b61027f6004803603602081101561058b57600080fd5b50356001600160a01b03166109f1565b61035b600480360360e08110156105b157600080fd5b506001600160a01b03813581169160208101359091169060408101359060608101359060ff6080820135169060a08101359060c00135610a06565b61035b610c5e565b6102bf6004803603604081101561060a57600080fd5b506001600160a01b0381358116916020013516610cca565b61027f610cf5565b6102bf610cfe565b61035b6004803603602081101561064857600080fd5b50356001600160a01b0316610dc8565b61035b6004803603606081101561066e57600080fd5b506001600160a01b038135811691602081013582169160409091013516610e2d565b6040805180820190915260128152714574686f732052657365727665204e6f746560701b60208201525b90565b60006106ca338484610f99565b50600192915050565b6009546001600160a01b031681565b7f6e71edae12b1b97f4d1f60370fef10105fa2faae0126114a169c64845d6126c990565b60066020526000908152604090205460ff1681565b60056020526000908152604090205460ff1681565b60005490565b61073e61101b565b610749838383611085565b505050565b600061075983611167565b610764848484611085565b6107bc84336107b7856040518060600160405280602881526020016118f9602891396001600160a01b038a166000908152600460209081526040808320338452909152902054919063ffffffff61126816565b610f99565b5060019392505050565b601290565b3360008181526004602090815260408083206001600160a01b038716845290915281205490916106ca9185906107b7908663ffffffff6112ff16565b7f000000000000000000000000000000000000000000000000000000000000000090565b610833611360565b61083b6113a2565b61084582826113eb565b5050565b600c546001600160a01b031681565b6040805180820190915260018152603160f81b602082015290565b6008546001600160a01b031681565b6001600160a01b031660009081526003602052604090205490565b600b546001600160a01b031681565b6001600160a01b031660009081526002602052604090205490565b60408051808201909152600381526222a92760e91b602082015290565b6108ec61147f565b6108458282611501565b60006106ca33846107b7856040518060600160405280602581526020016119c2602591393360009081526004602090815260408083206001600160a01b038d168452909152902054919063ffffffff61126816565b600061095683611167565b6106ca338484611085565b6109696115b7565b6001805460ff19169055565b61097d6115b7565b61098681611600565b600b80546001600160a01b0383166001600160a01b0319909116811790915560408051918252517fa29a633a0eef2d1151c7c3b24a4f75c7c7a3b8a7eee6b54f75b7b168f1c87fec9181900360200190a150565b600a546001600160a01b031681565b61073e6116af565b60076020526000908152604090205460ff1681565b6fa2a8918ca85bafe22016d0b997e4df60600160ff1b03811115610a69576040805162461bcd60e51b81526020600482015260156024820152744c5553443a20496e76616c696420732076616c756560581b604482015290519081900360640190fd5b42841015610ab7576040805162461bcd60e51b81526020600482015260166024820152754c5553443a206578706972656420646561646c696e6560501b604482015290519081900360640190fd5b6000610ac1610cfe565b6001600160a01b03808a1660008181526002602090815260408083208054600180820190925582517f6e71edae12b1b97f4d1f60370fef10105fa2faae0126114a169c64845d6126c98186015280840196909652958e166060860152608085018d905260a085019590955260c08085018c90528151808603909101815260e08501825280519083012061190160f01b6101008601526101028501969096526101228085019690965280518085039096018652610142840180825286519683019690962095839052610162840180825286905260ff8a166101828501526101a284018990526101c284018890525194955090936101e280840193601f198301929081900390910190855afa158015610bdc573d6000803e3d6000fd5b505050602060405103519050886001600160a01b0316816001600160a01b031614610c48576040805162461bcd60e51b81526020600482015260176024820152764c5553443a20696e76616c6964207369676e617475726560481b604482015290519081900360640190fd5b610c53898989610f99565b505050505050505050565b600c546001600160a01b0316331480610c815750600b546001600160a01b031633145b610cbc5760405162461bcd60e51b815260040180806020018281038252602a815260200180611998602a913960400191505060405180910390fd5b6001805460ff191681179055565b6001600160a01b03918216600090815260046020908152604080832093909416825291909152205490565b60015460ff1681565b60007f0000000000000000000000000000000000000000000000000000000000000000610d296116f8565b1415610d5657507f00000000000000000000000000000000000000000000000000000000000000006106ba565b610dc17f8b73c3c69bb8fe3d512ecc4cf759cc79239f7b179b0ffacaa9a75d522b39400f7f00000000000000000000000000000000000000000000000000000000000000007f00000000000000000000000000000000000000000000000000000000000000006116fc565b90506106ba565b610dd06115b7565b610dd981611600565b600c80546001600160a01b0383166001600160a01b0319909116811790915560408051918252517ff0ec871fc9fea2efa0febe6a5edbe4ffb7c4b3460cd48ca56833fb544595ce8c9181900360200190a150565b610e356115b7565b610e3e83611600565b610e4782611600565b610e5081611600565b600880546001600160a01b0319166001600160a01b038516908117909155600081815260056020908152604091829020805460ff19166001179055815192835290517f143219c9e69b09e07e095fcc889b43d8f46ca892bba65f08dc3a0050869a56789281900390910190a1600980546001600160a01b0319166001600160a01b038416908117909155600081815260066020908152604091829020805460ff19166001179055815192835290517f82966d27eea39b038ee0fa30cd16532bb24f6e65d31cb58fb227aa5766cdcc7f9281900390910190a1600a80546001600160a01b0319166001600160a01b038316908117909155600081815260076020908152604091829020805460ff19166001179055815192835290517f3ca631ffcd2a9b5d9ae18543fc82f58eb4ca33af9e6ab01b7a8e95331e6ed9859281900390910190a1505050565b6001600160a01b038316610fa957fe5b6001600160a01b038216610fb957fe5b6001600160a01b03808416600081815260046020908152604080832094871680845294825291829020859055815185815291517f8c5be1e5ebec7d5bd14f71427d1e84f3dd0314c0f7b2291e5b200ac8c7c3b9259281900390910190a3505050565b3360009081526005602052604090205460ff168061104857503360009081526006602052604090205460ff165b6110835760405162461bcd60e51b81526004018080602001828103825260368152602001806117956036913960400191505060405180910390fd5b565b6001600160a01b03831661109557fe5b6001600160a01b0382166110a557fe5b6110e8816040518060600160405280602681526020016117ed602691396001600160a01b038616600090815260036020526040902054919063ffffffff61126816565b6001600160a01b03808516600090815260036020526040808220939093559084168152205461111d908263ffffffff6112ff16565b6001600160a01b03808416600081815260036020908152604091829020949094558051858152905191939287169260008051602061197883398151915292918290030190a3505050565b6001600160a01b0381161580159061118857506001600160a01b0381163014155b6111c35760405162461bcd60e51b81526004018080602001828103825260548152602001806119e76054913960600191505060405180910390fd5b6001600160a01b03811660009081526006602052604090205460ff1615801561120557506001600160a01b03811660009081526005602052604090205460ff16155b801561122a57506001600160a01b03811660009081526007602052604090205460ff16155b6112655760405162461bcd60e51b81526004018080602001828103825260578152602001806119216057913960600191505060405180910390fd5b50565b600081848411156112f75760405162461bcd60e51b81526004018080602001828103825283818151815260200191508051906020019080838360005b838110156112bc5781810151838201526020016112a4565b50505050905090810190601f1680156112e95780820380516001836020036101000a031916815260200191505b509250505060405180910390fd5b505050900390565b600082820183811015611359576040805162461bcd60e51b815260206004820152601b60248201527f536166654d6174683a206164646974696f6e206f766572666c6f770000000000604482015290519081900360640190fd5b9392505050565b60015460ff16156110835760405162461bcd60e51b81526004018080602001828103825260268152602001806118606026913960400191505060405180910390fd5b600a546001600160a01b031633146110835760405162461bcd60e51b815260040180806020018281038252602b8152602001806118ce602b913960400191505060405180910390fd5b6001600160a01b0382166113fb57fe5b60005461140e908263ffffffff6112ff16565b60009081556001600160a01b038316815260036020526040902054611439908263ffffffff6112ff16565b6001600160a01b03831660008181526003602090815260408083209490945583518581529351929391926000805160206119788339815191529281900390910190a35050565b3360009081526005602052604090205460ff16806114ac57503360009081526006602052604090205460ff165b806114c657503360009081526007602052604090205460ff165b6110835760405162461bcd60e51b815260040180806020018281038252604d815260200180611813604d913960600191505060405180910390fd5b6001600160a01b03821661151157fe5b611554816040518060600160405280602281526020016117cb602291396001600160a01b038516600090815260036020526040902054919063ffffffff61126816565b6001600160a01b03831660009081526003602052604081209190915554611581908263ffffffff61175216565b60009081556040805183815290516001600160a01b03851691600080516020611978833981519152919081900360200190a35050565b600b546001600160a01b031633146110835760405162461bcd60e51b81526004018080602001828103825260238152602001806118ab6023913960400191505060405180910390fd5b6001600160a01b03811661165b576040805162461bcd60e51b815260206004820152601e60248201527f4163636f756e742063616e6e6f74206265207a65726f20616464726573730000604482015290519081900360640190fd5b803b80610845576040805162461bcd60e51b815260206004820181905260248201527f4163636f756e7420636f64652073697a652063616e6e6f74206265207a65726f604482015290519081900360640190fd5b6009546001600160a01b031633146110835760405162461bcd60e51b81526004018080602001828103825260258152602001806118866025913960400191505060405180910390fd5b4690565b60008383836117096116f8565b6040805160208082019690965280820194909452606084019290925260808301523060a0808401919091528151808403909101815260c090920190528051910120949350505050565b600061135983836040518060400160405280601e81526020017f536166654d6174683a207375627472616374696f6e206f766572666c6f77000081525061126856fe4c5553443a2043616c6c6572206973206e6569746865722054726f76654d616e61676572206e6f722053746162696c697479506f6f6c45524332303a206275726e20616d6f756e7420657863656564732062616c616e636545524332303a207472616e7366657220616d6f756e7420657863656564732062616c616e63654c5553443a2043616c6c6572206973206e65697468657220426f72726f7765724f7065726174696f6e73206e6f722054726f76654d616e61676572206e6f722053746162696c697479506f6f6c4c555344546f6b656e3a204d696e74696e672069732063757272656e746c79207061757365644c5553443a2043616c6c6572206973206e6f74207468652053746162696c697479506f6f6c4c555344546f6b656e3a2043616c6c6572206973206e6f7420476f7665726e616e63654c555344546f6b656e3a2043616c6c6572206973206e6f7420426f72726f7765724f7065726174696f6e7345524332303a207472616e7366657220616d6f756e74206578636565647320616c6c6f77616e63654c5553443a2043616e6e6f74207472616e7366657220746f6b656e73206469726563746c7920746f207468652053746162696c697479506f6f6c2c2054726f76654d616e61676572206f7220426f72726f7765724f7073ddf252ad1be2c89b69c2b068fc378daa952ba7f163c4a11628f55a4df523b3ef4c5553443a2043616c6c6572206973206e6f7420677561726469616e206f7220676f7665726e616e636545524332303a2064656372656173656420616c6c6f77616e63652062656c6f77207a65726f4c5553443a2043616e6e6f74207472616e7366657220746f6b656e73206469726563746c7920746f20746865204c55534420746f6b656e20636f6e7472616374206f7220746865207a65726f2061646472657373a2646970667358221220eec5c7abb21ab667e67f88a6e1a2db9926e6697cb74937edc89ad6bb6b9ff78064736f6c634300060b0033",
  "linkReferences": {},
  "deployedLinkReferences": {}
}