{
  "_format": "hh-sol-artifact-1",
  "contractName": "MockTellor",
  "sourceName": "contracts/TestContracts/MockTellor.sol",
  "abi": [
    {
      "inputs": [
        {
          "internalType": "bytes32",
          "name": "",
          "type": "bytes32"
        }
      ],
      "name": "getNewValueCountbyQueryId",
      "outputs": [
        {
          "internalType": "uint256",
          "name": "",
          "type": "uint256"
        }
      ],
      "stateMutability": "view",
      "type": "function"
    },
    {
      "inputs": [
        {
          "internalType": "bytes32",
          "name": "",
          "type": "bytes32"
        },
        {
          "internalType": "uint256",
          "name": "",
          "type": "uint256"
        }
      ],
      "name": "getTimestampbyQueryIdandIndex",
      "outputs": [
        {
          "internalType": "uint256",
          "name": "",
          "type": "uint256"
        }
      ],
      "stateMutability": "view",
      "type": "function"
    },
    {
      "inputs": [
        {
          "internalType": "bytes32",
          "name": "",
          "type": "bytes32"
        },
        {
          "internalType": "uint256",
          "name": "",
          "type": "uint256"
        }
      ],
      "name": "retrieveData",
      "outputs": [
        {
          "internalType": "bytes",
          "name": "",
          "type": "bytes"
        }
      ],
      "stateMutability": "view",
      "type": "function"
    },
    {
      "inputs": [
        {
          "internalType": "bool",
          "name": "_didRetrieve",
          "type": "bool"
        }
      ],
      "name": "setDidRetrieve",
      "outputs": [],
      "stateMutability": "nonpayable",
      "type": "function"
    },
    {
      "inputs": [
        {
          "internalType": "uint256",
          "name": "_price",
          "type": "uint256"
        }
      ],
      "name": "setPrice",
      "outputs": [],
      "stateMutability": "nonpayable",
      "type": "function"
    },
    {
      "inputs": [],
      "name": "setRevertRequest",
      "outputs": [],
      "stateMutability": "nonpayable",
      "type": "function"
    },
    {
      "inputs": [
        {
          "internalType": "uint256",
          "name": "_updateTime",
          "type": "uint256"
        }
      ],
      "name": "setUpdateTime",
      "outputs": [],
      "stateMutability": "nonpayable",
      "type": "function"
    }
  ],
  "bytecode": "0x60806040526000805460ff1916600117905534801561001d57600080fd5b506102ae8061002d6000396000f3fe608060405234801561001057600080fd5b506004361061006d5760003560e01c80632fc0eb851461007257806377b03e0d1461007c57806391b7f5ed146100ab578063bf73eea6146100c8578063c4954857146100e5578063c5958af914610104578063ce5e11bf1461019c575b600080fd5b61007a6101bf565b005b6100996004803603602081101561009257600080fd5b50356101d3565b60408051918252519081900360200190f35b61007a600480360360208110156100c157600080fd5b5035610230565b61007a600480360360208110156100de57600080fd5b5035610235565b61007a600480360360208110156100fb57600080fd5b5035151561023a565b6101276004803603604081101561011a57600080fd5b508035906020013561024d565b6040805160208082528351818301528351919283929083019185019080838360005b83811015610161578181015183820152602001610149565b50505050905090810190601f16801561018e5780820380516001836020036101000a031916815260200191505b509250505060405180910390f35b610099600480360360408110156101b257600080fd5b5080359060200135610270565b6003805460ff19811660ff90911615179055565b60035460009060ff1615610228576040805162461bcd60e51b815260206004820152601760248201527615195b1b1bdc881c995c5d595cdd081c995d995c9d1959604a1b604482015290519081900360640190fd5b506001919050565b600155565b600255565b6000805460ff1916911515919091179055565b505060015460408051602080820193909352815180820390930183528101905290565b50506002549056fea26469706673582212203b3b4046c380438e0f923a9295bf18ed6c38c895232dfede178df0e1f74f077264736f6c634300060b0033",
  "linkReferences": {},
  "deployedLinkReferences": {}
}