{
  "_format": "hh-sol-artifact-1",
  "contractName": "CommunityIssuance",
  "sourceName": "contracts/LQTY/CommunityIssuance.sol",
  "abi": [
    {
      "inputs": [],
      "stateMutability": "nonpayable",
      "type": "constructor"
    },
    {
      "anonymous": false,
      "inputs": [
        {
          "indexed": false,
          "internalType": "uint256",
          "name": "_rewardPerSecond",
          "type": "uint256"
        }
      ],
      "name": "LogRewardPerSecond",
      "type": "event"
    },
    {
      "anonymous": false,
      "inputs": [
        {
          "indexed": false,
          "internalType": "address",
          "name": "_lqtyTokenAddress",
          "type": "address"
        }
      ],
      "name": "OATHTokenAddressSet",
      "type": "event"
    },
    {
      "anonymous": false,
      "inputs": [
        {
          "indexed": false,
          "internalType": "address",
          "name": "_oathTokenAddress",
          "type": "address"
        }
      ],
      "name": "OathTokenAddressSet",
      "type": "event"
    },
    {
      "anonymous": false,
      "inputs": [
        {
          "indexed": true,
          "internalType": "address",
          "name": "previousOwner",
          "type": "address"
        },
        {
          "indexed": true,
          "internalType": "address",
          "name": "newOwner",
          "type": "address"
        }
      ],
      "name": "OwnershipTransferred",
      "type": "event"
    },
    {
      "anonymous": false,
      "inputs": [
        {
          "indexed": false,
          "internalType": "address",
          "name": "_stabilityPoolAddress",
          "type": "address"
        }
      ],
      "name": "StabilityPoolAddressSet",
      "type": "event"
    },
    {
      "anonymous": false,
      "inputs": [
        {
          "indexed": false,
          "internalType": "uint256",
          "name": "_totalOATHIssued",
          "type": "uint256"
        }
      ],
      "name": "TotalOATHIssuedUpdated",
      "type": "event"
    },
    {
      "anonymous": false,
      "inputs": [
        {
          "indexed": false,
          "internalType": "uint256",
          "name": "_totalLQTYIssued",
          "type": "uint256"
        }
      ],
      "name": "TotalOathIssuedUpdated",
      "type": "event"
    },
    {
      "inputs": [],
      "name": "DECIMAL_PRECISION",
      "outputs": [
        {
          "internalType": "uint256",
          "name": "",
          "type": "uint256"
        }
      ],
      "stateMutability": "view",
      "type": "function"
    },
    {
      "inputs": [],
      "name": "NAME",
      "outputs": [
        {
          "internalType": "string",
          "name": "",
          "type": "string"
        }
      ],
      "stateMutability": "view",
      "type": "function"
    },
    {
      "inputs": [],
      "name": "OathToken",
      "outputs": [
        {
          "internalType": "contract IERC20",
          "name": "",
          "type": "address"
        }
      ],
      "stateMutability": "view",
      "type": "function"
    },
    {
      "inputs": [],
      "name": "distributionPeriod",
      "outputs": [
        {
          "internalType": "uint256",
          "name": "",
          "type": "uint256"
        }
      ],
      "stateMutability": "view",
      "type": "function"
    },
    {
      "inputs": [
        {
          "internalType": "uint256",
          "name": "amount",
          "type": "uint256"
        }
      ],
      "name": "fund",
      "outputs": [],
      "stateMutability": "nonpayable",
      "type": "function"
    },
    {
      "inputs": [],
      "name": "initialized",
      "outputs": [
        {
          "internalType": "bool",
          "name": "",
          "type": "bool"
        }
      ],
      "stateMutability": "view",
      "type": "function"
    },
    {
      "inputs": [],
      "name": "isOwner",
      "outputs": [
        {
          "internalType": "bool",
          "name": "",
          "type": "bool"
        }
      ],
      "stateMutability": "view",
      "type": "function"
    },
    {
      "inputs": [],
      "name": "issueOath",
      "outputs": [
        {
          "internalType": "uint256",
          "name": "issuance",
          "type": "uint256"
        }
      ],
      "stateMutability": "nonpayable",
      "type": "function"
    },
    {
      "inputs": [],
      "name": "lastDistributionTime",
      "outputs": [
        {
          "internalType": "uint256",
          "name": "",
          "type": "uint256"
        }
      ],
      "stateMutability": "view",
      "type": "function"
    },
    {
      "inputs": [],
      "name": "lastIssuanceTimestamp",
      "outputs": [
        {
          "internalType": "uint256",
          "name": "",
          "type": "uint256"
        }
      ],
      "stateMutability": "view",
      "type": "function"
    },
    {
      "inputs": [],
      "name": "owner",
      "outputs": [
        {
          "internalType": "address",
          "name": "",
          "type": "address"
        }
      ],
      "stateMutability": "view",
      "type": "function"
    },
    {
      "inputs": [],
      "name": "rewardPerSecond",
      "outputs": [
        {
          "internalType": "uint256",
          "name": "",
          "type": "uint256"
        }
      ],
      "stateMutability": "view",
      "type": "function"
    },
    {
      "inputs": [
        {
          "internalType": "address",
          "name": "_account",
          "type": "address"
        },
        {
          "internalType": "uint256",
          "name": "_OathAmount",
          "type": "uint256"
        }
      ],
      "name": "sendOath",
      "outputs": [],
      "stateMutability": "nonpayable",
      "type": "function"
    },
    {
      "inputs": [
        {
          "internalType": "address",
          "name": "_oathTokenAddress",
          "type": "address"
        },
        {
          "internalType": "address",
          "name": "_stabilityPoolAddress",
          "type": "address"
        }
      ],
      "name": "setAddresses",
      "outputs": [],
      "stateMutability": "nonpayable",
      "type": "function"
    },
    {
      "inputs": [],
      "name": "stabilityPoolAddress",
      "outputs": [
        {
          "internalType": "address",
          "name": "",
          "type": "address"
        }
      ],
      "stateMutability": "view",
      "type": "function"
    },
    {
      "inputs": [],
      "name": "totalOATHIssued",
      "outputs": [
        {
          "internalType": "uint256",
          "name": "",
          "type": "uint256"
        }
      ],
      "stateMutability": "view",
      "type": "function"
    },
    {
      "inputs": [
        {
          "internalType": "uint256",
          "name": "_newDistributionPeriod",
          "type": "uint256"
        }
      ],
      "name": "updateDistributionPeriod",
      "outputs": [],
      "stateMutability": "nonpayable",
      "type": "function"
    }
  ],
  "bytecode": "0x60806040526000805460ff60a01b1916905534801561001d57600080fd5b50600080546001600160a01b0319163390811782556040519091907f8be0079c531659141344cd1fd0a4f28419497f9722a3daafe3b4186f6b6457e0908290a362127500600555610be4806100736000396000f3fe608060405234801561001057600080fd5b50600436106100eb5760003560e01c80638f32d59b116100925780638f32d59b1461018957806390107afe146101915780639b501723146101bf578063a20baee6146101c7578063a3f4df7e146101cf578063a7deedff1461024c578063b356366614610254578063ca1d209d1461025c578063de622bf014610279576100eb565b80630b622ab2146100f0578063158ef93e146101145780632810204714610130578063577fbd5f1461014a57806375b17350146101695780637f97a152146101715780638da5cb5b146101795780638f10369a14610181575b600080fd5b6100f86102a5565b604080516001600160a01b039092168252519081900360200190f35b61011c6102b4565b604080519115158252519081900360200190f35b6101386102c4565b60408051918252519081900360200190f35b6101676004803603602081101561016057600080fd5b5035610377565b005b6101386103c3565b6100f86103c9565b6100f86103d8565b6101386103e7565b61011c6103ed565b610167600480360360408110156101a757600080fd5b506001600160a01b03813581169160200135166103fe565b610138610569565b61013861056f565b6101d761057b565b6040805160208082528351818301528351919283929083019185019080838360005b838110156102115781810151838201526020016101f9565b50505050905090810190601f16801561023e5780820380516001836020036101000a031916815260200191505b509250505060405180910390f35b6101386105a8565b6101386105ae565b6101676004803603602081101561027257600080fd5b50356105b4565b6101676004803603604081101561028f57600080fd5b506001600160a01b038135169060200135610782565b6002546001600160a01b031681565b600054600160a01b900460ff1681565b60006102ce610810565b600454600754101561033b57600060045442116102eb57426102ef565b6004545b905060006103086007548361085b90919063ffffffff16565b905061031f600654826108a690919063ffffffff16565b600354909350610335908463ffffffff6108ff16565b60035550505b4260075560035460408051918252517fc204cbc6681139cf84bba435597230df9af08a2f5cffe17ff15574867b9c12ab9181900360200190a190565b61037f6103ed565b6103be576040805162461bcd60e51b81526020600482018190526024820152600080516020610b6c833981519152604482015290519081900360640190fd5b600555565b60045481565b6001546001600160a01b031681565b6000546001600160a01b031690565b60065481565b6000546001600160a01b0316331490565b6104066103ed565b610445576040805162461bcd60e51b81526020600482018190526024820152600080516020610b6c833981519152604482015290519081900360640190fd5b600054600160a01b900460ff16156104a4576040805162461bcd60e51b815260206004820152601d60248201527f69737375616e636520686173206265656e20696e697469616c697a6564000000604482015290519081900360640190fd5b6104ad82610959565b6104b681610959565b600180546001600160a01b038085166001600160a01b0319928316811790935560028054918516919092161790556000805460ff60a01b1916600160a01b17905560408051918252517f4c0854166fc3ff644c3b06fdcbeedd52f6875c8719245e6154059605363e00219181900360200190a1604080516001600160a01b038316815290517f45c53611bc8ba9e11f4f8173bda9e3faf89c395ddb83f9a55230b156828db3159181900360200190a15050565b60055481565b670de0b6b3a764000081565b60405180604001604052806011815260200170436f6d6d756e69747949737375616e636560781b81525081565b60035481565b60075481565b6105bc6103ed565b6105fb576040805162461bcd60e51b81526020600482018190526024820152600080516020610b6c833981519152604482015290519081900360640190fd5b8061063d576040805162461bcd60e51b815260206004820152600d60248201526c063616e6e6f742066756e64203609c1b604482015290519081900360640190fd5b600154604080516323b872dd60e01b81523360048201523060248201526044810184905290516001600160a01b03909216916323b872dd916064808201926020929091908290030181600087803b15801561069757600080fd5b505af11580156106ab573d6000803e3d6000fd5b505050506040513d60208110156106c157600080fd5b505060045460075410156107185760006106e860075460045461085b90919063ffffffff16565b90506000610701600654836108a690919063ffffffff16565b9050610713838263ffffffff6108ff16565b925050505b60055461072c90829063ffffffff610a0c16565b60065560055461074390429063ffffffff6108ff16565b6004554260075560065460408051918252517fde89cb17ac7f58f94792b3e91e086ed85403819c24ceea882491f960ccb1a2789181900360200190a150565b61078a610810565b6001546040805163a9059cbb60e01b81526001600160a01b038581166004830152602482018590529151919092169163a9059cbb9160448083019260209291908290030181600087803b1580156107e057600080fd5b505af11580156107f4573d6000803e3d6000fd5b505050506040513d602081101561080a57600080fd5b50505050565b6002546001600160a01b031633146108595760405162461bcd60e51b8152600401808060200182810382526023815260200180610b8c6023913960400191505060405180910390fd5b565b600061089d83836040518060400160405280601e81526020017f536166654d6174683a207375627472616374696f6e206f766572666c6f770000815250610a4e565b90505b92915050565b6000826108b5575060006108a0565b828202828482816108c257fe5b041461089d5760405162461bcd60e51b8152600401808060200182810382526021815260200180610b4b6021913960400191505060405180910390fd5b60008282018381101561089d576040805162461bcd60e51b815260206004820152601b60248201527f536166654d6174683a206164646974696f6e206f766572666c6f770000000000604482015290519081900360640190fd5b6001600160a01b0381166109b4576040805162461bcd60e51b815260206004820152601e60248201527f4163636f756e742063616e6e6f74206265207a65726f20616464726573730000604482015290519081900360640190fd5b803b80610a08576040805162461bcd60e51b815260206004820181905260248201527f4163636f756e7420636f64652073697a652063616e6e6f74206265207a65726f604482015290519081900360640190fd5b5050565b600061089d83836040518060400160405280601a81526020017f536166654d6174683a206469766973696f6e206279207a65726f000000000000815250610ae5565b60008184841115610add5760405162461bcd60e51b81526004018080602001828103825283818151815260200191508051906020019080838360005b83811015610aa2578181015183820152602001610a8a565b50505050905090810190601f168015610acf5780820380516001836020036101000a031916815260200191505b509250505060405180910390fd5b505050900390565b60008183610b345760405162461bcd60e51b8152602060048201818152835160248401528351909283926044909101919085019080838360008315610aa2578181015183820152602001610a8a565b506000838581610b4057fe5b049594505050505056fe536166654d6174683a206d756c7469706c69636174696f6e206f766572666c6f774f776e61626c653a2063616c6c6572206973206e6f7420746865206f776e6572436f6d6d756e69747949737375616e63653a2063616c6c6572206973206e6f74205350a2646970667358221220df131531c35c07a92f0e66eed31ce60046d26aa74e75422e7d3fcb2119ee626164736f6c634300060b0033",
  "linkReferences": {},
  "deployedLinkReferences": {}
}