{
  "_format": "hh-sol-artifact-1",
  "contractName": "RedemptionHelper",
  "sourceName": "contracts/RedemptionHelper.sol",
  "abi": [
    {
      "anonymous": false,
      "inputs": [
        {
          "indexed": true,
          "internalType": "address",
          "name": "previousOwner",
          "type": "address"
        },
        {
          "indexed": true,
          "internalType": "address",
          "name": "newOwner",
          "type": "address"
        }
      ],
      "name": "OwnershipTransferred",
      "type": "event"
    },
    {
      "inputs": [],
      "name": "BOOTSTRAP_PERIOD",
      "outputs": [
        {
          "internalType": "uint256",
          "name": "",
          "type": "uint256"
        }
      ],
      "stateMutability": "view",
      "type": "function"
    },
    {
      "inputs": [],
      "name": "BORROWING_FEE_FLOOR",
      "outputs": [
        {
          "internalType": "uint256",
          "name": "",
          "type": "uint256"
        }
      ],
      "stateMutability": "view",
      "type": "function"
    },
    {
      "inputs": [],
      "name": "DECIMAL_PRECISION",
      "outputs": [
        {
          "internalType": "uint256",
          "name": "",
          "type": "uint256"
        }
      ],
      "stateMutability": "view",
      "type": "function"
    },
    {
      "inputs": [],
      "name": "LUSD_GAS_COMPENSATION",
      "outputs": [
        {
          "internalType": "uint256",
          "name": "",
          "type": "uint256"
        }
      ],
      "stateMutability": "view",
      "type": "function"
    },
    {
      "inputs": [],
      "name": "MIN_NET_DEBT",
      "outputs": [
        {
          "internalType": "uint256",
          "name": "",
          "type": "uint256"
        }
      ],
      "stateMutability": "view",
      "type": "function"
    },
    {
      "inputs": [],
      "name": "PERCENT_DIVISOR",
      "outputs": [
        {
          "internalType": "uint256",
          "name": "",
          "type": "uint256"
        }
      ],
      "stateMutability": "view",
      "type": "function"
    },
    {
      "inputs": [],
      "name": "_100pct",
      "outputs": [
        {
          "internalType": "uint256",
          "name": "",
          "type": "uint256"
        }
      ],
      "stateMutability": "view",
      "type": "function"
    },
    {
      "inputs": [],
      "name": "activePool",
      "outputs": [
        {
          "internalType": "contract IActivePool",
          "name": "",
          "type": "address"
        }
      ],
      "stateMutability": "view",
      "type": "function"
    },
    {
      "inputs": [],
      "name": "collateralConfig",
      "outputs": [
        {
          "internalType": "contract ICollateralConfig",
          "name": "",
          "type": "address"
        }
      ],
      "stateMutability": "view",
      "type": "function"
    },
    {
      "inputs": [],
      "name": "defaultPool",
      "outputs": [
        {
          "internalType": "contract IDefaultPool",
          "name": "",
          "type": "address"
        }
      ],
      "stateMutability": "view",
      "type": "function"
    },
    {
      "inputs": [
        {
          "internalType": "address",
          "name": "_collateral",
          "type": "address"
        }
      ],
      "name": "getEntireSystemColl",
      "outputs": [
        {
          "internalType": "uint256",
          "name": "entireSystemColl",
          "type": "uint256"
        }
      ],
      "stateMutability": "view",
      "type": "function"
    },
    {
      "inputs": [
        {
          "internalType": "address",
          "name": "_collateral",
          "type": "address"
        }
      ],
      "name": "getEntireSystemDebt",
      "outputs": [
        {
          "internalType": "uint256",
          "name": "entireSystemDebt",
          "type": "uint256"
        }
      ],
      "stateMutability": "view",
      "type": "function"
    },
    {
      "inputs": [],
      "name": "isOwner",
      "outputs": [
        {
          "internalType": "bool",
          "name": "",
          "type": "bool"
        }
      ],
      "stateMutability": "view",
      "type": "function"
    },
    {
      "inputs": [],
      "name": "lqtyStaking",
      "outputs": [
        {
          "internalType": "contract ILQTYStaking",
          "name": "",
          "type": "address"
        }
      ],
      "stateMutability": "view",
      "type": "function"
    },
    {
      "inputs": [],
      "name": "lqtyToken",
      "outputs": [
        {
          "internalType": "contract IERC20",
          "name": "",
          "type": "address"
        }
      ],
      "stateMutability": "view",
      "type": "function"
    },
    {
      "inputs": [],
      "name": "lusdToken",
      "outputs": [
        {
          "internalType": "contract ILUSDToken",
          "name": "",
          "type": "address"
        }
      ],
      "stateMutability": "view",
      "type": "function"
    },
    {
      "inputs": [],
      "name": "owner",
      "outputs": [
        {
          "internalType": "address",
          "name": "",
          "type": "address"
        }
      ],
      "stateMutability": "view",
      "type": "function"
    },
    {
      "inputs": [],
      "name": "priceFeed",
      "outputs": [
        {
          "internalType": "contract IPriceFeed",
          "name": "",
          "type": "address"
        }
      ],
      "stateMutability": "view",
      "type": "function"
    },
    {
      "inputs": [
        {
          "internalType": "address",
          "name": "_collateral",
          "type": "address"
        },
        {
          "internalType": "address",
          "name": "_redeemer",
          "type": "address"
        },
        {
          "internalType": "uint256",
          "name": "_LUSDamount",
          "type": "uint256"
        },
        {
          "internalType": "address",
          "name": "_firstRedemptionHint",
          "type": "address"
        },
        {
          "internalType": "address",
          "name": "_upperPartialRedemptionHint",
          "type": "address"
        },
        {
          "internalType": "address",
          "name": "_lowerPartialRedemptionHint",
          "type": "address"
        },
        {
          "internalType": "uint256",
          "name": "_partialRedemptionHintNICR",
          "type": "uint256"
        },
        {
          "internalType": "uint256",
          "name": "_maxIterations",
          "type": "uint256"
        },
        {
          "internalType": "uint256",
          "name": "_maxFeePercentage",
          "type": "uint256"
        }
      ],
      "name": "redeemCollateral",
      "outputs": [],
      "stateMutability": "nonpayable",
      "type": "function"
    },
    {
      "inputs": [
        {
          "internalType": "contract IActivePool",
          "name": "_activePool",
          "type": "address"
        },
        {
          "internalType": "contract IDefaultPool",
          "name": "_defaultPool",
          "type": "address"
        },
        {
          "internalType": "contract ITroveManager",
          "name": "_troveManager",
          "type": "address"
        },
        {
          "internalType": "contract ICollateralConfig",
          "name": "_collateralConfig",
          "type": "address"
        },
        {
          "internalType": "contract IERC20",
          "name": "_lqtyToken",
          "type": "address"
        },
        {
          "internalType": "contract IPriceFeed",
          "name": "_priceFeed",
          "type": "address"
        },
        {
          "internalType": "contract ILUSDToken",
          "name": "_lusdToken",
          "type": "address"
        },
        {
          "internalType": "contract ISortedTroves",
          "name": "_sortedTroves",
          "type": "address"
        },
        {
          "internalType": "contract ILQTYStaking",
          "name": "_lqtyStaking",
          "type": "address"
        }
      ],
      "name": "setAddresses",
      "outputs": [],
      "stateMutability": "nonpayable",
      "type": "function"
    },
    {
      "inputs": [],
      "name": "sortedTroves",
      "outputs": [
        {
          "internalType": "contract ISortedTroves",
          "name": "",
          "type": "address"
        }
      ],
      "stateMutability": "view",
      "type": "function"
    },
    {
      "inputs": [],
      "name": "troveManager",
      "outputs": [
        {
          "internalType": "contract ITroveManager",
          "name": "",
          "type": "address"
        }
      ],
      "stateMutability": "view",
      "type": "function"
    }
  ],
  "bytecode": "0x608060405234801561001057600080fd5b50600380546001600160a01b031916339081179091556040516000907f8be0079c531659141344cd1fd0a4f28419497f9722a3daafe3b4186f6b6457e0908290a3612365806100606000396000f3fe608060405234801561001057600080fd5b50600436106101425760003560e01c8063741bef1a116100b8578063a20baee61161007c578063a20baee6146102a1578063a3a6401714610303578063ae9187541461030b578063b83f91a214610313578063c35bc5501461031b578063f92d34331461032357610142565b8063741bef1a146102a95780637f7dde4a146102b15780638da5cb5b146102b95780638f32d59b146102c15780639e86d0c4146102dd57610142565b80633d83908a1161010a5780633d83908a146101bb5780634870dd9a146101c35780635c0ab4de146101cb5780635e275a7d146101d3578063662720441461023757806372fe25aa146102a157610142565b80631bf43555146101475780631f7af3c31461016157806327d04b35146101855780632e86bbd8146101ab5780633cc74225146101b3575b600080fd5b61014f61032b565b60408051918252519081900360200190f35b610169610338565b604080516001600160a01b039092168252519081900360200190f35b61014f6004803603602081101561019b57600080fd5b50356001600160a01b0316610347565b61014f61045d565b610169610469565b610169610478565b61014f610487565b61016961048c565b61023560048036036101208110156101ea57600080fd5b506001600160a01b03813581169160208101358216916040820135916060810135821691608082013581169160a08101359091169060c08101359060e081013590610100013561049b565b005b610235600480360361012081101561024e57600080fd5b506001600160a01b038135811691602081013582169160408201358116916060810135821691608082013581169160a081013582169160c082013581169160e08101358216916101009091013516611038565b61014f61112a565b610169611136565b610169611145565b610169611154565b6102c9611163565b604080519115158252519081900360200190f35b61014f600480360360208110156102f357600080fd5b50356001600160a01b0316611174565b610169611244565b610169611253565b610169611262565b61014f611271565b61014f611278565b6804e1003b28d928000081565b6006546001600160a01b031681565b6000805460408051634b14fa8760e01b81526001600160a01b038581166004830152915184939290921691634b14fa8791602480820192602092909190829003018186803b15801561039857600080fd5b505afa1580156103ac573d6000803e3d6000fd5b505050506040513d60208110156103c257600080fd5b505160015460408051634b14fa8760e01b81526001600160a01b03878116600483015291519394506000939190921691634b14fa87916024808301926020929190829003018186803b15801561041757600080fd5b505afa15801561042b573d6000803e3d6000fd5b505050506040513d602081101561044157600080fd5b50519050610455828263ffffffff61128316565b949350505050565b678ac7230489e8000081565b6001546001600160a01b031681565b6004546001600160a01b031681565b60c881565b6005546001600160a01b031681565b6104a36112e6565b6104ac89611331565b6104b4612234565b6104bd826113fe565b6104c561148c565b60025460408051635670bcc760e11b81526001600160a01b038d811660048301529151919092169163ace1798e9160248083019260209291908290030181600087803b15801561051457600080fd5b505af1158015610528573d6000803e3d6000fd5b505050506040513d602081101561053e57600080fd5b505160c08201526005546040805163eb7aac5f60e01b81526001600160a01b038d8116600483015291519190921691829163eb7aac5f91602480820192602092909190829003018186803b15801561059557600080fd5b505afa1580156105a9573d6000803e3d6000fd5b505050506040513d60208110156105bf57600080fd5b5051610100830152604080516311e2c60b60e11b81526001600160a01b038d811660048301529151918316916323c58c1691602480820192602092909190829003018186803b15801561061157600080fd5b505afa158015610625573d6000803e3d6000fd5b505050506040513d602081101561063b57600080fd5b5051610120830181905260c083015161010084015161065d928e92919061151e565b6106668961153b565b60075461067d906001600160a01b03168b8b611548565b6106868b610347565b60e08301819052600754604080516370a0823160e01b81526001600160a01b038e81166004830152915191909216916370a08231916024808301926020929190829003018186803b1580156106da57600080fd5b505afa1580156106ee573d6000803e3d6000fd5b505050506040513d602081101561070457600080fd5b5051111561070e57fe5b88825260085460c08301516101208401516001600160a01b039092169161073a9183918f918d916115db565b15610754576001600160a01b038916610140840152610964565b806001600160a01b031663760827158d6040518263ffffffff1660e01b815260040180826001600160a01b03166001600160a01b0316815260200191505060206040518083038186803b1580156107aa57600080fd5b505afa1580156107be573d6000803e3d6000fd5b505050506040513d60208110156107d457600080fd5b50516001600160a01b03166101408401525b6101408301516001600160a01b0316158015906108c85750826101200151600460009054906101000a90046001600160a01b03166001600160a01b031663b1eafaab8561014001518f8760c001516040518463ffffffff1660e01b815260040180846001600160a01b03166001600160a01b03168152602001836001600160a01b03166001600160a01b03168152602001828152602001935050505060206040518083038186803b15801561089a57600080fd5b505afa1580156108ae573d6000803e3d6000fd5b505050506040513d60208110156108c457600080fd5b5051105b1561096457610140830151604080516239c6e160ea1b81526001600160a01b038f81166004830152928316602482015290519183169163e71b840091604480820192602092909190829003018186803b15801561092457600080fd5b505afa158015610938573d6000803e3d6000fd5b505050506040513d602081101561094e57600080fd5b50516001600160a01b03166101408401526107e6565b8461096f5760001994505b6101408301516001600160a01b03161580159061098c5750825115155b80156109985750600085115b15610b7a57610140830151604080516239c6e160ea1b81526001600160a01b038f81166004830152928316602482015290516000199097019660009284169163e71b8400916044808301926020929190829003018186803b1580156109fc57600080fd5b505afa158015610a10573d6000803e3d6000fd5b505050506040513d6020811015610a2657600080fd5b81019080805190602001909291905050509050600460009054906101000a90046001600160a01b03166001600160a01b031663df4fb9ef8561014001518f6040518363ffffffff1660e01b815260040180836001600160a01b03166001600160a01b03168152602001826001600160a01b03166001600160a01b0316815260200192505050600060405180830381600087803b158015610ac557600080fd5b505af1158015610ad9573d6000803e3d6000fd5b50505050610ae5612297565b610b028561014001518f87600001518860c001518e8e8e8b61183e565b9050806040015115610b15575050610b7a565b80516020860151610b2b9163ffffffff61128316565b6020808701919091528101516040860151610b4b9163ffffffff61128316565b604086015280518551610b639163ffffffff611e6b16565b8552506001600160a01b031661014084015261096f565b6000836040015111610b8b57600080fd5b6004805460408086015160c087015161010088015160e089015184516350d3cdf560e11b815296870193909352602486019190915260448501526064840152516001600160a01b039091169163a1a79bea9160848083019260209291908290030181600087803b158015610bfe57600080fd5b505af1158015610c12573d6000803e3d6000fd5b505050506040513d6020811015610c2857600080fd5b5050600480546040808601518151633a16d80f60e21b815293840152516001600160a01b039091169163e85b603c916024808301926020929190829003018186803b158015610c7657600080fd5b505afa158015610c8a573d6000803e3d6000fd5b505050506040513d6020811015610ca057600080fd5b5051606084018190526040840151610cb9919086611ead565b6000809054906101000a90046001600160a01b03166001600160a01b031663715aa61b8d600960009054906101000a90046001600160a01b031686606001516040518463ffffffff1660e01b815260040180846001600160a01b03166001600160a01b03168152602001836001600160a01b03166001600160a01b031681526020018281526020019350505050600060405180830381600087803b158015610d6057600080fd5b505af1158015610d74573d6000803e3d6000fd5b50505050600960009054906101000a90046001600160a01b03166001600160a01b031663d66274bc8d85606001516040518363ffffffff1660e01b815260040180836001600160a01b03166001600160a01b0316815260200182815260200192505050600060405180830381600087803b158015610df157600080fd5b505af1158015610e05573d6000803e3d6000fd5b5050505060608301516040840151610e1c91611e6b565b836080018181525050600460009054906101000a90046001600160a01b03166001600160a01b031663099a676e8c8e8d8760200151886040015189606001516040518763ffffffff1660e01b815260040180876001600160a01b03166001600160a01b03168152602001866001600160a01b03166001600160a01b031681526020018581526020018481526020018381526020018281526020019650505050505050600060405180830381600087803b158015610ed857600080fd5b505af1158015610eec573d6000803e3d6000fd5b505050506000809054906101000a90046001600160a01b03166001600160a01b0316633aacc8158d85602001516040518363ffffffff1660e01b815260040180836001600160a01b03166001600160a01b0316815260200182815260200192505050600060405180830381600087803b158015610f6857600080fd5b505af1158015610f7c573d6000803e3d6000fd5b505050506000809054906101000a90046001600160a01b03166001600160a01b031663715aa61b8d8d86608001516040518463ffffffff1660e01b815260040180846001600160a01b03166001600160a01b03168152602001836001600160a01b03166001600160a01b031681526020018281526020019350505050600060405180830381600087803b15801561101257600080fd5b505af1158015611026573d6000803e3d6000fd5b50505050505050505050505050505050565b611040611163565b611091576040805162461bcd60e51b815260206004820181905260248201527f4f776e61626c653a2063616c6c6572206973206e6f7420746865206f776e6572604482015290519081900360640190fd5b600080546001600160a01b03199081166001600160a01b038c8116919091179092556001805482168b84161790556004805482168a84161790556005805482168984161790556006805482168884161790556002805482168784161790556007805482168684161790556008805482168584161790556009805490911691831691909117905561111f611f22565b505050505050505050565b670de0b6b3a764000081565b6002546001600160a01b031681565b6000546001600160a01b031681565b6003546001600160a01b031690565b6003546001600160a01b0316331490565b6000805460408051639b56d6c960e01b81526001600160a01b038581166004830152915184939290921691639b56d6c991602480820192602092909190829003018186803b1580156111c557600080fd5b505afa1580156111d9573d6000803e3d6000fd5b505050506040513d60208110156111ef57600080fd5b505160015460408051639b56d6c960e01b81526001600160a01b03878116600483015291519394506000939190921691639b56d6c9916024808301926020929190829003018186803b15801561041757600080fd5b6009546001600160a01b031681565b6008546001600160a01b031681565b6007546001600160a01b031681565b6212750081565b6611c37937e0800081565b6000828201838110156112dd576040805162461bcd60e51b815260206004820152601b60248201527f536166654d6174683a206164646974696f6e206f766572666c6f770000000000604482015290519081900360640190fd5b90505b92915050565b6004546001600160a01b0316331461132f5760405162461bcd60e51b815260040180806020018281038252602c8152602001806122e3602c913960400191505060405180910390fd5b565b60055460408051630658339960e51b81526001600160a01b0384811660048301529151919092169163cb067320916024808301926020929190829003018186803b15801561137e57600080fd5b505afa158015611392573d6000803e3d6000fd5b505050506040513d60208110156113a857600080fd5b50516113fb576040805162461bcd60e51b815260206004820152601a60248201527f496e76616c696420636f6c6c61746572616c2061646472657373000000000000604482015290519081900360640190fd5b50565b60048054604080516328d28b5b60e01b815290516001600160a01b03909216926328d28b5b928282019260209290829003018186803b15801561144057600080fd5b505afa158015611454573d6000803e3d6000fd5b505050506040513d602081101561146a57600080fd5b505181108015906114835750670de0b6b3a76400008111155b6113fb57600080fd5b60075460408051631e425be160e11b815290516000926001600160a01b031691633c84b7c2916004808301926020929190829003018186803b1580156114d157600080fd5b505afa1580156114e5573d6000803e3d6000fd5b505050506040513d60208110156114fb57600080fd5b50519050611512816212750063ffffffff61128316565b4210156113fb57600080fd5b8061152a858585611f6c565b101561153557600080fd5b50505050565b600081116113fb57600080fd5b80836001600160a01b03166370a08231846040518263ffffffff1660e01b815260040180826001600160a01b03166001600160a01b0316815260200191505060206040518083038186803b15801561159f57600080fd5b505afa1580156115b3573d6000803e3d6000fd5b505050506040513d60208110156115c957600080fd5b505110156115d657600080fd5b505050565b60006001600160a01b038416158061166e575060408051631da4d95d60e31b81526001600160a01b038781166004830152868116602483015291519188169163ed26cae891604480820192602092909190829003018186803b15801561164057600080fd5b505afa158015611654573d6000803e3d6000fd5b505050506040513d602081101561166a57600080fd5b5051155b806117035750600480546040805163b1eafaab60e01b81526001600160a01b0388811694820194909452888416602482015260448101879052905185939092169163b1eafaab91606480820192602092909190829003018186803b1580156116d557600080fd5b505afa1580156116e9573d6000803e3d6000fd5b505050506040513d60208110156116ff57600080fd5b5051105b1561171057506000611835565b604080516339ed25cd60e01b81526001600160a01b038781166004830152868116602483015291516000928916916339ed25cd916044808301926020929190829003018186803b15801561176357600080fd5b505afa158015611777573d6000803e3d6000fd5b505050506040513d602081101561178d57600080fd5b505190506001600160a01b03811615806118315750600480546040805163b1eafaab60e01b81526001600160a01b0385811694820194909452898416602482015260448101889052905186939092169163b1eafaab91606480820192602092909190829003018186803b15801561180357600080fd5b505afa158015611817573d6000803e3d6000fd5b505050506040513d602081101561182d57600080fd5b5051105b9150505b95945050505050565b611846612297565b6004805460408051631e7c58c160e31b81526001600160a01b038d8116948201949094528b8416602482015290516118f0938b936118eb93678ac7230489e8000093929091169163f3e2c60891604480820192602092909190829003018186803b1580156118b357600080fd5b505afa1580156118c7573d6000803e3d6000fd5b505050506040513d60208110156118dd57600080fd5b50519063ffffffff611e6b16565b611f9f565b81526118fa6122ba565b826001600160a01b031663eb7aac5f8a6040518263ffffffff1660e01b815260040180826001600160a01b03166001600160a01b0316815260200191505060206040518083038186803b15801561195057600080fd5b505afa158015611964573d6000803e3d6000fd5b505050506040513d602081101561197a57600080fd5b50516060820181905282516119a991899161199d91600a0a63ffffffff611fb516565b9063ffffffff61200e16565b826020018181525050611a3f8260000151600460009054906101000a90046001600160a01b03166001600160a01b031663f3e2c6088d8d6040518363ffffffff1660e01b815260040180836001600160a01b03166001600160a01b03168152602001826001600160a01b03166001600160a01b031681526020019250505060206040518083038186803b1580156118b357600080fd5b816000018181525050611ad58260200151600460009054906101000a90046001600160a01b03166001600160a01b031663305a53698d8d6040518363ffffffff1660e01b815260040180836001600160a01b03166001600160a01b03168152602001826001600160a01b03166001600160a01b031681526020019250505060206040518083038186803b1580156118b357600080fd5b60208201528051678ac7230489e800001415611cc5576004805460408051633ed3a18f60e21b81526001600160a01b038e8116948201949094528c841660248201529051929091169163fb4e863c9160448082019260009290919082900301818387803b158015611b4557600080fd5b505af1158015611b59573d6000803e3d6000fd5b50505050600460009054906101000a90046001600160a01b03166001600160a01b031663621117b68b8b60046040518463ffffffff1660e01b815260040180846001600160a01b03166001600160a01b03168152602001836001600160a01b03166001600160a01b031681526020018281526020019350505050600060405180830381600087803b158015611bed57600080fd5b505af1158015611c01573d6000803e3d6000fd5b50505050600460009054906101000a90046001600160a01b03166001600160a01b031663bed8854b8b8b678ac7230489e8000085602001516040518563ffffffff1660e01b815260040180856001600160a01b03166001600160a01b03168152602001846001600160a01b03166001600160a01b03168152602001838152602001828152602001945050505050600060405180830381600087803b158015611ca857600080fd5b505af1158015611cbc573d6000803e3d6000fd5b50505050611e5d565b611cdc816020015182600001518360600151612050565b6040820181905284141580611d0557506804e1003b28d9280000611d038260000151612094565b105b15611d17575060016040820152611e5f565b60048054604080840151815163bc9b5bd560e01b81526001600160a01b038f8116958201959095528d851660248201526044810191909152898416606482015288841660848201529051929091169163bc9b5bd59160a48082019260009290919082900301818387803b158015611d8d57600080fd5b505af1158015611da1573d6000803e3d6000fd5b50505050600460009054906101000a90046001600160a01b03166001600160a01b031663aad646138b8b846000015185602001516040518563ffffffff1660e01b815260040180856001600160a01b03166001600160a01b03168152602001846001600160a01b03166001600160a01b03168152602001838152602001828152602001945050505050600060405180830381600087803b158015611e4457600080fd5b505af1158015611e58573d6000803e3d6000fd5b505050505b505b98975050505050505050565b60006112dd83836040518060400160405280601e81526020017f536166654d6174683a207375627472616374696f6e206f766572666c6f7700008152506120ae565b6000611ecb8361199d86670de0b6b3a764000063ffffffff611fb516565b905081811115611535576040805162461bcd60e51b815260206004820152601d60248201527f4665652065786365656465642070726f7669646564206d6178696d756d000000604482015290519081900360640190fd5b6003546040516000916001600160a01b0316907f8be0079c531659141344cd1fd0a4f28419497f9722a3daafe3b4186f6b6457e0908390a3600380546001600160a01b0319169055565b600080611f7885611174565b90506000611f8586610347565b9050611f9382828787612145565b925050505b9392505050565b6000818310611fae57816112dd565b5090919050565b600082611fc4575060006112e0565b82820282848281611fd157fe5b04146112dd5760405162461bcd60e51b815260040180806020018281038252602181526020018061230f6021913960400191505060405180910390fd5b60006112dd83836040518060400160405280601a81526020017f536166654d6174683a206469766973696f6e206279207a65726f000000000000815250612187565b6000821561208b57600061206485846121ec565b90506120838461199d8368056bc75e2d6310000063ffffffff611fb516565b915050611f98565b50600019611f98565b60006112e082678ac7230489e8000063ffffffff611e6b16565b6000818484111561213d5760405162461bcd60e51b81526004018080602001828103825283818151815260200191508051906020019080838360005b838110156121025781810151838201526020016120ea565b50505050905090810190601f16801561212f5780820380516001836020036101000a031916815260200191505b509250505060405180910390fd5b505050900390565b6000831561217b57600061215986846121ec565b905060006121718661199d848863ffffffff611fb516565b9250610455915050565b50600019949350505050565b600081836121d65760405162461bcd60e51b81526020600482018181528351602484015283519092839260449091019190850190808383600083156121025781810151838201526020016120ea565b5060008385816121e257fe5b0495945050505050565b8160128211156122145761220d816011198401600a0a63ffffffff61200e16565b90506112e0565b60128210156112e0576112dd816012849003600a0a63ffffffff611fb516565b6040518061016001604052806000815260200160008152602001600081526020016000815260200160008152602001600081526020016000815260200160008152602001600081526020016000815260200160006001600160a01b031681525090565b604051806060016040528060008152602001600081526020016000151581525090565b604051806080016040528060008152602001600081526020016000815260200160008152509056fe526564656d7074696f6e48656c7065723a2043616c6c6572206973206e6f742054726f76654d616e61676572536166654d6174683a206d756c7469706c69636174696f6e206f766572666c6f77a264697066735822122063586c3332cdde797d780a95e9afc1fceeef8e630ae1aecdf3cdded647efaaec64736f6c634300060b0033",
  "linkReferences": {},
  "deployedLinkReferences": {}
}