{
  "_format": "hh-sol-artifact-1",
  "contractName": "ActivePoolTester",
  "sourceName": "contracts/TestContracts/ActivePoolTester.sol",
  "abi": [
    {
      "anonymous": false,
      "inputs": [
        {
          "indexed": false,
          "internalType": "address",
          "name": "_newActivePoolAddress",
          "type": "address"
        }
      ],
      "name": "ActivePoolAddressChanged",
      "type": "event"
    },
    {
      "anonymous": false,
      "inputs": [
        {
          "indexed": false,
          "internalType": "address",
          "name": "_collateral",
          "type": "address"
        },
        {
          "indexed": false,
          "internalType": "uint256",
          "name": "_amount",
          "type": "uint256"
        }
      ],
      "name": "ActivePoolCollateralBalanceUpdated",
      "type": "event"
    },
    {
      "anonymous": false,
      "inputs": [
        {
          "indexed": false,
          "internalType": "address",
          "name": "_collateral",
          "type": "address"
        },
        {
          "indexed": false,
          "internalType": "uint256",
          "name": "_LUSDDebt",
          "type": "uint256"
        }
      ],
      "name": "ActivePoolLUSDDebtUpdated",
      "type": "event"
    },
    {
      "anonymous": false,
      "inputs": [
        {
          "indexed": false,
          "internalType": "address",
          "name": "_newBorrowerOperationsAddress",
          "type": "address"
        }
      ],
      "name": "BorrowerOperationsAddressChanged",
      "type": "event"
    },
    {
      "anonymous": false,
      "inputs": [
        {
          "indexed": false,
          "internalType": "address",
          "name": "_collSurplusPoolAddress",
          "type": "address"
        }
      ],
      "name": "CollSurplusPoolAddressChanged",
      "type": "event"
    },
    {
      "anonymous": false,
      "inputs": [
        {
          "indexed": false,
          "internalType": "address",
          "name": "_newCollateralConfigAddress",
          "type": "address"
        }
      ],
      "name": "CollateralConfigAddressChanged",
      "type": "event"
    },
    {
      "anonymous": false,
      "inputs": [
        {
          "indexed": false,
          "internalType": "address",
          "name": "_collateral",
          "type": "address"
        },
        {
          "indexed": false,
          "internalType": "address",
          "name": "_to",
          "type": "address"
        },
        {
          "indexed": false,
          "internalType": "uint256",
          "name": "_amount",
          "type": "uint256"
        }
      ],
      "name": "CollateralSent",
      "type": "event"
    },
    {
      "anonymous": false,
      "inputs": [
        {
          "indexed": false,
          "internalType": "address",
          "name": "_newDefaultPoolAddress",
          "type": "address"
        }
      ],
      "name": "DefaultPoolAddressChanged",
      "type": "event"
    },
    {
      "anonymous": false,
      "inputs": [
        {
          "indexed": true,
          "internalType": "address",
          "name": "previousOwner",
          "type": "address"
        },
        {
          "indexed": true,
          "internalType": "address",
          "name": "newOwner",
          "type": "address"
        }
      ],
      "name": "OwnershipTransferred",
      "type": "event"
    },
    {
      "anonymous": false,
      "inputs": [
        {
          "indexed": false,
          "internalType": "address",
          "name": "_newStabilityPoolAddress",
          "type": "address"
        }
      ],
      "name": "StabilityPoolAddressChanged",
      "type": "event"
    },
    {
      "anonymous": false,
      "inputs": [
        {
          "indexed": false,
          "internalType": "address",
          "name": "_newTroveManagerAddress",
          "type": "address"
        }
      ],
      "name": "TroveManagerAddressChanged",
      "type": "event"
    },
    {
      "anonymous": false,
      "inputs": [
        {
          "indexed": false,
          "internalType": "address",
          "name": "_collateral",
          "type": "address"
        },
        {
          "indexed": false,
          "internalType": "uint256",
          "name": "_threshold",
          "type": "uint256"
        }
      ],
      "name": "YieldClaimThresholdUpdated",
      "type": "event"
    },
    {
      "anonymous": false,
      "inputs": [
        {
          "indexed": false,
          "internalType": "uint256",
          "name": "_treasurySplit",
          "type": "uint256"
        },
        {
          "indexed": false,
          "internalType": "uint256",
          "name": "_SPSplit",
          "type": "uint256"
        },
        {
          "indexed": false,
          "internalType": "uint256",
          "name": "_stakingSplit",
          "type": "uint256"
        }
      ],
      "name": "YieldDistributionParamsUpdated",
      "type": "event"
    },
    {
      "anonymous": false,
      "inputs": [
        {
          "indexed": false,
          "internalType": "uint256",
          "name": "_driftBps",
          "type": "uint256"
        }
      ],
      "name": "YieldingPercentageDriftUpdated",
      "type": "event"
    },
    {
      "anonymous": false,
      "inputs": [
        {
          "indexed": false,
          "internalType": "address",
          "name": "_collateral",
          "type": "address"
        },
        {
          "indexed": false,
          "internalType": "uint256",
          "name": "_bps",
          "type": "uint256"
        }
      ],
      "name": "YieldingPercentageUpdated",
      "type": "event"
    },
    {
      "inputs": [],
      "name": "NAME",
      "outputs": [
        {
          "internalType": "string",
          "name": "",
          "type": "string"
        }
      ],
      "stateMutability": "view",
      "type": "function"
    },
    {
      "inputs": [],
      "name": "addressesSet",
      "outputs": [
        {
          "internalType": "bool",
          "name": "",
          "type": "bool"
        }
      ],
      "stateMutability": "view",
      "type": "function"
    },
    {
      "inputs": [],
      "name": "borrowerOperationsAddress",
      "outputs": [
        {
          "internalType": "address",
          "name": "",
          "type": "address"
        }
      ],
      "stateMutability": "view",
      "type": "function"
    },
    {
      "inputs": [],
      "name": "collSurplusPoolAddress",
      "outputs": [
        {
          "internalType": "address",
          "name": "",
          "type": "address"
        }
      ],
      "stateMutability": "view",
      "type": "function"
    },
    {
      "inputs": [],
      "name": "collateralConfigAddress",
      "outputs": [
        {
          "internalType": "address",
          "name": "",
          "type": "address"
        }
      ],
      "stateMutability": "view",
      "type": "function"
    },
    {
      "inputs": [
        {
          "internalType": "address",
          "name": "_collateral",
          "type": "address"
        },
        {
          "internalType": "uint256",
          "name": "_amount",
          "type": "uint256"
        }
      ],
      "name": "decreaseLUSDDebt",
      "outputs": [],
      "stateMutability": "nonpayable",
      "type": "function"
    },
    {
      "inputs": [],
      "name": "defaultPoolAddress",
      "outputs": [
        {
          "internalType": "address",
          "name": "",
          "type": "address"
        }
      ],
      "stateMutability": "view",
      "type": "function"
    },
    {
      "inputs": [
        {
          "internalType": "address",
          "name": "_collateral",
          "type": "address"
        }
      ],
      "name": "getCollateral",
      "outputs": [
        {
          "internalType": "uint256",
          "name": "",
          "type": "uint256"
        }
      ],
      "stateMutability": "view",
      "type": "function"
    },
    {
      "inputs": [
        {
          "internalType": "address",
          "name": "_collateral",
          "type": "address"
        }
      ],
      "name": "getLUSDDebt",
      "outputs": [
        {
          "internalType": "uint256",
          "name": "",
          "type": "uint256"
        }
      ],
      "stateMutability": "view",
      "type": "function"
    },
    {
      "inputs": [
        {
          "internalType": "address",
          "name": "_collateral",
          "type": "address"
        },
        {
          "internalType": "uint256",
          "name": "_amount",
          "type": "uint256"
        }
      ],
      "name": "increaseLUSDDebt",
      "outputs": [],
      "stateMutability": "nonpayable",
      "type": "function"
    },
    {
      "inputs": [],
      "name": "isOwner",
      "outputs": [
        {
          "internalType": "bool",
          "name": "",
          "type": "bool"
        }
      ],
      "stateMutability": "view",
      "type": "function"
    },
    {
      "inputs": [],
      "name": "lqtyStakingAddress",
      "outputs": [
        {
          "internalType": "address",
          "name": "",
          "type": "address"
        }
      ],
      "stateMutability": "view",
      "type": "function"
    },
    {
      "inputs": [
        {
          "internalType": "address",
          "name": "_collateral",
          "type": "address"
        },
        {
          "internalType": "uint256",
          "name": "_simulatedAmountLeavingPool",
          "type": "uint256"
        }
      ],
      "name": "manualRebalance",
      "outputs": [],
      "stateMutability": "nonpayable",
      "type": "function"
    },
    {
      "inputs": [],
      "name": "owner",
      "outputs": [
        {
          "internalType": "address",
          "name": "",
          "type": "address"
        }
      ],
      "stateMutability": "view",
      "type": "function"
    },
    {
      "inputs": [
        {
          "internalType": "address",
          "name": "_collateral",
          "type": "address"
        },
        {
          "internalType": "uint256",
          "name": "_amount",
          "type": "uint256"
        }
      ],
      "name": "pullCollateralFromBorrowerOperationsOrDefaultPool",
      "outputs": [],
      "stateMutability": "nonpayable",
      "type": "function"
    },
    {
      "inputs": [
        {
          "internalType": "address",
          "name": "_collateral",
          "type": "address"
        },
        {
          "internalType": "address",
          "name": "_account",
          "type": "address"
        },
        {
          "internalType": "uint256",
          "name": "_amount",
          "type": "uint256"
        }
      ],
      "name": "sendCollateral",
      "outputs": [],
      "stateMutability": "nonpayable",
      "type": "function"
    },
    {
      "inputs": [
        {
          "internalType": "address",
          "name": "_collateralConfigAddress",
          "type": "address"
        },
        {
          "internalType": "address",
          "name": "_borrowerOperationsAddress",
          "type": "address"
        },
        {
          "internalType": "address",
          "name": "_troveManagerAddress",
          "type": "address"
        },
        {
          "internalType": "address",
          "name": "_stabilityPoolAddress",
          "type": "address"
        },
        {
          "internalType": "address",
          "name": "_defaultPoolAddress",
          "type": "address"
        },
        {
          "internalType": "address",
          "name": "_collSurplusPoolAddress",
          "type": "address"
        },
        {
          "internalType": "address",
          "name": "_treasuryAddress",
          "type": "address"
        },
        {
          "internalType": "address",
          "name": "_lqtyStakingAddress",
          "type": "address"
        },
        {
          "internalType": "address[]",
          "name": "_erc4626vaults",
          "type": "address[]"
        }
      ],
      "name": "setAddresses",
      "outputs": [],
      "stateMutability": "nonpayable",
      "type": "function"
    },
    {
      "inputs": [
        {
          "internalType": "address",
          "name": "_collateral",
          "type": "address"
        },
        {
          "internalType": "uint256",
          "name": "_threshold",
          "type": "uint256"
        }
      ],
      "name": "setYieldClaimThreshold",
      "outputs": [],
      "stateMutability": "nonpayable",
      "type": "function"
    },
    {
      "inputs": [
        {
          "internalType": "uint256",
          "name": "_treasurySplit",
          "type": "uint256"
        },
        {
          "internalType": "uint256",
          "name": "_SPSplit",
          "type": "uint256"
        },
        {
          "internalType": "uint256",
          "name": "_stakingSplit",
          "type": "uint256"
        }
      ],
      "name": "setYieldDistributionParams",
      "outputs": [],
      "stateMutability": "nonpayable",
      "type": "function"
    },
    {
      "inputs": [
        {
          "internalType": "address",
          "name": "_collateral",
          "type": "address"
        },
        {
          "internalType": "uint256",
          "name": "_bps",
          "type": "uint256"
        }
      ],
      "name": "setYieldingPercentage",
      "outputs": [],
      "stateMutability": "nonpayable",
      "type": "function"
    },
    {
      "inputs": [
        {
          "internalType": "uint256",
          "name": "_driftBps",
          "type": "uint256"
        }
      ],
      "name": "setYieldingPercentageDrift",
      "outputs": [],
      "stateMutability": "nonpayable",
      "type": "function"
    },
    {
      "inputs": [],
      "name": "stabilityPoolAddress",
      "outputs": [
        {
          "internalType": "address",
          "name": "",
          "type": "address"
        }
      ],
      "stateMutability": "view",
      "type": "function"
    },
    {
      "inputs": [],
      "name": "treasuryAddress",
      "outputs": [
        {
          "internalType": "address",
          "name": "",
          "type": "address"
        }
      ],
      "stateMutability": "view",
      "type": "function"
    },
    {
      "inputs": [],
      "name": "troveManagerAddress",
      "outputs": [
        {
          "internalType": "address",
          "name": "",
          "type": "address"
        }
      ],
      "stateMutability": "view",
      "type": "function"
    },
    {
      "inputs": [
        {
          "internalType": "address",
          "name": "_collateral",
          "type": "address"
        },
        {
          "internalType": "uint256",
          "name": "_amount",
          "type": "uint256"
        }
      ],
      "name": "unprotectedIncreaseLUSDDebt",
      "outputs": [],
      "stateMutability": "nonpayable",
      "type": "function"
    },
    {
      "inputs": [
        {
          "internalType": "address",
          "name": "_collateral",
          "type": "address"
        },
        {
          "internalType": "uint256",
          "name": "_amount",
          "type": "uint256"
        }
      ],
      "name": "unprotectedPullCollateral",
      "outputs": [],
      "stateMutability": "nonpayable",
      "type": "function"
    },
    {
      "inputs": [
        {
          "internalType": "address",
          "name": "",
          "type": "address"
        }
      ],
      "name": "yieldClaimThreshold",
      "outputs": [
        {
          "internalType": "uint256",
          "name": "",
          "type": "uint256"
        }
      ],
      "stateMutability": "view",
      "type": "function"
    },
    {
      "inputs": [
        {
          "internalType": "address",
          "name": "",
          "type": "address"
        }
      ],
      "name": "yieldGenerator",
      "outputs": [
        {
          "internalType": "address",
          "name": "",
          "type": "address"
        }
      ],
      "stateMutability": "view",
      "type": "function"
    },
    {
      "inputs": [],
      "name": "yieldSplitSP",
      "outputs": [
        {
          "internalType": "uint256",
          "name": "",
          "type": "uint256"
        }
      ],
      "stateMutability": "view",
      "type": "function"
    },
    {
      "inputs": [],
      "name": "yieldSplitStaking",
      "outputs": [
        {
          "internalType": "uint256",
          "name": "",
          "type": "uint256"
        }
      ],
      "stateMutability": "view",
      "type": "function"
    },
    {
      "inputs": [],
      "name": "yieldSplitTreasury",
      "outputs": [
        {
          "internalType": "uint256",
          "name": "",
          "type": "uint256"
        }
      ],
      "stateMutability": "view",
      "type": "function"
    },
    {
      "inputs": [
        {
          "internalType": "address",
          "name": "",
          "type": "address"
        }
      ],
      "name": "yieldingAmount",
      "outputs": [
        {
          "internalType": "uint256",
          "name": "",
          "type": "uint256"
        }
      ],
      "stateMutability": "view",
      "type": "function"
    },
    {
      "inputs": [
        {
          "internalType": "address",
          "name": "",
          "type": "address"
        }
      ],
      "name": "yieldingPercentage",
      "outputs": [
        {
          "internalType": "uint256",
          "name": "",
          "type": "uint256"
        }
      ],
      "stateMutability": "view",
      "type": "function"
    },
    {
      "inputs": [],
      "name": "yieldingPercentageDrift",
      "outputs": [
        {
          "internalType": "uint256",
          "name": "",
          "type": "uint256"
        }
      ],
      "stateMutability": "view",
      "type": "function"
    }
  ],
  "bytecode": "0x60806040526000805460ff60a01b191690556064600f556107d0601055610fa0601181905560125534801561003357600080fd5b50600080546001600160a01b0319163390811782556040519091907f8be0079c531659141344cd1fd0a4f28419497f9722a3daafe3b4186f6b6457e0908290a3612947806100826000396000f3fe608060405234801561001057600080fd5b50600436106101c65760003560e01c8063715aa61b116100fa5780639f7d52571161009d5780639f7d5257146104cd578063a3f4df7e146104d5578063aac1846f14610552578063b7f8cf9b1461055a578063c0835ed814610562578063c5f956af14610588578063c707f62514610590578063eb13cd101461064a578063fc08a27814610676576101c6565b8063715aa61b146103eb578063761ab22c146104215780638c943115146104295780638da5cb5b146104315780638f32d59b146104395780638fca46f4146104555780639b56d6c9146104815780639e6ed128146104a7576101c6565b806346a804411161016d57806346a80441146102a757806349af1bdf146102d05780634b14fa87146102fc5780635a4d28bb146103225780635fc7b5e81461032a578063622c07071461035657806362782a2f1461037c578063648079ca146103a25780636dc85da8146103ce576101c6565b8063015933de146101cb5780630b622ab2146101e55780632a9043ec146102095780632bc75d3514610211578063315851611461023f57806336c855df1461026b5780633aacc815146102735780633de2e0981461029f575b600080fd5b6101d361067e565b60408051918252519081900360200190f35b6101ed610684565b604080516001600160a01b039092168252519081900360200190f35b6101ed610693565b61023d6004803603604081101561022757600080fd5b506001600160a01b0381351690602001356106a2565b005b61023d6004803603604081101561025557600080fd5b506001600160a01b03813516906020013561074b565b6101ed6107a9565b61023d6004803603604081101561028957600080fd5b506001600160a01b0381351690602001356107b8565b6101d361084d565b61023d600480360360608110156102bd57600080fd5b5080359060208101359060400135610853565b61023d600480360360408110156102e657600080fd5b506001600160a01b038135169060200135610948565b6101d36004803603602081101561031257600080fd5b50356001600160a01b0316610991565b6101ed6109b8565b61023d6004803603604081101561034057600080fd5b506001600160a01b0381351690602001356109c7565b6101ed6004803603602081101561036c57600080fd5b50356001600160a01b0316610a01565b6101d36004803603602081101561039257600080fd5b50356001600160a01b0316610a1c565b61023d600480360360408110156103b857600080fd5b506001600160a01b038135169060200135610a2e565b61023d600480360360208110156103e457600080fd5b5035610a85565b61023d6004803603606081101561040157600080fd5b506001600160a01b03813581169160208101359091169060400135610b48565b6101ed610d7f565b6101d3610d8e565b6101ed610d94565b610441610da3565b604080519115158252519081900360200190f35b61023d6004803603604081101561046b57600080fd5b506001600160a01b038135169060200135610db4565b6101d36004803603602081101561049757600080fd5b50356001600160a01b0316610ea8565b6101d3600480360360208110156104bd57600080fd5b50356001600160a01b0316610ecf565b6101d3610ee1565b6104dd610ee7565b6040805160208082528351818301528351919283929083019185019080838360005b838110156105175781810151838201526020016104ff565b50505050905090810190601f1680156105445780820380516001836020036101000a031916815260200191505b509250505060405180910390f35b6101ed610f0d565b6101ed610f1c565b6101d36004803603602081101561057857600080fd5b50356001600160a01b0316610f2b565b6101ed610f3d565b61023d60048036036101208110156105a757600080fd5b6001600160a01b038235811692602081013582169260408201358316926060830135811692608081013582169260a082013583169260c083013581169260e0810135909116918101906101208101610100820135600160201b81111561060c57600080fd5b82018360208201111561061e57600080fd5b803590602001918460208302840111600160201b8311171561063f57600080fd5b509092509050610f4c565b61023d6004803603604081101561066057600080fd5b506001600160a01b038135169060200135611515565b6104416115cc565b60105481565b6004546001600160a01b031681565b6006546001600160a01b031681565b6106aa610da3565b6106e9576040805162461bcd60e51b815260206004820181905260248201526000805160206128a4833981519152604482015290519081900360640190fd5b6106f2826115dc565b6001600160a01b0382166000818152600e60209081526040918290208490558151928352820183905280517f24a014d0281283d717dc5b79bbcc192595a3c2d44607b8a2b919946d38011c4d9281900390910190a15050565b610753610da3565b610792576040805162461bcd60e51b815260206004820181905260248201526000805160206128a4833981519152604482015290519081900360640190fd5b61079b826115dc565b6107a582826116a9565b5050565b6001546001600160a01b031681565b6107c1826115dc565b6107c9611e45565b6001600160a01b0382166000908152600a60205260409020546107f2908263ffffffff611f3f16565b6001600160a01b0383166000818152600a6020908152604091829020849055815192835282019290925281517fc302289861a161b94f85213e562f9203e1a260db17e251062f09d18d2e33bbd9929181900390910190a15050565b60115481565b61085b610da3565b61089a576040805162461bcd60e51b815260206004820181905260248201526000805160206128a4833981519152604482015290519081900360640190fd5b8082840101612710146108f4576040805162461bcd60e51b815260206004820152601f60248201527f53706c697473206d7573742061646420757020746f2031303030302042505300604482015290519081900360640190fd5b601083905560118290556012819055604080518481526020810184905280820183905290517feea977fcccce470b4253ee1d11ad740fd2d7fb6f7b0d11bc1d4e95420391ba9c9181900360600190a1505050565b6001600160a01b0382166000908152600a6020526040902054610971908263ffffffff611f8a16565b6001600160a01b039092166000908152600a602052604090209190915550565b600061099c826115dc565b506001600160a01b03166000908152600a602052604090205490565b6003546001600160a01b031681565b6109d0826115dc565b6109d8611fe4565b6001600160a01b0382166000908152600a60205260409020546107f2908263ffffffff611f8a16565b600d602052600090815260409020546001600160a01b031681565b600c6020526000908152604090205481565b6001600160a01b038216600090815260096020526040902054610a57908263ffffffff611f8a16565b6001600160a01b0383166000818152600960205260409020919091556107a59033308463ffffffff61204416565b610a8d610da3565b610acc576040805162461bcd60e51b815260206004820181905260248201526000805160206128a4833981519152604482015290519081900360640190fd5b6101f4811115610b0d5760405162461bcd60e51b81526004018080602001828103825260248152602001806128ee6024913960400191505060405180910390fd5b600f8190556040805182815290517f5fbcff1e8cc75f2709306df7afa256d08e0fa54056bf30c960d04027aa4184cd9181900360200190a150565b610b51836115dc565b610b59611e45565b610b6383826116a9565b6001600160a01b038316600090815260096020526040902054610b8c908263ffffffff611f3f16565b6001600160a01b038416600081815260096020908152604091829020849055815192835282019290925281517f1425c832aad46d3d2e1f005ff3fc09c5576e2105c0649b973375224e6fec1704929181900390910190a1604080516001600160a01b0380861682528416602082015280820183905290517fe664153eb516123e000bb334869ec912418f6fe4c1abb53fe2f848c947a8405d9181900360600190a16005546001600160a01b0383811691161415610cd557600554610c63906001600160a01b0385811691168363ffffffff6120a416565b600554604080516374448ef960e01b81526001600160a01b03868116600483015260248201859052915191909216916374448ef991604480830192600092919082900301818387803b158015610cb857600080fd5b505af1158015610ccc573d6000803e3d6000fd5b50505050610d7a565b6006546001600160a01b0383811691161415610d6057600654610d0b906001600160a01b0385811691168363ffffffff6120a416565b600654604080516374448ef960e01b81526001600160a01b03868116600483015260248201859052915191909216916374448ef991604480830192600092919082900301818387803b158015610cb857600080fd5b610d7a6001600160a01b038416838363ffffffff61215216565b505050565b6008546001600160a01b031681565b600f5481565b6000546001600160a01b031690565b6000546001600160a01b0316331490565b610dbc610da3565b610dfb576040805162461bcd60e51b815260206004820181905260248201526000805160206128a4833981519152604482015290519081900360640190fd5b610e04826115dc565b612710811115610e4f576040805162461bcd60e51b8152602060048201526011602482015270496e76616c6964204250532076616c756560781b604482015290519081900360640190fd5b6001600160a01b0382166000818152600b60209081526040918290208490558151928352820183905280517ffeec3b80df49ed96aaf58c164a6c183a9cc1b48d44e43bfe0162b01e428371689281900390910190a15050565b6000610eb3826115dc565b506001600160a01b031660009081526009602052604090205490565b600e6020526000908152604090205481565b60125481565b6040518060400160405280600a8152602001691058dd1a5d99541bdbdb60b21b81525081565b6005546001600160a01b031681565b6002546001600160a01b031681565b600b6020526000908152604090205481565b6007546001600160a01b031681565b610f54610da3565b610f93576040805162461bcd60e51b815260206004820181905260248201526000805160206128a4833981519152604482015290519081900360640190fd5b600054600160a01b900460ff1615610ff2576040805162461bcd60e51b815260206004820152601f60248201527f43616e2063616c6c20736574416464726573736573206f6e6c79206f6e636500604482015290519081900360640190fd5b610ffb8a6121a4565b611004896121a4565b61100d886121a4565b611016876121a4565b61101f866121a4565b611028856121a4565b6001600160a01b038416611083576040805162461bcd60e51b815260206004820152601c60248201527f54726561737572792063616e6e6f742062652030206164647265737300000000604482015290519081900360640190fd5b61108c836121a4565b600180546001600160a01b03199081166001600160a01b038d811691909117928390556002805483168d83161790556003805483168c83161790556004805483168b83161781556005805484168b84161790556006805484168a841617905560078054841689841617905560088054909316878316179092556040805163b2604ecf60e01b815290516060949092169263b2604ecf928282019260009290829003018186803b15801561113e57600080fd5b505afa158015611152573d6000803e3d6000fd5b505050506040513d6000823e601f3d908101601f19168201604052602081101561117b57600080fd5b8101908080516040519392919084600160201b82111561119a57600080fd5b9083019060208201858111156111af57600080fd5b82518660208202830111600160201b821117156111cb57600080fd5b82525081516020918201928201910280838360005b838110156111f85781810151838201526020016111e0565b505050509190910160405250508251929350505082811461124a5760405162461bcd60e51b81526004018080602001828103825260348152602001806127a56034913960400191505060405180910390fd5b60005b8181101561138b57600083828151811061126357fe5b60200260200101519050600086868481811061127b57fe5b905060200201356001600160a01b03169050816001600160a01b0316816001600160a01b03166338d52e0f6040518163ffffffff1660e01b815260040160206040518083038186803b1580156112d057600080fd5b505afa1580156112e4573d6000803e3d6000fd5b505050506040513d60208110156112fa57600080fd5b50516001600160a01b031614611357576040805162461bcd60e51b815260206004820152601e60248201527f5661756c74206173736574206d75737420626520636f6c6c61746572616c0000604482015290519081900360640190fd5b6001600160a01b039182166000908152600d6020526040902080546001600160a01b0319169190921617905560010161124d565b50604080516001600160a01b038e16815290517f6a69409f44477d8556c3c8040edc75d9bc1b3dee7846f6045c0b99556fe7bc919181900360200190a1604080516001600160a01b038d16815290517f3ca631ffcd2a9b5d9ae18543fc82f58eb4ca33af9e6ab01b7a8e95331e6ed9859181900360200190a1604080516001600160a01b038c16815290517f143219c9e69b09e07e095fcc889b43d8f46ca892bba65f08dc3a0050869a56789181900360200190a1604080516001600160a01b038b16815290517f82966d27eea39b038ee0fa30cd16532bb24f6e65d31cb58fb227aa5766cdcc7f9181900360200190a1604080516001600160a01b038a16815290517f5ee0cae2f063ed938bb55046f6a932fb6ae792bf43624806bb90abe68a50be9b9181900360200190a1604080516001600160a01b038916815290517fe67f36a6e961157d6eff83b91f3af5a62131ceb6f04954ef74f51c1c05e7f88d9181900360200190a150506000805460ff60a01b1916600160a01b17905550505050505050505050565b61151e826115dc565b611526612253565b6001600160a01b03821660009081526009602052604090205461154f908263ffffffff611f8a16565b6001600160a01b038316600081815260096020908152604091829020849055815192835282019290925281517f1425c832aad46d3d2e1f005ff3fc09c5576e2105c0649b973375224e6fec1704929181900390910190a16115c16001600160a01b03831633308463ffffffff61204416565b6107a58260006116a9565b600054600160a01b900460ff1681565b60015460408051630658339960e51b81526001600160a01b0384811660048301529151919092169163cb067320916024808301926020929190829003018186803b15801561162957600080fd5b505afa15801561163d573d6000803e3d6000fd5b505050506040513d602081101561165357600080fd5b50516116a6576040805162461bcd60e51b815260206004820152601a60248201527f496e76616c696420636f6c6c61746572616c2061646472657373000000000000604482015290519081900360640190fd5b50565b6116b16126dd565b6001600160a01b038084166000818152600c60209081526040808320548652928252600d8152908290205490921683830181905281516370a0823160e01b8152306004820152915190926370a082319260248082019391829003018186803b15801561171c57600080fd5b505afa158015611730573d6000803e3d6000fd5b505050506040513d602081101561174657600080fd5b5051604080830182905260208381015182516303d1689d60e11b8152600481019490945291516001600160a01b03909216926307a2d13a9260248083019392829003018186803b15801561179957600080fd5b505afa1580156117ad573d6000803e3d6000fd5b505050506040513d60208110156117c357600080fd5b50516060820181905281516117de919063ffffffff611f3f16565b608082019081526001600160a01b0384166000908152600e60205260409020549051101561180e57600060808201525b6001600160a01b038316600090815260096020526040902054611837908363ffffffff611f3f16565b60a08201819052156118725760a0810151815161186d91906118619061271063ffffffff6122b116565b9063ffffffff61230a16565b611876565b6000195b60c08201526001600160a01b0383166000908152600b602052604090205460e0820181905260a08201516118b791612710916118619163ffffffff6122b116565b6101608201526001600160a01b0383166000908152600c602052604090205461014082015260e081015160c082015111801561190c5750600f5460e082015160c083015161190a9163ffffffff611f3f16565b115b1561196b5761016081015181516119289163ffffffff611f3f16565b61012082018190526101408201516119459163ffffffff611f3f16565b61014082018190526001600160a01b0384166000908152600c60205260409020556119f6565b8060e001518160c0015110801561199b5750600f5460c082015160e08301516119999163ffffffff611f3f16565b115b156119f65780516101608201516119b79163ffffffff611f3f16565b61010082018190526101408201516119d49163ffffffff611f8a16565b61014082018190526001600160a01b0384166000908152600c60205260409020555b60808101516101208201516101008301510303610180820181905260001215611ae4576001600160a01b038084166000818152600d6020526040902054610180840151611a4d93919091169063ffffffff6120a416565b6001600160a01b038084166000908152600d60209081526040808320546101808601518251636e553f6560e01b815260048101919091523060248201529151941693636e553f6593604480840194938390030190829087803b158015611ab257600080fd5b505af1158015611ac6573d6000803e3d6000fd5b505050506040513d6020811015611adc57600080fd5b50611b8b9050565b60008161018001511215611b8b576001600160a01b038084166000908152600d60209081526040808320546101808601518251632d182be560e21b8152908503600482015230602482018190526044820152915194169363b460af9493606480840194938390030190829087803b158015611b5e57600080fd5b505af1158015611b72573d6000803e3d6000fd5b505050506040513d6020811015611b8857600080fd5b50505b608081015115610d7a576001600160a01b0383166000818152600960209081526040918290205461014085015183516370a0823160e01b81523060048201529351611c3d959294611c31949293926370a0823192602480840193829003018186803b158015611bf957600080fd5b505afa158015611c0d573d6000803e3d6000fd5b505050506040513d6020811015611c2357600080fd5b50519063ffffffff611f8a16565b9063ffffffff611f3f16565b6080820181905215610d7a57611c6861271061186160105484608001516122b190919063ffffffff16565b6101a0820181905215611c9c576007546101a0820151611c9c916001600160a01b038681169291169063ffffffff61215216565b611cbb61271061186160125484608001516122b190919063ffffffff16565b6101c0820181905215611d64576008546101c0820151611cef916001600160a01b038681169291169063ffffffff61215216565b6008546101c0820151604080516335989d2f60e21b81526001600160a01b03878116600483015260248201939093529051919092169163d66274bc91604480830192600092919082900301818387803b158015611d4b57600080fd5b505af1158015611d5f573d6000803e3d6000fd5b505050505b611d95611d84826101c00151836101a00151611f8a90919063ffffffff16565b60808301519063ffffffff611f3f16565b6101e0820181905215610d7a576004546101e0820151611dc9916001600160a01b038681169291169063ffffffff61215216565b600480546101e0830151604080516309dc14af60e31b81526001600160a01b03888116958201959095526024810192909252519290911691634ee0a5789160448082019260009290919082900301818387803b158015611e2857600080fd5b505af1158015611e3c573d6000803e3d6000fd5b50505050505050565b6003546040805163aff5917f60e01b815290516000926001600160a01b03169163aff5917f916004808301926020929190829003018186803b158015611e8a57600080fd5b505afa158015611e9e573d6000803e3d6000fd5b505050506040513d6020811015611eb457600080fd5b50516002549091506001600160a01b0316331480611edc57506003546001600160a01b031633145b80611eef5750336001600160a01b038216145b80611f0457506004546001600160a01b031633145b6116a65760405162461bcd60e51b81526004018080602001828103825260538152602001806127ff6053913960600191505060405180910390fd5b6000611f8183836040518060400160405280601e81526020017f536166654d6174683a207375627472616374696f6e206f766572666c6f77000081525061234c565b90505b92915050565b600082820183811015611f81576040805162461bcd60e51b815260206004820152601b60248201527f536166654d6174683a206164646974696f6e206f766572666c6f770000000000604482015290519081900360640190fd5b6002546001600160a01b031633148061200757506003546001600160a01b031633145b6120425760405162461bcd60e51b81526004018080602001828103825260418152602001806127646041913960600191505060405180910390fd5b565b604080516001600160a01b0380861660248301528416604482015260648082018490528251808303909101815260849091019091526020810180516001600160e01b03166323b872dd60e01b17905261209e9085906123e8565b50505050565b60408051636eb1769f60e11b81523060048201526001600160a01b03848116602483015291516000926120fd9285929188169163dd62ed3e91604480820192602092909190829003018186803b158015611bf957600080fd5b604080516001600160a01b038616602482015260448082018490528251808303909101815260649091019091526020810180516001600160e01b031663095ea7b360e01b17905290915061209e9085906123e8565b604080516001600160a01b038416602482015260448082018490528251808303909101815260649091019091526020810180516001600160e01b031663a9059cbb60e01b179052610d7a9084906123e8565b6001600160a01b0381166121ff576040805162461bcd60e51b815260206004820152601e60248201527f4163636f756e742063616e6e6f74206265207a65726f20616464726573730000604482015290519081900360640190fd5b803b806107a5576040805162461bcd60e51b815260206004820181905260248201527f4163636f756e7420636f64652073697a652063616e6e6f74206265207a65726f604482015290519081900360640190fd5b6002546001600160a01b031633148061227657506005546001600160a01b031633145b6120425760405162461bcd60e51b81526004018080602001828103825260318152602001806128526031913960400191505060405180910390fd5b6000826122c057506000611f84565b828202828482816122cd57fe5b0414611f815760405162461bcd60e51b81526004018080602001828103825260218152602001806128836021913960400191505060405180910390fd5b6000611f8183836040518060400160405280601a81526020017f536166654d6174683a206469766973696f6e206279207a65726f000000000000815250612499565b600081848411156123db5760405162461bcd60e51b81526004018080602001828103825283818151815260200191508051906020019080838360005b838110156123a0578181015183820152602001612388565b50505050905090810190601f1680156123cd5780820380516001836020036101000a031916815260200191505b509250505060405180910390fd5b50508183035b9392505050565b606061243d826040518060400160405280602081526020017f5361666545524332303a206c6f772d6c6576656c2063616c6c206661696c6564815250856001600160a01b03166124fe9092919063ffffffff16565b805190915015610d7a5780806020019051602081101561245c57600080fd5b5051610d7a5760405162461bcd60e51b815260040180806020018281038252602a8152602001806128c4602a913960400191505060405180910390fd5b600081836124e85760405162461bcd60e51b81526020600482018181528351602484015283519092839260449091019190850190808383600083156123a0578181015183820152602001612388565b5060008385816124f457fe5b0495945050505050565b606061250d8484600085612515565b949350505050565b6060824710156125565760405162461bcd60e51b81526004018080602001828103825260268152602001806127d96026913960400191505060405180910390fd5b61255f85612671565b6125b0576040805162461bcd60e51b815260206004820152601d60248201527f416464726573733a2063616c6c20746f206e6f6e2d636f6e7472616374000000604482015290519081900360640190fd5b60006060866001600160a01b031685876040518082805190602001908083835b602083106125ef5780518252601f1990920191602091820191016125d0565b6001836020036101000a03801982511681845116808217855250505050505090500191505060006040518083038185875af1925050503d8060008114612651576040519150601f19603f3d011682016040523d82523d6000602084013e612656565b606091505b5091509150612666828286612677565b979650505050505050565b3b151590565b606083156126865750816123e1565b8251156126965782518084602001fd5b60405162461bcd60e51b81526020600482018181528451602484015284518593919283926044019190850190808383600083156123a0578181015183820152602001612388565b6040518061020001604052806000815260200160006001600160a01b031681526020016000815260200160008152602001600081526020016000815260200160008152602001600081526020016000815260200160008152602001600081526020016000815260200160008152602001600081526020016000815260200160008152509056fe416374697665506f6f6c3a2043616c6c6572206973206e65697468657220426f72726f7765724f7065726174696f6e73206e6f722054726f76654d616e616765725661756c7473206172726179206c656e677468206d757374206d61746368206e756d626572206f6620636f6c6c61746572616c73416464726573733a20696e73756666696369656e742062616c616e636520666f722063616c6c416374697665506f6f6c3a2043616c6c6572206973206e65697468657220426f72726f7765724f7065726174696f6e73206e6f722054726f76654d616e61676572206e6f722053746162696c697479506f6f6c416374697665506f6f6c3a2043616c6c6572206973206e65697468657220424f206e6f722044656661756c7420506f6f6c536166654d6174683a206d756c7469706c69636174696f6e206f766572666c6f774f776e61626c653a2063616c6c6572206973206e6f7420746865206f776e65725361666545524332303a204552433230206f7065726174696f6e20646964206e6f74207375636365656445786365656473206d617820616c6c6f7765642076616c7565206f662035303020425053a2646970667358221220467f08d3a5427ae9a4176017cb8d6a3484bed10096424893df632e3ae1c4bf2164736f6c634300060b0033",
  "linkReferences": {},
  "deployedLinkReferences": {}
}