{
  "_format": "hh-sol-artifact-1",
  "contractName": "BorrowerOperations",
  "sourceName": "contracts/BorrowerOperations.sol",
  "abi": [
    {
      "anonymous": false,
      "inputs": [
        {
          "indexed": false,
          "internalType": "address",
          "name": "_activePoolAddress",
          "type": "address"
        }
      ],
      "name": "ActivePoolAddressChanged",
      "type": "event"
    },
    {
      "anonymous": false,
      "inputs": [
        {
          "indexed": false,
          "internalType": "address",
          "name": "_collSurplusPoolAddress",
          "type": "address"
        }
      ],
      "name": "CollSurplusPoolAddressChanged",
      "type": "event"
    },
    {
      "anonymous": false,
      "inputs": [
        {
          "indexed": false,
          "internalType": "address",
          "name": "_newCollateralConfigAddress",
          "type": "address"
        }
      ],
      "name": "CollateralConfigAddressChanged",
      "type": "event"
    },
    {
      "anonymous": false,
      "inputs": [
        {
          "indexed": false,
          "internalType": "address",
          "name": "_defaultPoolAddress",
          "type": "address"
        }
      ],
      "name": "DefaultPoolAddressChanged",
      "type": "event"
    },
    {
      "anonymous": false,
      "inputs": [
        {
          "indexed": false,
          "internalType": "address",
          "name": "_gasPoolAddress",
          "type": "address"
        }
      ],
      "name": "GasPoolAddressChanged",
      "type": "event"
    },
    {
      "anonymous": false,
      "inputs": [
        {
          "indexed": false,
          "internalType": "address",
          "name": "_lqtyStakingAddress",
          "type": "address"
        }
      ],
      "name": "LQTYStakingAddressChanged",
      "type": "event"
    },
    {
      "anonymous": false,
      "inputs": [
        {
          "indexed": true,
          "internalType": "address",
          "name": "_borrower",
          "type": "address"
        },
        {
          "indexed": false,
          "internalType": "address",
          "name": "_collateral",
          "type": "address"
        },
        {
          "indexed": false,
          "internalType": "uint256",
          "name": "_LUSDFee",
          "type": "uint256"
        }
      ],
      "name": "LUSDBorrowingFeePaid",
      "type": "event"
    },
    {
      "anonymous": false,
      "inputs": [
        {
          "indexed": false,
          "internalType": "address",
          "name": "_lusdTokenAddress",
          "type": "address"
        }
      ],
      "name": "LUSDTokenAddressChanged",
      "type": "event"
    },
    {
      "anonymous": false,
      "inputs": [
        {
          "indexed": true,
          "internalType": "address",
          "name": "previousOwner",
          "type": "address"
        },
        {
          "indexed": true,
          "internalType": "address",
          "name": "newOwner",
          "type": "address"
        }
      ],
      "name": "OwnershipTransferred",
      "type": "event"
    },
    {
      "anonymous": false,
      "inputs": [
        {
          "indexed": false,
          "internalType": "address",
          "name": "_newPriceFeedAddress",
          "type": "address"
        }
      ],
      "name": "PriceFeedAddressChanged",
      "type": "event"
    },
    {
      "anonymous": false,
      "inputs": [
        {
          "indexed": false,
          "internalType": "address",
          "name": "_sortedTrovesAddress",
          "type": "address"
        }
      ],
      "name": "SortedTrovesAddressChanged",
      "type": "event"
    },
    {
      "anonymous": false,
      "inputs": [
        {
          "indexed": false,
          "internalType": "address",
          "name": "_stabilityPoolAddress",
          "type": "address"
        }
      ],
      "name": "StabilityPoolAddressChanged",
      "type": "event"
    },
    {
      "anonymous": false,
      "inputs": [
        {
          "indexed": true,
          "internalType": "address",
          "name": "_borrower",
          "type": "address"
        },
        {
          "indexed": false,
          "internalType": "address",
          "name": "_collateral",
          "type": "address"
        },
        {
          "indexed": false,
          "internalType": "uint256",
          "name": "arrayIndex",
          "type": "uint256"
        }
      ],
      "name": "TroveCreated",
      "type": "event"
    },
    {
      "anonymous": false,
      "inputs": [
        {
          "indexed": false,
          "internalType": "address",
          "name": "_newTroveManagerAddress",
          "type": "address"
        }
      ],
      "name": "TroveManagerAddressChanged",
      "type": "event"
    },
    {
      "anonymous": false,
      "inputs": [
        {
          "indexed": true,
          "internalType": "address",
          "name": "_borrower",
          "type": "address"
        },
        {
          "indexed": false,
          "internalType": "address",
          "name": "_collateral",
          "type": "address"
        },
        {
          "indexed": false,
          "internalType": "uint256",
          "name": "_debt",
          "type": "uint256"
        },
        {
          "indexed": false,
          "internalType": "uint256",
          "name": "_coll",
          "type": "uint256"
        },
        {
          "indexed": false,
          "internalType": "uint256",
          "name": "stake",
          "type": "uint256"
        },
        {
          "indexed": false,
          "internalType": "enum BorrowerOperations.BorrowerOperation",
          "name": "operation",
          "type": "uint8"
        }
      ],
      "name": "TroveUpdated",
      "type": "event"
    },
    {
      "inputs": [],
      "name": "BORROWING_FEE_FLOOR",
      "outputs": [
        {
          "internalType": "uint256",
          "name": "",
          "type": "uint256"
        }
      ],
      "stateMutability": "view",
      "type": "function"
    },
    {
      "inputs": [],
      "name": "DECIMAL_PRECISION",
      "outputs": [
        {
          "internalType": "uint256",
          "name": "",
          "type": "uint256"
        }
      ],
      "stateMutability": "view",
      "type": "function"
    },
    {
      "inputs": [],
      "name": "LUSD_GAS_COMPENSATION",
      "outputs": [
        {
          "internalType": "uint256",
          "name": "",
          "type": "uint256"
        }
      ],
      "stateMutability": "view",
      "type": "function"
    },
    {
      "inputs": [],
      "name": "MIN_NET_DEBT",
      "outputs": [
        {
          "internalType": "uint256",
          "name": "",
          "type": "uint256"
        }
      ],
      "stateMutability": "view",
      "type": "function"
    },
    {
      "inputs": [],
      "name": "NAME",
      "outputs": [
        {
          "internalType": "string",
          "name": "",
          "type": "string"
        }
      ],
      "stateMutability": "view",
      "type": "function"
    },
    {
      "inputs": [],
      "name": "PERCENT_DIVISOR",
      "outputs": [
        {
          "internalType": "uint256",
          "name": "",
          "type": "uint256"
        }
      ],
      "stateMutability": "view",
      "type": "function"
    },
    {
      "inputs": [],
      "name": "_100pct",
      "outputs": [
        {
          "internalType": "uint256",
          "name": "",
          "type": "uint256"
        }
      ],
      "stateMutability": "view",
      "type": "function"
    },
    {
      "inputs": [],
      "name": "activePool",
      "outputs": [
        {
          "internalType": "contract IActivePool",
          "name": "",
          "type": "address"
        }
      ],
      "stateMutability": "view",
      "type": "function"
    },
    {
      "inputs": [
        {
          "internalType": "address",
          "name": "_collateral",
          "type": "address"
        },
        {
          "internalType": "uint256",
          "name": "_collAmount",
          "type": "uint256"
        },
        {
          "internalType": "address",
          "name": "_upperHint",
          "type": "address"
        },
        {
          "internalType": "address",
          "name": "_lowerHint",
          "type": "address"
        }
      ],
      "name": "addColl",
      "outputs": [],
      "stateMutability": "nonpayable",
      "type": "function"
    },
    {
      "inputs": [
        {
          "internalType": "address",
          "name": "_collateral",
          "type": "address"
        },
        {
          "internalType": "uint256",
          "name": "_maxFeePercentage",
          "type": "uint256"
        },
        {
          "internalType": "uint256",
          "name": "_collTopUp",
          "type": "uint256"
        },
        {
          "internalType": "uint256",
          "name": "_collWithdrawal",
          "type": "uint256"
        },
        {
          "internalType": "uint256",
          "name": "_LUSDChange",
          "type": "uint256"
        },
        {
          "internalType": "bool",
          "name": "_isDebtIncrease",
          "type": "bool"
        },
        {
          "internalType": "address",
          "name": "_upperHint",
          "type": "address"
        },
        {
          "internalType": "address",
          "name": "_lowerHint",
          "type": "address"
        }
      ],
      "name": "adjustTrove",
      "outputs": [],
      "stateMutability": "nonpayable",
      "type": "function"
    },
    {
      "inputs": [
        {
          "internalType": "address",
          "name": "_collateral",
          "type": "address"
        }
      ],
      "name": "claimCollateral",
      "outputs": [],
      "stateMutability": "nonpayable",
      "type": "function"
    },
    {
      "inputs": [
        {
          "internalType": "address",
          "name": "_collateral",
          "type": "address"
        }
      ],
      "name": "closeTrove",
      "outputs": [],
      "stateMutability": "nonpayable",
      "type": "function"
    },
    {
      "inputs": [],
      "name": "collateralConfig",
      "outputs": [
        {
          "internalType": "contract ICollateralConfig",
          "name": "",
          "type": "address"
        }
      ],
      "stateMutability": "view",
      "type": "function"
    },
    {
      "inputs": [],
      "name": "defaultPool",
      "outputs": [
        {
          "internalType": "contract IDefaultPool",
          "name": "",
          "type": "address"
        }
      ],
      "stateMutability": "view",
      "type": "function"
    },
    {
      "inputs": [
        {
          "internalType": "uint256",
          "name": "_debt",
          "type": "uint256"
        }
      ],
      "name": "getCompositeDebt",
      "outputs": [
        {
          "internalType": "uint256",
          "name": "",
          "type": "uint256"
        }
      ],
      "stateMutability": "pure",
      "type": "function"
    },
    {
      "inputs": [
        {
          "internalType": "address",
          "name": "_collateral",
          "type": "address"
        }
      ],
      "name": "getEntireSystemColl",
      "outputs": [
        {
          "internalType": "uint256",
          "name": "entireSystemColl",
          "type": "uint256"
        }
      ],
      "stateMutability": "view",
      "type": "function"
    },
    {
      "inputs": [
        {
          "internalType": "address",
          "name": "_collateral",
          "type": "address"
        }
      ],
      "name": "getEntireSystemDebt",
      "outputs": [
        {
          "internalType": "uint256",
          "name": "entireSystemDebt",
          "type": "uint256"
        }
      ],
      "stateMutability": "view",
      "type": "function"
    },
    {
      "inputs": [],
      "name": "isOwner",
      "outputs": [
        {
          "internalType": "bool",
          "name": "",
          "type": "bool"
        }
      ],
      "stateMutability": "view",
      "type": "function"
    },
    {
      "inputs": [],
      "name": "lqtyStaking",
      "outputs": [
        {
          "internalType": "contract ILQTYStaking",
          "name": "",
          "type": "address"
        }
      ],
      "stateMutability": "view",
      "type": "function"
    },
    {
      "inputs": [],
      "name": "lqtyStakingAddress",
      "outputs": [
        {
          "internalType": "address",
          "name": "",
          "type": "address"
        }
      ],
      "stateMutability": "view",
      "type": "function"
    },
    {
      "inputs": [],
      "name": "lusdToken",
      "outputs": [
        {
          "internalType": "contract ILUSDToken",
          "name": "",
          "type": "address"
        }
      ],
      "stateMutability": "view",
      "type": "function"
    },
    {
      "inputs": [
        {
          "internalType": "address",
          "name": "_borrower",
          "type": "address"
        },
        {
          "internalType": "address",
          "name": "_collateral",
          "type": "address"
        },
        {
          "internalType": "uint256",
          "name": "_collAmount",
          "type": "uint256"
        },
        {
          "internalType": "address",
          "name": "_upperHint",
          "type": "address"
        },
        {
          "internalType": "address",
          "name": "_lowerHint",
          "type": "address"
        }
      ],
      "name": "moveCollateralGainToTrove",
      "outputs": [],
      "stateMutability": "nonpayable",
      "type": "function"
    },
    {
      "inputs": [
        {
          "internalType": "address",
          "name": "_collateral",
          "type": "address"
        },
        {
          "internalType": "uint256",
          "name": "_collAmount",
          "type": "uint256"
        },
        {
          "internalType": "uint256",
          "name": "_maxFeePercentage",
          "type": "uint256"
        },
        {
          "internalType": "uint256",
          "name": "_LUSDAmount",
          "type": "uint256"
        },
        {
          "internalType": "address",
          "name": "_upperHint",
          "type": "address"
        },
        {
          "internalType": "address",
          "name": "_lowerHint",
          "type": "address"
        }
      ],
      "name": "openTrove",
      "outputs": [],
      "stateMutability": "nonpayable",
      "type": "function"
    },
    {
      "inputs": [],
      "name": "owner",
      "outputs": [
        {
          "internalType": "address",
          "name": "",
          "type": "address"
        }
      ],
      "stateMutability": "view",
      "type": "function"
    },
    {
      "inputs": [],
      "name": "priceFeed",
      "outputs": [
        {
          "internalType": "contract IPriceFeed",
          "name": "",
          "type": "address"
        }
      ],
      "stateMutability": "view",
      "type": "function"
    },
    {
      "inputs": [
        {
          "internalType": "address",
          "name": "_collateral",
          "type": "address"
        },
        {
          "internalType": "uint256",
          "name": "_LUSDAmount",
          "type": "uint256"
        },
        {
          "internalType": "address",
          "name": "_upperHint",
          "type": "address"
        },
        {
          "internalType": "address",
          "name": "_lowerHint",
          "type": "address"
        }
      ],
      "name": "repayLUSD",
      "outputs": [],
      "stateMutability": "nonpayable",
      "type": "function"
    },
    {
      "inputs": [
        {
          "internalType": "address",
          "name": "_collateralConfigAddress",
          "type": "address"
        },
        {
          "internalType": "address",
          "name": "_troveManagerAddress",
          "type": "address"
        },
        {
          "internalType": "address",
          "name": "_activePoolAddress",
          "type": "address"
        },
        {
          "internalType": "address",
          "name": "_defaultPoolAddress",
          "type": "address"
        },
        {
          "internalType": "address",
          "name": "_stabilityPoolAddress",
          "type": "address"
        },
        {
          "internalType": "address",
          "name": "_gasPoolAddress",
          "type": "address"
        },
        {
          "internalType": "address",
          "name": "_collSurplusPoolAddress",
          "type": "address"
        },
        {
          "internalType": "address",
          "name": "_priceFeedAddress",
          "type": "address"
        },
        {
          "internalType": "address",
          "name": "_sortedTrovesAddress",
          "type": "address"
        },
        {
          "internalType": "address",
          "name": "_lusdTokenAddress",
          "type": "address"
        },
        {
          "internalType": "address",
          "name": "_lqtyStakingAddress",
          "type": "address"
        }
      ],
      "name": "setAddresses",
      "outputs": [],
      "stateMutability": "nonpayable",
      "type": "function"
    },
    {
      "inputs": [],
      "name": "sortedTroves",
      "outputs": [
        {
          "internalType": "contract ISortedTroves",
          "name": "",
          "type": "address"
        }
      ],
      "stateMutability": "view",
      "type": "function"
    },
    {
      "inputs": [],
      "name": "troveManager",
      "outputs": [
        {
          "internalType": "contract ITroveManager",
          "name": "",
          "type": "address"
        }
      ],
      "stateMutability": "view",
      "type": "function"
    },
    {
      "inputs": [
        {
          "internalType": "address",
          "name": "_collateral",
          "type": "address"
        },
        {
          "internalType": "uint256",
          "name": "_collWithdrawal",
          "type": "uint256"
        },
        {
          "internalType": "address",
          "name": "_upperHint",
          "type": "address"
        },
        {
          "internalType": "address",
          "name": "_lowerHint",
          "type": "address"
        }
      ],
      "name": "withdrawColl",
      "outputs": [],
      "stateMutability": "nonpayable",
      "type": "function"
    },
    {
      "inputs": [
        {
          "internalType": "address",
          "name": "_collateral",
          "type": "address"
        },
        {
          "internalType": "uint256",
          "name": "_maxFeePercentage",
          "type": "uint256"
        },
        {
          "internalType": "uint256",
          "name": "_LUSDAmount",
          "type": "uint256"
        },
        {
          "internalType": "address",
          "name": "_upperHint",
          "type": "address"
        },
        {
          "internalType": "address",
          "name": "_lowerHint",
          "type": "address"
        }
      ],
      "name": "withdrawLUSD",
      "outputs": [],
      "stateMutability": "nonpayable",
      "type": "function"
    }
  ],
  "bytecode": "0x608060405234801561001057600080fd5b50600380546001600160a01b031916339081179091556040516000907f8be0079c531659141344cd1fd0a4f28419497f9722a3daafe3b4186f6b6457e0908290a3614478806100606000396000f3fe608060405234801561001057600080fd5b50600436106101a55760003560e01c80637985c5e4116100ef578063a20baee611610092578063a20baee614610309578063a3a64017146104f0578063a3f4df7e146104f8578063ae91875414610575578063b83f91a21461057d578063cbd138ae14610585578063e213354a146105ab578063f92d3433146105f1576101a5565b80637985c5e4146103785780637da0b1fa146103f45780637f7dde4a1461043c5780638235b2841461044457806386a3e59a1461046a5780638da5cb5b146104a65780638f32d59b146104ae5780639e86d0c4146104ca576101a5565b806349b010c51161015757806349b010c5146102645780634ff81443146102a05780635c0ab4de146102bd5780635e66c921146102c557806372fe25aa14610309578063741bef1a146103115780637439902114610319578063761ab22c14610370576101a5565b80631bf43555146101aa57806327d04b35146101c45780632e86bbd8146101ea5780633cc74225146101f25780633d83908a146102165780634870dd9a1461021e57806348a4a39d14610226575b600080fd5b6101b26105f9565b60408051918252519081900360200190f35b6101b2600480360360208110156101da57600080fd5b50356001600160a01b0316610606565b6101b261071c565b6101fa610728565b604080516001600160a01b039092168252519081900360200190f35b6101fa610737565b6101b2610746565b6102626004803603608081101561023c57600080fd5b506001600160a01b0381358116916020810135916040820135811691606001351661074b565b005b6102626004803603608081101561027a57600080fd5b506001600160a01b03813581169160208101359160408201358116916060013516610770565b6101b2600480360360208110156102b657600080fd5b5035610784565b6101fa610795565b610262600480360360a08110156102db57600080fd5b506001600160a01b0381358116916020810135916040820135916060810135821691608090910135166107a4565b6101b26107be565b6101fa6107ca565b610262600480360361010081101561033057600080fd5b506001600160a01b03813581169160208101359160408201359160608101359160808201359160a081013515159160c082013581169160e00135166107d9565b6101fa610805565b610262600480360361016081101561038f57600080fd5b506001600160a01b038135811691602081013582169160408201358116916060810135821691608082013581169160a081013582169160c082013581169160e08101358216916101008201358116916101208101358216916101409091013516610814565b610262600480360360c081101561040a57600080fd5b506001600160a01b038135811691602081013591604082013591606081013591608082013581169160a0013516610c17565b6101fa6114ac565b6102626004803603602081101561045a57600080fd5b50356001600160a01b03166114bb565b6102626004803603608081101561048057600080fd5b506001600160a01b03813581169160208101359160408201358116916060013516611523565b6101fa611537565b6104b6611546565b604080519115158252519081900360200190f35b6101b2600480360360208110156104e057600080fd5b50356001600160a01b0316611557565b6101fa611627565b610500611636565b6040805160208082528351818301528351919283929083019185019080838360005b8381101561053a578181015183820152602001610522565b50505050905090810190601f1680156105675780820380516001836020036101000a031916815260200191505b509250505060405180910390f35b6101fa611664565b6101fa611673565b6102626004803603602081101561059b57600080fd5b50356001600160a01b0316611682565b610262600480360360a08110156105c157600080fd5b506001600160a01b0381358116916020810135821691604082013591606081013582169160809091013516611bf2565b6101b2611c0e565b6804e1003b28d928000081565b6000805460408051634b14fa8760e01b81526001600160a01b038581166004830152915184939290921691634b14fa8791602480820192602092909190829003018186803b15801561065757600080fd5b505afa15801561066b573d6000803e3d6000fd5b505050506040513d602081101561068157600080fd5b505160015460408051634b14fa8760e01b81526001600160a01b03878116600483015291519394506000939190921691634b14fa87916024808301926020929190829003018186803b1580156106d657600080fd5b505afa1580156106ea573d6000803e3d6000fd5b505050506040513d602081101561070057600080fd5b50519050610714828263ffffffff611c1916565b949350505050565b678ac7230489e8000081565b6001546001600160a01b031681565b6005546001600160a01b031681565b60c881565b610756338585611c7a565b61076a338585600080600088886000611df8565b50505050565b61076a338560008660008088886000611df8565b600061078f82612641565b92915050565b6004546001600160a01b031681565b6107b7338660008087600188888c611df8565b5050505050565b670de0b6b3a764000081565b6002546001600160a01b031681565b85156107ea576107ea338988611c7a565b6107fb33898888888888888f611df8565b5050505050505050565b600a546001600160a01b031681565b61081c611546565b61086d576040805162461bcd60e51b815260206004820181905260248201527f4f776e61626c653a2063616c6c6572206973206e6f7420746865206f776e6572604482015290519081900360640190fd5b6108768b61265b565b61087f8a61265b565b6108888961265b565b6108918861265b565b61089a8761265b565b6108a38661265b565b6108ac8561265b565b6108b58461265b565b6108be8361265b565b6108c78261265b565b6108d08161265b565b600480546001600160a01b03199081166001600160a01b038e81169182179093556005805483168e85161790556000805483168d85161790556001805483168c85161790556006805483168b85161790556007805483168a8516179055600880548316898516179055600280548316888516179055600c80548316878516179055600b80548316868516179055600a80548316938516938417905560098054909216909217905560408051918252517f6a69409f44477d8556c3c8040edc75d9bc1b3dee7846f6045c0b99556fe7bc91916020908290030190a1604080516001600160a01b038c16815290517f143219c9e69b09e07e095fcc889b43d8f46ca892bba65f08dc3a0050869a56789181900360200190a1604080516001600160a01b038b16815290517f78f058b189175430c48dc02699e3a0031ea4ff781536dc2fab847de4babdd8829181900360200190a1604080516001600160a01b038a16815290517f5ee0cae2f063ed938bb55046f6a932fb6ae792bf43624806bb90abe68a50be9b9181900360200190a1604080516001600160a01b038916815290517f82966d27eea39b038ee0fa30cd16532bb24f6e65d31cb58fb227aa5766cdcc7f9181900360200190a1604080516001600160a01b038816815290517fcfb07d791fcafc032b35837b50eb84b74df518cf4cc287e8084f47630fa70fa09181900360200190a1604080516001600160a01b038716815290517fe67f36a6e961157d6eff83b91f3af5a62131ceb6f04954ef74f51c1c05e7f88d9181900360200190a1604080516001600160a01b038616815290517f8c537274438aa850a330284665d81a85dd38267d09e4050d416bfc94142db2649181900360200190a1604080516001600160a01b038516815290517f65f4cf077bc01e4742eb5ad98326f6e95b63548ea24b17f8d5e823111fe788009181900360200190a1604080516001600160a01b038416815290517f227eec0ec317af6ab1a9587ffa1c84332522eb4c583a908f89babc05f8f339bd9181900360200190a1604080516001600160a01b038316815290517f756ebc192164c295bba134b5aacd72cc7aff8098a670d1f0a5f6b3a0b4ce67079181900360200190a1610c0a61270e565b5050505050505050505050565b610c2086612758565b610c2b338787611c7a565b610c33613eac565b50604080516060810182526005546001600160a01b03908116825260005481166020830152600b541691810191909152610c6b613ecc565b600480546040805163453ebeb560e11b81526001600160a01b038c81169482019490945290519290911691638a7d7d6a91602480820192602092909190829003018186803b158015610cbc57600080fd5b505afa158015610cd0573d6000803e3d6000fd5b505050506040513d6020811015610ce657600080fd5b5051815260048054604080516311e2c60b60e11b81526001600160a01b038c811694820194909452905192909116916323c58c1691602480820192602092909190829003018186803b158015610d3b57600080fd5b505afa158015610d4f573d6000803e3d6000fd5b505050506040513d6020811015610d6557600080fd5b5051602082810191909152600480546040805163eb7aac5f60e01b81526001600160a01b038d8116948201949094529051929091169263eb7aac5f92602480840193829003018186803b158015610dbb57600080fd5b505afa158015610dcf573d6000803e3d6000fd5b505050506040513d6020811015610de557600080fd5b50516040808301919091526002548151635670bcc760e11b81526001600160a01b038b811660048301529251929091169163ace1798e916024808201926020929091908290030181600087803b158015610e3e57600080fd5b505af1158015610e52573d6000803e3d6000fd5b505050506040513d6020811015610e6857600080fd5b50516060820181905281516040830151600092610e86928c92612813565b9050610e92878261282d565b8251610e9f90338b6128d9565b60a0820186905280610ee057610ebf83600001518460400151888a6129b0565b6080830181905260a0830151610eda9163ffffffff611c1916565b60a08301525b610eed8260a00151612b60565b610efa8260a00151612641565b60c08301819052610f0757fe5b610f1f888360c0015184606001518560400151612ba8565b60e083015260c08201516040830151610f39918a91612bf3565b6101008301528015610f5c57610f578260e001518360000151612c39565b610f9f565b610f6e8260e001518360200151612c78565b6000610f8d8a8a60018660c00151600188606001518960400151612cb7565b9050610f9d818460000151612d47565b505b8251604080516322894d8f60e21b81523360048201526001600160a01b038c811660248301526001604483015291519190921691638a25363c91606480830192600092919082900301818387803b158015610ff957600080fd5b505af115801561100d573d6000803e3d6000fd5b50508451604080516322cbc1b360e11b81523360048201526001600160a01b038e81166024830152604482018e905291519190921693506345978366925060648083019260209291908290030181600087803b15801561106c57600080fd5b505af1158015611080573d6000803e3d6000fd5b505050506040513d602081101561109657600080fd5b5050825160c083015160408051637f2586fb60e11b81523360048201526001600160a01b038d8116602483015260448201939093529051919092169163fe4b0df69160648083019260209291908290030181600087803b1580156110f957600080fd5b505af115801561110d573d6000803e3d6000fd5b505050506040513d602081101561112357600080fd5b505082516040805163c7a1bbdb60e01b81523360048201526001600160a01b038c811660248301529151919092169163c7a1bbdb91604480830192600092919082900301818387803b15801561117857600080fd5b505af115801561118c573d6000803e3d6000fd5b505084516040805163dbe9f91960e01b81523360048201526001600160a01b038e81166024830152915191909216935063dbe9f919925060448083019260209291908290030181600087803b1580156111e457600080fd5b505af11580156111f8573d6000803e3d6000fd5b505050506040513d602081101561120e57600080fd5b5051610120830152600c5461010083015160408051633e499e0560e11b81526001600160a01b038d8116600483015233602483015260448201939093528883166064820152878316608482015290519190921691637c933c0a9160a480830192600092919082900301818387803b15801561128857600080fd5b505af115801561129c573d6000803e3d6000fd5b5050845160408051630706bdff60e11b81523360048201526001600160a01b038e811660248301529151919092169350630e0d7bfe925060448083019260209291908290030181600087803b1580156112f457600080fd5b505af1158015611308573d6000803e3d6000fd5b505050506040513d602081101561131e57600080fd5b50516101408301819052604080516001600160a01b038c1681526020810192909252805133927fc78aeff453faf39d5a4a56acb99641aa471118956e00bdf4ca3e08ee6687fef692908290030190a26113886001600160a01b038a1633308b63ffffffff612d8616565b61139783602001518a8a612de0565b6113b1836020015184604001518b338a8760a00151612e77565b602083015160408401516007546113de9291908c906001600160a01b0316678ac7230489e8000080612e77565b336001600160a01b03166000805160206144238339815191528a8460c001518b866101200151600060405180866001600160a01b03166001600160a01b0316815260200185815260200184815260200183815260200182600281111561144057fe5b60ff1681526020019550505050505060405180910390a26080820151604080516001600160a01b038c1681526020810192909252805133927fc124a8aee2d1e87da7bdee4cd86125637943b6ab32894b8ab8f83543beabf74292908290030190a2505050505050505050565b6000546001600160a01b031681565b6008546040805163ea16003f60e01b81523360048201526001600160a01b0384811660248301529151919092169163ea16003f91604480830192600092919082900301818387803b15801561150f57600080fd5b505af11580156107b7573d6000803e3d6000fd5b61076a338560008087600088886000611df8565b6003546001600160a01b031690565b6003546001600160a01b0316331490565b6000805460408051639b56d6c960e01b81526001600160a01b038581166004830152915184939290921691639b56d6c991602480820192602092909190829003018186803b1580156115a857600080fd5b505afa1580156115bc573d6000803e3d6000fd5b505050506040513d60208110156115d257600080fd5b505160015460408051639b56d6c960e01b81526001600160a01b03878116600483015291519394506000939190921691639b56d6c9916024808301926020929190829003018186803b1580156106d657600080fd5b6009546001600160a01b031681565b60405180604001604052806012815260200171426f72726f7765724f7065726174696f6e7360701b81525081565b600c546001600160a01b031681565b600b546001600160a01b031681565b600554600054600b546001600160a01b039283169291821691166116a7833386612f6f565b600480546040805163453ebeb560e11b81526001600160a01b0388811694820194909452905160009390921691638a7d7d6a91602480820192602092909190829003018186803b1580156116fa57600080fd5b505afa15801561170e573d6000803e3d6000fd5b505050506040513d602081101561172457600080fd5b5051600480546040805163eb7aac5f60e01b81526001600160a01b038a8116948201949094529051939450600093929091169163eb7aac5f91602480820192602092909190829003018186803b15801561177d57600080fd5b505afa158015611791573d6000803e3d6000fd5b505050506040513d60208110156117a757600080fd5b505160025460408051635670bcc760e11b81526001600160a01b038a811660048301529151939450600093919092169163ace1798e91602480830192602092919082900301818787803b1580156117fd57600080fd5b505af1158015611811573d6000803e3d6000fd5b505050506040513d602081101561182757600080fd5b505190506118378782858561302f565b6040805163df4fb9ef60e01b81523360048201526001600160a01b03898116602483015291519188169163df4fb9ef9160448082019260009290919082900301818387803b15801561188857600080fd5b505af115801561189c573d6000803e3d6000fd5b50506040805163305a536960e01b81523360048201526001600160a01b038b81166024830152915160009450918a16925063305a5369916044808301926020929190829003018186803b1580156118f257600080fd5b505afa158015611906573d6000803e3d6000fd5b505050506040513d602081101561191c57600080fd5b505160408051631e7c58c160e31b81523360048201526001600160a01b038b811660248301529151929350600092918a169163f3e2c60891604480820192602092909190829003018186803b15801561197457600080fd5b505afa158015611988573d6000803e3d6000fd5b505050506040513d602081101561199e57600080fd5b505190506119c486336119bf84678ac7230489e8000063ffffffff61307716565b6130b9565b60006119d78a846000856000898b612cb7565b90506119e38187612d47565b60408051633ed3a18f60e21b81523360048201526001600160a01b038c811660248301529151918b169163fb4e863c9160448082019260009290919082900301818387803b158015611a3457600080fd5b505af1158015611a48573d6000803e3d6000fd5b5050604080516331088bdb60e11b81523360048201526001600160a01b038e81166024830152600260448301529151918d16935063621117b6925060648082019260009290919082900301818387803b158015611aa457600080fd5b505af1158015611ab8573d6000803e3d6000fd5b50505050336001600160a01b03166000805160206144238339815191528b6000806000600160405180866001600160a01b03166001600160a01b03168152602001858152602001848152602001838152602001826002811115611b1757fe5b60ff1681526020019550505050505060405180910390a2611b5288888c33611b4d87678ac7230489e8000063ffffffff61307716565b613179565b600754611b7690899089908d906001600160a01b0316678ac7230489e80000613179565b6040805163715aa61b60e01b81526001600160a01b038c81166004830152336024830152604482018690529151918a169163715aa61b9160648082019260009290919082900301818387803b158015611bce57600080fd5b505af1158015611be2573d6000803e3d6000fd5b5050505050505050505050505050565b611bfa613270565b6107b7858585600080600088886000611df8565b6611c37937e0800081565b600082820183811015611c73576040805162461bcd60e51b815260206004820152601b60248201527f536166654d6174683a206164646974696f6e206f766572666c6f770000000000604482015290519081900360640190fd5b9392505050565b80826001600160a01b03166370a08231856040518263ffffffff1660e01b815260040180826001600160a01b03166001600160a01b0316815260200191505060206040518083038186803b158015611cd157600080fd5b505afa158015611ce5573d6000803e3d6000fd5b505050506040513d6020811015611cfb57600080fd5b50511015611d3a5760405162461bcd60e51b8152600401808060200182810382526038815260200180613fa66038913960400191505060405180910390fd5b60408051636eb1769f60e11b81526001600160a01b0385811660048301523060248301529151839285169163dd62ed3e916044808301926020929190829003018186803b158015611d8a57600080fd5b505afa158015611d9e573d6000803e3d6000fd5b505050506040513d6020811015611db457600080fd5b50511015611df35760405162461bcd60e51b81526004018080602001828103825260358152602001806141f36035913960400191505060405180910390fd5b505050565b611e00613eac565b50604080516060810182526005546001600160a01b03908116825260005481166020830152600b541691810191909152611e38613f26565b600480546040805163453ebeb560e11b81526001600160a01b038e81169482019490945290519290911691638a7d7d6a91602480820192602092909190829003018186803b158015611e8957600080fd5b505afa158015611e9d573d6000803e3d6000fd5b505050506040513d6020811015611eb357600080fd5b5051815260048054604080516311e2c60b60e11b81526001600160a01b038e811694820194909452905192909116916323c58c1691602480820192602092909190829003018186803b158015611f0857600080fd5b505afa158015611f1c573d6000803e3d6000fd5b505050506040513d6020811015611f3257600080fd5b5051602082810191909152600480546040805163eb7aac5f60e01b81526001600160a01b038f8116948201949094529051929091169263eb7aac5f92602480840193829003018186803b158015611f8857600080fd5b505afa158015611f9c573d6000803e3d6000fd5b505050506040513d6020811015611fb257600080fd5b50516040808301919091526002548151635670bcc760e11b81526001600160a01b038d811660048301529251929091169163ace1798e916024808201926020929091908290030181600087803b15801561200b57600080fd5b505af115801561201f573d6000803e3d6000fd5b505050506040513d602081101561203557600080fd5b50516060820181905281516040830151600092612053928e92612813565b9050861561206e57612065848261282d565b61206e886132bb565b6120788a8a6132fa565b6120838a8a8a613340565b8251612090908d8d612f6f565b336001600160a01b038d1614806120c657506006546001600160a01b0316331480156120bc575060008a115b80156120c6575087155b6120cc57fe5b82516040805163df4fb9ef60e01b81526001600160a01b038f811660048301528e811660248301529151919092169163df4fb9ef91604480830192600092919082900301818387803b15801561212157600080fd5b505af1158015612135573d6000803e3d6000fd5b505050506121438a8a613392565b151560c0840152608083015260a08201889052868015612161575080155b1561219c5761217a836000015184604001518a876129b0565b610180830181905260a08301516121969163ffffffff611c1916565b60a08301525b825160408051631e7c58c160e31b81526001600160a01b038f811660048301528e811660248301529151919092169163f3e2c608916044808301926020929190829003018186803b1580156121f057600080fd5b505afa158015612204573d6000803e3d6000fd5b505050506040513d602081101561221a57600080fd5b505160e083015282516040805163305a536960e01b81526001600160a01b038f811660048301528e811660248301529151919092169163305a5369916044808301926020929190829003018186803b15801561227557600080fd5b505afa158015612289573d6000803e3d6000fd5b505050506040513d602081101561229f57600080fd5b5051610100830181905260e0830151606084015160408501516122c493929190612ba8565b826101200181815250506122fb8261010001518360e0015184608001518560c001518660a001518c886060015189604001516133b1565b61014083015261010082015189111561231057fe5b61231d818c8b8a866133e6565b8615801561232b5750600088115b1561237e576123596123548360a001516123488560e00151613471565b9063ffffffff61307716565b612b60565b61236b8260e001518360a0015161348b565b61237e83604001518d8460a001516130b9565b61239d83600001518d8d85608001518660c001518760a001518d6134e1565b6101a08401526101c083015282516040805163dbe9f91960e01b81526001600160a01b038f811660048301528e811660248301529151919092169163dbe9f9199160448083019260209291908290030181600087803b1580156123ff57600080fd5b505af1158015612413573d6000803e3d6000fd5b505050506040513d602081101561242957600080fd5b50516101e083015261010082015160e0830151608084015160c085015160a086015160408701516000956124669590949093909290918e9061372d565b9050600c60009054906101000a90046001600160a01b03166001600160a01b031663bc9b5bd58e8e848b8b6040518663ffffffff1660e01b815260040180866001600160a01b03166001600160a01b03168152602001856001600160a01b03166001600160a01b03168152602001848152602001836001600160a01b03166001600160a01b03168152602001826001600160a01b03166001600160a01b0316815260200195505050505050600060405180830381600087803b15801561252b57600080fd5b505af115801561253f573d6000803e3d6000fd5b505050508c6001600160a01b03166000805160206144238339815191528d856101a00151866101c00151876101e00151600260405180866001600160a01b03166001600160a01b031681526020018581526020018481526020018381526020018260028111156125ab57fe5b60ff1681526020019550505050505060405180910390a2610180830151604080516001600160a01b038f1681526020810192909252805133927fc124a8aee2d1e87da7bdee4cd86125637943b6ab32894b8ab8f83543beabf74292908290030190a261263284602001518560400151338f87608001518860c001518f8f8b60a00151613751565b50505050505050505050505050565b600061078f82678ac7230489e8000063ffffffff611c1916565b6001600160a01b0381166126b6576040805162461bcd60e51b815260206004820152601e60248201527f4163636f756e742063616e6e6f74206265207a65726f20616464726573730000604482015290519081900360640190fd5b803b8061270a576040805162461bcd60e51b815260206004820181905260248201527f4163636f756e7420636f64652073697a652063616e6e6f74206265207a65726f604482015290519081900360640190fd5b5050565b6003546040516000916001600160a01b0316907f8be0079c531659141344cd1fd0a4f28419497f9722a3daafe3b4186f6b6457e0908390a3600380546001600160a01b0319169055565b6004805460408051630658339960e51b81526001600160a01b03858116948201949094529051929091169163cb06732091602480820192602092909190829003018186803b1580156127a957600080fd5b505afa1580156127bd573d6000803e3d6000fd5b505050506040513d60208110156127d357600080fd5b50516128105760405162461bcd60e51b815260040180806020018281038252602781526020018061418e6027913960400191505060405180910390fd5b50565b600080612821868685613816565b90931195945050505050565b801561287f57670de0b6b3a764000082111561287a5760405162461bcd60e51b815260040180806020018281038252603281526020018061407e6032913960400191505060405180910390fd5b61270a565b6611c37937e08000821080159061289e5750670de0b6b3a76400008211155b61270a5760405162461bcd60e51b815260040180806020018281038252603081526020018061437e6030913960400191505060405180910390fd5b6040805163614d120960e01b81526001600160a01b0384811660048301528381166024830152915160009286169163614d1209916044808301926020929190829003018186803b15801561292c57600080fd5b505afa158015612940573d6000803e3d6000fd5b505050506040513d602081101561295657600080fd5b50519050600181141561076a576040805162461bcd60e51b815260206004820152601c60248201527f426f72726f7765724f70733a2054726f76652069732061637469766500000000604482015290519081900360640190fd5b6000846001600160a01b0316635dba4c4a6040518163ffffffff1660e01b8152600401600060405180830381600087803b1580156129ed57600080fd5b505af1158015612a01573d6000803e3d6000fd5b505050506000856001600160a01b031663631203b0856040518263ffffffff1660e01b81526004018082815260200191505060206040518083038186803b158015612a4b57600080fd5b505afa158015612a5f573d6000803e3d6000fd5b505050506040513d6020811015612a7557600080fd5b50519050612a84818585613847565b60095460408051634677ffb360e01b81526004810184905290516001600160a01b0390921691634677ffb39160248082019260009290919082900301818387803b158015612ad157600080fd5b505af1158015612ae5573d6000803e3d6000fd5b5050600a54604080516340c10f1960e01b81526001600160a01b03928316600482015260248101869052905191891693506340c10f19925060448082019260009290919082900301818387803b158015612b3e57600080fd5b505af1158015612b52573d6000803e3d6000fd5b509298975050505050505050565b6804e1003b28d92800008110156128105760405162461bcd60e51b815260040180806020018281038252603a8152602001806142ae603a913960400191505060405180910390fd5b60008315612bea576000612bbc86846138bc565b90506000612be086612bd4848863ffffffff61390416565b9063ffffffff61395d16565b9250610714915050565b50600019610714565b60008215612c2e576000612c0785846138bc565b9050612c2684612bd48368056bc75e2d6310000063ffffffff61390416565b915050611c73565b506000199392505050565b8082101561270a5760405162461bcd60e51b81526004018080602001828103825260378152602001806140476037913960400191505060405180910390fd5b8082101561270a5760405162461bcd60e51b81526004018080602001828103825260498152602001806142656049913960600191505060405180910390fd5b600080612cc389611557565b90506000612cd08a610606565b905087612cec57612ce7828a63ffffffff61307716565b612cfc565b612cfc828a63ffffffff611c1916565b915085612d1857612d13818863ffffffff61307716565b612d28565b612d28818863ffffffff611c1916565b90506000612d3883838888612ba8565b9b9a5050505050505050505050565b8082101561270a5760405162461bcd60e51b81526004018080602001828103825260498152602001806141176049913960600191505060405180910390fd5b604080516001600160a01b0380861660248301528416604482015260648082018490528251808303909101815260849091019091526020810180516001600160e01b03166323b872dd60e01b17905261076a90859061399f565b612dfa6001600160a01b038316848363ffffffff613a5016565b826001600160a01b031663eb13cd1083836040518363ffffffff1660e01b815260040180836001600160a01b03166001600160a01b0316815260200182815260200192505050600060405180830381600087803b158015612e5a57600080fd5b505af1158015612e6e573d6000803e3d6000fd5b50505050505050565b856001600160a01b0316635fc7b5e885836040518363ffffffff1660e01b815260040180836001600160a01b03166001600160a01b0316815260200182815260200192505050600060405180830381600087803b158015612ed757600080fd5b505af1158015612eeb573d6000803e3d6000fd5b50505050846001600160a01b03166340c10f1984846040518363ffffffff1660e01b815260040180836001600160a01b03166001600160a01b0316815260200182815260200192505050600060405180830381600087803b158015612f4f57600080fd5b505af1158015612f63573d6000803e3d6000fd5b50505050505050505050565b6040805163614d120960e01b81526001600160a01b0384811660048301528381166024830152915160009286169163614d1209916044808301926020929190829003018186803b158015612fc257600080fd5b505afa158015612fd6573d6000803e3d6000fd5b505050506040513d6020811015612fec57600080fd5b505190506001811461076a5760405162461bcd60e51b815260040180806020018281038252602e815260200180614160602e913960400191505060405180910390fd5b61303b84848484612813565b1561076a5760405162461bcd60e51b815260040180806020018281038252603981526020018061400e6039913960400191505060405180910390fd5b6000611c7383836040518060400160405280601e81526020017f536166654d6174683a207375627472616374696f6e206f766572666c6f770000815250613b36565b80836001600160a01b03166370a08231846040518263ffffffff1660e01b815260040180826001600160a01b03166001600160a01b0316815260200191505060206040518083038186803b15801561311057600080fd5b505afa158015613124573d6000803e3d6000fd5b505050506040513d602081101561313a57600080fd5b50511015611df35760405162461bcd60e51b815260040180806020018281038252603d815260200180614228603d913960400191505060405180910390fd5b846001600160a01b0316633aacc81584836040518363ffffffff1660e01b815260040180836001600160a01b03166001600160a01b0316815260200182815260200192505050600060405180830381600087803b1580156131d957600080fd5b505af11580156131ed573d6000803e3d6000fd5b50505050836001600160a01b0316639dc29fac83836040518363ffffffff1660e01b815260040180836001600160a01b03166001600160a01b0316815260200182815260200192505050600060405180830381600087803b15801561325157600080fd5b505af1158015613265573d6000803e3d6000fd5b505050505050505050565b6006546001600160a01b031633146132b95760405162461bcd60e51b815260040180806020018281038252602981526020018061432b6029913960400191505060405180910390fd5b565b600081116128105760405162461bcd60e51b81526004018080602001828103825260378152602001806143ae6037913960400191505060405180910390fd5b811580613305575080155b61270a5760405162461bcd60e51b8152600401808060200182810382526030815260200180613fde6030913960400191505060405180910390fd5b8215158061334d57508115155b8061335757508015155b611df35760405162461bcd60e51b81526004018080602001828103825260468152602001806140b06046913960600191505060405180910390fd5b60008083156133a6575082905060016133aa565b8291505b9250929050565b60008060006133c48b8b8b8b8b8b613bcd565b9150915060006133d683838888612ba8565b9c9b505050505050505050505050565b8415613427576133f583613c39565b81156134225761340e8161014001518260000151612c39565b613422816101400151826101200151613c76565b6107b7565b61343a8161014001518260200151612c78565b61345d8482608001518360c001518460a001518686606001518760400151612cb7565b610160820181905281516107b79190612d47565b600061078f82678ac7230489e8000063ffffffff61307716565b6134a382678ac7230489e8000063ffffffff61307716565b81111561270a5760405162461bcd60e51b81526004018080602001828103825260438152602001806142e86043913960600191505060405180910390fd5b6000806000856135765760408051622fae7760e81b81526001600160a01b038b811660048301528a81166024830152604482018a90529151918c1691632fae7700916064808201926020929091908290030181600087803b15801561354557600080fd5b505af1158015613559573d6000803e3d6000fd5b505050506040513d602081101561356f57600080fd5b50516135fe565b604080516322cbc1b360e11b81526001600160a01b038b811660048301528a81166024830152604482018a90529151918c16916345978366916064808201926020929091908290030181600087803b1580156135d157600080fd5b505af11580156135e5573d6000803e3d6000fd5b505050506040513d60208110156135fb57600080fd5b50515b90506000846136935760408051634231d8b560e11b81526001600160a01b038c811660048301528b81166024830152604482018990529151918d1691638463b16a916064808201926020929091908290030181600087803b15801561366257600080fd5b505af1158015613676573d6000803e3d6000fd5b505050506040513d602081101561368c57600080fd5b505161371b565b60408051637f2586fb60e11b81526001600160a01b038c811660048301528b81166024830152604482018990529151918d169163fe4b0df6916064808201926020929091908290030181600087803b1580156136ee57600080fd5b505af1158015613702573d6000803e3d6000fd5b505050506040513d602081101561371857600080fd5b50515b919b919a509098505050505050505050565b60008060006137408a8a8a8a8a8a613bcd565b915091506000612d38838387612bf3565b811561376a576137658989888a8786612e77565b613777565b6137778989888a87613179565b83156137a8576137986001600160a01b03871633308863ffffffff612d8616565b6137a3898787612de0565b613265565b6040805163715aa61b60e01b81526001600160a01b0388811660048301528981166024830152604482018890529151918b169163715aa61b9160648082019260009290919082900301818387803b15801561380257600080fd5b505af1158015612632573d6000803e3d6000fd5b60008061382285611557565b9050600061382f86610606565b905061383d82828787612ba8565b9695505050505050565b600061386583612bd486670de0b6b3a764000063ffffffff61390416565b90508181111561076a576040805162461bcd60e51b815260206004820152601d60248201527f4665652065786365656465642070726f7669646564206d6178696d756d000000604482015290519081900360640190fd5b8160128211156138e4576138dd816011198401600a0a63ffffffff61395d16565b905061078f565b601282101561078f57611c73816012849003600a0a63ffffffff61390416565b6000826139135750600061078f565b8282028284828161392057fe5b0414611c735760405162461bcd60e51b81526004018080602001828103825260218152602001806140f66021913960400191505060405180910390fd5b6000611c7383836040518060400160405280601a81526020017f536166654d6174683a206469766973696f6e206279207a65726f000000000000815250613cb5565b60606139f4826040518060400160405280602081526020017f5361666545524332303a206c6f772d6c6576656c2063616c6c206661696c6564815250856001600160a01b0316613d1a9092919063ffffffff16565b805190915015611df357808060200190516020811015613a1357600080fd5b5051611df35760405162461bcd60e51b815260040180806020018281038252602a815260200180614354602a913960400191505060405180910390fd5b60408051636eb1769f60e11b81523060048201526001600160a01b0384811660248301529151600092613ae19285929188169163dd62ed3e91604480820192602092909190829003018186803b158015613aa957600080fd5b505afa158015613abd573d6000803e3d6000fd5b505050506040513d6020811015613ad357600080fd5b50519063ffffffff611c1916565b604080516001600160a01b038616602482015260448082018490528251808303909101815260649091019091526020810180516001600160e01b031663095ea7b360e01b17905290915061076a90859061399f565b60008184841115613bc55760405162461bcd60e51b81526004018080602001828103825283818151815260200191508051906020019080838360005b83811015613b8a578181015183820152602001613b72565b50505050905090810190601f168015613bb75780820380516001836020036101000a031916815260200191505b509250505060405180910390fd5b505050900390565b600080878786613bec57613be78a8963ffffffff61307716565b613bfc565b613bfc8a8963ffffffff611c1916565b915084613c1857613c13898763ffffffff61307716565b613c28565b613c28898763ffffffff611c1916565b919a91995090975050505050505050565b80156128105760405162461bcd60e51b815260040180806020018281038252603e8152602001806141b5603e913960400191505060405180910390fd5b8082101561270a5760405162461bcd60e51b815260040180806020018281038252603e8152602001806143e5603e913960400191505060405180910390fd5b60008183613d045760405162461bcd60e51b8152602060048201818152835160248401528351909283926044909101919085019080838360008315613b8a578181015183820152602001613b72565b506000838581613d1057fe5b0495945050505050565b6060610714848460008585613d2e85613e40565b613d7f576040805162461bcd60e51b815260206004820152601d60248201527f416464726573733a2063616c6c20746f206e6f6e2d636f6e7472616374000000604482015290519081900360640190fd5b60006060866001600160a01b031685876040518082805190602001908083835b60208310613dbe5780518252601f199092019160209182019101613d9f565b6001836020036101000a03801982511681845116808217855250505050505090500191505060006040518083038185875af1925050503d8060008114613e20576040519150601f19603f3d011682016040523d82523d6000602084013e613e25565b606091505b5091509150613e35828286613e46565b979650505050505050565b3b151590565b60608315613e55575081611c73565b825115613e655782518084602001fd5b60405162461bcd60e51b8152602060048201818152845160248401528451859391928392604401919085019080838360008315613b8a578181015183820152602001613b72565b604080516060810182526000808252602082018190529181019190915290565b60405180610160016040528060008152602001600081526020016000815260200160008152602001600081526020016000815260200160008152602001600081526020016000815260200160008152602001600081525090565b604051806102000160405280600081526020016000815260200160008152602001600081526020016000815260200160008152602001600015158152602001600081526020016000815260200160008152602001600081526020016000815260200160008152602001600081526020016000815260200160008152509056fe426f72726f7765724f7065726174696f6e733a20496e73756666696369656e74207573657220636f6c6c61746572616c2062616c616e6365426f72726f7765724f7065726174696f6e733a2043616e6e6f7420776974686472617720616e642061646420636f6c6c426f72726f7765724f70733a204f7065726174696f6e206e6f74207065726d697474656420647572696e67205265636f76657279204d6f6465426f72726f7765724f70733a204f7065726174696f6e206d757374206c656176652074726f7665207769746820494352203e3d204343524d6178206665652070657263656e74616765206d757374206c657373207468616e206f7220657175616c20746f2031303025426f72726f7765724f70733a205468657265206d75737420626520656974686572206120636f6c6c61746572616c206368616e6765206f7220612064656274206368616e6765536166654d6174683a206d756c7469706c69636174696f6e206f766572666c6f77426f72726f7765724f70733a20416e206f7065726174696f6e207468617420776f756c6420726573756c7420696e20544352203c20434352206973206e6f74207065726d6974746564426f72726f7765724f70733a2054726f766520646f6573206e6f74206578697374206f7220697320636c6f736564426f72726f7765724f70733a20496e76616c696420636f6c6c61746572616c2061646472657373426f72726f7765724f70733a20436f6c6c61746572616c207769746864726177616c206e6f74207065726d6974746564205265636f76657279204d6f6465426f72726f7765724f7065726174696f6e733a20496e73756666696369656e7420636f6c6c61746572616c20616c6c6f77616e6365426f72726f7765724f70733a2043616c6c657220646f65736e74206861766520656e6f756768204c55534420746f206d616b652072657061796d656e74426f72726f7765724f70733a20416e206f7065726174696f6e207468617420776f756c6420726573756c7420696e20494352203c204d4352206973206e6f74207065726d6974746564426f72726f7765724f70733a2054726f76652773206e65742064656274206d7573742062652067726561746572207468616e206d696e696d756d426f72726f7765724f70733a20416d6f756e7420726570616964206d757374206e6f74206265206c6172676572207468616e207468652054726f766527732064656274426f72726f7765724f70733a2043616c6c6572206973206e6f742053746162696c69747920506f6f6c5361666545524332303a204552433230206f7065726174696f6e20646964206e6f7420737563636565644d6178206665652070657263656e74616765206d757374206265206265747765656e20302e352520616e642031303025426f72726f7765724f70733a204465627420696e637265617365207265717569726573206e6f6e2d7a65726f20646562744368616e6765426f72726f7765724f70733a2043616e6e6f7420646563726561736520796f75722054726f766527732049435220696e205265636f76657279204d6f6465100d2512a463b515ea8d03a69afbcc791f1bd9139132e820631bec236f524ec1a2646970667358221220fefea255f1b4926941b59e22357cd8b560d3864c292faa01b535784200f1844164736f6c634300060b0033",
  "linkReferences": {},
  "deployedLinkReferences": {}
}