{
  "_format": "hh-sol-artifact-1",
  "contractName": "StabilityPoolTester",
  "sourceName": "contracts/TestContracts/StabilityPoolTester.sol",
  "abi": [
    {
      "anonymous": false,
      "inputs": [
        {
          "indexed": false,
          "internalType": "address",
          "name": "_newActivePoolAddress",
          "type": "address"
        }
      ],
      "name": "ActivePoolAddressChanged",
      "type": "event"
    },
    {
      "anonymous": false,
      "inputs": [
        {
          "indexed": false,
          "internalType": "address",
          "name": "_newBorrowerOperationsAddress",
          "type": "address"
        }
      ],
      "name": "BorrowerOperationsAddressChanged",
      "type": "event"
    },
    {
      "anonymous": false,
      "inputs": [
        {
          "indexed": false,
          "internalType": "address",
          "name": "_newCollateralConfigAddress",
          "type": "address"
        }
      ],
      "name": "CollateralConfigAddressChanged",
      "type": "event"
    },
    {
      "anonymous": false,
      "inputs": [
        {
          "indexed": true,
          "internalType": "address",
          "name": "_depositor",
          "type": "address"
        },
        {
          "indexed": false,
          "internalType": "address",
          "name": "_collateral",
          "type": "address"
        },
        {
          "indexed": false,
          "internalType": "uint256",
          "name": "_collAmount",
          "type": "uint256"
        }
      ],
      "name": "CollateralGainWithdrawn",
      "type": "event"
    },
    {
      "anonymous": false,
      "inputs": [
        {
          "indexed": false,
          "internalType": "address",
          "name": "_collateral",
          "type": "address"
        },
        {
          "indexed": false,
          "internalType": "address",
          "name": "_to",
          "type": "address"
        },
        {
          "indexed": false,
          "internalType": "uint256",
          "name": "_amount",
          "type": "uint256"
        }
      ],
      "name": "CollateralSent",
      "type": "event"
    },
    {
      "anonymous": false,
      "inputs": [
        {
          "indexed": false,
          "internalType": "address",
          "name": "_newCommunityIssuanceAddress",
          "type": "address"
        }
      ],
      "name": "CommunityIssuanceAddressChanged",
      "type": "event"
    },
    {
      "anonymous": false,
      "inputs": [
        {
          "indexed": false,
          "internalType": "address",
          "name": "_newDefaultPoolAddress",
          "type": "address"
        }
      ],
      "name": "DefaultPoolAddressChanged",
      "type": "event"
    },
    {
      "anonymous": false,
      "inputs": [
        {
          "indexed": true,
          "internalType": "address",
          "name": "_depositor",
          "type": "address"
        },
        {
          "indexed": false,
          "internalType": "uint256",
          "name": "_P",
          "type": "uint256"
        },
        {
          "indexed": false,
          "internalType": "address[]",
          "name": "_assets",
          "type": "address[]"
        },
        {
          "indexed": false,
          "internalType": "uint256[]",
          "name": "_amounts",
          "type": "uint256[]"
        },
        {
          "indexed": false,
          "internalType": "uint256",
          "name": "_G",
          "type": "uint256"
        }
      ],
      "name": "DepositSnapshotUpdated",
      "type": "event"
    },
    {
      "anonymous": false,
      "inputs": [
        {
          "indexed": false,
          "internalType": "uint128",
          "name": "_currentEpoch",
          "type": "uint128"
        }
      ],
      "name": "EpochUpdated",
      "type": "event"
    },
    {
      "anonymous": false,
      "inputs": [
        {
          "indexed": false,
          "internalType": "uint256",
          "name": "_G",
          "type": "uint256"
        },
        {
          "indexed": false,
          "internalType": "uint128",
          "name": "_epoch",
          "type": "uint128"
        },
        {
          "indexed": false,
          "internalType": "uint128",
          "name": "_scale",
          "type": "uint128"
        }
      ],
      "name": "G_Updated",
      "type": "event"
    },
    {
      "anonymous": false,
      "inputs": [
        {
          "indexed": true,
          "internalType": "address",
          "name": "_depositor",
          "type": "address"
        },
        {
          "indexed": false,
          "internalType": "uint256",
          "name": "_LQTY",
          "type": "uint256"
        }
      ],
      "name": "LQTYPaidToDepositor",
      "type": "event"
    },
    {
      "anonymous": false,
      "inputs": [
        {
          "indexed": false,
          "internalType": "address",
          "name": "_newLUSDTokenAddress",
          "type": "address"
        }
      ],
      "name": "LUSDTokenAddressChanged",
      "type": "event"
    },
    {
      "anonymous": false,
      "inputs": [
        {
          "indexed": true,
          "internalType": "address",
          "name": "previousOwner",
          "type": "address"
        },
        {
          "indexed": true,
          "internalType": "address",
          "name": "newOwner",
          "type": "address"
        }
      ],
      "name": "OwnershipTransferred",
      "type": "event"
    },
    {
      "anonymous": false,
      "inputs": [
        {
          "indexed": false,
          "internalType": "uint256",
          "name": "_P",
          "type": "uint256"
        }
      ],
      "name": "P_Updated",
      "type": "event"
    },
    {
      "anonymous": false,
      "inputs": [
        {
          "indexed": false,
          "internalType": "address",
          "name": "_newPriceFeedAddress",
          "type": "address"
        }
      ],
      "name": "PriceFeedAddressChanged",
      "type": "event"
    },
    {
      "anonymous": false,
      "inputs": [
        {
          "indexed": false,
          "internalType": "address",
          "name": "_collateral",
          "type": "address"
        },
        {
          "indexed": false,
          "internalType": "uint256",
          "name": "_S",
          "type": "uint256"
        },
        {
          "indexed": false,
          "internalType": "uint128",
          "name": "_epoch",
          "type": "uint128"
        },
        {
          "indexed": false,
          "internalType": "uint128",
          "name": "_scale",
          "type": "uint128"
        }
      ],
      "name": "S_Updated",
      "type": "event"
    },
    {
      "anonymous": false,
      "inputs": [
        {
          "indexed": false,
          "internalType": "uint128",
          "name": "_currentScale",
          "type": "uint128"
        }
      ],
      "name": "ScaleUpdated",
      "type": "event"
    },
    {
      "anonymous": false,
      "inputs": [
        {
          "indexed": false,
          "internalType": "address",
          "name": "_newSortedTrovesAddress",
          "type": "address"
        }
      ],
      "name": "SortedTrovesAddressChanged",
      "type": "event"
    },
    {
      "anonymous": false,
      "inputs": [
        {
          "indexed": false,
          "internalType": "address",
          "name": "_collateral",
          "type": "address"
        },
        {
          "indexed": false,
          "internalType": "uint256",
          "name": "_newBalance",
          "type": "uint256"
        }
      ],
      "name": "StabilityPoolCollateralBalanceUpdated",
      "type": "event"
    },
    {
      "anonymous": false,
      "inputs": [
        {
          "indexed": false,
          "internalType": "uint256",
          "name": "_newBalance",
          "type": "uint256"
        }
      ],
      "name": "StabilityPoolLUSDBalanceUpdated",
      "type": "event"
    },
    {
      "anonymous": false,
      "inputs": [
        {
          "indexed": false,
          "internalType": "address",
          "name": "_newTroveManagerAddress",
          "type": "address"
        }
      ],
      "name": "TroveManagerAddressChanged",
      "type": "event"
    },
    {
      "anonymous": false,
      "inputs": [
        {
          "indexed": true,
          "internalType": "address",
          "name": "_depositor",
          "type": "address"
        },
        {
          "indexed": false,
          "internalType": "uint256",
          "name": "_newDeposit",
          "type": "uint256"
        }
      ],
      "name": "UserDepositChanged",
      "type": "event"
    },
    {
      "inputs": [],
      "name": "BORROWING_FEE_FLOOR",
      "outputs": [
        {
          "internalType": "uint256",
          "name": "",
          "type": "uint256"
        }
      ],
      "stateMutability": "view",
      "type": "function"
    },
    {
      "inputs": [],
      "name": "DECIMAL_PRECISION",
      "outputs": [
        {
          "internalType": "uint256",
          "name": "",
          "type": "uint256"
        }
      ],
      "stateMutability": "view",
      "type": "function"
    },
    {
      "inputs": [],
      "name": "LUSD_GAS_COMPENSATION",
      "outputs": [
        {
          "internalType": "uint256",
          "name": "",
          "type": "uint256"
        }
      ],
      "stateMutability": "view",
      "type": "function"
    },
    {
      "inputs": [],
      "name": "MIN_NET_DEBT",
      "outputs": [
        {
          "internalType": "uint256",
          "name": "",
          "type": "uint256"
        }
      ],
      "stateMutability": "view",
      "type": "function"
    },
    {
      "inputs": [],
      "name": "NAME",
      "outputs": [
        {
          "internalType": "string",
          "name": "",
          "type": "string"
        }
      ],
      "stateMutability": "view",
      "type": "function"
    },
    {
      "inputs": [],
      "name": "P",
      "outputs": [
        {
          "internalType": "uint256",
          "name": "",
          "type": "uint256"
        }
      ],
      "stateMutability": "view",
      "type": "function"
    },
    {
      "inputs": [],
      "name": "PERCENT_DIVISOR",
      "outputs": [
        {
          "internalType": "uint256",
          "name": "",
          "type": "uint256"
        }
      ],
      "stateMutability": "view",
      "type": "function"
    },
    {
      "inputs": [],
      "name": "SCALE_FACTOR",
      "outputs": [
        {
          "internalType": "uint256",
          "name": "",
          "type": "uint256"
        }
      ],
      "stateMutability": "view",
      "type": "function"
    },
    {
      "inputs": [],
      "name": "_100pct",
      "outputs": [
        {
          "internalType": "uint256",
          "name": "",
          "type": "uint256"
        }
      ],
      "stateMutability": "view",
      "type": "function"
    },
    {
      "inputs": [],
      "name": "activePool",
      "outputs": [
        {
          "internalType": "contract IActivePool",
          "name": "",
          "type": "address"
        }
      ],
      "stateMutability": "view",
      "type": "function"
    },
    {
      "inputs": [],
      "name": "borrowerOperations",
      "outputs": [
        {
          "internalType": "contract IBorrowerOperations",
          "name": "",
          "type": "address"
        }
      ],
      "stateMutability": "view",
      "type": "function"
    },
    {
      "inputs": [],
      "name": "collateralConfig",
      "outputs": [
        {
          "internalType": "contract ICollateralConfig",
          "name": "",
          "type": "address"
        }
      ],
      "stateMutability": "view",
      "type": "function"
    },
    {
      "inputs": [],
      "name": "communityIssuance",
      "outputs": [
        {
          "internalType": "contract ICommunityIssuance",
          "name": "",
          "type": "address"
        }
      ],
      "stateMutability": "view",
      "type": "function"
    },
    {
      "inputs": [],
      "name": "currentEpoch",
      "outputs": [
        {
          "internalType": "uint128",
          "name": "",
          "type": "uint128"
        }
      ],
      "stateMutability": "view",
      "type": "function"
    },
    {
      "inputs": [],
      "name": "currentScale",
      "outputs": [
        {
          "internalType": "uint128",
          "name": "",
          "type": "uint128"
        }
      ],
      "stateMutability": "view",
      "type": "function"
    },
    {
      "inputs": [],
      "name": "defaultPool",
      "outputs": [
        {
          "internalType": "contract IDefaultPool",
          "name": "",
          "type": "address"
        }
      ],
      "stateMutability": "view",
      "type": "function"
    },
    {
      "inputs": [
        {
          "internalType": "address",
          "name": "",
          "type": "address"
        }
      ],
      "name": "depositSnapshots",
      "outputs": [
        {
          "internalType": "uint256",
          "name": "P",
          "type": "uint256"
        },
        {
          "internalType": "uint256",
          "name": "G",
          "type": "uint256"
        },
        {
          "internalType": "uint128",
          "name": "scale",
          "type": "uint128"
        },
        {
          "internalType": "uint128",
          "name": "epoch",
          "type": "uint128"
        }
      ],
      "stateMutability": "view",
      "type": "function"
    },
    {
      "inputs": [
        {
          "internalType": "address",
          "name": "_depositor",
          "type": "address"
        },
        {
          "internalType": "address",
          "name": "_collateral",
          "type": "address"
        }
      ],
      "name": "depositSnapshots_S",
      "outputs": [
        {
          "internalType": "uint256",
          "name": "",
          "type": "uint256"
        }
      ],
      "stateMutability": "view",
      "type": "function"
    },
    {
      "inputs": [
        {
          "internalType": "address",
          "name": "",
          "type": "address"
        }
      ],
      "name": "deposits",
      "outputs": [
        {
          "internalType": "uint256",
          "name": "initialValue",
          "type": "uint256"
        }
      ],
      "stateMutability": "view",
      "type": "function"
    },
    {
      "inputs": [
        {
          "internalType": "uint128",
          "name": "",
          "type": "uint128"
        },
        {
          "internalType": "uint128",
          "name": "",
          "type": "uint128"
        }
      ],
      "name": "epochToScaleToG",
      "outputs": [
        {
          "internalType": "uint256",
          "name": "",
          "type": "uint256"
        }
      ],
      "stateMutability": "view",
      "type": "function"
    },
    {
      "inputs": [
        {
          "internalType": "uint128",
          "name": "",
          "type": "uint128"
        },
        {
          "internalType": "uint128",
          "name": "",
          "type": "uint128"
        },
        {
          "internalType": "address",
          "name": "",
          "type": "address"
        }
      ],
      "name": "epochToScaleToSum",
      "outputs": [
        {
          "internalType": "uint256",
          "name": "",
          "type": "uint256"
        }
      ],
      "stateMutability": "view",
      "type": "function"
    },
    {
      "inputs": [
        {
          "internalType": "address",
          "name": "_collateral",
          "type": "address"
        }
      ],
      "name": "getCollateral",
      "outputs": [
        {
          "internalType": "uint256",
          "name": "",
          "type": "uint256"
        }
      ],
      "stateMutability": "view",
      "type": "function"
    },
    {
      "inputs": [
        {
          "internalType": "address",
          "name": "_depositor",
          "type": "address"
        }
      ],
      "name": "getCompoundedLUSDDeposit",
      "outputs": [
        {
          "internalType": "uint256",
          "name": "",
          "type": "uint256"
        }
      ],
      "stateMutability": "view",
      "type": "function"
    },
    {
      "inputs": [
        {
          "internalType": "address",
          "name": "_depositor",
          "type": "address"
        }
      ],
      "name": "getDepositorCollateralGain",
      "outputs": [
        {
          "internalType": "address[]",
          "name": "assets",
          "type": "address[]"
        },
        {
          "internalType": "uint256[]",
          "name": "amounts",
          "type": "uint256[]"
        }
      ],
      "stateMutability": "view",
      "type": "function"
    },
    {
      "inputs": [
        {
          "internalType": "address",
          "name": "_depositor",
          "type": "address"
        }
      ],
      "name": "getDepositorLQTYGain",
      "outputs": [
        {
          "internalType": "uint256",
          "name": "",
          "type": "uint256"
        }
      ],
      "stateMutability": "view",
      "type": "function"
    },
    {
      "inputs": [
        {
          "internalType": "address",
          "name": "_collateral",
          "type": "address"
        }
      ],
      "name": "getEntireSystemColl",
      "outputs": [
        {
          "internalType": "uint256",
          "name": "entireSystemColl",
          "type": "uint256"
        }
      ],
      "stateMutability": "view",
      "type": "function"
    },
    {
      "inputs": [
        {
          "internalType": "address",
          "name": "_collateral",
          "type": "address"
        }
      ],
      "name": "getEntireSystemDebt",
      "outputs": [
        {
          "internalType": "uint256",
          "name": "entireSystemDebt",
          "type": "uint256"
        }
      ],
      "stateMutability": "view",
      "type": "function"
    },
    {
      "inputs": [],
      "name": "getTotalLUSDDeposits",
      "outputs": [
        {
          "internalType": "uint256",
          "name": "",
          "type": "uint256"
        }
      ],
      "stateMutability": "view",
      "type": "function"
    },
    {
      "inputs": [],
      "name": "isOwner",
      "outputs": [
        {
          "internalType": "bool",
          "name": "",
          "type": "bool"
        }
      ],
      "stateMutability": "view",
      "type": "function"
    },
    {
      "inputs": [
        {
          "internalType": "address",
          "name": "",
          "type": "address"
        }
      ],
      "name": "lastCollateralError_Offset",
      "outputs": [
        {
          "internalType": "uint256",
          "name": "",
          "type": "uint256"
        }
      ],
      "stateMutability": "view",
      "type": "function"
    },
    {
      "inputs": [],
      "name": "lastLQTYError",
      "outputs": [
        {
          "internalType": "uint256",
          "name": "",
          "type": "uint256"
        }
      ],
      "stateMutability": "view",
      "type": "function"
    },
    {
      "inputs": [],
      "name": "lastLUSDLossError_Offset",
      "outputs": [
        {
          "internalType": "uint256",
          "name": "",
          "type": "uint256"
        }
      ],
      "stateMutability": "view",
      "type": "function"
    },
    {
      "inputs": [],
      "name": "lqtyTokenAddress",
      "outputs": [
        {
          "internalType": "address",
          "name": "",
          "type": "address"
        }
      ],
      "stateMutability": "view",
      "type": "function"
    },
    {
      "inputs": [],
      "name": "lusdToken",
      "outputs": [
        {
          "internalType": "contract ILUSDToken",
          "name": "",
          "type": "address"
        }
      ],
      "stateMutability": "view",
      "type": "function"
    },
    {
      "inputs": [
        {
          "internalType": "address",
          "name": "_collateral",
          "type": "address"
        },
        {
          "internalType": "uint256",
          "name": "_debtToOffset",
          "type": "uint256"
        },
        {
          "internalType": "uint256",
          "name": "_collToAdd",
          "type": "uint256"
        }
      ],
      "name": "offset",
      "outputs": [],
      "stateMutability": "nonpayable",
      "type": "function"
    },
    {
      "inputs": [],
      "name": "owner",
      "outputs": [
        {
          "internalType": "address",
          "name": "",
          "type": "address"
        }
      ],
      "stateMutability": "view",
      "type": "function"
    },
    {
      "inputs": [],
      "name": "priceFeed",
      "outputs": [
        {
          "internalType": "contract IPriceFeed",
          "name": "",
          "type": "address"
        }
      ],
      "stateMutability": "view",
      "type": "function"
    },
    {
      "inputs": [
        {
          "internalType": "uint256",
          "name": "_amount",
          "type": "uint256"
        }
      ],
      "name": "provideToSP",
      "outputs": [],
      "stateMutability": "nonpayable",
      "type": "function"
    },
    {
      "inputs": [
        {
          "internalType": "address",
          "name": "_borrowerOperationsAddress",
          "type": "address"
        },
        {
          "internalType": "address",
          "name": "_collateralConfigAddress",
          "type": "address"
        },
        {
          "internalType": "address",
          "name": "_troveManagerAddress",
          "type": "address"
        },
        {
          "internalType": "address",
          "name": "_activePoolAddress",
          "type": "address"
        },
        {
          "internalType": "address",
          "name": "_lusdTokenAddress",
          "type": "address"
        },
        {
          "internalType": "address",
          "name": "_sortedTrovesAddress",
          "type": "address"
        },
        {
          "internalType": "address",
          "name": "_priceFeedAddress",
          "type": "address"
        },
        {
          "internalType": "address",
          "name": "_communityIssuanceAddress",
          "type": "address"
        }
      ],
      "name": "setAddresses",
      "outputs": [],
      "stateMutability": "nonpayable",
      "type": "function"
    },
    {
      "inputs": [
        {
          "internalType": "uint128",
          "name": "_currentScale",
          "type": "uint128"
        }
      ],
      "name": "setCurrentScale",
      "outputs": [],
      "stateMutability": "nonpayable",
      "type": "function"
    },
    {
      "inputs": [
        {
          "internalType": "uint256",
          "name": "_totalLUSDDeposits",
          "type": "uint256"
        }
      ],
      "name": "setTotalDeposits",
      "outputs": [],
      "stateMutability": "nonpayable",
      "type": "function"
    },
    {
      "inputs": [],
      "name": "sortedTroves",
      "outputs": [
        {
          "internalType": "contract ISortedTroves",
          "name": "",
          "type": "address"
        }
      ],
      "stateMutability": "view",
      "type": "function"
    },
    {
      "inputs": [],
      "name": "troveManager",
      "outputs": [
        {
          "internalType": "contract ITroveManager",
          "name": "",
          "type": "address"
        }
      ],
      "stateMutability": "view",
      "type": "function"
    },
    {
      "inputs": [
        {
          "internalType": "address",
          "name": "_collateral",
          "type": "address"
        },
        {
          "internalType": "uint256",
          "name": "_amount",
          "type": "uint256"
        }
      ],
      "name": "unprotectedPullCollateral",
      "outputs": [],
      "stateMutability": "nonpayable",
      "type": "function"
    },
    {
      "inputs": [
        {
          "internalType": "address",
          "name": "_collateral",
          "type": "address"
        },
        {
          "internalType": "uint256",
          "name": "_collToAdd",
          "type": "uint256"
        }
      ],
      "name": "updateRewardSum",
      "outputs": [],
      "stateMutability": "nonpayable",
      "type": "function"
    },
    {
      "inputs": [
        {
          "internalType": "uint256",
          "name": "_amount",
          "type": "uint256"
        }
      ],
      "name": "withdrawFromSP",
      "outputs": [],
      "stateMutability": "nonpayable",
      "type": "function"
    }
  ],
  "bytecode": "0x6080604052670de0b6b3a7640000600f5534801561001c57600080fd5b50600380546001600160a01b031916339081179091556040516000907f8be0079c531659141344cd1fd0a4f28419497f9722a3daafe3b4186f6b6457e0908290a36139d38061006c6000396000f3fe608060405234801561001057600080fd5b506004361061028a5760003560e01c80638b8fbd921161015c578063b83f91a2116100ce578063cef941e811610087578063cef941e81461075f578063d733cfd014610767578063e6666733146107c6578063f5f1595d146107f8578063f92d34331461081e578063fc7e286d146108265761028a565b8063b83f91a21461069e578063ba10b65a146106a6578063ba9c7485146106e6578063c2ac8abd14610703578063c6ff82d914610729578063ce4b5bbe146107575761028a565b80639bf2f1ac116101205780639bf2f1ac146105e35780639e86d0c4146105eb578063a20baee61461049d578063a3f4df7e14610611578063a4e59ac81461068e578063ae918754146106965761028a565b80638b8fbd92146105895780638da5cb5b146105915780638f32d59b1461059957806395fb16bb146105b55780639b56d6c9146105bd5761028a565b8063538153ca1161020057806377553ad4116101b957806377553ad4146104d157806378c77a24146104d95780637f7dde4a146104f6578063817f6481146104fe57806382e0a5741461050657806386da0824146105345761028a565b8063538153ca146104615780635c0ab4de14610469578063648079ca1461047157806372fe25aa1461049d578063741bef1a146104a557806376671808146104ad5761028a565b8063307d361211610252578063307d36121461031c5780633cc74225146103db5780633d83908a146103ff5780634870dd9a146104075780634ee0a5781461040f57806350f592db1461043b5761028a565b80631bf435551461028f5780631cdc4700146102a957806327d04b35146102cf5780632e54bf95146102f55780632e86bbd814610314575b600080fd5b61029761084c565b60408051918252519081900360200190f35b610297600480360360208110156102bf57600080fd5b50356001600160a01b0316610859565b610297600480360360208110156102e557600080fd5b50356001600160a01b03166108f9565b6103126004803603602081101561030b57600080fd5b5035610a0f565b005b610297610bab565b6103426004803603602081101561033257600080fd5b50356001600160a01b0316610bb7565b604051808060200180602001838103835285818151815260200191508051906020019060200280838360005b8381101561038657818101518382015260200161036e565b50505050905001838103825284818151815260200191508051906020019060200280838360005b838110156103c55781810151838201526020016103ad565b5050505090500194505050505060405180910390f35b6103e3610c0f565b604080516001600160a01b039092168252519081900360200190f35b6103e3610c1e565b610297610c2d565b6103126004803603604081101561042557600080fd5b506001600160a01b038135169060200135610c32565b6103126004803603602081101561045157600080fd5b50356001600160801b0316610d03565b610297610d25565b6103e3610d2b565b6103126004803603604081101561048757600080fd5b506001600160a01b038135169060200135610d3a565b610297610d91565b6103e3610d9d565b6104b5610dac565b604080516001600160801b039092168252519081900360200190f35b6103e3610dc2565b610312600480360360208110156104ef57600080fd5b5035610dd1565b6103e3610f50565b6103e3610f5f565b6102976004803603604081101561051c57600080fd5b506001600160801b0381358116916020013516610f6e565b61055a6004803603602081101561054a57600080fd5b50356001600160a01b0316610f8b565b6040805194855260208501939093526001600160801b0391821684840152166060830152519081900360800190f35b610297610fc3565b6103e3610fc9565b6105a1610fd8565b604080519115158252519081900360200190f35b6103e3610fe9565b610297600480360360208110156105d357600080fd5b50356001600160a01b0316610ff8565b610297611013565b6102976004803603602081101561060157600080fd5b50356001600160a01b0316611019565b6106196110e9565b6040805160208082528351818301528351919283929083019185019080838360005b8381101561065357818101518382015260200161063b565b50505050905090810190601f1680156106805780820380516001836020036101000a031916815260200191505b509250505060405180910390f35b6104b5611112565b6103e3611121565b6103e3611130565b610297600480360360608110156106bc57600080fd5b5080356001600160801b0390811691602081013590911690604001356001600160a01b031661113f565b610312600480360360208110156106fc57600080fd5b5035611162565b6102976004803603602081101561071957600080fd5b50356001600160a01b0316611167565b6102976004803603604081101561073f57600080fd5b506001600160a01b0381358116916020013516611179565b6102976111a6565b6102976111ae565b610312600480360361010081101561077e57600080fd5b506001600160a01b038135811691602081013582169160408201358116916060810135821691608082013581169160a081013582169160c082013581169160e00135166111b4565b610312600480360360608110156107dc57600080fd5b506001600160a01b0381351690602081013590604001356114b7565b6102976004803603602081101561080e57600080fd5b50356001600160a01b031661151f565b6102976115b4565b6102976004803603602081101561083c57600080fd5b50356001600160a01b03166115bf565b6804e1003b28d928000081565b6001600160a01b0381166000908152600d6020526040812054806108815760009150506108f4565b61088961378a565b506001600160a01b0383166000908152600e60209081526040808320815160808101835260018201548152600282015493810193909352600301546001600160801b0380821692840192909252600160801b9004166060820152906108ee83836115d1565b93505050505b919050565b6000805460408051634b14fa8760e01b81526001600160a01b038581166004830152915184939290921691634b14fa8791602480820192602092909190829003018186803b15801561094a57600080fd5b505afa15801561095e573d6000803e3d6000fd5b505050506040513d602081101561097457600080fd5b505160015460408051634b14fa8760e01b81526001600160a01b03878116600483015291519394506000939190921691634b14fa87916024808301926020929190829003018186803b1580156109c957600080fd5b505afa1580156109dd573d6000803e3d6000fd5b505050506040513d60208110156109f357600080fd5b50519050610a07828263ffffffff6116d616565b949350505050565b8015610a1d57610a1d611737565b336000908152600d6020526040902054610a3681611acb565b600a546001600160a01b0316610a4b81611b0d565b606080610a5733610bb7565b915091506000610a6633610859565b90506000610a748783611b81565b90506000610a88878463ffffffff611b9716565b9050610a948633611bd9565b610a9e3383611ca2565b6000610ab0848463ffffffff611b9716565b9050610abc3382611d28565b60408051828152905133917fbce78369dccab09eec1986f4d409ab09ffbb47d65423e5148fcf98411c5111c9919081900360200190a2855160005b81811015610b9e576000888281518110610b0d57fe5b602002602001015190506000888381518110610b2557fe5b60200260200101519050336001600160a01b03167fbca22cb1a675adf66fa540a4c7a885a6f8f1d14d7ae9410d464c1ded5dd2ebe3838360405180836001600160a01b03166001600160a01b031681526020018281526020019250505060405180910390a2610b948282612256565b5050600101610af7565b5050505050505050505050565b678ac7230489e8000081565b6001600160a01b0381166000908152600d602052604090205460609081908015610c08576001600160a01b0384166000908152600e60205260409020610bfd8282612342565b935093505050610c0a565b505b915091565b6001546001600160a01b031681565b6006546001600160a01b031681565b60c881565b610c3a6124f2565b600c5480610c485750610cff565b600a54610c5d906001600160a01b0316611b0d565b6000610c6c848460008561253d565b509050610c7b84826000612660565b6001600160a01b0384166000908152600b6020526040812054610ca4908563ffffffff6116d616565b6001600160a01b0386166000818152600b60209081526040918290208490558151928352820183905280519293507f409eef87fc6b8bf65be7975e9a5e3cf900368e9109bf6bb4a1bb110e1725bdda92918290030190a15050505b5050565b601080546001600160801b0319166001600160801b0392909216919091179055565b60155481565b6005546001600160a01b031681565b6001600160a01b0382166000908152600b6020526040902054610d63908263ffffffff6116d616565b6001600160a01b0383166000818152600b6020526040902091909155610cff9033308463ffffffff6129f416565b670de0b6b3a764000081565b6002546001600160a01b031681565b601054600160801b90046001600160801b031681565b6004546001600160a01b031681565b610dda81612a54565b336000908152600d6020526040902054600a546001600160a01b0316610dff81611b0d565b606080610e0b33610bb7565b915091506000610e1a33610859565b90506000610e2e868363ffffffff611b9716565b9050610e3a8533611bd9565b610e443388612a93565b6000610e56838963ffffffff6116d616565b9050610e623382611d28565b60408051828152905133917fbce78369dccab09eec1986f4d409ab09ffbb47d65423e5148fcf98411c5111c9919081900360200190a2845160005b81811015610f44576000878281518110610eb357fe5b602002602001015190506000878381518110610ecb57fe5b60200260200101519050336001600160a01b03167fbca22cb1a675adf66fa540a4c7a885a6f8f1d14d7ae9410d464c1ded5dd2ebe3838360405180836001600160a01b03166001600160a01b031681526020018281526020019250505060405180910390a2610f3a8282612256565b5050600101610e9d565b50505050505050505050565b6000546001600160a01b031681565b6008546001600160a01b031681565b601260209081526000928352604080842090915290825290205481565b600e602052600090815260409020600181015460028201546003909201549091906001600160801b0380821691600160801b90041684565b600f5481565b6003546001600160a01b031690565b6003546001600160a01b0316331490565b600a546001600160a01b031681565b6001600160a01b03166000908152600b602052604090205490565b600c5490565b6000805460408051639b56d6c960e01b81526001600160a01b038581166004830152915184939290921691639b56d6c991602480820192602092909190829003018186803b15801561106a57600080fd5b505afa15801561107e573d6000803e3d6000fd5b505050506040513d602081101561109457600080fd5b505160015460408051639b56d6c960e01b81526001600160a01b03878116600483015291519394506000939190921691639b56d6c9916024808301926020929190829003018186803b1580156109c957600080fd5b6040518060400160405280600d81526020016c14dd18589a5b1a5d1e541bdbdb609a1b81525081565b6010546001600160801b031681565b6009546001600160a01b031681565b6007546001600160a01b031681565b601160209081526000938452604080852082529284528284209052825290205481565b600c55565b60146020526000908152604090205481565b6001600160a01b038083166000908152600e60209081526040808320938516835292905220545b92915050565b633b9aca0081565b60135481565b6111bc610fd8565b61120d576040805162461bcd60e51b815260206004820181905260248201527f4f776e61626c653a2063616c6c6572206973206e6f7420746865206f776e6572604482015290519081900360640190fd5b61121688612b5d565b61121f87612b5d565b61122886612b5d565b61123185612b5d565b61123a84612b5d565b61124383612b5d565b61124c82612b5d565b61125581612b5d565b600480546001600160a01b03199081166001600160a01b038b81169182179093556005805483168b85161790556006805483168a8516179055600080548316898516179055600780548316888516179055600980548316878516179055600280548316868516179055600a805490921692841692909217905560408051918252517f3ca631ffcd2a9b5d9ae18543fc82f58eb4ca33af9e6ab01b7a8e95331e6ed985916020908290030190a1604080516001600160a01b038916815290517f6a69409f44477d8556c3c8040edc75d9bc1b3dee7846f6045c0b99556fe7bc919181900360200190a1604080516001600160a01b038816815290517f143219c9e69b09e07e095fcc889b43d8f46ca892bba65f08dc3a0050869a56789181900360200190a1604080516001600160a01b038716815290517f78f058b189175430c48dc02699e3a0031ea4ff781536dc2fab847de4babdd8829181900360200190a1604080516001600160a01b038616815290517f227eec0ec317af6ab1a9587ffa1c84332522eb4c583a908f89babc05f8f339bd9181900360200190a1604080516001600160a01b038516815290517f65f4cf077bc01e4742eb5ad98326f6e95b63548ea24b17f8d5e823111fe788009181900360200190a1604080516001600160a01b038416815290517f8c537274438aa850a330284665d81a85dd38267d09e4050d416bfc94142db2649181900360200190a1604080516001600160a01b038316815290517f3055265812fb8447b9ada4a5d804ec43bd528ec40e89c952bbc7b85dc5ac68119181900360200190a16114ad612c0c565b5050505050505050565b6114bf612c56565b600c548015806114cd575082155b156114d8575061151a565b600a546114ed906001600160a01b0316611b0d565b6000806114fc8685878661253d565b9150915061150b868383612660565b611516868587612c9f565b5050505b505050565b6001600160a01b0381166000908152600d6020526040812054806115475760009150506108f4565b61154f61378a565b506001600160a01b0383166000908152600e60209081526040808320815160808101835260018201548152600282015493810193909352600301546001600160801b0380821692840192909252600160801b9004166060820152906108ee8383612e12565b6611c37937e0800081565b600d6020526000908152604090205481565b8051604082015160608301516010546000939291906001600160801b03600160801b9091048116908216101561160d57600093505050506111a0565b601054600090819061162e906001600160801b03168563ffffffff612f0116565b90506001600160801b03811661166a5761166385611657600f548b612f5a90919063ffffffff16565b9063ffffffff612fb316565b91506116a2565b806001600160801b03166001141561169d57611663633b9aca0061165787611657600f548d612f5a90919063ffffffff16565b600091505b6116b688633b9aca0063ffffffff612fb316565b8210156116cb576000955050505050506111a0565b509695505050505050565b600082820183811015611730576040805162461bcd60e51b815260206004820152601b60248201527f536166654d6174683a206164646974696f6e206f766572666c6f770000000000604482015290519081900360640190fd5b9392505050565b6005546040805163b2604ecf60e01b815290516060926001600160a01b03169163b2604ecf916004808301926000929190829003018186803b15801561177c57600080fd5b505afa158015611790573d6000803e3d6000fd5b505050506040513d6000823e601f3d908101601f1916820160405260208110156117b957600080fd5b8101908080516040519392919084600160201b8211156117d857600080fd5b9083019060208201858111156117ed57600080fd5b82518660208202830111600160201b8211171561180957600080fd5b82525081516020918201928201910280838360005b8381101561183657818101518382015260200161181e565b50505050919091016040525050825192935060009150505b8181101561151a57600083828151811061186457fe5b60209081029190910181015160025460408051635670bcc760e11b81526001600160a01b0380851660048301529151939550600094919092169263ace1798e92602480820193929182900301818787803b1580156118c157600080fd5b505af11580156118d5573d6000803e3d6000fd5b505050506040513d60208110156118eb57600080fd5b505160095460408051637608271560e01b81526001600160a01b038681166004830152915193945060009391909216916376082715916024808301926020929190829003018186803b15801561194057600080fd5b505afa158015611954573d6000803e3d6000fd5b505050506040513d602081101561196a57600080fd5b5051600554604080516311e2c60b60e11b81526001600160a01b038781166004830152915193945060009391909216916323c58c16916024808301926020929190829003018186803b1580156119bf57600080fd5b505afa1580156119d3573d6000803e3d6000fd5b505050506040513d60208110156119e957600080fd5b50516006546040805163b1eafaab60e01b81526001600160a01b0386811660048301528881166024830152604482018890529151939450600093919092169163b1eafaab916064808301926020929190829003018186803b158015611a4d57600080fd5b505afa158015611a61573d6000803e3d6000fd5b505050506040513d6020811015611a7757600080fd5b5051905081811015611aba5760405162461bcd60e51b815260040180806020018281038252604481526020018061395a6044913960600191505060405180910390fd5b50506001909301925061184e915050565b60008111611b0a5760405162461bcd60e51b81526004018080602001828103825260308152602001806138dd6030913960400191505060405180910390fd5b50565b6000816001600160a01b031663281020476040518163ffffffff1660e01b8152600401602060405180830381600087803b158015611b4a57600080fd5b505af1158015611b5e573d6000803e3d6000fd5b505050506040513d6020811015611b7457600080fd5b50519050610cff81612ff5565b6000818310611b905781611730565b5090919050565b600061173083836040518060400160405280601e81526020017f536166654d6174683a207375627472616374696f6e206f766572666c6f770000815250613110565b6000611be48261151f565b9050826001600160a01b031663de622bf083836040518363ffffffff1660e01b815260040180836001600160a01b03166001600160a01b0316815260200182815260200192505050600060405180830381600087803b158015611c4657600080fd5b505af1158015611c5a573d6000803e3d6000fd5b50506040805184815290516001600160a01b03861693507f2608b986a6ac0f6c629ca37018e80af5561e366252ae93602a96d3ab2e73e42d92509081900360200190a2505050565b80611cac57610cff565b60075460408051631062c15f60e11b81523060048201526001600160a01b03858116602483015260448201859052915191909216916320c582be91606480830192600092919082900301818387803b158015611d0757600080fd5b505af1158015611d1b573d6000803e3d6000fd5b50505050610cff816131a7565b6001600160a01b038083166000908152600d6020526040808220849055600554815163b2604ecf60e01b81529151606094919091169263b2604ecf9260048082019391829003018186803b158015611d7f57600080fd5b505afa158015611d93573d6000803e3d6000fd5b505050506040513d6000823e601f3d908101601f191682016040526020811015611dbc57600080fd5b8101908080516040519392919084600160201b821115611ddb57600080fd5b908301906020820185811115611df057600080fd5b82518660208202830111600160201b82111715611e0c57600080fd5b82525081516020918201928201910280838360005b83811015611e39578181015183820152602001611e21565b5050505090500160405250505090506060815167ffffffffffffffff81118015611e6257600080fd5b50604051908082528060200260200182016040528015611e8c578160200160208202803683370190505b50905082611ffb5760005b8251811015611ef7576001600160a01b0385166000908152600e602052604081208451909190859084908110611ec957fe5b6020908102919091018101516001600160a01b03168252810191909152604001600090812055600101611e97565b506001600160a01b0384166000818152600e602090815260408083206001810184905560028101849055600301839055805183815260608101849052608081840181815288519183019190915287517f0733ad41f8d5341e0a51113482115dde66a75a14959119c5589ebab3902914c59594899489948794909390929184019160a08501918882019102808383895b83811015611f9e578181015183820152602001611f86565b50505050905001838103825285818151815260200191508051906020019060200280838360005b83811015611fdd578181015183820152602001611fc5565b50505050905001965050505050505060405180910390a25050610cff565b601054600f546001600160801b03600160801b80840482166000818152601260209081526040808320978616808452978252808320546001600160a01b038d168452600e9092528220600181018790556002810182905560030180546001600160801b03191688179095169383029390931790935592915b865181101561217657600087828151811061208a57fe5b60200260200101519050600060116000876001600160801b03166001600160801b031681526020019081526020016000206000886001600160801b03166001600160801b031681526020019081526020016000206000836001600160a01b03166001600160a01b0316815260200190815260200160002054905080600e60008d6001600160a01b03166001600160a01b031681526020019081526020016000206000016000846001600160a01b03166001600160a01b03168152602001908152602001600020819055508088848151811061216157fe5b60209081029190910101525050600101612073565b50876001600160a01b03167f0733ad41f8d5341e0a51113482115dde66a75a14959119c5589ebab3902914c583888885604051808581526020018060200180602001848152602001838103835286818151815260200191508051906020019060200280838360005b838110156121f65781810151838201526020016121de565b50505050905001838103825285818151815260200191508051906020019060200280838360005b8381101561223557818101518382015260200161221d565b50505050905001965050505050505060405180910390a25050505050505050565b8061226057610cff565b6001600160a01b0382166000908152600b6020526040812054612289908363ffffffff611b9716565b6001600160a01b0384166000818152600b60209081526040918290208490558151928352820183905280519293507f409eef87fc6b8bf65be7975e9a5e3cf900368e9109bf6bb4a1bb110e1725bdda92918290030190a1604080516001600160a01b038516815233602082015280820184905290517fe664153eb516123e000bb334869ec912418f6fe4c1abb53fe2f848c947a8405d9181900360600190a161151a6001600160a01b038416338463ffffffff6131fd16565b606080600560009054906101000a90046001600160a01b03166001600160a01b031663b2604ecf6040518163ffffffff1660e01b815260040160006040518083038186803b15801561239357600080fd5b505afa1580156123a7573d6000803e3d6000fd5b505050506040513d6000823e601f3d908101601f1916820160405260208110156123d057600080fd5b8101908080516040519392919084600160201b8211156123ef57600080fd5b90830190602082018581111561240457600080fd5b82518660208202830111600160201b8211171561242057600080fd5b82525081516020918201928201910280838360005b8381101561244d578181015183820152602001612435565b505050509050016040525050509150815167ffffffffffffffff8111801561247457600080fd5b5060405190808252806020026020018201604052801561249e578160200160208202803683370190505b50905060005b82518110156124ea576124cb858483815181106124bd57fe5b60200260200101518661324f565b8282815181106124d757fe5b60209081029190910101526001016124a4565b509250929050565b6000546001600160a01b0316331461253b5760405162461bcd60e51b815260040180806020018281038252602781526020018061381c6027913960400191505060405180910390fd5b565b6001600160a01b038416600090815260146020526040812054819081906125829061257688670de0b6b3a764000063ffffffff612f5a16565b9063ffffffff6116d616565b90508385111561258e57fe5b838514156125ab576000601555670de0b6b3a7640000915061260b565b6015546000906125d9906125cd88670de0b6b3a764000063ffffffff612f5a16565b9063ffffffff611b9716565b90506125f06001612576838863ffffffff612fb316565b9250612606816125cd858863ffffffff612f5a16565b601555505b61261b818563ffffffff612fb316565b925061263d612630848663ffffffff612f5a16565b829063ffffffff611b9716565b6001600160a01b0388166000908152601460205260409020555094509492505050565b600f546000670de0b6b3a764000083111561267757fe5b6000612691670de0b6b3a76400008563ffffffff611b9716565b6010546001600160801b03600160801b820481166000818152601160209081526040808320949095168083529381528482206001600160a01b038d168352905292832054939450909290916126e68988612f5a565b905060006126fa838363ffffffff6116d616565b90508060116000866001600160801b03166001600160801b031681526020019081526020016000206000876001600160801b03166001600160801b0316815260200190815260200160002060008d6001600160a01b03166001600160a01b03168152602001908152602001600020819055507fe799d8213ffd47c58af0bad222f3f83a7bacf689130d897017d6c2cb9346e8cb8b82868860405180856001600160a01b03166001600160a01b03168152602001848152602001836001600160801b03166001600160801b03168152602001826001600160801b03166001600160801b0316815260200194505050505060405180910390a1856128b9576128106001600160801b038516600163ffffffff61342d16565b601080546001600160801b03908116600160801b938216840217918290556040805193909204168252517fb50f0f59e7cb5b421dc77581c3a9919e3806e076e5fa78a874c3f120cb7d874d916020908290030190a1601080546001600160801b0319169055604080516000815290517f1f9dfc70cd666adb18a39d60a797518f7b4febf4b6e24ef37d44f6e1e7219fbe9181900360200190a1670de0b6b3a764000096506129a5565b633b9aca006128da670de0b6b3a76400006116578b8a63ffffffff612f5a16565b101561298657612910670de0b6b3a7640000611657633b9aca006129048c8b63ffffffff612f5a16565b9063ffffffff612f5a16565b965061292c6001600160801b038616600163ffffffff61342d16565b601080546001600160801b0319166001600160801b0392831617908190556040805191909216815290517f1f9dfc70cd666adb18a39d60a797518f7b4febf4b6e24ef37d44f6e1e7219fbe916020908290030190a16129a5565b6129a2670de0b6b3a76400006116578a8963ffffffff612f5a16565b96505b600087116129af57fe5b600f8790556040805188815290517fc1a9618cb59ebca77cbdbc2949f126823c407ff13edb285fd0262519a9c18e8c9181900360200190a15050505050505050505050565b604080516001600160a01b0380861660248301528416604482015260648082018490528251808303909101815260849091019091526020810180516001600160e01b03166323b872dd60e01b179052612a4e90859061347d565b50505050565b60008111611b0a5760405162461bcd60e51b815260040180806020018281038252602681526020018061388d6026913960400191505060405180910390fd5b60075460408051632ee65eeb60e21b81526001600160a01b038581166004830152306024830152604482018590529151919092169163bb997bac91606480830192600092919082900301818387803b158015612aee57600080fd5b505af1158015612b02573d6000803e3d6000fd5b5050600c5460009250612b1c91508363ffffffff6116d616565b600c8190556040805182815290519192507fa8e886449d8f7e765877b4a4f54632da3943ae454d5a272bdccb1781f086ff29919081900360200190a1505050565b6001600160a01b038116612bb8576040805162461bcd60e51b815260206004820152601e60248201527f4163636f756e742063616e6e6f74206265207a65726f20616464726573730000604482015290519081900360640190fd5b803b80610cff576040805162461bcd60e51b815260206004820181905260248201527f4163636f756e7420636f64652073697a652063616e6e6f74206265207a65726f604482015290519081900360640190fd5b6003546040516000916001600160a01b0316907f8be0079c531659141344cd1fd0a4f28419497f9722a3daafe3b4186f6b6457e0908390a3600380546001600160a01b0319169055565b6006546001600160a01b0316331461253b5760405162461bcd60e51b81526004018080602001828103825260298152602001806138436029913960400191505060405180910390fd5b6000805460408051633aacc81560e01b81526001600160a01b03878116600483015260248201869052915191909216928392633aacc815926044808301939282900301818387803b158015612cf357600080fd5b505af1158015612d07573d6000803e3d6000fd5b50505050612d14826131a7565b60075460408051632770a7eb60e21b81523060048201526024810185905290516001600160a01b0390921691639dc29fac9160448082019260009290919082900301818387803b158015612d6757600080fd5b505af1158015612d7b573d6000803e3d6000fd5b50506040805163715aa61b60e01b81526001600160a01b038881166004830152306024830152604482018890529151918516935063715aa61b925060648082019260009290919082900301818387803b158015612dd757600080fd5b505af1158015612deb573d6000803e3d6000fd5b505050506001600160a01b0384166000908152600b6020526040812054610ca490856116d6565b606081015160408083015160208085015185516001600160801b03808716600090815260128552868120918616815293529382205491949390918590612e5e908463ffffffff611b9716565b6001600160801b03808716600090815260126020526040812092935091612ec191633b9aca0091908490612e9b908a16600163ffffffff61342d16565b6001600160801b031681526020810191909152604001600020549063ffffffff612fb316565b90506000612ef3670de0b6b3a76400006116578681612ee6888863ffffffff6116d616565b8f9063ffffffff612f5a16565b9a9950505050505050505050565b6000826001600160801b0316826001600160801b03161115612f545760405162461bcd60e51b815260040180806020018281038252602881526020018061390d6028913960400191505060405180910390fd5b50900390565b600082612f69575060006111a0565b82820282848281612f7657fe5b04146117305760405162461bcd60e51b815260040180806020018281038252602181526020018061386c6021913960400191505060405180910390fd5b600061173083836040518060400160405280601a81526020017f536166654d6174683a206469766973696f6e206279207a65726f00000000000081525061352e565b600c54801580613003575081155b1561300e5750611b0a565b600061301a8383613593565b90506000613033600f5483612f5a90919063ffffffff16565b6010546001600160801b03600160801b820481166000908152601260209081526040808320939094168252919091522054909150613077908263ffffffff6116d616565b601080546001600160801b03600160801b808304821660009081526012602081815260408084209686168452958152858320979097559454918204831680825294865283812091909216808352908552908290205482519081529384019290925282810191909152517f2d6127771b164a9cc8827d24b5955db2a77e7a81dac389107ebb8bce9fb649689181900360600190a150505050565b6000818484111561319f5760405162461bcd60e51b81526004018080602001828103825283818151815260200191508051906020019080838360005b8381101561316457818101518382015260200161314c565b50505050905090810190601f1680156131915780820380516001836020036101000a031916815260200191505b509250505060405180910390fd5b505050900390565b600c546000906131bd908363ffffffff611b9716565b600c8190556040805182815290519192507fa8e886449d8f7e765877b4a4f54632da3943ae454d5a272bdccb1781f086ff29919081900360200190a15050565b604080516001600160a01b038416602482015260448082018490528251808303909101815260649091019091526020810180516001600160e01b031663a9059cbb60e01b17905261151a90849061347d565b60006132596137c4565b6005546040805163eb7aac5f60e01b81526001600160a01b0387811660048301529151919092169163eb7aac5f916024808301926020929190829003018186803b1580156132a657600080fd5b505afa1580156132ba573d6000803e3d6000fd5b505050506040513d60208110156132d057600080fd5b5051815260038301546001600160801b03600160801b8204811660208481019182529282166040808601918252600188015460608701526001600160a01b0389166000818152898752828120546080890181905294518616815260118752828120935190951685529185528084209184529352919020546133569163ffffffff611b9716565b60a08201526020808201516001600160801b03908116600090815260119092526040808320908401516133d993633b9aca0093909161339d9116600163ffffffff61342d16565b6001600160801b03168152602080820192909252604090810160009081206001600160a01b038a1682529092529020549063ffffffff612fb316565b60c08201819052606082015160a083015161341c92670de0b6b3a764000092611657929091839161340f9163ffffffff6116d616565b8a9063ffffffff612f5a16565b60e090910181905290509392505050565b60008282016001600160801b0380851690821610156117305760405162461bcd60e51b81526004018080602001828103825260258152602001806139356025913960400191505060405180910390fd5b60606134d2826040518060400160405280602081526020017f5361666545524332303a206c6f772d6c6576656c2063616c6c206661696c6564815250856001600160a01b03166135f89092919063ffffffff16565b80519091501561151a578080602001905160208110156134f157600080fd5b505161151a5760405162461bcd60e51b815260040180806020018281038252602a8152602001806138b3602a913960400191505060405180910390fd5b6000818361357d5760405162461bcd60e51b815260206004820181815283516024840152835190928392604490910191908501908083836000831561316457818101518382015260200161314c565b50600083858161358957fe5b0495945050505050565b6000806135b7601354612576670de0b6b3a764000087612f5a90919063ffffffff16565b905060006135cb828563ffffffff612fb316565b90506135ed6135e0828663ffffffff612f5a16565b839063ffffffff611b9716565b601355949350505050565b6060610a0784846000858561360c8561371e565b61365d576040805162461bcd60e51b815260206004820152601d60248201527f416464726573733a2063616c6c20746f206e6f6e2d636f6e7472616374000000604482015290519081900360640190fd5b60006060866001600160a01b031685876040518082805190602001908083835b6020831061369c5780518252601f19909201916020918201910161367d565b6001836020036101000a03801982511681845116808217855250505050505090500191505060006040518083038185875af1925050503d80600081146136fe576040519150601f19603f3d011682016040523d82523d6000602084013e613703565b606091505b5091509150613713828286613724565b979650505050505050565b3b151590565b60608315613733575081611730565b8251156137435782518084602001fd5b60405162461bcd60e51b815260206004820181815284516024840152845185939192839260440191908501908083836000831561316457818101518382015260200161314c565b6040518060800160405280600081526020016000815260200160006001600160801b0316815260200160006001600160801b031681525090565b6040518061010001604052806000815260200160006001600160801b0316815260200160006001600160801b031681526020016000815260200160008152602001600081526020016000815260200160008152509056fe53746162696c697479506f6f6c3a2043616c6c6572206973206e6f7420416374697665506f6f6c53746162696c697479506f6f6c3a2043616c6c6572206973206e6f742054726f76654d616e61676572536166654d6174683a206d756c7469706c69636174696f6e206f766572666c6f7753746162696c697479506f6f6c3a20416d6f756e74206d757374206265206e6f6e2d7a65726f5361666545524332303a204552433230206f7065726174696f6e20646964206e6f74207375636365656453746162696c697479506f6f6c3a2055736572206d75737420686176652061206e6f6e2d7a65726f206465706f7369744c697175697479536166654d6174683132383a207375627472616374696f6e206f766572666c6f774c697175697479536166654d6174683132383a206164646974696f6e206f766572666c6f7753746162696c697479506f6f6c3a2043616e6e6f74207769746864726177207768696c65207468657265206172652074726f766573207769746820494352203c204d4352a2646970667358221220ac60f25db8cbefeda482a5dce47318302d401c082167e47837594aa1416441b964736f6c634300060b0033",
  "linkReferences": {},
  "deployedLinkReferences": {}
}