{
  "_format": "hh-sol-artifact-1",
  "contractName": "CollSurplusPool",
  "sourceName": "contracts/CollSurplusPool.sol",
  "abi": [
    {
      "anonymous": false,
      "inputs": [
        {
          "indexed": false,
          "internalType": "address",
          "name": "_newActivePoolAddress",
          "type": "address"
        }
      ],
      "name": "ActivePoolAddressChanged",
      "type": "event"
    },
    {
      "anonymous": false,
      "inputs": [
        {
          "indexed": false,
          "internalType": "address",
          "name": "_newBorrowerOperationsAddress",
          "type": "address"
        }
      ],
      "name": "BorrowerOperationsAddressChanged",
      "type": "event"
    },
    {
      "anonymous": false,
      "inputs": [
        {
          "indexed": true,
          "internalType": "address",
          "name": "_account",
          "type": "address"
        },
        {
          "indexed": false,
          "internalType": "address",
          "name": "_collateral",
          "type": "address"
        },
        {
          "indexed": false,
          "internalType": "uint256",
          "name": "_newBalance",
          "type": "uint256"
        }
      ],
      "name": "CollBalanceUpdated",
      "type": "event"
    },
    {
      "anonymous": false,
      "inputs": [
        {
          "indexed": false,
          "internalType": "address",
          "name": "_newCollateralConfigAddress",
          "type": "address"
        }
      ],
      "name": "CollateralConfigAddressChanged",
      "type": "event"
    },
    {
      "anonymous": false,
      "inputs": [
        {
          "indexed": false,
          "internalType": "address",
          "name": "_collateral",
          "type": "address"
        },
        {
          "indexed": false,
          "internalType": "address",
          "name": "_to",
          "type": "address"
        },
        {
          "indexed": false,
          "internalType": "uint256",
          "name": "_amount",
          "type": "uint256"
        }
      ],
      "name": "CollateralSent",
      "type": "event"
    },
    {
      "anonymous": false,
      "inputs": [
        {
          "indexed": true,
          "internalType": "address",
          "name": "previousOwner",
          "type": "address"
        },
        {
          "indexed": true,
          "internalType": "address",
          "name": "newOwner",
          "type": "address"
        }
      ],
      "name": "OwnershipTransferred",
      "type": "event"
    },
    {
      "anonymous": false,
      "inputs": [
        {
          "indexed": false,
          "internalType": "address",
          "name": "_newTroveManagerAddress",
          "type": "address"
        }
      ],
      "name": "TroveManagerAddressChanged",
      "type": "event"
    },
    {
      "inputs": [],
      "name": "NAME",
      "outputs": [
        {
          "internalType": "string",
          "name": "",
          "type": "string"
        }
      ],
      "stateMutability": "view",
      "type": "function"
    },
    {
      "inputs": [
        {
          "internalType": "address",
          "name": "_account",
          "type": "address"
        },
        {
          "internalType": "address",
          "name": "_collateral",
          "type": "address"
        },
        {
          "internalType": "uint256",
          "name": "_amount",
          "type": "uint256"
        }
      ],
      "name": "accountSurplus",
      "outputs": [],
      "stateMutability": "nonpayable",
      "type": "function"
    },
    {
      "inputs": [],
      "name": "activePoolAddress",
      "outputs": [
        {
          "internalType": "address",
          "name": "",
          "type": "address"
        }
      ],
      "stateMutability": "view",
      "type": "function"
    },
    {
      "inputs": [],
      "name": "borrowerOperationsAddress",
      "outputs": [
        {
          "internalType": "address",
          "name": "",
          "type": "address"
        }
      ],
      "stateMutability": "view",
      "type": "function"
    },
    {
      "inputs": [
        {
          "internalType": "address",
          "name": "_account",
          "type": "address"
        },
        {
          "internalType": "address",
          "name": "_collateral",
          "type": "address"
        }
      ],
      "name": "claimColl",
      "outputs": [],
      "stateMutability": "nonpayable",
      "type": "function"
    },
    {
      "inputs": [],
      "name": "collateralConfigAddress",
      "outputs": [
        {
          "internalType": "address",
          "name": "",
          "type": "address"
        }
      ],
      "stateMutability": "view",
      "type": "function"
    },
    {
      "inputs": [
        {
          "internalType": "address",
          "name": "_collateral",
          "type": "address"
        }
      ],
      "name": "getCollateral",
      "outputs": [
        {
          "internalType": "uint256",
          "name": "",
          "type": "uint256"
        }
      ],
      "stateMutability": "view",
      "type": "function"
    },
    {
      "inputs": [
        {
          "internalType": "address",
          "name": "_account",
          "type": "address"
        },
        {
          "internalType": "address",
          "name": "_collateral",
          "type": "address"
        }
      ],
      "name": "getUserCollateral",
      "outputs": [
        {
          "internalType": "uint256",
          "name": "",
          "type": "uint256"
        }
      ],
      "stateMutability": "view",
      "type": "function"
    },
    {
      "inputs": [],
      "name": "isOwner",
      "outputs": [
        {
          "internalType": "bool",
          "name": "",
          "type": "bool"
        }
      ],
      "stateMutability": "view",
      "type": "function"
    },
    {
      "inputs": [],
      "name": "owner",
      "outputs": [
        {
          "internalType": "address",
          "name": "",
          "type": "address"
        }
      ],
      "stateMutability": "view",
      "type": "function"
    },
    {
      "inputs": [
        {
          "internalType": "address",
          "name": "_collateral",
          "type": "address"
        },
        {
          "internalType": "uint256",
          "name": "_amount",
          "type": "uint256"
        }
      ],
      "name": "pullCollateralFromActivePool",
      "outputs": [],
      "stateMutability": "nonpayable",
      "type": "function"
    },
    {
      "inputs": [
        {
          "internalType": "address",
          "name": "_collateralConfigAddress",
          "type": "address"
        },
        {
          "internalType": "address",
          "name": "_borrowerOperationsAddress",
          "type": "address"
        },
        {
          "internalType": "address",
          "name": "_troveManagerAddress",
          "type": "address"
        },
        {
          "internalType": "address",
          "name": "_activePoolAddress",
          "type": "address"
        }
      ],
      "name": "setAddresses",
      "outputs": [],
      "stateMutability": "nonpayable",
      "type": "function"
    },
    {
      "inputs": [],
      "name": "troveManagerAddress",
      "outputs": [
        {
          "internalType": "address",
          "name": "",
          "type": "address"
        }
      ],
      "stateMutability": "view",
      "type": "function"
    }
  ],
  "bytecode": "0x608060405234801561001057600080fd5b50600080546001600160a01b0319163390811782556040519091907f8be0079c531659141344cd1fd0a4f28419497f9722a3daafe3b4186f6b6457e0908290a36110758061005f6000396000f3fe608060405234801561001057600080fd5b50600436106100bf5760003560e01c80639b56d6c91161007c5780639b56d6c914610180578063a3f4df7e146101b8578063a55e866814610235578063b08bc72214610263578063b7f8cf9b1461026b578063ea16003f14610273578063fe9454b4146102a1576100bf565b806336c855df146100c45780634a945f8d146100e85780635a4d28bb1461012857806374448ef9146101305780638da5cb5b1461015c5780638f32d59b14610164575b600080fd5b6100cc6102d7565b604080516001600160a01b039092168252519081900360200190f35b610126600480360360808110156100fe57600080fd5b506001600160a01b0381358116916020810135821691604082013581169160600135166102e6565b005b6100cc61049f565b6101266004803603604081101561014657600080fd5b506001600160a01b0381351690602001356104ae565b6100cc61051f565b61016c61052e565b604080519115158252519081900360200190f35b6101a66004803603602081101561019657600080fd5b50356001600160a01b031661053f565b60408051918252519081900360200190f35b6101c0610566565b6040805160208082528351818301528351919283929083019185019080838360005b838110156101fa5781810151838201526020016101e2565b50505050905090810190601f1680156102275780820380516001836020036101000a031916815260200191505b509250505060405180910390f35b6101a66004803603604081101561024b57600080fd5b506001600160a01b0381358116916020013516610591565b6100cc6105c8565b6100cc6105d7565b6101266004803603604081101561028957600080fd5b506001600160a01b03813581169160200135166105e6565b610126600480360360608110156102b757600080fd5b506001600160a01b03813581169160208101359091169060400135610768565b6001546001600160a01b031681565b6102ee61052e565b61033f576040805162461bcd60e51b815260206004820181905260248201527f4f776e61626c653a2063616c6c6572206973206e6f7420746865206f776e6572604482015290519081900360640190fd5b6103488461081e565b6103518361081e565b61035a8261081e565b6103638161081e565b600180546001600160a01b038087166001600160a01b031992831681179093556002805487831690841617905560038054868316908416179055600480549185169190921617905560408051918252517f6a69409f44477d8556c3c8040edc75d9bc1b3dee7846f6045c0b99556fe7bc919181900360200190a1604080516001600160a01b038516815290517f3ca631ffcd2a9b5d9ae18543fc82f58eb4ca33af9e6ab01b7a8e95331e6ed9859181900360200190a1604080516001600160a01b038416815290517f143219c9e69b09e07e095fcc889b43d8f46ca892bba65f08dc3a0050869a56789181900360200190a1604080516001600160a01b038316815290517f78f058b189175430c48dc02699e3a0031ea4ff781536dc2fab847de4babdd8829181900360200190a16104996108cd565b50505050565b6003546001600160a01b031681565b6104b782610917565b6104bf6109e4565b6001600160a01b0382166000908152600560205260409020546104e8908263ffffffff610a2f16565b6001600160a01b0380841660008181526005602052604090209290925560045461051b929116308463ffffffff610a9016565b5050565b6000546001600160a01b031690565b6000546001600160a01b0316331490565b600061054a82610917565b506001600160a01b031660009081526005602052604090205490565b6040518060400160405280600f81526020016e10dbdb1b14dd5c9c1b1d5cd41bdbdb608a1b81525081565b600061059c82610917565b506001600160a01b03918216600090815260066020908152604080832093909416825291909152205490565b6004546001600160a01b031681565b6002546001600160a01b031681565b6105ef81610917565b6105f7610aea565b6001600160a01b03808316600090815260066020908152604080832093851683529290522054806106595760405162461bcd60e51b8152600401808060200182810382526031815260200180610f386031913960400191505060405180910390fd5b6001600160a01b038084166000818152600660209081526040808320948716808452948252808320839055805194855290840191909152805191927f9e7e85157365034bbcd01bfc0bd32e8756a5c44dc5ef1ddf77ea28346be3ef51929081900390910190a26001600160a01b0382166000908152600560205260409020546106e8908263ffffffff610b3316565b6001600160a01b0380841660008181526005602090815260409182902094909455805191825291861692810192909252818101839052517fe664153eb516123e000bb334869ec912418f6fe4c1abb53fe2f848c947a8405d9181900360600190a16107636001600160a01b038316848363ffffffff610b7516565b505050565b61077182610917565b610779610bc7565b6001600160a01b0380841660009081526006602090815260408083209386168352929052908120546107b1908363ffffffff610a2f16565b6001600160a01b0380861660008181526006602090815260408083209489168084529482529182902085905581519384528301849052805193945090927f9e7e85157365034bbcd01bfc0bd32e8756a5c44dc5ef1ddf77ea28346be3ef519281900390910190a250505050565b6001600160a01b038116610879576040805162461bcd60e51b815260206004820152601e60248201527f4163636f756e742063616e6e6f74206265207a65726f20616464726573730000604482015290519081900360640190fd5b803b8061051b576040805162461bcd60e51b815260206004820181905260248201527f4163636f756e7420636f64652073697a652063616e6e6f74206265207a65726f604482015290519081900360640190fd5b600080546040516001600160a01b03909116907f8be0079c531659141344cd1fd0a4f28419497f9722a3daafe3b4186f6b6457e0908390a3600080546001600160a01b0319169055565b60015460408051630658339960e51b81526001600160a01b0384811660048301529151919092169163cb067320916024808301926020929190829003018186803b15801561096457600080fd5b505afa158015610978573d6000803e3d6000fd5b505050506040513d602081101561098e57600080fd5b50516109e1576040805162461bcd60e51b815260206004820152601a60248201527f496e76616c696420636f6c6c61746572616c2061646472657373000000000000604482015290519081900360640190fd5b50565b6004546001600160a01b03163314610a2d5760405162461bcd60e51b815260040180806020018281038252602a815260200180610f69602a913960400191505060405180910390fd5b565b600082820183811015610a89576040805162461bcd60e51b815260206004820152601b60248201527f536166654d6174683a206164646974696f6e206f766572666c6f770000000000604482015290519081900360640190fd5b9392505050565b604080516001600160a01b0380861660248301528416604482015260648082018490528251808303909101815260849091019091526020810180516001600160e01b03166323b872dd60e01b179052610499908590610c10565b6002546001600160a01b03163314610a2d5760405162461bcd60e51b8152600401808060200182810382526032815260200180610fe36032913960400191505060405180910390fd5b6000610a8983836040518060400160405280601e81526020017f536166654d6174683a207375627472616374696f6e206f766572666c6f770000815250610cc1565b604080516001600160a01b038416602482015260448082018490528251808303909101815260649091019091526020810180516001600160e01b031663a9059cbb60e01b179052610763908490610c10565b6003546001600160a01b03163314610a2d5760405162461bcd60e51b815260040180806020018281038252602b815260200180611015602b913960400191505060405180910390fd5b6060610c65826040518060400160405280602081526020017f5361666545524332303a206c6f772d6c6576656c2063616c6c206661696c6564815250856001600160a01b0316610d589092919063ffffffff16565b80519091501561076357808060200190516020811015610c8457600080fd5b50516107635760405162461bcd60e51b815260040180806020018281038252602a815260200180610fb9602a913960400191505060405180910390fd5b60008184841115610d505760405162461bcd60e51b81526004018080602001828103825283818151815260200191508051906020019080838360005b83811015610d15578181015183820152602001610cfd565b50505050905090810190601f168015610d425780820380516001836020036101000a031916815260200191505b509250505060405180910390fd5b505050900390565b6060610d678484600085610d6f565b949350505050565b606082471015610db05760405162461bcd60e51b8152600401808060200182810382526026815260200180610f936026913960400191505060405180910390fd5b610db985610ecb565b610e0a576040805162461bcd60e51b815260206004820152601d60248201527f416464726573733a2063616c6c20746f206e6f6e2d636f6e7472616374000000604482015290519081900360640190fd5b60006060866001600160a01b031685876040518082805190602001908083835b60208310610e495780518252601f199092019160209182019101610e2a565b6001836020036101000a03801982511681845116808217855250505050505090500191505060006040518083038185875af1925050503d8060008114610eab576040519150601f19603f3d011682016040523d82523d6000602084013e610eb0565b606091505b5091509150610ec0828286610ed1565b979650505050505050565b3b151590565b60608315610ee0575081610a89565b825115610ef05782518084602001fd5b60405162461bcd60e51b8152602060048201818152845160248401528451859391928392604401919085019080838360008315610d15578181015183820152602001610cfd56fe436f6c6c537572706c7573506f6f6c3a204e6f20636f6c6c61746572616c20617661696c61626c6520746f20636c61696d436f6c6c537572706c7573506f6f6c3a2043616c6c6572206973206e6f742041637469766520506f6f6c416464726573733a20696e73756666696369656e742062616c616e636520666f722063616c6c5361666545524332303a204552433230206f7065726174696f6e20646964206e6f742073756363656564436f6c6c537572706c7573506f6f6c3a2043616c6c6572206973206e6f7420426f72726f776572204f7065726174696f6e73436f6c6c537572706c7573506f6f6c3a2043616c6c6572206973206e6f742054726f76654d616e61676572a2646970667358221220c5d703e0ff680aebb6e201da4ff39ab36854725fa3a134d69dbdfcad4c8d1ab564736f6c634300060b0033",
  "linkReferences": {},
  "deployedLinkReferences": {}
}