{
  "_format": "hh-sol-artifact-1",
  "contractName": "LQTYStakingTester",
  "sourceName": "contracts/TestContracts/LQTYStakingTester.sol",
  "abi": [
    {
      "anonymous": false,
      "inputs": [
        {
          "indexed": false,
          "internalType": "address",
          "name": "_activePoolAddress",
          "type": "address"
        }
      ],
      "name": "ActivePoolAddressSet",
      "type": "event"
    },
    {
      "anonymous": false,
      "inputs": [
        {
          "indexed": false,
          "internalType": "address",
          "name": "_borrowerOperationsAddress",
          "type": "address"
        }
      ],
      "name": "BorrowerOperationsAddressSet",
      "type": "event"
    },
    {
      "anonymous": false,
      "inputs": [
        {
          "indexed": false,
          "internalType": "address",
          "name": "_collateralConfigAddress",
          "type": "address"
        }
      ],
      "name": "CollateralConfigAddressSet",
      "type": "event"
    },
    {
      "anonymous": false,
      "inputs": [
        {
          "indexed": false,
          "internalType": "address",
          "name": "_account",
          "type": "address"
        },
        {
          "indexed": false,
          "internalType": "address",
          "name": "_collateral",
          "type": "address"
        },
        {
          "indexed": false,
          "internalType": "uint256",
          "name": "_amount",
          "type": "uint256"
        }
      ],
      "name": "CollateralSent",
      "type": "event"
    },
    {
      "anonymous": false,
      "inputs": [
        {
          "indexed": false,
          "internalType": "address",
          "name": "_collateral",
          "type": "address"
        },
        {
          "indexed": false,
          "internalType": "uint256",
          "name": "_F_Collateral",
          "type": "uint256"
        }
      ],
      "name": "F_CollateralUpdated",
      "type": "event"
    },
    {
      "anonymous": false,
      "inputs": [
        {
          "indexed": false,
          "internalType": "uint256",
          "name": "_F_LUSD",
          "type": "uint256"
        }
      ],
      "name": "F_LUSDUpdated",
      "type": "event"
    },
    {
      "anonymous": false,
      "inputs": [
        {
          "indexed": false,
          "internalType": "address",
          "name": "_lqtyTokenAddress",
          "type": "address"
        }
      ],
      "name": "LQTYTokenAddressSet",
      "type": "event"
    },
    {
      "anonymous": false,
      "inputs": [
        {
          "indexed": false,
          "internalType": "address",
          "name": "_lusdTokenAddress",
          "type": "address"
        }
      ],
      "name": "LUSDTokenAddressSet",
      "type": "event"
    },
    {
      "anonymous": false,
      "inputs": [
        {
          "indexed": true,
          "internalType": "address",
          "name": "previousOwner",
          "type": "address"
        },
        {
          "indexed": true,
          "internalType": "address",
          "name": "newOwner",
          "type": "address"
        }
      ],
      "name": "OwnershipTransferred",
      "type": "event"
    },
    {
      "anonymous": false,
      "inputs": [
        {
          "indexed": true,
          "internalType": "address",
          "name": "staker",
          "type": "address"
        },
        {
          "indexed": false,
          "internalType": "uint256",
          "name": "newStake",
          "type": "uint256"
        }
      ],
      "name": "StakeChanged",
      "type": "event"
    },
    {
      "anonymous": false,
      "inputs": [
        {
          "indexed": false,
          "internalType": "address",
          "name": "_staker",
          "type": "address"
        },
        {
          "indexed": false,
          "internalType": "address[]",
          "name": "_assets",
          "type": "address[]"
        },
        {
          "indexed": false,
          "internalType": "uint256[]",
          "name": "_amounts",
          "type": "uint256[]"
        },
        {
          "indexed": false,
          "internalType": "uint256",
          "name": "_F_LUSD",
          "type": "uint256"
        }
      ],
      "name": "StakerSnapshotsUpdated",
      "type": "event"
    },
    {
      "anonymous": false,
      "inputs": [
        {
          "indexed": true,
          "internalType": "address",
          "name": "staker",
          "type": "address"
        },
        {
          "indexed": false,
          "internalType": "uint256",
          "name": "LUSDGain",
          "type": "uint256"
        },
        {
          "indexed": false,
          "internalType": "address[]",
          "name": "_assets",
          "type": "address[]"
        },
        {
          "indexed": false,
          "internalType": "uint256[]",
          "name": "_amounts",
          "type": "uint256[]"
        }
      ],
      "name": "StakingGainsWithdrawn",
      "type": "event"
    },
    {
      "anonymous": false,
      "inputs": [
        {
          "indexed": false,
          "internalType": "uint256",
          "name": "_totalLQTYStaked",
          "type": "uint256"
        }
      ],
      "name": "TotalLQTYStakedUpdated",
      "type": "event"
    },
    {
      "anonymous": false,
      "inputs": [
        {
          "indexed": false,
          "internalType": "address",
          "name": "_troveManager",
          "type": "address"
        }
      ],
      "name": "TroveManagerAddressSet",
      "type": "event"
    },
    {
      "inputs": [],
      "name": "DECIMAL_PRECISION",
      "outputs": [
        {
          "internalType": "uint256",
          "name": "",
          "type": "uint256"
        }
      ],
      "stateMutability": "view",
      "type": "function"
    },
    {
      "inputs": [
        {
          "internalType": "address",
          "name": "",
          "type": "address"
        }
      ],
      "name": "F_Collateral",
      "outputs": [
        {
          "internalType": "uint256",
          "name": "",
          "type": "uint256"
        }
      ],
      "stateMutability": "view",
      "type": "function"
    },
    {
      "inputs": [],
      "name": "F_LUSD",
      "outputs": [
        {
          "internalType": "uint256",
          "name": "",
          "type": "uint256"
        }
      ],
      "stateMutability": "view",
      "type": "function"
    },
    {
      "inputs": [],
      "name": "NAME",
      "outputs": [
        {
          "internalType": "string",
          "name": "",
          "type": "string"
        }
      ],
      "stateMutability": "view",
      "type": "function"
    },
    {
      "inputs": [],
      "name": "activePoolAddress",
      "outputs": [
        {
          "internalType": "address",
          "name": "",
          "type": "address"
        }
      ],
      "stateMutability": "view",
      "type": "function"
    },
    {
      "inputs": [],
      "name": "borrowerOperationsAddress",
      "outputs": [
        {
          "internalType": "address",
          "name": "",
          "type": "address"
        }
      ],
      "stateMutability": "view",
      "type": "function"
    },
    {
      "inputs": [],
      "name": "collateralConfig",
      "outputs": [
        {
          "internalType": "contract ICollateralConfig",
          "name": "",
          "type": "address"
        }
      ],
      "stateMutability": "view",
      "type": "function"
    },
    {
      "inputs": [
        {
          "internalType": "address",
          "name": "_user",
          "type": "address"
        }
      ],
      "name": "getPendingCollateralGain",
      "outputs": [
        {
          "internalType": "address[]",
          "name": "",
          "type": "address[]"
        },
        {
          "internalType": "uint256[]",
          "name": "",
          "type": "uint256[]"
        }
      ],
      "stateMutability": "view",
      "type": "function"
    },
    {
      "inputs": [
        {
          "internalType": "address",
          "name": "_user",
          "type": "address"
        }
      ],
      "name": "getPendingLUSDGain",
      "outputs": [
        {
          "internalType": "uint256",
          "name": "",
          "type": "uint256"
        }
      ],
      "stateMutability": "view",
      "type": "function"
    },
    {
      "inputs": [
        {
          "internalType": "address",
          "name": "_collateral",
          "type": "address"
        },
        {
          "internalType": "uint256",
          "name": "_collFee",
          "type": "uint256"
        }
      ],
      "name": "increaseF_Collateral",
      "outputs": [],
      "stateMutability": "nonpayable",
      "type": "function"
    },
    {
      "inputs": [
        {
          "internalType": "uint256",
          "name": "_LUSDFee",
          "type": "uint256"
        }
      ],
      "name": "increaseF_LUSD",
      "outputs": [],
      "stateMutability": "nonpayable",
      "type": "function"
    },
    {
      "inputs": [],
      "name": "isOwner",
      "outputs": [
        {
          "internalType": "bool",
          "name": "",
          "type": "bool"
        }
      ],
      "stateMutability": "view",
      "type": "function"
    },
    {
      "inputs": [],
      "name": "lqtyToken",
      "outputs": [
        {
          "internalType": "contract IERC20",
          "name": "",
          "type": "address"
        }
      ],
      "stateMutability": "view",
      "type": "function"
    },
    {
      "inputs": [],
      "name": "lusdToken",
      "outputs": [
        {
          "internalType": "contract ILUSDToken",
          "name": "",
          "type": "address"
        }
      ],
      "stateMutability": "view",
      "type": "function"
    },
    {
      "inputs": [],
      "name": "owner",
      "outputs": [
        {
          "internalType": "address",
          "name": "",
          "type": "address"
        }
      ],
      "stateMutability": "view",
      "type": "function"
    },
    {
      "inputs": [],
      "name": "requireCallerIsTroveManager",
      "outputs": [],
      "stateMutability": "view",
      "type": "function"
    },
    {
      "inputs": [
        {
          "internalType": "address",
          "name": "_lqtyTokenAddress",
          "type": "address"
        },
        {
          "internalType": "address",
          "name": "_lusdTokenAddress",
          "type": "address"
        },
        {
          "internalType": "address",
          "name": "_troveManagerAddress",
          "type": "address"
        },
        {
          "internalType": "address",
          "name": "_borrowerOperationsAddress",
          "type": "address"
        },
        {
          "internalType": "address",
          "name": "_activePoolAddress",
          "type": "address"
        },
        {
          "internalType": "address",
          "name": "_collateralConfigAddress",
          "type": "address"
        }
      ],
      "name": "setAddresses",
      "outputs": [],
      "stateMutability": "nonpayable",
      "type": "function"
    },
    {
      "inputs": [
        {
          "internalType": "address",
          "name": "",
          "type": "address"
        }
      ],
      "name": "snapshots",
      "outputs": [
        {
          "internalType": "uint256",
          "name": "F_LUSD_Snapshot",
          "type": "uint256"
        }
      ],
      "stateMutability": "view",
      "type": "function"
    },
    {
      "inputs": [
        {
          "internalType": "uint256",
          "name": "_LQTYamount",
          "type": "uint256"
        }
      ],
      "name": "stake",
      "outputs": [],
      "stateMutability": "nonpayable",
      "type": "function"
    },
    {
      "inputs": [
        {
          "internalType": "address",
          "name": "",
          "type": "address"
        }
      ],
      "name": "stakes",
      "outputs": [
        {
          "internalType": "uint256",
          "name": "",
          "type": "uint256"
        }
      ],
      "stateMutability": "view",
      "type": "function"
    },
    {
      "inputs": [],
      "name": "totalLQTYStaked",
      "outputs": [
        {
          "internalType": "uint256",
          "name": "",
          "type": "uint256"
        }
      ],
      "stateMutability": "view",
      "type": "function"
    },
    {
      "inputs": [],
      "name": "troveManagerAddress",
      "outputs": [
        {
          "internalType": "address",
          "name": "",
          "type": "address"
        }
      ],
      "stateMutability": "view",
      "type": "function"
    },
    {
      "inputs": [
        {
          "internalType": "uint256",
          "name": "_LQTYamount",
          "type": "uint256"
        }
      ],
      "name": "unstake",
      "outputs": [],
      "stateMutability": "nonpayable",
      "type": "function"
    }
  ],
  "bytecode": "0x608060405234801561001057600080fd5b50600080546001600160a01b0319163390811782556040519091907f8be0079c531659141344cd1fd0a4f28419497f9722a3daafe3b4186f6b6457e0908290a3611dbb8061005f6000396000f3fe608060405234801561001057600080fd5b506004361061014d5760003560e01c806378d4c2a8116100c3578063a694fc3a1161007c578063a694fc3a14610414578063b08bc72214610431578063b7f8cf9b14610439578063b83f91a214610441578063d66274bc14610449578063fd818ee8146104755761014d565b806378d4c2a8146102865780638da5cb5b146103455780638f32d59b1461034d5780639beab5c014610369578063a20baee61461038f578063a3f4df7e146103975761014d565b80633b95b91d116101155780633b95b91d146101fb5780634677ffb3146102035780635a4d28bb146102205780635c0ab4de1461022857806369b83185146102305780636cfb6bf9146102385761014d565b8063077ee4c61461015257806316934fc41461016c5780631f7af3c3146101925780632e17de78146101b657806334b3081f146101d5575b600080fd5b61015a61049b565b60408051918252519081900360200190f35b61015a6004803603602081101561018257600080fd5b50356001600160a01b03166104a1565b61019a6104b3565b604080516001600160a01b039092168252519081900360200190f35b6101d3600480360360208110156101cc57600080fd5b50356104c2565b005b61015a600480360360208110156101eb57600080fd5b50356001600160a01b031661073b565b6101d3610750565b6101d36004803603602081101561021957600080fd5b503561075a565b61019a6107e9565b61019a6107f8565b61015a610807565b6101d3600480360360c081101561024e57600080fd5b506001600160a01b038135811691602081013582169160408201358116916060810135821691608082013581169160a001351661080d565b6102ac6004803603602081101561029c57600080fd5b50356001600160a01b0316610a6c565b604051808060200180602001838103835285818151815260200191508051906020019060200280838360005b838110156102f05781810151838201526020016102d8565b50505050905001838103825284818151815260200191508051906020019060200280838360005b8381101561032f578181015183820152602001610317565b5050505090500194505050505060405180910390f35b61019a610a81565b610355610a90565b604080519115158252519081900360200190f35b61015a6004803603602081101561037f57600080fd5b50356001600160a01b0316610aa1565b61015a610ab2565b61039f610abe565b6040805160208082528351818301528351919283929083019185019080838360005b838110156103d95781810151838201526020016103c1565b50505050905090810190601f1680156104065780820380516001836020036101000a031916815260200191505b509250505060405180910390f35b6101d36004803603602081101561042a57600080fd5b5035610ae5565b61019a610d50565b61019a610d5f565b61019a610d6e565b6101d36004803603604081101561045f57600080fd5b506001600160a01b038135169060200135610d7d565b61015a6004803603602081101561048b57600080fd5b50356001600160a01b0316610e37565b60025481565b60016020526000908152604090205481565b6006546001600160a01b031681565b336000908152600160205260409020546104db81610e49565b6060806104e733610e8b565b9150915060006104f6336110ad565b90506105013361111d565b84156105dc57600061051386866113ed565b90506000610527868363ffffffff61140516565b33600090815260016020526040902081905560025490915061054f908363ffffffff61140516565b600281905560408051918252517f1fb085b6fe1998bfcd59bfb91fb9a84d3a3a8c63a97b2b5c43247235a5ca1df79181900360200190a16006546105a3906001600160a01b0316338463ffffffff61144716565b60408051828152905133917f39df0e5286a3ef2f42a0bf52f32cfe2c58e5b0405f47fe512f2c2439e4cfe204919081900360200190a250505b336001600160a01b03167f67525ef38a1634d5a4a22a31bb3e920f3fa7242d79288642c179412566c8fb55828585604051808481526020018060200180602001838103835285818151815260200191508051906020019060200280838360005b8381101561065457818101518382015260200161063c565b50505050905001838103825284818151815260200191508051906020019060200280838360005b8381101561069357818101518382015260200161067b565b505050509050019550505050505060405180910390a26007546040805163a9059cbb60e01b81523360048201526024810184905290516001600160a01b039092169163a9059cbb916044808201926020929091908290030181600087803b1580156106fd57600080fd5b505af1158015610711573d6000803e3d6000fd5b505050506040513d602081101561072757600080fd5b506107349050838361149e565b5050505050565b60056020526000908152604090206001015481565b61075861159d565b565b610762611682565b6002546000901561079b576002546107989061078c84670de0b6b3a764000063ffffffff6116cb16565b9063ffffffff61172416565b90505b6004546107ae908263ffffffff61176616565b600481905560408051918252517fdc043c079acfe2ef669592e1598aa8f95877fa0ba0e91d06c214a9f73d3521f99181900360200190a15050565b6009546001600160a01b031681565b6008546001600160a01b031681565b60045481565b610815610a90565b610866576040805162461bcd60e51b815260206004820181905260248201527f4f776e61626c653a2063616c6c6572206973206e6f7420746865206f776e6572604482015290519081900360640190fd5b61086f866117c0565b610878856117c0565b610881846117c0565b61088a836117c0565b610893826117c0565b61089c816117c0565b600680546001600160a01b038089166001600160a01b031992831681179093556007805489831690841617905560098054888316908416179055600a8054878316908416179055600b8054868316908416179055600880549185169190921617905560408051918252517fb0c89119a7c10e4c2d02306921ba368ac83d0e4b302337916017485c2791bec59181900360200190a1604080516001600160a01b038716815290517fb0c89119a7c10e4c2d02306921ba368ac83d0e4b302337916017485c2791bec59181900360200190a1604080516001600160a01b038616815290517f41097dcc1f7cbd663d822443d7972f05b04f71918b30fe9fc59dd6e42e2280609181900360200190a1604080516001600160a01b038516815290517f5962f8af633c4df1ab230096f773a514ee5adf7785c621ecdcdb764cb7f6e3919181900360200190a1604080516001600160a01b038416815290517f8f6a6e7d20a3233e0a79883272259ffbd7a243734e397bc2b4642c79d7fa8a6d9181900360200190a1604080516001600160a01b038316815290517f0a5694417c1f07f0d2b71f1e15ba91ecffe680779b0c0734cb9bf22d4b9082209181900360200190a1610a64611873565b505050505050565b606080610a7883610e8b565b91509150915091565b6000546001600160a01b031690565b6000546001600160a01b0316331490565b6000610aac826110ad565b92915050565b670de0b6b3a764000081565b6040518060400160405280600b81526020016a4c5154595374616b696e6760a81b81525081565b610aee816118bd565b336000908152600160205260408120549060609081908315610b2457610b1333610e8b565b9093509150610b21336110ad565b90505b610b2d3361111d565b6000610b3f858763ffffffff61176616565b336000908152600160205260409020819055600254909150610b67908763ffffffff61176616565b600281905560408051918252517f1fb085b6fe1998bfcd59bfb91fb9a84d3a3a8c63a97b2b5c43247235a5ca1df79181900360200190a1600654610bbc906001600160a01b031633308963ffffffff6118fc16565b60408051828152905133917f39df0e5286a3ef2f42a0bf52f32cfe2c58e5b0405f47fe512f2c2439e4cfe204919081900360200190a2336001600160a01b03167f67525ef38a1634d5a4a22a31bb3e920f3fa7242d79288642c179412566c8fb55838686604051808481526020018060200180602001838103835285818151815260200191508051906020019060200280838360005b83811015610c6a578181015183820152602001610c52565b50505050905001838103825284818151815260200191508051906020019060200280838360005b83811015610ca9578181015183820152602001610c91565b505050509050019550505050505060405180910390a28415610a64576007546040805163a9059cbb60e01b81523360048201526024810185905290516001600160a01b039092169163a9059cbb916044808201926020929091908290030181600087803b158015610d1957600080fd5b505af1158015610d2d573d6000803e3d6000fd5b505050506040513d6020811015610d4357600080fd5b50610a649050848461149e565b600b546001600160a01b031681565b600a546001600160a01b031681565b6007546001600160a01b031681565b610d8561159d565b60025460009015610db257600254610daf9061078c84670de0b6b3a764000063ffffffff6116cb16565b90505b6001600160a01b038316600090815260036020526040902054610ddb908263ffffffff61176616565b6001600160a01b038416600081815260036020908152604091829020849055815192835282019290925281517f4929b952e33d25db6acab6bb6faed28295fbc1f426e9efd4866597f62237f8f6929181900390910190a1505050565b60036020526000908152604090205481565b60008111610e885760405162461bcd60e51b815260040180806020018281038252602c815260200180611ce9602c913960400191505060405180910390fd5b50565b606080600860009054906101000a90046001600160a01b03166001600160a01b031663b2604ecf6040518163ffffffff1660e01b815260040160006040518083038186803b158015610edc57600080fd5b505afa158015610ef0573d6000803e3d6000fd5b505050506040513d6000823e601f3d908101601f191682016040526020811015610f1957600080fd5b8101908080516040519392919084600160201b821115610f3857600080fd5b908301906020820185811115610f4d57600080fd5b82518660208202830111600160201b82111715610f6957600080fd5b82525081516020918201928201910280838360005b83811015610f96578181015183820152602001610f7e565b505050509050016040525050509150815167ffffffffffffffff81118015610fbd57600080fd5b50604051908082528060200260200182016040528015610fe7578160200160208202803683370190505b50905060005b82518110156110a757600083828151811061100457fe5b6020908102919091018101516001600160a01b0380881660009081526005845260408082209284168252918452818120546003909452205490925061108690670de0b6b3a76400009061078c90611061908563ffffffff61140516565b6001600160a01b038a166000908152600160205260409020549063ffffffff6116cb16565b84848151811061109257fe5b60209081029190910101525050600101610fed565b50915091565b6001600160a01b038116600090815260056020526040812060010154600454829061111590670de0b6b3a76400009061078c906110f0908663ffffffff61140516565b6001600160a01b0388166000908152600160205260409020549063ffffffff6116cb16565b949350505050565b6008546040805163b2604ecf60e01b815290516060926001600160a01b03169163b2604ecf916004808301926000929190829003018186803b15801561116257600080fd5b505afa158015611176573d6000803e3d6000fd5b505050506040513d6000823e601f3d908101601f19168201604052602081101561119f57600080fd5b8101908080516040519392919084600160201b8211156111be57600080fd5b9083019060208201858111156111d357600080fd5b82518660208202830111600160201b821117156111ef57600080fd5b82525081516020918201928201910280838360005b8381101561121c578181015183820152602001611204565b5050505090500160405250505090506060815167ffffffffffffffff8111801561124557600080fd5b5060405190808252806020026020018201604052801561126f578160200160208202803683370190505b50905060005b82518110156112f357600083828151811061128c57fe5b6020908102919091018101516001600160a01b0380821660008181526003808652604080832054948c1683526005875280832093835292865291902082905590925284519092508490849081106112df57fe5b602090810291909101015250600101611275565b506004546001600160a01b0384166000818152600560209081526040808320600101859055805193845260608401859052608084830181815288519186019190915287517f8339cbfd8819837a2364e53188d45c3dbc080e623a70bf0513ab917438a1a325958a958a958a958a9593949085019260a08601928981019202908190849084905b83811015611391578181015183820152602001611379565b50505050905001838103825285818151815260200191508051906020019060200280838360005b838110156113d05781810151838201526020016113b8565b50505050905001965050505050505060405180910390a150505050565b60008183106113fc57816113fe565b825b9392505050565b60006113fe83836040518060400160405280601e81526020017f536166654d6174683a207375627472616374696f6e206f766572666c6f770000815250611956565b604080516001600160a01b038416602482015260448082018490528251808303909101815260649091019091526020810180516001600160e01b031663a9059cbb60e01b1790526114999084906119ed565b505050565b815160005b81811015611597578281815181106114b757fe5b602002602001015160001461158f5760008482815181106114d457fe5b602002602001015190507fe664153eb516123e000bb334869ec912418f6fe4c1abb53fe2f848c947a8405d338286858151811061150d57fe5b602002602001015160405180846001600160a01b03166001600160a01b03168152602001836001600160a01b03166001600160a01b03168152602001828152602001935050505060405180910390a161158d3385848151811061156c57fe5b6020026020010151836001600160a01b03166114479092919063ffffffff16565b505b6001016114a3565b50505050565b6009546040805163aff5917f60e01b815290516000926001600160a01b03169163aff5917f916004808301926020929190829003018186803b1580156115e257600080fd5b505afa1580156115f6573d6000803e3d6000fd5b505050506040513d602081101561160c57600080fd5b50516009549091506001600160a01b03163314806116325750336001600160a01b038216145b806116475750600b546001600160a01b031633145b610e885760405162461bcd60e51b815260040180806020018281038252602f815260200180611cba602f913960400191505060405180910390fd5b600a546001600160a01b031633146107585760405162461bcd60e51b8152600401808060200182810382526026815260200180611d156026913960400191505060405180910390fd5b6000826116da57506000610aac565b828202828482816116e757fe5b04146113fe5760405162461bcd60e51b8152600401808060200182810382526021815260200180611d3b6021913960400191505060405180910390fd5b60006113fe83836040518060400160405280601a81526020017f536166654d6174683a206469766973696f6e206279207a65726f000000000000815250611a9e565b6000828201838110156113fe576040805162461bcd60e51b815260206004820152601b60248201527f536166654d6174683a206164646974696f6e206f766572666c6f770000000000604482015290519081900360640190fd5b6001600160a01b03811661181b576040805162461bcd60e51b815260206004820152601e60248201527f4163636f756e742063616e6e6f74206265207a65726f20616464726573730000604482015290519081900360640190fd5b803b8061186f576040805162461bcd60e51b815260206004820181905260248201527f4163636f756e7420636f64652073697a652063616e6e6f74206265207a65726f604482015290519081900360640190fd5b5050565b600080546040516001600160a01b03909116907f8be0079c531659141344cd1fd0a4f28419497f9722a3daafe3b4186f6b6457e0908390a3600080546001600160a01b0319169055565b60008111610e885760405162461bcd60e51b8152600401808060200182810382526024815260200180611c966024913960400191505060405180910390fd5b604080516001600160a01b0380861660248301528416604482015260648082018490528251808303909101815260849091019091526020810180516001600160e01b03166323b872dd60e01b1790526115979085906119ed565b600081848411156119e55760405162461bcd60e51b81526004018080602001828103825283818151815260200191508051906020019080838360005b838110156119aa578181015183820152602001611992565b50505050905090810190601f1680156119d75780820380516001836020036101000a031916815260200191505b509250505060405180910390fd5b505050900390565b6060611a42826040518060400160405280602081526020017f5361666545524332303a206c6f772d6c6576656c2063616c6c206661696c6564815250856001600160a01b0316611b039092919063ffffffff16565b80519091501561149957808060200190516020811015611a6157600080fd5b50516114995760405162461bcd60e51b815260040180806020018281038252602a815260200180611d5c602a913960400191505060405180910390fd5b60008183611aed5760405162461bcd60e51b81526020600482018181528351602484015283519092839260449091019190850190808383600083156119aa578181015183820152602001611992565b506000838581611af957fe5b0495945050505050565b6060611115848460008585611b1785611c29565b611b68576040805162461bcd60e51b815260206004820152601d60248201527f416464726573733a2063616c6c20746f206e6f6e2d636f6e7472616374000000604482015290519081900360640190fd5b60006060866001600160a01b031685876040518082805190602001908083835b60208310611ba75780518252601f199092019160209182019101611b88565b6001836020036101000a03801982511681845116808217855250505050505090500191505060006040518083038185875af1925050503d8060008114611c09576040519150601f19603f3d011682016040523d82523d6000602084013e611c0e565b606091505b5091509150611c1e828286611c2f565b979650505050505050565b3b151590565b60608315611c3e5750816113fe565b825115611c4e5782518084602001fd5b60405162461bcd60e51b81526020600482018181528451602484015284518593919283926044019190850190808383600083156119aa57818101518382015260200161199256fe4c5154595374616b696e673a20416d6f756e74206d757374206265206e6f6e2d7a65726f4c5154595374616b696e673a2063616c6c6572206973206e6f742054726f76654d206f7220416374697665506f6f6c4c5154595374616b696e673a2055736572206d75737420686176652061206e6f6e2d7a65726f207374616b654c5154595374616b696e673a2063616c6c6572206973206e6f7420426f72726f7765724f7073536166654d6174683a206d756c7469706c69636174696f6e206f766572666c6f775361666545524332303a204552433230206f7065726174696f6e20646964206e6f742073756363656564a264697066735822122021bd546ede0abedff3d0f64a7f7a14993c4960955c968afd2d2383fda69e18a664736f6c634300060b0033",
  "linkReferences": {},
  "deployedLinkReferences": {}
}