{
  "_format": "hh-sol-artifact-1",
  "contractName": "CommunityIssuanceTester",
  "sourceName": "contracts/TestContracts/CommunityIssuanceTester.sol",
  "abi": [
    {
      "anonymous": false,
      "inputs": [
        {
          "indexed": false,
          "internalType": "uint256",
          "name": "_rewardPerSecond",
          "type": "uint256"
        }
      ],
      "name": "LogRewardPerSecond",
      "type": "event"
    },
    {
      "anonymous": false,
      "inputs": [
        {
          "indexed": false,
          "internalType": "address",
          "name": "_lqtyTokenAddress",
          "type": "address"
        }
      ],
      "name": "OATHTokenAddressSet",
      "type": "event"
    },
    {
      "anonymous": false,
      "inputs": [
        {
          "indexed": false,
          "internalType": "address",
          "name": "_oathTokenAddress",
          "type": "address"
        }
      ],
      "name": "OathTokenAddressSet",
      "type": "event"
    },
    {
      "anonymous": false,
      "inputs": [
        {
          "indexed": true,
          "internalType": "address",
          "name": "previousOwner",
          "type": "address"
        },
        {
          "indexed": true,
          "internalType": "address",
          "name": "newOwner",
          "type": "address"
        }
      ],
      "name": "OwnershipTransferred",
      "type": "event"
    },
    {
      "anonymous": false,
      "inputs": [
        {
          "indexed": false,
          "internalType": "address",
          "name": "_stabilityPoolAddress",
          "type": "address"
        }
      ],
      "name": "StabilityPoolAddressSet",
      "type": "event"
    },
    {
      "anonymous": false,
      "inputs": [
        {
          "indexed": false,
          "internalType": "uint256",
          "name": "_totalOATHIssued",
          "type": "uint256"
        }
      ],
      "name": "TotalOATHIssuedUpdated",
      "type": "event"
    },
    {
      "anonymous": false,
      "inputs": [
        {
          "indexed": false,
          "internalType": "uint256",
          "name": "_totalLQTYIssued",
          "type": "uint256"
        }
      ],
      "name": "TotalOathIssuedUpdated",
      "type": "event"
    },
    {
      "inputs": [],
      "name": "DECIMAL_PRECISION",
      "outputs": [
        {
          "internalType": "uint256",
          "name": "",
          "type": "uint256"
        }
      ],
      "stateMutability": "view",
      "type": "function"
    },
    {
      "inputs": [],
      "name": "NAME",
      "outputs": [
        {
          "internalType": "string",
          "name": "",
          "type": "string"
        }
      ],
      "stateMutability": "view",
      "type": "function"
    },
    {
      "inputs": [],
      "name": "OathToken",
      "outputs": [
        {
          "internalType": "contract IERC20",
          "name": "",
          "type": "address"
        }
      ],
      "stateMutability": "view",
      "type": "function"
    },
    {
      "inputs": [],
      "name": "distributionPeriod",
      "outputs": [
        {
          "internalType": "uint256",
          "name": "",
          "type": "uint256"
        }
      ],
      "stateMutability": "view",
      "type": "function"
    },
    {
      "inputs": [
        {
          "internalType": "uint256",
          "name": "amount",
          "type": "uint256"
        }
      ],
      "name": "fund",
      "outputs": [],
      "stateMutability": "nonpayable",
      "type": "function"
    },
    {
      "inputs": [],
      "name": "initialized",
      "outputs": [
        {
          "internalType": "bool",
          "name": "",
          "type": "bool"
        }
      ],
      "stateMutability": "view",
      "type": "function"
    },
    {
      "inputs": [],
      "name": "isOwner",
      "outputs": [
        {
          "internalType": "bool",
          "name": "",
          "type": "bool"
        }
      ],
      "stateMutability": "view",
      "type": "function"
    },
    {
      "inputs": [],
      "name": "issueOath",
      "outputs": [
        {
          "internalType": "uint256",
          "name": "issuance",
          "type": "uint256"
        }
      ],
      "stateMutability": "nonpayable",
      "type": "function"
    },
    {
      "inputs": [],
      "name": "lastDistributionTime",
      "outputs": [
        {
          "internalType": "uint256",
          "name": "",
          "type": "uint256"
        }
      ],
      "stateMutability": "view",
      "type": "function"
    },
    {
      "inputs": [],
      "name": "lastIssuanceTimestamp",
      "outputs": [
        {
          "internalType": "uint256",
          "name": "",
          "type": "uint256"
        }
      ],
      "stateMutability": "view",
      "type": "function"
    },
    {
      "inputs": [],
      "name": "owner",
      "outputs": [
        {
          "internalType": "address",
          "name": "",
          "type": "address"
        }
      ],
      "stateMutability": "view",
      "type": "function"
    },
    {
      "inputs": [],
      "name": "rewardPerSecond",
      "outputs": [
        {
          "internalType": "uint256",
          "name": "",
          "type": "uint256"
        }
      ],
      "stateMutability": "view",
      "type": "function"
    },
    {
      "inputs": [
        {
          "internalType": "address",
          "name": "_account",
          "type": "address"
        },
        {
          "internalType": "uint256",
          "name": "_OathAmount",
          "type": "uint256"
        }
      ],
      "name": "sendOath",
      "outputs": [],
      "stateMutability": "nonpayable",
      "type": "function"
    },
    {
      "inputs": [
        {
          "internalType": "address",
          "name": "_oathTokenAddress",
          "type": "address"
        },
        {
          "internalType": "address",
          "name": "_stabilityPoolAddress",
          "type": "address"
        }
      ],
      "name": "setAddresses",
      "outputs": [],
      "stateMutability": "nonpayable",
      "type": "function"
    },
    {
      "inputs": [],
      "name": "stabilityPoolAddress",
      "outputs": [
        {
          "internalType": "address",
          "name": "",
          "type": "address"
        }
      ],
      "stateMutability": "view",
      "type": "function"
    },
    {
      "inputs": [],
      "name": "totalOATHIssued",
      "outputs": [
        {
          "internalType": "uint256",
          "name": "",
          "type": "uint256"
        }
      ],
      "stateMutability": "view",
      "type": "function"
    },
    {
      "inputs": [],
      "name": "unprotectedIssueLQTY",
      "outputs": [
        {
          "internalType": "uint256",
          "name": "issuance",
          "type": "uint256"
        }
      ],
      "stateMutability": "nonpayable",
      "type": "function"
    },
    {
      "inputs": [
        {
          "internalType": "uint256",
          "name": "_newDistributionPeriod",
          "type": "uint256"
        }
      ],
      "name": "updateDistributionPeriod",
      "outputs": [],
      "stateMutability": "nonpayable",
      "type": "function"
    }
  ],
  "bytecode": "0x60806040526000805460ff60a01b1916905534801561001d57600080fd5b50600080546001600160a01b0319163390811782556040519091907f8be0079c531659141344cd1fd0a4f28419497f9722a3daafe3b4186f6b6457e0908290a362127500600555610c6d806100736000396000f3fe608060405234801561001057600080fd5b50600436106100f65760003560e01c80638f32d59b116100925780638f32d59b1461019c57806390107afe146101a45780639b501723146101d2578063a20baee6146101da578063a3f4df7e146101e2578063a7deedff1461025f578063b356366614610267578063ca1d209d1461026f578063de622bf01461028c576100f6565b80630b622ab2146100fb578063158ef93e1461011f578063281020471461013b57806343e0a60b14610155578063577fbd5f1461015d57806375b173501461017c5780637f97a152146101845780638da5cb5b1461018c5780638f10369a14610194575b600080fd5b6101036102b8565b604080516001600160a01b039092168252519081900360200190f35b6101276102c7565b604080519115158252519081900360200190f35b6101436102d7565b60408051918252519081900360200190f35b61014361038a565b61017a6004803603602081101561017357600080fd5b5035610400565b005b61014361044c565b610103610452565b610103610461565b610143610470565b610127610476565b61017a600480360360408110156101ba57600080fd5b506001600160a01b0381358116916020013516610487565b6101436105f2565b6101436105f8565b6101ea610604565b6040805160208082528351818301528351919283929083019185019080838360005b8381101561022457818101518382015260200161020c565b50505050905090810190601f1680156102515780820380516001836020036101000a031916815260200191505b509250505060405180910390f35b610143610631565b610143610637565b61017a6004803603602081101561028557600080fd5b503561063d565b61017a600480360360408110156102a257600080fd5b506001600160a01b03813516906020013561080b565b6002546001600160a01b031681565b600054600160a01b900460ff1681565b60006102e1610899565b600454600754101561034e57600060045442116102fe5742610302565b6004545b9050600061031b600754836108e490919063ffffffff16565b90506103326006548261092f90919063ffffffff16565b600354909350610348908463ffffffff61098816565b60035550505b4260075560035460408051918252517fc204cbc6681139cf84bba435597230df9af08a2f5cffe17ff15574867b9c12ab9181900360200190a190565b600060045460075410156103f957600060045442116103a957426103ad565b6004545b905060006103c6600754836108e490919063ffffffff16565b90506103dd6006548261092f90919063ffffffff16565b6003549093506103f3908463ffffffff61098816565b60035550505b4260075590565b610408610476565b610447576040805162461bcd60e51b81526020600482018190526024820152600080516020610bf5833981519152604482015290519081900360640190fd5b600555565b60045481565b6001546001600160a01b031681565b6000546001600160a01b031690565b60065481565b6000546001600160a01b0316331490565b61048f610476565b6104ce576040805162461bcd60e51b81526020600482018190526024820152600080516020610bf5833981519152604482015290519081900360640190fd5b600054600160a01b900460ff161561052d576040805162461bcd60e51b815260206004820152601d60248201527f69737375616e636520686173206265656e20696e697469616c697a6564000000604482015290519081900360640190fd5b610536826109e2565b61053f816109e2565b600180546001600160a01b038085166001600160a01b0319928316811790935560028054918516919092161790556000805460ff60a01b1916600160a01b17905560408051918252517f4c0854166fc3ff644c3b06fdcbeedd52f6875c8719245e6154059605363e00219181900360200190a1604080516001600160a01b038316815290517f45c53611bc8ba9e11f4f8173bda9e3faf89c395ddb83f9a55230b156828db3159181900360200190a15050565b60055481565b670de0b6b3a764000081565b60405180604001604052806011815260200170436f6d6d756e69747949737375616e636560781b81525081565b60035481565b60075481565b610645610476565b610684576040805162461bcd60e51b81526020600482018190526024820152600080516020610bf5833981519152604482015290519081900360640190fd5b806106c6576040805162461bcd60e51b815260206004820152600d60248201526c063616e6e6f742066756e64203609c1b604482015290519081900360640190fd5b600154604080516323b872dd60e01b81523360048201523060248201526044810184905290516001600160a01b03909216916323b872dd916064808201926020929091908290030181600087803b15801561072057600080fd5b505af1158015610734573d6000803e3d6000fd5b505050506040513d602081101561074a57600080fd5b505060045460075410156107a15760006107716007546004546108e490919063ffffffff16565b9050600061078a6006548361092f90919063ffffffff16565b905061079c838263ffffffff61098816565b925050505b6005546107b590829063ffffffff610a9516565b6006556005546107cc90429063ffffffff61098816565b6004554260075560065460408051918252517fde89cb17ac7f58f94792b3e91e086ed85403819c24ceea882491f960ccb1a2789181900360200190a150565b610813610899565b6001546040805163a9059cbb60e01b81526001600160a01b038581166004830152602482018590529151919092169163a9059cbb9160448083019260209291908290030181600087803b15801561086957600080fd5b505af115801561087d573d6000803e3d6000fd5b505050506040513d602081101561089357600080fd5b50505050565b6002546001600160a01b031633146108e25760405162461bcd60e51b8152600401808060200182810382526023815260200180610c156023913960400191505060405180910390fd5b565b600061092683836040518060400160405280601e81526020017f536166654d6174683a207375627472616374696f6e206f766572666c6f770000815250610ad7565b90505b92915050565b60008261093e57506000610929565b8282028284828161094b57fe5b04146109265760405162461bcd60e51b8152600401808060200182810382526021815260200180610bd46021913960400191505060405180910390fd5b600082820183811015610926576040805162461bcd60e51b815260206004820152601b60248201527f536166654d6174683a206164646974696f6e206f766572666c6f770000000000604482015290519081900360640190fd5b6001600160a01b038116610a3d576040805162461bcd60e51b815260206004820152601e60248201527f4163636f756e742063616e6e6f74206265207a65726f20616464726573730000604482015290519081900360640190fd5b803b80610a91576040805162461bcd60e51b815260206004820181905260248201527f4163636f756e7420636f64652073697a652063616e6e6f74206265207a65726f604482015290519081900360640190fd5b5050565b600061092683836040518060400160405280601a81526020017f536166654d6174683a206469766973696f6e206279207a65726f000000000000815250610b6e565b60008184841115610b665760405162461bcd60e51b81526004018080602001828103825283818151815260200191508051906020019080838360005b83811015610b2b578181015183820152602001610b13565b50505050905090810190601f168015610b585780820380516001836020036101000a031916815260200191505b509250505060405180910390fd5b505050900390565b60008183610bbd5760405162461bcd60e51b8152602060048201818152835160248401528351909283926044909101919085019080838360008315610b2b578181015183820152602001610b13565b506000838581610bc957fe5b049594505050505056fe536166654d6174683a206d756c7469706c69636174696f6e206f766572666c6f774f776e61626c653a2063616c6c6572206973206e6f7420746865206f776e6572436f6d6d756e69747949737375616e63653a2063616c6c6572206973206e6f74205350a26469706673582212206900fd8c3b19b6d6538390c948051a05ea97b0594ddb9ac89a0b453f88e53b2664736f6c634300060b0033",
  "linkReferences": {},
  "deployedLinkReferences": {}
}