{
  "_format": "hh-sol-artifact-1",
  "contractName": "ActivePool",
  "sourceName": "contracts/ActivePool.sol",
  "abi": [
    {
      "anonymous": false,
      "inputs": [
        {
          "indexed": false,
          "internalType": "address",
          "name": "_newActivePoolAddress",
          "type": "address"
        }
      ],
      "name": "ActivePoolAddressChanged",
      "type": "event"
    },
    {
      "anonymous": false,
      "inputs": [
        {
          "indexed": false,
          "internalType": "address",
          "name": "_collateral",
          "type": "address"
        },
        {
          "indexed": false,
          "internalType": "uint256",
          "name": "_amount",
          "type": "uint256"
        }
      ],
      "name": "ActivePoolCollateralBalanceUpdated",
      "type": "event"
    },
    {
      "anonymous": false,
      "inputs": [
        {
          "indexed": false,
          "internalType": "address",
          "name": "_collateral",
          "type": "address"
        },
        {
          "indexed": false,
          "internalType": "uint256",
          "name": "_LUSDDebt",
          "type": "uint256"
        }
      ],
      "name": "ActivePoolLUSDDebtUpdated",
      "type": "event"
    },
    {
      "anonymous": false,
      "inputs": [
        {
          "indexed": false,
          "internalType": "address",
          "name": "_newBorrowerOperationsAddress",
          "type": "address"
        }
      ],
      "name": "BorrowerOperationsAddressChanged",
      "type": "event"
    },
    {
      "anonymous": false,
      "inputs": [
        {
          "indexed": false,
          "internalType": "address",
          "name": "_collSurplusPoolAddress",
          "type": "address"
        }
      ],
      "name": "CollSurplusPoolAddressChanged",
      "type": "event"
    },
    {
      "anonymous": false,
      "inputs": [
        {
          "indexed": false,
          "internalType": "address",
          "name": "_newCollateralConfigAddress",
          "type": "address"
        }
      ],
      "name": "CollateralConfigAddressChanged",
      "type": "event"
    },
    {
      "anonymous": false,
      "inputs": [
        {
          "indexed": false,
          "internalType": "address",
          "name": "_collateral",
          "type": "address"
        },
        {
          "indexed": false,
          "internalType": "address",
          "name": "_to",
          "type": "address"
        },
        {
          "indexed": false,
          "internalType": "uint256",
          "name": "_amount",
          "type": "uint256"
        }
      ],
      "name": "CollateralSent",
      "type": "event"
    },
    {
      "anonymous": false,
      "inputs": [
        {
          "indexed": false,
          "internalType": "address",
          "name": "_newDefaultPoolAddress",
          "type": "address"
        }
      ],
      "name": "DefaultPoolAddressChanged",
      "type": "event"
    },
    {
      "anonymous": false,
      "inputs": [
        {
          "indexed": true,
          "internalType": "address",
          "name": "previousOwner",
          "type": "address"
        },
        {
          "indexed": true,
          "internalType": "address",
          "name": "newOwner",
          "type": "address"
        }
      ],
      "name": "OwnershipTransferred",
      "type": "event"
    },
    {
      "anonymous": false,
      "inputs": [
        {
          "indexed": false,
          "internalType": "address",
          "name": "_newStabilityPoolAddress",
          "type": "address"
        }
      ],
      "name": "StabilityPoolAddressChanged",
      "type": "event"
    },
    {
      "anonymous": false,
      "inputs": [
        {
          "indexed": false,
          "internalType": "address",
          "name": "_newTroveManagerAddress",
          "type": "address"
        }
      ],
      "name": "TroveManagerAddressChanged",
      "type": "event"
    },
    {
      "anonymous": false,
      "inputs": [
        {
          "indexed": false,
          "internalType": "address",
          "name": "_collateral",
          "type": "address"
        },
        {
          "indexed": false,
          "internalType": "uint256",
          "name": "_threshold",
          "type": "uint256"
        }
      ],
      "name": "YieldClaimThresholdUpdated",
      "type": "event"
    },
    {
      "anonymous": false,
      "inputs": [
        {
          "indexed": false,
          "internalType": "uint256",
          "name": "_treasurySplit",
          "type": "uint256"
        },
        {
          "indexed": false,
          "internalType": "uint256",
          "name": "_SPSplit",
          "type": "uint256"
        },
        {
          "indexed": false,
          "internalType": "uint256",
          "name": "_stakingSplit",
          "type": "uint256"
        }
      ],
      "name": "YieldDistributionParamsUpdated",
      "type": "event"
    },
    {
      "anonymous": false,
      "inputs": [
        {
          "indexed": false,
          "internalType": "uint256",
          "name": "_driftBps",
          "type": "uint256"
        }
      ],
      "name": "YieldingPercentageDriftUpdated",
      "type": "event"
    },
    {
      "anonymous": false,
      "inputs": [
        {
          "indexed": false,
          "internalType": "address",
          "name": "_collateral",
          "type": "address"
        },
        {
          "indexed": false,
          "internalType": "uint256",
          "name": "_bps",
          "type": "uint256"
        }
      ],
      "name": "YieldingPercentageUpdated",
      "type": "event"
    },
    {
      "inputs": [],
      "name": "NAME",
      "outputs": [
        {
          "internalType": "string",
          "name": "",
          "type": "string"
        }
      ],
      "stateMutability": "view",
      "type": "function"
    },
    {
      "inputs": [],
      "name": "addressesSet",
      "outputs": [
        {
          "internalType": "bool",
          "name": "",
          "type": "bool"
        }
      ],
      "stateMutability": "view",
      "type": "function"
    },
    {
      "inputs": [],
      "name": "borrowerOperationsAddress",
      "outputs": [
        {
          "internalType": "address",
          "name": "",
          "type": "address"
        }
      ],
      "stateMutability": "view",
      "type": "function"
    },
    {
      "inputs": [],
      "name": "collSurplusPoolAddress",
      "outputs": [
        {
          "internalType": "address",
          "name": "",
          "type": "address"
        }
      ],
      "stateMutability": "view",
      "type": "function"
    },
    {
      "inputs": [],
      "name": "collateralConfigAddress",
      "outputs": [
        {
          "internalType": "address",
          "name": "",
          "type": "address"
        }
      ],
      "stateMutability": "view",
      "type": "function"
    },
    {
      "inputs": [
        {
          "internalType": "address",
          "name": "_collateral",
          "type": "address"
        },
        {
          "internalType": "uint256",
          "name": "_amount",
          "type": "uint256"
        }
      ],
      "name": "decreaseLUSDDebt",
      "outputs": [],
      "stateMutability": "nonpayable",
      "type": "function"
    },
    {
      "inputs": [],
      "name": "defaultPoolAddress",
      "outputs": [
        {
          "internalType": "address",
          "name": "",
          "type": "address"
        }
      ],
      "stateMutability": "view",
      "type": "function"
    },
    {
      "inputs": [
        {
          "internalType": "address",
          "name": "_collateral",
          "type": "address"
        }
      ],
      "name": "getCollateral",
      "outputs": [
        {
          "internalType": "uint256",
          "name": "",
          "type": "uint256"
        }
      ],
      "stateMutability": "view",
      "type": "function"
    },
    {
      "inputs": [
        {
          "internalType": "address",
          "name": "_collateral",
          "type": "address"
        }
      ],
      "name": "getLUSDDebt",
      "outputs": [
        {
          "internalType": "uint256",
          "name": "",
          "type": "uint256"
        }
      ],
      "stateMutability": "view",
      "type": "function"
    },
    {
      "inputs": [
        {
          "internalType": "address",
          "name": "_collateral",
          "type": "address"
        },
        {
          "internalType": "uint256",
          "name": "_amount",
          "type": "uint256"
        }
      ],
      "name": "increaseLUSDDebt",
      "outputs": [],
      "stateMutability": "nonpayable",
      "type": "function"
    },
    {
      "inputs": [],
      "name": "isOwner",
      "outputs": [
        {
          "internalType": "bool",
          "name": "",
          "type": "bool"
        }
      ],
      "stateMutability": "view",
      "type": "function"
    },
    {
      "inputs": [],
      "name": "lqtyStakingAddress",
      "outputs": [
        {
          "internalType": "address",
          "name": "",
          "type": "address"
        }
      ],
      "stateMutability": "view",
      "type": "function"
    },
    {
      "inputs": [
        {
          "internalType": "address",
          "name": "_collateral",
          "type": "address"
        },
        {
          "internalType": "uint256",
          "name": "_simulatedAmountLeavingPool",
          "type": "uint256"
        }
      ],
      "name": "manualRebalance",
      "outputs": [],
      "stateMutability": "nonpayable",
      "type": "function"
    },
    {
      "inputs": [],
      "name": "owner",
      "outputs": [
        {
          "internalType": "address",
          "name": "",
          "type": "address"
        }
      ],
      "stateMutability": "view",
      "type": "function"
    },
    {
      "inputs": [
        {
          "internalType": "address",
          "name": "_collateral",
          "type": "address"
        },
        {
          "internalType": "uint256",
          "name": "_amount",
          "type": "uint256"
        }
      ],
      "name": "pullCollateralFromBorrowerOperationsOrDefaultPool",
      "outputs": [],
      "stateMutability": "nonpayable",
      "type": "function"
    },
    {
      "inputs": [
        {
          "internalType": "address",
          "name": "_collateral",
          "type": "address"
        },
        {
          "internalType": "address",
          "name": "_account",
          "type": "address"
        },
        {
          "internalType": "uint256",
          "name": "_amount",
          "type": "uint256"
        }
      ],
      "name": "sendCollateral",
      "outputs": [],
      "stateMutability": "nonpayable",
      "type": "function"
    },
    {
      "inputs": [
        {
          "internalType": "address",
          "name": "_collateralConfigAddress",
          "type": "address"
        },
        {
          "internalType": "address",
          "name": "_borrowerOperationsAddress",
          "type": "address"
        },
        {
          "internalType": "address",
          "name": "_troveManagerAddress",
          "type": "address"
        },
        {
          "internalType": "address",
          "name": "_stabilityPoolAddress",
          "type": "address"
        },
        {
          "internalType": "address",
          "name": "_defaultPoolAddress",
          "type": "address"
        },
        {
          "internalType": "address",
          "name": "_collSurplusPoolAddress",
          "type": "address"
        },
        {
          "internalType": "address",
          "name": "_treasuryAddress",
          "type": "address"
        },
        {
          "internalType": "address",
          "name": "_lqtyStakingAddress",
          "type": "address"
        },
        {
          "internalType": "address[]",
          "name": "_erc4626vaults",
          "type": "address[]"
        }
      ],
      "name": "setAddresses",
      "outputs": [],
      "stateMutability": "nonpayable",
      "type": "function"
    },
    {
      "inputs": [
        {
          "internalType": "address",
          "name": "_collateral",
          "type": "address"
        },
        {
          "internalType": "uint256",
          "name": "_threshold",
          "type": "uint256"
        }
      ],
      "name": "setYieldClaimThreshold",
      "outputs": [],
      "stateMutability": "nonpayable",
      "type": "function"
    },
    {
      "inputs": [
        {
          "internalType": "uint256",
          "name": "_treasurySplit",
          "type": "uint256"
        },
        {
          "internalType": "uint256",
          "name": "_SPSplit",
          "type": "uint256"
        },
        {
          "internalType": "uint256",
          "name": "_stakingSplit",
          "type": "uint256"
        }
      ],
      "name": "setYieldDistributionParams",
      "outputs": [],
      "stateMutability": "nonpayable",
      "type": "function"
    },
    {
      "inputs": [
        {
          "internalType": "address",
          "name": "_collateral",
          "type": "address"
        },
        {
          "internalType": "uint256",
          "name": "_bps",
          "type": "uint256"
        }
      ],
      "name": "setYieldingPercentage",
      "outputs": [],
      "stateMutability": "nonpayable",
      "type": "function"
    },
    {
      "inputs": [
        {
          "internalType": "uint256",
          "name": "_driftBps",
          "type": "uint256"
        }
      ],
      "name": "setYieldingPercentageDrift",
      "outputs": [],
      "stateMutability": "nonpayable",
      "type": "function"
    },
    {
      "inputs": [],
      "name": "stabilityPoolAddress",
      "outputs": [
        {
          "internalType": "address",
          "name": "",
          "type": "address"
        }
      ],
      "stateMutability": "view",
      "type": "function"
    },
    {
      "inputs": [],
      "name": "treasuryAddress",
      "outputs": [
        {
          "internalType": "address",
          "name": "",
          "type": "address"
        }
      ],
      "stateMutability": "view",
      "type": "function"
    },
    {
      "inputs": [],
      "name": "troveManagerAddress",
      "outputs": [
        {
          "internalType": "address",
          "name": "",
          "type": "address"
        }
      ],
      "stateMutability": "view",
      "type": "function"
    },
    {
      "inputs": [
        {
          "internalType": "address",
          "name": "",
          "type": "address"
        }
      ],
      "name": "yieldClaimThreshold",
      "outputs": [
        {
          "internalType": "uint256",
          "name": "",
          "type": "uint256"
        }
      ],
      "stateMutability": "view",
      "type": "function"
    },
    {
      "inputs": [
        {
          "internalType": "address",
          "name": "",
          "type": "address"
        }
      ],
      "name": "yieldGenerator",
      "outputs": [
        {
          "internalType": "address",
          "name": "",
          "type": "address"
        }
      ],
      "stateMutability": "view",
      "type": "function"
    },
    {
      "inputs": [],
      "name": "yieldSplitSP",
      "outputs": [
        {
          "internalType": "uint256",
          "name": "",
          "type": "uint256"
        }
      ],
      "stateMutability": "view",
      "type": "function"
    },
    {
      "inputs": [],
      "name": "yieldSplitStaking",
      "outputs": [
        {
          "internalType": "uint256",
          "name": "",
          "type": "uint256"
        }
      ],
      "stateMutability": "view",
      "type": "function"
    },
    {
      "inputs": [],
      "name": "yieldSplitTreasury",
      "outputs": [
        {
          "internalType": "uint256",
          "name": "",
          "type": "uint256"
        }
      ],
      "stateMutability": "view",
      "type": "function"
    },
    {
      "inputs": [
        {
          "internalType": "address",
          "name": "",
          "type": "address"
        }
      ],
      "name": "yieldingAmount",
      "outputs": [
        {
          "internalType": "uint256",
          "name": "",
          "type": "uint256"
        }
      ],
      "stateMutability": "view",
      "type": "function"
    },
    {
      "inputs": [
        {
          "internalType": "address",
          "name": "",
          "type": "address"
        }
      ],
      "name": "yieldingPercentage",
      "outputs": [
        {
          "internalType": "uint256",
          "name": "",
          "type": "uint256"
        }
      ],
      "stateMutability": "view",
      "type": "function"
    },
    {
      "inputs": [],
      "name": "yieldingPercentageDrift",
      "outputs": [
        {
          "internalType": "uint256",
          "name": "",
          "type": "uint256"
        }
      ],
      "stateMutability": "view",
      "type": "function"
    }
  ],
  "bytecode": "0x60806040526000805460ff60a01b191690556064600f556107d0601055610fa0601181905560125534801561003357600080fd5b50600080546001600160a01b0319163390811782556040519091907f8be0079c531659141344cd1fd0a4f28419497f9722a3daafe3b4186f6b6457e0908290a3612839806100826000396000f3fe608060405234801561001057600080fd5b50600436106101b05760003560e01c8063761ab22c116100ef578063a3f4df7e11610092578063a3f4df7e14610467578063aac1846f146104e4578063b7f8cf9b146104ec578063c0835ed8146104f4578063c5f956af1461051a578063c707f62514610522578063eb13cd10146105dc578063fc08a27814610608576101b0565b8063761ab22c146103b35780638c943115146103bb5780638da5cb5b146103c35780638f32d59b146103cb5780638fca46f4146103e75780639b56d6c9146104135780639e6ed128146104395780639f7d52571461045f576101b0565b806346a804411161015757806346a80441146102915780634b14fa87146102ba5780635a4d28bb146102e05780635fc7b5e8146102e8578063622c07071461031457806362782a2f1461033a5780636dc85da814610360578063715aa61b1461037d576101b0565b8063015933de146101b55780630b622ab2146101cf5780632a9043ec146101f35780632bc75d35146101fb578063315851611461022957806336c855df146102555780633aacc8151461025d5780633de2e09814610289575b600080fd5b6101bd610610565b60408051918252519081900360200190f35b6101d7610616565b604080516001600160a01b039092168252519081900360200190f35b6101d7610625565b6102276004803603604081101561021157600080fd5b506001600160a01b038135169060200135610634565b005b6102276004803603604081101561023f57600080fd5b506001600160a01b0381351690602001356106dd565b6101d761073b565b6102276004803603604081101561027357600080fd5b506001600160a01b03813516906020013561074a565b6101bd6107df565b610227600480360360608110156102a757600080fd5b50803590602081013590604001356107e5565b6101bd600480360360208110156102d057600080fd5b50356001600160a01b03166108da565b6101d7610901565b610227600480360360408110156102fe57600080fd5b506001600160a01b038135169060200135610910565b6101d76004803603602081101561032a57600080fd5b50356001600160a01b031661094a565b6101bd6004803603602081101561035057600080fd5b50356001600160a01b0316610965565b6102276004803603602081101561037657600080fd5b5035610977565b6102276004803603606081101561039357600080fd5b506001600160a01b03813581169160208101359091169060400135610a3a565b6101d7610c71565b6101bd610c80565b6101d7610c86565b6103d3610c95565b604080519115158252519081900360200190f35b610227600480360360408110156103fd57600080fd5b506001600160a01b038135169060200135610ca6565b6101bd6004803603602081101561042957600080fd5b50356001600160a01b0316610d9a565b6101bd6004803603602081101561044f57600080fd5b50356001600160a01b0316610dc1565b6101bd610dd3565b61046f610dd9565b6040805160208082528351818301528351919283929083019185019080838360005b838110156104a9578181015183820152602001610491565b50505050905090810190601f1680156104d65780820380516001836020036101000a031916815260200191505b509250505060405180910390f35b6101d7610dff565b6101d7610e0e565b6101bd6004803603602081101561050a57600080fd5b50356001600160a01b0316610e1d565b6101d7610e2f565b610227600480360361012081101561053957600080fd5b6001600160a01b038235811692602081013582169260408201358316926060830135811692608081013582169260a082013583169260c083013581169260e0810135909116918101906101208101610100820135600160201b81111561059e57600080fd5b8201836020820111156105b057600080fd5b803590602001918460208302840111600160201b831117156105d157600080fd5b509092509050610e3e565b610227600480360360408110156105f257600080fd5b506001600160a01b038135169060200135611407565b6103d36114be565b60105481565b6004546001600160a01b031681565b6006546001600160a01b031681565b61063c610c95565b61067b576040805162461bcd60e51b81526020600482018190526024820152600080516020612796833981519152604482015290519081900360640190fd5b610684826114ce565b6001600160a01b0382166000818152600e60209081526040918290208490558151928352820183905280517f24a014d0281283d717dc5b79bbcc192595a3c2d44607b8a2b919946d38011c4d9281900390910190a15050565b6106e5610c95565b610724576040805162461bcd60e51b81526020600482018190526024820152600080516020612796833981519152604482015290519081900360640190fd5b61072d826114ce565b610737828261159b565b5050565b6001546001600160a01b031681565b610753826114ce565b61075b611d37565b6001600160a01b0382166000908152600a6020526040902054610784908263ffffffff611e3116565b6001600160a01b0383166000818152600a6020908152604091829020849055815192835282019290925281517fc302289861a161b94f85213e562f9203e1a260db17e251062f09d18d2e33bbd9929181900390910190a15050565b60115481565b6107ed610c95565b61082c576040805162461bcd60e51b81526020600482018190526024820152600080516020612796833981519152604482015290519081900360640190fd5b808284010161271014610886576040805162461bcd60e51b815260206004820152601f60248201527f53706c697473206d7573742061646420757020746f2031303030302042505300604482015290519081900360640190fd5b601083905560118290556012819055604080518481526020810184905280820183905290517feea977fcccce470b4253ee1d11ad740fd2d7fb6f7b0d11bc1d4e95420391ba9c9181900360600190a1505050565b60006108e5826114ce565b506001600160a01b03166000908152600a602052604090205490565b6003546001600160a01b031681565b610919826114ce565b610921611e7c565b6001600160a01b0382166000908152600a6020526040902054610784908263ffffffff611edc16565b600d602052600090815260409020546001600160a01b031681565b600c6020526000908152604090205481565b61097f610c95565b6109be576040805162461bcd60e51b81526020600482018190526024820152600080516020612796833981519152604482015290519081900360640190fd5b6101f48111156109ff5760405162461bcd60e51b81526004018080602001828103825260248152602001806127e06024913960400191505060405180910390fd5b600f8190556040805182815290517f5fbcff1e8cc75f2709306df7afa256d08e0fa54056bf30c960d04027aa4184cd9181900360200190a150565b610a43836114ce565b610a4b611d37565b610a55838261159b565b6001600160a01b038316600090815260096020526040902054610a7e908263ffffffff611e3116565b6001600160a01b038416600081815260096020908152604091829020849055815192835282019290925281517f1425c832aad46d3d2e1f005ff3fc09c5576e2105c0649b973375224e6fec1704929181900390910190a1604080516001600160a01b0380861682528416602082015280820183905290517fe664153eb516123e000bb334869ec912418f6fe4c1abb53fe2f848c947a8405d9181900360600190a16005546001600160a01b0383811691161415610bc757600554610b55906001600160a01b0385811691168363ffffffff611f3616565b600554604080516374448ef960e01b81526001600160a01b03868116600483015260248201859052915191909216916374448ef991604480830192600092919082900301818387803b158015610baa57600080fd5b505af1158015610bbe573d6000803e3d6000fd5b50505050610c6c565b6006546001600160a01b0383811691161415610c5257600654610bfd906001600160a01b0385811691168363ffffffff611f3616565b600654604080516374448ef960e01b81526001600160a01b03868116600483015260248201859052915191909216916374448ef991604480830192600092919082900301818387803b158015610baa57600080fd5b610c6c6001600160a01b038416838363ffffffff611fea16565b505050565b6008546001600160a01b031681565b600f5481565b6000546001600160a01b031690565b6000546001600160a01b0316331490565b610cae610c95565b610ced576040805162461bcd60e51b81526020600482018190526024820152600080516020612796833981519152604482015290519081900360640190fd5b610cf6826114ce565b612710811115610d41576040805162461bcd60e51b8152602060048201526011602482015270496e76616c6964204250532076616c756560781b604482015290519081900360640190fd5b6001600160a01b0382166000818152600b60209081526040918290208490558151928352820183905280517ffeec3b80df49ed96aaf58c164a6c183a9cc1b48d44e43bfe0162b01e428371689281900390910190a15050565b6000610da5826114ce565b506001600160a01b031660009081526009602052604090205490565b600e6020526000908152604090205481565b60125481565b6040518060400160405280600a8152602001691058dd1a5d99541bdbdb60b21b81525081565b6005546001600160a01b031681565b6002546001600160a01b031681565b600b6020526000908152604090205481565b6007546001600160a01b031681565b610e46610c95565b610e85576040805162461bcd60e51b81526020600482018190526024820152600080516020612796833981519152604482015290519081900360640190fd5b600054600160a01b900460ff1615610ee4576040805162461bcd60e51b815260206004820152601f60248201527f43616e2063616c6c20736574416464726573736573206f6e6c79206f6e636500604482015290519081900360640190fd5b610eed8a61203c565b610ef68961203c565b610eff8861203c565b610f088761203c565b610f118661203c565b610f1a8561203c565b6001600160a01b038416610f75576040805162461bcd60e51b815260206004820152601c60248201527f54726561737572792063616e6e6f742062652030206164647265737300000000604482015290519081900360640190fd5b610f7e8361203c565b600180546001600160a01b03199081166001600160a01b038d811691909117928390556002805483168d83161790556003805483168c83161790556004805483168b83161781556005805484168b84161790556006805484168a841617905560078054841689841617905560088054909316878316179092556040805163b2604ecf60e01b815290516060949092169263b2604ecf928282019260009290829003018186803b15801561103057600080fd5b505afa158015611044573d6000803e3d6000fd5b505050506040513d6000823e601f3d908101601f19168201604052602081101561106d57600080fd5b8101908080516040519392919084600160201b82111561108c57600080fd5b9083019060208201858111156110a157600080fd5b82518660208202830111600160201b821117156110bd57600080fd5b82525081516020918201928201910280838360005b838110156110ea5781810151838201526020016110d2565b505050509190910160405250508251929350505082811461113c5760405162461bcd60e51b81526004018080602001828103825260348152602001806126976034913960400191505060405180910390fd5b60005b8181101561127d57600083828151811061115557fe5b60200260200101519050600086868481811061116d57fe5b905060200201356001600160a01b03169050816001600160a01b0316816001600160a01b03166338d52e0f6040518163ffffffff1660e01b815260040160206040518083038186803b1580156111c257600080fd5b505afa1580156111d6573d6000803e3d6000fd5b505050506040513d60208110156111ec57600080fd5b50516001600160a01b031614611249576040805162461bcd60e51b815260206004820152601e60248201527f5661756c74206173736574206d75737420626520636f6c6c61746572616c0000604482015290519081900360640190fd5b6001600160a01b039182166000908152600d6020526040902080546001600160a01b0319169190921617905560010161113f565b50604080516001600160a01b038e16815290517f6a69409f44477d8556c3c8040edc75d9bc1b3dee7846f6045c0b99556fe7bc919181900360200190a1604080516001600160a01b038d16815290517f3ca631ffcd2a9b5d9ae18543fc82f58eb4ca33af9e6ab01b7a8e95331e6ed9859181900360200190a1604080516001600160a01b038c16815290517f143219c9e69b09e07e095fcc889b43d8f46ca892bba65f08dc3a0050869a56789181900360200190a1604080516001600160a01b038b16815290517f82966d27eea39b038ee0fa30cd16532bb24f6e65d31cb58fb227aa5766cdcc7f9181900360200190a1604080516001600160a01b038a16815290517f5ee0cae2f063ed938bb55046f6a932fb6ae792bf43624806bb90abe68a50be9b9181900360200190a1604080516001600160a01b038916815290517fe67f36a6e961157d6eff83b91f3af5a62131ceb6f04954ef74f51c1c05e7f88d9181900360200190a150506000805460ff60a01b1916600160a01b17905550505050505050505050565b611410826114ce565b6114186120eb565b6001600160a01b038216600090815260096020526040902054611441908263ffffffff611edc16565b6001600160a01b038316600081815260096020908152604091829020849055815192835282019290925281517f1425c832aad46d3d2e1f005ff3fc09c5576e2105c0649b973375224e6fec1704929181900390910190a16114b36001600160a01b03831633308463ffffffff61214916565b61073782600061159b565b600054600160a01b900460ff1681565b60015460408051630658339960e51b81526001600160a01b0384811660048301529151919092169163cb067320916024808301926020929190829003018186803b15801561151b57600080fd5b505afa15801561152f573d6000803e3d6000fd5b505050506040513d602081101561154557600080fd5b5051611598576040805162461bcd60e51b815260206004820152601a60248201527f496e76616c696420636f6c6c61746572616c2061646472657373000000000000604482015290519081900360640190fd5b50565b6115a36125cf565b6001600160a01b038084166000818152600c60209081526040808320548652928252600d8152908290205490921683830181905281516370a0823160e01b8152306004820152915190926370a082319260248082019391829003018186803b15801561160e57600080fd5b505afa158015611622573d6000803e3d6000fd5b505050506040513d602081101561163857600080fd5b5051604080830182905260208381015182516303d1689d60e11b8152600481019490945291516001600160a01b03909216926307a2d13a9260248083019392829003018186803b15801561168b57600080fd5b505afa15801561169f573d6000803e3d6000fd5b505050506040513d60208110156116b557600080fd5b50516060820181905281516116d0919063ffffffff611e3116565b608082019081526001600160a01b0384166000908152600e60205260409020549051101561170057600060808201525b6001600160a01b038316600090815260096020526040902054611729908363ffffffff611e3116565b60a08201819052156117645760a0810151815161175f91906117539061271063ffffffff6121a316565b9063ffffffff6121fc16565b611768565b6000195b60c08201526001600160a01b0383166000908152600b602052604090205460e0820181905260a08201516117a991612710916117539163ffffffff6121a316565b6101608201526001600160a01b0383166000908152600c602052604090205461014082015260e081015160c08201511180156117fe5750600f5460e082015160c08301516117fc9163ffffffff611e3116565b115b1561185d57610160810151815161181a9163ffffffff611e3116565b61012082018190526101408201516118379163ffffffff611e3116565b61014082018190526001600160a01b0384166000908152600c60205260409020556118e8565b8060e001518160c0015110801561188d5750600f5460c082015160e083015161188b9163ffffffff611e3116565b115b156118e85780516101608201516118a99163ffffffff611e3116565b61010082018190526101408201516118c69163ffffffff611edc16565b61014082018190526001600160a01b0384166000908152600c60205260409020555b608081015161012082015161010083015103036101808201819052600012156119d6576001600160a01b038084166000818152600d602052604090205461018084015161193f93919091169063ffffffff611f3616565b6001600160a01b038084166000908152600d60209081526040808320546101808601518251636e553f6560e01b815260048101919091523060248201529151941693636e553f6593604480840194938390030190829087803b1580156119a457600080fd5b505af11580156119b8573d6000803e3d6000fd5b505050506040513d60208110156119ce57600080fd5b50611a7d9050565b60008161018001511215611a7d576001600160a01b038084166000908152600d60209081526040808320546101808601518251632d182be560e21b8152908503600482015230602482018190526044820152915194169363b460af9493606480840194938390030190829087803b158015611a5057600080fd5b505af1158015611a64573d6000803e3d6000fd5b505050506040513d6020811015611a7a57600080fd5b50505b608081015115610c6c576001600160a01b0383166000818152600960209081526040918290205461014085015183516370a0823160e01b81523060048201529351611b2f959294611b23949293926370a0823192602480840193829003018186803b158015611aeb57600080fd5b505afa158015611aff573d6000803e3d6000fd5b505050506040513d6020811015611b1557600080fd5b50519063ffffffff611edc16565b9063ffffffff611e3116565b6080820181905215610c6c57611b5a61271061175360105484608001516121a390919063ffffffff16565b6101a0820181905215611b8e576007546101a0820151611b8e916001600160a01b038681169291169063ffffffff611fea16565b611bad61271061175360125484608001516121a390919063ffffffff16565b6101c0820181905215611c56576008546101c0820151611be1916001600160a01b038681169291169063ffffffff611fea16565b6008546101c0820151604080516335989d2f60e21b81526001600160a01b03878116600483015260248201939093529051919092169163d66274bc91604480830192600092919082900301818387803b158015611c3d57600080fd5b505af1158015611c51573d6000803e3d6000fd5b505050505b611c87611c76826101c00151836101a00151611edc90919063ffffffff16565b60808301519063ffffffff611e3116565b6101e0820181905215610c6c576004546101e0820151611cbb916001600160a01b038681169291169063ffffffff611fea16565b600480546101e0830151604080516309dc14af60e31b81526001600160a01b03888116958201959095526024810192909252519290911691634ee0a5789160448082019260009290919082900301818387803b158015611d1a57600080fd5b505af1158015611d2e573d6000803e3d6000fd5b50505050505050565b6003546040805163aff5917f60e01b815290516000926001600160a01b03169163aff5917f916004808301926020929190829003018186803b158015611d7c57600080fd5b505afa158015611d90573d6000803e3d6000fd5b505050506040513d6020811015611da657600080fd5b50516002549091506001600160a01b0316331480611dce57506003546001600160a01b031633145b80611de15750336001600160a01b038216145b80611df657506004546001600160a01b031633145b6115985760405162461bcd60e51b81526004018080602001828103825260538152602001806126f16053913960600191505060405180910390fd5b6000611e7383836040518060400160405280601e81526020017f536166654d6174683a207375627472616374696f6e206f766572666c6f77000081525061223e565b90505b92915050565b6002546001600160a01b0316331480611e9f57506003546001600160a01b031633145b611eda5760405162461bcd60e51b81526004018080602001828103825260418152602001806126566041913960600191505060405180910390fd5b565b600082820183811015611e73576040805162461bcd60e51b815260206004820152601b60248201527f536166654d6174683a206164646974696f6e206f766572666c6f770000000000604482015290519081900360640190fd5b60408051636eb1769f60e11b81523060048201526001600160a01b0384811660248301529151600092611f8f9285929188169163dd62ed3e91604480820192602092909190829003018186803b158015611aeb57600080fd5b604080516001600160a01b038616602482015260448082018490528251808303909101815260649091019091526020810180516001600160e01b031663095ea7b360e01b179052909150611fe49085906122da565b50505050565b604080516001600160a01b038416602482015260448082018490528251808303909101815260649091019091526020810180516001600160e01b031663a9059cbb60e01b179052610c6c9084906122da565b6001600160a01b038116612097576040805162461bcd60e51b815260206004820152601e60248201527f4163636f756e742063616e6e6f74206265207a65726f20616464726573730000604482015290519081900360640190fd5b803b80610737576040805162461bcd60e51b815260206004820181905260248201527f4163636f756e7420636f64652073697a652063616e6e6f74206265207a65726f604482015290519081900360640190fd5b6002546001600160a01b031633148061210e57506005546001600160a01b031633145b611eda5760405162461bcd60e51b81526004018080602001828103825260318152602001806127446031913960400191505060405180910390fd5b604080516001600160a01b0380861660248301528416604482015260648082018490528251808303909101815260849091019091526020810180516001600160e01b03166323b872dd60e01b179052611fe49085906122da565b6000826121b257506000611e76565b828202828482816121bf57fe5b0414611e735760405162461bcd60e51b81526004018080602001828103825260218152602001806127756021913960400191505060405180910390fd5b6000611e7383836040518060400160405280601a81526020017f536166654d6174683a206469766973696f6e206279207a65726f00000000000081525061238b565b600081848411156122cd5760405162461bcd60e51b81526004018080602001828103825283818151815260200191508051906020019080838360005b8381101561229257818101518382015260200161227a565b50505050905090810190601f1680156122bf5780820380516001836020036101000a031916815260200191505b509250505060405180910390fd5b50508183035b9392505050565b606061232f826040518060400160405280602081526020017f5361666545524332303a206c6f772d6c6576656c2063616c6c206661696c6564815250856001600160a01b03166123f09092919063ffffffff16565b805190915015610c6c5780806020019051602081101561234e57600080fd5b5051610c6c5760405162461bcd60e51b815260040180806020018281038252602a8152602001806127b6602a913960400191505060405180910390fd5b600081836123da5760405162461bcd60e51b815260206004820181815283516024840152835190928392604490910191908501908083836000831561229257818101518382015260200161227a565b5060008385816123e657fe5b0495945050505050565b60606123ff8484600085612407565b949350505050565b6060824710156124485760405162461bcd60e51b81526004018080602001828103825260268152602001806126cb6026913960400191505060405180910390fd5b61245185612563565b6124a2576040805162461bcd60e51b815260206004820152601d60248201527f416464726573733a2063616c6c20746f206e6f6e2d636f6e7472616374000000604482015290519081900360640190fd5b60006060866001600160a01b031685876040518082805190602001908083835b602083106124e15780518252601f1990920191602091820191016124c2565b6001836020036101000a03801982511681845116808217855250505050505090500191505060006040518083038185875af1925050503d8060008114612543576040519150601f19603f3d011682016040523d82523d6000602084013e612548565b606091505b5091509150612558828286612569565b979650505050505050565b3b151590565b606083156125785750816122d3565b8251156125885782518084602001fd5b60405162461bcd60e51b815260206004820181815284516024840152845185939192839260440191908501908083836000831561229257818101518382015260200161227a565b6040518061020001604052806000815260200160006001600160a01b031681526020016000815260200160008152602001600081526020016000815260200160008152602001600081526020016000815260200160008152602001600081526020016000815260200160008152602001600081526020016000815260200160008152509056fe416374697665506f6f6c3a2043616c6c6572206973206e65697468657220426f72726f7765724f7065726174696f6e73206e6f722054726f76654d616e616765725661756c7473206172726179206c656e677468206d757374206d61746368206e756d626572206f6620636f6c6c61746572616c73416464726573733a20696e73756666696369656e742062616c616e636520666f722063616c6c416374697665506f6f6c3a2043616c6c6572206973206e65697468657220426f72726f7765724f7065726174696f6e73206e6f722054726f76654d616e61676572206e6f722053746162696c697479506f6f6c416374697665506f6f6c3a2043616c6c6572206973206e65697468657220424f206e6f722044656661756c7420506f6f6c536166654d6174683a206d756c7469706c69636174696f6e206f766572666c6f774f776e61626c653a2063616c6c6572206973206e6f7420746865206f776e65725361666545524332303a204552433230206f7065726174696f6e20646964206e6f74207375636365656445786365656473206d617820616c6c6f7765642076616c7565206f662035303020425053a2646970667358221220c248f0eac7680c793f68bfb81e9f547fc2947a77c59482ee3cab9ad5dc251dc664736f6c634300060b0033",
  "linkReferences": {},
  "deployedLinkReferences": {}
}