{
  "_format": "hh-sol-artifact-1",
  "contractName": "MultiTroveGetter",
  "sourceName": "contracts/MultiTroveGetter.sol",
  "abi": [
    {
      "inputs": [
        {
          "internalType": "contract ICollateralConfig",
          "name": "_collateralConfig",
          "type": "address"
        },
        {
          "internalType": "contract TroveManager",
          "name": "_troveManager",
          "type": "address"
        },
        {
          "internalType": "contract ISortedTroves",
          "name": "_sortedTroves",
          "type": "address"
        }
      ],
      "stateMutability": "nonpayable",
      "type": "constructor"
    },
    {
      "inputs": [],
      "name": "collateralConfig",
      "outputs": [
        {
          "internalType": "contract ICollateralConfig",
          "name": "",
          "type": "address"
        }
      ],
      "stateMutability": "view",
      "type": "function"
    },
    {
      "inputs": [
        {
          "internalType": "address",
          "name": "_collateral",
          "type": "address"
        },
        {
          "internalType": "int256",
          "name": "_startIdx",
          "type": "int256"
        },
        {
          "internalType": "uint256",
          "name": "_count",
          "type": "uint256"
        }
      ],
      "name": "getMultipleSortedTroves",
      "outputs": [
        {
          "components": [
            {
              "internalType": "address",
              "name": "owner",
              "type": "address"
            },
            {
              "internalType": "uint256",
              "name": "debt",
              "type": "uint256"
            },
            {
              "internalType": "uint256",
              "name": "coll",
              "type": "uint256"
            },
            {
              "internalType": "uint256",
              "name": "stake",
              "type": "uint256"
            },
            {
              "internalType": "uint256",
              "name": "snapshotCollAmount",
              "type": "uint256"
            },
            {
              "internalType": "uint256",
              "name": "snapshotLUSDDebt",
              "type": "uint256"
            }
          ],
          "internalType": "struct MultiTroveGetter.CombinedTroveData[]",
          "name": "_troves",
          "type": "tuple[]"
        }
      ],
      "stateMutability": "view",
      "type": "function"
    },
    {
      "inputs": [],
      "name": "sortedTroves",
      "outputs": [
        {
          "internalType": "contract ISortedTroves",
          "name": "",
          "type": "address"
        }
      ],
      "stateMutability": "view",
      "type": "function"
    },
    {
      "inputs": [],
      "name": "troveManager",
      "outputs": [
        {
          "internalType": "contract TroveManager",
          "name": "",
          "type": "address"
        }
      ],
      "stateMutability": "view",
      "type": "function"
    }
  ],
  "bytecode": "0x608060405234801561001057600080fd5b50604051610d74380380610d7483398101604081905261002f91610071565b600080546001600160a01b039485166001600160a01b0319918216179091556001805493851693821693909317909255600280549190931691161790556100d5565b600080600060608486031215610085578283fd5b8351610090816100bd565b60208501519093506100a1816100bd565b60408501519092506100b2816100bd565b809150509250925092565b6001600160a01b03811681146100d257600080fd5b50565b610c90806100e46000396000f3fe608060405234801561001057600080fd5b506004361061004c5760003560e01c806305e533ce146100515780633d83908a1461007a5780635c0ab4de1461008f578063ae91875414610097575b600080fd5b61006461005f366004610a69565b61009f565b6040516100719190610b8a565b60405180910390f35b61008261026d565b6040516100719190610b5c565b61008261027c565b61008261028b565b600054604051630658339960e51b81526060916001600160a01b03169063cb067320906100d0908790600401610b5c565b60206040518083038186803b1580156100e857600080fd5b505afa1580156100fc573d6000803e3d6000fd5b505050506040513d601f19601f820116820180604052508101906101209190610a9d565b6101455760405162461bcd60e51b815260040161013c90610c0b565b60405180910390fd5b6000806000851261015b57508390506001610169565b846001016000039150600090505b60025460405163504f167160e01b81526000916001600160a01b03169063504f16719061019a908a90600401610b5c565b60206040518083038186803b1580156101b257600080fd5b505afa1580156101c6573d6000803e3d6000fd5b505050506040513d601f19601f820116820180604052508101906101ea9190610abd565b905080831061022c576040805160008082526020820190925290610224565b610211610a07565b8152602001906001900390816102095790505b509350610263565b8281038086111561023b578095505b82156102535761024c88858861029a565b9450610261565b61025e888588610656565b94505b505b5050509392505050565b6001546001600160a01b031681565b6000546001600160a01b031681565b6002546001600160a01b031681565b600254604051631bdb4c8d60e01b81526060916000916001600160a01b0390911690631bdb4c8d906102d0908890600401610b5c565b60206040518083038186803b1580156102e857600080fd5b505afa1580156102fc573d6000803e3d6000fd5b505050506040513d601f19601f820116820180604052508101906103209190610a46565b905060005b848110156103b9576002546040516339ed25cd60e01b81526001600160a01b03909116906339ed25cd9061035f9089908690600401610b70565b60206040518083038186803b15801561037757600080fd5b505afa15801561038b573d6000803e3d6000fd5b505050506040513d601f19601f820116820180604052508101906103af9190610a46565b9150600101610325565b508267ffffffffffffffff811180156103d157600080fd5b5060405190808252806020026020018201604052801561040b57816020015b6103f8610a07565b8152602001906001900390816103f05790505b50915060005b8381101561064d578183828151811061042657fe5b60209081029190910101516001600160a01b0391821690526001546040516307f258d560e41b8152911690637f258d50906104679085908a90600401610b70565b60a06040518083038186803b15801561047f57600080fd5b505afa158015610493573d6000803e3d6000fd5b505050506040513d601f19601f820116820180604052508101906104b79190610af8565b9050508584815181106104c657fe5b60200260200101516020018685815181106104dd57fe5b60200260200101516040018786815181106104f457fe5b6020908102919091010151606001929092529190525260015460405163649fea2560e11b81526001600160a01b039091169063c93fd44a9061053c9085908a90600401610b70565b604080518083038186803b15801561055357600080fd5b505afa158015610567573d6000803e3d6000fd5b505050506040513d601f19601f8201168201806040525081019061058b9190610ad5565b84838151811061059757fe5b60200260200101516080018584815181106105ae57fe5b602090810291909101015160a00191909152526002546040516339ed25cd60e01b81526001600160a01b03909116906339ed25cd906105f39089908690600401610b70565b60206040518083038186803b15801561060b57600080fd5b505afa15801561061f573d6000803e3d6000fd5b505050506040513d601f19601f820116820180604052508101906106439190610a46565b9150600101610411565b50509392505050565b600254604051637608271560e01b81526060916000916001600160a01b039091169063760827159061068c908890600401610b5c565b60206040518083038186803b1580156106a457600080fd5b505afa1580156106b8573d6000803e3d6000fd5b505050506040513d601f19601f820116820180604052508101906106dc9190610a46565b905060005b84811015610774576002546040516239c6e160ea1b81526001600160a01b039091169063e71b84009061071a9089908690600401610b70565b60206040518083038186803b15801561073257600080fd5b505afa158015610746573d6000803e3d6000fd5b505050506040513d601f19601f8201168201806040525081019061076a9190610a46565b91506001016106e1565b508267ffffffffffffffff8111801561078c57600080fd5b506040519080825280602002602001820160405280156107c657816020015b6107b3610a07565b8152602001906001900390816107ab5790505b50915060005b8381101561064d57818382815181106107e157fe5b60209081029190910101516001600160a01b0391821690526001546040516307f258d560e41b8152911690637f258d50906108229085908a90600401610b70565b60a06040518083038186803b15801561083a57600080fd5b505afa15801561084e573d6000803e3d6000fd5b505050506040513d601f19601f820116820180604052508101906108729190610af8565b90505085848151811061088157fe5b602002602001015160200186858151811061089857fe5b60200260200101516040018786815181106108af57fe5b6020908102919091010151606001929092529190525260015460405163649fea2560e11b81526001600160a01b039091169063c93fd44a906108f79085908a90600401610b70565b604080518083038186803b15801561090e57600080fd5b505afa158015610922573d6000803e3d6000fd5b505050506040513d601f19601f820116820180604052508101906109469190610ad5565b84838151811061095257fe5b602002602001015160800185848151811061096957fe5b602090810291909101015160a00191909152526002546040516239c6e160ea1b81526001600160a01b039091169063e71b8400906109ad9089908690600401610b70565b60206040518083038186803b1580156109c557600080fd5b505afa1580156109d9573d6000803e3d6000fd5b505050506040513d601f19601f820116820180604052508101906109fd9190610a46565b91506001016107cc565b6040518060c0016040528060006001600160a01b0316815260200160008152602001600081526020016000815260200160008152602001600081525090565b600060208284031215610a57578081fd5b8151610a6281610c42565b9392505050565b600080600060608486031215610a7d578182fd5b8335610a8881610c42565b95602085013595506040909401359392505050565b600060208284031215610aae578081fd5b81518015158114610a62578182fd5b600060208284031215610ace578081fd5b5051919050565b60008060408385031215610ae7578182fd5b505080516020909101519092909150565b600080600080600060a08688031215610b0f578081fd5b855194506020860151935060408601519250606086015160058110610b32578182fd5b60808701519092506001600160801b0381168114610b4e578182fd5b809150509295509295909350565b6001600160a01b0391909116815260200190565b6001600160a01b0392831681529116602082015260400190565b602080825282518282018190526000919060409081850190868401855b82811015610bfe57815180516001600160a01b0316855286810151878601528581015186860152606080820151908601526080808201519086015260a0908101519085015260c09093019290850190600101610ba7565b5091979650505050505050565b6020808252601a908201527f496e76616c696420636f6c6c61746572616c2061646472657373000000000000604082015260600190565b6001600160a01b0381168114610c5757600080fd5b5056fea2646970667358221220a811ac3565d162d2b01eef47515022da0bb3d3fc3babe413a08fc1ff1d1cedde64736f6c634300060b0033",
  "linkReferences": {},
  "deployedLinkReferences": {}
}