{
  "_format": "hh-sol-artifact-1",
  "contractName": "TroveManagerTester",
  "sourceName": "contracts/TestContracts/CDPManagerTester.sol",
  "abi": [
    {
      "anonymous": false,
      "inputs": [
        {
          "indexed": false,
          "internalType": "address",
          "name": "_activePoolAddress",
          "type": "address"
        }
      ],
      "name": "ActivePoolAddressChanged",
      "type": "event"
    },
    {
      "anonymous": false,
      "inputs": [
        {
          "indexed": false,
          "internalType": "uint256",
          "name": "_baseRate",
          "type": "uint256"
        }
      ],
      "name": "BaseRateUpdated",
      "type": "event"
    },
    {
      "anonymous": false,
      "inputs": [
        {
          "indexed": false,
          "internalType": "address",
          "name": "_newBorrowerOperationsAddress",
          "type": "address"
        }
      ],
      "name": "BorrowerOperationsAddressChanged",
      "type": "event"
    },
    {
      "anonymous": false,
      "inputs": [
        {
          "indexed": false,
          "internalType": "address",
          "name": "_collSurplusPoolAddress",
          "type": "address"
        }
      ],
      "name": "CollSurplusPoolAddressChanged",
      "type": "event"
    },
    {
      "anonymous": false,
      "inputs": [
        {
          "indexed": false,
          "internalType": "address",
          "name": "_newCollateralConfigAddress",
          "type": "address"
        }
      ],
      "name": "CollateralConfigAddressChanged",
      "type": "event"
    },
    {
      "anonymous": false,
      "inputs": [
        {
          "indexed": false,
          "internalType": "address",
          "name": "_defaultPoolAddress",
          "type": "address"
        }
      ],
      "name": "DefaultPoolAddressChanged",
      "type": "event"
    },
    {
      "anonymous": false,
      "inputs": [
        {
          "indexed": false,
          "internalType": "address",
          "name": "_gasPoolAddress",
          "type": "address"
        }
      ],
      "name": "GasPoolAddressChanged",
      "type": "event"
    },
    {
      "anonymous": false,
      "inputs": [
        {
          "indexed": false,
          "internalType": "address",
          "name": "_lqtyStakingAddress",
          "type": "address"
        }
      ],
      "name": "LQTYStakingAddressChanged",
      "type": "event"
    },
    {
      "anonymous": false,
      "inputs": [
        {
          "indexed": false,
          "internalType": "address",
          "name": "_lqtyTokenAddress",
          "type": "address"
        }
      ],
      "name": "LQTYTokenAddressChanged",
      "type": "event"
    },
    {
      "anonymous": false,
      "inputs": [
        {
          "indexed": false,
          "internalType": "address",
          "name": "_collateral",
          "type": "address"
        },
        {
          "indexed": false,
          "internalType": "uint256",
          "name": "_L_Collateral",
          "type": "uint256"
        },
        {
          "indexed": false,
          "internalType": "uint256",
          "name": "_L_LUSDDebt",
          "type": "uint256"
        }
      ],
      "name": "LTermsUpdated",
      "type": "event"
    },
    {
      "anonymous": false,
      "inputs": [
        {
          "indexed": false,
          "internalType": "address",
          "name": "_newLUSDTokenAddress",
          "type": "address"
        }
      ],
      "name": "LUSDTokenAddressChanged",
      "type": "event"
    },
    {
      "anonymous": false,
      "inputs": [
        {
          "indexed": false,
          "internalType": "uint256",
          "name": "_lastFeeOpTime",
          "type": "uint256"
        }
      ],
      "name": "LastFeeOpTimeUpdated",
      "type": "event"
    },
    {
      "anonymous": false,
      "inputs": [
        {
          "indexed": false,
          "internalType": "address",
          "name": "_collateral",
          "type": "address"
        },
        {
          "indexed": false,
          "internalType": "uint256",
          "name": "_liquidatedDebt",
          "type": "uint256"
        },
        {
          "indexed": false,
          "internalType": "uint256",
          "name": "_liquidatedColl",
          "type": "uint256"
        },
        {
          "indexed": false,
          "internalType": "uint256",
          "name": "_collGasCompensation",
          "type": "uint256"
        },
        {
          "indexed": false,
          "internalType": "uint256",
          "name": "_LUSDGasCompensation",
          "type": "uint256"
        }
      ],
      "name": "Liquidation",
      "type": "event"
    },
    {
      "anonymous": false,
      "inputs": [
        {
          "indexed": false,
          "internalType": "address",
          "name": "_newPriceFeedAddress",
          "type": "address"
        }
      ],
      "name": "PriceFeedAddressChanged",
      "type": "event"
    },
    {
      "anonymous": false,
      "inputs": [
        {
          "indexed": false,
          "internalType": "address",
          "name": "_collateral",
          "type": "address"
        },
        {
          "indexed": false,
          "internalType": "uint256",
          "name": "_attemptedLUSDAmount",
          "type": "uint256"
        },
        {
          "indexed": false,
          "internalType": "uint256",
          "name": "_actualLUSDAmount",
          "type": "uint256"
        },
        {
          "indexed": false,
          "internalType": "uint256",
          "name": "_collSent",
          "type": "uint256"
        },
        {
          "indexed": false,
          "internalType": "uint256",
          "name": "_collFee",
          "type": "uint256"
        }
      ],
      "name": "Redemption",
      "type": "event"
    },
    {
      "anonymous": false,
      "inputs": [
        {
          "indexed": false,
          "internalType": "address",
          "name": "_redemptionHelperAddress",
          "type": "address"
        }
      ],
      "name": "RedemptionHelperAddressChanged",
      "type": "event"
    },
    {
      "anonymous": false,
      "inputs": [
        {
          "indexed": false,
          "internalType": "address",
          "name": "_sortedTrovesAddress",
          "type": "address"
        }
      ],
      "name": "SortedTrovesAddressChanged",
      "type": "event"
    },
    {
      "anonymous": false,
      "inputs": [
        {
          "indexed": false,
          "internalType": "address",
          "name": "_stabilityPoolAddress",
          "type": "address"
        }
      ],
      "name": "StabilityPoolAddressChanged",
      "type": "event"
    },
    {
      "anonymous": false,
      "inputs": [
        {
          "indexed": false,
          "internalType": "address",
          "name": "_collateral",
          "type": "address"
        },
        {
          "indexed": false,
          "internalType": "uint256",
          "name": "_totalStakesSnapshot",
          "type": "uint256"
        },
        {
          "indexed": false,
          "internalType": "uint256",
          "name": "_totalCollateralSnapshot",
          "type": "uint256"
        }
      ],
      "name": "SystemSnapshotsUpdated",
      "type": "event"
    },
    {
      "anonymous": false,
      "inputs": [
        {
          "indexed": false,
          "internalType": "address",
          "name": "_collateral",
          "type": "address"
        },
        {
          "indexed": false,
          "internalType": "uint256",
          "name": "_newTotalStakes",
          "type": "uint256"
        }
      ],
      "name": "TotalStakesUpdated",
      "type": "event"
    },
    {
      "anonymous": false,
      "inputs": [
        {
          "indexed": false,
          "internalType": "address",
          "name": "_borrower",
          "type": "address"
        },
        {
          "indexed": false,
          "internalType": "address",
          "name": "_collateral",
          "type": "address"
        },
        {
          "indexed": false,
          "internalType": "uint256",
          "name": "_newIndex",
          "type": "uint256"
        }
      ],
      "name": "TroveIndexUpdated",
      "type": "event"
    },
    {
      "anonymous": false,
      "inputs": [
        {
          "indexed": true,
          "internalType": "address",
          "name": "_borrower",
          "type": "address"
        },
        {
          "indexed": false,
          "internalType": "address",
          "name": "_collateral",
          "type": "address"
        },
        {
          "indexed": false,
          "internalType": "uint256",
          "name": "_debt",
          "type": "uint256"
        },
        {
          "indexed": false,
          "internalType": "uint256",
          "name": "_coll",
          "type": "uint256"
        },
        {
          "indexed": false,
          "internalType": "enum TroveManager.TroveManagerOperation",
          "name": "_operation",
          "type": "uint8"
        }
      ],
      "name": "TroveLiquidated",
      "type": "event"
    },
    {
      "anonymous": false,
      "inputs": [
        {
          "indexed": false,
          "internalType": "address",
          "name": "_collateral",
          "type": "address"
        },
        {
          "indexed": false,
          "internalType": "uint256",
          "name": "_L_Collateral",
          "type": "uint256"
        },
        {
          "indexed": false,
          "internalType": "uint256",
          "name": "_L_LUSDDebt",
          "type": "uint256"
        }
      ],
      "name": "TroveSnapshotsUpdated",
      "type": "event"
    },
    {
      "anonymous": false,
      "inputs": [
        {
          "indexed": true,
          "internalType": "address",
          "name": "_borrower",
          "type": "address"
        },
        {
          "indexed": false,
          "internalType": "address",
          "name": "_collateral",
          "type": "address"
        },
        {
          "indexed": false,
          "internalType": "uint256",
          "name": "_debt",
          "type": "uint256"
        },
        {
          "indexed": false,
          "internalType": "uint256",
          "name": "_coll",
          "type": "uint256"
        },
        {
          "indexed": false,
          "internalType": "uint256",
          "name": "_stake",
          "type": "uint256"
        },
        {
          "indexed": false,
          "internalType": "enum TroveManager.TroveManagerOperation",
          "name": "_operation",
          "type": "uint8"
        }
      ],
      "name": "TroveUpdated",
      "type": "event"
    },
    {
      "inputs": [],
      "name": "BETA",
      "outputs": [
        {
          "internalType": "uint256",
          "name": "",
          "type": "uint256"
        }
      ],
      "stateMutability": "view",
      "type": "function"
    },
    {
      "inputs": [],
      "name": "BORROWING_FEE_FLOOR",
      "outputs": [
        {
          "internalType": "uint256",
          "name": "",
          "type": "uint256"
        }
      ],
      "stateMutability": "view",
      "type": "function"
    },
    {
      "inputs": [],
      "name": "DECIMAL_PRECISION",
      "outputs": [
        {
          "internalType": "uint256",
          "name": "",
          "type": "uint256"
        }
      ],
      "stateMutability": "view",
      "type": "function"
    },
    {
      "inputs": [],
      "name": "LUSD_GAS_COMPENSATION",
      "outputs": [
        {
          "internalType": "uint256",
          "name": "",
          "type": "uint256"
        }
      ],
      "stateMutability": "view",
      "type": "function"
    },
    {
      "inputs": [
        {
          "internalType": "address",
          "name": "",
          "type": "address"
        }
      ],
      "name": "L_Collateral",
      "outputs": [
        {
          "internalType": "uint256",
          "name": "",
          "type": "uint256"
        }
      ],
      "stateMutability": "view",
      "type": "function"
    },
    {
      "inputs": [
        {
          "internalType": "address",
          "name": "",
          "type": "address"
        }
      ],
      "name": "L_LUSDDebt",
      "outputs": [
        {
          "internalType": "uint256",
          "name": "",
          "type": "uint256"
        }
      ],
      "stateMutability": "view",
      "type": "function"
    },
    {
      "inputs": [],
      "name": "MAX_BORROWING_FEE",
      "outputs": [
        {
          "internalType": "uint256",
          "name": "",
          "type": "uint256"
        }
      ],
      "stateMutability": "view",
      "type": "function"
    },
    {
      "inputs": [],
      "name": "MINUTE_DECAY_FACTOR",
      "outputs": [
        {
          "internalType": "uint256",
          "name": "",
          "type": "uint256"
        }
      ],
      "stateMutability": "view",
      "type": "function"
    },
    {
      "inputs": [],
      "name": "MIN_NET_DEBT",
      "outputs": [
        {
          "internalType": "uint256",
          "name": "",
          "type": "uint256"
        }
      ],
      "stateMutability": "view",
      "type": "function"
    },
    {
      "inputs": [],
      "name": "PERCENT_DIVISOR",
      "outputs": [
        {
          "internalType": "uint256",
          "name": "",
          "type": "uint256"
        }
      ],
      "stateMutability": "view",
      "type": "function"
    },
    {
      "inputs": [],
      "name": "REDEMPTION_FEE_FLOOR",
      "outputs": [
        {
          "internalType": "uint256",
          "name": "",
          "type": "uint256"
        }
      ],
      "stateMutability": "view",
      "type": "function"
    },
    {
      "inputs": [],
      "name": "SECONDS_IN_ONE_MINUTE",
      "outputs": [
        {
          "internalType": "uint256",
          "name": "",
          "type": "uint256"
        }
      ],
      "stateMutability": "view",
      "type": "function"
    },
    {
      "inputs": [
        {
          "internalType": "address",
          "name": "",
          "type": "address"
        },
        {
          "internalType": "uint256",
          "name": "",
          "type": "uint256"
        }
      ],
      "name": "TroveOwners",
      "outputs": [
        {
          "internalType": "address",
          "name": "",
          "type": "address"
        }
      ],
      "stateMutability": "view",
      "type": "function"
    },
    {
      "inputs": [
        {
          "internalType": "address",
          "name": "",
          "type": "address"
        },
        {
          "internalType": "address",
          "name": "",
          "type": "address"
        }
      ],
      "name": "Troves",
      "outputs": [
        {
          "internalType": "uint256",
          "name": "debt",
          "type": "uint256"
        },
        {
          "internalType": "uint256",
          "name": "coll",
          "type": "uint256"
        },
        {
          "internalType": "uint256",
          "name": "stake",
          "type": "uint256"
        },
        {
          "internalType": "enum TroveManager.Status",
          "name": "status",
          "type": "uint8"
        },
        {
          "internalType": "uint128",
          "name": "arrayIndex",
          "type": "uint128"
        }
      ],
      "stateMutability": "view",
      "type": "function"
    },
    {
      "inputs": [],
      "name": "_100pct",
      "outputs": [
        {
          "internalType": "uint256",
          "name": "",
          "type": "uint256"
        }
      ],
      "stateMutability": "view",
      "type": "function"
    },
    {
      "inputs": [],
      "name": "activePool",
      "outputs": [
        {
          "internalType": "contract IActivePool",
          "name": "",
          "type": "address"
        }
      ],
      "stateMutability": "view",
      "type": "function"
    },
    {
      "inputs": [
        {
          "internalType": "address",
          "name": "_borrower",
          "type": "address"
        },
        {
          "internalType": "address",
          "name": "_collateral",
          "type": "address"
        }
      ],
      "name": "addTroveOwnerToArray",
      "outputs": [
        {
          "internalType": "uint256",
          "name": "index",
          "type": "uint256"
        }
      ],
      "stateMutability": "nonpayable",
      "type": "function"
    },
    {
      "inputs": [
        {
          "internalType": "address",
          "name": "_borrower",
          "type": "address"
        },
        {
          "internalType": "address",
          "name": "_collateral",
          "type": "address"
        }
      ],
      "name": "applyPendingRewards",
      "outputs": [],
      "stateMutability": "nonpayable",
      "type": "function"
    },
    {
      "inputs": [],
      "name": "baseRate",
      "outputs": [
        {
          "internalType": "uint256",
          "name": "",
          "type": "uint256"
        }
      ],
      "stateMutability": "view",
      "type": "function"
    },
    {
      "inputs": [
        {
          "internalType": "address",
          "name": "_collateral",
          "type": "address"
        },
        {
          "internalType": "address[]",
          "name": "_troveArray",
          "type": "address[]"
        }
      ],
      "name": "batchLiquidateTroves",
      "outputs": [],
      "stateMutability": "nonpayable",
      "type": "function"
    },
    {
      "inputs": [],
      "name": "borrowerOperationsAddress",
      "outputs": [
        {
          "internalType": "address",
          "name": "",
          "type": "address"
        }
      ],
      "stateMutability": "view",
      "type": "function"
    },
    {
      "inputs": [
        {
          "internalType": "address",
          "name": "_redeemer",
          "type": "address"
        },
        {
          "internalType": "address",
          "name": "_collateral",
          "type": "address"
        },
        {
          "internalType": "uint256",
          "name": "_attemptedLUSDAmount",
          "type": "uint256"
        },
        {
          "internalType": "uint256",
          "name": "_actualLUSDAmount",
          "type": "uint256"
        },
        {
          "internalType": "uint256",
          "name": "_collSent",
          "type": "uint256"
        },
        {
          "internalType": "uint256",
          "name": "_collFee",
          "type": "uint256"
        }
      ],
      "name": "burnLUSDAndEmitRedemptionEvent",
      "outputs": [],
      "stateMutability": "nonpayable",
      "type": "function"
    },
    {
      "inputs": [
        {
          "internalType": "uint256",
          "name": "_ETHDrawn",
          "type": "uint256"
        }
      ],
      "name": "callGetRedemptionFee",
      "outputs": [
        {
          "internalType": "uint256",
          "name": "",
          "type": "uint256"
        }
      ],
      "stateMutability": "view",
      "type": "function"
    },
    {
      "inputs": [
        {
          "internalType": "address",
          "name": "_troveOwner",
          "type": "address"
        },
        {
          "internalType": "address",
          "name": "_collateral",
          "type": "address"
        }
      ],
      "name": "callInternalRemoveTroveOwner",
      "outputs": [],
      "stateMutability": "nonpayable",
      "type": "function"
    },
    {
      "inputs": [
        {
          "internalType": "address",
          "name": "_collateral",
          "type": "address"
        },
        {
          "internalType": "uint256",
          "name": "_price",
          "type": "uint256"
        }
      ],
      "name": "checkRecoveryMode",
      "outputs": [
        {
          "internalType": "bool",
          "name": "",
          "type": "bool"
        }
      ],
      "stateMutability": "view",
      "type": "function"
    },
    {
      "inputs": [
        {
          "internalType": "address",
          "name": "_borrower",
          "type": "address"
        },
        {
          "internalType": "address",
          "name": "_collateral",
          "type": "address"
        },
        {
          "internalType": "uint256",
          "name": "_closedStatusNum",
          "type": "uint256"
        }
      ],
      "name": "closeTrove",
      "outputs": [],
      "stateMutability": "nonpayable",
      "type": "function"
    },
    {
      "inputs": [],
      "name": "collateralConfig",
      "outputs": [
        {
          "internalType": "contract ICollateralConfig",
          "name": "",
          "type": "address"
        }
      ],
      "stateMutability": "view",
      "type": "function"
    },
    {
      "inputs": [
        {
          "internalType": "uint256",
          "name": "_coll",
          "type": "uint256"
        },
        {
          "internalType": "uint256",
          "name": "_debt",
          "type": "uint256"
        },
        {
          "internalType": "uint256",
          "name": "_price",
          "type": "uint256"
        },
        {
          "internalType": "uint256",
          "name": "_collDecimals",
          "type": "uint256"
        }
      ],
      "name": "computeICR",
      "outputs": [
        {
          "internalType": "uint256",
          "name": "",
          "type": "uint256"
        }
      ],
      "stateMutability": "pure",
      "type": "function"
    },
    {
      "inputs": [],
      "name": "decayBaseRateFromBorrowing",
      "outputs": [],
      "stateMutability": "nonpayable",
      "type": "function"
    },
    {
      "inputs": [
        {
          "internalType": "address",
          "name": "_borrower",
          "type": "address"
        },
        {
          "internalType": "address",
          "name": "_collateral",
          "type": "address"
        },
        {
          "internalType": "uint256",
          "name": "_collDecrease",
          "type": "uint256"
        }
      ],
      "name": "decreaseTroveColl",
      "outputs": [
        {
          "internalType": "uint256",
          "name": "",
          "type": "uint256"
        }
      ],
      "stateMutability": "nonpayable",
      "type": "function"
    },
    {
      "inputs": [
        {
          "internalType": "address",
          "name": "_borrower",
          "type": "address"
        },
        {
          "internalType": "address",
          "name": "_collateral",
          "type": "address"
        },
        {
          "internalType": "uint256",
          "name": "_debtDecrease",
          "type": "uint256"
        }
      ],
      "name": "decreaseTroveDebt",
      "outputs": [
        {
          "internalType": "uint256",
          "name": "",
          "type": "uint256"
        }
      ],
      "stateMutability": "nonpayable",
      "type": "function"
    },
    {
      "inputs": [],
      "name": "defaultPool",
      "outputs": [
        {
          "internalType": "contract IDefaultPool",
          "name": "",
          "type": "address"
        }
      ],
      "stateMutability": "view",
      "type": "function"
    },
    {
      "inputs": [
        {
          "internalType": "uint256",
          "name": "_debtVal",
          "type": "uint256"
        }
      ],
      "name": "getActualDebtFromComposite",
      "outputs": [
        {
          "internalType": "uint256",
          "name": "",
          "type": "uint256"
        }
      ],
      "stateMutability": "pure",
      "type": "function"
    },
    {
      "inputs": [
        {
          "internalType": "uint256",
          "name": "_LUSDDebt",
          "type": "uint256"
        }
      ],
      "name": "getBorrowingFee",
      "outputs": [
        {
          "internalType": "uint256",
          "name": "",
          "type": "uint256"
        }
      ],
      "stateMutability": "view",
      "type": "function"
    },
    {
      "inputs": [
        {
          "internalType": "uint256",
          "name": "_LUSDDebt",
          "type": "uint256"
        }
      ],
      "name": "getBorrowingFeeWithDecay",
      "outputs": [
        {
          "internalType": "uint256",
          "name": "",
          "type": "uint256"
        }
      ],
      "stateMutability": "view",
      "type": "function"
    },
    {
      "inputs": [],
      "name": "getBorrowingRate",
      "outputs": [
        {
          "internalType": "uint256",
          "name": "",
          "type": "uint256"
        }
      ],
      "stateMutability": "view",
      "type": "function"
    },
    {
      "inputs": [],
      "name": "getBorrowingRateWithDecay",
      "outputs": [
        {
          "internalType": "uint256",
          "name": "",
          "type": "uint256"
        }
      ],
      "stateMutability": "view",
      "type": "function"
    },
    {
      "inputs": [
        {
          "internalType": "uint256",
          "name": "_coll",
          "type": "uint256"
        }
      ],
      "name": "getCollGasCompensation",
      "outputs": [
        {
          "internalType": "uint256",
          "name": "",
          "type": "uint256"
        }
      ],
      "stateMutability": "pure",
      "type": "function"
    },
    {
      "inputs": [
        {
          "internalType": "uint256",
          "name": "_debt",
          "type": "uint256"
        }
      ],
      "name": "getCompositeDebt",
      "outputs": [
        {
          "internalType": "uint256",
          "name": "",
          "type": "uint256"
        }
      ],
      "stateMutability": "pure",
      "type": "function"
    },
    {
      "inputs": [
        {
          "internalType": "address",
          "name": "_borrower",
          "type": "address"
        },
        {
          "internalType": "address",
          "name": "_collateral",
          "type": "address"
        },
        {
          "internalType": "uint256",
          "name": "_price",
          "type": "uint256"
        }
      ],
      "name": "getCurrentICR",
      "outputs": [
        {
          "internalType": "uint256",
          "name": "",
          "type": "uint256"
        }
      ],
      "stateMutability": "view",
      "type": "function"
    },
    {
      "inputs": [
        {
          "internalType": "address",
          "name": "_borrower",
          "type": "address"
        },
        {
          "internalType": "address",
          "name": "_collateral",
          "type": "address"
        }
      ],
      "name": "getEntireDebtAndColl",
      "outputs": [
        {
          "internalType": "uint256",
          "name": "debt",
          "type": "uint256"
        },
        {
          "internalType": "uint256",
          "name": "coll",
          "type": "uint256"
        },
        {
          "internalType": "uint256",
          "name": "pendingLUSDDebtReward",
          "type": "uint256"
        },
        {
          "internalType": "uint256",
          "name": "pendingCollateralReward",
          "type": "uint256"
        }
      ],
      "stateMutability": "view",
      "type": "function"
    },
    {
      "inputs": [
        {
          "internalType": "address",
          "name": "_collateral",
          "type": "address"
        }
      ],
      "name": "getEntireSystemColl",
      "outputs": [
        {
          "internalType": "uint256",
          "name": "entireSystemColl",
          "type": "uint256"
        }
      ],
      "stateMutability": "view",
      "type": "function"
    },
    {
      "inputs": [
        {
          "internalType": "address",
          "name": "_collateral",
          "type": "address"
        }
      ],
      "name": "getEntireSystemDebt",
      "outputs": [
        {
          "internalType": "uint256",
          "name": "entireSystemDebt",
          "type": "uint256"
        }
      ],
      "stateMutability": "view",
      "type": "function"
    },
    {
      "inputs": [],
      "name": "getLUSDGasCompensation",
      "outputs": [
        {
          "internalType": "uint256",
          "name": "",
          "type": "uint256"
        }
      ],
      "stateMutability": "pure",
      "type": "function"
    },
    {
      "inputs": [
        {
          "internalType": "address",
          "name": "_borrower",
          "type": "address"
        },
        {
          "internalType": "address",
          "name": "_collateral",
          "type": "address"
        }
      ],
      "name": "getNominalICR",
      "outputs": [
        {
          "internalType": "uint256",
          "name": "",
          "type": "uint256"
        }
      ],
      "stateMutability": "view",
      "type": "function"
    },
    {
      "inputs": [
        {
          "internalType": "address",
          "name": "_borrower",
          "type": "address"
        },
        {
          "internalType": "address",
          "name": "_collateral",
          "type": "address"
        }
      ],
      "name": "getPendingCollateralReward",
      "outputs": [
        {
          "internalType": "uint256",
          "name": "",
          "type": "uint256"
        }
      ],
      "stateMutability": "view",
      "type": "function"
    },
    {
      "inputs": [
        {
          "internalType": "address",
          "name": "_borrower",
          "type": "address"
        },
        {
          "internalType": "address",
          "name": "_collateral",
          "type": "address"
        }
      ],
      "name": "getPendingLUSDDebtReward",
      "outputs": [
        {
          "internalType": "uint256",
          "name": "",
          "type": "uint256"
        }
      ],
      "stateMutability": "view",
      "type": "function"
    },
    {
      "inputs": [
        {
          "internalType": "uint256",
          "name": "_collateralDrawn",
          "type": "uint256"
        }
      ],
      "name": "getRedemptionFee",
      "outputs": [
        {
          "internalType": "uint256",
          "name": "",
          "type": "uint256"
        }
      ],
      "stateMutability": "view",
      "type": "function"
    },
    {
      "inputs": [
        {
          "internalType": "uint256",
          "name": "_collateralDrawn",
          "type": "uint256"
        }
      ],
      "name": "getRedemptionFeeWithDecay",
      "outputs": [
        {
          "internalType": "uint256",
          "name": "",
          "type": "uint256"
        }
      ],
      "stateMutability": "view",
      "type": "function"
    },
    {
      "inputs": [],
      "name": "getRedemptionRate",
      "outputs": [
        {
          "internalType": "uint256",
          "name": "",
          "type": "uint256"
        }
      ],
      "stateMutability": "view",
      "type": "function"
    },
    {
      "inputs": [],
      "name": "getRedemptionRateWithDecay",
      "outputs": [
        {
          "internalType": "uint256",
          "name": "",
          "type": "uint256"
        }
      ],
      "stateMutability": "view",
      "type": "function"
    },
    {
      "inputs": [
        {
          "internalType": "address",
          "name": "_collateral",
          "type": "address"
        },
        {
          "internalType": "uint256",
          "name": "_price",
          "type": "uint256"
        }
      ],
      "name": "getTCR",
      "outputs": [
        {
          "internalType": "uint256",
          "name": "",
          "type": "uint256"
        }
      ],
      "stateMutability": "view",
      "type": "function"
    },
    {
      "inputs": [
        {
          "internalType": "address",
          "name": "_borrower",
          "type": "address"
        },
        {
          "internalType": "address",
          "name": "_collateral",
          "type": "address"
        }
      ],
      "name": "getTroveColl",
      "outputs": [
        {
          "internalType": "uint256",
          "name": "",
          "type": "uint256"
        }
      ],
      "stateMutability": "view",
      "type": "function"
    },
    {
      "inputs": [
        {
          "internalType": "address",
          "name": "_borrower",
          "type": "address"
        },
        {
          "internalType": "address",
          "name": "_collateral",
          "type": "address"
        }
      ],
      "name": "getTroveDebt",
      "outputs": [
        {
          "internalType": "uint256",
          "name": "",
          "type": "uint256"
        }
      ],
      "stateMutability": "view",
      "type": "function"
    },
    {
      "inputs": [
        {
          "internalType": "address",
          "name": "_collateral",
          "type": "address"
        },
        {
          "internalType": "uint256",
          "name": "_index",
          "type": "uint256"
        }
      ],
      "name": "getTroveFromTroveOwnersArray",
      "outputs": [
        {
          "internalType": "address",
          "name": "",
          "type": "address"
        }
      ],
      "stateMutability": "view",
      "type": "function"
    },
    {
      "inputs": [
        {
          "internalType": "address",
          "name": "_collateral",
          "type": "address"
        }
      ],
      "name": "getTroveOwnersCount",
      "outputs": [
        {
          "internalType": "uint256",
          "name": "",
          "type": "uint256"
        }
      ],
      "stateMutability": "view",
      "type": "function"
    },
    {
      "inputs": [
        {
          "internalType": "address",
          "name": "_borrower",
          "type": "address"
        },
        {
          "internalType": "address",
          "name": "_collateral",
          "type": "address"
        }
      ],
      "name": "getTroveStake",
      "outputs": [
        {
          "internalType": "uint256",
          "name": "",
          "type": "uint256"
        }
      ],
      "stateMutability": "view",
      "type": "function"
    },
    {
      "inputs": [
        {
          "internalType": "address",
          "name": "_borrower",
          "type": "address"
        },
        {
          "internalType": "address",
          "name": "_collateral",
          "type": "address"
        }
      ],
      "name": "getTroveStatus",
      "outputs": [
        {
          "internalType": "uint256",
          "name": "",
          "type": "uint256"
        }
      ],
      "stateMutability": "view",
      "type": "function"
    },
    {
      "inputs": [
        {
          "internalType": "address",
          "name": "_borrower",
          "type": "address"
        },
        {
          "internalType": "address",
          "name": "_collateral",
          "type": "address"
        }
      ],
      "name": "hasPendingRewards",
      "outputs": [
        {
          "internalType": "bool",
          "name": "",
          "type": "bool"
        }
      ],
      "stateMutability": "view",
      "type": "function"
    },
    {
      "inputs": [
        {
          "internalType": "address",
          "name": "_borrower",
          "type": "address"
        },
        {
          "internalType": "address",
          "name": "_collateral",
          "type": "address"
        },
        {
          "internalType": "uint256",
          "name": "_collIncrease",
          "type": "uint256"
        }
      ],
      "name": "increaseTroveColl",
      "outputs": [
        {
          "internalType": "uint256",
          "name": "",
          "type": "uint256"
        }
      ],
      "stateMutability": "nonpayable",
      "type": "function"
    },
    {
      "inputs": [
        {
          "internalType": "address",
          "name": "_borrower",
          "type": "address"
        },
        {
          "internalType": "address",
          "name": "_collateral",
          "type": "address"
        },
        {
          "internalType": "uint256",
          "name": "_debtIncrease",
          "type": "uint256"
        }
      ],
      "name": "increaseTroveDebt",
      "outputs": [
        {
          "internalType": "uint256",
          "name": "",
          "type": "uint256"
        }
      ],
      "stateMutability": "nonpayable",
      "type": "function"
    },
    {
      "inputs": [
        {
          "internalType": "address",
          "name": "",
          "type": "address"
        }
      ],
      "name": "lastCollateralError_Redistribution",
      "outputs": [
        {
          "internalType": "uint256",
          "name": "",
          "type": "uint256"
        }
      ],
      "stateMutability": "view",
      "type": "function"
    },
    {
      "inputs": [],
      "name": "lastFeeOperationTime",
      "outputs": [
        {
          "internalType": "uint256",
          "name": "",
          "type": "uint256"
        }
      ],
      "stateMutability": "view",
      "type": "function"
    },
    {
      "inputs": [
        {
          "internalType": "address",
          "name": "",
          "type": "address"
        }
      ],
      "name": "lastLUSDDebtError_Redistribution",
      "outputs": [
        {
          "internalType": "uint256",
          "name": "",
          "type": "uint256"
        }
      ],
      "stateMutability": "view",
      "type": "function"
    },
    {
      "inputs": [
        {
          "internalType": "address",
          "name": "_borrower",
          "type": "address"
        },
        {
          "internalType": "address",
          "name": "_collateral",
          "type": "address"
        }
      ],
      "name": "liquidate",
      "outputs": [],
      "stateMutability": "nonpayable",
      "type": "function"
    },
    {
      "inputs": [
        {
          "internalType": "address",
          "name": "_collateral",
          "type": "address"
        },
        {
          "internalType": "uint256",
          "name": "_n",
          "type": "uint256"
        }
      ],
      "name": "liquidateTroves",
      "outputs": [],
      "stateMutability": "nonpayable",
      "type": "function"
    },
    {
      "inputs": [],
      "name": "lqtyStaking",
      "outputs": [
        {
          "internalType": "contract ILQTYStaking",
          "name": "",
          "type": "address"
        }
      ],
      "stateMutability": "view",
      "type": "function"
    },
    {
      "inputs": [],
      "name": "lqtyToken",
      "outputs": [
        {
          "internalType": "contract IERC20",
          "name": "",
          "type": "address"
        }
      ],
      "stateMutability": "view",
      "type": "function"
    },
    {
      "inputs": [],
      "name": "lusdToken",
      "outputs": [
        {
          "internalType": "contract ILUSDToken",
          "name": "",
          "type": "address"
        }
      ],
      "stateMutability": "view",
      "type": "function"
    },
    {
      "inputs": [],
      "name": "minutesPassedSinceLastFeeOp",
      "outputs": [
        {
          "internalType": "uint256",
          "name": "",
          "type": "uint256"
        }
      ],
      "stateMutability": "view",
      "type": "function"
    },
    {
      "inputs": [],
      "name": "owner",
      "outputs": [
        {
          "internalType": "address",
          "name": "",
          "type": "address"
        }
      ],
      "stateMutability": "view",
      "type": "function"
    },
    {
      "inputs": [],
      "name": "priceFeed",
      "outputs": [
        {
          "internalType": "contract IPriceFeed",
          "name": "",
          "type": "address"
        }
      ],
      "stateMutability": "view",
      "type": "function"
    },
    {
      "inputs": [
        {
          "internalType": "address",
          "name": "_id",
          "type": "address"
        },
        {
          "internalType": "address",
          "name": "_collateral",
          "type": "address"
        },
        {
          "internalType": "uint256",
          "name": "_newNICR",
          "type": "uint256"
        },
        {
          "internalType": "address",
          "name": "_prevId",
          "type": "address"
        },
        {
          "internalType": "address",
          "name": "_nextId",
          "type": "address"
        }
      ],
      "name": "reInsert",
      "outputs": [],
      "stateMutability": "nonpayable",
      "type": "function"
    },
    {
      "inputs": [
        {
          "internalType": "address",
          "name": "_borrower",
          "type": "address"
        },
        {
          "internalType": "address",
          "name": "_collateral",
          "type": "address"
        },
        {
          "internalType": "uint256",
          "name": "_LUSD",
          "type": "uint256"
        },
        {
          "internalType": "uint256",
          "name": "_collAmount",
          "type": "uint256"
        }
      ],
      "name": "redeemCloseTrove",
      "outputs": [],
      "stateMutability": "nonpayable",
      "type": "function"
    },
    {
      "inputs": [
        {
          "internalType": "address",
          "name": "_collateral",
          "type": "address"
        },
        {
          "internalType": "uint256",
          "name": "_LUSDamount",
          "type": "uint256"
        },
        {
          "internalType": "address",
          "name": "_firstRedemptionHint",
          "type": "address"
        },
        {
          "internalType": "address",
          "name": "_upperPartialRedemptionHint",
          "type": "address"
        },
        {
          "internalType": "address",
          "name": "_lowerPartialRedemptionHint",
          "type": "address"
        },
        {
          "internalType": "uint256",
          "name": "_partialRedemptionHintNICR",
          "type": "uint256"
        },
        {
          "internalType": "uint256",
          "name": "_maxIterations",
          "type": "uint256"
        },
        {
          "internalType": "uint256",
          "name": "_maxFeePercentage",
          "type": "uint256"
        }
      ],
      "name": "redeemCollateral",
      "outputs": [],
      "stateMutability": "nonpayable",
      "type": "function"
    },
    {
      "inputs": [],
      "name": "redemptionHelper",
      "outputs": [
        {
          "internalType": "contract IRedemptionHelper",
          "name": "",
          "type": "address"
        }
      ],
      "stateMutability": "view",
      "type": "function"
    },
    {
      "inputs": [
        {
          "internalType": "address",
          "name": "_borrower",
          "type": "address"
        },
        {
          "internalType": "address",
          "name": "_collateral",
          "type": "address"
        }
      ],
      "name": "removeStake",
      "outputs": [],
      "stateMutability": "nonpayable",
      "type": "function"
    },
    {
      "inputs": [
        {
          "internalType": "address",
          "name": "",
          "type": "address"
        },
        {
          "internalType": "address",
          "name": "",
          "type": "address"
        }
      ],
      "name": "rewardSnapshots",
      "outputs": [
        {
          "internalType": "uint256",
          "name": "collAmount",
          "type": "uint256"
        },
        {
          "internalType": "uint256",
          "name": "LUSDDebt",
          "type": "uint256"
        }
      ],
      "stateMutability": "view",
      "type": "function"
    },
    {
      "inputs": [
        {
          "internalType": "address",
          "name": "_borrowerOperationsAddress",
          "type": "address"
        },
        {
          "internalType": "address",
          "name": "_collateralConfigAddress",
          "type": "address"
        },
        {
          "internalType": "address",
          "name": "_activePoolAddress",
          "type": "address"
        },
        {
          "internalType": "address",
          "name": "_defaultPoolAddress",
          "type": "address"
        },
        {
          "internalType": "address",
          "name": "_stabilityPoolAddress",
          "type": "address"
        },
        {
          "internalType": "address",
          "name": "_gasPoolAddress",
          "type": "address"
        },
        {
          "internalType": "address",
          "name": "_collSurplusPoolAddress",
          "type": "address"
        },
        {
          "internalType": "address",
          "name": "_priceFeedAddress",
          "type": "address"
        },
        {
          "internalType": "address",
          "name": "_lusdTokenAddress",
          "type": "address"
        },
        {
          "internalType": "address",
          "name": "_sortedTrovesAddress",
          "type": "address"
        },
        {
          "internalType": "address",
          "name": "_lqtyTokenAddress",
          "type": "address"
        },
        {
          "internalType": "address",
          "name": "_lqtyStakingAddress",
          "type": "address"
        },
        {
          "internalType": "address",
          "name": "_redemptionHelperAddress",
          "type": "address"
        }
      ],
      "name": "setAddresses",
      "outputs": [],
      "stateMutability": "nonpayable",
      "type": "function"
    },
    {
      "inputs": [
        {
          "internalType": "uint256",
          "name": "_baseRate",
          "type": "uint256"
        }
      ],
      "name": "setBaseRate",
      "outputs": [],
      "stateMutability": "nonpayable",
      "type": "function"
    },
    {
      "inputs": [],
      "name": "setLastFeeOpTimeToNow",
      "outputs": [],
      "stateMutability": "nonpayable",
      "type": "function"
    },
    {
      "inputs": [
        {
          "internalType": "address",
          "name": "_borrower",
          "type": "address"
        },
        {
          "internalType": "address",
          "name": "_collateral",
          "type": "address"
        },
        {
          "internalType": "uint256",
          "name": "_num",
          "type": "uint256"
        }
      ],
      "name": "setTroveStatus",
      "outputs": [],
      "stateMutability": "nonpayable",
      "type": "function"
    },
    {
      "inputs": [],
      "name": "sortedTroves",
      "outputs": [
        {
          "internalType": "contract ISortedTroves",
          "name": "",
          "type": "address"
        }
      ],
      "stateMutability": "view",
      "type": "function"
    },
    {
      "inputs": [],
      "name": "stabilityPool",
      "outputs": [
        {
          "internalType": "contract IStabilityPool",
          "name": "",
          "type": "address"
        }
      ],
      "stateMutability": "view",
      "type": "function"
    },
    {
      "inputs": [
        {
          "internalType": "address",
          "name": "",
          "type": "address"
        }
      ],
      "name": "totalCollateralSnapshot",
      "outputs": [
        {
          "internalType": "uint256",
          "name": "",
          "type": "uint256"
        }
      ],
      "stateMutability": "view",
      "type": "function"
    },
    {
      "inputs": [
        {
          "internalType": "address",
          "name": "",
          "type": "address"
        }
      ],
      "name": "totalStakes",
      "outputs": [
        {
          "internalType": "uint256",
          "name": "",
          "type": "uint256"
        }
      ],
      "stateMutability": "view",
      "type": "function"
    },
    {
      "inputs": [
        {
          "internalType": "address",
          "name": "",
          "type": "address"
        }
      ],
      "name": "totalStakesSnapshot",
      "outputs": [
        {
          "internalType": "uint256",
          "name": "",
          "type": "uint256"
        }
      ],
      "stateMutability": "view",
      "type": "function"
    },
    {
      "inputs": [],
      "name": "unprotectedDecayBaseRateFromBorrowing",
      "outputs": [
        {
          "internalType": "uint256",
          "name": "",
          "type": "uint256"
        }
      ],
      "stateMutability": "nonpayable",
      "type": "function"
    },
    {
      "inputs": [
        {
          "internalType": "uint256",
          "name": "_collateralDrawn",
          "type": "uint256"
        },
        {
          "internalType": "uint256",
          "name": "_price",
          "type": "uint256"
        },
        {
          "internalType": "uint256",
          "name": "_collDecimals",
          "type": "uint256"
        },
        {
          "internalType": "uint256",
          "name": "_totalLUSDSupply",
          "type": "uint256"
        }
      ],
      "name": "updateBaseRateFromRedemption",
      "outputs": [
        {
          "internalType": "uint256",
          "name": "",
          "type": "uint256"
        }
      ],
      "stateMutability": "nonpayable",
      "type": "function"
    },
    {
      "inputs": [
        {
          "internalType": "address",
          "name": "_borrower",
          "type": "address"
        },
        {
          "internalType": "address",
          "name": "_collateral",
          "type": "address"
        },
        {
          "internalType": "uint256",
          "name": "_newDebt",
          "type": "uint256"
        },
        {
          "internalType": "uint256",
          "name": "_newColl",
          "type": "uint256"
        }
      ],
      "name": "updateDebtAndCollAndStakesPostRedemption",
      "outputs": [],
      "stateMutability": "nonpayable",
      "type": "function"
    },
    {
      "inputs": [
        {
          "internalType": "address",
          "name": "_borrower",
          "type": "address"
        },
        {
          "internalType": "address",
          "name": "_collateral",
          "type": "address"
        }
      ],
      "name": "updateStakeAndTotalStakes",
      "outputs": [
        {
          "internalType": "uint256",
          "name": "",
          "type": "uint256"
        }
      ],
      "stateMutability": "nonpayable",
      "type": "function"
    },
    {
      "inputs": [
        {
          "internalType": "address",
          "name": "_borrower",
          "type": "address"
        },
        {
          "internalType": "address",
          "name": "_collateral",
          "type": "address"
        }
      ],
      "name": "updateTroveRewardSnapshots",
      "outputs": [],
      "stateMutability": "nonpayable",
      "type": "function"
    }
  ],
  "bytecode": "0x608060405234801561001057600080fd5b50600380546001600160a01b031916331790556161d580620000336000396000f3fe608060405234801561001057600080fd5b50600436106105045760003560e01c806386b9d81f11610299578063c7a1bbdb11610167578063de665835116100d9578063f36b242511610092578063f36b24251461112d578063f3e2c60814611135578063f92d343314610686578063fb4e863c14611163578063fe4b0df614611191578063febb33de146111c757610504565b8063de6658351461103b578063df349ed514611061578063df4fb9ef14611087578063e85b603c146110b5578063eeb20c62146110d2578063f2b586c2146110fe57610504565b8063d5b356351161012b578063d5b3563514610f06578063da15d85414610f23578063da303f1414610f49578063db5e732114610f51578063dbe9f91914610fdf578063dc3fe76f1461100d57610504565b8063c7a1bbdb14610e79578063c7b5548114610ea7578063c93fd44a14610eaf578063d380a37c14610ef6578063d5205e4814610efe57610504565b8063aad646131161020b578063b7f8cf9b116101c4578063b7f8cf9b14610db9578063b83f91a214610dc1578063bc9b5bd514610dc9578063bed8854b14610e0f578063bfce1fd714610e4b578063c52861f214610e7157610504565b8063aad6461314610ceb578063ae91875414610d27578063af3700dc14610d2f578063aff5917f14610d55578063b1eafaab14610d5d578063b64500c714610d9357610504565b80639e86d0c41161025d5780639e86d0c414610c4b578063a1a79bea14610c71578063a20baee614610959578063a3a6401714610ca0578063a537896f14610ca8578063a9a6363414610cc557610504565b806386b9d81f14610b855780638a25363c14610bb35780638a490ebf14610be95780638da5cb5b14610c1557806390ec230114610c1d57610504565b806345978366116103d6578063631203b0116103485780637c92590f116103015780637c92590f146109c55780637f258d5014610a785780637f55115714610aef5780637f7dde4a14610b1b5780638424ce7714610b235780638463b16a14610b4f57610504565b8063631203b01461093457806366ca4a211461095157806372fe25aa14610959578063738009e614610961578063741bef1a1461098f578063752fd9a11461099757610504565b806354062a451161039a57806354062a451461089b5780635c0ab4de146108b85780635dba4c4a146108c0578063614d1209146108c857806361ec893d146108f6578063621117b6146108fe57610504565b806345978366146107f7578063477d66cf1461082d5780634870dd9a1461084a57806349fe8858146108525780634ff814431461087e57610504565b806326f7a0d41161047a5780632fae7700116104335780632fae7700146106e0578063305a5369146107165780633cc74225146107445780633d2163d61461074c57806340a44bd11461077a57806340c315d2146107d157610504565b806326f7a0d41461060c57806327d04b351461066057806328d28b5b146106865780632b11551a1461068e5780632dcfca60146106965780632e86bbd8146106d857610504565b8063105bb15c116104cc578063105bb15c146105c75780631bf43555146105cf5780631d08837b146105d75780631f68f20a146105f45780631f7af3c3146105fc578063240926691461060457610504565b8063043782fb14610509578063048c661d14610513578063071a754114610537578063099a676e146105515780630e0d7bfe14610599575b600080fd5b6105116111e4565b005b61051b6111ea565b604080516001600160a01b039092168252519081900360200190f35b61053f6111f9565b60408051918252519081900360200190f35b610511600480360360c081101561056757600080fd5b506001600160a01b03813581169160208101359091169060408101359060608101359060808101359060a001356111fe565b61053f600480360360408110156105af57600080fd5b506001600160a01b03813581169160200135166112d3565b61053f6112f9565b61053f611308565b610511600480360360208110156105ed57600080fd5b5035611315565b61053f61131a565b61051b611320565b61053f61132f565b61063a6004803603604081101561062257600080fd5b506001600160a01b0381358116916020013516611342565b604080519485526020850193909352838301919091526060830152519081900360800190f35b61053f6004803603602081101561067657600080fd5b50356001600160a01b03166113b9565b61053f6114cf565b61053f6114e0565b6106c4600480360360408110156106ac57600080fd5b506001600160a01b03813581169160200135166114ed565b604080519115158252519081900360200190f35b61053f61156d565b61053f600480360360608110156106f657600080fd5b506001600160a01b03813581169160208101359091169060400135611579565b61053f6004803603604081101561072c57600080fd5b506001600160a01b03813581169160200135166115f4565b61051b611622565b6105116004803603604081101561076257600080fd5b506001600160a01b0381358116916020013516611631565b610511600480360361010081101561079157600080fd5b506001600160a01b038135811691602081013591604082013581169160608101358216916080820135169060a08101359060c08101359060e0013561165a565b61053f600480360360208110156107e757600080fd5b50356001600160a01b0316611706565b61053f6004803603606081101561080d57600080fd5b506001600160a01b03813581169160208101359091169060400135611721565b61053f6004803603602081101561084357600080fd5b5035611766565b61053f611779565b61053f6004803603604081101561086857600080fd5b506001600160a01b03813516906020013561177e565b61053f6004803603602081101561089457600080fd5b5035611806565b61053f600480360360208110156108b157600080fd5b5035611811565b61051b61181c565b61051161182b565b61053f600480360360408110156108de57600080fd5b506001600160a01b0381358116916020013516611894565b61053f6118cd565b6105116004803603606081101561091457600080fd5b506001600160a01b038135811691602081013590911690604001356118d2565b61053f6004803603602081101561094a57600080fd5b50356118f0565b61053f6118fd565b61053f61190f565b61053f6004803603604081101561097757600080fd5b506001600160a01b038135811691602001351661191b565b61051b611a86565b61053f600480360360408110156109ad57600080fd5b506001600160a01b0381358116916020013516611a95565b610511600480360360408110156109db57600080fd5b6001600160a01b038235169190810190604081016020820135640100000000811115610a0657600080fd5b820183602082011115610a1857600080fd5b80359060200191846020830284011164010000000083111715610a3a57600080fd5b919080806020026020016040519081016040528093929190818152602001838360200280828437600092019190915250929550611adb945050505050565b610aa660048036036040811015610a8e57600080fd5b506001600160a01b0381358116916020013516611fe6565b60405180868152602001858152602001848152602001836004811115610ac857fe5b60ff1681526001600160801b03909216602083015250604080519182900301945092505050f35b61051160048036036040811015610b0557600080fd5b506001600160a01b03813516906020013561202b565b61051b61232c565b61051b60048036036040811015610b3957600080fd5b506001600160a01b03813516906020013561233b565b61053f60048036036060811015610b6557600080fd5b506001600160a01b0381358116916020810135909116906040013561237b565b61051160048036036040811015610b9b57600080fd5b506001600160a01b03813581169160200135166123ef565b61051160048036036060811015610bc957600080fd5b506001600160a01b03813581169160208101359091169060400135612453565b6106c460048036036040811015610bff57600080fd5b506001600160a01b0381351690602001356124ad565b61051b6125be565b61053f60048036036040811015610c3357600080fd5b506001600160a01b03813581169160200135166125cd565b61053f60048036036020811015610c6157600080fd5b50356001600160a01b0316612676565b61053f60048036036080811015610c8757600080fd5b5080359060208101359060408101359060600135612746565b61051b612801565b61053f60048036036020811015610cbe57600080fd5b5035612810565b61053f60048036036020811015610cdb57600080fd5b50356001600160a01b031661281b565b61051160048036036080811015610d0157600080fd5b506001600160a01b0381358116916020810135909116906040810135906060013561282d565b61051b6128f1565b61053f60048036036020811015610d4557600080fd5b50356001600160a01b0316612900565b61051b612912565b61053f60048036036060811015610d7357600080fd5b506001600160a01b03813581169160208101359091169060400135612921565b61053f60048036036020811015610da957600080fd5b50356001600160a01b03166129c0565b61051b6129d2565b61051b6129e1565b610511600480360360a0811015610ddf57600080fd5b506001600160a01b03813581169160208101358216916040820135916060810135821691608090910135166129f0565b61051160048036036080811015610e2557600080fd5b506001600160a01b03813581169160208101359091169060408101359060600135612a84565b61053f60048036036020811015610e6157600080fd5b50356001600160a01b0316612cab565b61053f612cbd565b61051160048036036040811015610e8f57600080fd5b506001600160a01b0381358116916020013516612ccf565b61053f612ce5565b610edd60048036036040811015610ec557600080fd5b506001600160a01b0381358116916020013516612cf1565b6040805192835260208301919091528051918290030190f35b61053f612d15565b61053f612d1b565b61053f60048036036020811015610f1c57600080fd5b5035612d27565b61053f60048036036020811015610f3957600080fd5b50356001600160a01b0316612d3a565b61053f612d4c565b61051160048036036101a0811015610f6857600080fd5b506001600160a01b038135811691602081013582169160408201358116916060810135821691608082013581169160a081013582169160c082013581169160e08101358216916101008201358116916101208101358216916101408201358116916101608101358216916101809091013516612d7c565b61053f60048036036040811015610ff557600080fd5b506001600160a01b038135811691602001351661333a565b61053f6004803603604081101561102357600080fd5b506001600160a01b038135811691602001351661334e565b61053f6004803603602081101561105157600080fd5b50356001600160a01b031661337c565b61053f6004803603602081101561107757600080fd5b50356001600160a01b031661338e565b6105116004803603604081101561109d57600080fd5b506001600160a01b03813581169160200135166133a0565b61053f600480360360208110156110cb57600080fd5b50356133c6565b61051b600480360360408110156110e857600080fd5b506001600160a01b0381351690602001356133d3565b61053f6004803603608081101561111457600080fd5b5080359060208101359060408101359060600135613408565b61053f613416565b61053f6004803603604081101561114b57600080fd5b506001600160a01b0381358116916020013516613423565b6105116004803603604081101561117957600080fd5b506001600160a01b038135811691602001351661344e565b61053f600480360360608110156111a757600080fd5b506001600160a01b03813581169160208101359091169060400135613460565b61053f600480360360208110156111dd57600080fd5b50356134a2565b42600f55565b6006546001600160a01b031681565b600281565b6112066134b3565b60095460408051632770a7eb60e21b81526001600160a01b0389811660048301526024820187905291519190921691639dc29fac91604480830192600092919082900301818387803b15801561125b57600080fd5b505af115801561126f573d6000803e3d6000fd5b5050604080516001600160a01b038916815260208101889052808201879052606081018690526080810185905290517f08b6f1ce3f9ab2722e8ea40c31a3e3a806a41702c5994f29af43dc0c1f2837df93509081900360a0019150a1505050505050565b60006112dd6134cc565b6112e783836134e3565b6001600160801b031690505b92915050565b6000611303613581565b905090565b6804e1003b28d928000081565b600e55565b600e5481565b600a546001600160a01b031681565b6064670de0b6b3a76400005b0460050281565b6001600160a01b0382811660009081526010602090815260408083209385168352929052908120805460019091015490918061137e868661191b565b915061138a8686611a95565b905061139c848363ffffffff61359d16565b93506113ae838263ffffffff61359d16565b925092959194509250565b6000805460408051634b14fa8760e01b81526001600160a01b038581166004830152915184939290921691634b14fa8791602480820192602092909190829003018186803b15801561140a57600080fd5b505afa15801561141e573d6000803e3d6000fd5b505050506040513d602081101561143457600080fd5b505160015460408051634b14fa8760e01b81526001600160a01b03878116600483015291519394506000939190921691634b14fa87916024808301926020929190829003018186803b15801561148957600080fd5b505afa15801561149d573d6000803e3d6000fd5b505050506040513d60208110156114b357600080fd5b505190506114c7828263ffffffff61359d16565b949350505050565b6103e8670de0b6b3a764000061133b565b6000611303600e546135f7565b600060016001600160a01b0380851660009081526010602090815260408083209387168352929052206003015460ff16600481111561152857fe5b14611535575060006112f3565b506001600160a01b03908116600081815260146020908152604080832054959094168252601681528382209282529190915220541090565b678ac7230489e8000081565b60006115836134cc565b6001600160a01b0380851660009081526010602090815260408083209387168352929052908120600101546115be908463ffffffff61362d16565b6001600160a01b0380871660009081526010602090815260408083209389168352929052206001018190559150505b9392505050565b6001600160a01b03918216600090815260106020908152604080832093909416825291909152206001015490565b6001546001600160a01b031681565b6001600160a01b03811660009081526017602052604090205461165583838361366f565b505050565b600d5460408051635e275a7d60e01b81526001600160a01b038b81166004830152336024830152604482018b90528981166064830152888116608483015287811660a483015260c4820187905260e48201869052610104820185905291519190921691635e275a7d9161012480830192600092919082900301818387803b1580156116e457600080fd5b505af11580156116f8573d6000803e3d6000fd5b505050505050505050505050565b6001600160a01b031660009081526017602052604090205490565b600061172b6134cc565b6001600160a01b0380851660009081526010602090815260408083209387168352929052908120600101546115be908463ffffffff61359d16565b60006112f36117736118fd565b83613881565b60c881565b6005546040805163eb7aac5f60e01b81526001600160a01b03858116600483015291516000938493169163eb7aac5f916024808301926020929190829003018186803b1580156117cd57600080fd5b505afa1580156117e1573d6000803e3d6000fd5b505050506040513d60208110156117f757600080fd5b505190506114c784848361389f565b60006112f3826138d0565b60006112f3826138ea565b6005546001600160a01b031681565b6118336134cc565b600061183d613904565b9050670de0b6b3a764000081111561185157fe5b600e8190556040805182815290517fc454ee9b76c52f782a256af821b857ca6e125d1e3333bcede402fec2bed9600c9181900360200190a161189161394f565b50565b6001600160a01b03808316600090815260106020908152604080832093851683529290529081206003015460ff1660048111156115ed57fe5b603c81565b6118da6139ab565b61165583838360048111156118eb57fe5b6139d7565b60006112f3611773613416565b600061130361190a613904565b613b37565b670de0b6b3a764000081565b6001600160a01b0380831660009081526016602090815260408083209385168352928152828220600101546015909152918120549091908290611964908363ffffffff61362d16565b90508015806119aa575060016001600160a01b0380871660009081526010602090815260408083209389168352929052206003015460ff1660048111156119a757fe5b14155b156119ba576000925050506112f3565b6001600160a01b03808616600090815260106020908152604080832088851680855290835281842060020154600554835163eb7aac5f60e01b8152600481019390935292519095929092169263eb7aac5f92602480840193829003018186803b158015611a2657600080fd5b505afa158015611a3a573d6000803e3d6000fd5b505050506040513d6020811015611a5057600080fd5b505190506000611a7a600a83900a611a6e858763ffffffff613b5e16565b9063ffffffff613bb716565b98975050505050505050565b6002546001600160a01b031681565b6001600160a01b0380831660009081526016602090815260408083209385168352928152828220546014909152918120549091908290611964908363ffffffff61362d16565b8051611ae657600080fd5b6000546001546006546001600160a01b03928316929182169116611b08616025565b611b1061606c565b6005546040805163eb7aac5f60e01b81526001600160a01b038a811660048301529151919092169163eb7aac5f916024808301926020929190829003018186803b158015611b5d57600080fd5b505afa158015611b71573d6000803e3d6000fd5b505050506040513d6020811015611b8757600080fd5b505182526005546040805163453ebeb560e11b81526001600160a01b038a8116600483015291519190921691638a7d7d6a916024808301926020929190829003018186803b158015611bd857600080fd5b505afa158015611bec573d6000803e3d6000fd5b505050506040513d6020811015611c0257600080fd5b5051602083810191909152600554604080516311e2c60b60e11b81526001600160a01b038b81166004830152915191909216926323c58c169260248082019391829003018186803b158015611c5657600080fd5b505afa158015611c6a573d6000803e3d6000fd5b505050506040513d6020811015611c8057600080fd5b50516040808401919091526002548151635670bcc760e11b81526001600160a01b038a811660048301529251929091169163ace1798e916024808201926020929091908290030181600087803b158015611cd957600080fd5b505af1158015611ced573d6000803e3d6000fd5b505050506040513d6020811015611d0357600080fd5b50516060830152604080516326fcbc6b60e21b815290516001600160a01b03851691639bf2f1ac916004808301926020929190829003018186803b158015611d4a57600080fd5b505afa158015611d5e573d6000803e3d6000fd5b505050506040513d6020811015611d7457600080fd5b50516080830152606082015160208301518351611d94928a929091613bf9565b15801560a0840152611dbd57611db6858589856060015186608001518b613c13565b9050611ddb565b611dd88585898560600151866040015187608001518c613fe2565b90505b6000816020015111611dec57600080fd5b826001600160a01b031663e66667338883608001518460a001516040518463ffffffff1660e01b815260040180846001600160a01b03166001600160a01b031681526020018381526020018281526020019350505050600060405180830381600087803b158015611e5c57600080fd5b505af1158015611e70573d6000803e3d6000fd5b50505050611e8e8585898460c001518560e0015187600001516140b1565b61010081015115611f15576008546101008201516040805163715aa61b60e01b81526001600160a01b038b8116600483015293841660248201526044810192909252519187169163715aa61b9160648082019260009290919082900301818387803b158015611efc57600080fd5b505af1158015611f10573d6000803e3d6000fd5b505050505b611f248588836040015161444c565b602081015160c083015261010081015160408201518251611f5c9291611f50919063ffffffff61362d16565b9063ffffffff61362d16565b60e0830181905260c083015160408084015160608086015183516001600160a01b038e168152602081019590955284840195909552830152608082019290925290517fa3f221854f649364e9a3bb384dd1ff938482664f4a0eac0f6e39a542f5193bd39181900360a00190a1611fdd858833846060015185604001516145d9565b50505050505050565b601060209081526000928352604080842090915290825290208054600182015460028301546003909301549192909160ff81169061010090046001600160801b031685565b6000546001546006546001600160a01b0392831692918216911661204d616025565b61205561606c565b6005546040805163453ebeb560e11b81526001600160a01b038a8116600483015291519190921691638a7d7d6a916024808301926020929190829003018186803b1580156120a257600080fd5b505afa1580156120b6573d6000803e3d6000fd5b505050506040513d60208110156120cc57600080fd5b50516020838101919091526005546040805163eb7aac5f60e01b81526001600160a01b038b811660048301529151919092169263eb7aac5f9260248082019391829003018186803b15801561212057600080fd5b505afa158015612134573d6000803e3d6000fd5b505050506040513d602081101561214a57600080fd5b50518252600554604080516311e2c60b60e11b81526001600160a01b038a81166004830152915191909216916323c58c16916024808301926020929190829003018186803b15801561219b57600080fd5b505afa1580156121af573d6000803e3d6000fd5b505050506040513d60208110156121c557600080fd5b50516040808401919091526002548151635670bcc760e11b81526001600160a01b038a811660048301529251929091169163ace1798e916024808201926020929091908290030181600087803b15801561221e57600080fd5b505af1158015612232573d6000803e3d6000fd5b505050506040513d602081101561224857600080fd5b50516060830152604080516326fcbc6b60e21b815290516001600160a01b03851691639bf2f1ac916004808301926020929190829003018186803b15801561228f57600080fd5b505afa1580156122a3573d6000803e3d6000fd5b505050506040513d60208110156122b957600080fd5b505160808301526060820151602083015183516122d9928a929091613bf9565b15801560a084015261231157611db68585600c60009054906101000a90046001600160a01b03168a866060015187608001518c6146bf565b611dd88585898560600151866040015187608001518c614bea565b6000546001600160a01b031681565b6001600160a01b038216600090815260176020526040812080548390811061235f57fe5b6000918252602090912001546001600160a01b03169392505050565b60006123856134cc565b6001600160a01b0380851660009081526010602090815260408083209387168352929052908120546123bd908463ffffffff61362d16565b6001600160a01b0380871660009081526010602090815260408083209389168352929052208190559150509392505050565b6123f98282614d27565b60408051600180825281830190925260609160208083019080368337019050509050828160008151811061242957fe5b60200260200101906001600160a01b031690816001600160a01b0316815250506116558282611adb565b61245b6134cc565b80600481111561246757fe5b6001600160a01b038085166000908152601060209081526040808320938716835292905220600301805460ff191660018360048111156124a357fe5b0217905550505050565b6005546040805163453ebeb560e11b81526001600160a01b038581166004830152915160009384931691638a7d7d6a916024808301926020929190829003018186803b1580156124fc57600080fd5b505afa158015612510573d6000803e3d6000fd5b505050506040513d602081101561252657600080fd5b50516005546040805163eb7aac5f60e01b81526001600160a01b0388811660048301529151939450600093919092169163eb7aac5f916024808301926020929190829003018186803b15801561257b57600080fd5b505afa15801561258f573d6000803e3d6000fd5b505050506040513d60208110156125a557600080fd5b505190506125b585858484613bf9565b95945050505050565b6003546001600160a01b031681565b60008060006125dc8585614d6a565b6005546040805163eb7aac5f60e01b81526001600160a01b038981166004830152915194965092945060009391169163eb7aac5f916024808301926020929190829003018186803b15801561263057600080fd5b505afa158015612644573d6000803e3d6000fd5b505050506040513d602081101561265a57600080fd5b50519050600061266b848484614e11565b979650505050505050565b6000805460408051639b56d6c960e01b81526001600160a01b038581166004830152915184939290921691639b56d6c991602480820192602092909190829003018186803b1580156126c757600080fd5b505afa1580156126db573d6000803e3d6000fd5b505050506040513d60208110156126f157600080fd5b505160015460408051639b56d6c960e01b81526001600160a01b03878116600483015291519394506000939190921691639b56d6c9916024808301926020929190829003018186803b15801561148957600080fd5b60006127506134b3565b600061275a613904565b9050600061277c84611a6e886127708b8a614e55565b9063ffffffff613b5e16565b905060006127a161279483600263ffffffff613bb716565b849063ffffffff61359d16565b90506127b581670de0b6b3a7640000614e9d565b9050600081116127c157fe5b600e8190556040805182815290517fc454ee9b76c52f782a256af821b857ca6e125d1e3333bcede402fec2bed9600c9181900360200190a161266b61394f565b600b546001600160a01b031681565b60006112f382614eb3565b60156020526000908152604090205481565b6128356134b3565b6001600160a01b03848116600090815260106020908152604080832093871683529290522082815560010181905561286d8484614eba565b506001600160a01b038085166000818152601060209081526040808320948816808452948252918290206002015482519485529084018690529083018490526060830181905290916000805160206161808339815191529186918691869160039060808101825b60ff1681526020019550505050505060405180910390a250505050565b600c546001600160a01b031681565b60126020526000908152604090205481565b600d546001600160a01b031681565b60008060006129308686614d6a565b6005546040805163eb7aac5f60e01b81526001600160a01b038a81166004830152915194965092945060009391169163eb7aac5f916024808301926020929190829003018186803b15801561298457600080fd5b505afa158015612998573d6000803e3d6000fd5b505050506040513d60208110156129ae57600080fd5b505190506000611a7a84848885614f9e565b60146020526000908152604090205481565b6004546001600160a01b031681565b6009546001600160a01b031681565b6129f86134b3565b600c546040805163bc9b5bd560e01b81526001600160a01b038881166004830152878116602483015260448201879052858116606483015284811660848301529151919092169163bc9b5bd59160a480830192600092919082900301818387803b158015612a6557600080fd5b505af1158015612a79573d6000803e3d6000fd5b505050505050505050565b612a8c6134b3565b60095460075460408051632770a7eb60e21b81526001600160a01b0392831660048201526024810186905290519190921691639dc29fac91604480830192600092919082900301818387803b158015612ae457600080fd5b505af1158015612af8573d6000803e3d6000fd5b50506000805460408051633aacc81560e01b81526001600160a01b038981166004830152602482018990529151919092169450633aacc81593506044808301939282900301818387803b158015612b4e57600080fd5b505af1158015612b62573d6000803e3d6000fd5b505060085460408051633fa5152d60e21b81526001600160a01b038981166004830152888116602483015260448201879052915191909216935063fe9454b49250606480830192600092919082900301818387803b158015612bc357600080fd5b505af1158015612bd7573d6000803e3d6000fd5b5050600080546008546040805163715aa61b60e01b81526001600160a01b038a81166004830152928316602482015260448101889052905191909216945063715aa61b93506064808301939282900301818387803b158015612c3857600080fd5b505af1158015612c4c573d6000803e3d6000fd5b50505050836001600160a01b0316600080516020616180833981519152846000806000600360405180866001600160a01b03166001600160a01b031681526020018581526020018481526020018381526020018260038111156128d457fe5b60186020526000908152604090205481565b6000611303612cca613904565b6135f7565b612cd76134cc565b612ce18282614fdd565b5050565b670ddd4b8c6c7d70d881565b60166020908152600092835260408084209091529082529020805460019091015482565b600f5481565b678ac7230489e8000090565b60006112f3612d34612cbd565b83615065565b60196020526000908152604090205481565b6000612d56613904565b600e55670de0b6b3a7640000600e541115612d6d57fe5b612d7561394f565b50600e5490565b6003546001600160a01b03163314612d9357600080fd5b612d9c8d615092565b612da58c615092565b612dae8b615092565b612db78a615092565b612dc089615092565b612dc988615092565b612dd287615092565b612ddb86615092565b612de485615092565b612ded84615092565b612df683615092565b612dff82615092565b612e0881615092565b8c600460006101000a8154816001600160a01b0302191690836001600160a01b031602179055508b600560006101000a8154816001600160a01b0302191690836001600160a01b031602179055508a6000806101000a8154816001600160a01b0302191690836001600160a01b0316021790555089600160006101000a8154816001600160a01b0302191690836001600160a01b0316021790555088600660006101000a8154816001600160a01b0302191690836001600160a01b0316021790555087600760006101000a8154816001600160a01b0302191690836001600160a01b0316021790555086600860006101000a8154816001600160a01b0302191690836001600160a01b0316021790555085600260006101000a8154816001600160a01b0302191690836001600160a01b0316021790555084600960006101000a8154816001600160a01b0302191690836001600160a01b0316021790555083600c60006101000a8154816001600160a01b0302191690836001600160a01b0316021790555082600a60006101000a8154816001600160a01b0302191690836001600160a01b0316021790555081600b60006101000a8154816001600160a01b0302191690836001600160a01b0316021790555080600d60006101000a8154816001600160a01b0302191690836001600160a01b031602179055507f3ca631ffcd2a9b5d9ae18543fc82f58eb4ca33af9e6ab01b7a8e95331e6ed9858d60405180826001600160a01b03166001600160a01b0316815260200191505060405180910390a1604080516001600160a01b038e16815290517f6a69409f44477d8556c3c8040edc75d9bc1b3dee7846f6045c0b99556fe7bc919181900360200190a1604080516001600160a01b038d16815290517f78f058b189175430c48dc02699e3a0031ea4ff781536dc2fab847de4babdd8829181900360200190a1604080516001600160a01b038c16815290517f5ee0cae2f063ed938bb55046f6a932fb6ae792bf43624806bb90abe68a50be9b9181900360200190a1604080516001600160a01b038b16815290517f82966d27eea39b038ee0fa30cd16532bb24f6e65d31cb58fb227aa5766cdcc7f9181900360200190a1604080516001600160a01b038a16815290517fcfb07d791fcafc032b35837b50eb84b74df518cf4cc287e8084f47630fa70fa09181900360200190a1604080516001600160a01b038916815290517fe67f36a6e961157d6eff83b91f3af5a62131ceb6f04954ef74f51c1c05e7f88d9181900360200190a1604080516001600160a01b038816815290517f8c537274438aa850a330284665d81a85dd38267d09e4050d416bfc94142db2649181900360200190a1604080516001600160a01b038716815290517f227eec0ec317af6ab1a9587ffa1c84332522eb4c583a908f89babc05f8f339bd9181900360200190a1604080516001600160a01b038616815290517f65f4cf077bc01e4742eb5ad98326f6e95b63548ea24b17f8d5e823111fe788009181900360200190a1604080516001600160a01b038516815290517f2ac6e99201ddc1b6eac6f8f28662d1ecafee131f6eb98c29de54528a9888a7d19181900360200190a1604080516001600160a01b038416815290517f756ebc192164c295bba134b5aacd72cc7aff8098a670d1f0a5f6b3a0b4ce67079181900360200190a1604080516001600160a01b038316815290517f60fc0872daa3654ed011fd931f5591def43e40ef6dd33b860b9307056e7da9c19181900360200190a15050600380546001600160a01b03191690555050505050505050505050565b60006133446134cc565b6115ed8383614eba565b6001600160a01b03918216600090815260106020908152604080832093909416825291909152206002015490565b60136020526000908152604090205481565b60116020526000908152604090205481565b6133a86139ab565b600054600154612ce1916001600160a01b0390811691168484615141565b60006112f3612d346114e0565b601760205281600052604060002081815481106133ec57fe5b6000918252602090912001546001600160a01b03169150829050565b60006125b585858585614f9e565b6000611303600e54613b37565b6001600160a01b03918216600090815260106020908152604080832093909416825291909152205490565b6134566139ab565b612ce1828261529c565b600061346a6134cc565b6001600160a01b0380851660009081526010602090815260408083209387168352929052908120546123bd908463ffffffff61359d16565b60006134ad826133c6565b50919050565b600d546001600160a01b031633146134ca57600080fd5b565b6004546001600160a01b031633146134ca57600080fd5b6001600160a01b03818116600081815260176020908152604082208054600180820183558285529284200180546001600160a01b0319169588169590951790945591815291546135329161362d565b6001600160a01b03938416600090815260106020908152604080832095909616825293909352929091206003018054610100600160881b0319166101006001600160801b038516021790555090565b6000611303603c611a6e600f544261362d90919063ffffffff16565b6000828201838110156115ed576040805162461bcd60e51b815260206004820152601b60248201527f536166654d6174683a206164646974696f6e206f766572666c6f770000000000604482015290519081900360640190fd5b60006112f361361f836103e8670de0b6b3a76400005b0460050261359d90919063ffffffff16565b670de0b6b3a7640000614e9d565b60006115ed83836040518060400160405280601e81526020017f536166654d6174683a207375627472616374696f6e206f766572666c6f77000081525061531d565b6001600160a01b03808416600090815260106020908152604080832093861683529290529081206003015460ff16908160048111156136aa57fe5b141580156136c4575060018160048111156136c157fe5b14155b6136ca57fe5b6001600160a01b03848116600090815260106020908152604080832093871683529290529081206003015461010090046001600160801b031690839061371182600161362d565b905080836001600160801b0316111561372657fe5b6001600160a01b038616600090815260176020526040812080548390811061374a57fe5b60009182526020808320909101546001600160a01b038a811684526017909252604090922080549190921692508291906001600160801b03871690811061378d57fe5b600091825260208083209190910180546001600160a01b0319166001600160a01b03948516179055838316808352601082526040808420948c16808552948352928390206003018054610100600160881b0319166101006001600160801b038b169081029190911790915583519182529181019390935282820152517f596c08527bf037a7d30b01f257c1ba24ebd2a664cde69f8315accfee1199c668916060908290030190a16001600160a01b038716600090815260176020526040902080548061385557fe5b600082815260209020810160001990810180546001600160a01b03191690550190555050505050505050565b60006115ed670de0b6b3a7640000611a6e858563ffffffff613b5e16565b6000806138ab85612676565b905060006138b8866113b9565b90506138c682828787614f9e565b9695505050505050565b60006112f382678ac7230489e8000063ffffffff61359d16565b60006112f382678ac7230489e8000063ffffffff61362d16565b60008061390f613581565b90506000613925670ddd4b8c6c7d70d8836153b4565b9050613948670de0b6b3a7640000611a6e83600e54613b5e90919063ffffffff16565b9250505090565b6000613966600f544261362d90919063ffffffff16565b9050603c81106118915742600f81905560408051918252517f860f8d2f0c74dd487e89e2883e3b25b8159ce1e1b3433a291cba7b82c508f3bc9181900360200190a150565b6004546001600160a01b03163314806139ce5750600d546001600160a01b031633145b6134ca57600080fd5b60008160048111156139e557fe5b141580156139ff575060018160048111156139fc57fe5b14155b613a0557fe5b6001600160a01b038216600090815260176020526040902054613a28818461545f565b6001600160a01b038085166000908152601060209081526040808320938716835292905220600301805483919060ff19166001836004811115613a6757fe5b02179055506001600160a01b038481166000818152601060209081526040808320948816808452948252808320600180820185905590849055938352601682528083209483529390529182208281550155613ac384848361366f565b600c5460408051637f7c149160e01b81526001600160a01b038681166004830152878116602483015291519190921691637f7c149191604480830192600092919082900301818387803b158015613b1957600080fd5b505af1158015613b2d573d6000803e3d6000fd5b5050505050505050565b60006112f3613b51836103e8670de0b6b3a764000061360d565b66b1a2bc2ec50000614e9d565b600082613b6d575060006112f3565b82820282848281613b7a57fe5b04146115ed5760405162461bcd60e51b815260040180806020018281038252602181526020018061615f6021913960400191505060405180910390fd5b60006115ed83836040518060400160405280601a81526020017f536166654d6174683a206469766973696f6e206279207a65726f0000000000008152506154f2565b600080613c0786868561389f565b90931195945050505050565b613c1b61606c565b613c236160b8565b6005546040805163eb7aac5f60e01b81526001600160a01b0389811660048301529151919092169163eb7aac5f916024808301926020929190829003018186803b158015613c7057600080fd5b505afa158015613c84573d6000803e3d6000fd5b505050506040513d6020811015613c9a57600080fd5b50516101008201526005546040805163453ebeb560e11b81526001600160a01b03898116600483015291519190921691638a7d7d6a916024808301926020929190829003018186803b158015613cef57600080fd5b505afa158015613d03573d6000803e3d6000fd5b505050506040513d6020811015613d1957600080fd5b5051610120820152600554604080516311e2c60b60e11b81526001600160a01b038981166004830152915191909216916323c58c16916024808301926020929190829003018186803b158015613d6e57600080fd5b505afa158015613d82573d6000803e3d6000fd5b505050506040513d6020811015613d9857600080fd5b5051610140820152613da861606c565b848252600060a0830152613dbb876113b9565b60c0830152613dc987612676565b60e0830152600060208301525b835182602001511015613fd65783826020015181518110613df357fe5b6020908102919091018101516001600160a01b03908116608085018190526000908152601083526040808220928b1682529190925290206003015460019060ff166004811115613e3f57fe5b14613e4957613fc6565b613e5882608001518888612921565b604083015260a0820151613f6a57816101400151826040015110158015613e7e57508151155b15613e8857613fc6565b6000613ea38360e001518460c0015189866101000151614f9e565b9050613ec78a8a8a866080015187604001518860000151878e8b6101400151615557565b60808101518451919350613ee1919063ffffffff61362d16565b8352608082015160c0840151613efc9163ffffffff61362d16565b60c0840152610100820151604083015160a084015160e0860151613f2e9392611f50929091839163ffffffff61362d16565b60e0840152613f3d84836159ff565b9350613f5e8360e001518460c0015189866101000151876101200151615b16565b1560a084015250613fc6565b8160a001518015613f8357508161014001518260400151105b15613fc657613f9d89898985608001518660000151615b32565b60808101518351919250613fb7919063ffffffff61362d16565b8252613fc383826159ff565b92505b6020820180516001019052613dd6565b50509695505050505050565b613fea61606c565b613ff26160b8565b613ffa61606c565b848252600060208301525b8351826020015110156140a4578382602001518151811061402257fe5b60209081029190910101516001600160a01b031660808301819052614048908989612921565b604083018190528611156140945761406b8a8a8a85608001518660000151615b32565b60808101518351919250614085919063ffffffff61362d16565b825261409183826159ff565b92505b6020820180516001019052614005565b5050979650505050505050565b826140bb57614444565b6001600160a01b0384166000908152601860205260408120546140f8906140ec85600a86900a63ffffffff613b5e16565b9063ffffffff61359d16565b6001600160a01b0386166000908152601960205260408120549192509061412d906140ec87600a87900a63ffffffff613b5e16565b6001600160a01b0387166000908152601160205260408120549192509061415b90849063ffffffff613bb716565b6001600160a01b0388166000908152601160205260408120549192509061418990849063ffffffff613bb716565b6001600160a01b0389166000908152601160205260409020549091506141c7906141ba90849063ffffffff613b5e16565b859063ffffffff61362d16565b6001600160a01b03891660009081526018602090815260408083209390935560119052205461420e9061420190839063ffffffff613b5e16565b849063ffffffff61362d16565b6001600160a01b038916600090815260196020908152604080832093909355601490522054614243908363ffffffff61359d16565b6001600160a01b038916600090815260146020908152604080832093909355601590522054614278908263ffffffff61359d16565b6001600160a01b038916600081815260156020818152604080842086905560148252928390205491815282519384528301528181019290925290517f6f63d00bdf85957664165c9e20900aabd5a17378cb5c0955ce760e48a6ae48c79181900360600190a1896001600160a01b0316633aacc81589896040518363ffffffff1660e01b815260040180836001600160a01b03166001600160a01b0316815260200182815260200192505050600060405180830381600087803b15801561433d57600080fd5b505af1158015614351573d6000803e3d6000fd5b50505050886001600160a01b0316635fc7b5e889896040518363ffffffff1660e01b815260040180836001600160a01b03166001600160a01b0316815260200182815260200192505050600060405180830381600087803b1580156143b557600080fd5b505af11580156143c9573d6000803e3d6000fd5b50506040805163715aa61b60e01b81526001600160a01b038c811660048301528d81166024830152604482018b90529151918e16935063715aa61b925060648082019260009290919082900301818387803b15801561442757600080fd5b505af115801561443b573d6000803e3d6000fd5b50505050505050505b505050505050565b6001600160a01b0380831660008181526011602090815260408083205460128352818420558051639b56d6c960e01b81526004810194909452519193871692639b56d6c99260248083019392829003018186803b1580156144ac57600080fd5b505afa1580156144c0573d6000803e3d6000fd5b505050506040513d60208110156144d657600080fd5b505160015460408051639b56d6c960e01b81526001600160a01b03878116600483015291519394506000939190921691639b56d6c9916024808301926020929190829003018186803b15801561452b57600080fd5b505afa15801561453f573d6000803e3d6000fd5b505050506040513d602081101561455557600080fd5b5051905061456d816140ec848663ffffffff61362d16565b6001600160a01b038516600081815260136020818152604080842086905560128252928390205491815282519384528301528181019290925290517f9ea5863ffc9d961d6c6bb67235c553dfbdbcc8fe12671cdba8887a50501efbaf9181900360600190a15050505050565b81156146585760095460075460408051631062c15f60e11b81526001600160a01b039283166004820152868316602482015260448101869052905191909216916320c582be91606480830192600092919082900301818387803b15801561463f57600080fd5b505af1158015614653573d6000803e3d6000fd5b505050505b80156146b8576040805163715aa61b60e01b81526001600160a01b03868116600483015285811660248301526044820184905291519187169163715aa61b9160648082019260009290919082900301818387803b158015612a6557600080fd5b5050505050565b6146c761606c565b6146cf6160b8565b6005546040805163eb7aac5f60e01b81526001600160a01b0389811660048301529151919092169163eb7aac5f916024808301926020929190829003018186803b15801561471c57600080fd5b505afa158015614730573d6000803e3d6000fd5b505050506040513d602081101561474657600080fd5b50516101008201526005546040805163453ebeb560e11b81526001600160a01b03898116600483015291519190921691638a7d7d6a916024808301926020929190829003018186803b15801561479b57600080fd5b505afa1580156147af573d6000803e3d6000fd5b505050506040513d60208110156147c557600080fd5b5051610120820152600554604080516311e2c60b60e11b81526001600160a01b038981166004830152915191909216916323c58c16916024808301926020929190829003018186803b15801561481a57600080fd5b505afa15801561482e573d6000803e3d6000fd5b505050506040513d602081101561484457600080fd5b505161014082015261485461606c565b848252600060a0830152614867876113b9565b60c083015261487587612676565b60e083015260408051637608271560e01b81526001600160a01b0389811660048301529151918a1691637608271591602480820192602092909190829003018186803b1580156148c457600080fd5b505afa1580156148d8573d6000803e3d6000fd5b505050506040513d60208110156148ee57600080fd5b50516001600160a01b03908116608084015260408051631bdb4c8d60e01b8152898316600482015290516000928b1691631bdb4c8d916024808301926020929190829003018186803b15801561494357600080fd5b505afa158015614957573d6000803e3d6000fd5b505050506040513d602081101561496d57600080fd5b50516000602085015290505b8483602001511080156149a25750806001600160a01b031683608001516001600160a01b031614155b15614bdc576080830151604080516239c6e160ea1b81526001600160a01b038b81166004830152928316602482015290516000928c169163e71b8400916044808301926020929190829003018186803b1580156149fe57600080fd5b505afa158015614a12573d6000803e3d6000fd5b505050506040513d6020811015614a2857600080fd5b50516080850151909150614a3d908a8a612921565b604085015260a0840151614b5857836101400151846040015110158015614a6357508351155b15614a6e5750614bdc565b614a878460e001518560c001518a876101000151614f9e565b846060018181525050614ab68c8c8b8760800151886040015189600001518a606001518f8c6101400151615557565b60808101518551919450614ad0919063ffffffff61362d16565b8452608083015160c0850151614aeb9163ffffffff61362d16565b60c0850152610100830151604084015160a085015160e0870151614b1d9392611f50929091839163ffffffff61362d16565b60e0850152614b2c85846159ff565b9450614b4d8460e001518560c001518a876101000151886101200151615b16565b1560a0850152614bbe565b8360a001518015614b7157508361014001518460400151105b15614bb857614b8b8c8c8b87608001518860000151615b32565b60808101518551919450614ba5919063ffffffff61362d16565b8452614bb185846159ff565b9450614bbe565b50614bdc565b6001600160a01b031660808401526020830180516001019052614979565b505050979650505050505050565b614bf261606c565b614bfa6160b8565b614c0261606c565b600c54858352600060208401526001600160a01b03165b8483602001511015614bdc57806001600160a01b031663760827158a6040518263ffffffff1660e01b815260040180826001600160a01b03166001600160a01b0316815260200191505060206040518083038186803b158015614c7b57600080fd5b505afa158015614c8f573d6000803e3d6000fd5b505050506040513d6020811015614ca557600080fd5b50516001600160a01b031660808401819052614cc2908a8a612921565b60408401819052871115614d1257614ce58b8b8b86608001518760000151615b32565b60808101518451919350614cff919063ffffffff61362d16565b8352614d0b84836159ff565b9350614d17565b614bdc565b6020830180516001019052614c19565b60016001600160a01b0380841660009081526010602090815260408083209386168352929052206003015460ff166004811115614d6057fe5b14612ce157600080fd5b6000806000614d798585611a95565b90506000614d87868661191b565b6001600160a01b038088166000908152601060209081526040808320938a1683529290529081206001015491925090614dc6908463ffffffff61359d16565b6001600160a01b038089166000908152601060209081526040808320938b1683529290529081205491925090614e02908463ffffffff61359d16565b91989197509095505050505050565b60008215614e4c576000614e258584614e55565b9050614e4484611a6e8368056bc75e2d6310000063ffffffff613b5e16565b9150506115ed565b506000196115ed565b816012821115614e7d57614e76816011198401600a0a63ffffffff613bb716565b90506112f3565b60128210156112f3576115ed816012849003600a0a63ffffffff613b5e16565b6000818310614eac57816115ed565b5090919050565b60c8900490565b6001600160a01b0380831660009081526010602090815260408083209385168352929052908120600101548190614ef2908490615cd9565b6001600160a01b038581166000908152601060209081526040808320938816835292815282822060020180549085905560119091529190205491925090614f3f9083906140ec908461362d565b6001600160a01b038516600081815260116020908152604091829020849055815192835282019290925281517fd5630907014190fb9340da1cf427c96f094dabfbf73d25506e4b0cda9e3a4ca0929181900390910190a1509392505050565b60008315614fd4576000614fb28684614e55565b90506000614fca86611a6e848863ffffffff613b5e16565b92506114c7915050565b506000196114c7565b6001600160a01b03818116600081815260146020908152604080832080549588168452601683528184208585528352818420958655601583529281902054600190950185905591548251938452908301528181019290925290517fc3d426bcfc672bd74f6fae61c225e06f556f80dad48af8a4631b295030a7ad3d9181900360600190a15050565b600080615084670de0b6b3a7640000611a6e868663ffffffff613b5e16565b90508281106115ed57600080fd5b6001600160a01b0381166150ed576040805162461bcd60e51b815260206004820152601e60248201527f4163636f756e742063616e6e6f74206265207a65726f20616464726573730000604482015290519081900360640190fd5b803b80612ce1576040805162461bcd60e51b815260206004820181905260248201527f4163636f756e7420636f64652073697a652063616e6e6f74206265207a65726f604482015290519081900360640190fd5b61514b82826114ed565b156152965761515a8282614d27565b60006151668383611a95565b90506000615174848461191b565b6001600160a01b038086166000908152601060209081526040808320938816835292905220600101549091506151b0908363ffffffff61359d16565b6001600160a01b0385811660009081526010602090815260408083209388168352929052206001810191909155546151e8908261359d565b6001600160a01b038086166000908152601060209081526040808320938816835292905220556152188484614fdd565b6152258686858486615d59565b6001600160a01b038481166000818152601060209081526040808320948816808452948252808320805460018201546002909201548351978852938701528582015260608501919091526080840191909152519091600080516020616180833981519152919081900360a00190a250505b50505050565b6001600160a01b0380831660009081526010602090815260408083209385168352928152828220600201546011909152919020546152e0908263ffffffff61362d16565b6001600160a01b03928316600081815260116020908152604080832094909455959094168452601085528184209084529093525090812060020155565b600081848411156153ac5760405162461bcd60e51b81526004018080602001828103825283818151815260200191508051906020019080838360005b83811015615371578181015183820152602001615359565b50505050905090810190601f16801561539e5780820380516001836020036101000a031916815260200191505b509250505060405180910390fd5b505050900390565b6000631f5405008211156153ca57631f54050091505b816153de5750670de0b6b3a76400006112f3565b670de0b6b3a764000083835b6001811115615455576002810661541f576154058283615ea9565b915061541881600263ffffffff613bb716565b9050615450565b6154298284615ea9565b92506154358283615ea9565b915061544d6002611a6e83600163ffffffff61362d16565b90505b6153ea565b6138c68284615ea9565b6001821180156154e95750600c546040805163504f167160e01b81526001600160a01b0384811660048301529151600193929092169163504f167191602480820192602092909190829003018186803b1580156154bb57600080fd5b505afa1580156154cf573d6000803e3d6000fd5b505050506040513d60208110156154e557600080fd5b5051115b612ce157600080fd5b600081836155415760405162461bcd60e51b8152602060048201818152835160248401528351909283926044909101919085019080838360008315615371578181015183820152602001615359565b50600083858161554d57fe5b0495945050505050565b61555f61606c565b61556761611d565b6001600160a01b03891660009081526017602052604090205460011061558d57506159f2565b615597888a611342565b604085015260208481019190915284018190529083526155b690614eb3565b60408301819052678ac7230489e80000606084015260208301516155df9163ffffffff61362d16565b8152670de0b6b3a7640000871161571e576156058b8b8b84602001518560400151615d59565b61560f888a61529c565b60006080830181905260a0830152815160c0830152805160e0830152615637888a60036139d7565b876001600160a01b031660008051602061613f8339815191528a84600001518560200151600260405180856001600160a01b03166001600160a01b0316815260200184815260200183815260200182600381111561569157fe5b60ff16815260200194505050505060405180910390a2876001600160a01b03166000805160206161808339815191528a6000806000600260405180866001600160a01b03166001600160a01b0316815260200185815260200184815260200183815260200182600381111561570257fe5b60ff1681526020019550505050505060405180910390a26159f0565b670de0b6b3a76400008711801561573457508287105b156157875761574e8b8b8b84602001518560400151615d59565b615758888a61529c565b81518151615767919088615edc565b60e086015260c085015260a08401526080830152615637888a60036139d7565b82871015801561579657508487105b80156157a3575081518610155b156159df576157bd8b8b8b84602001518560400151615d59565b856157c457fe5b6157ce888a61529c565b6005546040805163eb7aac5f60e01b81526001600160a01b038c811660048301529151600093929092169163eb7aac5f91602480820192602092909190829003018186803b15801561581f57600080fd5b505afa158015615833573d6000803e3d6000fd5b505050506040513d602081101561584957600080fd5b50518351602085015191925061586191878785615f48565b925061586f898b60036139d7565b610100830151156158f75760085461010084015160408051633fa5152d60e21b81526001600160a01b038d811660048301528e8116602483015260448201939093529051919092169163fe9454b491606480830192600092919082900301818387803b1580156158de57600080fd5b505af11580156158f2573d6000803e3d6000fd5b505050505b886001600160a01b031660008051602061613f8339815191528b85600001518660a00151600260405180856001600160a01b03166001600160a01b0316815260200184815260200183815260200182600381111561595157fe5b60ff16815260200194505050505060405180910390a2886001600160a01b03166000805160206161808339815191528b6000806000600260405180866001600160a01b03166001600160a01b031681526020018581526020018481526020018381526020018260038111156159c257fe5b60ff1681526020019550505050505060405180910390a2506159f0565b6159e761606c565b91506159f29050565b505b9998505050505050505050565b615a0761606c565b60408083015190840151615a209163ffffffff61359d16565b604082015260608083015190840151615a3e9163ffffffff61359d16565b606082015281516020840151615a599163ffffffff61359d16565b6020808301919091528201518351615a769163ffffffff61359d16565b815260808083015190840151615a919163ffffffff61359d16565b608082015260a08083015190840151615aaf9163ffffffff61359d16565b60a082015260c08083015190840151615acd9163ffffffff61359d16565b60c082015260e08083015190840151615aeb9163ffffffff61359d16565b60e08201526101008083015190840151615b0a9163ffffffff61359d16565b61010082015292915050565b600080615b2587878787614f9e565b9092119695505050505050565b615b3a61606c565b615b4261611d565b615b4c8486611342565b60408501908152602085810192835286019290925291845290519051615b7791899189918991615d59565b615b81848661529c565b615b8e8260200151614eb3565b60408301819052678ac7230489e8000060608401526020830151600091615bbb919063ffffffff61362d16565b9050615bcc83600001518286615edc565b60e087015260c086015260a08501526080840152615bec858760036139d7565b846001600160a01b031660008051602061613f8339815191528785600001518660200151600160405180856001600160a01b03166001600160a01b03168152602001848152602001838152602001826003811115615c4657fe5b60ff16815260200194505050505060405180910390a2846001600160a01b0316600080516020616180833981519152876000806000600160405180866001600160a01b03166001600160a01b03168152602001858152602001848152602001838152602001826003811115615cb757fe5b60ff1681526020019550505050505060405180910390a2505095945050505050565b6001600160a01b0382166000908152601360205260408120548190615cff5750816115ed565b6001600160a01b038416600090815260126020526040902054615d1e57fe5b6001600160a01b0384166000908152601360209081526040808320546012909252909120546114c79190611a6e90869063ffffffff613b5e16565b836001600160a01b0316633aacc81584846040518363ffffffff1660e01b815260040180836001600160a01b03166001600160a01b0316815260200182815260200192505050600060405180830381600087803b158015615db957600080fd5b505af1158015615dcd573d6000803e3d6000fd5b50505050846001600160a01b0316635fc7b5e884846040518363ffffffff1660e01b815260040180836001600160a01b03166001600160a01b0316815260200182815260200192505050600060405180830381600087803b158015615e3157600080fd5b505af1158015615e45573d6000803e3d6000fd5b50505050836001600160a01b03166334e5396284836040518363ffffffff1660e01b815260040180836001600160a01b03166001600160a01b0316815260200182815260200192505050600060405180830381600087803b158015612a6557600080fd5b600080615ebc848463ffffffff613b5e16565b90506114c7670de0b6b3a7640000611a6e836706f05b59d3b2000061359d565b60008080808415615f3257615ef18786614e9d565b9350615f0787611a6e888763ffffffff613b5e16565b9250615f19878563ffffffff61362d16565b9150615f2b868463ffffffff61362d16565b9050615f3f565b5060009250829150859050845b93509350935093565b615f5061606c565b858152602081018590526000615f7085611a6e898763ffffffff613b5e16565b90506012831015615f9957615f92816012859003600a0a63ffffffff613bb716565b9050615fbc565b6012831115615fbc57615fb9816011198501600a0a63ffffffff613b5e16565b90505b615fc581614eb3565b60408301819052678ac7230489e80000606084015260808301889052615ff290829063ffffffff61362d16565b60a0830152616007868263ffffffff61362d16565b61010083015250600060c0820181905260e082015295945050505050565b604051806101000160405280600081526020016000815260200160008152602001600081526020016000815260200160001515815260200160008152602001600081525090565b6040518061012001604052806000815260200160008152602001600081526020016000815260200160008152602001600081526020016000815260200160008152602001600081525090565b6040518061016001604052806000815260200160008152602001600081526020016000815260200160006001600160a01b0316815260200160001515815260200160008152602001600081526020016000815260200160008152602001600081525090565b6040518060600160405280600081526020016000815260200160008152509056fe44b1a33c624451b36e8d636828145aa4eb39bd6cc5e2cf623bb270d3abc38c88536166654d6174683a206d756c7469706c69636174696f6e206f766572666c6f77100d2512a463b515ea8d03a69afbcc791f1bd9139132e820631bec236f524ec1a26469706673582212202b97eb135ee0f11240b7c761e7497925bfd0aa869565f6902e862d302e2dfc5364736f6c634300060b0033",
  "linkReferences": {},
  "deployedLinkReferences": {}
}