{
  "_format": "hh-sol-artifact-1",
  "contractName": "DefaultPoolTester",
  "sourceName": "contracts/TestContracts/DefaultPoolTester.sol",
  "abi": [
    {
      "anonymous": false,
      "inputs": [
        {
          "indexed": false,
          "internalType": "address",
          "name": "_newActivePoolAddress",
          "type": "address"
        }
      ],
      "name": "ActivePoolAddressChanged",
      "type": "event"
    },
    {
      "anonymous": false,
      "inputs": [
        {
          "indexed": false,
          "internalType": "address",
          "name": "_newCollateralConfigAddress",
          "type": "address"
        }
      ],
      "name": "CollateralConfigAddressChanged",
      "type": "event"
    },
    {
      "anonymous": false,
      "inputs": [
        {
          "indexed": false,
          "internalType": "address",
          "name": "_collateral",
          "type": "address"
        },
        {
          "indexed": false,
          "internalType": "address",
          "name": "_to",
          "type": "address"
        },
        {
          "indexed": false,
          "internalType": "uint256",
          "name": "_amount",
          "type": "uint256"
        }
      ],
      "name": "CollateralSent",
      "type": "event"
    },
    {
      "anonymous": false,
      "inputs": [
        {
          "indexed": false,
          "internalType": "address",
          "name": "_newDefaultPoolAddress",
          "type": "address"
        }
      ],
      "name": "DefaultPoolAddressChanged",
      "type": "event"
    },
    {
      "anonymous": false,
      "inputs": [
        {
          "indexed": false,
          "internalType": "address",
          "name": "_collateral",
          "type": "address"
        },
        {
          "indexed": false,
          "internalType": "uint256",
          "name": "_amount",
          "type": "uint256"
        }
      ],
      "name": "DefaultPoolCollateralBalanceUpdated",
      "type": "event"
    },
    {
      "anonymous": false,
      "inputs": [
        {
          "indexed": false,
          "internalType": "address",
          "name": "_collateral",
          "type": "address"
        },
        {
          "indexed": false,
          "internalType": "uint256",
          "name": "_LUSDDebt",
          "type": "uint256"
        }
      ],
      "name": "DefaultPoolLUSDDebtUpdated",
      "type": "event"
    },
    {
      "anonymous": false,
      "inputs": [
        {
          "indexed": true,
          "internalType": "address",
          "name": "previousOwner",
          "type": "address"
        },
        {
          "indexed": true,
          "internalType": "address",
          "name": "newOwner",
          "type": "address"
        }
      ],
      "name": "OwnershipTransferred",
      "type": "event"
    },
    {
      "anonymous": false,
      "inputs": [
        {
          "indexed": false,
          "internalType": "address",
          "name": "_newStabilityPoolAddress",
          "type": "address"
        }
      ],
      "name": "StabilityPoolAddressChanged",
      "type": "event"
    },
    {
      "anonymous": false,
      "inputs": [
        {
          "indexed": false,
          "internalType": "address",
          "name": "_newTroveManagerAddress",
          "type": "address"
        }
      ],
      "name": "TroveManagerAddressChanged",
      "type": "event"
    },
    {
      "inputs": [],
      "name": "NAME",
      "outputs": [
        {
          "internalType": "string",
          "name": "",
          "type": "string"
        }
      ],
      "stateMutability": "view",
      "type": "function"
    },
    {
      "inputs": [],
      "name": "activePoolAddress",
      "outputs": [
        {
          "internalType": "address",
          "name": "",
          "type": "address"
        }
      ],
      "stateMutability": "view",
      "type": "function"
    },
    {
      "inputs": [],
      "name": "collateralConfigAddress",
      "outputs": [
        {
          "internalType": "address",
          "name": "",
          "type": "address"
        }
      ],
      "stateMutability": "view",
      "type": "function"
    },
    {
      "inputs": [
        {
          "internalType": "address",
          "name": "_collateral",
          "type": "address"
        },
        {
          "internalType": "uint256",
          "name": "_amount",
          "type": "uint256"
        }
      ],
      "name": "decreaseLUSDDebt",
      "outputs": [],
      "stateMutability": "nonpayable",
      "type": "function"
    },
    {
      "inputs": [
        {
          "internalType": "address",
          "name": "_collateral",
          "type": "address"
        }
      ],
      "name": "getCollateral",
      "outputs": [
        {
          "internalType": "uint256",
          "name": "",
          "type": "uint256"
        }
      ],
      "stateMutability": "view",
      "type": "function"
    },
    {
      "inputs": [
        {
          "internalType": "address",
          "name": "_collateral",
          "type": "address"
        }
      ],
      "name": "getLUSDDebt",
      "outputs": [
        {
          "internalType": "uint256",
          "name": "",
          "type": "uint256"
        }
      ],
      "stateMutability": "view",
      "type": "function"
    },
    {
      "inputs": [
        {
          "internalType": "address",
          "name": "_collateral",
          "type": "address"
        },
        {
          "internalType": "uint256",
          "name": "_amount",
          "type": "uint256"
        }
      ],
      "name": "increaseLUSDDebt",
      "outputs": [],
      "stateMutability": "nonpayable",
      "type": "function"
    },
    {
      "inputs": [],
      "name": "isOwner",
      "outputs": [
        {
          "internalType": "bool",
          "name": "",
          "type": "bool"
        }
      ],
      "stateMutability": "view",
      "type": "function"
    },
    {
      "inputs": [],
      "name": "owner",
      "outputs": [
        {
          "internalType": "address",
          "name": "",
          "type": "address"
        }
      ],
      "stateMutability": "view",
      "type": "function"
    },
    {
      "inputs": [
        {
          "internalType": "address",
          "name": "_collateral",
          "type": "address"
        },
        {
          "internalType": "uint256",
          "name": "_amount",
          "type": "uint256"
        }
      ],
      "name": "pullCollateralFromActivePool",
      "outputs": [],
      "stateMutability": "nonpayable",
      "type": "function"
    },
    {
      "inputs": [
        {
          "internalType": "address",
          "name": "_collateral",
          "type": "address"
        },
        {
          "internalType": "uint256",
          "name": "_amount",
          "type": "uint256"
        }
      ],
      "name": "sendCollateralToActivePool",
      "outputs": [],
      "stateMutability": "nonpayable",
      "type": "function"
    },
    {
      "inputs": [
        {
          "internalType": "address",
          "name": "_collateralConfigAddress",
          "type": "address"
        },
        {
          "internalType": "address",
          "name": "_troveManagerAddress",
          "type": "address"
        },
        {
          "internalType": "address",
          "name": "_activePoolAddress",
          "type": "address"
        }
      ],
      "name": "setAddresses",
      "outputs": [],
      "stateMutability": "nonpayable",
      "type": "function"
    },
    {
      "inputs": [],
      "name": "troveManagerAddress",
      "outputs": [
        {
          "internalType": "address",
          "name": "",
          "type": "address"
        }
      ],
      "stateMutability": "view",
      "type": "function"
    },
    {
      "inputs": [
        {
          "internalType": "address",
          "name": "_collateral",
          "type": "address"
        },
        {
          "internalType": "uint256",
          "name": "_amount",
          "type": "uint256"
        }
      ],
      "name": "unprotectedIncreaseLUSDDebt",
      "outputs": [],
      "stateMutability": "nonpayable",
      "type": "function"
    },
    {
      "inputs": [
        {
          "internalType": "address",
          "name": "_collateral",
          "type": "address"
        },
        {
          "internalType": "uint256",
          "name": "_amount",
          "type": "uint256"
        }
      ],
      "name": "unprotectedPullCollateral",
      "outputs": [],
      "stateMutability": "nonpayable",
      "type": "function"
    }
  ],
  "bytecode": "0x608060405234801561001057600080fd5b50600080546001600160a01b0319163390811782556040519091907f8be0079c531659141344cd1fd0a4f28419497f9722a3daafe3b4186f6b6457e0908290a361114e8061005f6000396000f3fe608060405234801561001057600080fd5b50600436106100d55760003560e01c80635fc7b5e8116100875780635fc7b5e8146101fc578063648079ca1461022857806374448ef9146102545780638da5cb5b146102805780638f32d59b146102885780639b56d6c9146102a4578063a3f4df7e146102ca578063b08bc72214610347576100d5565b806334e53962146100da578063363bf9641461010857806336c855df146101405780633aacc8151461016457806349af1bdf146101905780634b14fa87146101bc5780635a4d28bb146101f4575b600080fd5b610106600480360360408110156100f057600080fd5b506001600160a01b03813516906020013561034f565b005b6101066004803603606081101561011e57600080fd5b506001600160a01b0381358116916020810135821691604090910135166104bd565b610148610623565b604080516001600160a01b039092168252519081900360200190f35b6101066004803603604081101561017a57600080fd5b506001600160a01b038135169060200135610632565b610106600480360360408110156101a657600080fd5b506001600160a01b0381351690602001356106c7565b6101e2600480360360208110156101d257600080fd5b50356001600160a01b0316610710565b60408051918252519081900360200190f35b610148610737565b6101066004803603604081101561021257600080fd5b506001600160a01b038135169060200135610746565b6101066004803603604081101561023e57600080fd5b506001600160a01b038135169060200135610780565b6101066004803603604081101561026a57600080fd5b506001600160a01b0381351690602001356107db565b61014861088d565b61029061089c565b604080519115158252519081900360200190f35b6101e2600480360360208110156102ba57600080fd5b50356001600160a01b03166108ad565b6102d26108d4565b6040805160208082528351818301528351919283929083019185019080838360005b8381101561030c5781810151838201526020016102f4565b50505050905090810190601f1680156103395780820380516001836020036101000a031916815260200191505b509250505060405180910390f35b6101486108fb565b6103588261090a565b6103606109d7565b6003546001600160a01b03838116600090815260046020526040902054911690610390908363ffffffff610a2216565b6001600160a01b038416600081815260046020908152604091829020849055815192835282019290925281517f92cf70cc465be5b8377a4b155f26c9f6160e0238e1238fb2f11dcc07cd4f4a5e929181900390910190a1604080516001600160a01b0380861682528316602082015280820184905290517fe664153eb516123e000bb334869ec912418f6fe4c1abb53fe2f848c947a8405d9181900360600190a161044b6001600160a01b038416828463ffffffff610a6b16565b60035460408051630eb13cd160e41b81526001600160a01b038681166004830152602482018690529151919092169163eb13cd1091604480830192600092919082900301818387803b1580156104a057600080fd5b505af11580156104b4573d6000803e3d6000fd5b50505050505050565b6104c561089c565b610516576040805162461bcd60e51b815260206004820181905260248201527f4f776e61626c653a2063616c6c6572206973206e6f7420746865206f776e6572604482015290519081900360640190fd5b61051f83610b57565b61052882610b57565b61053181610b57565b600180546001600160a01b038086166001600160a01b0319928316811790935560028054868316908416179055600380549185169190921617905560408051918252517f6a69409f44477d8556c3c8040edc75d9bc1b3dee7846f6045c0b99556fe7bc919181900360200190a1604080516001600160a01b038416815290517f143219c9e69b09e07e095fcc889b43d8f46ca892bba65f08dc3a0050869a56789181900360200190a1604080516001600160a01b038316815290517f78f058b189175430c48dc02699e3a0031ea4ff781536dc2fab847de4babdd8829181900360200190a161061e610c06565b505050565b6001546001600160a01b031681565b61063b8261090a565b6106436109d7565b6001600160a01b03821660009081526005602052604090205461066c908263ffffffff610a2216565b6001600160a01b038316600081815260056020908152604091829020849055815192835282019290925281517f01f4554a8e623756a4793453edc303955290ab5cd047f27f28677c76eb199feb929181900390910190a15050565b6001600160a01b0382166000908152600560205260409020546106f0908263ffffffff610c5016565b6001600160a01b0390921660009081526005602052604090209190915550565b600061071b8261090a565b506001600160a01b031660009081526005602052604090205490565b6002546001600160a01b031681565b61074f8261090a565b6107576109d7565b6001600160a01b03821660009081526005602052604090205461066c908263ffffffff610c5016565b6001600160a01b0382166000908152600460205260409020546107a9908263ffffffff610c5016565b6001600160a01b0383166000818152600460205260409020919091556107d79033308463ffffffff610caa16565b5050565b6107e48261090a565b6107ec610d04565b6001600160a01b038216600090815260046020526040902054610815908263ffffffff610c5016565b6001600160a01b038316600081815260046020908152604091829020849055815192835282019290925281517f92cf70cc465be5b8377a4b155f26c9f6160e0238e1238fb2f11dcc07cd4f4a5e929181900390910190a16003546107d7906001600160a01b038481169116308463ffffffff610caa16565b6000546001600160a01b031690565b6000546001600160a01b0316331490565b60006108b88261090a565b506001600160a01b031660009081526004602052604090205490565b6040518060400160405280600b81526020016a111959985d5b1d141bdbdb60aa1b81525081565b6003546001600160a01b031681565b60015460408051630658339960e51b81526001600160a01b0384811660048301529151919092169163cb067320916024808301926020929190829003018186803b15801561095757600080fd5b505afa15801561096b573d6000803e3d6000fd5b505050506040513d602081101561098157600080fd5b50516109d4576040805162461bcd60e51b815260206004820152601a60248201527f496e76616c696420636f6c6c61746572616c2061646472657373000000000000604482015290519081900360640190fd5b50565b6002546001600160a01b03163314610a205760405162461bcd60e51b815260040180806020018281038252602b8152602001806110c4602b913960400191505060405180910390fd5b565b6000610a6483836040518060400160405280601e81526020017f536166654d6174683a207375627472616374696f6e206f766572666c6f770000815250610d4d565b9392505050565b60408051636eb1769f60e11b81523060048201526001600160a01b0384811660248301529151600092610afc9285929188169163dd62ed3e91604480820192602092909190829003018186803b158015610ac457600080fd5b505afa158015610ad8573d6000803e3d6000fd5b505050506040513d6020811015610aee57600080fd5b50519063ffffffff610c5016565b604080516001600160a01b038616602482015260448082018490528251808303909101815260649091019091526020810180516001600160e01b031663095ea7b360e01b179052909150610b51908590610de4565b50505050565b6001600160a01b038116610bb2576040805162461bcd60e51b815260206004820152601e60248201527f4163636f756e742063616e6e6f74206265207a65726f20616464726573730000604482015290519081900360640190fd5b803b806107d7576040805162461bcd60e51b815260206004820181905260248201527f4163636f756e7420636f64652073697a652063616e6e6f74206265207a65726f604482015290519081900360640190fd5b600080546040516001600160a01b03909116907f8be0079c531659141344cd1fd0a4f28419497f9722a3daafe3b4186f6b6457e0908390a3600080546001600160a01b0319169055565b600082820183811015610a64576040805162461bcd60e51b815260206004820152601b60248201527f536166654d6174683a206164646974696f6e206f766572666c6f770000000000604482015290519081900360640190fd5b604080516001600160a01b0380861660248301528416604482015260648082018490528251808303909101815260849091019091526020810180516001600160e01b03166323b872dd60e01b179052610b51908590610de4565b6003546001600160a01b03163314610a205760405162461bcd60e51b81526004018080602001828103825260298152602001806110756029913960400191505060405180910390fd5b60008184841115610ddc5760405162461bcd60e51b81526004018080602001828103825283818151815260200191508051906020019080838360005b83811015610da1578181015183820152602001610d89565b50505050905090810190601f168015610dce5780820380516001836020036101000a031916815260200191505b509250505060405180910390fd5b505050900390565b6060610e39826040518060400160405280602081526020017f5361666545524332303a206c6f772d6c6576656c2063616c6c206661696c6564815250856001600160a01b0316610e959092919063ffffffff16565b80519091501561061e57808060200190516020811015610e5857600080fd5b505161061e5760405162461bcd60e51b815260040180806020018281038252602a8152602001806110ef602a913960400191505060405180910390fd5b6060610ea48484600085610eac565b949350505050565b606082471015610eed5760405162461bcd60e51b815260040180806020018281038252602681526020018061109e6026913960400191505060405180910390fd5b610ef685611008565b610f47576040805162461bcd60e51b815260206004820152601d60248201527f416464726573733a2063616c6c20746f206e6f6e2d636f6e7472616374000000604482015290519081900360640190fd5b60006060866001600160a01b031685876040518082805190602001908083835b60208310610f865780518252601f199092019160209182019101610f67565b6001836020036101000a03801982511681845116808217855250505050505090500191505060006040518083038185875af1925050503d8060008114610fe8576040519150601f19603f3d011682016040523d82523d6000602084013e610fed565b606091505b5091509150610ffd82828661100e565b979650505050505050565b3b151590565b6060831561101d575081610a64565b82511561102d5782518084602001fd5b60405162461bcd60e51b8152602060048201818152845160248401528451859391928392604401919085019080838360008315610da1578181015183820152602001610d8956fe44656661756c74506f6f6c3a2043616c6c6572206973206e6f742074686520416374697665506f6f6c416464726573733a20696e73756666696369656e742062616c616e636520666f722063616c6c44656661756c74506f6f6c3a2043616c6c6572206973206e6f74207468652054726f76654d616e616765725361666545524332303a204552433230206f7065726174696f6e20646964206e6f742073756363656564a2646970667358221220acaf01f240bf09ce85cd193d0b34b07efeebe7a8b5701f8fecd0e766b38d3c5464736f6c634300060b0033",
  "linkReferences": {},
  "deployedLinkReferences": {}
}