{
  "_format": "hh-sol-artifact-1",
  "contractName": "SortedTroves",
  "sourceName": "contracts/SortedTroves.sol",
  "abi": [
    {
      "anonymous": false,
      "inputs": [
        {
          "indexed": false,
          "internalType": "address",
          "name": "_borrowerOperationsAddress",
          "type": "address"
        }
      ],
      "name": "BorrowerOperationsAddressChanged",
      "type": "event"
    },
    {
      "anonymous": false,
      "inputs": [
        {
          "indexed": false,
          "internalType": "address",
          "name": "_collateral",
          "type": "address"
        },
        {
          "indexed": false,
          "internalType": "address",
          "name": "_id",
          "type": "address"
        },
        {
          "indexed": false,
          "internalType": "uint256",
          "name": "_NICR",
          "type": "uint256"
        }
      ],
      "name": "NodeAdded",
      "type": "event"
    },
    {
      "anonymous": false,
      "inputs": [
        {
          "indexed": false,
          "internalType": "address",
          "name": "_collateral",
          "type": "address"
        },
        {
          "indexed": false,
          "internalType": "address",
          "name": "_id",
          "type": "address"
        }
      ],
      "name": "NodeRemoved",
      "type": "event"
    },
    {
      "anonymous": false,
      "inputs": [
        {
          "indexed": true,
          "internalType": "address",
          "name": "previousOwner",
          "type": "address"
        },
        {
          "indexed": true,
          "internalType": "address",
          "name": "newOwner",
          "type": "address"
        }
      ],
      "name": "OwnershipTransferred",
      "type": "event"
    },
    {
      "anonymous": false,
      "inputs": [
        {
          "indexed": false,
          "internalType": "address",
          "name": "_sortedDoublyLLAddress",
          "type": "address"
        }
      ],
      "name": "SortedTrovesAddressChanged",
      "type": "event"
    },
    {
      "anonymous": false,
      "inputs": [
        {
          "indexed": false,
          "internalType": "address",
          "name": "_troveManagerAddress",
          "type": "address"
        }
      ],
      "name": "TroveManagerAddressChanged",
      "type": "event"
    },
    {
      "inputs": [],
      "name": "NAME",
      "outputs": [
        {
          "internalType": "string",
          "name": "",
          "type": "string"
        }
      ],
      "stateMutability": "view",
      "type": "function"
    },
    {
      "inputs": [],
      "name": "borrowerOperationsAddress",
      "outputs": [
        {
          "internalType": "address",
          "name": "",
          "type": "address"
        }
      ],
      "stateMutability": "view",
      "type": "function"
    },
    {
      "inputs": [
        {
          "internalType": "address",
          "name": "_collateral",
          "type": "address"
        },
        {
          "internalType": "address",
          "name": "_id",
          "type": "address"
        }
      ],
      "name": "contains",
      "outputs": [
        {
          "internalType": "bool",
          "name": "",
          "type": "bool"
        }
      ],
      "stateMutability": "view",
      "type": "function"
    },
    {
      "inputs": [
        {
          "internalType": "address",
          "name": "",
          "type": "address"
        }
      ],
      "name": "data",
      "outputs": [
        {
          "internalType": "address",
          "name": "head",
          "type": "address"
        },
        {
          "internalType": "address",
          "name": "tail",
          "type": "address"
        },
        {
          "internalType": "uint256",
          "name": "size",
          "type": "uint256"
        }
      ],
      "stateMutability": "view",
      "type": "function"
    },
    {
      "inputs": [
        {
          "internalType": "address",
          "name": "_collateral",
          "type": "address"
        },
        {
          "internalType": "uint256",
          "name": "_NICR",
          "type": "uint256"
        },
        {
          "internalType": "address",
          "name": "_prevId",
          "type": "address"
        },
        {
          "internalType": "address",
          "name": "_nextId",
          "type": "address"
        }
      ],
      "name": "findInsertPosition",
      "outputs": [
        {
          "internalType": "address",
          "name": "",
          "type": "address"
        },
        {
          "internalType": "address",
          "name": "",
          "type": "address"
        }
      ],
      "stateMutability": "view",
      "type": "function"
    },
    {
      "inputs": [
        {
          "internalType": "address",
          "name": "_collateral",
          "type": "address"
        }
      ],
      "name": "getFirst",
      "outputs": [
        {
          "internalType": "address",
          "name": "",
          "type": "address"
        }
      ],
      "stateMutability": "view",
      "type": "function"
    },
    {
      "inputs": [
        {
          "internalType": "address",
          "name": "_collateral",
          "type": "address"
        }
      ],
      "name": "getLast",
      "outputs": [
        {
          "internalType": "address",
          "name": "",
          "type": "address"
        }
      ],
      "stateMutability": "view",
      "type": "function"
    },
    {
      "inputs": [
        {
          "internalType": "address",
          "name": "_collateral",
          "type": "address"
        },
        {
          "internalType": "address",
          "name": "_id",
          "type": "address"
        }
      ],
      "name": "getNext",
      "outputs": [
        {
          "internalType": "address",
          "name": "",
          "type": "address"
        }
      ],
      "stateMutability": "view",
      "type": "function"
    },
    {
      "inputs": [
        {
          "internalType": "address",
          "name": "_collateral",
          "type": "address"
        },
        {
          "internalType": "address",
          "name": "_id",
          "type": "address"
        }
      ],
      "name": "getPrev",
      "outputs": [
        {
          "internalType": "address",
          "name": "",
          "type": "address"
        }
      ],
      "stateMutability": "view",
      "type": "function"
    },
    {
      "inputs": [
        {
          "internalType": "address",
          "name": "_collateral",
          "type": "address"
        }
      ],
      "name": "getSize",
      "outputs": [
        {
          "internalType": "uint256",
          "name": "",
          "type": "uint256"
        }
      ],
      "stateMutability": "view",
      "type": "function"
    },
    {
      "inputs": [
        {
          "internalType": "address",
          "name": "_collateral",
          "type": "address"
        },
        {
          "internalType": "address",
          "name": "_id",
          "type": "address"
        },
        {
          "internalType": "uint256",
          "name": "_NICR",
          "type": "uint256"
        },
        {
          "internalType": "address",
          "name": "_prevId",
          "type": "address"
        },
        {
          "internalType": "address",
          "name": "_nextId",
          "type": "address"
        }
      ],
      "name": "insert",
      "outputs": [],
      "stateMutability": "nonpayable",
      "type": "function"
    },
    {
      "inputs": [
        {
          "internalType": "address",
          "name": "_collateral",
          "type": "address"
        }
      ],
      "name": "isEmpty",
      "outputs": [
        {
          "internalType": "bool",
          "name": "",
          "type": "bool"
        }
      ],
      "stateMutability": "view",
      "type": "function"
    },
    {
      "inputs": [],
      "name": "isOwner",
      "outputs": [
        {
          "internalType": "bool",
          "name": "",
          "type": "bool"
        }
      ],
      "stateMutability": "view",
      "type": "function"
    },
    {
      "inputs": [],
      "name": "owner",
      "outputs": [
        {
          "internalType": "address",
          "name": "",
          "type": "address"
        }
      ],
      "stateMutability": "view",
      "type": "function"
    },
    {
      "inputs": [
        {
          "internalType": "address",
          "name": "_id",
          "type": "address"
        },
        {
          "internalType": "address",
          "name": "_collateral",
          "type": "address"
        },
        {
          "internalType": "uint256",
          "name": "_newNICR",
          "type": "uint256"
        },
        {
          "internalType": "address",
          "name": "_prevId",
          "type": "address"
        },
        {
          "internalType": "address",
          "name": "_nextId",
          "type": "address"
        }
      ],
      "name": "reInsert",
      "outputs": [],
      "stateMutability": "nonpayable",
      "type": "function"
    },
    {
      "inputs": [
        {
          "internalType": "address",
          "name": "_collateral",
          "type": "address"
        },
        {
          "internalType": "address",
          "name": "_id",
          "type": "address"
        }
      ],
      "name": "remove",
      "outputs": [],
      "stateMutability": "nonpayable",
      "type": "function"
    },
    {
      "inputs": [
        {
          "internalType": "address",
          "name": "_troveManagerAddress",
          "type": "address"
        },
        {
          "internalType": "address",
          "name": "_borrowerOperationsAddress",
          "type": "address"
        }
      ],
      "name": "setParams",
      "outputs": [],
      "stateMutability": "nonpayable",
      "type": "function"
    },
    {
      "inputs": [],
      "name": "troveManager",
      "outputs": [
        {
          "internalType": "contract ITroveManager",
          "name": "",
          "type": "address"
        }
      ],
      "stateMutability": "view",
      "type": "function"
    },
    {
      "inputs": [
        {
          "internalType": "address",
          "name": "_collateral",
          "type": "address"
        },
        {
          "internalType": "uint256",
          "name": "_NICR",
          "type": "uint256"
        },
        {
          "internalType": "address",
          "name": "_prevId",
          "type": "address"
        },
        {
          "internalType": "address",
          "name": "_nextId",
          "type": "address"
        }
      ],
      "name": "validInsertPosition",
      "outputs": [
        {
          "internalType": "bool",
          "name": "",
          "type": "bool"
        }
      ],
      "stateMutability": "view",
      "type": "function"
    }
  ],
  "bytecode": "0x608060405234801561001057600080fd5b50600080546001600160a01b0319163390811782556040519091907f8be0079c531659141344cd1fd0a4f28419497f9722a3daafe3b4186f6b6457e0908290a3611b098061005f6000396000f3fe608060405234801561001057600080fd5b50600436106101115760003560e01c80638da5cb5b116100ad578063bc9b5bd511610071578063bc9b5bd5146103af578063bff365c4146103f5578063e71b840014610457578063eceea2fb14610485578063ed26cae8146104c157610111565b80638da5cb5b146102ca5780638f32d59b146102d2578063a3f4df7e146102da578063b7f8cf9b14610357578063b90d3d0c1461035f57610111565b80631bdb4c8d1461011657806339ed25cd146101585780633b725b23146101865780633d83908a146101c0578063504f1671146101c857806376082715146102005780637c933c0a146102265780637f6594a81461026e5780637f7c14911461029c575b600080fd5b61013c6004803603602081101561012c57600080fd5b50356001600160a01b03166104ef565b604080516001600160a01b039092168252519081900360200190f35b61013c6004803603604081101561016e57600080fd5b506001600160a01b038135811691602001351661050d565b6101ac6004803603602081101561019c57600080fd5b50356001600160a01b031661053f565b604080519115158252519081900360200190f35b61013c61055e565b6101ee600480360360208110156101de57600080fd5b50356001600160a01b031661056d565b60408051918252519081900360200190f35b61013c6004803603602081101561021657600080fd5b50356001600160a01b031661058b565b61026c600480360360a081101561023c57600080fd5b506001600160a01b03813581169160208101358216916040820135916060810135821691608090910135166105ac565b005b61026c6004803603604081101561028457600080fd5b506001600160a01b03813581169160200135166105d7565b61026c600480360360408110156102b257600080fd5b506001600160a01b03813581169160200135166106ea565b61013c6106fc565b6101ac61070b565b6102e261071c565b6040805160208082528351818301528351919283929083019185019080838360005b8381101561031c578181015183820152602001610304565b50505050905090810190601f1680156103495780820380516001836020036101000a031916815260200191505b509250505060405180910390f35b61013c610744565b6103856004803603602081101561037557600080fd5b50356001600160a01b0316610753565b604080516001600160a01b0394851681529290931660208301528183015290519081900360600190f35b61026c600480360360a08110156103c557600080fd5b506001600160a01b0381358116916020810135821691604082013591606081013582169160809091013516610781565b6104316004803603608081101561040b57600080fd5b506001600160a01b03813581169160208101359160408201358116916060013516610832565b604080516001600160a01b03938416815291909216602082015281519081900390910190f35b61013c6004803603604081101561046d57600080fd5b506001600160a01b038135811691602001351661085e565b6101ac6004803603608081101561049b57600080fd5b506001600160a01b0381358116916020810135916040820135811691606001351661088e565b6101ac600480360360408110156104d757600080fd5b506001600160a01b03813581169160200135166108b3565b6001600160a01b039081166000908152600360205260409020541690565b6001600160a01b0391821660009081526003602081815260408084209486168452939091019052205461010090041690565b6001600160a01b03166000908152600360205260409020600201541590565b6002546001600160a01b031681565b6001600160a01b031660009081526003602052604090206002015490565b6001600160a01b039081166000908152600360205260409020600101541690565b6002546001600160a01b03166105c1816108e2565b6105cf818787878787610941565b505050505050565b6105df61070b565b610630576040805162461bcd60e51b815260206004820181905260248201527f4f776e61626c653a2063616c6c6572206973206e6f7420746865206f776e6572604482015290519081900360640190fd5b61063982610d02565b61064281610d02565b600280546001600160a01b038085166001600160a01b03199283168117909355600180549185169190921617905560408051918252517f143219c9e69b09e07e095fcc889b43d8f46ca892bba65f08dc3a0050869a56789181900360200190a1604080516001600160a01b038316815290517f3ca631ffcd2a9b5d9ae18543fc82f58eb4ca33af9e6ab01b7a8e95331e6ed9859181900360200190a16106e6610db1565b5050565b6106f2610dfb565b6106e68282610e46565b6000546001600160a01b031690565b6000546001600160a01b0316331490565b6040518060400160405280600c81526020016b536f7274656454726f76657360a01b81525081565b6001546001600160a01b031681565b6003602052600090815260409020805460018201546002909201546001600160a01b03918216929091169083565b6002546001600160a01b0316610796816108e2565b6107a085876108b3565b6107db5760405162461bcd60e51b815260040180806020018281038252602a815260200180611a2e602a913960400191505060405180910390fd5b6000841161081a5760405162461bcd60e51b8152600401808060200182810382526023815260200180611ab16023913960400191505060405180910390fd5b6108248587610e46565b6105cf818688878787610941565b6002546000908190610850906001600160a01b031687878787611137565b915091505b94509492505050565b6001600160a01b039182166000908152600360208181526040808420948616845293909101905220600101541690565b6002546000906108aa906001600160a01b031686868686611333565b95945050505050565b6001600160a01b0391821660009081526003602081815260408084209490951683529201909152205460ff1690565b6001546001600160a01b03163314806109035750336001600160a01b038216145b61093e5760405162461bcd60e51b815260040180806020018281038252602d815260200180611a84602d913960400191505060405180910390fd5b50565b61094b85856108b3565b156109875760405162461bcd60e51b815260040180806020018281038252602c815260200180611a02602c913960400191505060405180910390fd5b6001600160a01b0384166109e2576040805162461bcd60e51b815260206004820152601f60248201527f536f7274656454726f7665733a2049642063616e6e6f74206265207a65726f00604482015290519081900360640190fd5b60008311610a215760405162461bcd60e51b8152600401808060200182810382526023815260200180611ab16023913960400191505060405180910390fd5b8181610a308888878585611333565b610a4757610a418888878585611137565b90925090505b6001600160a01b0380881660009081526003602081815260408084208b8616855290920190529020805460ff191660011790558216158015610a9057506001600160a01b038116155b15610ad5576001600160a01b03808816600090815260036020526040902080549188166001600160a01b03199283168117825560019091018054909216179055610c67565b6001600160a01b038216610b60576001600160a01b03878116600081815260036020818152604080842080548d881680875282860185528387208054928a1661010002610100600160a81b0319909316929092179091558154909716855290842060010180546001600160a01b03199081168817909155949093525280549091169091179055610c67565b6001600160a01b038116610be5576001600160a01b038781166000818152600360208181526040808420600180820180548f8a1680895293870186528488209092018054928a166001600160a01b0319938416179055805490981686529185208054610100600160a81b03191661010083021790559490935252825416179055610c67565b6001600160a01b0387811660009081526003602081815260408084208b861680865293019091528083208054868616610100818102610100600160a81b031993841617845560019384018054988b166001600160a01b0319998a1681179091558752848720805491870291909316179091558452922090910180549092161790555b6001600160a01b038716600090815260036020526040902060020154610c9490600163ffffffff6115fa16565b6001600160a01b0380891660008181526003602090815260409182902060020194909455805191825291891692810192909252818101879052517fa74a9cd584cc27d44e7f746f6715fae75b600cc5eb8f85a95752788d6b4547a59181900360600190a15050505050505050565b6001600160a01b038116610d5d576040805162461bcd60e51b815260206004820152601e60248201527f4163636f756e742063616e6e6f74206265207a65726f20616464726573730000604482015290519081900360640190fd5b803b806106e6576040805162461bcd60e51b815260206004820181905260248201527f4163636f756e7420636f64652073697a652063616e6e6f74206265207a65726f604482015290519081900360640190fd5b600080546040516001600160a01b03909116907f8be0079c531659141344cd1fd0a4f28419497f9722a3daafe3b4186f6b6457e0908390a3600080546001600160a01b0319169055565b6002546001600160a01b03163314610e445760405162461bcd60e51b815260040180806020018281038252602c815260200180611a58602c913960400191505060405180910390fd5b565b610e5082826108b3565b610e8b5760405162461bcd60e51b815260040180806020018281038252602a815260200180611a2e602a913960400191505060405180910390fd5b6001600160a01b0382166000908152600360205260409020600201546001101561103b576001600160a01b0380831660009081526003602052604090205482821691161415610f32576001600160a01b038281166000908152600360208181526040808420868616855292830190915280832054825461010090910485166001600160a01b0319918216179283905591909316825291902060010180549091169055611036565b6001600160a01b0380831660009081526003602052604090206001015482821691161415610fbc576001600160a01b0382811660009081526003602081815260408084208686168552928301909152808320600190810154920180546001600160a01b031916928516929092179182905592168152208054610100600160a81b0319169055611036565b6001600160a01b03828116600090815260036020818152604080842086861685529092019052808220805460018083018054871686528486208054610100600160a81b0319166101009485900489168502179055549254919091048516845291909220018054919092166001600160a01b03199091161790555b611070565b6001600160a01b038216600090815260036020526040902080546001600160a01b031990811682556001909101805490911690555b6001600160a01b03808316600081815260036020818152604080842095871684528583018252832080546001600160a81b0319168155600190810180546001600160a01b03191690559390925290526002909101546110d49163ffffffff61165b16565b6001600160a01b038084166000818152600360209081526040918290206002019490945580519182529184169281019290925280517f202321eaea3aa2b5e1e2ef1dfd98a9d6ba8c90e293f5dc2755b32eb921a477979281900390910190a15050565b60008083836001600160a01b038216156111e75761115588836108b3565b15806111dd5750604080516390ec230160e01b81526001600160a01b0384811660048301528a811660248301529151918b16916390ec230191604480820192602092909190829003018186803b1580156111ae57600080fd5b505afa1580156111c2573d6000803e3d6000fd5b505050506040513d60208110156111d857600080fd5b505187115b156111e757600091505b6001600160a01b038116156112915761120088826108b3565b15806112885750604080516390ec230160e01b81526001600160a01b0383811660048301528a811660248301529151918b16916390ec230191604480820192602092909190829003018186803b15801561125957600080fd5b505afa15801561126d573d6000803e3d6000fd5b505050506040513d602081101561128357600080fd5b505187105b15611291575060005b6001600160a01b0382161580156112af57506001600160a01b038116155b156112e9576001600160a01b038089166000908152600360205260409020546112de918b918b918b911661169d565b935093505050611329565b6001600160a01b038216611303576112de89898984611805565b6001600160a01b03811661131d576112de8989898561169d565b6112de8989898561169d565b9550959350505050565b60006001600160a01b03831615801561135357506001600160a01b038216155b15611368576113618561053f565b90506108aa565b6001600160a01b038316611425576001600160a01b0385811660009081526003602052604090205481169083161480156113615750604080516390ec230160e01b81526001600160a01b03848116600483015287811660248301529151918816916390ec230191604480820192602092909190829003018186803b1580156113ef57600080fd5b505afa158015611403573d6000803e3d6000fd5b505050506040513d602081101561141957600080fd5b505184101590506108aa565b6001600160a01b0382166114e5576001600160a01b0385811660009081526003602052604090206001015481169084161480156113615750604080516390ec230160e01b81526001600160a01b03858116600483015287811660248301529151918816916390ec230191604480820192602092909190829003018186803b1580156114af57600080fd5b505afa1580156114c3573d6000803e3d6000fd5b505050506040513d60208110156114d957600080fd5b505184111590506108aa565b6001600160a01b03858116600090815260036020818152604080842088861685529092019052902054610100900481169083161480156115a15750604080516390ec230160e01b81526001600160a01b0385811660048301528781166024830152915186928916916390ec2301916044808301926020929190829003018186803b15801561157257600080fd5b505afa158015611586573d6000803e3d6000fd5b505050506040513d602081101561159c57600080fd5b505110155b80156113615750604080516390ec230160e01b81526001600160a01b03848116600483015287811660248301529151918816916390ec230191604480820192602092909190829003018186803b1580156113ef57600080fd5b600082820183811015611654576040805162461bcd60e51b815260206004820152601b60248201527f536166654d6174683a206164646974696f6e206f766572666c6f770000000000604482015290519081900360640190fd5b9392505050565b600061165483836040518060400160405280601e81526020017f536166654d6174683a207375627472616374696f6e206f766572666c6f77000081525061196a565b6001600160a01b0383811660009081526003602052604081205490918291811690841614801561174a5750604080516390ec230160e01b81526001600160a01b03858116600483015287811660248301529151918816916390ec230191604480820192602092909190829003018186803b15801561171a57600080fd5b505afa15801561172e573d6000803e3d6000fd5b505050506040513d602081101561174457600080fd5b50518410155b1561175a57506000905081610855565b6001600160a01b038086166000908152600360208181526040808420858916855290920190529020548491610100909104165b6001600160a01b038216158015906117af57506117ad8888888585611333565b155b156117f857506001600160a01b0386811660009081526003602081815260408084209585168452949091019052828120546101009081900483168083529390912054041661178d565b9097909650945050505050565b6001600160a01b038381166000908152600360205260408120600101549091829181169084161480156118b55750604080516390ec230160e01b81526001600160a01b03858116600483015287811660248301529151918816916390ec230191604480820192602092909190829003018186803b15801561188557600080fd5b505afa158015611899573d6000803e3d6000fd5b505050506040513d60208110156118af57600080fd5b50518411155b156118c557508190506000610855565b6001600160a01b038086166000908152600360208181526040808420858916855290920190529020600101548491165b6001600160a01b0382161580159061191757506119158888888486611333565b155b1561195e57506001600160a01b03868116600090815260036020818152604080842095851684529490910190528281206001908101548316808352939091200154166118f5565b97909650945050505050565b600081848411156119f95760405162461bcd60e51b81526004018080602001828103825283818151815260200191508051906020019080838360005b838110156119be5781810151838201526020016119a6565b50505050905090810190601f1680156119eb5780820380516001836020036101000a031916815260200191505b509250505060405180910390fd5b50505090039056fe536f7274656454726f7665733a204c69737420616c726561647920636f6e7461696e7320746865206e6f6465536f7274656454726f7665733a204c69737420646f6573206e6f7420636f6e7461696e20746865206964536f7274656454726f7665733a2043616c6c6572206973206e6f74207468652054726f76654d616e61676572536f7274656454726f7665733a2043616c6c6572206973206e65697468657220424f206e6f722054726f76654d536f7274656454726f7665733a204e494352206d75737420626520706f736974697665a2646970667358221220b5ef7745a8f6c1266431ae7c9048cc8e72c2746adfe5420f98d1668efda0804564736f6c634300060b0033",
  "linkReferences": {},
  "deployedLinkReferences": {}
}