{
  "_format": "hh-sol-artifact-1",
  "contractName": "EchidnaProxy",
  "sourceName": "contracts/TestContracts/EchidnaProxy.sol",
  "abi": [
    {
      "inputs": [
        {
          "internalType": "contract TroveManager",
          "name": "_troveManager",
          "type": "address"
        },
        {
          "internalType": "contract BorrowerOperations",
          "name": "_borrowerOperations",
          "type": "address"
        },
        {
          "internalType": "contract StabilityPool",
          "name": "_stabilityPool",
          "type": "address"
        },
        {
          "internalType": "contract LUSDToken",
          "name": "_lusdToken",
          "type": "address"
        }
      ],
      "stateMutability": "nonpayable",
      "type": "constructor"
    },
    {
      "inputs": [
        {
          "internalType": "address",
          "name": "_collateral",
          "type": "address"
        },
        {
          "internalType": "uint256",
          "name": "_collAmount",
          "type": "uint256"
        },
        {
          "internalType": "address",
          "name": "_upperHint",
          "type": "address"
        },
        {
          "internalType": "address",
          "name": "_lowerHint",
          "type": "address"
        }
      ],
      "name": "addCollPrx",
      "outputs": [],
      "stateMutability": "nonpayable",
      "type": "function"
    },
    {
      "inputs": [
        {
          "internalType": "address",
          "name": "_collateral",
          "type": "address"
        },
        {
          "internalType": "uint256",
          "name": "_collTopUp",
          "type": "uint256"
        },
        {
          "internalType": "uint256",
          "name": "_collWithdrawal",
          "type": "uint256"
        },
        {
          "internalType": "uint256",
          "name": "_debtChange",
          "type": "uint256"
        },
        {
          "internalType": "bool",
          "name": "_isDebtIncrease",
          "type": "bool"
        },
        {
          "internalType": "address",
          "name": "_upperHint",
          "type": "address"
        },
        {
          "internalType": "address",
          "name": "_lowerHint",
          "type": "address"
        },
        {
          "internalType": "uint256",
          "name": "_maxFee",
          "type": "uint256"
        }
      ],
      "name": "adjustTrovePrx",
      "outputs": [],
      "stateMutability": "nonpayable",
      "type": "function"
    },
    {
      "inputs": [
        {
          "internalType": "address",
          "name": "spender",
          "type": "address"
        },
        {
          "internalType": "uint256",
          "name": "amount",
          "type": "uint256"
        }
      ],
      "name": "approvePrx",
      "outputs": [
        {
          "internalType": "bool",
          "name": "",
          "type": "bool"
        }
      ],
      "stateMutability": "nonpayable",
      "type": "function"
    },
    {
      "inputs": [
        {
          "internalType": "address",
          "name": "_collateral",
          "type": "address"
        },
        {
          "internalType": "address[]",
          "name": "_troveArray",
          "type": "address[]"
        }
      ],
      "name": "batchLiquidateTrovesPrx",
      "outputs": [],
      "stateMutability": "nonpayable",
      "type": "function"
    },
    {
      "inputs": [
        {
          "internalType": "address",
          "name": "_collateral",
          "type": "address"
        }
      ],
      "name": "closeTrovePrx",
      "outputs": [],
      "stateMutability": "nonpayable",
      "type": "function"
    },
    {
      "inputs": [
        {
          "internalType": "address",
          "name": "spender",
          "type": "address"
        },
        {
          "internalType": "uint256",
          "name": "subtractedValue",
          "type": "uint256"
        }
      ],
      "name": "decreaseAllowancePrx",
      "outputs": [
        {
          "internalType": "bool",
          "name": "",
          "type": "bool"
        }
      ],
      "stateMutability": "nonpayable",
      "type": "function"
    },
    {
      "inputs": [
        {
          "internalType": "address",
          "name": "spender",
          "type": "address"
        },
        {
          "internalType": "uint256",
          "name": "addedValue",
          "type": "uint256"
        }
      ],
      "name": "increaseAllowancePrx",
      "outputs": [
        {
          "internalType": "bool",
          "name": "",
          "type": "bool"
        }
      ],
      "stateMutability": "nonpayable",
      "type": "function"
    },
    {
      "inputs": [
        {
          "internalType": "address",
          "name": "_user",
          "type": "address"
        },
        {
          "internalType": "address",
          "name": "_collateral",
          "type": "address"
        }
      ],
      "name": "liquidatePrx",
      "outputs": [],
      "stateMutability": "nonpayable",
      "type": "function"
    },
    {
      "inputs": [
        {
          "internalType": "address",
          "name": "_collateral",
          "type": "address"
        },
        {
          "internalType": "uint256",
          "name": "_n",
          "type": "uint256"
        }
      ],
      "name": "liquidateTrovesPrx",
      "outputs": [],
      "stateMutability": "nonpayable",
      "type": "function"
    },
    {
      "inputs": [
        {
          "internalType": "address",
          "name": "_collateral",
          "type": "address"
        },
        {
          "internalType": "uint256",
          "name": "_collAmount",
          "type": "uint256"
        },
        {
          "internalType": "uint256",
          "name": "_LUSDAmount",
          "type": "uint256"
        },
        {
          "internalType": "address",
          "name": "_upperHint",
          "type": "address"
        },
        {
          "internalType": "address",
          "name": "_lowerHint",
          "type": "address"
        },
        {
          "internalType": "uint256",
          "name": "_maxFee",
          "type": "uint256"
        }
      ],
      "name": "openTrovePrx",
      "outputs": [],
      "stateMutability": "nonpayable",
      "type": "function"
    },
    {
      "inputs": [
        {
          "internalType": "uint256",
          "name": "_amount",
          "type": "uint256"
        }
      ],
      "name": "provideToSPPrx",
      "outputs": [],
      "stateMutability": "nonpayable",
      "type": "function"
    },
    {
      "inputs": [
        {
          "internalType": "address",
          "name": "_collateral",
          "type": "address"
        },
        {
          "internalType": "uint256",
          "name": "_LUSDAmount",
          "type": "uint256"
        },
        {
          "internalType": "address",
          "name": "_firstRedemptionHint",
          "type": "address"
        },
        {
          "internalType": "address",
          "name": "_upperPartialRedemptionHint",
          "type": "address"
        },
        {
          "internalType": "address",
          "name": "_lowerPartialRedemptionHint",
          "type": "address"
        },
        {
          "internalType": "uint256",
          "name": "_partialRedemptionHintNICR",
          "type": "uint256"
        },
        {
          "internalType": "uint256",
          "name": "_maxIterations",
          "type": "uint256"
        },
        {
          "internalType": "uint256",
          "name": "_maxFee",
          "type": "uint256"
        }
      ],
      "name": "redeemCollateralPrx",
      "outputs": [],
      "stateMutability": "nonpayable",
      "type": "function"
    },
    {
      "inputs": [
        {
          "internalType": "address",
          "name": "_collateral",
          "type": "address"
        },
        {
          "internalType": "uint256",
          "name": "_amount",
          "type": "uint256"
        },
        {
          "internalType": "address",
          "name": "_upperHint",
          "type": "address"
        },
        {
          "internalType": "address",
          "name": "_lowerHint",
          "type": "address"
        }
      ],
      "name": "repayLUSDPrx",
      "outputs": [],
      "stateMutability": "nonpayable",
      "type": "function"
    },
    {
      "inputs": [
        {
          "internalType": "address",
          "name": "sender",
          "type": "address"
        },
        {
          "internalType": "address",
          "name": "recipient",
          "type": "address"
        },
        {
          "internalType": "uint256",
          "name": "amount",
          "type": "uint256"
        }
      ],
      "name": "transferFromPrx",
      "outputs": [
        {
          "internalType": "bool",
          "name": "",
          "type": "bool"
        }
      ],
      "stateMutability": "nonpayable",
      "type": "function"
    },
    {
      "inputs": [
        {
          "internalType": "address",
          "name": "recipient",
          "type": "address"
        },
        {
          "internalType": "uint256",
          "name": "amount",
          "type": "uint256"
        }
      ],
      "name": "transferPrx",
      "outputs": [
        {
          "internalType": "bool",
          "name": "",
          "type": "bool"
        }
      ],
      "stateMutability": "nonpayable",
      "type": "function"
    },
    {
      "inputs": [
        {
          "internalType": "address",
          "name": "_collateral",
          "type": "address"
        },
        {
          "internalType": "uint256",
          "name": "_amount",
          "type": "uint256"
        },
        {
          "internalType": "address",
          "name": "_upperHint",
          "type": "address"
        },
        {
          "internalType": "address",
          "name": "_lowerHint",
          "type": "address"
        }
      ],
      "name": "withdrawCollPrx",
      "outputs": [],
      "stateMutability": "nonpayable",
      "type": "function"
    },
    {
      "inputs": [
        {
          "internalType": "uint256",
          "name": "_amount",
          "type": "uint256"
        }
      ],
      "name": "withdrawFromSPPrx",
      "outputs": [],
      "stateMutability": "nonpayable",
      "type": "function"
    },
    {
      "inputs": [
        {
          "internalType": "address",
          "name": "_collateral",
          "type": "address"
        },
        {
          "internalType": "uint256",
          "name": "_amount",
          "type": "uint256"
        },
        {
          "internalType": "address",
          "name": "_upperHint",
          "type": "address"
        },
        {
          "internalType": "address",
          "name": "_lowerHint",
          "type": "address"
        },
        {
          "internalType": "uint256",
          "name": "_maxFee",
          "type": "uint256"
        }
      ],
      "name": "withdrawLUSDPrx",
      "outputs": [],
      "stateMutability": "nonpayable",
      "type": "function"
    }
  ],
  "bytecode": "0x608060405234801561001057600080fd5b5060405161138c38038061138c8339818101604052608081101561003357600080fd5b50805160208201516040830151606090930151600080546001600160a01b039485166001600160a01b03199182161790915560018054938516938216939093179092556002805494841694831694909417909355600380549290931691161790556112e9806100a36000396000f3fe608060405234801561001057600080fd5b50600436106100f65760003560e01c8063a13edfda11610092578063a13edfda146102b3578063a819ee1b1461030a578063ba82dbd914610352578063c23922271461038e578063c89c3bc21461040e578063cc51a6c214610465578063cf83544f14610491578063d466e4eb146104bd578063d94bcec2146104e9576100f6565b80630121ff8a146100fb5780630970f5d614610141578063390b5f271461016d57806339f14955146101ad578063618dcfc0146101db578063641b09b6146101f85780637b8244a2146102155780637dcfc4d11461023b5780638ebb2f3814610277575b600080fd5b61013f600480360360a081101561011157600080fd5b506001600160a01b03813581169160208101359160408201358116916060810135909116906080013561051f565b005b61013f6004803603604081101561015757600080fd5b506001600160a01b0381351690602001356105aa565b6101996004803603604081101561018357600080fd5b506001600160a01b038135169060200135610618565b604080519115158252519081900360200190f35b61013f600480360360408110156101c357600080fd5b506001600160a01b03813581169160200135166106a4565b61013f600480360360208110156101f157600080fd5b50356106f7565b61013f6004803603602081101561020e57600080fd5b503561075f565b61013f6004803603602081101561022b57600080fd5b50356001600160a01b03166107ac565b61013f6004803603608081101561025157600080fd5b506001600160a01b038135811691602081013591604082013581169160600135166107fa565b61013f6004803603608081101561028d57600080fd5b506001600160a01b038135811691602081013591604082013581169160600135166108b8565b61013f60048036036101008110156102ca57600080fd5b506001600160a01b038135811691602081013591604082013591606081013591608082013515159160a081013582169160c0820135169060e0013561091d565b61013f600480360360c081101561032057600080fd5b506001600160a01b03813581169160208101359160408201359160608101358216916080820135169060a001356109fd565b61013f6004803603608081101561036857600080fd5b506001600160a01b03813581169160208101359160408201358116916060013516610acb565b61013f600480360360408110156103a457600080fd5b6001600160a01b0382351691908101906040810160208201356401000000008111156103cf57600080fd5b8201836020820111156103e157600080fd5b8035906020019184602083028401116401000000008311171561040357600080fd5b509092509050610b30565b61013f600480360361010081101561042557600080fd5b506001600160a01b038135811691602081013591604082013581169160608101358216916080820135169060a08101359060c08101359060e00135610bd2565b6101996004803603604081101561047b57600080fd5b506001600160a01b038135169060200135610c52565b610199600480360360408110156104a757600080fd5b506001600160a01b038135169060200135610cab565b610199600480360360408110156104d357600080fd5b506001600160a01b038135169060200135610d04565b610199600480360360608110156104ff57600080fd5b506001600160a01b03813581169160208101359091169060400135610d5d565b60015460408051635e66c92160e01b81526001600160a01b03888116600483015260248201859052604482018890528681166064830152858116608483015291519190921691635e66c9219160a480830192600092919082900301818387803b15801561058b57600080fd5b505af115801561059f573d6000803e3d6000fd5b505050505050505050565b6000805460408051637f55115760e01b81526001600160a01b0386811660048301526024820186905291519190921692637f551157926044808201939182900301818387803b1580156105fc57600080fd5b505af1158015610610573d6000803e3d6000fd5b505050505050565b6003546040805163a9059cbb60e01b81526001600160a01b038581166004830152602482018590529151600093929092169163a9059cbb9160448082019260209290919082900301818787803b15801561067157600080fd5b505af1158015610685573d6000803e3d6000fd5b505050506040513d602081101561069b57600080fd5b50519392505050565b60008054604080516386b9d81f60e01b81526001600160a01b0386811660048301528581166024830152915191909216926386b9d81f926044808201939182900301818387803b1580156105fc57600080fd5b60025460408051631e31de8960e21b81526004810184905290516001600160a01b03909216916378c77a249160248082019260009290919082900301818387803b15801561074457600080fd5b505af1158015610758573d6000803e3d6000fd5b5050505050565b60025460408051632e54bf9560e01b81526004810184905290516001600160a01b0390921691632e54bf959160248082019260009290919082900301818387803b15801561074457600080fd5b600154604080516365e89c5760e11b81526001600160a01b0384811660048301529151919092169163cbd138ae91602480830192600092919082900301818387803b15801561074457600080fd5b6108156001600160a01b03851633308663ffffffff610df416565b600154610835906001600160a01b0386811691168563ffffffff610e5416565b600154604080516348a4a39d60e01b81526001600160a01b0387811660048301526024820187905285811660448301528481166064830152915191909216916348a4a39d91608480830192600092919082900301818387803b15801561089a57600080fd5b505af11580156108ae573d6000803e3d6000fd5b5050505050505050565b600154604080516349b010c560e01b81526001600160a01b0387811660048301526024820187905285811660448301528481166064830152915191909216916349b010c591608480830192600092919082900301818387803b15801561089a57600080fd5b6109386001600160a01b03891633308a63ffffffff610df416565b600154610958906001600160a01b038a811691168963ffffffff610e5416565b60015460408051637439902160e01b81526001600160a01b038b8116600483015260248201859052604482018b9052606482018a90526084820189905287151560a483015286811660c483015285811660e48301529151919092169163743990219161010480830192600092919082900301818387803b1580156109db57600080fd5b505af11580156109ef573d6000803e3d6000fd5b505050505050505050505050565b610a186001600160a01b03871633308863ffffffff610df416565b600154610a38906001600160a01b0388811691168763ffffffff610e5416565b60015460408051633ed058fd60e11b81526001600160a01b038981166004830152602482018990526044820185905260648201889052868116608483015285811660a483015291519190921691637da0b1fa9160c480830192600092919082900301818387803b158015610aab57600080fd5b505af1158015610abf573d6000803e3d6000fd5b50505050505050505050565b60015460408051634351f2cd60e11b81526001600160a01b0387811660048301526024820187905285811660448301528481166064830152915191909216916386a3e59a91608480830192600092919082900301818387803b15801561089a57600080fd5b60005460408051637c92590f60e01b81526001600160a01b03868116600483019081526024830193845260448301869052931692637c92590f928792879287929091606401846020850280828437600081840152601f19601f820116905080830192505050945050505050600060405180830381600087803b158015610bb557600080fd5b505af1158015610bc9573d6000803e3d6000fd5b50505050505050565b60008054604080516340a44bd160e01b81526001600160a01b038c81166004830152602482018c90528a811660448301528981166064830152888116608483015260a4820188905260c4820187905260e48201869052915191909216926340a44bd192610104808201939182900301818387803b1580156109db57600080fd5b60035460408051633950935160e01b81526001600160a01b038581166004830152602482018590529151600093929092169163395093519160448082019260209290919082900301818787803b15801561067157600080fd5b6003546040805163095ea7b360e01b81526001600160a01b038581166004830152602482018590529151600093929092169163095ea7b39160448082019260209290919082900301818787803b15801561067157600080fd5b6003546040805163a457c2d760e01b81526001600160a01b038581166004830152602482018590529151600093929092169163a457c2d79160448082019260209290919082900301818787803b15801561067157600080fd5b600354604080516323b872dd60e01b81526001600160a01b038681166004830152858116602483015260448201859052915160009392909216916323b872dd9160648082019260209290919082900301818787803b158015610dbe57600080fd5b505af1158015610dd2573d6000803e3d6000fd5b505050506040513d6020811015610de857600080fd5b505190505b9392505050565b604080516001600160a01b0380861660248301528416604482015260648082018490528251808303909101815260849091019091526020810180516001600160e01b03166323b872dd60e01b179052610e4e908590610f36565b50505050565b60408051636eb1769f60e11b81523060048201526001600160a01b0384811660248301529151600092610ee59285929188169163dd62ed3e91604480820192602092909190829003018186803b158015610ead57600080fd5b505afa158015610ec1573d6000803e3d6000fd5b505050506040513d6020811015610ed757600080fd5b50519063ffffffff610fec16565b604080516001600160a01b038616602482015260448082018490528251808303909101815260649091019091526020810180516001600160e01b031663095ea7b360e01b179052909150610e4e9085905b6060610f8b826040518060400160405280602081526020017f5361666545524332303a206c6f772d6c6576656c2063616c6c206661696c6564815250856001600160a01b03166110469092919063ffffffff16565b805190915015610fe757808060200190516020811015610faa57600080fd5b5051610fe75760405162461bcd60e51b815260040180806020018281038252602a81526020018061128a602a913960400191505060405180910390fd5b505050565b600082820183811015610ded576040805162461bcd60e51b815260206004820152601b60248201527f536166654d6174683a206164646974696f6e206f766572666c6f770000000000604482015290519081900360640190fd5b6060611055848460008561105d565b949350505050565b60608247101561109e5760405162461bcd60e51b81526004018080602001828103825260268152602001806112646026913960400191505060405180910390fd5b6110a7856111b9565b6110f8576040805162461bcd60e51b815260206004820152601d60248201527f416464726573733a2063616c6c20746f206e6f6e2d636f6e7472616374000000604482015290519081900360640190fd5b60006060866001600160a01b031685876040518082805190602001908083835b602083106111375780518252601f199092019160209182019101611118565b6001836020036101000a03801982511681845116808217855250505050505090500191505060006040518083038185875af1925050503d8060008114611199576040519150601f19603f3d011682016040523d82523d6000602084013e61119e565b606091505b50915091506111ae8282866111bf565b979650505050505050565b3b151590565b606083156111ce575081610ded565b8251156111de5782518084602001fd5b8160405162461bcd60e51b81526004018080602001828103825283818151815260200191508051906020019080838360005b83811015611228578181015183820152602001611210565b50505050905090810190601f1680156112555780820380516001836020036101000a031916815260200191505b509250505060405180910390fdfe416464726573733a20696e73756666696369656e742062616c616e636520666f722063616c6c5361666545524332303a204552433230206f7065726174696f6e20646964206e6f742073756363656564a2646970667358221220cc536374910d974500c2966828268b9443efa789899032f4905dadd4ab2f7b6664736f6c634300060b0033",
  "linkReferences": {},
  "deployedLinkReferences": {}
}