{
  "_format": "hh-sol-artifact-1",
  "contractName": "LQTYStaking",
  "sourceName": "contracts/LQTY/LQTYStaking.sol",
  "abi": [
    {
      "anonymous": false,
      "inputs": [
        {
          "indexed": false,
          "internalType": "address",
          "name": "_activePoolAddress",
          "type": "address"
        }
      ],
      "name": "ActivePoolAddressSet",
      "type": "event"
    },
    {
      "anonymous": false,
      "inputs": [
        {
          "indexed": false,
          "internalType": "address",
          "name": "_borrowerOperationsAddress",
          "type": "address"
        }
      ],
      "name": "BorrowerOperationsAddressSet",
      "type": "event"
    },
    {
      "anonymous": false,
      "inputs": [
        {
          "indexed": false,
          "internalType": "address",
          "name": "_collateralConfigAddress",
          "type": "address"
        }
      ],
      "name": "CollateralConfigAddressSet",
      "type": "event"
    },
    {
      "anonymous": false,
      "inputs": [
        {
          "indexed": false,
          "internalType": "address",
          "name": "_account",
          "type": "address"
        },
        {
          "indexed": false,
          "internalType": "address",
          "name": "_collateral",
          "type": "address"
        },
        {
          "indexed": false,
          "internalType": "uint256",
          "name": "_amount",
          "type": "uint256"
        }
      ],
      "name": "CollateralSent",
      "type": "event"
    },
    {
      "anonymous": false,
      "inputs": [
        {
          "indexed": false,
          "internalType": "address",
          "name": "_collateral",
          "type": "address"
        },
        {
          "indexed": false,
          "internalType": "uint256",
          "name": "_F_Collateral",
          "type": "uint256"
        }
      ],
      "name": "F_CollateralUpdated",
      "type": "event"
    },
    {
      "anonymous": false,
      "inputs": [
        {
          "indexed": false,
          "internalType": "uint256",
          "name": "_F_LUSD",
          "type": "uint256"
        }
      ],
      "name": "F_LUSDUpdated",
      "type": "event"
    },
    {
      "anonymous": false,
      "inputs": [
        {
          "indexed": false,
          "internalType": "address",
          "name": "_lqtyTokenAddress",
          "type": "address"
        }
      ],
      "name": "LQTYTokenAddressSet",
      "type": "event"
    },
    {
      "anonymous": false,
      "inputs": [
        {
          "indexed": false,
          "internalType": "address",
          "name": "_lusdTokenAddress",
          "type": "address"
        }
      ],
      "name": "LUSDTokenAddressSet",
      "type": "event"
    },
    {
      "anonymous": false,
      "inputs": [
        {
          "indexed": true,
          "internalType": "address",
          "name": "previousOwner",
          "type": "address"
        },
        {
          "indexed": true,
          "internalType": "address",
          "name": "newOwner",
          "type": "address"
        }
      ],
      "name": "OwnershipTransferred",
      "type": "event"
    },
    {
      "anonymous": false,
      "inputs": [
        {
          "indexed": true,
          "internalType": "address",
          "name": "staker",
          "type": "address"
        },
        {
          "indexed": false,
          "internalType": "uint256",
          "name": "newStake",
          "type": "uint256"
        }
      ],
      "name": "StakeChanged",
      "type": "event"
    },
    {
      "anonymous": false,
      "inputs": [
        {
          "indexed": false,
          "internalType": "address",
          "name": "_staker",
          "type": "address"
        },
        {
          "indexed": false,
          "internalType": "address[]",
          "name": "_assets",
          "type": "address[]"
        },
        {
          "indexed": false,
          "internalType": "uint256[]",
          "name": "_amounts",
          "type": "uint256[]"
        },
        {
          "indexed": false,
          "internalType": "uint256",
          "name": "_F_LUSD",
          "type": "uint256"
        }
      ],
      "name": "StakerSnapshotsUpdated",
      "type": "event"
    },
    {
      "anonymous": false,
      "inputs": [
        {
          "indexed": true,
          "internalType": "address",
          "name": "staker",
          "type": "address"
        },
        {
          "indexed": false,
          "internalType": "uint256",
          "name": "LUSDGain",
          "type": "uint256"
        },
        {
          "indexed": false,
          "internalType": "address[]",
          "name": "_assets",
          "type": "address[]"
        },
        {
          "indexed": false,
          "internalType": "uint256[]",
          "name": "_amounts",
          "type": "uint256[]"
        }
      ],
      "name": "StakingGainsWithdrawn",
      "type": "event"
    },
    {
      "anonymous": false,
      "inputs": [
        {
          "indexed": false,
          "internalType": "uint256",
          "name": "_totalLQTYStaked",
          "type": "uint256"
        }
      ],
      "name": "TotalLQTYStakedUpdated",
      "type": "event"
    },
    {
      "anonymous": false,
      "inputs": [
        {
          "indexed": false,
          "internalType": "address",
          "name": "_troveManager",
          "type": "address"
        }
      ],
      "name": "TroveManagerAddressSet",
      "type": "event"
    },
    {
      "inputs": [],
      "name": "DECIMAL_PRECISION",
      "outputs": [
        {
          "internalType": "uint256",
          "name": "",
          "type": "uint256"
        }
      ],
      "stateMutability": "view",
      "type": "function"
    },
    {
      "inputs": [
        {
          "internalType": "address",
          "name": "",
          "type": "address"
        }
      ],
      "name": "F_Collateral",
      "outputs": [
        {
          "internalType": "uint256",
          "name": "",
          "type": "uint256"
        }
      ],
      "stateMutability": "view",
      "type": "function"
    },
    {
      "inputs": [],
      "name": "F_LUSD",
      "outputs": [
        {
          "internalType": "uint256",
          "name": "",
          "type": "uint256"
        }
      ],
      "stateMutability": "view",
      "type": "function"
    },
    {
      "inputs": [],
      "name": "NAME",
      "outputs": [
        {
          "internalType": "string",
          "name": "",
          "type": "string"
        }
      ],
      "stateMutability": "view",
      "type": "function"
    },
    {
      "inputs": [],
      "name": "activePoolAddress",
      "outputs": [
        {
          "internalType": "address",
          "name": "",
          "type": "address"
        }
      ],
      "stateMutability": "view",
      "type": "function"
    },
    {
      "inputs": [],
      "name": "borrowerOperationsAddress",
      "outputs": [
        {
          "internalType": "address",
          "name": "",
          "type": "address"
        }
      ],
      "stateMutability": "view",
      "type": "function"
    },
    {
      "inputs": [],
      "name": "collateralConfig",
      "outputs": [
        {
          "internalType": "contract ICollateralConfig",
          "name": "",
          "type": "address"
        }
      ],
      "stateMutability": "view",
      "type": "function"
    },
    {
      "inputs": [
        {
          "internalType": "address",
          "name": "_user",
          "type": "address"
        }
      ],
      "name": "getPendingCollateralGain",
      "outputs": [
        {
          "internalType": "address[]",
          "name": "",
          "type": "address[]"
        },
        {
          "internalType": "uint256[]",
          "name": "",
          "type": "uint256[]"
        }
      ],
      "stateMutability": "view",
      "type": "function"
    },
    {
      "inputs": [
        {
          "internalType": "address",
          "name": "_user",
          "type": "address"
        }
      ],
      "name": "getPendingLUSDGain",
      "outputs": [
        {
          "internalType": "uint256",
          "name": "",
          "type": "uint256"
        }
      ],
      "stateMutability": "view",
      "type": "function"
    },
    {
      "inputs": [
        {
          "internalType": "address",
          "name": "_collateral",
          "type": "address"
        },
        {
          "internalType": "uint256",
          "name": "_collFee",
          "type": "uint256"
        }
      ],
      "name": "increaseF_Collateral",
      "outputs": [],
      "stateMutability": "nonpayable",
      "type": "function"
    },
    {
      "inputs": [
        {
          "internalType": "uint256",
          "name": "_LUSDFee",
          "type": "uint256"
        }
      ],
      "name": "increaseF_LUSD",
      "outputs": [],
      "stateMutability": "nonpayable",
      "type": "function"
    },
    {
      "inputs": [],
      "name": "isOwner",
      "outputs": [
        {
          "internalType": "bool",
          "name": "",
          "type": "bool"
        }
      ],
      "stateMutability": "view",
      "type": "function"
    },
    {
      "inputs": [],
      "name": "lqtyToken",
      "outputs": [
        {
          "internalType": "contract IERC20",
          "name": "",
          "type": "address"
        }
      ],
      "stateMutability": "view",
      "type": "function"
    },
    {
      "inputs": [],
      "name": "lusdToken",
      "outputs": [
        {
          "internalType": "contract ILUSDToken",
          "name": "",
          "type": "address"
        }
      ],
      "stateMutability": "view",
      "type": "function"
    },
    {
      "inputs": [],
      "name": "owner",
      "outputs": [
        {
          "internalType": "address",
          "name": "",
          "type": "address"
        }
      ],
      "stateMutability": "view",
      "type": "function"
    },
    {
      "inputs": [
        {
          "internalType": "address",
          "name": "_lqtyTokenAddress",
          "type": "address"
        },
        {
          "internalType": "address",
          "name": "_lusdTokenAddress",
          "type": "address"
        },
        {
          "internalType": "address",
          "name": "_troveManagerAddress",
          "type": "address"
        },
        {
          "internalType": "address",
          "name": "_borrowerOperationsAddress",
          "type": "address"
        },
        {
          "internalType": "address",
          "name": "_activePoolAddress",
          "type": "address"
        },
        {
          "internalType": "address",
          "name": "_collateralConfigAddress",
          "type": "address"
        }
      ],
      "name": "setAddresses",
      "outputs": [],
      "stateMutability": "nonpayable",
      "type": "function"
    },
    {
      "inputs": [
        {
          "internalType": "address",
          "name": "",
          "type": "address"
        }
      ],
      "name": "snapshots",
      "outputs": [
        {
          "internalType": "uint256",
          "name": "F_LUSD_Snapshot",
          "type": "uint256"
        }
      ],
      "stateMutability": "view",
      "type": "function"
    },
    {
      "inputs": [
        {
          "internalType": "uint256",
          "name": "_LQTYamount",
          "type": "uint256"
        }
      ],
      "name": "stake",
      "outputs": [],
      "stateMutability": "nonpayable",
      "type": "function"
    },
    {
      "inputs": [
        {
          "internalType": "address",
          "name": "",
          "type": "address"
        }
      ],
      "name": "stakes",
      "outputs": [
        {
          "internalType": "uint256",
          "name": "",
          "type": "uint256"
        }
      ],
      "stateMutability": "view",
      "type": "function"
    },
    {
      "inputs": [],
      "name": "totalLQTYStaked",
      "outputs": [
        {
          "internalType": "uint256",
          "name": "",
          "type": "uint256"
        }
      ],
      "stateMutability": "view",
      "type": "function"
    },
    {
      "inputs": [],
      "name": "troveManagerAddress",
      "outputs": [
        {
          "internalType": "address",
          "name": "",
          "type": "address"
        }
      ],
      "stateMutability": "view",
      "type": "function"
    },
    {
      "inputs": [
        {
          "internalType": "uint256",
          "name": "_LQTYamount",
          "type": "uint256"
        }
      ],
      "name": "unstake",
      "outputs": [],
      "stateMutability": "nonpayable",
      "type": "function"
    }
  ],
  "bytecode": "0x608060405234801561001057600080fd5b50600080546001600160a01b0319163390811782556040519091907f8be0079c531659141344cd1fd0a4f28419497f9722a3daafe3b4186f6b6457e0908290a3611da08061005f6000396000f3fe608060405234801561001057600080fd5b50600436106101425760003560e01c80638da5cb5b116100b8578063a694fc3a1161007c578063a694fc3a14610401578063b08bc7221461041e578063b7f8cf9b14610426578063b83f91a21461042e578063d66274bc14610436578063fd818ee81461046257610142565b80638da5cb5b146103325780638f32d59b1461033a5780639beab5c014610356578063a20baee61461037c578063a3f4df7e1461038457610142565b80634677ffb31161010a5780634677ffb3146101f05780635a4d28bb1461020d5780635c0ab4de1461021557806369b831851461021d5780636cfb6bf91461022557806378d4c2a81461027357610142565b8063077ee4c61461014757806316934fc4146101615780631f7af3c3146101875780632e17de78146101ab57806334b3081f146101ca575b600080fd5b61014f610488565b60408051918252519081900360200190f35b61014f6004803603602081101561017757600080fd5b50356001600160a01b031661048e565b61018f6104a0565b604080516001600160a01b039092168252519081900360200190f35b6101c8600480360360208110156101c157600080fd5b50356104af565b005b61014f600480360360208110156101e057600080fd5b50356001600160a01b0316610728565b6101c86004803603602081101561020657600080fd5b503561073d565b61018f6107cc565b61018f6107db565b61014f6107ea565b6101c8600480360360c081101561023b57600080fd5b506001600160a01b038135811691602081013582169160408201358116916060810135821691608082013581169160a00135166107f0565b6102996004803603602081101561028957600080fd5b50356001600160a01b0316610a4f565b604051808060200180602001838103835285818151815260200191508051906020019060200280838360005b838110156102dd5781810151838201526020016102c5565b50505050905001838103825284818151815260200191508051906020019060200280838360005b8381101561031c578181015183820152602001610304565b5050505090500194505050505060405180910390f35b61018f610a64565b610342610a73565b604080519115158252519081900360200190f35b61014f6004803603602081101561036c57600080fd5b50356001600160a01b0316610a84565b61014f610a95565b61038c610aa1565b6040805160208082528351818301528351919283929083019185019080838360005b838110156103c65781810151838201526020016103ae565b50505050905090810190601f1680156103f35780820380516001836020036101000a031916815260200191505b509250505060405180910390f35b6101c86004803603602081101561041757600080fd5b5035610ac8565b61018f610d33565b61018f610d42565b61018f610d51565b6101c86004803603604081101561044c57600080fd5b506001600160a01b038135169060200135610d60565b61014f6004803603602081101561047857600080fd5b50356001600160a01b0316610e1a565b60025481565b60016020526000908152604090205481565b6006546001600160a01b031681565b336000908152600160205260409020546104c881610e2c565b6060806104d433610e6e565b9150915060006104e333611090565b90506104ee33611100565b84156105c957600061050086866113d0565b90506000610514868363ffffffff6113e816565b33600090815260016020526040902081905560025490915061053c908363ffffffff6113e816565b600281905560408051918252517f1fb085b6fe1998bfcd59bfb91fb9a84d3a3a8c63a97b2b5c43247235a5ca1df79181900360200190a1600654610590906001600160a01b0316338463ffffffff61142a16565b60408051828152905133917f39df0e5286a3ef2f42a0bf52f32cfe2c58e5b0405f47fe512f2c2439e4cfe204919081900360200190a250505b336001600160a01b03167f67525ef38a1634d5a4a22a31bb3e920f3fa7242d79288642c179412566c8fb55828585604051808481526020018060200180602001838103835285818151815260200191508051906020019060200280838360005b83811015610641578181015183820152602001610629565b50505050905001838103825284818151815260200191508051906020019060200280838360005b83811015610680578181015183820152602001610668565b505050509050019550505050505060405180910390a26007546040805163a9059cbb60e01b81523360048201526024810184905290516001600160a01b039092169163a9059cbb916044808201926020929091908290030181600087803b1580156106ea57600080fd5b505af11580156106fe573d6000803e3d6000fd5b505050506040513d602081101561071457600080fd5b5061072190508383611481565b5050505050565b60056020526000908152604090206001015481565b610745611580565b6002546000901561077e5760025461077b9061076f84670de0b6b3a764000063ffffffff6115cb16565b9063ffffffff61162416565b90505b600454610791908263ffffffff61166616565b600481905560408051918252517fdc043c079acfe2ef669592e1598aa8f95877fa0ba0e91d06c214a9f73d3521f99181900360200190a15050565b6009546001600160a01b031681565b6008546001600160a01b031681565b60045481565b6107f8610a73565b610849576040805162461bcd60e51b815260206004820181905260248201527f4f776e61626c653a2063616c6c6572206973206e6f7420746865206f776e6572604482015290519081900360640190fd5b610852866116c0565b61085b856116c0565b610864846116c0565b61086d836116c0565b610876826116c0565b61087f816116c0565b600680546001600160a01b038089166001600160a01b031992831681179093556007805489831690841617905560098054888316908416179055600a8054878316908416179055600b8054868316908416179055600880549185169190921617905560408051918252517fb0c89119a7c10e4c2d02306921ba368ac83d0e4b302337916017485c2791bec59181900360200190a1604080516001600160a01b038716815290517fb0c89119a7c10e4c2d02306921ba368ac83d0e4b302337916017485c2791bec59181900360200190a1604080516001600160a01b038616815290517f41097dcc1f7cbd663d822443d7972f05b04f71918b30fe9fc59dd6e42e2280609181900360200190a1604080516001600160a01b038516815290517f5962f8af633c4df1ab230096f773a514ee5adf7785c621ecdcdb764cb7f6e3919181900360200190a1604080516001600160a01b038416815290517f8f6a6e7d20a3233e0a79883272259ffbd7a243734e397bc2b4642c79d7fa8a6d9181900360200190a1604080516001600160a01b038316815290517f0a5694417c1f07f0d2b71f1e15ba91ecffe680779b0c0734cb9bf22d4b9082209181900360200190a1610a47611773565b505050505050565b606080610a5b83610e6e565b91509150915091565b6000546001600160a01b031690565b6000546001600160a01b0316331490565b6000610a8f82611090565b92915050565b670de0b6b3a764000081565b6040518060400160405280600b81526020016a4c5154595374616b696e6760a81b81525081565b610ad1816117bd565b336000908152600160205260408120549060609081908315610b0757610af633610e6e565b9093509150610b0433611090565b90505b610b1033611100565b6000610b22858763ffffffff61166616565b336000908152600160205260409020819055600254909150610b4a908763ffffffff61166616565b600281905560408051918252517f1fb085b6fe1998bfcd59bfb91fb9a84d3a3a8c63a97b2b5c43247235a5ca1df79181900360200190a1600654610b9f906001600160a01b031633308963ffffffff6117fc16565b60408051828152905133917f39df0e5286a3ef2f42a0bf52f32cfe2c58e5b0405f47fe512f2c2439e4cfe204919081900360200190a2336001600160a01b03167f67525ef38a1634d5a4a22a31bb3e920f3fa7242d79288642c179412566c8fb55838686604051808481526020018060200180602001838103835285818151815260200191508051906020019060200280838360005b83811015610c4d578181015183820152602001610c35565b50505050905001838103825284818151815260200191508051906020019060200280838360005b83811015610c8c578181015183820152602001610c74565b505050509050019550505050505060405180910390a28415610a47576007546040805163a9059cbb60e01b81523360048201526024810185905290516001600160a01b039092169163a9059cbb916044808201926020929091908290030181600087803b158015610cfc57600080fd5b505af1158015610d10573d6000803e3d6000fd5b505050506040513d6020811015610d2657600080fd5b50610a4790508484611481565b600b546001600160a01b031681565b600a546001600160a01b031681565b6007546001600160a01b031681565b610d68611856565b60025460009015610d9557600254610d929061076f84670de0b6b3a764000063ffffffff6115cb16565b90505b6001600160a01b038316600090815260036020526040902054610dbe908263ffffffff61166616565b6001600160a01b038416600081815260036020908152604091829020849055815192835282019290925281517f4929b952e33d25db6acab6bb6faed28295fbc1f426e9efd4866597f62237f8f6929181900390910190a1505050565b60036020526000908152604090205481565b60008111610e6b5760405162461bcd60e51b815260040180806020018281038252602c815260200180611cce602c913960400191505060405180910390fd5b50565b606080600860009054906101000a90046001600160a01b03166001600160a01b031663b2604ecf6040518163ffffffff1660e01b815260040160006040518083038186803b158015610ebf57600080fd5b505afa158015610ed3573d6000803e3d6000fd5b505050506040513d6000823e601f3d908101601f191682016040526020811015610efc57600080fd5b8101908080516040519392919084600160201b821115610f1b57600080fd5b908301906020820185811115610f3057600080fd5b82518660208202830111600160201b82111715610f4c57600080fd5b82525081516020918201928201910280838360005b83811015610f79578181015183820152602001610f61565b505050509050016040525050509150815167ffffffffffffffff81118015610fa057600080fd5b50604051908082528060200260200182016040528015610fca578160200160208202803683370190505b50905060005b825181101561108a576000838281518110610fe757fe5b6020908102919091018101516001600160a01b0380881660009081526005845260408082209284168252918452818120546003909452205490925061106990670de0b6b3a76400009061076f90611044908563ffffffff6113e816565b6001600160a01b038a166000908152600160205260409020549063ffffffff6115cb16565b84848151811061107557fe5b60209081029190910101525050600101610fd0565b50915091565b6001600160a01b03811660009081526005602052604081206001015460045482906110f890670de0b6b3a76400009061076f906110d3908663ffffffff6113e816565b6001600160a01b0388166000908152600160205260409020549063ffffffff6115cb16565b949350505050565b6008546040805163b2604ecf60e01b815290516060926001600160a01b03169163b2604ecf916004808301926000929190829003018186803b15801561114557600080fd5b505afa158015611159573d6000803e3d6000fd5b505050506040513d6000823e601f3d908101601f19168201604052602081101561118257600080fd5b8101908080516040519392919084600160201b8211156111a157600080fd5b9083019060208201858111156111b657600080fd5b82518660208202830111600160201b821117156111d257600080fd5b82525081516020918201928201910280838360005b838110156111ff5781810151838201526020016111e7565b5050505090500160405250505090506060815167ffffffffffffffff8111801561122857600080fd5b50604051908082528060200260200182016040528015611252578160200160208202803683370190505b50905060005b82518110156112d657600083828151811061126f57fe5b6020908102919091018101516001600160a01b0380821660008181526003808652604080832054948c1683526005875280832093835292865291902082905590925284519092508490849081106112c257fe5b602090810291909101015250600101611258565b506004546001600160a01b0384166000818152600560209081526040808320600101859055805193845260608401859052608084830181815288519186019190915287517f8339cbfd8819837a2364e53188d45c3dbc080e623a70bf0513ab917438a1a325958a958a958a958a9593949085019260a08601928981019202908190849084905b8381101561137457818101518382015260200161135c565b50505050905001838103825285818151815260200191508051906020019060200280838360005b838110156113b357818101518382015260200161139b565b50505050905001965050505050505060405180910390a150505050565b60008183106113df57816113e1565b825b9392505050565b60006113e183836040518060400160405280601e81526020017f536166654d6174683a207375627472616374696f6e206f766572666c6f77000081525061193b565b604080516001600160a01b038416602482015260448082018490528251808303909101815260649091019091526020810180516001600160e01b031663a9059cbb60e01b17905261147c9084906119d2565b505050565b815160005b8181101561157a5782818151811061149a57fe5b60200260200101516000146115725760008482815181106114b757fe5b602002602001015190507fe664153eb516123e000bb334869ec912418f6fe4c1abb53fe2f848c947a8405d33828685815181106114f057fe5b602002602001015160405180846001600160a01b03166001600160a01b03168152602001836001600160a01b03166001600160a01b03168152602001828152602001935050505060405180910390a16115703385848151811061154f57fe5b6020026020010151836001600160a01b031661142a9092919063ffffffff16565b505b600101611486565b50505050565b600a546001600160a01b031633146115c95760405162461bcd60e51b8152600401808060200182810382526026815260200180611cfa6026913960400191505060405180910390fd5b565b6000826115da57506000610a8f565b828202828482816115e757fe5b04146113e15760405162461bcd60e51b8152600401808060200182810382526021815260200180611d206021913960400191505060405180910390fd5b60006113e183836040518060400160405280601a81526020017f536166654d6174683a206469766973696f6e206279207a65726f000000000000815250611a83565b6000828201838110156113e1576040805162461bcd60e51b815260206004820152601b60248201527f536166654d6174683a206164646974696f6e206f766572666c6f770000000000604482015290519081900360640190fd5b6001600160a01b03811661171b576040805162461bcd60e51b815260206004820152601e60248201527f4163636f756e742063616e6e6f74206265207a65726f20616464726573730000604482015290519081900360640190fd5b803b8061176f576040805162461bcd60e51b815260206004820181905260248201527f4163636f756e7420636f64652073697a652063616e6e6f74206265207a65726f604482015290519081900360640190fd5b5050565b600080546040516001600160a01b03909116907f8be0079c531659141344cd1fd0a4f28419497f9722a3daafe3b4186f6b6457e0908390a3600080546001600160a01b0319169055565b60008111610e6b5760405162461bcd60e51b8152600401808060200182810382526024815260200180611c7b6024913960400191505060405180910390fd5b604080516001600160a01b0380861660248301528416604482015260648082018490528251808303909101815260849091019091526020810180516001600160e01b03166323b872dd60e01b17905261157a9085906119d2565b6009546040805163aff5917f60e01b815290516000926001600160a01b03169163aff5917f916004808301926020929190829003018186803b15801561189b57600080fd5b505afa1580156118af573d6000803e3d6000fd5b505050506040513d60208110156118c557600080fd5b50516009549091506001600160a01b03163314806118eb5750336001600160a01b038216145b806119005750600b546001600160a01b031633145b610e6b5760405162461bcd60e51b815260040180806020018281038252602f815260200180611c9f602f913960400191505060405180910390fd5b600081848411156119ca5760405162461bcd60e51b81526004018080602001828103825283818151815260200191508051906020019080838360005b8381101561198f578181015183820152602001611977565b50505050905090810190601f1680156119bc5780820380516001836020036101000a031916815260200191505b509250505060405180910390fd5b505050900390565b6060611a27826040518060400160405280602081526020017f5361666545524332303a206c6f772d6c6576656c2063616c6c206661696c6564815250856001600160a01b0316611ae89092919063ffffffff16565b80519091501561147c57808060200190516020811015611a4657600080fd5b505161147c5760405162461bcd60e51b815260040180806020018281038252602a815260200180611d41602a913960400191505060405180910390fd5b60008183611ad25760405162461bcd60e51b815260206004820181815283516024840152835190928392604490910191908501908083836000831561198f578181015183820152602001611977565b506000838581611ade57fe5b0495945050505050565b60606110f8848460008585611afc85611c0e565b611b4d576040805162461bcd60e51b815260206004820152601d60248201527f416464726573733a2063616c6c20746f206e6f6e2d636f6e7472616374000000604482015290519081900360640190fd5b60006060866001600160a01b031685876040518082805190602001908083835b60208310611b8c5780518252601f199092019160209182019101611b6d565b6001836020036101000a03801982511681845116808217855250505050505090500191505060006040518083038185875af1925050503d8060008114611bee576040519150601f19603f3d011682016040523d82523d6000602084013e611bf3565b606091505b5091509150611c03828286611c14565b979650505050505050565b3b151590565b60608315611c235750816113e1565b825115611c335782518084602001fd5b60405162461bcd60e51b815260206004820181815284516024840152845185939192839260440191908501908083836000831561198f57818101518382015260200161197756fe4c5154595374616b696e673a20416d6f756e74206d757374206265206e6f6e2d7a65726f4c5154595374616b696e673a2063616c6c6572206973206e6f742054726f76654d206f7220416374697665506f6f6c4c5154595374616b696e673a2055736572206d75737420686176652061206e6f6e2d7a65726f207374616b654c5154595374616b696e673a2063616c6c6572206973206e6f7420426f72726f7765724f7073536166654d6174683a206d756c7469706c69636174696f6e206f766572666c6f775361666545524332303a204552433230206f7065726174696f6e20646964206e6f742073756363656564a2646970667358221220ef2140801901839692cf3a40b1eb52881d4960d2dd4f9645814647224ed53a1664736f6c634300060b0033",
  "linkReferences": {},
  "deployedLinkReferences": {}
}