{
  "_format": "hh-sol-artifact-1",
  "contractName": "TroveManagerScript",
  "sourceName": "contracts/Proxy/TroveManagerScript.sol",
  "abi": [
    {
      "inputs": [
        {
          "internalType": "contract ITroveManager",
          "name": "_troveManager",
          "type": "address"
        }
      ],
      "stateMutability": "nonpayable",
      "type": "constructor"
    },
    {
      "inputs": [],
      "name": "NAME",
      "outputs": [
        {
          "internalType": "string",
          "name": "",
          "type": "string"
        }
      ],
      "stateMutability": "view",
      "type": "function"
    },
    {
      "inputs": [
        {
          "internalType": "address",
          "name": "_collateral",
          "type": "address"
        },
        {
          "internalType": "uint256",
          "name": "_LUSDAmount",
          "type": "uint256"
        },
        {
          "internalType": "address",
          "name": "_firstRedemptionHint",
          "type": "address"
        },
        {
          "internalType": "address",
          "name": "_upperPartialRedemptionHint",
          "type": "address"
        },
        {
          "internalType": "address",
          "name": "_lowerPartialRedemptionHint",
          "type": "address"
        },
        {
          "internalType": "uint256",
          "name": "_partialRedemptionHintNICR",
          "type": "uint256"
        },
        {
          "internalType": "uint256",
          "name": "_maxIterations",
          "type": "uint256"
        },
        {
          "internalType": "uint256",
          "name": "_maxFee",
          "type": "uint256"
        }
      ],
      "name": "redeemCollateral",
      "outputs": [
        {
          "internalType": "uint256",
          "name": "",
          "type": "uint256"
        }
      ],
      "stateMutability": "nonpayable",
      "type": "function"
    }
  ],
  "bytecode": "0x60a060405234801561001057600080fd5b506040516103753803806103758339818101604052602081101561003357600080fd5b5051610047816001600160e01b0361005c16565b60601b6001600160601b03191660805261010f565b6001600160a01b0381166100b7576040805162461bcd60e51b815260206004820152601e60248201527f4163636f756e742063616e6e6f74206265207a65726f20616464726573730000604482015290519081900360640190fd5b803b8061010b576040805162461bcd60e51b815260206004820181905260248201527f4163636f756e7420636f64652073697a652063616e6e6f74206265207a65726f604482015290519081900360640190fd5b5050565b60805160601c61024961012c6000398061017a52506102496000f3fe608060405234801561001057600080fd5b50600436106100365760003560e01c806340a44bd11461003b578063a3f4df7e146100a4575b600080fd5b610092600480360361010081101561005257600080fd5b506001600160a01b038135811691602081013591604082013581169160608101358216916080820135169060a08101359060c08101359060e00135610121565b60408051918252519081900360200190f35b6100ac6101e5565b6040805160208082528351818301528351919283929083019185019080838360005b838110156100e65781810151838201526020016100ce565b50505050905090810190601f1680156101135780820380516001836020036101000a031916815260200191505b509250505060405180910390f35b604080516340a44bd160e01b81526001600160a01b038a81166004830152602482018a905288811660448301528781166064830152868116608483015260a4820186905260c4820185905260e4820184905291516000927f000000000000000000000000000000000000000000000000000000000000000016916340a44bd191610104808301928692919082900301818387803b1580156101c157600080fd5b505af11580156101d5573d6000803e3d6000fd5b5050505098975050505050505050565b60405180604001604052806012815260200171151c9bdd9953585b9859d95c94d8dc9a5c1d60721b8152508156fea2646970667358221220067dbb134b74f1678c15f3be97182451a499b6e011c0c0acb6e3c561766dea9264736f6c634300060b0033",
  "linkReferences": {},
  "deployedLinkReferences": {}
}