{
  "_format": "hh-sol-artifact-1",
  "contractName": "SortedTrovesTester",
  "sourceName": "contracts/TestContracts/SortedTrovesTester.sol",
  "abi": [
    {
      "inputs": [
        {
          "internalType": "address",
          "name": "",
          "type": "address"
        },
        {
          "internalType": "address",
          "name": "",
          "type": "address"
        },
        {
          "internalType": "uint256",
          "name": "",
          "type": "uint256"
        }
      ],
      "name": "getCurrentICR",
      "outputs": [
        {
          "internalType": "uint256",
          "name": "",
          "type": "uint256"
        }
      ],
      "stateMutability": "pure",
      "type": "function"
    },
    {
      "inputs": [
        {
          "internalType": "address",
          "name": "",
          "type": "address"
        },
        {
          "internalType": "address",
          "name": "",
          "type": "address"
        }
      ],
      "name": "getNominalICR",
      "outputs": [
        {
          "internalType": "uint256",
          "name": "",
          "type": "uint256"
        }
      ],
      "stateMutability": "pure",
      "type": "function"
    },
    {
      "inputs": [
        {
          "internalType": "address",
          "name": "_collateral",
          "type": "address"
        },
        {
          "internalType": "address",
          "name": "_id",
          "type": "address"
        },
        {
          "internalType": "uint256",
          "name": "_NICR",
          "type": "uint256"
        },
        {
          "internalType": "address",
          "name": "_prevId",
          "type": "address"
        },
        {
          "internalType": "address",
          "name": "_nextId",
          "type": "address"
        }
      ],
      "name": "insert",
      "outputs": [],
      "stateMutability": "nonpayable",
      "type": "function"
    },
    {
      "inputs": [
        {
          "internalType": "address",
          "name": "_id",
          "type": "address"
        },
        {
          "internalType": "address",
          "name": "_collateral",
          "type": "address"
        },
        {
          "internalType": "uint256",
          "name": "_newNICR",
          "type": "uint256"
        },
        {
          "internalType": "address",
          "name": "_prevId",
          "type": "address"
        },
        {
          "internalType": "address",
          "name": "_nextId",
          "type": "address"
        }
      ],
      "name": "reInsert",
      "outputs": [],
      "stateMutability": "nonpayable",
      "type": "function"
    },
    {
      "inputs": [
        {
          "internalType": "address",
          "name": "_collateral",
          "type": "address"
        },
        {
          "internalType": "address",
          "name": "_id",
          "type": "address"
        }
      ],
      "name": "remove",
      "outputs": [],
      "stateMutability": "nonpayable",
      "type": "function"
    },
    {
      "inputs": [
        {
          "internalType": "address",
          "name": "_sortedTrovesAddress",
          "type": "address"
        }
      ],
      "name": "setSortedTroves",
      "outputs": [],
      "stateMutability": "nonpayable",
      "type": "function"
    }
  ],
  "bytecode": "0x608060405234801561001057600080fd5b5061038a806100206000396000f3fe608060405234801561001057600080fd5b50600436106100625760003560e01c80637c933c0a146100675780637f7c1491146100af57806390ec2301146100dd578063b1eafaab1461011d578063bc9b5bd514610153578063e24b40d214610199575b600080fd5b6100ad600480360360a081101561007d57600080fd5b506001600160a01b03813581169160208101358216916040820135916060810135821691608090910135166101bf565b005b6100ad600480360360408110156100c557600080fd5b506001600160a01b0381358116916020013516610248565b61010b600480360360408110156100f357600080fd5b506001600160a01b03813581169160200135166102b7565b60408051918252519081900360200190f35b61010b6004803603606081101561013357600080fd5b506001600160a01b038135811691602081013590911690604001356102bf565b6100ad600480360360a081101561016957600080fd5b506001600160a01b03813581169160208101358216916040820135916060810135821691608090910135166102c8565b6100ad600480360360208110156101af57600080fd5b50356001600160a01b0316610332565b6000805460408051633e499e0560e11b81526001600160a01b0389811660048301528881166024830152604482018890528681166064830152858116608483015291519190921692637c933c0a9260a4808201939182900301818387803b15801561022957600080fd5b505af115801561023d573d6000803e3d6000fd5b505050505050505050565b6000805460408051637f7c149160e01b81526001600160a01b038681166004830152858116602483015291519190921692637f7c1491926044808201939182900301818387803b15801561029b57600080fd5b505af11580156102af573d6000803e3d6000fd5b505050505050565b600192915050565b60019392505050565b600080546040805163bc9b5bd560e01b81526001600160a01b038981166004830152888116602483015260448201889052868116606483015285811660848301529151919092169263bc9b5bd59260a4808201939182900301818387803b15801561022957600080fd5b600080546001600160a01b0319166001600160a01b039290921691909117905556fea2646970667358221220b9a14eaad87d48c2a38e8861bc04c9e8f09123adcf9bbac8c80f6b24ad46826264736f6c634300060b0033",
  "linkReferences": {},
  "deployedLinkReferences": {}
}