{
  "_format": "hh-sol-artifact-1",
  "contractName": "PriceFeed",
  "sourceName": "contracts/PriceFeed.sol",
  "abi": [
    {
      "anonymous": false,
      "inputs": [
        {
          "indexed": false,
          "internalType": "address",
          "name": "_newCollateralConfigAddress",
          "type": "address"
        }
      ],
      "name": "CollateralConfigAddressChanged",
      "type": "event"
    },
    {
      "anonymous": false,
      "inputs": [
        {
          "indexed": false,
          "internalType": "address",
          "name": "_collateral",
          "type": "address"
        },
        {
          "indexed": false,
          "internalType": "uint256",
          "name": "_lastGoodPrice",
          "type": "uint256"
        }
      ],
      "name": "LastGoodPriceUpdated",
      "type": "event"
    },
    {
      "anonymous": false,
      "inputs": [
        {
          "indexed": true,
          "internalType": "address",
          "name": "previousOwner",
          "type": "address"
        },
        {
          "indexed": true,
          "internalType": "address",
          "name": "newOwner",
          "type": "address"
        }
      ],
      "name": "OwnershipTransferred",
      "type": "event"
    },
    {
      "anonymous": false,
      "inputs": [
        {
          "indexed": false,
          "internalType": "address",
          "name": "_collateral",
          "type": "address"
        },
        {
          "indexed": false,
          "internalType": "enum PriceFeed.Status",
          "name": "newStatus",
          "type": "uint8"
        }
      ],
      "name": "PriceFeedStatusChanged",
      "type": "event"
    },
    {
      "inputs": [],
      "name": "DECIMAL_PRECISION",
      "outputs": [
        {
          "internalType": "uint256",
          "name": "",
          "type": "uint256"
        }
      ],
      "stateMutability": "view",
      "type": "function"
    },
    {
      "inputs": [],
      "name": "MAX_PRICE_DEVIATION_FROM_PREVIOUS_ROUND",
      "outputs": [
        {
          "internalType": "uint256",
          "name": "",
          "type": "uint256"
        }
      ],
      "stateMutability": "view",
      "type": "function"
    },
    {
      "inputs": [],
      "name": "MAX_PRICE_DIFFERENCE_BETWEEN_ORACLES",
      "outputs": [
        {
          "internalType": "uint256",
          "name": "",
          "type": "uint256"
        }
      ],
      "stateMutability": "view",
      "type": "function"
    },
    {
      "inputs": [],
      "name": "NAME",
      "outputs": [
        {
          "internalType": "string",
          "name": "",
          "type": "string"
        }
      ],
      "stateMutability": "view",
      "type": "function"
    },
    {
      "inputs": [],
      "name": "TARGET_DIGITS",
      "outputs": [
        {
          "internalType": "uint256",
          "name": "",
          "type": "uint256"
        }
      ],
      "stateMutability": "view",
      "type": "function"
    },
    {
      "inputs": [],
      "name": "TELLOR_DIGITS",
      "outputs": [
        {
          "internalType": "uint256",
          "name": "",
          "type": "uint256"
        }
      ],
      "stateMutability": "view",
      "type": "function"
    },
    {
      "inputs": [],
      "name": "TIMEOUT",
      "outputs": [
        {
          "internalType": "uint256",
          "name": "",
          "type": "uint256"
        }
      ],
      "stateMutability": "view",
      "type": "function"
    },
    {
      "inputs": [],
      "name": "collateralConfig",
      "outputs": [
        {
          "internalType": "contract ICollateralConfig",
          "name": "",
          "type": "address"
        }
      ],
      "stateMutability": "view",
      "type": "function"
    },
    {
      "inputs": [
        {
          "internalType": "address",
          "name": "_collateral",
          "type": "address"
        }
      ],
      "name": "fetchPrice",
      "outputs": [
        {
          "internalType": "uint256",
          "name": "",
          "type": "uint256"
        }
      ],
      "stateMutability": "nonpayable",
      "type": "function"
    },
    {
      "inputs": [],
      "name": "initialized",
      "outputs": [
        {
          "internalType": "bool",
          "name": "",
          "type": "bool"
        }
      ],
      "stateMutability": "view",
      "type": "function"
    },
    {
      "inputs": [],
      "name": "isOwner",
      "outputs": [
        {
          "internalType": "bool",
          "name": "",
          "type": "bool"
        }
      ],
      "stateMutability": "view",
      "type": "function"
    },
    {
      "inputs": [
        {
          "internalType": "address",
          "name": "",
          "type": "address"
        }
      ],
      "name": "lastGoodPrice",
      "outputs": [
        {
          "internalType": "uint256",
          "name": "",
          "type": "uint256"
        }
      ],
      "stateMutability": "view",
      "type": "function"
    },
    {
      "inputs": [],
      "name": "owner",
      "outputs": [
        {
          "internalType": "address",
          "name": "",
          "type": "address"
        }
      ],
      "stateMutability": "view",
      "type": "function"
    },
    {
      "inputs": [
        {
          "internalType": "address",
          "name": "",
          "type": "address"
        }
      ],
      "name": "priceAggregator",
      "outputs": [
        {
          "internalType": "contract AggregatorV3Interface",
          "name": "",
          "type": "address"
        }
      ],
      "stateMutability": "view",
      "type": "function"
    },
    {
      "inputs": [
        {
          "internalType": "address",
          "name": "_collateralConfigAddress",
          "type": "address"
        },
        {
          "internalType": "address[]",
          "name": "_priceAggregatorAddresses",
          "type": "address[]"
        },
        {
          "internalType": "address",
          "name": "_tellorCallerAddress",
          "type": "address"
        },
        {
          "internalType": "bytes32[]",
          "name": "_tellorQueryIds",
          "type": "bytes32[]"
        }
      ],
      "name": "setAddresses",
      "outputs": [],
      "stateMutability": "nonpayable",
      "type": "function"
    },
    {
      "inputs": [
        {
          "internalType": "address",
          "name": "",
          "type": "address"
        }
      ],
      "name": "status",
      "outputs": [
        {
          "internalType": "enum PriceFeed.Status",
          "name": "",
          "type": "uint8"
        }
      ],
      "stateMutability": "view",
      "type": "function"
    },
    {
      "inputs": [
        {
          "internalType": "address",
          "name": "",
          "type": "address"
        }
      ],
      "name": "tellorQueryId",
      "outputs": [
        {
          "internalType": "bytes32",
          "name": "",
          "type": "bytes32"
        }
      ],
      "stateMutability": "view",
      "type": "function"
    },
    {
      "inputs": [
        {
          "internalType": "address",
          "name": "_collateral",
          "type": "address"
        },
        {
          "internalType": "address",
          "name": "_priceAggregatorAddress",
          "type": "address"
        }
      ],
      "name": "updateChainlinkAggregator",
      "outputs": [],
      "stateMutability": "nonpayable",
      "type": "function"
    }
  ],
  "bytecode": "0x60806040526000805460ff60a01b1916905534801561001d57600080fd5b50600080546001600160a01b0319163390811782556040519091907f8be0079c531659141344cd1fd0a4f28419497f9722a3daafe3b4186f6b6457e0908290a3611a978061006c6000396000f3fe608060405234801561001057600080fd5b50600436106100f65760003560e01c80638f32d59b116100925780638f32d59b14610203578063a20baee61461020b578063a3f4df7e14610213578063a733a8b214610290578063ace1798e146102b6578063bae805b6146102dc578063ebf8e6c6146103b9578063f26c8ec9146103c1578063f56f48f2146103ef576100f6565b8063158ef93e146100fb5780631be5c92f1461011757806345079cb4146101315780634f722e111461013957806358a6aa881461017b5780635c0ab4de14610183578063645b8b1b1461018b5780638429bbf6146101d55780638da5cb5b146101fb575b600080fd5b6101036103f7565b604080519115158252519081900360200190f35b61011f610407565b60408051918252519081900360200190f35b61011f61040c565b61015f6004803603602081101561014f57600080fd5b50356001600160a01b0316610417565b604080516001600160a01b039092168252519081900360200190f35b61011f610432565b61015f61043e565b6101b1600480360360208110156101a157600080fd5b50356001600160a01b031661044d565b604051808260048111156101c157fe5b60ff16815260200191505060405180910390f35b61011f600480360360208110156101eb57600080fd5b50356001600160a01b0316610462565b61015f610474565b610103610483565b61011f610494565b61021b6104a0565b6040805160208082528351818301528351919283929083019185019080838360005b8381101561025557818101518382015260200161023d565b50505050905090810190601f1680156102825780820380516001836020036101000a031916815260200191505b509250505060405180910390f35b61011f600480360360208110156102a657600080fd5b50356001600160a01b03166104c5565b61011f600480360360208110156102cc57600080fd5b50356001600160a01b03166104d7565b6103b7600480360360808110156102f257600080fd5b6001600160a01b038235169190810190604081016020820135600160201b81111561031c57600080fd5b82018360208201111561032e57600080fd5b803590602001918460208302840111600160201b8311171561034f57600080fd5b919390926001600160a01b0383351692604081019060200135600160201b81111561037957600080fd5b82018360208201111561038b57600080fd5b803590602001918460208302840111600160201b831117156103ac57600080fd5b509092509050610905565b005b61011f610dfe565b6103b7600480360360408110156103d757600080fd5b506001600160a01b0381358116916020013516610e03565b61011f610f46565b600054600160a01b900460ff1681565b601281565b66b1a2bc2ec5000081565b6001602052600090815260409020546001600160a01b031681565b6706f05b59d3b2000081565b6004546001600160a01b031681565b60066020526000908152604090205460ff1681565b60056020526000908152604090205481565b6000546001600160a01b031690565b6000546001600160a01b0316331490565b670de0b6b3a764000081565b60405180604001604052806009815260200168141c9a58d95199595960ba1b81525081565b60036020526000908152604090205481565b60006104e282610f4c565b6104ea6119b6565b6104f38361101d565b90506104fd6119b6565b610510848360000151846080015161116f565b905061051a6119e4565b61052385611259565b905060006001600160a01b03861660009081526006602052604090205460ff16600481111561054e57fe5b14156106b55761055e8383611318565b156105d65761056c8161133b565b1561059e5761057c856002611388565b505050506001600160a01b038116600090815260056020526040902054610900565b6105a78161141f565b156105b75761057c856001611388565b6105c2856001611388565b6105cc8582611442565b9350505050610900565b6105df8361141f565b15610638576105ed8161133b565b156105fd5761057c856004611388565b610608856003611388565b6106118161141f565b156105c257505050506001600160a01b038116600090815260056020526040902054610900565b610642838361145e565b15610692576106508161133b565b156106605761057c856002611388565b6106698161141f565b156106795761057c856001611388565b61068383826114fd565b156105b7576105cc858461157c565b61069b8161133b565b156106ab576106ab856004611388565b6105cc858461157c565b60016001600160a01b03861660009081526006602052604090205460ff1660048111156106de57fe5b1415610718576106ef838383611594565b156106ff576106ab856000611388565b6107088161133b565b156106085761057c856002611388565b60026001600160a01b03861660009081526006602052604090205460ff16600481111561074157fe5b141561076257610752838383611594565b1561057c576106ab856000611388565b60036001600160a01b03861660009081526006602052604090205460ff16600481111561078b57fe5b141561084e5761079b8383611318565b156107c4576107a98161133b565b156107b95761057c856002611388565b610608856001611388565b6107cd8361141f565b156107eb576107db8161133b565b156106085761057c856004611388565b6107f48161133b565b15610804576106ab856004611388565b61080d8161141f565b1561083457505050506001600160a01b038116600090815260056020526040902054610900565b61083e83826114fd565b156105b7576106ab856000611388565b60046001600160a01b03861660009081526006602052604090205460ff16600481111561087757fe5b14156108fc576108878383611318565b156108975761057c856002611388565b6108a08361141f565b156108c757505050506001600160a01b038116600090815260056020526040902054610900565b6108d2838383611594565b156108e2576106ab856000611388565b6108ec838361145e565b156106ab5761057c856002611388565b5050505b919050565b61090d610483565b61095e576040805162461bcd60e51b815260206004820181905260248201527f4f776e61626c653a2063616c6c6572206973206e6f7420746865206f776e6572604482015290519081900360640190fd5b600054600160a01b900460ff16156109b8576040805162461bcd60e51b815260206004820152601860248201527743616e206f6e6c7920696e697469616c697a65206f6e636560401b604482015290519081900360640190fd5b6109c1866115ec565b600480546001600160a01b0388166001600160a01b0319909116811790915560408051918252517f6a69409f44477d8556c3c8040edc75d9bc1b3dee7846f6045c0b99556fe7bc919181900360200190a16060600460009054906101000a90046001600160a01b03166001600160a01b031663b2604ecf6040518163ffffffff1660e01b815260040160006040518083038186803b158015610a6257600080fd5b505afa158015610a76573d6000803e3d6000fd5b505050506040513d6000823e601f3d908101601f191682016040526020811015610a9f57600080fd5b8101908080516040519392919084600160201b821115610abe57600080fd5b908301906020820185811115610ad357600080fd5b82518660208202830111600160201b82111715610aef57600080fd5b82525081516020918201928201910280838360005b83811015610b1c578181015183820152602001610b04565b505050509190910160405250508251929350505080610b82576040805162461bcd60e51b815260206004820181905260248201527f4174206c65617374206f6e6520636f6c6c61746572616c207265717569726564604482015290519081900360640190fd5b858114610bd1576040805162461bcd60e51b8152602060048201526018602482015277082e4e4c2f240d8cadccee8d0e640daeae6e840dac2e8c6d60431b604482015290519081900360640190fd5b828114610c20576040805162461bcd60e51b8152602060048201526018602482015277082e4e4c2f240d8cadccee8d0e640daeae6e840dac2e8c6d60431b604482015290519081900360640190fd5b610c29856115ec565b600280546001600160a01b0319166001600160a01b03871617905560005b81811015610de0576000838281518110610c5d57fe5b602002602001015190506000898984818110610c7557fe5b905060200201356001600160a01b031690506000878785818110610c9557fe5b905060200201359050610ca7826115ec565b80610cf3576040805162461bcd60e51b8152602060048201526017602482015276125b9d985b1a590815195b1b1bdc88145d595c9e481251604a1b604482015290519081900360640190fd5b6001600160a01b03838116600090815260016020908152604080832080546001600160a01b03191694871694909417909355600381528282208490556006905220805460ff19169055610d446119b6565b610d4d8461101d565b9050610d576119b6565b610d6a858360000151846080015161116f565b9050610d768282611318565b158015610d895750610d878261141f565b155b610dc45760405162461bcd60e51b8152600401808060200182810382526030815260200180611a326030913960400191505060405180910390fd5b610dce858361157c565b505060019094019350610c4792505050565b50506000805460ff60a01b1916600160a01b17905550505050505050565b600681565b610e0b610483565b610e5c576040805162461bcd60e51b815260206004820181905260248201527f4f776e61626c653a2063616c6c6572206973206e6f7420746865206f776e6572604482015290519081900360640190fd5b610e6582610f4c565b610e6e816115ec565b6001600160a01b03828116600090815260016020908152604080832080546001600160a01b031916948616949094179093556006905220805460ff19169055610eb56119b6565b610ebe8361101d565b9050610ec86119b6565b610edb848360000151846080015161116f565b9050610ee78282611318565b158015610efa5750610ef88261141f565b155b610f355760405162461bcd60e51b8152600401808060200182810382526030815260200180611a326030913960400191505060405180910390fd5b610f3f848361157c565b5050505050565b61384081565b6004805460408051630658339960e51b81526001600160a01b03858116948201949094529051929091169163cb06732091602480820192602092909190829003018186803b158015610f9d57600080fd5b505afa158015610fb1573d6000803e3d6000fd5b505050506040513d6020811015610fc757600080fd5b505161101a576040805162461bcd60e51b815260206004820152601a60248201527f496e76616c696420636f6c6c61746572616c2061646472657373000000000000604482015290519081900360640190fd5b50565b6110256119b6565b6001600160a01b0380831660009081526001602090815260409182902054825163313ce56760e01b8152925193169263313ce567926004808201939291829003018186803b15801561107657600080fd5b505afa92505050801561109b57506040513d602081101561109657600080fd5b505160015b6110a457610900565b60ff1660808201526001600160a01b0380831660009081526001602052604090819020548151633fabe5a360e21b8152915192169163feaf968c9160048082019260a092909190829003018186803b1580156110ff57600080fd5b505afa92505050801561114157506040513d60a081101561111f57600080fd5b5080516020820151604083015160608401516080909401519293919290919060015b61114a57610900565b506001600160501b039093168452506020830152604082015260016060820152610900565b6111776119b6565b6001600160a01b0380851660009081526001602052604090819020548151639a6fc8f560e01b81526001600160501b0360001988011660048201529151921691639a6fc8f59160248082019260a092909190829003018186803b1580156111dd57600080fd5b505afa92505050801561121f57506040513d60a08110156111fd57600080fd5b5080516020820151604083015160608401516080909401519293919290919060015b61122857611252565b506001600160501b039093168452506020830152604082015260ff82166080820152600160608201525b9392505050565b6112616119e4565b6002546001600160a01b0383811660009081526003602052604090819020548151637835690560e01b81526004810191909152905191909216916378356905916024808301926060929190829003018186803b1580156112c057600080fd5b505afa9250505080156112f457506040513d60608110156112e057600080fd5b508051602082015160409092015190919060015b6112fd57610900565b91151583526020830152604082015260016060820152610900565b60006113238361169f565b8061133257506113328261169f565b90505b92915050565b6000816060015161134e57506001610900565b604082015115806113625750428260400151115b1561136f57506001610900565b602082015161138057506001610900565b506000919050565b6001600160a01b0382166000908152600660205260409020805482919060ff191660018360048111156113b757fe5b02179055507feba39f437b810933b4ec5b994dfe4cb7ae3ad9d652a76aa5cdb34e57dc20d6df828260405180836001600160a01b03166001600160a01b0316815260200182600481111561140757fe5b60ff1681526020019250505060405180910390a15050565b600061384061143b8360400151426116fe90919063ffffffff16565b1192915050565b6000806114528360200151611740565b90506113328482611757565b6000806114768460200151856080015160ff166117b0565b9050600061148f8460200151856080015160ff166117b0565b9050600061149d83836117f9565b905060006114ab848461180f565b905060006114e7826114db670de0b6b3a76400006114cf838863ffffffff6116fe16565b9063ffffffff61181f16565b9063ffffffff61187816565b6706f05b59d3b200001098975050505050505050565b6000806115158460200151856080015160ff166117b0565b905060006115268460200151611740565b9050600061153482846117f9565b90506000611542838561180f565b90506000611566836114db670de0b6b3a76400006114cf868463ffffffff6116fe16565b66b1a2bc2ec50000101598975050505050505050565b6000806114528360200151846080015160ff166117b0565b600061159f8261133b565b806115ae57506115ae8261141f565b806115be57506115be8484611318565b806115cd57506115cd8461141f565b156115da57506000611252565b6115e484836114fd565b949350505050565b6001600160a01b038116611647576040805162461bcd60e51b815260206004820152601e60248201527f4163636f756e742063616e6e6f74206265207a65726f20616464726573730000604482015290519081900360640190fd5b803b8061169b576040805162461bcd60e51b815260206004820181905260248201527f4163636f756e7420636f64652073697a652063616e6e6f74206265207a65726f604482015290519081900360640190fd5b5050565b600081606001516116b257506001610900565b81516001600160501b03166116c957506001610900565b604082015115806116dd5750428260400151115b156116ea57506001610900565b600082602001511361138057506001610900565b600061133283836040518060400160405280601e81526020017f536166654d6174683a207375627472616374696f6e206f766572666c6f7700008152506118ba565b60006113358264e8d4a5100063ffffffff61181f16565b6001600160a01b0382166000818152600560209081526040918290208490558151928352820183905280517f9a696fe6a955b23852e2b245b6847dfda7d8944623d9b42628e087344ad179639281900390910190a15050565b600080601283106117d9576117d2846011198501600a0a63ffffffff61187816565b9050611332565b6012831015611332576115e4846012859003600a0a63ffffffff61181f16565b60008183106118085781611332565b5090919050565b6000818310156118085781611332565b60008261182e57506000611335565b8282028284828161183b57fe5b04146113325760405162461bcd60e51b8152600401808060200182810382526021815260200180611a116021913960400191505060405180910390fd5b600061133283836040518060400160405280601a81526020017f536166654d6174683a206469766973696f6e206279207a65726f000000000000815250611951565b600081848411156119495760405162461bcd60e51b81526004018080602001828103825283818151815260200191508051906020019080838360005b8381101561190e5781810151838201526020016118f6565b50505050905090810190601f16801561193b5780820380516001836020036101000a031916815260200191505b509250505060405180910390fd5b505050900390565b600081836119a05760405162461bcd60e51b815260206004820181815283516024840152835190928392604490910191908501908083836000831561190e5781810151838201526020016118f6565b5060008385816119ac57fe5b0495945050505050565b6040805160a08101825260008082526020820181905291810182905260608101829052608081019190915290565b60405180608001604052806000151581526020016000815260200160008152602001600015158152509056fe536166654d6174683a206d756c7469706c69636174696f6e206f766572666c6f775072696365466565643a20436861696e6c696e6b206d75737420626520776f726b696e6720616e642063757272656e74a2646970667358221220065e61671263e46b934b0ba9dbc4cbf8b32a3dfc3c263cd7b997d714fd0e39ce64736f6c634300060b0033",
  "linkReferences": {},
  "deployedLinkReferences": {}
}