{
  "_format": "hh-sol-artifact-1",
  "contractName": "BorrowerWrappersScript",
  "sourceName": "contracts/Proxy/BorrowerWrappersScript.sol",
  "abi": [
    {
      "inputs": [
        {
          "internalType": "address",
          "name": "_borrowerOperationsAddress",
          "type": "address"
        },
        {
          "internalType": "address",
          "name": "_collateralConfigAddress",
          "type": "address"
        },
        {
          "internalType": "address",
          "name": "_troveManagerAddress",
          "type": "address"
        },
        {
          "internalType": "address",
          "name": "_lqtyStakingAddress",
          "type": "address"
        }
      ],
      "stateMutability": "nonpayable",
      "type": "constructor"
    },
    {
      "inputs": [],
      "name": "NAME",
      "outputs": [
        {
          "internalType": "string",
          "name": "",
          "type": "string"
        }
      ],
      "stateMutability": "view",
      "type": "function"
    },
    {
      "inputs": [
        {
          "internalType": "address",
          "name": "_collateral",
          "type": "address"
        },
        {
          "internalType": "uint256",
          "name": "_collAmount",
          "type": "uint256"
        },
        {
          "internalType": "address",
          "name": "_upperHint",
          "type": "address"
        },
        {
          "internalType": "address",
          "name": "_lowerHint",
          "type": "address"
        }
      ],
      "name": "addColl",
      "outputs": [],
      "stateMutability": "nonpayable",
      "type": "function"
    },
    {
      "inputs": [
        {
          "internalType": "address",
          "name": "_collateral",
          "type": "address"
        },
        {
          "internalType": "uint256",
          "name": "_maxFee",
          "type": "uint256"
        },
        {
          "internalType": "uint256",
          "name": "_collTopUp",
          "type": "uint256"
        },
        {
          "internalType": "uint256",
          "name": "_collWithdrawal",
          "type": "uint256"
        },
        {
          "internalType": "uint256",
          "name": "_debtChange",
          "type": "uint256"
        },
        {
          "internalType": "bool",
          "name": "isDebtIncrease",
          "type": "bool"
        },
        {
          "internalType": "address",
          "name": "_upperHint",
          "type": "address"
        },
        {
          "internalType": "address",
          "name": "_lowerHint",
          "type": "address"
        }
      ],
      "name": "adjustTrove",
      "outputs": [],
      "stateMutability": "nonpayable",
      "type": "function"
    },
    {
      "inputs": [
        {
          "internalType": "address",
          "name": "_collateral",
          "type": "address"
        }
      ],
      "name": "claimCollateral",
      "outputs": [],
      "stateMutability": "nonpayable",
      "type": "function"
    },
    {
      "inputs": [
        {
          "internalType": "address",
          "name": "_collateral",
          "type": "address"
        },
        {
          "internalType": "uint256",
          "name": "_collAmount",
          "type": "uint256"
        },
        {
          "internalType": "uint256",
          "name": "_maxFee",
          "type": "uint256"
        },
        {
          "internalType": "uint256",
          "name": "_LUSDAmount",
          "type": "uint256"
        },
        {
          "internalType": "address",
          "name": "_upperHint",
          "type": "address"
        },
        {
          "internalType": "address",
          "name": "_lowerHint",
          "type": "address"
        }
      ],
      "name": "claimCollateralAndOpenTrove",
      "outputs": [],
      "stateMutability": "nonpayable",
      "type": "function"
    },
    {
      "inputs": [
        {
          "internalType": "address",
          "name": "_collateral",
          "type": "address"
        },
        {
          "internalType": "uint256",
          "name": "_maxFee",
          "type": "uint256"
        },
        {
          "internalType": "address",
          "name": "_upperHint",
          "type": "address"
        },
        {
          "internalType": "address",
          "name": "_lowerHint",
          "type": "address"
        }
      ],
      "name": "claimSPRewardsAndRecycle",
      "outputs": [],
      "stateMutability": "nonpayable",
      "type": "function"
    },
    {
      "inputs": [
        {
          "internalType": "address",
          "name": "_collateral",
          "type": "address"
        },
        {
          "internalType": "uint256",
          "name": "_maxFee",
          "type": "uint256"
        },
        {
          "internalType": "address",
          "name": "_upperHint",
          "type": "address"
        },
        {
          "internalType": "address",
          "name": "_lowerHint",
          "type": "address"
        }
      ],
      "name": "claimStakingGainsAndRecycle",
      "outputs": [],
      "stateMutability": "nonpayable",
      "type": "function"
    },
    {
      "inputs": [
        {
          "internalType": "address",
          "name": "_collateral",
          "type": "address"
        }
      ],
      "name": "closeTrove",
      "outputs": [],
      "stateMutability": "nonpayable",
      "type": "function"
    },
    {
      "inputs": [
        {
          "internalType": "address",
          "name": "_collateral",
          "type": "address"
        },
        {
          "internalType": "uint256",
          "name": "_collAmount",
          "type": "uint256"
        },
        {
          "internalType": "uint256",
          "name": "_maxFee",
          "type": "uint256"
        },
        {
          "internalType": "uint256",
          "name": "_LUSDAmount",
          "type": "uint256"
        },
        {
          "internalType": "address",
          "name": "_upperHint",
          "type": "address"
        },
        {
          "internalType": "address",
          "name": "_lowerHint",
          "type": "address"
        }
      ],
      "name": "openTrove",
      "outputs": [],
      "stateMutability": "nonpayable",
      "type": "function"
    },
    {
      "inputs": [
        {
          "internalType": "address",
          "name": "_collateral",
          "type": "address"
        },
        {
          "internalType": "uint256",
          "name": "_amount",
          "type": "uint256"
        },
        {
          "internalType": "address",
          "name": "_upperHint",
          "type": "address"
        },
        {
          "internalType": "address",
          "name": "_lowerHint",
          "type": "address"
        }
      ],
      "name": "repayLUSD",
      "outputs": [],
      "stateMutability": "nonpayable",
      "type": "function"
    },
    {
      "inputs": [
        {
          "internalType": "uint256",
          "name": "_LQTYamount",
          "type": "uint256"
        }
      ],
      "name": "stake",
      "outputs": [],
      "stateMutability": "nonpayable",
      "type": "function"
    },
    {
      "inputs": [
        {
          "internalType": "address",
          "name": "_token",
          "type": "address"
        },
        {
          "internalType": "address",
          "name": "_recipient",
          "type": "address"
        },
        {
          "internalType": "uint256",
          "name": "_amount",
          "type": "uint256"
        }
      ],
      "name": "transferERC20",
      "outputs": [
        {
          "internalType": "bool",
          "name": "",
          "type": "bool"
        }
      ],
      "stateMutability": "nonpayable",
      "type": "function"
    },
    {
      "inputs": [
        {
          "internalType": "address",
          "name": "_collateral",
          "type": "address"
        },
        {
          "internalType": "uint256",
          "name": "_amount",
          "type": "uint256"
        },
        {
          "internalType": "address",
          "name": "_upperHint",
          "type": "address"
        },
        {
          "internalType": "address",
          "name": "_lowerHint",
          "type": "address"
        }
      ],
      "name": "withdrawColl",
      "outputs": [],
      "stateMutability": "nonpayable",
      "type": "function"
    },
    {
      "inputs": [
        {
          "internalType": "address",
          "name": "_collateral",
          "type": "address"
        },
        {
          "internalType": "uint256",
          "name": "_maxFee",
          "type": "uint256"
        },
        {
          "internalType": "uint256",
          "name": "_amount",
          "type": "uint256"
        },
        {
          "internalType": "address",
          "name": "_upperHint",
          "type": "address"
        },
        {
          "internalType": "address",
          "name": "_lowerHint",
          "type": "address"
        }
      ],
      "name": "withdrawLUSD",
      "outputs": [],
      "stateMutability": "nonpayable",
      "type": "function"
    }
  ],
  "bytecode": "0x6101a06040523480156200001257600080fd5b5060405162002be938038062002be9833981810160405260808110156200003857600080fd5b5080516020820151604083015160609093015191929091808462000065816001600160e01b036200043616565b60601b6001600160601b031916608052620000808162000436565b60601b6001600160601b03191660a0526200009b8362000436565b6001600160601b0319606084901b1660c05282620000c2836001600160e01b036200043616565b6000839050806001600160a01b031660e0816001600160a01b031660601b815250506000816001600160a01b031663048c661d6040518163ffffffff1660e01b815260040160206040518083038186803b1580156200012057600080fd5b505afa15801562000135573d6000803e3d6000fd5b505050506040513d60208110156200014c57600080fd5b5051905062000164816001600160e01b036200043616565b806001600160a01b0316610100816001600160a01b031660601b815250506000826001600160a01b031663741bef1a6040518163ffffffff1660e01b815260040160206040518083038186803b158015620001be57600080fd5b505afa158015620001d3573d6000803e3d6000fd5b505050506040513d6020811015620001ea57600080fd5b5051905062000202816001600160e01b036200043616565b806001600160a01b0316610120816001600160a01b031660601b815250506000836001600160a01b031663b83f91a26040518163ffffffff1660e01b815260040160206040518083038186803b1580156200025c57600080fd5b505afa15801562000271573d6000803e3d6000fd5b505050506040513d60208110156200028857600080fd5b50519050620002a0816001600160e01b036200043616565b806001600160a01b0316610140816001600160a01b031660601b815250506000846001600160a01b0316631f7af3c36040518163ffffffff1660e01b815260040160206040518083038186803b158015620002fa57600080fd5b505afa1580156200030f573d6000803e3d6000fd5b505050506040513d60208110156200032657600080fd5b505190506200033e816001600160e01b036200043616565b806001600160a01b0316610160816001600160a01b031660601b815250506000856001600160a01b031663a3a640176040518163ffffffff1660e01b815260040160206040518083038186803b1580156200039857600080fd5b505afa158015620003ad573d6000803e3d6000fd5b505050506040513d6020811015620003c457600080fd5b505190506001600160a01b0388811690821614620004145760405162461bcd60e51b815260040180806020018281038252603181526020018062002bb86031913960400191505060405180910390fd5b60601b6001600160601b0319166101805250620004eb98505050505050505050565b6001600160a01b03811662000492576040805162461bcd60e51b815260206004820152601e60248201527f4163636f756e742063616e6e6f74206265207a65726f20616464726573730000604482015290519081900360640190fd5b803b80620004e7576040805162461bcd60e51b815260206004820181905260248201527f4163636f756e7420636f64652073697a652063616e6e6f74206265207a65726f604482015290519081900360640190fd5b5050565b60805160601c60a05160601c60c05160601c60e05160601c6101005160601c6101205160601c6101405160601c6101605160601c6101805160601c6125af6200060960003980610af15280610eeb5280610fa752806119805280611a3c525080610a595280610e2a5280610ebc5280611585528061171652806119515250806109c15280610bec525080611d78525080610d8c528061161d52806118b6525080611cbc5280611e4f5280611f95525080611eec52508061140d52508061048252806104e65280610587528061066c528061079d528061080f52806108bc5280610c8f5280610d11528061104652806110c7528061115e52806111d0528061123c5280611306528061147352806117cb528061184d52506125af6000f3fe608060405234801561001057600080fd5b50600436106100ca5760003560e01c80638235b2841161007c5780638235b284146102b057806386a3e59a146102d65780639db5dbe414610312578063a3f4df7e1461035c578063a694fc3a146103d9578063cbd138ae146103f6578063dde90cb31461041c576100ca565b806348a4a39d146100cf57806349b010c51461010d5780634b3b39c8146101495780635e66c9211461019157806371c9382c146101d557806374399021146102115780637da0b1fa14610268575b600080fd5b61010b600480360360808110156100e557600080fd5b506001600160a01b03813581169160208101359160408201358116916060013516610458565b005b61010b6004803603608081101561012357600080fd5b506001600160a01b0381358116916020810135916040820135811691606001351661054e565b61010b600480360360c081101561015f57600080fd5b506001600160a01b038135811691602081013591604082013591606081013591608082013581169160a00135166105d1565b61010b600480360360a08110156101a757600080fd5b506001600160a01b03813581169160208101359160408201359160608101358216916080909101351661087c565b61010b600480360360808110156101eb57600080fd5b506001600160a01b03813581169160208101359160408201358116916060013516610925565b61010b600480360361010081101561022857600080fd5b506001600160a01b03813581169160208101359160408201359160608101359160808201359160a081013515159160c082013581169160e0013516611016565b61010b600480360360c081101561027e57600080fd5b506001600160a01b038135811691602081013591604082013591606081013591608082013581169160a0013516611134565b61010b600480360360208110156102c657600080fd5b50356001600160a01b031661123a565b61010b600480360360808110156102ec57600080fd5b506001600160a01b038135811691602081013591604082013581169160600135166112cd565b6103486004803603606081101561032857600080fd5b506001600160a01b03813581169160208101359091169060400135611350565b604080519115158252519081900360200190f35b6103646113d9565b6040805160208082528351818301528351919283929083019185019080838360005b8381101561039e578181015183820152602001610386565b50505050905090810190601f1680156103cb5780820380516001836020036101000a031916815260200191505b509250505060405180910390f35b61010b600480360360208110156103ef57600080fd5b503561140b565b61010b6004803603602081101561040c57600080fd5b50356001600160a01b0316611471565b61010b6004803603608081101561043257600080fd5b506001600160a01b038135811691602081013591604082013581169160600135166114e9565b6104736001600160a01b03851633308663ffffffff611aa716565b6104ad6001600160a01b0385167f00000000000000000000000000000000000000000000000000000000000000008563ffffffff611b0716565b604080516348a4a39d60e01b81526001600160a01b038681166004830152602482018690528481166044830152838116606483015291517f0000000000000000000000000000000000000000000000000000000000000000909216916348a4a39d9160848082019260009290919082900301818387803b15801561053057600080fd5b505af1158015610544573d6000803e3d6000fd5b5050505050505050565b604080516349b010c560e01b81526001600160a01b038681166004830152602482018690528481166044830152838116606483015291517f0000000000000000000000000000000000000000000000000000000000000000909216916349b010c59160848082019260009290919082900301818387803b15801561053057600080fd5b604080516370a0823160e01b815230600482015290516000916001600160a01b038916916370a0823191602480820192602092909190829003018186803b15801561061b57600080fd5b505afa15801561062f573d6000803e3d6000fd5b505050506040513d602081101561064557600080fd5b50516040805163208d6ca160e21b81526001600160a01b038a8116600483015291519293507f000000000000000000000000000000000000000000000000000000000000000090911691638235b2849160248082019260009290919082900301818387803b1580156106b657600080fd5b505af11580156106ca573d6000803e3d6000fd5b5050604080516370a0823160e01b81523060048201529051600093506001600160a01b038b1692506370a0823191602480820192602092909190829003018186803b15801561071857600080fd5b505afa15801561072c573d6000803e3d6000fd5b505050506040513d602081101561074257600080fd5b5051905081811161074f57fe5b600061077188610765848663ffffffff611bed16565b9063ffffffff611c3816565b905061078e6001600160a01b038a1633308b63ffffffff611aa716565b6107c86001600160a01b038a167f00000000000000000000000000000000000000000000000000000000000000008363ffffffff611b0716565b60408051633ed058fd60e11b81526001600160a01b038b8116600483015260248201849052604482018a905260648201899052878116608483015286811660a483015291517f000000000000000000000000000000000000000000000000000000000000000090921691637da0b1fa9160c48082019260009290919082900301818387803b15801561085957600080fd5b505af115801561086d573d6000803e3d6000fd5b50505050505050505050505050565b60408051635e66c92160e01b81526001600160a01b03878116600483015260248201879052604482018690528481166064830152838116608483015291517f000000000000000000000000000000000000000000000000000000000000000090921691635e66c9219160a48082019260009290919082900301818387803b15801561090657600080fd5b505af115801561091a573d6000803e3d6000fd5b505050505050505050565b604080516370a0823160e01b815230600482015290516000916001600160a01b038716916370a0823191602480820192602092909190829003018186803b15801561096f57600080fd5b505afa158015610983573d6000803e3d6000fd5b505050506040513d602081101561099957600080fd5b5051604080516370a0823160e01b815230600482015290519192506000916001600160a01b037f000000000000000000000000000000000000000000000000000000000000000016916370a08231916024808301926020929190829003018186803b158015610a0757600080fd5b505afa158015610a1b573d6000803e3d6000fd5b505050506040513d6020811015610a3157600080fd5b5051604080516370a0823160e01b815230600482015290519192506000916001600160a01b037f000000000000000000000000000000000000000000000000000000000000000016916370a08231916024808301926020929190829003018186803b158015610a9f57600080fd5b505afa158015610ab3573d6000803e3d6000fd5b505050506040513d6020811015610ac957600080fd5b5051604080516305c2fbcf60e31b815260006004820181905291519293506001600160a01b037f00000000000000000000000000000000000000000000000000000000000000001692632e17de789260248084019391929182900301818387803b158015610b3657600080fd5b505af1158015610b4a573d6000803e3d6000fd5b505050506000610be284896001600160a01b03166370a08231306040518263ffffffff1660e01b815260040180826001600160a01b03166001600160a01b0316815260200191505060206040518083038186803b158015610baa57600080fd5b505afa158015610bbe573d6000803e3d6000fd5b505050506040513d6020811015610bd457600080fd5b50519063ffffffff611bed16565b90506000610c60847f00000000000000000000000000000000000000000000000000000000000000006001600160a01b03166370a08231306040518263ffffffff1660e01b815260040180826001600160a01b03166001600160a01b0316815260200191505060206040518083038186803b158015610baa57600080fd5b905060008215610d7057610c74308b611c92565b610c7e8a84611d73565b9050610cba6001600160a01b038b167f00000000000000000000000000000000000000000000000000000000000000008563ffffffff611b0716565b60408051637439902160e01b81526001600160a01b038c81166004830152602482018c90526044820186905260006064830181905260848301859052600160a48401528b821660c48401528a821660e484015292517f000000000000000000000000000000000000000000000000000000000000000090911692637439902192610104808201939182900301818387803b158015610d5757600080fd5b505af1158015610d6b573d6000803e3d6000fd5b505050505b6000610d82838363ffffffff611c3816565b90508015611009577f00000000000000000000000000000000000000000000000000000000000000006001600160a01b03166378c77a24826040518263ffffffff1660e01b815260040180828152602001915050600060405180830381600087803b158015610df057600080fd5b505af1158015610e04573d6000803e3d6000fd5b5050604080516370a0823160e01b81523060048201529051600093506001600160a01b037f00000000000000000000000000000000000000000000000000000000000000001692506370a0823191602480820192602092909190829003018186803b158015610e7257600080fd5b505afa158015610e86573d6000803e3d6000fd5b505050506040513d6020811015610e9c57600080fd5b505190506000610eb2828863ffffffff611bed16565b9050801561086d577f00000000000000000000000000000000000000000000000000000000000000006001600160a01b031663095ea7b37f0000000000000000000000000000000000000000000000000000000000000000836040518363ffffffff1660e01b815260040180836001600160a01b03166001600160a01b0316815260200182815260200192505050602060405180830381600087803b158015610f5a57600080fd5b505af1158015610f6e573d6000803e3d6000fd5b505050506040513d6020811015610f8457600080fd5b50506040805163534a7e1d60e11b81526004810183905290516001600160a01b037f0000000000000000000000000000000000000000000000000000000000000000169163a694fc3a91602480830192600092919082900301818387803b158015610fee57600080fd5b505af1158015611002573d6000803e3d6000fd5b5050505050505b5050505050505050505050565b8515611071576110376001600160a01b03891633308963ffffffff611aa716565b6110716001600160a01b0389167f00000000000000000000000000000000000000000000000000000000000000008863ffffffff611b0716565b60408051637439902160e01b81526001600160a01b038a81166004830152602482018a905260448201899052606482018890526084820187905285151560a483015284811660c483015283811660e483015291517f0000000000000000000000000000000000000000000000000000000000000000909216916374399021916101048082019260009290919082900301818387803b15801561111257600080fd5b505af1158015611126573d6000803e3d6000fd5b505050505050505050505050565b61114f6001600160a01b03871633308863ffffffff611aa716565b6111896001600160a01b0387167f00000000000000000000000000000000000000000000000000000000000000008763ffffffff611b0716565b60408051633ed058fd60e11b81526001600160a01b038881166004830152602482018890526044820187905260648201869052848116608483015283811660a483015291517f000000000000000000000000000000000000000000000000000000000000000090921691637da0b1fa9160c48082019260009290919082900301818387803b15801561121a57600080fd5b505af115801561122e573d6000803e3d6000fd5b50505050505050505050565b7f00000000000000000000000000000000000000000000000000000000000000006001600160a01b0316638235b284826040518263ffffffff1660e01b815260040180826001600160a01b03166001600160a01b03168152602001915050600060405180830381600087803b1580156112b257600080fd5b505af11580156112c6573d6000803e3d6000fd5b5050505050565b60408051634351f2cd60e11b81526001600160a01b038681166004830152602482018690528481166044830152838116606483015291517f0000000000000000000000000000000000000000000000000000000000000000909216916386a3e59a9160848082019260009290919082900301818387803b15801561053057600080fd5b6040805163a9059cbb60e01b81526001600160a01b03848116600483015260248201849052915160009286169163a9059cbb91604480830192602092919082900301818787803b1580156113a357600080fd5b505af11580156113b7573d6000803e3d6000fd5b505050506040513d60208110156113cd57600080fd5b505190505b9392505050565b60405180604001604052806016815260200175109bdc9c9bddd95c95dc985c1c195c9cd4d8dc9a5c1d60521b81525081565b7f00000000000000000000000000000000000000000000000000000000000000006001600160a01b031663a694fc3a826040518263ffffffff1660e01b815260040180828152602001915050600060405180830381600087803b1580156112b257600080fd5b7f00000000000000000000000000000000000000000000000000000000000000006001600160a01b031663cbd138ae826040518263ffffffff1660e01b815260040180826001600160a01b03166001600160a01b03168152602001915050600060405180830381600087803b1580156112b257600080fd5b604080516370a0823160e01b815230600482015290516000916001600160a01b038716916370a0823191602480820192602092909190829003018186803b15801561153357600080fd5b505afa158015611547573d6000803e3d6000fd5b505050506040513d602081101561155d57600080fd5b5051604080516370a0823160e01b815230600482015290519192506000916001600160a01b037f000000000000000000000000000000000000000000000000000000000000000016916370a08231916024808301926020929190829003018186803b1580156115cb57600080fd5b505afa1580156115df573d6000803e3d6000fd5b505050506040513d60208110156115f557600080fd5b505160408051632e54bf9560e01b815260006004820181905291519293506001600160a01b037f00000000000000000000000000000000000000000000000000000000000000001692632e54bf959260248084019391929182900301818387803b15801561166257600080fd5b505af1158015611676573d6000803e3d6000fd5b5050604080516370a0823160e01b81523060048201529051600093506001600160a01b038a1692506370a0823191602480820192602092909190829003018186803b1580156116c457600080fd5b505afa1580156116d8573d6000803e3d6000fd5b505050506040513d60208110156116ee57600080fd5b5051604080516370a0823160e01b815230600482015290519192506000916001600160a01b037f000000000000000000000000000000000000000000000000000000000000000016916370a08231916024808301926020929190829003018186803b15801561175c57600080fd5b505afa158015611770573d6000803e3d6000fd5b505050506040513d602081101561178657600080fd5b50519050600061179c838663ffffffff611bed16565b90508015611935576117ae308a611c92565b60006117ba8a83611d73565b90506117f66001600160a01b038b167f00000000000000000000000000000000000000000000000000000000000000008463ffffffff611b0716565b60408051637439902160e01b81526001600160a01b038c81166004830152602482018c90526044820185905260006064830181905260848301859052600160a48401528b821660c48401528a821660e484015292517f000000000000000000000000000000000000000000000000000000000000000090911692637439902192610104808201939182900301818387803b15801561189357600080fd5b505af11580156118a7573d6000803e3d6000fd5b505050506000811115611933577f00000000000000000000000000000000000000000000000000000000000000006001600160a01b03166378c77a24826040518263ffffffff1660e01b815260040180828152602001915050600060405180830381600087803b15801561191a57600080fd5b505af115801561192e573d6000803e3d6000fd5b505050505b505b6000611947838663ffffffff611bed16565b9050801561122e577f00000000000000000000000000000000000000000000000000000000000000006001600160a01b031663095ea7b37f0000000000000000000000000000000000000000000000000000000000000000836040518363ffffffff1660e01b815260040180836001600160a01b03166001600160a01b0316815260200182815260200192505050602060405180830381600087803b1580156119ef57600080fd5b505af1158015611a03573d6000803e3d6000fd5b505050506040513d6020811015611a1957600080fd5b50506040805163534a7e1d60e11b81526004810183905290516001600160a01b037f0000000000000000000000000000000000000000000000000000000000000000169163a694fc3a91602480830192600092919082900301818387803b158015611a8357600080fd5b505af1158015611a97573d6000803e3d6000fd5b5050505050505050505050505050565b604080516001600160a01b0380861660248301528416604482015260648082018490528251808303909101815260849091019091526020810180516001600160e01b03166323b872dd60e01b179052611b0190859061205c565b50505050565b60408051636eb1769f60e11b81523060048201526001600160a01b0384811660248301529151600092611b989285929188169163dd62ed3e91604480820192602092909190829003018186803b158015611b6057600080fd5b505afa158015611b74573d6000803e3d6000fd5b505050506040513d6020811015611b8a57600080fd5b50519063ffffffff611c3816565b604080516001600160a01b038616602482015260448082018490528251808303909101815260649091019091526020810180516001600160e01b031663095ea7b360e01b179052909150611b0190859061205c565b6000611c2f83836040518060400160405280601e81526020017f536166654d6174683a207375627472616374696f6e206f766572666c6f770000815250612112565b90505b92915050565b600082820183811015611c2f576040805162461bcd60e51b815260206004820152601b60248201527f536166654d6174683a206164646974696f6e206f766572666c6f770000000000604482015290519081900360640190fd5b6040805163614d120960e01b81526001600160a01b038481166004830152838116602483015291517f00000000000000000000000000000000000000000000000000000000000000009092169163614d120991604480820192602092909190829003018186803b158015611d0557600080fd5b505afa158015611d19573d6000803e3d6000fd5b505050506040513d6020811015611d2f57600080fd5b5051600114611d6f5760405162461bcd60e51b81526004018080602001828103825260388152602001806124d16038913960400191505060405180910390fd5b5050565b6000807f00000000000000000000000000000000000000000000000000000000000000006001600160a01b031663ace1798e856040518263ffffffff1660e01b815260040180826001600160a01b03166001600160a01b03168152602001915050602060405180830381600087803b158015611dee57600080fd5b505af1158015611e02573d6000803e3d6000fd5b505050506040513d6020811015611e1857600080fd5b50516040805163b1eafaab60e01b81523060048201526001600160a01b0387811660248301526044820184905291519293506000927f00000000000000000000000000000000000000000000000000000000000000009092169163b1eafaab91606480820192602092909190829003018186803b158015611e9857600080fd5b505afa158015611eac573d6000803e3d6000fd5b505050506040513d6020811015611ec257600080fd5b50516040805163eb7aac5f60e01b81526001600160a01b03888116600483015291519293506000927f00000000000000000000000000000000000000000000000000000000000000009092169163eb7aac5f91602480820192602092909190829003018186803b158015611f3557600080fd5b505afa158015611f49573d6000803e3d6000fd5b505050506040513d6020811015611f5f57600080fd5b505190506000611f8f83611f8386611f778a876121a9565b9063ffffffff6121f116565b9063ffffffff61224a16565b905060007f00000000000000000000000000000000000000000000000000000000000000006001600160a01b03166366ca4a216040518163ffffffff1660e01b815260040160206040518083038186803b158015611fec57600080fd5b505afa158015612000573d6000803e3d6000fd5b505050506040513d602081101561201657600080fd5b50519050600061204f612037670de0b6b3a76400008463ffffffff611c3816565b611f8385670de0b6b3a764000063ffffffff6121f116565b9998505050505050505050565b60606120b1826040518060400160405280602081526020017f5361666545524332303a206c6f772d6c6576656c2063616c6c206661696c6564815250856001600160a01b031661228c9092919063ffffffff16565b80519091501561210d578080602001905160208110156120d057600080fd5b505161210d5760405162461bcd60e51b815260040180806020018281038252602a815260200180612550602a913960400191505060405180910390fd5b505050565b600081848411156121a15760405162461bcd60e51b81526004018080602001828103825283818151815260200191508051906020019080838360005b8381101561216657818101518382015260200161214e565b50505050905090810190601f1680156121935780820380516001836020036101000a031916815260200191505b509250505060405180910390fd5b505050900390565b8160128211156121d1576121ca816011198401600a0a63ffffffff61224a16565b9050611c32565b6012821015611c3257611c2f816012849003600a0a63ffffffff6121f116565b60008261220057506000611c32565b8282028284828161220d57fe5b0414611c2f5760405162461bcd60e51b815260040180806020018281038252602181526020018061252f6021913960400191505060405180910390fd5b6000611c2f83836040518060400160405280601a81526020017f536166654d6174683a206469766973696f6e206279207a65726f0000000000008152506122a3565b606061229b8484600085612308565b949350505050565b600081836122f25760405162461bcd60e51b815260206004820181815283516024840152835190928392604490910191908501908083836000831561216657818101518382015260200161214e565b5060008385816122fe57fe5b0495945050505050565b6060824710156123495760405162461bcd60e51b81526004018080602001828103825260268152602001806125096026913960400191505060405180910390fd5b61235285612464565b6123a3576040805162461bcd60e51b815260206004820152601d60248201527f416464726573733a2063616c6c20746f206e6f6e2d636f6e7472616374000000604482015290519081900360640190fd5b60006060866001600160a01b031685876040518082805190602001908083835b602083106123e25780518252601f1990920191602091820191016123c3565b6001836020036101000a03801982511681845116808217855250505050505090500191505060006040518083038185875af1925050503d8060008114612444576040519150601f19603f3d011682016040523d82523d6000602084013e612449565b606091505b509150915061245982828661246a565b979650505050505050565b3b151590565b606083156124795750816113d2565b8251156124895782518084602001fd5b60405162461bcd60e51b815260206004820181815284516024840152845185939192839260440191908501908083836000831561216657818101518382015260200161214e56fe426f72726f77657257726170706572735363726970743a2063616c6c6572206d757374206861766520616e206163746976652074726f7665416464726573733a20696e73756666696369656e742062616c616e636520666f722063616c6c536166654d6174683a206d756c7469706c69636174696f6e206f766572666c6f775361666545524332303a204552433230206f7065726174696f6e20646964206e6f742073756363656564a2646970667358221220316238dc639549d1d9495fd1a84583ce6a42dfaa20075b2ed16bd8b7833f5d9964736f6c634300060b0033426f72726f77657257726170706572735363726970743a2057726f6e67204c5154595374616b696e672061646472657373",
  "linkReferences": {},
  "deployedLinkReferences": {}
}