{"contracts/TestContracts/Destructible.sol":{"Destructible":{"abi":[{"inputs":[{"internalType":"address payable","name":"_receiver","type":"address"}],"name":"destruct","outputs":[],"stateMutability":"nonpayable","type":"function"},{"stateMutability":"payable","type":"receive"}],"evm":{"bytecode":{"linkReferences":{},"object":"6080604052348015600f57600080fd5b50609d8061001e6000396000f3fe608060405260043610601f5760003560e01c80631beb261514602a576025565b36602557005b600080fd5b348015603557600080fd5b50605960048036036020811015604a57600080fd5b50356001600160a01b0316605b565b005b806001600160a01b0316fffea2646970667358221220be1fcd6e5137fc4d98eb1be69a77b9589062fe6bf74ee044ffb8078249685a5764736f6c634300060b0033","opcodes":"PUSH1 0x80 PUSH1 0x40 MSTORE CALLVALUE DUP1 ISZERO PUSH1 0xF JUMPI PUSH1 0x0 DUP1 REVERT JUMPDEST POP PUSH1 0x9D DUP1 PUSH2 0x1E PUSH1 0x0 CODECOPY PUSH1 0x0 RETURN INVALID PUSH1 0x80 PUSH1 0x40 MSTORE PUSH1 0x4 CALLDATASIZE LT PUSH1 0x1F JUMPI PUSH1 0x0 CALLDATALOAD PUSH1 0xE0 SHR DUP1 PUSH4 0x1BEB2615 EQ PUSH1 0x2A JUMPI PUSH1 0x25 JUMP JUMPDEST CALLDATASIZE PUSH1 0x25 JUMPI STOP JUMPDEST PUSH1 0x0 DUP1 REVERT JUMPDEST CALLVALUE DUP1 ISZERO PUSH1 0x35 JUMPI PUSH1 0x0 DUP1 REVERT JUMPDEST POP PUSH1 0x59 PUSH1 0x4 DUP1 CALLDATASIZE SUB PUSH1 0x20 DUP2 LT ISZERO PUSH1 0x4A JUMPI PUSH1 0x0 DUP1 REVERT JUMPDEST POP CALLDATALOAD PUSH1 0x1 PUSH1 0x1 PUSH1 0xA0 SHL SUB AND PUSH1 0x5B JUMP JUMPDEST STOP JUMPDEST DUP1 PUSH1 0x1 PUSH1 0x1 PUSH1 0xA0 SHL SUB AND SELFDESTRUCT INVALID LOG2 PUSH5 0x6970667358 0x22 SLT KECCAK256 0xBE 0x1F 0xCD PUSH15 0x5137FC4D98EB1BE69A77B9589062FE PUSH12 0xF74EE044FFB8078249685A57 PUSH5 0x736F6C6343 STOP MOD SIGNEXTEND STOP CALLER "},"methodIdentifiers":{"destruct(address)":"1beb2615"}}}}}