{
  "_format": "hh-sol-artifact-1",
  "contractName": "MockGovernance",
  "sourceName": "contracts/TestContracts/MockGovernance.sol",
  "abi": [
    {
      "inputs": [
        {
          "internalType": "address",
          "name": "to",
          "type": "address"
        },
        {
          "internalType": "uint256",
          "name": "value",
          "type": "uint256"
        },
        {
          "internalType": "bytes",
          "name": "data",
          "type": "bytes"
        },
        {
          "internalType": "enum MockGovernance.Operation",
          "name": "operation",
          "type": "uint8"
        },
        {
          "internalType": "uint256",
          "name": "txGas",
          "type": "uint256"
        }
      ],
      "name": "execute",
      "outputs": [
        {
          "internalType": "bool",
          "name": "success",
          "type": "bool"
        }
      ],
      "stateMutability": "nonpayable",
      "type": "function"
    }
  ],
  "bytecode": "0x608060405234801561001057600080fd5b5061017f806100206000396000f3fe608060405234801561001057600080fd5b506004361061002b5760003560e01c8063ca3b98bb14610030575b600080fd5b6100f3600480360360a081101561004657600080fd5b6001600160a01b038235169160208101359181019060608101604082013564010000000081111561007657600080fd5b82018360208201111561008857600080fd5b803590602001918460018302840111640100000000831117156100aa57600080fd5b91908080601f0160208091040260200160405190810160405280939291908181526020018383808284376000920191909152509295505060ff8335169350505060200135610107565b604080519115158252519081900360200190f35b6000600183600181111561011757fe5b1415610130576000808551602087018986f49050610140565b600080855160208701888a87f190505b9594505050505056fea2646970667358221220f598349c6766f7714bb07348dbfc6441b8069cf08ef71d3587b859e7349ff36f64736f6c634300060b0033",
  "linkReferences": {},
  "deployedLinkReferences": {}
}