{
  "_format": "hh-sol-artifact-1",
  "contractName": "TellorCaller",
  "sourceName": "contracts/Dependencies/TellorCaller.sol",
  "abi": [
    {
      "inputs": [
        {
          "internalType": "address",
          "name": "_tellorMasterAddress",
          "type": "address"
        }
      ],
      "stateMutability": "nonpayable",
      "type": "constructor"
    },
    {
      "inputs": [
        {
          "internalType": "bytes32",
          "name": "_queryId",
          "type": "bytes32"
        }
      ],
      "name": "getTellorCurrentValue",
      "outputs": [
        {
          "internalType": "bool",
          "name": "ifRetrieve",
          "type": "bool"
        },
        {
          "internalType": "uint256",
          "name": "value",
          "type": "uint256"
        },
        {
          "internalType": "uint256",
          "name": "_timestampRetrieved",
          "type": "uint256"
        }
      ],
      "stateMutability": "view",
      "type": "function"
    },
    {
      "inputs": [],
      "name": "tellor",
      "outputs": [
        {
          "internalType": "contract ITellor",
          "name": "",
          "type": "address"
        }
      ],
      "stateMutability": "view",
      "type": "function"
    }
  ],
  "bytecode": "0x608060405234801561001057600080fd5b506040516104b83803806104b88339818101604052602081101561003357600080fd5b5051600080546001600160a01b039092166001600160a01b0319909216919091179055610453806100656000396000f3fe608060405234801561001057600080fd5b50600436106100365760003560e01c80631959ad5b1461003b578063783569051461005f575b600080fd5b61004361009c565b604080516001600160a01b039092168252519081900360200190f35b61007c6004803603602081101561007557600080fd5b50356100ab565b604080519315158452602084019290925282820152519081900360600190f35b6000546001600160a01b031681565b60008054604080516377b03e0d60e01b81526004810185905290518392839283926001600160a01b03909216916377b03e0d91602480820192602092909190829003018186803b1580156100fe57600080fd5b505afa158015610112573d6000803e3d6000fd5b505050506040513d602081101561012857600080fd5b505160008054919250906001600160a01b031663ce5e11bf8761015285600163ffffffff61033d16565b6040518363ffffffff1660e01b8152600401808381526020018281526020019250505060206040518083038186803b15801561018d57600080fd5b505afa1580156101a1573d6000803e3d6000fd5b505050506040513d60208110156101b757600080fd5b5051600080546040805163c5958af960e01b8152600481018b905260248101859052905193945091926001600160a01b039091169163c5958af99160448083019286929190829003018186803b15801561021057600080fd5b505afa158015610224573d6000803e3d6000fd5b505050506040513d6000823e601f3d908101601f19168201604052602081101561024d57600080fd5b810190808051604051939291908464010000000082111561026d57600080fd5b90830190602082018581111561028257600080fd5b825164010000000081118282018810171561029c57600080fd5b82525081516020918201929091019080838360005b838110156102c95781810151838201526020016102b1565b50505050905090810190601f1680156102f65780820380516001836020036101000a031916815260200191505b50604052505050806020019051602081101561031157600080fd5b50519050801561032a5760019550935091506103369050565b50600094508493509150505b9193909250565b600061037f83836040518060400160405280601e81526020017f536166654d6174683a207375627472616374696f6e206f766572666c6f770000815250610386565b9392505050565b600081848411156104155760405162461bcd60e51b81526004018080602001828103825283818151815260200191508051906020019080838360005b838110156103da5781810151838201526020016103c2565b50505050905090810190601f1680156104075780820380516001836020036101000a031916815260200191505b509250505060405180910390fd5b50505090039056fea2646970667358221220834876a5ec82e2de1d750c1fb73cba38d003446b845de268fe56dda733c393f464736f6c634300060b0033",
  "linkReferences": {},
  "deployedLinkReferences": {}
}