{
  "_format": "hh-sol-artifact-1",
  "contractName": "BorrowerOperationsTester",
  "sourceName": "contracts/TestContracts/BorrowerOperationsTester.sol",
  "abi": [
    {
      "anonymous": false,
      "inputs": [
        {
          "indexed": false,
          "internalType": "address",
          "name": "_activePoolAddress",
          "type": "address"
        }
      ],
      "name": "ActivePoolAddressChanged",
      "type": "event"
    },
    {
      "anonymous": false,
      "inputs": [
        {
          "indexed": false,
          "internalType": "address",
          "name": "_collSurplusPoolAddress",
          "type": "address"
        }
      ],
      "name": "CollSurplusPoolAddressChanged",
      "type": "event"
    },
    {
      "anonymous": false,
      "inputs": [
        {
          "indexed": false,
          "internalType": "address",
          "name": "_newCollateralConfigAddress",
          "type": "address"
        }
      ],
      "name": "CollateralConfigAddressChanged",
      "type": "event"
    },
    {
      "anonymous": false,
      "inputs": [
        {
          "indexed": false,
          "internalType": "address",
          "name": "_defaultPoolAddress",
          "type": "address"
        }
      ],
      "name": "DefaultPoolAddressChanged",
      "type": "event"
    },
    {
      "anonymous": false,
      "inputs": [
        {
          "indexed": false,
          "internalType": "address",
          "name": "_gasPoolAddress",
          "type": "address"
        }
      ],
      "name": "GasPoolAddressChanged",
      "type": "event"
    },
    {
      "anonymous": false,
      "inputs": [
        {
          "indexed": false,
          "internalType": "address",
          "name": "_lqtyStakingAddress",
          "type": "address"
        }
      ],
      "name": "LQTYStakingAddressChanged",
      "type": "event"
    },
    {
      "anonymous": false,
      "inputs": [
        {
          "indexed": true,
          "internalType": "address",
          "name": "_borrower",
          "type": "address"
        },
        {
          "indexed": false,
          "internalType": "address",
          "name": "_collateral",
          "type": "address"
        },
        {
          "indexed": false,
          "internalType": "uint256",
          "name": "_LUSDFee",
          "type": "uint256"
        }
      ],
      "name": "LUSDBorrowingFeePaid",
      "type": "event"
    },
    {
      "anonymous": false,
      "inputs": [
        {
          "indexed": false,
          "internalType": "address",
          "name": "_lusdTokenAddress",
          "type": "address"
        }
      ],
      "name": "LUSDTokenAddressChanged",
      "type": "event"
    },
    {
      "anonymous": false,
      "inputs": [
        {
          "indexed": true,
          "internalType": "address",
          "name": "previousOwner",
          "type": "address"
        },
        {
          "indexed": true,
          "internalType": "address",
          "name": "newOwner",
          "type": "address"
        }
      ],
      "name": "OwnershipTransferred",
      "type": "event"
    },
    {
      "anonymous": false,
      "inputs": [
        {
          "indexed": false,
          "internalType": "address",
          "name": "_newPriceFeedAddress",
          "type": "address"
        }
      ],
      "name": "PriceFeedAddressChanged",
      "type": "event"
    },
    {
      "anonymous": false,
      "inputs": [
        {
          "indexed": false,
          "internalType": "address",
          "name": "_sortedTrovesAddress",
          "type": "address"
        }
      ],
      "name": "SortedTrovesAddressChanged",
      "type": "event"
    },
    {
      "anonymous": false,
      "inputs": [
        {
          "indexed": false,
          "internalType": "address",
          "name": "_stabilityPoolAddress",
          "type": "address"
        }
      ],
      "name": "StabilityPoolAddressChanged",
      "type": "event"
    },
    {
      "anonymous": false,
      "inputs": [
        {
          "indexed": true,
          "internalType": "address",
          "name": "_borrower",
          "type": "address"
        },
        {
          "indexed": false,
          "internalType": "address",
          "name": "_collateral",
          "type": "address"
        },
        {
          "indexed": false,
          "internalType": "uint256",
          "name": "arrayIndex",
          "type": "uint256"
        }
      ],
      "name": "TroveCreated",
      "type": "event"
    },
    {
      "anonymous": false,
      "inputs": [
        {
          "indexed": false,
          "internalType": "address",
          "name": "_newTroveManagerAddress",
          "type": "address"
        }
      ],
      "name": "TroveManagerAddressChanged",
      "type": "event"
    },
    {
      "anonymous": false,
      "inputs": [
        {
          "indexed": true,
          "internalType": "address",
          "name": "_borrower",
          "type": "address"
        },
        {
          "indexed": false,
          "internalType": "address",
          "name": "_collateral",
          "type": "address"
        },
        {
          "indexed": false,
          "internalType": "uint256",
          "name": "_debt",
          "type": "uint256"
        },
        {
          "indexed": false,
          "internalType": "uint256",
          "name": "_coll",
          "type": "uint256"
        },
        {
          "indexed": false,
          "internalType": "uint256",
          "name": "stake",
          "type": "uint256"
        },
        {
          "indexed": false,
          "internalType": "enum BorrowerOperations.BorrowerOperation",
          "name": "operation",
          "type": "uint8"
        }
      ],
      "name": "TroveUpdated",
      "type": "event"
    },
    {
      "inputs": [],
      "name": "BORROWING_FEE_FLOOR",
      "outputs": [
        {
          "internalType": "uint256",
          "name": "",
          "type": "uint256"
        }
      ],
      "stateMutability": "view",
      "type": "function"
    },
    {
      "inputs": [],
      "name": "DECIMAL_PRECISION",
      "outputs": [
        {
          "internalType": "uint256",
          "name": "",
          "type": "uint256"
        }
      ],
      "stateMutability": "view",
      "type": "function"
    },
    {
      "inputs": [],
      "name": "LUSD_GAS_COMPENSATION",
      "outputs": [
        {
          "internalType": "uint256",
          "name": "",
          "type": "uint256"
        }
      ],
      "stateMutability": "view",
      "type": "function"
    },
    {
      "inputs": [],
      "name": "MIN_NET_DEBT",
      "outputs": [
        {
          "internalType": "uint256",
          "name": "",
          "type": "uint256"
        }
      ],
      "stateMutability": "view",
      "type": "function"
    },
    {
      "inputs": [],
      "name": "NAME",
      "outputs": [
        {
          "internalType": "string",
          "name": "",
          "type": "string"
        }
      ],
      "stateMutability": "view",
      "type": "function"
    },
    {
      "inputs": [],
      "name": "PERCENT_DIVISOR",
      "outputs": [
        {
          "internalType": "uint256",
          "name": "",
          "type": "uint256"
        }
      ],
      "stateMutability": "view",
      "type": "function"
    },
    {
      "inputs": [],
      "name": "_100pct",
      "outputs": [
        {
          "internalType": "uint256",
          "name": "",
          "type": "uint256"
        }
      ],
      "stateMutability": "view",
      "type": "function"
    },
    {
      "inputs": [],
      "name": "activePool",
      "outputs": [
        {
          "internalType": "contract IActivePool",
          "name": "",
          "type": "address"
        }
      ],
      "stateMutability": "view",
      "type": "function"
    },
    {
      "inputs": [
        {
          "internalType": "address",
          "name": "_collateral",
          "type": "address"
        },
        {
          "internalType": "uint256",
          "name": "_collAmount",
          "type": "uint256"
        },
        {
          "internalType": "address",
          "name": "_upperHint",
          "type": "address"
        },
        {
          "internalType": "address",
          "name": "_lowerHint",
          "type": "address"
        }
      ],
      "name": "addColl",
      "outputs": [],
      "stateMutability": "nonpayable",
      "type": "function"
    },
    {
      "inputs": [
        {
          "internalType": "address",
          "name": "_collateral",
          "type": "address"
        },
        {
          "internalType": "uint256",
          "name": "_maxFeePercentage",
          "type": "uint256"
        },
        {
          "internalType": "uint256",
          "name": "_collTopUp",
          "type": "uint256"
        },
        {
          "internalType": "uint256",
          "name": "_collWithdrawal",
          "type": "uint256"
        },
        {
          "internalType": "uint256",
          "name": "_LUSDChange",
          "type": "uint256"
        },
        {
          "internalType": "bool",
          "name": "_isDebtIncrease",
          "type": "bool"
        },
        {
          "internalType": "address",
          "name": "_upperHint",
          "type": "address"
        },
        {
          "internalType": "address",
          "name": "_lowerHint",
          "type": "address"
        }
      ],
      "name": "adjustTrove",
      "outputs": [],
      "stateMutability": "nonpayable",
      "type": "function"
    },
    {
      "inputs": [
        {
          "internalType": "address",
          "name": "_borrower",
          "type": "address"
        },
        {
          "internalType": "address",
          "name": "_collateral",
          "type": "address"
        },
        {
          "internalType": "uint256",
          "name": "_collTopUp",
          "type": "uint256"
        },
        {
          "internalType": "uint256",
          "name": "_collWithdrawal",
          "type": "uint256"
        },
        {
          "internalType": "uint256",
          "name": "_debtChange",
          "type": "uint256"
        },
        {
          "internalType": "bool",
          "name": "_isDebtIncrease",
          "type": "bool"
        },
        {
          "internalType": "address",
          "name": "_upperHint",
          "type": "address"
        },
        {
          "internalType": "address",
          "name": "_lowerHint",
          "type": "address"
        }
      ],
      "name": "callInternalAdjustLoan",
      "outputs": [],
      "stateMutability": "nonpayable",
      "type": "function"
    },
    {
      "inputs": [
        {
          "internalType": "address",
          "name": "_collateral",
          "type": "address"
        }
      ],
      "name": "claimCollateral",
      "outputs": [],
      "stateMutability": "nonpayable",
      "type": "function"
    },
    {
      "inputs": [
        {
          "internalType": "address",
          "name": "_collateral",
          "type": "address"
        }
      ],
      "name": "closeTrove",
      "outputs": [],
      "stateMutability": "nonpayable",
      "type": "function"
    },
    {
      "inputs": [],
      "name": "collateralConfig",
      "outputs": [
        {
          "internalType": "contract ICollateralConfig",
          "name": "",
          "type": "address"
        }
      ],
      "stateMutability": "view",
      "type": "function"
    },
    {
      "inputs": [],
      "name": "defaultPool",
      "outputs": [
        {
          "internalType": "contract IDefaultPool",
          "name": "",
          "type": "address"
        }
      ],
      "stateMutability": "view",
      "type": "function"
    },
    {
      "inputs": [
        {
          "internalType": "uint256",
          "name": "_debt",
          "type": "uint256"
        }
      ],
      "name": "getCompositeDebt",
      "outputs": [
        {
          "internalType": "uint256",
          "name": "",
          "type": "uint256"
        }
      ],
      "stateMutability": "pure",
      "type": "function"
    },
    {
      "inputs": [
        {
          "internalType": "address",
          "name": "_collateral",
          "type": "address"
        }
      ],
      "name": "getEntireSystemColl",
      "outputs": [
        {
          "internalType": "uint256",
          "name": "entireSystemColl",
          "type": "uint256"
        }
      ],
      "stateMutability": "view",
      "type": "function"
    },
    {
      "inputs": [
        {
          "internalType": "address",
          "name": "_collateral",
          "type": "address"
        }
      ],
      "name": "getEntireSystemDebt",
      "outputs": [
        {
          "internalType": "uint256",
          "name": "entireSystemDebt",
          "type": "uint256"
        }
      ],
      "stateMutability": "view",
      "type": "function"
    },
    {
      "inputs": [
        {
          "internalType": "uint256",
          "name": "_coll",
          "type": "uint256"
        },
        {
          "internalType": "uint256",
          "name": "_debt",
          "type": "uint256"
        },
        {
          "internalType": "uint256",
          "name": "_collChange",
          "type": "uint256"
        },
        {
          "internalType": "bool",
          "name": "isCollIncrease",
          "type": "bool"
        },
        {
          "internalType": "uint256",
          "name": "_debtChange",
          "type": "uint256"
        },
        {
          "internalType": "bool",
          "name": "isDebtIncrease",
          "type": "bool"
        },
        {
          "internalType": "uint256",
          "name": "_price",
          "type": "uint256"
        },
        {
          "internalType": "uint256",
          "name": "_collDecimals",
          "type": "uint256"
        }
      ],
      "name": "getNewICRFromTroveChange",
      "outputs": [
        {
          "internalType": "uint256",
          "name": "",
          "type": "uint256"
        }
      ],
      "stateMutability": "pure",
      "type": "function"
    },
    {
      "inputs": [
        {
          "internalType": "address",
          "name": "_collateral",
          "type": "address"
        },
        {
          "internalType": "uint256",
          "name": "_collChange",
          "type": "uint256"
        },
        {
          "internalType": "bool",
          "name": "isCollIncrease",
          "type": "bool"
        },
        {
          "internalType": "uint256",
          "name": "_debtChange",
          "type": "uint256"
        },
        {
          "internalType": "bool",
          "name": "isDebtIncrease",
          "type": "bool"
        },
        {
          "internalType": "uint256",
          "name": "_price",
          "type": "uint256"
        }
      ],
      "name": "getNewTCRFromTroveChange",
      "outputs": [
        {
          "internalType": "uint256",
          "name": "",
          "type": "uint256"
        }
      ],
      "stateMutability": "view",
      "type": "function"
    },
    {
      "inputs": [
        {
          "internalType": "uint256",
          "name": "_coll",
          "type": "uint256"
        },
        {
          "internalType": "uint256",
          "name": "_price",
          "type": "uint256"
        },
        {
          "internalType": "uint256",
          "name": "_collDecimals",
          "type": "uint256"
        }
      ],
      "name": "getUSDValue",
      "outputs": [
        {
          "internalType": "uint256",
          "name": "",
          "type": "uint256"
        }
      ],
      "stateMutability": "pure",
      "type": "function"
    },
    {
      "inputs": [],
      "name": "isOwner",
      "outputs": [
        {
          "internalType": "bool",
          "name": "",
          "type": "bool"
        }
      ],
      "stateMutability": "view",
      "type": "function"
    },
    {
      "inputs": [],
      "name": "lqtyStaking",
      "outputs": [
        {
          "internalType": "contract ILQTYStaking",
          "name": "",
          "type": "address"
        }
      ],
      "stateMutability": "view",
      "type": "function"
    },
    {
      "inputs": [],
      "name": "lqtyStakingAddress",
      "outputs": [
        {
          "internalType": "address",
          "name": "",
          "type": "address"
        }
      ],
      "stateMutability": "view",
      "type": "function"
    },
    {
      "inputs": [],
      "name": "lusdToken",
      "outputs": [
        {
          "internalType": "contract ILUSDToken",
          "name": "",
          "type": "address"
        }
      ],
      "stateMutability": "view",
      "type": "function"
    },
    {
      "inputs": [
        {
          "internalType": "address",
          "name": "_borrower",
          "type": "address"
        },
        {
          "internalType": "address",
          "name": "_collateral",
          "type": "address"
        },
        {
          "internalType": "uint256",
          "name": "_collAmount",
          "type": "uint256"
        },
        {
          "internalType": "address",
          "name": "_upperHint",
          "type": "address"
        },
        {
          "internalType": "address",
          "name": "_lowerHint",
          "type": "address"
        }
      ],
      "name": "moveCollateralGainToTrove",
      "outputs": [],
      "stateMutability": "nonpayable",
      "type": "function"
    },
    {
      "inputs": [
        {
          "internalType": "address",
          "name": "_collateral",
          "type": "address"
        },
        {
          "internalType": "uint256",
          "name": "_collAmount",
          "type": "uint256"
        },
        {
          "internalType": "uint256",
          "name": "_maxFeePercentage",
          "type": "uint256"
        },
        {
          "internalType": "uint256",
          "name": "_LUSDAmount",
          "type": "uint256"
        },
        {
          "internalType": "address",
          "name": "_upperHint",
          "type": "address"
        },
        {
          "internalType": "address",
          "name": "_lowerHint",
          "type": "address"
        }
      ],
      "name": "openTrove",
      "outputs": [],
      "stateMutability": "nonpayable",
      "type": "function"
    },
    {
      "inputs": [],
      "name": "owner",
      "outputs": [
        {
          "internalType": "address",
          "name": "",
          "type": "address"
        }
      ],
      "stateMutability": "view",
      "type": "function"
    },
    {
      "inputs": [],
      "name": "priceFeed",
      "outputs": [
        {
          "internalType": "contract IPriceFeed",
          "name": "",
          "type": "address"
        }
      ],
      "stateMutability": "view",
      "type": "function"
    },
    {
      "inputs": [
        {
          "internalType": "address",
          "name": "_collateral",
          "type": "address"
        },
        {
          "internalType": "uint256",
          "name": "_LUSDAmount",
          "type": "uint256"
        },
        {
          "internalType": "address",
          "name": "_upperHint",
          "type": "address"
        },
        {
          "internalType": "address",
          "name": "_lowerHint",
          "type": "address"
        }
      ],
      "name": "repayLUSD",
      "outputs": [],
      "stateMutability": "nonpayable",
      "type": "function"
    },
    {
      "inputs": [
        {
          "internalType": "address",
          "name": "_collateralConfigAddress",
          "type": "address"
        },
        {
          "internalType": "address",
          "name": "_troveManagerAddress",
          "type": "address"
        },
        {
          "internalType": "address",
          "name": "_activePoolAddress",
          "type": "address"
        },
        {
          "internalType": "address",
          "name": "_defaultPoolAddress",
          "type": "address"
        },
        {
          "internalType": "address",
          "name": "_stabilityPoolAddress",
          "type": "address"
        },
        {
          "internalType": "address",
          "name": "_gasPoolAddress",
          "type": "address"
        },
        {
          "internalType": "address",
          "name": "_collSurplusPoolAddress",
          "type": "address"
        },
        {
          "internalType": "address",
          "name": "_priceFeedAddress",
          "type": "address"
        },
        {
          "internalType": "address",
          "name": "_sortedTrovesAddress",
          "type": "address"
        },
        {
          "internalType": "address",
          "name": "_lusdTokenAddress",
          "type": "address"
        },
        {
          "internalType": "address",
          "name": "_lqtyStakingAddress",
          "type": "address"
        }
      ],
      "name": "setAddresses",
      "outputs": [],
      "stateMutability": "nonpayable",
      "type": "function"
    },
    {
      "inputs": [],
      "name": "sortedTroves",
      "outputs": [
        {
          "internalType": "contract ISortedTroves",
          "name": "",
          "type": "address"
        }
      ],
      "stateMutability": "view",
      "type": "function"
    },
    {
      "inputs": [],
      "name": "troveManager",
      "outputs": [
        {
          "internalType": "contract ITroveManager",
          "name": "",
          "type": "address"
        }
      ],
      "stateMutability": "view",
      "type": "function"
    },
    {
      "inputs": [
        {
          "internalType": "address",
          "name": "_collateral",
          "type": "address"
        },
        {
          "internalType": "uint256",
          "name": "_collWithdrawal",
          "type": "uint256"
        },
        {
          "internalType": "address",
          "name": "_upperHint",
          "type": "address"
        },
        {
          "internalType": "address",
          "name": "_lowerHint",
          "type": "address"
        }
      ],
      "name": "withdrawColl",
      "outputs": [],
      "stateMutability": "nonpayable",
      "type": "function"
    },
    {
      "inputs": [
        {
          "internalType": "address",
          "name": "_collateral",
          "type": "address"
        },
        {
          "internalType": "uint256",
          "name": "_maxFeePercentage",
          "type": "uint256"
        },
        {
          "internalType": "uint256",
          "name": "_LUSDAmount",
          "type": "uint256"
        },
        {
          "internalType": "address",
          "name": "_upperHint",
          "type": "address"
        },
        {
          "internalType": "address",
          "name": "_lowerHint",
          "type": "address"
        }
      ],
      "name": "withdrawLUSD",
      "outputs": [],
      "stateMutability": "nonpayable",
      "type": "function"
    }
  ],
  "bytecode": "0x608060405234801561001057600080fd5b50600380546001600160a01b031916339081179091556040516000907f8be0079c531659141344cd1fd0a4f28419497f9722a3daafe3b4186f6b6457e0908290a36146b8806100606000396000f3fe608060405234801561001057600080fd5b50600436106101d15760003560e01c80637da0b1fa11610105578063a3a640171161009d578063a3a64017146105b0578063a3f4df7e146105b8578063ae91875414610635578063b76b377a1461063d578063b83f91a214610696578063c9cee1331461069e578063cbd138ae146106c7578063e213354a146106ed578063f92d343314610733576101d1565b80637da0b1fa146104685780637f7dde4a146104b05780638235b284146104b857806386a3e59a146104de5780638da5cb5b1461051a5780638f32d59b1461052257806392a230521461053e5780639e86d0c41461058a578063a20baee61461037d576101d1565b80634ff81443116101785780634ff81443146102cc5780635c0ab4de146102e95780635e66c921146102f15780636da6678a1461033557806372fe25aa1461037d578063741bef1a14610385578063743990211461038d578063761ab22c146103e45780637985c5e4146103ec576101d1565b80631bf43555146101d657806327d04b35146101f05780632e86bbd8146102165780633cc742251461021e5780633d83908a146102425780634870dd9a1461024a57806348a4a39d1461025257806349b010c514610290575b600080fd5b6101de61073b565b60408051918252519081900360200190f35b6101de6004803603602081101561020657600080fd5b50356001600160a01b0316610748565b6101de61085e565b61022661086a565b604080516001600160a01b039092168252519081900360200190f35b610226610879565b6101de610888565b61028e6004803603608081101561026857600080fd5b506001600160a01b0381358116916020810135916040820135811691606001351661088d565b005b61028e600480360360808110156102a657600080fd5b506001600160a01b038135811691602081013591604082013581169160600135166108b2565b6101de600480360360208110156102e257600080fd5b50356108c6565b6102266108d7565b61028e600480360360a081101561030757600080fd5b506001600160a01b0381358116916020810135916040820135916060810135821691608090910135166108e6565b6101de600480360360c081101561034b57600080fd5b506001600160a01b03813516906020810135906040810135151590606081013590608081013515159060a00135610900565b6101de61099b565b6102266109a7565b61028e60048036036101008110156103a457600080fd5b506001600160a01b03813581169160208101359160408201359160608101359160808201359160a081013515159160c082013581169160e00135166109b6565b6102266109e2565b61028e600480360361016081101561040357600080fd5b506001600160a01b038135811691602081013582169160408201358116916060810135821691608082013581169160a081013582169160c082013581169160e081013582169161010082013581169161012081013582169161014090910135166109f1565b61028e600480360360c081101561047e57600080fd5b506001600160a01b038135811691602081013591604082013591606081013591608082013581169160a0013516610df4565b610226611689565b61028e600480360360208110156104ce57600080fd5b50356001600160a01b0316611698565b61028e600480360360808110156104f457600080fd5b506001600160a01b03813581169160208101359160408201358116916060013516611700565b610226611714565b61052a611723565b604080519115158252519081900360200190f35b6101de600480360361010081101561055557600080fd5b50803590602081013590604081013590606081013515159060808101359060a081013515159060c08101359060e00135611734565b6101de600480360360208110156105a057600080fd5b50356001600160a01b0316611753565b610226611823565b6105c0611832565b6040805160208082528351818301528351919283929083019185019080838360005b838110156105fa5781810151838201526020016105e2565b50505050905090810190601f1680156106275780820380516001836020036101000a031916815260200191505b509250505060405180910390f35b610226611860565b61028e600480360361010081101561065457600080fd5b506001600160a01b038135811691602081013582169160408201359160608101359160808201359160a081013515159160c082013581169160e001351661186f565b610226611881565b6101de600480360360608110156106b457600080fd5b5080359060208101359060400135611890565b61028e600480360360208110156106dd57600080fd5b50356001600160a01b03166118a7565b61028e600480360360a081101561070357600080fd5b506001600160a01b0381358116916020810135821691604082013591606081013582169160809091013516611e17565b6101de611e33565b6804e1003b28d928000081565b6000805460408051634b14fa8760e01b81526001600160a01b038581166004830152915184939290921691634b14fa8791602480820192602092909190829003018186803b15801561079957600080fd5b505afa1580156107ad573d6000803e3d6000fd5b505050506040513d60208110156107c357600080fd5b505160015460408051634b14fa8760e01b81526001600160a01b03878116600483015291519394506000939190921691634b14fa87916024808301926020929190829003018186803b15801561081857600080fd5b505afa15801561082c573d6000803e3d6000fd5b505050506040513d602081101561084257600080fd5b50519050610856828263ffffffff611e3e16565b949350505050565b678ac7230489e8000081565b6001546001600160a01b031681565b6005546001600160a01b031681565b60c881565b610898338585611e98565b6108ac338585600080600088886000612016565b50505050565b6108ac338560008660008088886000612016565b60006108d18261285f565b92915050565b6004546001600160a01b031681565b6108f9338660008087600188888c612016565b5050505050565b600480546040805163eb7aac5f60e01b81526001600160a01b038a81169482019490945290516000938493169163eb7aac5f916024808301926020929190829003018186803b15801561095257600080fd5b505afa158015610966573d6000803e3d6000fd5b505050506040513d602081101561097c57600080fd5b5051905061098f88888888888887612879565b98975050505050505050565b670de0b6b3a764000081565b6002546001600160a01b031681565b85156109c7576109c7338988611e98565b6109d833898888888888888f612016565b5050505050505050565b600a546001600160a01b031681565b6109f9611723565b610a4a576040805162461bcd60e51b815260206004820181905260248201527f4f776e61626c653a2063616c6c6572206973206e6f7420746865206f776e6572604482015290519081900360640190fd5b610a538b612909565b610a5c8a612909565b610a6589612909565b610a6e88612909565b610a7787612909565b610a8086612909565b610a8985612909565b610a9284612909565b610a9b83612909565b610aa482612909565b610aad81612909565b600480546001600160a01b03199081166001600160a01b038e81169182179093556005805483168e85161790556000805483168d85161790556001805483168c85161790556006805483168b85161790556007805483168a8516179055600880548316898516179055600280548316888516179055600c80548316878516179055600b80548316868516179055600a80548316938516938417905560098054909216909217905560408051918252517f6a69409f44477d8556c3c8040edc75d9bc1b3dee7846f6045c0b99556fe7bc91916020908290030190a1604080516001600160a01b038c16815290517f143219c9e69b09e07e095fcc889b43d8f46ca892bba65f08dc3a0050869a56789181900360200190a1604080516001600160a01b038b16815290517f78f058b189175430c48dc02699e3a0031ea4ff781536dc2fab847de4babdd8829181900360200190a1604080516001600160a01b038a16815290517f5ee0cae2f063ed938bb55046f6a932fb6ae792bf43624806bb90abe68a50be9b9181900360200190a1604080516001600160a01b038916815290517f82966d27eea39b038ee0fa30cd16532bb24f6e65d31cb58fb227aa5766cdcc7f9181900360200190a1604080516001600160a01b038816815290517fcfb07d791fcafc032b35837b50eb84b74df518cf4cc287e8084f47630fa70fa09181900360200190a1604080516001600160a01b038716815290517fe67f36a6e961157d6eff83b91f3af5a62131ceb6f04954ef74f51c1c05e7f88d9181900360200190a1604080516001600160a01b038616815290517f8c537274438aa850a330284665d81a85dd38267d09e4050d416bfc94142db2649181900360200190a1604080516001600160a01b038516815290517f65f4cf077bc01e4742eb5ad98326f6e95b63548ea24b17f8d5e823111fe788009181900360200190a1604080516001600160a01b038416815290517f227eec0ec317af6ab1a9587ffa1c84332522eb4c583a908f89babc05f8f339bd9181900360200190a1604080516001600160a01b038316815290517f756ebc192164c295bba134b5aacd72cc7aff8098a670d1f0a5f6b3a0b4ce67079181900360200190a1610de76129bc565b5050505050505050505050565b610dfd86612a06565b610e08338787611e98565b610e106140ec565b50604080516060810182526005546001600160a01b03908116825260005481166020830152600b541691810191909152610e4861410c565b600480546040805163453ebeb560e11b81526001600160a01b038c81169482019490945290519290911691638a7d7d6a91602480820192602092909190829003018186803b158015610e9957600080fd5b505afa158015610ead573d6000803e3d6000fd5b505050506040513d6020811015610ec357600080fd5b5051815260048054604080516311e2c60b60e11b81526001600160a01b038c811694820194909452905192909116916323c58c1691602480820192602092909190829003018186803b158015610f1857600080fd5b505afa158015610f2c573d6000803e3d6000fd5b505050506040513d6020811015610f4257600080fd5b5051602082810191909152600480546040805163eb7aac5f60e01b81526001600160a01b038d8116948201949094529051929091169263eb7aac5f92602480840193829003018186803b158015610f9857600080fd5b505afa158015610fac573d6000803e3d6000fd5b505050506040513d6020811015610fc257600080fd5b50516040808301919091526002548151635670bcc760e11b81526001600160a01b038b811660048301529251929091169163ace1798e916024808201926020929091908290030181600087803b15801561101b57600080fd5b505af115801561102f573d6000803e3d6000fd5b505050506040513d602081101561104557600080fd5b50516060820181905281516040830151600092611063928c92612ac1565b905061106f8782612adb565b825161107c90338b612b87565b60a08201869052806110bd5761109c83600001518460400151888a612c5e565b6080830181905260a08301516110b79163ffffffff611e3e16565b60a08301525b6110ca8260a00151612e0e565b6110d78260a0015161285f565b60c083018190526110e457fe5b6110fc888360c0015184606001518560400151612e56565b60e083015260c08201516040830151611116918a91612ea1565b6101008301528015611139576111348260e001518360000151612ee5565b61117c565b61114b8260e001518360200151612f24565b600061116a8a8a60018660c00151600188606001518960400151612879565b905061117a818460000151612f63565b505b8251604080516322894d8f60e21b81523360048201526001600160a01b038c811660248301526001604483015291519190921691638a25363c91606480830192600092919082900301818387803b1580156111d657600080fd5b505af11580156111ea573d6000803e3d6000fd5b50508451604080516322cbc1b360e11b81523360048201526001600160a01b038e81166024830152604482018e905291519190921693506345978366925060648083019260209291908290030181600087803b15801561124957600080fd5b505af115801561125d573d6000803e3d6000fd5b505050506040513d602081101561127357600080fd5b5050825160c083015160408051637f2586fb60e11b81523360048201526001600160a01b038d8116602483015260448201939093529051919092169163fe4b0df69160648083019260209291908290030181600087803b1580156112d657600080fd5b505af11580156112ea573d6000803e3d6000fd5b505050506040513d602081101561130057600080fd5b505082516040805163c7a1bbdb60e01b81523360048201526001600160a01b038c811660248301529151919092169163c7a1bbdb91604480830192600092919082900301818387803b15801561135557600080fd5b505af1158015611369573d6000803e3d6000fd5b505084516040805163dbe9f91960e01b81523360048201526001600160a01b038e81166024830152915191909216935063dbe9f919925060448083019260209291908290030181600087803b1580156113c157600080fd5b505af11580156113d5573d6000803e3d6000fd5b505050506040513d60208110156113eb57600080fd5b5051610120830152600c5461010083015160408051633e499e0560e11b81526001600160a01b038d8116600483015233602483015260448201939093528883166064820152878316608482015290519190921691637c933c0a9160a480830192600092919082900301818387803b15801561146557600080fd5b505af1158015611479573d6000803e3d6000fd5b5050845160408051630706bdff60e11b81523360048201526001600160a01b038e811660248301529151919092169350630e0d7bfe925060448083019260209291908290030181600087803b1580156114d157600080fd5b505af11580156114e5573d6000803e3d6000fd5b505050506040513d60208110156114fb57600080fd5b50516101408301819052604080516001600160a01b038c1681526020810192909252805133927fc78aeff453faf39d5a4a56acb99641aa471118956e00bdf4ca3e08ee6687fef692908290030190a26115656001600160a01b038a1633308b63ffffffff612fa216565b61157483602001518a8a612ffc565b61158e836020015184604001518b338a8760a00151613093565b602083015160408401516007546115bb9291908c906001600160a01b0316678ac7230489e8000080613093565b336001600160a01b03166000805160206146638339815191528a8460c001518b866101200151600060405180866001600160a01b03166001600160a01b0316815260200185815260200184815260200183815260200182600281111561161d57fe5b60ff1681526020019550505050505060405180910390a26080820151604080516001600160a01b038c1681526020810192909252805133927fc124a8aee2d1e87da7bdee4cd86125637943b6ab32894b8ab8f83543beabf74292908290030190a2505050505050505050565b6000546001600160a01b031681565b6008546040805163ea16003f60e01b81523360048201526001600160a01b0384811660248301529151919092169163ea16003f91604480830192600092919082900301818387803b1580156116ec57600080fd5b505af11580156108f9573d6000803e3d6000fd5b6108ac338560008087600088886000612016565b6003546001600160a01b031690565b6003546001600160a01b0316331490565b6000611746898989898989898961318b565b9998505050505050505050565b6000805460408051639b56d6c960e01b81526001600160a01b038581166004830152915184939290921691639b56d6c991602480820192602092909190829003018186803b1580156117a457600080fd5b505afa1580156117b8573d6000803e3d6000fd5b505050506040513d60208110156117ce57600080fd5b505160015460408051639b56d6c960e01b81526001600160a01b03878116600483015291519394506000939190921691639b56d6c9916024808301926020929190829003018186803b15801561081857600080fd5b6009546001600160a01b031681565b60405180604001604052806012815260200171426f72726f7765724f7065726174696f6e7360701b81525081565b600c546001600160a01b031681565b6109d888888888888888886000612016565b600b546001600160a01b031681565b600061189d8484846131c0565b90505b9392505050565b600554600054600b546001600160a01b039283169291821691166118cc8333866131e4565b600480546040805163453ebeb560e11b81526001600160a01b0388811694820194909452905160009390921691638a7d7d6a91602480820192602092909190829003018186803b15801561191f57600080fd5b505afa158015611933573d6000803e3d6000fd5b505050506040513d602081101561194957600080fd5b5051600480546040805163eb7aac5f60e01b81526001600160a01b038a8116948201949094529051939450600093929091169163eb7aac5f91602480820192602092909190829003018186803b1580156119a257600080fd5b505afa1580156119b6573d6000803e3d6000fd5b505050506040513d60208110156119cc57600080fd5b505160025460408051635670bcc760e11b81526001600160a01b038a811660048301529151939450600093919092169163ace1798e91602480830192602092919082900301818787803b158015611a2257600080fd5b505af1158015611a36573d6000803e3d6000fd5b505050506040513d6020811015611a4c57600080fd5b50519050611a5c878285856132a4565b6040805163df4fb9ef60e01b81523360048201526001600160a01b03898116602483015291519188169163df4fb9ef9160448082019260009290919082900301818387803b158015611aad57600080fd5b505af1158015611ac1573d6000803e3d6000fd5b50506040805163305a536960e01b81523360048201526001600160a01b038b81166024830152915160009450918a16925063305a5369916044808301926020929190829003018186803b158015611b1757600080fd5b505afa158015611b2b573d6000803e3d6000fd5b505050506040513d6020811015611b4157600080fd5b505160408051631e7c58c160e31b81523360048201526001600160a01b038b811660248301529151929350600092918a169163f3e2c60891604480820192602092909190829003018186803b158015611b9957600080fd5b505afa158015611bad573d6000803e3d6000fd5b505050506040513d6020811015611bc357600080fd5b50519050611be98633611be484678ac7230489e8000063ffffffff6132ec16565b61332e565b6000611bfc8a846000856000898b612879565b9050611c088187612f63565b60408051633ed3a18f60e21b81523360048201526001600160a01b038c811660248301529151918b169163fb4e863c9160448082019260009290919082900301818387803b158015611c5957600080fd5b505af1158015611c6d573d6000803e3d6000fd5b5050604080516331088bdb60e11b81523360048201526001600160a01b038e81166024830152600260448301529151918d16935063621117b6925060648082019260009290919082900301818387803b158015611cc957600080fd5b505af1158015611cdd573d6000803e3d6000fd5b50505050336001600160a01b03166000805160206146638339815191528b6000806000600160405180866001600160a01b03166001600160a01b03168152602001858152602001848152602001838152602001826002811115611d3c57fe5b60ff1681526020019550505050505060405180910390a2611d7788888c33611d7287678ac7230489e8000063ffffffff6132ec16565b6133ee565b600754611d9b90899089908d906001600160a01b0316678ac7230489e800006133ee565b6040805163715aa61b60e01b81526001600160a01b038c81166004830152336024830152604482018690529151918a169163715aa61b9160648082019260009290919082900301818387803b158015611df357600080fd5b505af1158015611e07573d6000803e3d6000fd5b5050505050505050505050505050565b611e1f6134e5565b6108f9858585600080600088886000612016565b6611c37937e0800081565b6000828201838110156118a0576040805162461bcd60e51b815260206004820152601b60248201527f536166654d6174683a206164646974696f6e206f766572666c6f770000000000604482015290519081900360640190fd5b80826001600160a01b03166370a08231856040518263ffffffff1660e01b815260040180826001600160a01b03166001600160a01b0316815260200191505060206040518083038186803b158015611eef57600080fd5b505afa158015611f03573d6000803e3d6000fd5b505050506040513d6020811015611f1957600080fd5b50511015611f585760405162461bcd60e51b81526004018080602001828103825260388152602001806141e66038913960400191505060405180910390fd5b60408051636eb1769f60e11b81526001600160a01b0385811660048301523060248301529151839285169163dd62ed3e916044808301926020929190829003018186803b158015611fa857600080fd5b505afa158015611fbc573d6000803e3d6000fd5b505050506040513d6020811015611fd257600080fd5b505110156120115760405162461bcd60e51b81526004018080602001828103825260358152602001806144336035913960400191505060405180910390fd5b505050565b61201e6140ec565b50604080516060810182526005546001600160a01b03908116825260005481166020830152600b541691810191909152612056614166565b600480546040805163453ebeb560e11b81526001600160a01b038e81169482019490945290519290911691638a7d7d6a91602480820192602092909190829003018186803b1580156120a757600080fd5b505afa1580156120bb573d6000803e3d6000fd5b505050506040513d60208110156120d157600080fd5b5051815260048054604080516311e2c60b60e11b81526001600160a01b038e811694820194909452905192909116916323c58c1691602480820192602092909190829003018186803b15801561212657600080fd5b505afa15801561213a573d6000803e3d6000fd5b505050506040513d602081101561215057600080fd5b5051602082810191909152600480546040805163eb7aac5f60e01b81526001600160a01b038f8116948201949094529051929091169263eb7aac5f92602480840193829003018186803b1580156121a657600080fd5b505afa1580156121ba573d6000803e3d6000fd5b505050506040513d60208110156121d057600080fd5b50516040808301919091526002548151635670bcc760e11b81526001600160a01b038d811660048301529251929091169163ace1798e916024808201926020929091908290030181600087803b15801561222957600080fd5b505af115801561223d573d6000803e3d6000fd5b505050506040513d602081101561225357600080fd5b50516060820181905281516040830151600092612271928e92612ac1565b9050861561228c576122838482612adb565b61228c88613530565b6122968a8a61356f565b6122a18a8a8a6135b5565b82516122ae908d8d6131e4565b336001600160a01b038d1614806122e457506006546001600160a01b0316331480156122da575060008a115b80156122e4575087155b6122ea57fe5b82516040805163df4fb9ef60e01b81526001600160a01b038f811660048301528e811660248301529151919092169163df4fb9ef91604480830192600092919082900301818387803b15801561233f57600080fd5b505af1158015612353573d6000803e3d6000fd5b505050506123618a8a613607565b151560c0840152608083015260a0820188905286801561237f575080155b156123ba57612398836000015184604001518a87612c5e565b610180830181905260a08301516123b49163ffffffff611e3e16565b60a08301525b825160408051631e7c58c160e31b81526001600160a01b038f811660048301528e811660248301529151919092169163f3e2c608916044808301926020929190829003018186803b15801561240e57600080fd5b505afa158015612422573d6000803e3d6000fd5b505050506040513d602081101561243857600080fd5b505160e083015282516040805163305a536960e01b81526001600160a01b038f811660048301528e811660248301529151919092169163305a5369916044808301926020929190829003018186803b15801561249357600080fd5b505afa1580156124a7573d6000803e3d6000fd5b505050506040513d60208110156124bd57600080fd5b5051610100830181905260e0830151606084015160408501516124e293929190612e56565b826101200181815250506125198261010001518360e0015184608001518560c001518660a001518c8860600151896040015161318b565b61014083015261010082015189111561252e57fe5b61253b818c8b8a86613626565b861580156125495750600088115b1561259c576125776125728360a001516125668560e001516136b1565b9063ffffffff6132ec16565b612e0e565b6125898260e001518360a001516136cb565b61259c83604001518d8460a0015161332e565b6125bb83600001518d8d85608001518660c001518760a001518d613721565b6101a08401526101c083015282516040805163dbe9f91960e01b81526001600160a01b038f811660048301528e811660248301529151919092169163dbe9f9199160448083019260209291908290030181600087803b15801561261d57600080fd5b505af1158015612631573d6000803e3d6000fd5b505050506040513d602081101561264757600080fd5b50516101e083015261010082015160e0830151608084015160c085015160a086015160408701516000956126849590949093909290918e9061396d565b9050600c60009054906101000a90046001600160a01b03166001600160a01b031663bc9b5bd58e8e848b8b6040518663ffffffff1660e01b815260040180866001600160a01b03166001600160a01b03168152602001856001600160a01b03166001600160a01b03168152602001848152602001836001600160a01b03166001600160a01b03168152602001826001600160a01b03166001600160a01b0316815260200195505050505050600060405180830381600087803b15801561274957600080fd5b505af115801561275d573d6000803e3d6000fd5b505050508c6001600160a01b03166000805160206146638339815191528d856101a00151866101c00151876101e00151600260405180866001600160a01b03166001600160a01b031681526020018581526020018481526020018381526020018260028111156127c957fe5b60ff1681526020019550505050505060405180910390a2610180830151604080516001600160a01b038f1681526020810192909252805133927fc124a8aee2d1e87da7bdee4cd86125637943b6ab32894b8ab8f83543beabf74292908290030190a261285084602001518560400151338f87608001518860c001518f8f8b60a00151613991565b50505050505050505050505050565b60006108d182678ac7230489e8000063ffffffff611e3e16565b60008061288589611753565b905060006128928a610748565b9050876128ae576128a9828a63ffffffff6132ec16565b6128be565b6128be828a63ffffffff611e3e16565b9150856128da576128d5818863ffffffff6132ec16565b6128ea565b6128ea818863ffffffff611e3e16565b905060006128fa83838888612e56565b9b9a5050505050505050505050565b6001600160a01b038116612964576040805162461bcd60e51b815260206004820152601e60248201527f4163636f756e742063616e6e6f74206265207a65726f20616464726573730000604482015290519081900360640190fd5b803b806129b8576040805162461bcd60e51b815260206004820181905260248201527f4163636f756e7420636f64652073697a652063616e6e6f74206265207a65726f604482015290519081900360640190fd5b5050565b6003546040516000916001600160a01b0316907f8be0079c531659141344cd1fd0a4f28419497f9722a3daafe3b4186f6b6457e0908390a3600380546001600160a01b0319169055565b6004805460408051630658339960e51b81526001600160a01b03858116948201949094529051929091169163cb06732091602480820192602092909190829003018186803b158015612a5757600080fd5b505afa158015612a6b573d6000803e3d6000fd5b505050506040513d6020811015612a8157600080fd5b5051612abe5760405162461bcd60e51b81526004018080602001828103825260278152602001806143ce6027913960400191505060405180910390fd5b50565b600080612acf868685613a56565b90931195945050505050565b8015612b2d57670de0b6b3a7640000821115612b285760405162461bcd60e51b81526004018080602001828103825260328152602001806142be6032913960400191505060405180910390fd5b6129b8565b6611c37937e080008210801590612b4c5750670de0b6b3a76400008211155b6129b85760405162461bcd60e51b81526004018080602001828103825260308152602001806145be6030913960400191505060405180910390fd5b6040805163614d120960e01b81526001600160a01b0384811660048301528381166024830152915160009286169163614d1209916044808301926020929190829003018186803b158015612bda57600080fd5b505afa158015612bee573d6000803e3d6000fd5b505050506040513d6020811015612c0457600080fd5b5051905060018114156108ac576040805162461bcd60e51b815260206004820152601c60248201527f426f72726f7765724f70733a2054726f76652069732061637469766500000000604482015290519081900360640190fd5b6000846001600160a01b0316635dba4c4a6040518163ffffffff1660e01b8152600401600060405180830381600087803b158015612c9b57600080fd5b505af1158015612caf573d6000803e3d6000fd5b505050506000856001600160a01b031663631203b0856040518263ffffffff1660e01b81526004018082815260200191505060206040518083038186803b158015612cf957600080fd5b505afa158015612d0d573d6000803e3d6000fd5b505050506040513d6020811015612d2357600080fd5b50519050612d32818585613a87565b60095460408051634677ffb360e01b81526004810184905290516001600160a01b0390921691634677ffb39160248082019260009290919082900301818387803b158015612d7f57600080fd5b505af1158015612d93573d6000803e3d6000fd5b5050600a54604080516340c10f1960e01b81526001600160a01b03928316600482015260248101869052905191891693506340c10f19925060448082019260009290919082900301818387803b158015612dec57600080fd5b505af1158015612e00573d6000803e3d6000fd5b509298975050505050505050565b6804e1003b28d9280000811015612abe5760405162461bcd60e51b815260040180806020018281038252603a8152602001806144ee603a913960400191505060405180910390fd5b60008315612e98576000612e6a8684613afc565b90506000612e8e86612e82848863ffffffff613b4416565b9063ffffffff613b9d16565b9250610856915050565b50600019610856565b60008215612edc576000612eb58584613afc565b9050612ed484612e828368056bc75e2d6310000063ffffffff613b4416565b9150506118a0565b506000196118a0565b808210156129b85760405162461bcd60e51b81526004018080602001828103825260378152602001806142876037913960400191505060405180910390fd5b808210156129b85760405162461bcd60e51b81526004018080602001828103825260498152602001806144a56049913960600191505060405180910390fd5b808210156129b85760405162461bcd60e51b81526004018080602001828103825260498152602001806143576049913960600191505060405180910390fd5b604080516001600160a01b0380861660248301528416604482015260648082018490528251808303909101815260849091019091526020810180516001600160e01b03166323b872dd60e01b1790526108ac908590613bdf565b6130166001600160a01b038316848363ffffffff613c9016565b826001600160a01b031663eb13cd1083836040518363ffffffff1660e01b815260040180836001600160a01b03166001600160a01b0316815260200182815260200192505050600060405180830381600087803b15801561307657600080fd5b505af115801561308a573d6000803e3d6000fd5b50505050505050565b856001600160a01b0316635fc7b5e885836040518363ffffffff1660e01b815260040180836001600160a01b03166001600160a01b0316815260200182815260200192505050600060405180830381600087803b1580156130f357600080fd5b505af1158015613107573d6000803e3d6000fd5b50505050846001600160a01b03166340c10f1984846040518363ffffffff1660e01b815260040180836001600160a01b03166001600160a01b0316815260200182815260200192505050600060405180830381600087803b15801561316b57600080fd5b505af115801561317f573d6000803e3d6000fd5b50505050505050505050565b600080600061319e8b8b8b8b8b8b613d76565b9150915060006131b083838888612e56565b9c9b505050505050505050505050565b6000806131db600a84900a612e82868863ffffffff613b4416565b95945050505050565b6040805163614d120960e01b81526001600160a01b0384811660048301528381166024830152915160009286169163614d1209916044808301926020929190829003018186803b15801561323757600080fd5b505afa15801561324b573d6000803e3d6000fd5b505050506040513d602081101561326157600080fd5b50519050600181146108ac5760405162461bcd60e51b815260040180806020018281038252602e8152602001806143a0602e913960400191505060405180910390fd5b6132b084848484612ac1565b156108ac5760405162461bcd60e51b815260040180806020018281038252603981526020018061424e6039913960400191505060405180910390fd5b60006118a083836040518060400160405280601e81526020017f536166654d6174683a207375627472616374696f6e206f766572666c6f770000815250613de2565b80836001600160a01b03166370a08231846040518263ffffffff1660e01b815260040180826001600160a01b03166001600160a01b0316815260200191505060206040518083038186803b15801561338557600080fd5b505afa158015613399573d6000803e3d6000fd5b505050506040513d60208110156133af57600080fd5b505110156120115760405162461bcd60e51b815260040180806020018281038252603d815260200180614468603d913960400191505060405180910390fd5b846001600160a01b0316633aacc81584836040518363ffffffff1660e01b815260040180836001600160a01b03166001600160a01b0316815260200182815260200192505050600060405180830381600087803b15801561344e57600080fd5b505af1158015613462573d6000803e3d6000fd5b50505050836001600160a01b0316639dc29fac83836040518363ffffffff1660e01b815260040180836001600160a01b03166001600160a01b0316815260200182815260200192505050600060405180830381600087803b1580156134c657600080fd5b505af11580156134da573d6000803e3d6000fd5b505050505050505050565b6006546001600160a01b0316331461352e5760405162461bcd60e51b815260040180806020018281038252602981526020018061456b6029913960400191505060405180910390fd5b565b60008111612abe5760405162461bcd60e51b81526004018080602001828103825260378152602001806145ee6037913960400191505060405180910390fd5b81158061357a575080155b6129b85760405162461bcd60e51b815260040180806020018281038252603081526020018061421e6030913960400191505060405180910390fd5b821515806135c257508115155b806135cc57508015155b6120115760405162461bcd60e51b81526004018080602001828103825260468152602001806142f06046913960600191505060405180910390fd5b600080831561361b5750829050600161361f565b8291505b9250929050565b84156136675761363583613e79565b81156136625761364e8161014001518260000151612ee5565b613662816101400151826101200151613eb6565b6108f9565b61367a8161014001518260200151612f24565b61369d8482608001518360c001518460a001518686606001518760400151612879565b610160820181905281516108f99190612f63565b60006108d182678ac7230489e8000063ffffffff6132ec16565b6136e382678ac7230489e8000063ffffffff6132ec16565b8111156129b85760405162461bcd60e51b81526004018080602001828103825260438152602001806145286043913960600191505060405180910390fd5b6000806000856137b65760408051622fae7760e81b81526001600160a01b038b811660048301528a81166024830152604482018a90529151918c1691632fae7700916064808201926020929091908290030181600087803b15801561378557600080fd5b505af1158015613799573d6000803e3d6000fd5b505050506040513d60208110156137af57600080fd5b505161383e565b604080516322cbc1b360e11b81526001600160a01b038b811660048301528a81166024830152604482018a90529151918c16916345978366916064808201926020929091908290030181600087803b15801561381157600080fd5b505af1158015613825573d6000803e3d6000fd5b505050506040513d602081101561383b57600080fd5b50515b90506000846138d35760408051634231d8b560e11b81526001600160a01b038c811660048301528b81166024830152604482018990529151918d1691638463b16a916064808201926020929091908290030181600087803b1580156138a257600080fd5b505af11580156138b6573d6000803e3d6000fd5b505050506040513d60208110156138cc57600080fd5b505161395b565b60408051637f2586fb60e11b81526001600160a01b038c811660048301528b81166024830152604482018990529151918d169163fe4b0df6916064808201926020929091908290030181600087803b15801561392e57600080fd5b505af1158015613942573d6000803e3d6000fd5b505050506040513d602081101561395857600080fd5b50515b919b919a509098505050505050505050565b60008060006139808a8a8a8a8a8a613d76565b9150915060006128fa838387612ea1565b81156139aa576139a58989888a8786613093565b6139b7565b6139b78989888a876133ee565b83156139e8576139d86001600160a01b03871633308863ffffffff612fa216565b6139e3898787612ffc565b6134da565b6040805163715aa61b60e01b81526001600160a01b0388811660048301528981166024830152604482018890529151918b169163715aa61b9160648082019260009290919082900301818387803b158015613a4257600080fd5b505af1158015612850573d6000803e3d6000fd5b600080613a6285611753565b90506000613a6f86610748565b9050613a7d82828787612e56565b9695505050505050565b6000613aa583612e8286670de0b6b3a764000063ffffffff613b4416565b9050818111156108ac576040805162461bcd60e51b815260206004820152601d60248201527f4665652065786365656465642070726f7669646564206d6178696d756d000000604482015290519081900360640190fd5b816012821115613b2457613b1d816011198401600a0a63ffffffff613b9d16565b90506108d1565b60128210156108d1576118a0816012849003600a0a63ffffffff613b4416565b600082613b53575060006108d1565b82820282848281613b6057fe5b04146118a05760405162461bcd60e51b81526004018080602001828103825260218152602001806143366021913960400191505060405180910390fd5b60006118a083836040518060400160405280601a81526020017f536166654d6174683a206469766973696f6e206279207a65726f000000000000815250613ef5565b6060613c34826040518060400160405280602081526020017f5361666545524332303a206c6f772d6c6576656c2063616c6c206661696c6564815250856001600160a01b0316613f5a9092919063ffffffff16565b80519091501561201157808060200190516020811015613c5357600080fd5b50516120115760405162461bcd60e51b815260040180806020018281038252602a815260200180614594602a913960400191505060405180910390fd5b60408051636eb1769f60e11b81523060048201526001600160a01b0384811660248301529151600092613d219285929188169163dd62ed3e91604480820192602092909190829003018186803b158015613ce957600080fd5b505afa158015613cfd573d6000803e3d6000fd5b505050506040513d6020811015613d1357600080fd5b50519063ffffffff611e3e16565b604080516001600160a01b038616602482015260448082018490528251808303909101815260649091019091526020810180516001600160e01b031663095ea7b360e01b1790529091506108ac908590613bdf565b600080878786613d9557613d908a8963ffffffff6132ec16565b613da5565b613da58a8963ffffffff611e3e16565b915084613dc157613dbc898763ffffffff6132ec16565b613dd1565b613dd1898763ffffffff611e3e16565b919a91995090975050505050505050565b60008184841115613e715760405162461bcd60e51b81526004018080602001828103825283818151815260200191508051906020019080838360005b83811015613e36578181015183820152602001613e1e565b50505050905090810190601f168015613e635780820380516001836020036101000a031916815260200191505b509250505060405180910390fd5b505050900390565b8015612abe5760405162461bcd60e51b815260040180806020018281038252603e8152602001806143f5603e913960400191505060405180910390fd5b808210156129b85760405162461bcd60e51b815260040180806020018281038252603e815260200180614625603e913960400191505060405180910390fd5b60008183613f445760405162461bcd60e51b8152602060048201818152835160248401528351909283926044909101919085019080838360008315613e36578181015183820152602001613e1e565b506000838581613f5057fe5b0495945050505050565b606061189d848460008585613f6e85614080565b613fbf576040805162461bcd60e51b815260206004820152601d60248201527f416464726573733a2063616c6c20746f206e6f6e2d636f6e7472616374000000604482015290519081900360640190fd5b60006060866001600160a01b031685876040518082805190602001908083835b60208310613ffe5780518252601f199092019160209182019101613fdf565b6001836020036101000a03801982511681845116808217855250505050505090500191505060006040518083038185875af1925050503d8060008114614060576040519150601f19603f3d011682016040523d82523d6000602084013e614065565b606091505b5091509150614075828286614086565b979650505050505050565b3b151590565b606083156140955750816118a0565b8251156140a55782518084602001fd5b60405162461bcd60e51b8152602060048201818152845160248401528451859391928392604401919085019080838360008315613e36578181015183820152602001613e1e565b604080516060810182526000808252602082018190529181019190915290565b60405180610160016040528060008152602001600081526020016000815260200160008152602001600081526020016000815260200160008152602001600081526020016000815260200160008152602001600081525090565b604051806102000160405280600081526020016000815260200160008152602001600081526020016000815260200160008152602001600015158152602001600081526020016000815260200160008152602001600081526020016000815260200160008152602001600081526020016000815260200160008152509056fe426f72726f7765724f7065726174696f6e733a20496e73756666696369656e74207573657220636f6c6c61746572616c2062616c616e6365426f72726f7765724f7065726174696f6e733a2043616e6e6f7420776974686472617720616e642061646420636f6c6c426f72726f7765724f70733a204f7065726174696f6e206e6f74207065726d697474656420647572696e67205265636f76657279204d6f6465426f72726f7765724f70733a204f7065726174696f6e206d757374206c656176652074726f7665207769746820494352203e3d204343524d6178206665652070657263656e74616765206d757374206c657373207468616e206f7220657175616c20746f2031303025426f72726f7765724f70733a205468657265206d75737420626520656974686572206120636f6c6c61746572616c206368616e6765206f7220612064656274206368616e6765536166654d6174683a206d756c7469706c69636174696f6e206f766572666c6f77426f72726f7765724f70733a20416e206f7065726174696f6e207468617420776f756c6420726573756c7420696e20544352203c20434352206973206e6f74207065726d6974746564426f72726f7765724f70733a2054726f766520646f6573206e6f74206578697374206f7220697320636c6f736564426f72726f7765724f70733a20496e76616c696420636f6c6c61746572616c2061646472657373426f72726f7765724f70733a20436f6c6c61746572616c207769746864726177616c206e6f74207065726d6974746564205265636f76657279204d6f6465426f72726f7765724f7065726174696f6e733a20496e73756666696369656e7420636f6c6c61746572616c20616c6c6f77616e6365426f72726f7765724f70733a2043616c6c657220646f65736e74206861766520656e6f756768204c55534420746f206d616b652072657061796d656e74426f72726f7765724f70733a20416e206f7065726174696f6e207468617420776f756c6420726573756c7420696e20494352203c204d4352206973206e6f74207065726d6974746564426f72726f7765724f70733a2054726f76652773206e65742064656274206d7573742062652067726561746572207468616e206d696e696d756d426f72726f7765724f70733a20416d6f756e7420726570616964206d757374206e6f74206265206c6172676572207468616e207468652054726f766527732064656274426f72726f7765724f70733a2043616c6c6572206973206e6f742053746162696c69747920506f6f6c5361666545524332303a204552433230206f7065726174696f6e20646964206e6f7420737563636565644d6178206665652070657263656e74616765206d757374206265206265747765656e20302e352520616e642031303025426f72726f7765724f70733a204465627420696e637265617365207265717569726573206e6f6e2d7a65726f20646562744368616e6765426f72726f7765724f70733a2043616e6e6f7420646563726561736520796f75722054726f766527732049435220696e205265636f76657279204d6f6465100d2512a463b515ea8d03a69afbcc791f1bd9139132e820631bec236f524ec1a2646970667358221220fc9a69f66678c7e2b61113546bdd1ef5436f9e009ee6fad1a200ea58a59c771164736f6c634300060b0033",
  "linkReferences": {},
  "deployedLinkReferences": {}
}