{
  "_format": "hh-sol-artifact-1",
  "contractName": "TroveManager",
  "sourceName": "contracts/TroveManager.sol",
  "abi": [
    {
      "inputs": [],
      "stateMutability": "nonpayable",
      "type": "constructor"
    },
    {
      "anonymous": false,
      "inputs": [
        {
          "indexed": false,
          "internalType": "address",
          "name": "_activePoolAddress",
          "type": "address"
        }
      ],
      "name": "ActivePoolAddressChanged",
      "type": "event"
    },
    {
      "anonymous": false,
      "inputs": [
        {
          "indexed": false,
          "internalType": "uint256",
          "name": "_baseRate",
          "type": "uint256"
        }
      ],
      "name": "BaseRateUpdated",
      "type": "event"
    },
    {
      "anonymous": false,
      "inputs": [
        {
          "indexed": false,
          "internalType": "address",
          "name": "_newBorrowerOperationsAddress",
          "type": "address"
        }
      ],
      "name": "BorrowerOperationsAddressChanged",
      "type": "event"
    },
    {
      "anonymous": false,
      "inputs": [
        {
          "indexed": false,
          "internalType": "address",
          "name": "_collSurplusPoolAddress",
          "type": "address"
        }
      ],
      "name": "CollSurplusPoolAddressChanged",
      "type": "event"
    },
    {
      "anonymous": false,
      "inputs": [
        {
          "indexed": false,
          "internalType": "address",
          "name": "_newCollateralConfigAddress",
          "type": "address"
        }
      ],
      "name": "CollateralConfigAddressChanged",
      "type": "event"
    },
    {
      "anonymous": false,
      "inputs": [
        {
          "indexed": false,
          "internalType": "address",
          "name": "_defaultPoolAddress",
          "type": "address"
        }
      ],
      "name": "DefaultPoolAddressChanged",
      "type": "event"
    },
    {
      "anonymous": false,
      "inputs": [
        {
          "indexed": false,
          "internalType": "address",
          "name": "_gasPoolAddress",
          "type": "address"
        }
      ],
      "name": "GasPoolAddressChanged",
      "type": "event"
    },
    {
      "anonymous": false,
      "inputs": [
        {
          "indexed": false,
          "internalType": "address",
          "name": "_lqtyStakingAddress",
          "type": "address"
        }
      ],
      "name": "LQTYStakingAddressChanged",
      "type": "event"
    },
    {
      "anonymous": false,
      "inputs": [
        {
          "indexed": false,
          "internalType": "address",
          "name": "_lqtyTokenAddress",
          "type": "address"
        }
      ],
      "name": "LQTYTokenAddressChanged",
      "type": "event"
    },
    {
      "anonymous": false,
      "inputs": [
        {
          "indexed": false,
          "internalType": "address",
          "name": "_collateral",
          "type": "address"
        },
        {
          "indexed": false,
          "internalType": "uint256",
          "name": "_L_Collateral",
          "type": "uint256"
        },
        {
          "indexed": false,
          "internalType": "uint256",
          "name": "_L_LUSDDebt",
          "type": "uint256"
        }
      ],
      "name": "LTermsUpdated",
      "type": "event"
    },
    {
      "anonymous": false,
      "inputs": [
        {
          "indexed": false,
          "internalType": "address",
          "name": "_newLUSDTokenAddress",
          "type": "address"
        }
      ],
      "name": "LUSDTokenAddressChanged",
      "type": "event"
    },
    {
      "anonymous": false,
      "inputs": [
        {
          "indexed": false,
          "internalType": "uint256",
          "name": "_lastFeeOpTime",
          "type": "uint256"
        }
      ],
      "name": "LastFeeOpTimeUpdated",
      "type": "event"
    },
    {
      "anonymous": false,
      "inputs": [
        {
          "indexed": false,
          "internalType": "address",
          "name": "_collateral",
          "type": "address"
        },
        {
          "indexed": false,
          "internalType": "uint256",
          "name": "_liquidatedDebt",
          "type": "uint256"
        },
        {
          "indexed": false,
          "internalType": "uint256",
          "name": "_liquidatedColl",
          "type": "uint256"
        },
        {
          "indexed": false,
          "internalType": "uint256",
          "name": "_collGasCompensation",
          "type": "uint256"
        },
        {
          "indexed": false,
          "internalType": "uint256",
          "name": "_LUSDGasCompensation",
          "type": "uint256"
        }
      ],
      "name": "Liquidation",
      "type": "event"
    },
    {
      "anonymous": false,
      "inputs": [
        {
          "indexed": false,
          "internalType": "address",
          "name": "_newPriceFeedAddress",
          "type": "address"
        }
      ],
      "name": "PriceFeedAddressChanged",
      "type": "event"
    },
    {
      "anonymous": false,
      "inputs": [
        {
          "indexed": false,
          "internalType": "address",
          "name": "_collateral",
          "type": "address"
        },
        {
          "indexed": false,
          "internalType": "uint256",
          "name": "_attemptedLUSDAmount",
          "type": "uint256"
        },
        {
          "indexed": false,
          "internalType": "uint256",
          "name": "_actualLUSDAmount",
          "type": "uint256"
        },
        {
          "indexed": false,
          "internalType": "uint256",
          "name": "_collSent",
          "type": "uint256"
        },
        {
          "indexed": false,
          "internalType": "uint256",
          "name": "_collFee",
          "type": "uint256"
        }
      ],
      "name": "Redemption",
      "type": "event"
    },
    {
      "anonymous": false,
      "inputs": [
        {
          "indexed": false,
          "internalType": "address",
          "name": "_redemptionHelperAddress",
          "type": "address"
        }
      ],
      "name": "RedemptionHelperAddressChanged",
      "type": "event"
    },
    {
      "anonymous": false,
      "inputs": [
        {
          "indexed": false,
          "internalType": "address",
          "name": "_sortedTrovesAddress",
          "type": "address"
        }
      ],
      "name": "SortedTrovesAddressChanged",
      "type": "event"
    },
    {
      "anonymous": false,
      "inputs": [
        {
          "indexed": false,
          "internalType": "address",
          "name": "_stabilityPoolAddress",
          "type": "address"
        }
      ],
      "name": "StabilityPoolAddressChanged",
      "type": "event"
    },
    {
      "anonymous": false,
      "inputs": [
        {
          "indexed": false,
          "internalType": "address",
          "name": "_collateral",
          "type": "address"
        },
        {
          "indexed": false,
          "internalType": "uint256",
          "name": "_totalStakesSnapshot",
          "type": "uint256"
        },
        {
          "indexed": false,
          "internalType": "uint256",
          "name": "_totalCollateralSnapshot",
          "type": "uint256"
        }
      ],
      "name": "SystemSnapshotsUpdated",
      "type": "event"
    },
    {
      "anonymous": false,
      "inputs": [
        {
          "indexed": false,
          "internalType": "address",
          "name": "_collateral",
          "type": "address"
        },
        {
          "indexed": false,
          "internalType": "uint256",
          "name": "_newTotalStakes",
          "type": "uint256"
        }
      ],
      "name": "TotalStakesUpdated",
      "type": "event"
    },
    {
      "anonymous": false,
      "inputs": [
        {
          "indexed": false,
          "internalType": "address",
          "name": "_borrower",
          "type": "address"
        },
        {
          "indexed": false,
          "internalType": "address",
          "name": "_collateral",
          "type": "address"
        },
        {
          "indexed": false,
          "internalType": "uint256",
          "name": "_newIndex",
          "type": "uint256"
        }
      ],
      "name": "TroveIndexUpdated",
      "type": "event"
    },
    {
      "anonymous": false,
      "inputs": [
        {
          "indexed": true,
          "internalType": "address",
          "name": "_borrower",
          "type": "address"
        },
        {
          "indexed": false,
          "internalType": "address",
          "name": "_collateral",
          "type": "address"
        },
        {
          "indexed": false,
          "internalType": "uint256",
          "name": "_debt",
          "type": "uint256"
        },
        {
          "indexed": false,
          "internalType": "uint256",
          "name": "_coll",
          "type": "uint256"
        },
        {
          "indexed": false,
          "internalType": "enum TroveManager.TroveManagerOperation",
          "name": "_operation",
          "type": "uint8"
        }
      ],
      "name": "TroveLiquidated",
      "type": "event"
    },
    {
      "anonymous": false,
      "inputs": [
        {
          "indexed": false,
          "internalType": "address",
          "name": "_collateral",
          "type": "address"
        },
        {
          "indexed": false,
          "internalType": "uint256",
          "name": "_L_Collateral",
          "type": "uint256"
        },
        {
          "indexed": false,
          "internalType": "uint256",
          "name": "_L_LUSDDebt",
          "type": "uint256"
        }
      ],
      "name": "TroveSnapshotsUpdated",
      "type": "event"
    },
    {
      "anonymous": false,
      "inputs": [
        {
          "indexed": true,
          "internalType": "address",
          "name": "_borrower",
          "type": "address"
        },
        {
          "indexed": false,
          "internalType": "address",
          "name": "_collateral",
          "type": "address"
        },
        {
          "indexed": false,
          "internalType": "uint256",
          "name": "_debt",
          "type": "uint256"
        },
        {
          "indexed": false,
          "internalType": "uint256",
          "name": "_coll",
          "type": "uint256"
        },
        {
          "indexed": false,
          "internalType": "uint256",
          "name": "_stake",
          "type": "uint256"
        },
        {
          "indexed": false,
          "internalType": "enum TroveManager.TroveManagerOperation",
          "name": "_operation",
          "type": "uint8"
        }
      ],
      "name": "TroveUpdated",
      "type": "event"
    },
    {
      "inputs": [],
      "name": "BETA",
      "outputs": [
        {
          "internalType": "uint256",
          "name": "",
          "type": "uint256"
        }
      ],
      "stateMutability": "view",
      "type": "function"
    },
    {
      "inputs": [],
      "name": "BORROWING_FEE_FLOOR",
      "outputs": [
        {
          "internalType": "uint256",
          "name": "",
          "type": "uint256"
        }
      ],
      "stateMutability": "view",
      "type": "function"
    },
    {
      "inputs": [],
      "name": "DECIMAL_PRECISION",
      "outputs": [
        {
          "internalType": "uint256",
          "name": "",
          "type": "uint256"
        }
      ],
      "stateMutability": "view",
      "type": "function"
    },
    {
      "inputs": [],
      "name": "LUSD_GAS_COMPENSATION",
      "outputs": [
        {
          "internalType": "uint256",
          "name": "",
          "type": "uint256"
        }
      ],
      "stateMutability": "view",
      "type": "function"
    },
    {
      "inputs": [
        {
          "internalType": "address",
          "name": "",
          "type": "address"
        }
      ],
      "name": "L_Collateral",
      "outputs": [
        {
          "internalType": "uint256",
          "name": "",
          "type": "uint256"
        }
      ],
      "stateMutability": "view",
      "type": "function"
    },
    {
      "inputs": [
        {
          "internalType": "address",
          "name": "",
          "type": "address"
        }
      ],
      "name": "L_LUSDDebt",
      "outputs": [
        {
          "internalType": "uint256",
          "name": "",
          "type": "uint256"
        }
      ],
      "stateMutability": "view",
      "type": "function"
    },
    {
      "inputs": [],
      "name": "MAX_BORROWING_FEE",
      "outputs": [
        {
          "internalType": "uint256",
          "name": "",
          "type": "uint256"
        }
      ],
      "stateMutability": "view",
      "type": "function"
    },
    {
      "inputs": [],
      "name": "MINUTE_DECAY_FACTOR",
      "outputs": [
        {
          "internalType": "uint256",
          "name": "",
          "type": "uint256"
        }
      ],
      "stateMutability": "view",
      "type": "function"
    },
    {
      "inputs": [],
      "name": "MIN_NET_DEBT",
      "outputs": [
        {
          "internalType": "uint256",
          "name": "",
          "type": "uint256"
        }
      ],
      "stateMutability": "view",
      "type": "function"
    },
    {
      "inputs": [],
      "name": "PERCENT_DIVISOR",
      "outputs": [
        {
          "internalType": "uint256",
          "name": "",
          "type": "uint256"
        }
      ],
      "stateMutability": "view",
      "type": "function"
    },
    {
      "inputs": [],
      "name": "REDEMPTION_FEE_FLOOR",
      "outputs": [
        {
          "internalType": "uint256",
          "name": "",
          "type": "uint256"
        }
      ],
      "stateMutability": "view",
      "type": "function"
    },
    {
      "inputs": [],
      "name": "SECONDS_IN_ONE_MINUTE",
      "outputs": [
        {
          "internalType": "uint256",
          "name": "",
          "type": "uint256"
        }
      ],
      "stateMutability": "view",
      "type": "function"
    },
    {
      "inputs": [
        {
          "internalType": "address",
          "name": "",
          "type": "address"
        },
        {
          "internalType": "uint256",
          "name": "",
          "type": "uint256"
        }
      ],
      "name": "TroveOwners",
      "outputs": [
        {
          "internalType": "address",
          "name": "",
          "type": "address"
        }
      ],
      "stateMutability": "view",
      "type": "function"
    },
    {
      "inputs": [
        {
          "internalType": "address",
          "name": "",
          "type": "address"
        },
        {
          "internalType": "address",
          "name": "",
          "type": "address"
        }
      ],
      "name": "Troves",
      "outputs": [
        {
          "internalType": "uint256",
          "name": "debt",
          "type": "uint256"
        },
        {
          "internalType": "uint256",
          "name": "coll",
          "type": "uint256"
        },
        {
          "internalType": "uint256",
          "name": "stake",
          "type": "uint256"
        },
        {
          "internalType": "enum TroveManager.Status",
          "name": "status",
          "type": "uint8"
        },
        {
          "internalType": "uint128",
          "name": "arrayIndex",
          "type": "uint128"
        }
      ],
      "stateMutability": "view",
      "type": "function"
    },
    {
      "inputs": [],
      "name": "_100pct",
      "outputs": [
        {
          "internalType": "uint256",
          "name": "",
          "type": "uint256"
        }
      ],
      "stateMutability": "view",
      "type": "function"
    },
    {
      "inputs": [],
      "name": "activePool",
      "outputs": [
        {
          "internalType": "contract IActivePool",
          "name": "",
          "type": "address"
        }
      ],
      "stateMutability": "view",
      "type": "function"
    },
    {
      "inputs": [
        {
          "internalType": "address",
          "name": "_borrower",
          "type": "address"
        },
        {
          "internalType": "address",
          "name": "_collateral",
          "type": "address"
        }
      ],
      "name": "addTroveOwnerToArray",
      "outputs": [
        {
          "internalType": "uint256",
          "name": "index",
          "type": "uint256"
        }
      ],
      "stateMutability": "nonpayable",
      "type": "function"
    },
    {
      "inputs": [
        {
          "internalType": "address",
          "name": "_borrower",
          "type": "address"
        },
        {
          "internalType": "address",
          "name": "_collateral",
          "type": "address"
        }
      ],
      "name": "applyPendingRewards",
      "outputs": [],
      "stateMutability": "nonpayable",
      "type": "function"
    },
    {
      "inputs": [],
      "name": "baseRate",
      "outputs": [
        {
          "internalType": "uint256",
          "name": "",
          "type": "uint256"
        }
      ],
      "stateMutability": "view",
      "type": "function"
    },
    {
      "inputs": [
        {
          "internalType": "address",
          "name": "_collateral",
          "type": "address"
        },
        {
          "internalType": "address[]",
          "name": "_troveArray",
          "type": "address[]"
        }
      ],
      "name": "batchLiquidateTroves",
      "outputs": [],
      "stateMutability": "nonpayable",
      "type": "function"
    },
    {
      "inputs": [],
      "name": "borrowerOperationsAddress",
      "outputs": [
        {
          "internalType": "address",
          "name": "",
          "type": "address"
        }
      ],
      "stateMutability": "view",
      "type": "function"
    },
    {
      "inputs": [
        {
          "internalType": "address",
          "name": "_redeemer",
          "type": "address"
        },
        {
          "internalType": "address",
          "name": "_collateral",
          "type": "address"
        },
        {
          "internalType": "uint256",
          "name": "_attemptedLUSDAmount",
          "type": "uint256"
        },
        {
          "internalType": "uint256",
          "name": "_actualLUSDAmount",
          "type": "uint256"
        },
        {
          "internalType": "uint256",
          "name": "_collSent",
          "type": "uint256"
        },
        {
          "internalType": "uint256",
          "name": "_collFee",
          "type": "uint256"
        }
      ],
      "name": "burnLUSDAndEmitRedemptionEvent",
      "outputs": [],
      "stateMutability": "nonpayable",
      "type": "function"
    },
    {
      "inputs": [
        {
          "internalType": "address",
          "name": "_collateral",
          "type": "address"
        },
        {
          "internalType": "uint256",
          "name": "_price",
          "type": "uint256"
        }
      ],
      "name": "checkRecoveryMode",
      "outputs": [
        {
          "internalType": "bool",
          "name": "",
          "type": "bool"
        }
      ],
      "stateMutability": "view",
      "type": "function"
    },
    {
      "inputs": [
        {
          "internalType": "address",
          "name": "_borrower",
          "type": "address"
        },
        {
          "internalType": "address",
          "name": "_collateral",
          "type": "address"
        },
        {
          "internalType": "uint256",
          "name": "_closedStatusNum",
          "type": "uint256"
        }
      ],
      "name": "closeTrove",
      "outputs": [],
      "stateMutability": "nonpayable",
      "type": "function"
    },
    {
      "inputs": [],
      "name": "collateralConfig",
      "outputs": [
        {
          "internalType": "contract ICollateralConfig",
          "name": "",
          "type": "address"
        }
      ],
      "stateMutability": "view",
      "type": "function"
    },
    {
      "inputs": [],
      "name": "decayBaseRateFromBorrowing",
      "outputs": [],
      "stateMutability": "nonpayable",
      "type": "function"
    },
    {
      "inputs": [
        {
          "internalType": "address",
          "name": "_borrower",
          "type": "address"
        },
        {
          "internalType": "address",
          "name": "_collateral",
          "type": "address"
        },
        {
          "internalType": "uint256",
          "name": "_collDecrease",
          "type": "uint256"
        }
      ],
      "name": "decreaseTroveColl",
      "outputs": [
        {
          "internalType": "uint256",
          "name": "",
          "type": "uint256"
        }
      ],
      "stateMutability": "nonpayable",
      "type": "function"
    },
    {
      "inputs": [
        {
          "internalType": "address",
          "name": "_borrower",
          "type": "address"
        },
        {
          "internalType": "address",
          "name": "_collateral",
          "type": "address"
        },
        {
          "internalType": "uint256",
          "name": "_debtDecrease",
          "type": "uint256"
        }
      ],
      "name": "decreaseTroveDebt",
      "outputs": [
        {
          "internalType": "uint256",
          "name": "",
          "type": "uint256"
        }
      ],
      "stateMutability": "nonpayable",
      "type": "function"
    },
    {
      "inputs": [],
      "name": "defaultPool",
      "outputs": [
        {
          "internalType": "contract IDefaultPool",
          "name": "",
          "type": "address"
        }
      ],
      "stateMutability": "view",
      "type": "function"
    },
    {
      "inputs": [
        {
          "internalType": "uint256",
          "name": "_LUSDDebt",
          "type": "uint256"
        }
      ],
      "name": "getBorrowingFee",
      "outputs": [
        {
          "internalType": "uint256",
          "name": "",
          "type": "uint256"
        }
      ],
      "stateMutability": "view",
      "type": "function"
    },
    {
      "inputs": [
        {
          "internalType": "uint256",
          "name": "_LUSDDebt",
          "type": "uint256"
        }
      ],
      "name": "getBorrowingFeeWithDecay",
      "outputs": [
        {
          "internalType": "uint256",
          "name": "",
          "type": "uint256"
        }
      ],
      "stateMutability": "view",
      "type": "function"
    },
    {
      "inputs": [],
      "name": "getBorrowingRate",
      "outputs": [
        {
          "internalType": "uint256",
          "name": "",
          "type": "uint256"
        }
      ],
      "stateMutability": "view",
      "type": "function"
    },
    {
      "inputs": [],
      "name": "getBorrowingRateWithDecay",
      "outputs": [
        {
          "internalType": "uint256",
          "name": "",
          "type": "uint256"
        }
      ],
      "stateMutability": "view",
      "type": "function"
    },
    {
      "inputs": [
        {
          "internalType": "address",
          "name": "_borrower",
          "type": "address"
        },
        {
          "internalType": "address",
          "name": "_collateral",
          "type": "address"
        },
        {
          "internalType": "uint256",
          "name": "_price",
          "type": "uint256"
        }
      ],
      "name": "getCurrentICR",
      "outputs": [
        {
          "internalType": "uint256",
          "name": "",
          "type": "uint256"
        }
      ],
      "stateMutability": "view",
      "type": "function"
    },
    {
      "inputs": [
        {
          "internalType": "address",
          "name": "_borrower",
          "type": "address"
        },
        {
          "internalType": "address",
          "name": "_collateral",
          "type": "address"
        }
      ],
      "name": "getEntireDebtAndColl",
      "outputs": [
        {
          "internalType": "uint256",
          "name": "debt",
          "type": "uint256"
        },
        {
          "internalType": "uint256",
          "name": "coll",
          "type": "uint256"
        },
        {
          "internalType": "uint256",
          "name": "pendingLUSDDebtReward",
          "type": "uint256"
        },
        {
          "internalType": "uint256",
          "name": "pendingCollateralReward",
          "type": "uint256"
        }
      ],
      "stateMutability": "view",
      "type": "function"
    },
    {
      "inputs": [
        {
          "internalType": "address",
          "name": "_collateral",
          "type": "address"
        }
      ],
      "name": "getEntireSystemColl",
      "outputs": [
        {
          "internalType": "uint256",
          "name": "entireSystemColl",
          "type": "uint256"
        }
      ],
      "stateMutability": "view",
      "type": "function"
    },
    {
      "inputs": [
        {
          "internalType": "address",
          "name": "_collateral",
          "type": "address"
        }
      ],
      "name": "getEntireSystemDebt",
      "outputs": [
        {
          "internalType": "uint256",
          "name": "entireSystemDebt",
          "type": "uint256"
        }
      ],
      "stateMutability": "view",
      "type": "function"
    },
    {
      "inputs": [
        {
          "internalType": "address",
          "name": "_borrower",
          "type": "address"
        },
        {
          "internalType": "address",
          "name": "_collateral",
          "type": "address"
        }
      ],
      "name": "getNominalICR",
      "outputs": [
        {
          "internalType": "uint256",
          "name": "",
          "type": "uint256"
        }
      ],
      "stateMutability": "view",
      "type": "function"
    },
    {
      "inputs": [
        {
          "internalType": "address",
          "name": "_borrower",
          "type": "address"
        },
        {
          "internalType": "address",
          "name": "_collateral",
          "type": "address"
        }
      ],
      "name": "getPendingCollateralReward",
      "outputs": [
        {
          "internalType": "uint256",
          "name": "",
          "type": "uint256"
        }
      ],
      "stateMutability": "view",
      "type": "function"
    },
    {
      "inputs": [
        {
          "internalType": "address",
          "name": "_borrower",
          "type": "address"
        },
        {
          "internalType": "address",
          "name": "_collateral",
          "type": "address"
        }
      ],
      "name": "getPendingLUSDDebtReward",
      "outputs": [
        {
          "internalType": "uint256",
          "name": "",
          "type": "uint256"
        }
      ],
      "stateMutability": "view",
      "type": "function"
    },
    {
      "inputs": [
        {
          "internalType": "uint256",
          "name": "_collateralDrawn",
          "type": "uint256"
        }
      ],
      "name": "getRedemptionFee",
      "outputs": [
        {
          "internalType": "uint256",
          "name": "",
          "type": "uint256"
        }
      ],
      "stateMutability": "view",
      "type": "function"
    },
    {
      "inputs": [
        {
          "internalType": "uint256",
          "name": "_collateralDrawn",
          "type": "uint256"
        }
      ],
      "name": "getRedemptionFeeWithDecay",
      "outputs": [
        {
          "internalType": "uint256",
          "name": "",
          "type": "uint256"
        }
      ],
      "stateMutability": "view",
      "type": "function"
    },
    {
      "inputs": [],
      "name": "getRedemptionRate",
      "outputs": [
        {
          "internalType": "uint256",
          "name": "",
          "type": "uint256"
        }
      ],
      "stateMutability": "view",
      "type": "function"
    },
    {
      "inputs": [],
      "name": "getRedemptionRateWithDecay",
      "outputs": [
        {
          "internalType": "uint256",
          "name": "",
          "type": "uint256"
        }
      ],
      "stateMutability": "view",
      "type": "function"
    },
    {
      "inputs": [
        {
          "internalType": "address",
          "name": "_collateral",
          "type": "address"
        },
        {
          "internalType": "uint256",
          "name": "_price",
          "type": "uint256"
        }
      ],
      "name": "getTCR",
      "outputs": [
        {
          "internalType": "uint256",
          "name": "",
          "type": "uint256"
        }
      ],
      "stateMutability": "view",
      "type": "function"
    },
    {
      "inputs": [
        {
          "internalType": "address",
          "name": "_borrower",
          "type": "address"
        },
        {
          "internalType": "address",
          "name": "_collateral",
          "type": "address"
        }
      ],
      "name": "getTroveColl",
      "outputs": [
        {
          "internalType": "uint256",
          "name": "",
          "type": "uint256"
        }
      ],
      "stateMutability": "view",
      "type": "function"
    },
    {
      "inputs": [
        {
          "internalType": "address",
          "name": "_borrower",
          "type": "address"
        },
        {
          "internalType": "address",
          "name": "_collateral",
          "type": "address"
        }
      ],
      "name": "getTroveDebt",
      "outputs": [
        {
          "internalType": "uint256",
          "name": "",
          "type": "uint256"
        }
      ],
      "stateMutability": "view",
      "type": "function"
    },
    {
      "inputs": [
        {
          "internalType": "address",
          "name": "_collateral",
          "type": "address"
        },
        {
          "internalType": "uint256",
          "name": "_index",
          "type": "uint256"
        }
      ],
      "name": "getTroveFromTroveOwnersArray",
      "outputs": [
        {
          "internalType": "address",
          "name": "",
          "type": "address"
        }
      ],
      "stateMutability": "view",
      "type": "function"
    },
    {
      "inputs": [
        {
          "internalType": "address",
          "name": "_collateral",
          "type": "address"
        }
      ],
      "name": "getTroveOwnersCount",
      "outputs": [
        {
          "internalType": "uint256",
          "name": "",
          "type": "uint256"
        }
      ],
      "stateMutability": "view",
      "type": "function"
    },
    {
      "inputs": [
        {
          "internalType": "address",
          "name": "_borrower",
          "type": "address"
        },
        {
          "internalType": "address",
          "name": "_collateral",
          "type": "address"
        }
      ],
      "name": "getTroveStake",
      "outputs": [
        {
          "internalType": "uint256",
          "name": "",
          "type": "uint256"
        }
      ],
      "stateMutability": "view",
      "type": "function"
    },
    {
      "inputs": [
        {
          "internalType": "address",
          "name": "_borrower",
          "type": "address"
        },
        {
          "internalType": "address",
          "name": "_collateral",
          "type": "address"
        }
      ],
      "name": "getTroveStatus",
      "outputs": [
        {
          "internalType": "uint256",
          "name": "",
          "type": "uint256"
        }
      ],
      "stateMutability": "view",
      "type": "function"
    },
    {
      "inputs": [
        {
          "internalType": "address",
          "name": "_borrower",
          "type": "address"
        },
        {
          "internalType": "address",
          "name": "_collateral",
          "type": "address"
        }
      ],
      "name": "hasPendingRewards",
      "outputs": [
        {
          "internalType": "bool",
          "name": "",
          "type": "bool"
        }
      ],
      "stateMutability": "view",
      "type": "function"
    },
    {
      "inputs": [
        {
          "internalType": "address",
          "name": "_borrower",
          "type": "address"
        },
        {
          "internalType": "address",
          "name": "_collateral",
          "type": "address"
        },
        {
          "internalType": "uint256",
          "name": "_collIncrease",
          "type": "uint256"
        }
      ],
      "name": "increaseTroveColl",
      "outputs": [
        {
          "internalType": "uint256",
          "name": "",
          "type": "uint256"
        }
      ],
      "stateMutability": "nonpayable",
      "type": "function"
    },
    {
      "inputs": [
        {
          "internalType": "address",
          "name": "_borrower",
          "type": "address"
        },
        {
          "internalType": "address",
          "name": "_collateral",
          "type": "address"
        },
        {
          "internalType": "uint256",
          "name": "_debtIncrease",
          "type": "uint256"
        }
      ],
      "name": "increaseTroveDebt",
      "outputs": [
        {
          "internalType": "uint256",
          "name": "",
          "type": "uint256"
        }
      ],
      "stateMutability": "nonpayable",
      "type": "function"
    },
    {
      "inputs": [
        {
          "internalType": "address",
          "name": "",
          "type": "address"
        }
      ],
      "name": "lastCollateralError_Redistribution",
      "outputs": [
        {
          "internalType": "uint256",
          "name": "",
          "type": "uint256"
        }
      ],
      "stateMutability": "view",
      "type": "function"
    },
    {
      "inputs": [],
      "name": "lastFeeOperationTime",
      "outputs": [
        {
          "internalType": "uint256",
          "name": "",
          "type": "uint256"
        }
      ],
      "stateMutability": "view",
      "type": "function"
    },
    {
      "inputs": [
        {
          "internalType": "address",
          "name": "",
          "type": "address"
        }
      ],
      "name": "lastLUSDDebtError_Redistribution",
      "outputs": [
        {
          "internalType": "uint256",
          "name": "",
          "type": "uint256"
        }
      ],
      "stateMutability": "view",
      "type": "function"
    },
    {
      "inputs": [
        {
          "internalType": "address",
          "name": "_borrower",
          "type": "address"
        },
        {
          "internalType": "address",
          "name": "_collateral",
          "type": "address"
        }
      ],
      "name": "liquidate",
      "outputs": [],
      "stateMutability": "nonpayable",
      "type": "function"
    },
    {
      "inputs": [
        {
          "internalType": "address",
          "name": "_collateral",
          "type": "address"
        },
        {
          "internalType": "uint256",
          "name": "_n",
          "type": "uint256"
        }
      ],
      "name": "liquidateTroves",
      "outputs": [],
      "stateMutability": "nonpayable",
      "type": "function"
    },
    {
      "inputs": [],
      "name": "lqtyStaking",
      "outputs": [
        {
          "internalType": "contract ILQTYStaking",
          "name": "",
          "type": "address"
        }
      ],
      "stateMutability": "view",
      "type": "function"
    },
    {
      "inputs": [],
      "name": "lqtyToken",
      "outputs": [
        {
          "internalType": "contract IERC20",
          "name": "",
          "type": "address"
        }
      ],
      "stateMutability": "view",
      "type": "function"
    },
    {
      "inputs": [],
      "name": "lusdToken",
      "outputs": [
        {
          "internalType": "contract ILUSDToken",
          "name": "",
          "type": "address"
        }
      ],
      "stateMutability": "view",
      "type": "function"
    },
    {
      "inputs": [],
      "name": "owner",
      "outputs": [
        {
          "internalType": "address",
          "name": "",
          "type": "address"
        }
      ],
      "stateMutability": "view",
      "type": "function"
    },
    {
      "inputs": [],
      "name": "priceFeed",
      "outputs": [
        {
          "internalType": "contract IPriceFeed",
          "name": "",
          "type": "address"
        }
      ],
      "stateMutability": "view",
      "type": "function"
    },
    {
      "inputs": [
        {
          "internalType": "address",
          "name": "_id",
          "type": "address"
        },
        {
          "internalType": "address",
          "name": "_collateral",
          "type": "address"
        },
        {
          "internalType": "uint256",
          "name": "_newNICR",
          "type": "uint256"
        },
        {
          "internalType": "address",
          "name": "_prevId",
          "type": "address"
        },
        {
          "internalType": "address",
          "name": "_nextId",
          "type": "address"
        }
      ],
      "name": "reInsert",
      "outputs": [],
      "stateMutability": "nonpayable",
      "type": "function"
    },
    {
      "inputs": [
        {
          "internalType": "address",
          "name": "_borrower",
          "type": "address"
        },
        {
          "internalType": "address",
          "name": "_collateral",
          "type": "address"
        },
        {
          "internalType": "uint256",
          "name": "_LUSD",
          "type": "uint256"
        },
        {
          "internalType": "uint256",
          "name": "_collAmount",
          "type": "uint256"
        }
      ],
      "name": "redeemCloseTrove",
      "outputs": [],
      "stateMutability": "nonpayable",
      "type": "function"
    },
    {
      "inputs": [
        {
          "internalType": "address",
          "name": "_collateral",
          "type": "address"
        },
        {
          "internalType": "uint256",
          "name": "_LUSDamount",
          "type": "uint256"
        },
        {
          "internalType": "address",
          "name": "_firstRedemptionHint",
          "type": "address"
        },
        {
          "internalType": "address",
          "name": "_upperPartialRedemptionHint",
          "type": "address"
        },
        {
          "internalType": "address",
          "name": "_lowerPartialRedemptionHint",
          "type": "address"
        },
        {
          "internalType": "uint256",
          "name": "_partialRedemptionHintNICR",
          "type": "uint256"
        },
        {
          "internalType": "uint256",
          "name": "_maxIterations",
          "type": "uint256"
        },
        {
          "internalType": "uint256",
          "name": "_maxFeePercentage",
          "type": "uint256"
        }
      ],
      "name": "redeemCollateral",
      "outputs": [],
      "stateMutability": "nonpayable",
      "type": "function"
    },
    {
      "inputs": [],
      "name": "redemptionHelper",
      "outputs": [
        {
          "internalType": "contract IRedemptionHelper",
          "name": "",
          "type": "address"
        }
      ],
      "stateMutability": "view",
      "type": "function"
    },
    {
      "inputs": [
        {
          "internalType": "address",
          "name": "_borrower",
          "type": "address"
        },
        {
          "internalType": "address",
          "name": "_collateral",
          "type": "address"
        }
      ],
      "name": "removeStake",
      "outputs": [],
      "stateMutability": "nonpayable",
      "type": "function"
    },
    {
      "inputs": [
        {
          "internalType": "address",
          "name": "",
          "type": "address"
        },
        {
          "internalType": "address",
          "name": "",
          "type": "address"
        }
      ],
      "name": "rewardSnapshots",
      "outputs": [
        {
          "internalType": "uint256",
          "name": "collAmount",
          "type": "uint256"
        },
        {
          "internalType": "uint256",
          "name": "LUSDDebt",
          "type": "uint256"
        }
      ],
      "stateMutability": "view",
      "type": "function"
    },
    {
      "inputs": [
        {
          "internalType": "address",
          "name": "_borrowerOperationsAddress",
          "type": "address"
        },
        {
          "internalType": "address",
          "name": "_collateralConfigAddress",
          "type": "address"
        },
        {
          "internalType": "address",
          "name": "_activePoolAddress",
          "type": "address"
        },
        {
          "internalType": "address",
          "name": "_defaultPoolAddress",
          "type": "address"
        },
        {
          "internalType": "address",
          "name": "_stabilityPoolAddress",
          "type": "address"
        },
        {
          "internalType": "address",
          "name": "_gasPoolAddress",
          "type": "address"
        },
        {
          "internalType": "address",
          "name": "_collSurplusPoolAddress",
          "type": "address"
        },
        {
          "internalType": "address",
          "name": "_priceFeedAddress",
          "type": "address"
        },
        {
          "internalType": "address",
          "name": "_lusdTokenAddress",
          "type": "address"
        },
        {
          "internalType": "address",
          "name": "_sortedTrovesAddress",
          "type": "address"
        },
        {
          "internalType": "address",
          "name": "_lqtyTokenAddress",
          "type": "address"
        },
        {
          "internalType": "address",
          "name": "_lqtyStakingAddress",
          "type": "address"
        },
        {
          "internalType": "address",
          "name": "_redemptionHelperAddress",
          "type": "address"
        }
      ],
      "name": "setAddresses",
      "outputs": [],
      "stateMutability": "nonpayable",
      "type": "function"
    },
    {
      "inputs": [
        {
          "internalType": "address",
          "name": "_borrower",
          "type": "address"
        },
        {
          "internalType": "address",
          "name": "_collateral",
          "type": "address"
        },
        {
          "internalType": "uint256",
          "name": "_num",
          "type": "uint256"
        }
      ],
      "name": "setTroveStatus",
      "outputs": [],
      "stateMutability": "nonpayable",
      "type": "function"
    },
    {
      "inputs": [],
      "name": "sortedTroves",
      "outputs": [
        {
          "internalType": "contract ISortedTroves",
          "name": "",
          "type": "address"
        }
      ],
      "stateMutability": "view",
      "type": "function"
    },
    {
      "inputs": [],
      "name": "stabilityPool",
      "outputs": [
        {
          "internalType": "contract IStabilityPool",
          "name": "",
          "type": "address"
        }
      ],
      "stateMutability": "view",
      "type": "function"
    },
    {
      "inputs": [
        {
          "internalType": "address",
          "name": "",
          "type": "address"
        }
      ],
      "name": "totalCollateralSnapshot",
      "outputs": [
        {
          "internalType": "uint256",
          "name": "",
          "type": "uint256"
        }
      ],
      "stateMutability": "view",
      "type": "function"
    },
    {
      "inputs": [
        {
          "internalType": "address",
          "name": "",
          "type": "address"
        }
      ],
      "name": "totalStakes",
      "outputs": [
        {
          "internalType": "uint256",
          "name": "",
          "type": "uint256"
        }
      ],
      "stateMutability": "view",
      "type": "function"
    },
    {
      "inputs": [
        {
          "internalType": "address",
          "name": "",
          "type": "address"
        }
      ],
      "name": "totalStakesSnapshot",
      "outputs": [
        {
          "internalType": "uint256",
          "name": "",
          "type": "uint256"
        }
      ],
      "stateMutability": "view",
      "type": "function"
    },
    {
      "inputs": [
        {
          "internalType": "uint256",
          "name": "_collateralDrawn",
          "type": "uint256"
        },
        {
          "internalType": "uint256",
          "name": "_price",
          "type": "uint256"
        },
        {
          "internalType": "uint256",
          "name": "_collDecimals",
          "type": "uint256"
        },
        {
          "internalType": "uint256",
          "name": "_totalLUSDSupply",
          "type": "uint256"
        }
      ],
      "name": "updateBaseRateFromRedemption",
      "outputs": [
        {
          "internalType": "uint256",
          "name": "",
          "type": "uint256"
        }
      ],
      "stateMutability": "nonpayable",
      "type": "function"
    },
    {
      "inputs": [
        {
          "internalType": "address",
          "name": "_borrower",
          "type": "address"
        },
        {
          "internalType": "address",
          "name": "_collateral",
          "type": "address"
        },
        {
          "internalType": "uint256",
          "name": "_newDebt",
          "type": "uint256"
        },
        {
          "internalType": "uint256",
          "name": "_newColl",
          "type": "uint256"
        }
      ],
      "name": "updateDebtAndCollAndStakesPostRedemption",
      "outputs": [],
      "stateMutability": "nonpayable",
      "type": "function"
    },
    {
      "inputs": [
        {
          "internalType": "address",
          "name": "_borrower",
          "type": "address"
        },
        {
          "internalType": "address",
          "name": "_collateral",
          "type": "address"
        }
      ],
      "name": "updateStakeAndTotalStakes",
      "outputs": [
        {
          "internalType": "uint256",
          "name": "",
          "type": "uint256"
        }
      ],
      "stateMutability": "nonpayable",
      "type": "function"
    },
    {
      "inputs": [
        {
          "internalType": "address",
          "name": "_borrower",
          "type": "address"
        },
        {
          "internalType": "address",
          "name": "_collateral",
          "type": "address"
        }
      ],
      "name": "updateTroveRewardSnapshots",
      "outputs": [],
      "stateMutability": "nonpayable",
      "type": "function"
    }
  ],
  "bytecode": "0x608060405234801561001057600080fd5b50600380546001600160a01b03191633179055615f6580620000336000396000f3fe608060405234801561001057600080fd5b506004361061048b5760003560e01c806386b9d81f11610262578063bfce1fd711610151578063dc3fe76f116100ce578063eeb20c6211610092578063eeb20c6214610f97578063f36b242514610fc3578063f3e2c60814610fcb578063f92d3433146105e0578063fb4e863c14610ff9578063fe4b0df6146110275761048b565b8063dc3fe76f14610ed2578063de66583514610f00578063df349ed514610f26578063df4fb9ef14610f4c578063e85b603c14610f7a5761048b565b8063d380a37c11610115578063d380a37c14610dcb578063d5b3563514610dd3578063da15d85414610df0578063db5e732114610e16578063dbe9f91914610ea45761048b565b8063bfce1fd714610d20578063c52861f214610d46578063c7a1bbdb14610d4e578063c7b5548114610d7c578063c93fd44a14610d845761048b565b8063aad64613116101df578063b64500c7116101a3578063b64500c714610c68578063b7f8cf9b14610c8e578063b83f91a214610c96578063bc9b5bd514610c9e578063bed8854b14610ce45761048b565b8063aad6461314610bc0578063ae91875414610bfc578063af3700dc14610c04578063aff5917f14610c2a578063b1eafaab14610c325761048b565b80639e86d0c4116102265780639e86d0c414610b3d578063a1a79bea14610b63578063a20baee61461084b578063a3a6401714610b92578063a9a6363414610b9a5761048b565b806386b9d81f14610a775780638a25363c14610aa55780638a490ebf14610adb5780638da5cb5b14610b0757806390ec230114610b0f5761048b565b8063477d66cf1161037e57806372fe25aa116102fb5780637f258d50116102bf5780637f258d501461096a5780637f551157146109e15780637f7dde4a14610a0d5780638424ce7714610a155780638463b16a14610a415761048b565b806372fe25aa1461084b578063738009e614610853578063741bef1a14610881578063752fd9a1146108895780637c92590f146108b75761048b565b8063614d120911610342578063614d1209146107ba57806361ec893d146107e8578063621117b6146107f0578063631203b01461082657806366ca4a21146108435761048b565b8063477d66cf146107595780634870dd9a1461077657806349fe88581461077e5780635c0ab4de146107aa5780635dba4c4a146107b25761048b565b806328d28b5b1161040c578063305a5369116103d0578063305a5369146106705780633cc742251461069e57806340a44bd1146106a657806340c315d2146106fd57806345978366146107235761048b565b806328d28b5b146105e05780632b11551a146105e85780632dcfca60146105f05780632e86bbd8146106325780632fae77001461063a5761048b565b80631f68f20a116104535780631f68f20a1461054e5780631f7af3c314610556578063240926691461055e57806326f7a0d41461056657806327d04b35146105ba5761048b565b8063048c661d14610490578063071a7541146104b4578063099a676e146104ce5780630e0d7bfe146105185780631bf4355514610546575b600080fd5b61049861105d565b604080516001600160a01b039092168252519081900360200190f35b6104bc61106c565b60408051918252519081900360200190f35b610516600480360360c08110156104e457600080fd5b506001600160a01b03813581169160208101359091169060408101359060608101359060808101359060a00135611071565b005b6104bc6004803603604081101561052e57600080fd5b506001600160a01b0381358116916020013516611146565b6104bc61116c565b6104bc611179565b61049861117f565b6104bc61118e565b6105946004803603604081101561057c57600080fd5b506001600160a01b03813581169160200135166111a1565b604080519485526020850193909352838301919091526060830152519081900360800190f35b6104bc600480360360208110156105d057600080fd5b50356001600160a01b0316611218565b6104bc61132e565b6104bc61133f565b61061e6004803603604081101561060657600080fd5b506001600160a01b0381358116916020013516611351565b604080519115158252519081900360200190f35b6104bc6113d1565b6104bc6004803603606081101561065057600080fd5b506001600160a01b038135811691602081013590911690604001356113dd565b6104bc6004803603604081101561068657600080fd5b506001600160a01b0381358116916020013516611458565b610498611486565b61051660048036036101008110156106bd57600080fd5b506001600160a01b038135811691602081013591604082013581169160608101358216916080820135169060a08101359060c08101359060e00135611495565b6104bc6004803603602081101561071357600080fd5b50356001600160a01b0316611541565b6104bc6004803603606081101561073957600080fd5b506001600160a01b0381358116916020810135909116906040013561155c565b6104bc6004803603602081101561076f57600080fd5b50356115a1565b6104bc6115b4565b6104bc6004803603604081101561079457600080fd5b506001600160a01b0381351690602001356115b9565b610498611641565b610516611650565b6104bc600480360360408110156107d057600080fd5b506001600160a01b03813581169160200135166116b9565b6104bc6116f2565b6105166004803603606081101561080657600080fd5b506001600160a01b038135811691602081013590911690604001356116f7565b6104bc6004803603602081101561083c57600080fd5b503561171a565b6104bc611727565b6104bc611739565b6104bc6004803603604081101561086957600080fd5b506001600160a01b0381358116916020013516611745565b6104986118b0565b6104bc6004803603604081101561089f57600080fd5b506001600160a01b03813581169160200135166118bf565b610516600480360360408110156108cd57600080fd5b6001600160a01b0382351691908101906040810160208201356401000000008111156108f857600080fd5b82018360208201111561090a57600080fd5b8035906020019184602083028401116401000000008311171561092c57600080fd5b919080806020026020016040519081016040528093929190818152602001838360200280828437600092019190915250929550611905945050505050565b6109986004803603604081101561098057600080fd5b506001600160a01b0381358116916020013516611e10565b604051808681526020018581526020018481526020018360048111156109ba57fe5b60ff1681526001600160801b03909216602083015250604080519182900301945092505050f35b610516600480360360408110156109f757600080fd5b506001600160a01b038135169060200135611e55565b610498612156565b61049860048036036040811015610a2b57600080fd5b506001600160a01b038135169060200135612165565b6104bc60048036036060811015610a5757600080fd5b506001600160a01b038135811691602081013590911690604001356121a5565b61051660048036036040811015610a8d57600080fd5b506001600160a01b0381358116916020013516612219565b61051660048036036060811015610abb57600080fd5b506001600160a01b0381358116916020810135909116906040013561227d565b61061e60048036036040811015610af157600080fd5b506001600160a01b0381351690602001356122d7565b6104986123e8565b6104bc60048036036040811015610b2557600080fd5b506001600160a01b03813581169160200135166123f7565b6104bc60048036036020811015610b5357600080fd5b50356001600160a01b03166124a0565b6104bc60048036036080811015610b7957600080fd5b5080359060208101359060408101359060600135612570565b61049861262b565b6104bc60048036036020811015610bb057600080fd5b50356001600160a01b031661263a565b61051660048036036080811015610bd657600080fd5b506001600160a01b0381358116916020810135909116906040810135906060013561264c565b610498612710565b6104bc60048036036020811015610c1a57600080fd5b50356001600160a01b031661271f565b610498612731565b6104bc60048036036060811015610c4857600080fd5b506001600160a01b03813581169160208101359091169060400135612740565b6104bc60048036036020811015610c7e57600080fd5b50356001600160a01b03166127df565b6104986127f1565b610498612800565b610516600480360360a0811015610cb457600080fd5b506001600160a01b038135811691602081013582169160408201359160608101358216916080909101351661280f565b61051660048036036080811015610cfa57600080fd5b506001600160a01b038135811691602081013590911690604081013590606001356128a3565b6104bc60048036036020811015610d3657600080fd5b50356001600160a01b0316612aca565b6104bc612adc565b61051660048036036040811015610d6457600080fd5b506001600160a01b0381358116916020013516612aee565b6104bc612b04565b610db260048036036040811015610d9a57600080fd5b506001600160a01b0381358116916020013516612b10565b6040805192835260208301919091528051918290030190f35b6104bc612b34565b6104bc60048036036020811015610de957600080fd5b5035612b3a565b6104bc60048036036020811015610e0657600080fd5b50356001600160a01b0316612b4d565b61051660048036036101a0811015610e2d57600080fd5b506001600160a01b038135811691602081013582169160408201358116916060810135821691608082013581169160a081013582169160c082013581169160e08101358216916101008201358116916101208101358216916101408201358116916101608101358216916101809091013516612b5f565b6104bc60048036036040811015610eba57600080fd5b506001600160a01b038135811691602001351661311d565b6104bc60048036036040811015610ee857600080fd5b506001600160a01b0381358116916020013516613131565b6104bc60048036036020811015610f1657600080fd5b50356001600160a01b031661315f565b6104bc60048036036020811015610f3c57600080fd5b50356001600160a01b0316613171565b61051660048036036040811015610f6257600080fd5b506001600160a01b0381358116916020013516613183565b6104bc60048036036020811015610f9057600080fd5b50356131a9565b61049860048036036040811015610fad57600080fd5b506001600160a01b0381351690602001356131b6565b6104bc6131eb565b6104bc60048036036040811015610fe157600080fd5b506001600160a01b03813581169160200135166131f8565b6105166004803603604081101561100f57600080fd5b506001600160a01b0381358116916020013516613223565b6104bc6004803603606081101561103d57600080fd5b506001600160a01b03813581169160208101359091169060400135613235565b6006546001600160a01b031681565b600281565b611079613277565b60095460408051632770a7eb60e21b81526001600160a01b0389811660048301526024820187905291519190921691639dc29fac91604480830192600092919082900301818387803b1580156110ce57600080fd5b505af11580156110e2573d6000803e3d6000fd5b5050604080516001600160a01b038916815260208101889052808201879052606081018690526080810185905290517f08b6f1ce3f9ab2722e8ea40c31a3e3a806a41702c5994f29af43dc0c1f2837df93509081900360a0019150a1505050505050565b6000611150613290565b61115a83836132a7565b6001600160801b031690505b92915050565b6804e1003b28d928000081565b600e5481565b600a546001600160a01b031681565b6064670de0b6b3a76400005b0460050281565b6001600160a01b038281166000908152601060209081526040808320938516835292905290812080546001909101549091806111dd8686611745565b91506111e986866118bf565b90506111fb848363ffffffff61334516565b935061120d838263ffffffff61334516565b925092959194509250565b6000805460408051634b14fa8760e01b81526001600160a01b038581166004830152915184939290921691634b14fa8791602480820192602092909190829003018186803b15801561126957600080fd5b505afa15801561127d573d6000803e3d6000fd5b505050506040513d602081101561129357600080fd5b505160015460408051634b14fa8760e01b81526001600160a01b03878116600483015291519394506000939190921691634b14fa87916024808301926020929190829003018186803b1580156112e857600080fd5b505afa1580156112fc573d6000803e3d6000fd5b505050506040513d602081101561131257600080fd5b50519050611326828263ffffffff61334516565b949350505050565b6103e8670de0b6b3a764000061119a565b600061134c600e5461339f565b905090565b600060016001600160a01b0380851660009081526010602090815260408083209387168352929052206003015460ff16600481111561138c57fe5b1461139957506000611166565b506001600160a01b03908116600081815260146020908152604080832054959094168252601681528382209282529190915220541090565b678ac7230489e8000081565b60006113e7613290565b6001600160a01b038085166000908152601060209081526040808320938716835292905290812060010154611422908463ffffffff6133d516565b6001600160a01b0380871660009081526010602090815260408083209389168352929052206001018190559150505b9392505050565b6001600160a01b03918216600090815260106020908152604080832093909416825291909152206001015490565b6001546001600160a01b031681565b600d5460408051635e275a7d60e01b81526001600160a01b038b81166004830152336024830152604482018b90528981166064830152888116608483015287811660a483015260c4820187905260e48201869052610104820185905291519190921691635e275a7d9161012480830192600092919082900301818387803b15801561151f57600080fd5b505af1158015611533573d6000803e3d6000fd5b505050505050505050505050565b6001600160a01b031660009081526017602052604090205490565b6000611566613290565b6001600160a01b038085166000908152601060209081526040808320938716835292905290812060010154611422908463ffffffff61334516565b60006111666115ae611727565b83613417565b60c881565b6005546040805163eb7aac5f60e01b81526001600160a01b03858116600483015291516000938493169163eb7aac5f916024808301926020929190829003018186803b15801561160857600080fd5b505afa15801561161c573d6000803e3d6000fd5b505050506040513d602081101561163257600080fd5b50519050611326848483613435565b6005546001600160a01b031681565b611658613290565b6000611662613466565b9050670de0b6b3a764000081111561167657fe5b600e8190556040805182815290517fc454ee9b76c52f782a256af821b857ca6e125d1e3333bcede402fec2bed9600c9181900360200190a16116b66134b1565b50565b6001600160a01b03808316600090815260106020908152604080832093851683529290529081206003015460ff16600481111561145157fe5b603c81565b6116ff61350d565b611715838383600481111561171057fe5b613539565b505050565b60006111666115ae6131eb565b600061134c611734613466565b613699565b670de0b6b3a764000081565b6001600160a01b038083166000908152601660209081526040808320938516835292815282822060010154601590915291812054909190829061178e908363ffffffff6133d516565b90508015806117d4575060016001600160a01b0380871660009081526010602090815260408083209389168352929052206003015460ff1660048111156117d157fe5b14155b156117e457600092505050611166565b6001600160a01b03808616600090815260106020908152604080832088851680855290835281842060020154600554835163eb7aac5f60e01b8152600481019390935292519095929092169263eb7aac5f92602480840193829003018186803b15801561185057600080fd5b505afa158015611864573d6000803e3d6000fd5b505050506040513d602081101561187a57600080fd5b5051905060006118a4600a83900a611898858763ffffffff6136c016565b9063ffffffff61371916565b98975050505050505050565b6002546001600160a01b031681565b6001600160a01b038083166000908152601660209081526040808320938516835292815282822054601490915291812054909190829061178e908363ffffffff6133d516565b805161191057600080fd5b6000546001546006546001600160a01b03928316929182169116611932615db5565b61193a615dfc565b6005546040805163eb7aac5f60e01b81526001600160a01b038a811660048301529151919092169163eb7aac5f916024808301926020929190829003018186803b15801561198757600080fd5b505afa15801561199b573d6000803e3d6000fd5b505050506040513d60208110156119b157600080fd5b505182526005546040805163453ebeb560e11b81526001600160a01b038a8116600483015291519190921691638a7d7d6a916024808301926020929190829003018186803b158015611a0257600080fd5b505afa158015611a16573d6000803e3d6000fd5b505050506040513d6020811015611a2c57600080fd5b5051602083810191909152600554604080516311e2c60b60e11b81526001600160a01b038b81166004830152915191909216926323c58c169260248082019391829003018186803b158015611a8057600080fd5b505afa158015611a94573d6000803e3d6000fd5b505050506040513d6020811015611aaa57600080fd5b50516040808401919091526002548151635670bcc760e11b81526001600160a01b038a811660048301529251929091169163ace1798e916024808201926020929091908290030181600087803b158015611b0357600080fd5b505af1158015611b17573d6000803e3d6000fd5b505050506040513d6020811015611b2d57600080fd5b50516060830152604080516326fcbc6b60e21b815290516001600160a01b03851691639bf2f1ac916004808301926020929190829003018186803b158015611b7457600080fd5b505afa158015611b88573d6000803e3d6000fd5b505050506040513d6020811015611b9e57600080fd5b50516080830152606082015160208301518351611bbe928a92909161375b565b15801560a0840152611be757611be0858589856060015186608001518b613775565b9050611c05565b611c028585898560600151866040015187608001518c613b44565b90505b6000816020015111611c1657600080fd5b826001600160a01b031663e66667338883608001518460a001516040518463ffffffff1660e01b815260040180846001600160a01b03166001600160a01b031681526020018381526020018281526020019350505050600060405180830381600087803b158015611c8657600080fd5b505af1158015611c9a573d6000803e3d6000fd5b50505050611cb88585898460c001518560e001518760000151613c13565b61010081015115611d3f576008546101008201516040805163715aa61b60e01b81526001600160a01b038b8116600483015293841660248201526044810192909252519187169163715aa61b9160648082019260009290919082900301818387803b158015611d2657600080fd5b505af1158015611d3a573d6000803e3d6000fd5b505050505b611d4e85888360400151613fae565b602081015160c083015261010081015160408201518251611d869291611d7a919063ffffffff6133d516565b9063ffffffff6133d516565b60e0830181905260c083015160408084015160608086015183516001600160a01b038e168152602081019590955284840195909552830152608082019290925290517fa3f221854f649364e9a3bb384dd1ff938482664f4a0eac0f6e39a542f5193bd39181900360a00190a1611e078588338460600151856040015161413b565b50505050505050565b601060209081526000928352604080842090915290825290208054600182015460028301546003909301549192909160ff81169061010090046001600160801b031685565b6000546001546006546001600160a01b03928316929182169116611e77615db5565b611e7f615dfc565b6005546040805163453ebeb560e11b81526001600160a01b038a8116600483015291519190921691638a7d7d6a916024808301926020929190829003018186803b158015611ecc57600080fd5b505afa158015611ee0573d6000803e3d6000fd5b505050506040513d6020811015611ef657600080fd5b50516020838101919091526005546040805163eb7aac5f60e01b81526001600160a01b038b811660048301529151919092169263eb7aac5f9260248082019391829003018186803b158015611f4a57600080fd5b505afa158015611f5e573d6000803e3d6000fd5b505050506040513d6020811015611f7457600080fd5b50518252600554604080516311e2c60b60e11b81526001600160a01b038a81166004830152915191909216916323c58c16916024808301926020929190829003018186803b158015611fc557600080fd5b505afa158015611fd9573d6000803e3d6000fd5b505050506040513d6020811015611fef57600080fd5b50516040808401919091526002548151635670bcc760e11b81526001600160a01b038a811660048301529251929091169163ace1798e916024808201926020929091908290030181600087803b15801561204857600080fd5b505af115801561205c573d6000803e3d6000fd5b505050506040513d602081101561207257600080fd5b50516060830152604080516326fcbc6b60e21b815290516001600160a01b03851691639bf2f1ac916004808301926020929190829003018186803b1580156120b957600080fd5b505afa1580156120cd573d6000803e3d6000fd5b505050506040513d60208110156120e357600080fd5b50516080830152606082015160208301518351612103928a92909161375b565b15801560a084015261213b57611be08585600c60009054906101000a90046001600160a01b03168a866060015187608001518c614221565b611c028585898560600151866040015187608001518c61474c565b6000546001600160a01b031681565b6001600160a01b038216600090815260176020526040812080548390811061218957fe5b6000918252602090912001546001600160a01b03169392505050565b60006121af613290565b6001600160a01b0380851660009081526010602090815260408083209387168352929052908120546121e7908463ffffffff6133d516565b6001600160a01b0380871660009081526010602090815260408083209389168352929052208190559150509392505050565b6122238282614889565b60408051600180825281830190925260609160208083019080368337019050509050828160008151811061225357fe5b60200260200101906001600160a01b031690816001600160a01b0316815250506117158282611905565b612285613290565b80600481111561229157fe5b6001600160a01b038085166000908152601060209081526040808320938716835292905220600301805460ff191660018360048111156122cd57fe5b0217905550505050565b6005546040805163453ebeb560e11b81526001600160a01b038581166004830152915160009384931691638a7d7d6a916024808301926020929190829003018186803b15801561232657600080fd5b505afa15801561233a573d6000803e3d6000fd5b505050506040513d602081101561235057600080fd5b50516005546040805163eb7aac5f60e01b81526001600160a01b0388811660048301529151939450600093919092169163eb7aac5f916024808301926020929190829003018186803b1580156123a557600080fd5b505afa1580156123b9573d6000803e3d6000fd5b505050506040513d60208110156123cf57600080fd5b505190506123df8585848461375b565b95945050505050565b6003546001600160a01b031681565b600080600061240685856148cc565b6005546040805163eb7aac5f60e01b81526001600160a01b038981166004830152915194965092945060009391169163eb7aac5f916024808301926020929190829003018186803b15801561245a57600080fd5b505afa15801561246e573d6000803e3d6000fd5b505050506040513d602081101561248457600080fd5b505190506000612495848484614973565b979650505050505050565b6000805460408051639b56d6c960e01b81526001600160a01b038581166004830152915184939290921691639b56d6c991602480820192602092909190829003018186803b1580156124f157600080fd5b505afa158015612505573d6000803e3d6000fd5b505050506040513d602081101561251b57600080fd5b505160015460408051639b56d6c960e01b81526001600160a01b03878116600483015291519394506000939190921691639b56d6c9916024808301926020929190829003018186803b1580156112e857600080fd5b600061257a613277565b6000612584613466565b905060006125a6846118988861259a8b8a6149b7565b9063ffffffff6136c016565b905060006125cb6125be83600263ffffffff61371916565b849063ffffffff61334516565b90506125df81670de0b6b3a76400006149ff565b9050600081116125eb57fe5b600e8190556040805182815290517fc454ee9b76c52f782a256af821b857ca6e125d1e3333bcede402fec2bed9600c9181900360200190a16124956134b1565b600b546001600160a01b031681565b60156020526000908152604090205481565b612654613277565b6001600160a01b03848116600090815260106020908152604080832093871683529290522082815560010181905561268c8484614a15565b506001600160a01b03808516600081815260106020908152604080832094881680845294825291829020600201548251948552908401869052908301849052606083018190529091600080516020615f108339815191529186918691869160039060808101825b60ff1681526020019550505050505060405180910390a250505050565b600c546001600160a01b031681565b60126020526000908152604090205481565b600d546001600160a01b031681565b600080600061274f86866148cc565b6005546040805163eb7aac5f60e01b81526001600160a01b038a81166004830152915194965092945060009391169163eb7aac5f916024808301926020929190829003018186803b1580156127a357600080fd5b505afa1580156127b7573d6000803e3d6000fd5b505050506040513d60208110156127cd57600080fd5b5051905060006118a484848885614af9565b60146020526000908152604090205481565b6004546001600160a01b031681565b6009546001600160a01b031681565b612817613277565b600c546040805163bc9b5bd560e01b81526001600160a01b038881166004830152878116602483015260448201879052858116606483015284811660848301529151919092169163bc9b5bd59160a480830192600092919082900301818387803b15801561288457600080fd5b505af1158015612898573d6000803e3d6000fd5b505050505050505050565b6128ab613277565b60095460075460408051632770a7eb60e21b81526001600160a01b0392831660048201526024810186905290519190921691639dc29fac91604480830192600092919082900301818387803b15801561290357600080fd5b505af1158015612917573d6000803e3d6000fd5b50506000805460408051633aacc81560e01b81526001600160a01b038981166004830152602482018990529151919092169450633aacc81593506044808301939282900301818387803b15801561296d57600080fd5b505af1158015612981573d6000803e3d6000fd5b505060085460408051633fa5152d60e21b81526001600160a01b038981166004830152888116602483015260448201879052915191909216935063fe9454b49250606480830192600092919082900301818387803b1580156129e257600080fd5b505af11580156129f6573d6000803e3d6000fd5b5050600080546008546040805163715aa61b60e01b81526001600160a01b038a81166004830152928316602482015260448101889052905191909216945063715aa61b93506064808301939282900301818387803b158015612a5757600080fd5b505af1158015612a6b573d6000803e3d6000fd5b50505050836001600160a01b0316600080516020615f10833981519152846000806000600360405180866001600160a01b03166001600160a01b031681526020018581526020018481526020018381526020018260038111156126f357fe5b60186020526000908152604090205481565b600061134c612ae9613466565b61339f565b612af6613290565b612b008282614b38565b5050565b670ddd4b8c6c7d70d881565b60166020908152600092835260408084209091529082529020805460019091015482565b600f5481565b6000611166612b47612adc565b83614bc0565b60196020526000908152604090205481565b6003546001600160a01b03163314612b7657600080fd5b612b7f8d614bed565b612b888c614bed565b612b918b614bed565b612b9a8a614bed565b612ba389614bed565b612bac88614bed565b612bb587614bed565b612bbe86614bed565b612bc785614bed565b612bd084614bed565b612bd983614bed565b612be282614bed565b612beb81614bed565b8c600460006101000a8154816001600160a01b0302191690836001600160a01b031602179055508b600560006101000a8154816001600160a01b0302191690836001600160a01b031602179055508a6000806101000a8154816001600160a01b0302191690836001600160a01b0316021790555089600160006101000a8154816001600160a01b0302191690836001600160a01b0316021790555088600660006101000a8154816001600160a01b0302191690836001600160a01b0316021790555087600760006101000a8154816001600160a01b0302191690836001600160a01b0316021790555086600860006101000a8154816001600160a01b0302191690836001600160a01b0316021790555085600260006101000a8154816001600160a01b0302191690836001600160a01b0316021790555084600960006101000a8154816001600160a01b0302191690836001600160a01b0316021790555083600c60006101000a8154816001600160a01b0302191690836001600160a01b0316021790555082600a60006101000a8154816001600160a01b0302191690836001600160a01b0316021790555081600b60006101000a8154816001600160a01b0302191690836001600160a01b0316021790555080600d60006101000a8154816001600160a01b0302191690836001600160a01b031602179055507f3ca631ffcd2a9b5d9ae18543fc82f58eb4ca33af9e6ab01b7a8e95331e6ed9858d60405180826001600160a01b03166001600160a01b0316815260200191505060405180910390a1604080516001600160a01b038e16815290517f6a69409f44477d8556c3c8040edc75d9bc1b3dee7846f6045c0b99556fe7bc919181900360200190a1604080516001600160a01b038d16815290517f78f058b189175430c48dc02699e3a0031ea4ff781536dc2fab847de4babdd8829181900360200190a1604080516001600160a01b038c16815290517f5ee0cae2f063ed938bb55046f6a932fb6ae792bf43624806bb90abe68a50be9b9181900360200190a1604080516001600160a01b038b16815290517f82966d27eea39b038ee0fa30cd16532bb24f6e65d31cb58fb227aa5766cdcc7f9181900360200190a1604080516001600160a01b038a16815290517fcfb07d791fcafc032b35837b50eb84b74df518cf4cc287e8084f47630fa70fa09181900360200190a1604080516001600160a01b038916815290517fe67f36a6e961157d6eff83b91f3af5a62131ceb6f04954ef74f51c1c05e7f88d9181900360200190a1604080516001600160a01b038816815290517f8c537274438aa850a330284665d81a85dd38267d09e4050d416bfc94142db2649181900360200190a1604080516001600160a01b038716815290517f227eec0ec317af6ab1a9587ffa1c84332522eb4c583a908f89babc05f8f339bd9181900360200190a1604080516001600160a01b038616815290517f65f4cf077bc01e4742eb5ad98326f6e95b63548ea24b17f8d5e823111fe788009181900360200190a1604080516001600160a01b038516815290517f2ac6e99201ddc1b6eac6f8f28662d1ecafee131f6eb98c29de54528a9888a7d19181900360200190a1604080516001600160a01b038416815290517f756ebc192164c295bba134b5aacd72cc7aff8098a670d1f0a5f6b3a0b4ce67079181900360200190a1604080516001600160a01b038316815290517f60fc0872daa3654ed011fd931f5591def43e40ef6dd33b860b9307056e7da9c19181900360200190a15050600380546001600160a01b03191690555050505050505050505050565b6000613127613290565b6114518383614a15565b6001600160a01b03918216600090815260106020908152604080832093909416825291909152206002015490565b60136020526000908152604090205481565b60116020526000908152604090205481565b61318b61350d565b600054600154612b00916001600160a01b0390811691168484614c9c565b6000611166612b4761133f565b601760205281600052604060002081815481106131cf57fe5b6000918252602090912001546001600160a01b03169150829050565b600061134c600e54613699565b6001600160a01b03918216600090815260106020908152604080832093909416825291909152205490565b61322b61350d565b612b008282614df7565b600061323f613290565b6001600160a01b0380851660009081526010602090815260408083209387168352929052908120546121e7908463ffffffff61334516565b600d546001600160a01b0316331461328e57600080fd5b565b6004546001600160a01b0316331461328e57600080fd5b6001600160a01b03818116600081815260176020908152604082208054600180820183558285529284200180546001600160a01b0319169588169590951790945591815291546132f6916133d5565b6001600160a01b03938416600090815260106020908152604080832095909616825293909352929091206003018054610100600160881b0319166101006001600160801b038516021790555090565b600082820183811015611451576040805162461bcd60e51b815260206004820152601b60248201527f536166654d6174683a206164646974696f6e206f766572666c6f770000000000604482015290519081900360640190fd5b60006111666133c7836103e8670de0b6b3a76400005b0460050261334590919063ffffffff16565b670de0b6b3a76400006149ff565b600061145183836040518060400160405280601e81526020017f536166654d6174683a207375627472616374696f6e206f766572666c6f770000815250614e78565b6000611451670de0b6b3a7640000611898858563ffffffff6136c016565b600080613441856124a0565b9050600061344e86611218565b905061345c82828787614af9565b9695505050505050565b600080613471614f0f565b90506000613487670ddd4b8c6c7d70d883614f2b565b90506134aa670de0b6b3a764000061189883600e546136c090919063ffffffff16565b9250505090565b60006134c8600f54426133d590919063ffffffff16565b9050603c81106116b65742600f81905560408051918252517f860f8d2f0c74dd487e89e2883e3b25b8159ce1e1b3433a291cba7b82c508f3bc9181900360200190a150565b6004546001600160a01b03163314806135305750600d546001600160a01b031633145b61328e57600080fd5b600081600481111561354757fe5b141580156135615750600181600481111561355e57fe5b14155b61356757fe5b6001600160a01b03821660009081526017602052604090205461358a8184614fd6565b6001600160a01b038085166000908152601060209081526040808320938716835292905220600301805483919060ff191660018360048111156135c957fe5b02179055506001600160a01b038481166000818152601060209081526040808320948816808452948252808320600180820185905590849055938352601682528083209483529390529182208281550155613625848483615069565b600c5460408051637f7c149160e01b81526001600160a01b038681166004830152878116602483015291519190921691637f7c149191604480830192600092919082900301818387803b15801561367b57600080fd5b505af115801561368f573d6000803e3d6000fd5b5050505050505050565b60006111666136b3836103e8670de0b6b3a76400006133b5565b66b1a2bc2ec500006149ff565b6000826136cf57506000611166565b828202828482816136dc57fe5b04146114515760405162461bcd60e51b8152600401808060200182810382526021815260200180615eef6021913960400191505060405180910390fd5b600061145183836040518060400160405280601a81526020017f536166654d6174683a206469766973696f6e206279207a65726f00000000000081525061527b565b600080613769868685613435565b90931195945050505050565b61377d615dfc565b613785615e48565b6005546040805163eb7aac5f60e01b81526001600160a01b0389811660048301529151919092169163eb7aac5f916024808301926020929190829003018186803b1580156137d257600080fd5b505afa1580156137e6573d6000803e3d6000fd5b505050506040513d60208110156137fc57600080fd5b50516101008201526005546040805163453ebeb560e11b81526001600160a01b03898116600483015291519190921691638a7d7d6a916024808301926020929190829003018186803b15801561385157600080fd5b505afa158015613865573d6000803e3d6000fd5b505050506040513d602081101561387b57600080fd5b5051610120820152600554604080516311e2c60b60e11b81526001600160a01b038981166004830152915191909216916323c58c16916024808301926020929190829003018186803b1580156138d057600080fd5b505afa1580156138e4573d6000803e3d6000fd5b505050506040513d60208110156138fa57600080fd5b505161014082015261390a615dfc565b848252600060a083015261391d87611218565b60c083015261392b876124a0565b60e0830152600060208301525b835182602001511015613b38578382602001518151811061395557fe5b6020908102919091018101516001600160a01b03908116608085018190526000908152601083526040808220928b1682529190925290206003015460019060ff1660048111156139a157fe5b146139ab57613b28565b6139ba82608001518888612740565b604083015260a0820151613acc578161014001518260400151101580156139e057508151155b156139ea57613b28565b6000613a058360e001518460c0015189866101000151614af9565b9050613a298a8a8a866080015187604001518860000151878e8b61014001516152e0565b60808101518451919350613a43919063ffffffff6133d516565b8352608082015160c0840151613a5e9163ffffffff6133d516565b60c0840152610100820151604083015160a084015160e0860151613a909392611d7a929091839163ffffffff6133d516565b60e0840152613a9f8483615788565b9350613ac08360e001518460c001518986610100015187610120015161589f565b1560a084015250613b28565b8160a001518015613ae557508161014001518260400151105b15613b2857613aff898989856080015186600001516158bb565b60808101518351919250613b19919063ffffffff6133d516565b8252613b258382615788565b92505b6020820180516001019052613938565b50509695505050505050565b613b4c615dfc565b613b54615e48565b613b5c615dfc565b848252600060208301525b835182602001511015613c065783826020015181518110613b8457fe5b60209081029190910101516001600160a01b031660808301819052613baa908989612740565b60408301819052861115613bf657613bcd8a8a8a856080015186600001516158bb565b60808101518351919250613be7919063ffffffff6133d516565b8252613bf38382615788565b92505b6020820180516001019052613b67565b5050979650505050505050565b82613c1d57613fa6565b6001600160a01b038416600090815260186020526040812054613c5a90613c4e85600a86900a63ffffffff6136c016565b9063ffffffff61334516565b6001600160a01b03861660009081526019602052604081205491925090613c8f90613c4e87600a87900a63ffffffff6136c016565b6001600160a01b03871660009081526011602052604081205491925090613cbd90849063ffffffff61371916565b6001600160a01b03881660009081526011602052604081205491925090613ceb90849063ffffffff61371916565b6001600160a01b038916600090815260116020526040902054909150613d2990613d1c90849063ffffffff6136c016565b859063ffffffff6133d516565b6001600160a01b038916600090815260186020908152604080832093909355601190522054613d7090613d6390839063ffffffff6136c016565b849063ffffffff6133d516565b6001600160a01b038916600090815260196020908152604080832093909355601490522054613da5908363ffffffff61334516565b6001600160a01b038916600090815260146020908152604080832093909355601590522054613dda908263ffffffff61334516565b6001600160a01b038916600081815260156020818152604080842086905560148252928390205491815282519384528301528181019290925290517f6f63d00bdf85957664165c9e20900aabd5a17378cb5c0955ce760e48a6ae48c79181900360600190a1896001600160a01b0316633aacc81589896040518363ffffffff1660e01b815260040180836001600160a01b03166001600160a01b0316815260200182815260200192505050600060405180830381600087803b158015613e9f57600080fd5b505af1158015613eb3573d6000803e3d6000fd5b50505050886001600160a01b0316635fc7b5e889896040518363ffffffff1660e01b815260040180836001600160a01b03166001600160a01b0316815260200182815260200192505050600060405180830381600087803b158015613f1757600080fd5b505af1158015613f2b573d6000803e3d6000fd5b50506040805163715aa61b60e01b81526001600160a01b038c811660048301528d81166024830152604482018b90529151918e16935063715aa61b925060648082019260009290919082900301818387803b158015613f8957600080fd5b505af1158015613f9d573d6000803e3d6000fd5b50505050505050505b505050505050565b6001600160a01b0380831660008181526011602090815260408083205460128352818420558051639b56d6c960e01b81526004810194909452519193871692639b56d6c99260248083019392829003018186803b15801561400e57600080fd5b505afa158015614022573d6000803e3d6000fd5b505050506040513d602081101561403857600080fd5b505160015460408051639b56d6c960e01b81526001600160a01b03878116600483015291519394506000939190921691639b56d6c9916024808301926020929190829003018186803b15801561408d57600080fd5b505afa1580156140a1573d6000803e3d6000fd5b505050506040513d60208110156140b757600080fd5b505190506140cf81613c4e848663ffffffff6133d516565b6001600160a01b038516600081815260136020818152604080842086905560128252928390205491815282519384528301528181019290925290517f9ea5863ffc9d961d6c6bb67235c553dfbdbcc8fe12671cdba8887a50501efbaf9181900360600190a15050505050565b81156141ba5760095460075460408051631062c15f60e11b81526001600160a01b039283166004820152868316602482015260448101869052905191909216916320c582be91606480830192600092919082900301818387803b1580156141a157600080fd5b505af11580156141b5573d6000803e3d6000fd5b505050505b801561421a576040805163715aa61b60e01b81526001600160a01b03868116600483015285811660248301526044820184905291519187169163715aa61b9160648082019260009290919082900301818387803b15801561288457600080fd5b5050505050565b614229615dfc565b614231615e48565b6005546040805163eb7aac5f60e01b81526001600160a01b0389811660048301529151919092169163eb7aac5f916024808301926020929190829003018186803b15801561427e57600080fd5b505afa158015614292573d6000803e3d6000fd5b505050506040513d60208110156142a857600080fd5b50516101008201526005546040805163453ebeb560e11b81526001600160a01b03898116600483015291519190921691638a7d7d6a916024808301926020929190829003018186803b1580156142fd57600080fd5b505afa158015614311573d6000803e3d6000fd5b505050506040513d602081101561432757600080fd5b5051610120820152600554604080516311e2c60b60e11b81526001600160a01b038981166004830152915191909216916323c58c16916024808301926020929190829003018186803b15801561437c57600080fd5b505afa158015614390573d6000803e3d6000fd5b505050506040513d60208110156143a657600080fd5b50516101408201526143b6615dfc565b848252600060a08301526143c987611218565b60c08301526143d7876124a0565b60e083015260408051637608271560e01b81526001600160a01b0389811660048301529151918a1691637608271591602480820192602092909190829003018186803b15801561442657600080fd5b505afa15801561443a573d6000803e3d6000fd5b505050506040513d602081101561445057600080fd5b50516001600160a01b03908116608084015260408051631bdb4c8d60e01b8152898316600482015290516000928b1691631bdb4c8d916024808301926020929190829003018186803b1580156144a557600080fd5b505afa1580156144b9573d6000803e3d6000fd5b505050506040513d60208110156144cf57600080fd5b50516000602085015290505b8483602001511080156145045750806001600160a01b031683608001516001600160a01b031614155b1561473e576080830151604080516239c6e160ea1b81526001600160a01b038b81166004830152928316602482015290516000928c169163e71b8400916044808301926020929190829003018186803b15801561456057600080fd5b505afa158015614574573d6000803e3d6000fd5b505050506040513d602081101561458a57600080fd5b5051608085015190915061459f908a8a612740565b604085015260a08401516146ba578361014001518460400151101580156145c557508351155b156145d0575061473e565b6145e98460e001518560c001518a876101000151614af9565b8460600181815250506146188c8c8b8760800151886040015189600001518a606001518f8c61014001516152e0565b60808101518551919450614632919063ffffffff6133d516565b8452608083015160c085015161464d9163ffffffff6133d516565b60c0850152610100830151604084015160a085015160e087015161467f9392611d7a929091839163ffffffff6133d516565b60e085015261468e8584615788565b94506146af8460e001518560c001518a87610100015188610120015161589f565b1560a0850152614720565b8360a0015180156146d357508361014001518460400151105b1561471a576146ed8c8c8b876080015188600001516158bb565b60808101518551919450614707919063ffffffff6133d516565b84526147138584615788565b9450614720565b5061473e565b6001600160a01b0316608084015260208301805160010190526144db565b505050979650505050505050565b614754615dfc565b61475c615e48565b614764615dfc565b600c54858352600060208401526001600160a01b03165b848360200151101561473e57806001600160a01b031663760827158a6040518263ffffffff1660e01b815260040180826001600160a01b03166001600160a01b0316815260200191505060206040518083038186803b1580156147dd57600080fd5b505afa1580156147f1573d6000803e3d6000fd5b505050506040513d602081101561480757600080fd5b50516001600160a01b031660808401819052614824908a8a612740565b60408401819052871115614874576148478b8b8b866080015187600001516158bb565b60808101518451919350614861919063ffffffff6133d516565b835261486d8483615788565b9350614879565b61473e565b602083018051600101905261477b565b60016001600160a01b0380841660009081526010602090815260408083209386168352929052206003015460ff1660048111156148c257fe5b14612b0057600080fd5b60008060006148db85856118bf565b905060006148e98686611745565b6001600160a01b038088166000908152601060209081526040808320938a1683529290529081206001015491925090614928908463ffffffff61334516565b6001600160a01b038089166000908152601060209081526040808320938b1683529290529081205491925090614964908463ffffffff61334516565b91989197509095505050505050565b600082156149ae57600061498785846149b7565b90506149a6846118988368056bc75e2d6310000063ffffffff6136c016565b915050611451565b50600019611451565b8160128211156149df576149d8816011198401600a0a63ffffffff61371916565b9050611166565b601282101561116657611451816012849003600a0a63ffffffff6136c016565b6000818310614a0e5781611451565b5090919050565b6001600160a01b0380831660009081526010602090815260408083209385168352929052908120600101548190614a4d908490615a62565b6001600160a01b038581166000908152601060209081526040808320938816835292815282822060020180549085905560119091529190205491925090614a9a908390613c4e90846133d5565b6001600160a01b038516600081815260116020908152604091829020849055815192835282019290925281517fd5630907014190fb9340da1cf427c96f094dabfbf73d25506e4b0cda9e3a4ca0929181900390910190a1509392505050565b60008315614b2f576000614b0d86846149b7565b90506000614b2586611898848863ffffffff6136c016565b9250611326915050565b50600019611326565b6001600160a01b03818116600081815260146020908152604080832080549588168452601683528184208585528352818420958655601583529281902054600190950185905591548251938452908301528181019290925290517fc3d426bcfc672bd74f6fae61c225e06f556f80dad48af8a4631b295030a7ad3d9181900360600190a15050565b600080614bdf670de0b6b3a7640000611898868663ffffffff6136c016565b905082811061145157600080fd5b6001600160a01b038116614c48576040805162461bcd60e51b815260206004820152601e60248201527f4163636f756e742063616e6e6f74206265207a65726f20616464726573730000604482015290519081900360640190fd5b803b80612b00576040805162461bcd60e51b815260206004820181905260248201527f4163636f756e7420636f64652073697a652063616e6e6f74206265207a65726f604482015290519081900360640190fd5b614ca68282611351565b15614df157614cb58282614889565b6000614cc183836118bf565b90506000614ccf8484611745565b6001600160a01b03808616600090815260106020908152604080832093881683529290522060010154909150614d0b908363ffffffff61334516565b6001600160a01b038581166000908152601060209081526040808320938816835292905220600181019190915554614d439082613345565b6001600160a01b03808616600090815260106020908152604080832093881683529290522055614d738484614b38565b614d808686858486615ae2565b6001600160a01b038481166000818152601060209081526040808320948816808452948252808320805460018201546002909201548351978852938701528582015260608501919091526080840191909152519091600080516020615f10833981519152919081900360a00190a250505b50505050565b6001600160a01b038083166000908152601060209081526040808320938516835292815282822060020154601190915291902054614e3b908263ffffffff6133d516565b6001600160a01b03928316600081815260116020908152604080832094909455959094168452601085528184209084529093525090812060020155565b60008184841115614f075760405162461bcd60e51b81526004018080602001828103825283818151815260200191508051906020019080838360005b83811015614ecc578181015183820152602001614eb4565b50505050905090810190601f168015614ef95780820380516001836020036101000a031916815260200191505b509250505060405180910390fd5b505050900390565b600061134c603c611898600f54426133d590919063ffffffff16565b6000631f540500821115614f4157631f54050091505b81614f555750670de0b6b3a7640000611166565b670de0b6b3a764000083835b6001811115614fcc5760028106614f9657614f7c8283615c32565b9150614f8f81600263ffffffff61371916565b9050614fc7565b614fa08284615c32565b9250614fac8283615c32565b9150614fc4600261189883600163ffffffff6133d516565b90505b614f61565b61345c8284615c32565b6001821180156150605750600c546040805163504f167160e01b81526001600160a01b0384811660048301529151600193929092169163504f167191602480820192602092909190829003018186803b15801561503257600080fd5b505afa158015615046573d6000803e3d6000fd5b505050506040513d602081101561505c57600080fd5b5051115b612b0057600080fd5b6001600160a01b03808416600090815260106020908152604080832093861683529290529081206003015460ff16908160048111156150a457fe5b141580156150be575060018160048111156150bb57fe5b14155b6150c457fe5b6001600160a01b03848116600090815260106020908152604080832093871683529290529081206003015461010090046001600160801b031690839061510b8260016133d5565b905080836001600160801b0316111561512057fe5b6001600160a01b038616600090815260176020526040812080548390811061514457fe5b60009182526020808320909101546001600160a01b038a811684526017909252604090922080549190921692508291906001600160801b03871690811061518757fe5b600091825260208083209190910180546001600160a01b0319166001600160a01b03948516179055838316808352601082526040808420948c16808552948352928390206003018054610100600160881b0319166101006001600160801b038b169081029190911790915583519182529181019390935282820152517f596c08527bf037a7d30b01f257c1ba24ebd2a664cde69f8315accfee1199c668916060908290030190a16001600160a01b038716600090815260176020526040902080548061524f57fe5b600082815260209020810160001990810180546001600160a01b03191690550190555050505050505050565b600081836152ca5760405162461bcd60e51b8152602060048201818152835160248401528351909283926044909101919085019080838360008315614ecc578181015183820152602001614eb4565b5060008385816152d657fe5b0495945050505050565b6152e8615dfc565b6152f0615ead565b6001600160a01b038916600090815260176020526040902054600110615316575061577b565b615320888a6111a1565b6040850152602084810191909152840181905290835261533f90615c65565b60408301819052678ac7230489e80000606084015260208301516153689163ffffffff6133d516565b8152670de0b6b3a764000087116154a75761538e8b8b8b84602001518560400151615ae2565b615398888a614df7565b60006080830181905260a0830152815160c0830152805160e08301526153c0888a6003613539565b876001600160a01b0316600080516020615ecf8339815191528a84600001518560200151600260405180856001600160a01b03166001600160a01b0316815260200184815260200183815260200182600381111561541a57fe5b60ff16815260200194505050505060405180910390a2876001600160a01b0316600080516020615f108339815191528a6000806000600260405180866001600160a01b03166001600160a01b0316815260200185815260200184815260200183815260200182600381111561548b57fe5b60ff1681526020019550505050505060405180910390a2615779565b670de0b6b3a7640000871180156154bd57508287105b15615510576154d78b8b8b84602001518560400151615ae2565b6154e1888a614df7565b815181516154f0919088615c6c565b60e086015260c085015260a084015260808301526153c0888a6003613539565b82871015801561551f57508487105b801561552c575081518610155b15615768576155468b8b8b84602001518560400151615ae2565b8561554d57fe5b615557888a614df7565b6005546040805163eb7aac5f60e01b81526001600160a01b038c811660048301529151600093929092169163eb7aac5f91602480820192602092909190829003018186803b1580156155a857600080fd5b505afa1580156155bc573d6000803e3d6000fd5b505050506040513d60208110156155d257600080fd5b5051835160208501519192506155ea91878785615cd8565b92506155f8898b6003613539565b610100830151156156805760085461010084015160408051633fa5152d60e21b81526001600160a01b038d811660048301528e8116602483015260448201939093529051919092169163fe9454b491606480830192600092919082900301818387803b15801561566757600080fd5b505af115801561567b573d6000803e3d6000fd5b505050505b886001600160a01b0316600080516020615ecf8339815191528b85600001518660a00151600260405180856001600160a01b03166001600160a01b031681526020018481526020018381526020018260038111156156da57fe5b60ff16815260200194505050505060405180910390a2886001600160a01b0316600080516020615f108339815191528b6000806000600260405180866001600160a01b03166001600160a01b0316815260200185815260200184815260200183815260200182600381111561574b57fe5b60ff1681526020019550505050505060405180910390a250615779565b615770615dfc565b915061577b9050565b505b9998505050505050505050565b615790615dfc565b604080830151908401516157a99163ffffffff61334516565b6040820152606080830151908401516157c79163ffffffff61334516565b6060820152815160208401516157e29163ffffffff61334516565b60208083019190915282015183516157ff9163ffffffff61334516565b81526080808301519084015161581a9163ffffffff61334516565b608082015260a080830151908401516158389163ffffffff61334516565b60a082015260c080830151908401516158569163ffffffff61334516565b60c082015260e080830151908401516158749163ffffffff61334516565b60e082015261010080830151908401516158939163ffffffff61334516565b61010082015292915050565b6000806158ae87878787614af9565b9092119695505050505050565b6158c3615dfc565b6158cb615ead565b6158d584866111a1565b6040850190815260208581019283528601929092529184529051905161590091899189918991615ae2565b61590a8486614df7565b6159178260200151615c65565b60408301819052678ac7230489e8000060608401526020830151600091615944919063ffffffff6133d516565b905061595583600001518286615c6c565b60e087015260c086015260a0850152608084015261597585876003613539565b846001600160a01b0316600080516020615ecf8339815191528785600001518660200151600160405180856001600160a01b03166001600160a01b031681526020018481526020018381526020018260038111156159cf57fe5b60ff16815260200194505050505060405180910390a2846001600160a01b0316600080516020615f10833981519152876000806000600160405180866001600160a01b03166001600160a01b03168152602001858152602001848152602001838152602001826003811115615a4057fe5b60ff1681526020019550505050505060405180910390a2505095945050505050565b6001600160a01b0382166000908152601360205260408120548190615a88575081611451565b6001600160a01b038416600090815260126020526040902054615aa757fe5b6001600160a01b038416600090815260136020908152604080832054601290925290912054611326919061189890869063ffffffff6136c016565b836001600160a01b0316633aacc81584846040518363ffffffff1660e01b815260040180836001600160a01b03166001600160a01b0316815260200182815260200192505050600060405180830381600087803b158015615b4257600080fd5b505af1158015615b56573d6000803e3d6000fd5b50505050846001600160a01b0316635fc7b5e884846040518363ffffffff1660e01b815260040180836001600160a01b03166001600160a01b0316815260200182815260200192505050600060405180830381600087803b158015615bba57600080fd5b505af1158015615bce573d6000803e3d6000fd5b50505050836001600160a01b03166334e5396284836040518363ffffffff1660e01b815260040180836001600160a01b03166001600160a01b0316815260200182815260200192505050600060405180830381600087803b15801561288457600080fd5b600080615c45848463ffffffff6136c016565b9050611326670de0b6b3a7640000611898836706f05b59d3b20000613345565b60c8900490565b60008080808415615cc257615c8187866149ff565b9350615c9787611898888763ffffffff6136c016565b9250615ca9878563ffffffff6133d516565b9150615cbb868463ffffffff6133d516565b9050615ccf565b5060009250829150859050845b93509350935093565b615ce0615dfc565b858152602081018590526000615d0085611898898763ffffffff6136c016565b90506012831015615d2957615d22816012859003600a0a63ffffffff61371916565b9050615d4c565b6012831115615d4c57615d49816011198501600a0a63ffffffff6136c016565b90505b615d5581615c65565b60408301819052678ac7230489e80000606084015260808301889052615d8290829063ffffffff6133d516565b60a0830152615d97868263ffffffff6133d516565b61010083015250600060c0820181905260e082015295945050505050565b604051806101000160405280600081526020016000815260200160008152602001600081526020016000815260200160001515815260200160008152602001600081525090565b6040518061012001604052806000815260200160008152602001600081526020016000815260200160008152602001600081526020016000815260200160008152602001600081525090565b6040518061016001604052806000815260200160008152602001600081526020016000815260200160006001600160a01b0316815260200160001515815260200160008152602001600081526020016000815260200160008152602001600081525090565b6040518060600160405280600081526020016000815260200160008152509056fe44b1a33c624451b36e8d636828145aa4eb39bd6cc5e2cf623bb270d3abc38c88536166654d6174683a206d756c7469706c69636174696f6e206f766572666c6f77100d2512a463b515ea8d03a69afbcc791f1bd9139132e820631bec236f524ec1a26469706673582212208a9cf765c967745d47555df6b420bacf0968a88542f46a69fffa9df166cd22c364736f6c634300060b0033",
  "linkReferences": {},
  "deployedLinkReferences": {}
}