{
  "_format": "hh-sol-artifact-1",
  "contractName": "Destructible",
  "sourceName": "contracts/TestContracts/Destructible.sol",
  "abi": [
    {
      "inputs": [
        {
          "internalType": "address payable",
          "name": "_receiver",
          "type": "address"
        }
      ],
      "name": "destruct",
      "outputs": [],
      "stateMutability": "nonpayable",
      "type": "function"
    },
    {
      "stateMutability": "payable",
      "type": "receive"
    }
  ],
  "bytecode": "0x6080604052348015600f57600080fd5b50609d8061001e6000396000f3fe608060405260043610601f5760003560e01c80631beb261514602a576025565b36602557005b600080fd5b348015603557600080fd5b50605960048036036020811015604a57600080fd5b50356001600160a01b0316605b565b005b806001600160a01b0316fffea2646970667358221220be1fcd6e5137fc4d98eb1be69a77b9589062fe6bf74ee044ffb8078249685a5764736f6c634300060b0033",
  "linkReferences": {},
  "deployedLinkReferences": {}
}