{
  "_format": "hh-sol-artifact-1",
  "contractName": "BaseMath",
  "sourceName": "contracts/Dependencies/BaseMath.sol",
  "abi": [
    {
      "inputs": [],
      "name": "DECIMAL_PRECISION",
      "outputs": [
        {
          "internalType": "uint256",
          "name": "",
          "type": "uint256"
        }
      ],
      "stateMutability": "view",
      "type": "function"
    }
  ],
  "bytecode": "0x6080604052348015600f57600080fd5b5060878061001e6000396000f3fe6080604052348015600f57600080fd5b506004361060285760003560e01c8063a20baee614602d575b600080fd5b60336045565b60408051918252519081900360200190f35b670de0b6b3a76400008156fea26469706673582212200360acc74201f918ae842d8d1e85223f2bf2baa412fd594678a8fbd7f44317e764736f6c634300060b0033",
  "linkReferences": {},
  "deployedLinkReferences": {}
}