{
  "_format": "hh-sol-artifact-1",
  "contractName": "ERC20TransferScript",
  "sourceName": "contracts/Proxy/ERC20TransferScript.sol",
  "abi": [
    {
      "inputs": [
        {
          "internalType": "address",
          "name": "_token",
          "type": "address"
        },
        {
          "internalType": "address",
          "name": "_recipient",
          "type": "address"
        },
        {
          "internalType": "uint256",
          "name": "_amount",
          "type": "uint256"
        }
      ],
      "name": "transferERC20",
      "outputs": [
        {
          "internalType": "bool",
          "name": "",
          "type": "bool"
        }
      ],
      "stateMutability": "nonpayable",
      "type": "function"
    }
  ],
  "bytecode": "0x608060405234801561001057600080fd5b5061012e806100206000396000f3fe6080604052348015600f57600080fd5b506004361060285760003560e01c80639db5dbe414602d575b600080fd5b606060048036036060811015604157600080fd5b506001600160a01b038135811691602081013590911690604001356074565b604080519115158252519081900360200190f35b6040805163a9059cbb60e01b81526001600160a01b03848116600483015260248201849052915160009286169163a9059cbb91604480830192602092919082900301818787803b15801560c657600080fd5b505af115801560d9573d6000803e3d6000fd5b505050506040513d602081101560ee57600080fd5b505194935050505056fea264697066735822122039e3440fc88fa92a351638a2acc3eaeb11763858cb2974e45a3f86446a358dc064736f6c634300060b0033",
  "linkReferences": {},
  "deployedLinkReferences": {}
}