{
  "_format": "hh-sol-artifact-1",
  "contractName": "LUSDTokenTester",
  "sourceName": "contracts/TestContracts/LUSDTokenTester.sol",
  "abi": [
    {
      "inputs": [
        {
          "internalType": "address",
          "name": "_troveManagerAddress",
          "type": "address"
        },
        {
          "internalType": "address",
          "name": "_stabilityPoolAddress",
          "type": "address"
        },
        {
          "internalType": "address",
          "name": "_borrowerOperationsAddress",
          "type": "address"
        },
        {
          "internalType": "address",
          "name": "_governanceAddress",
          "type": "address"
        },
        {
          "internalType": "address",
          "name": "_guardianAddress",
          "type": "address"
        }
      ],
      "stateMutability": "nonpayable",
      "type": "constructor"
    },
    {
      "anonymous": false,
      "inputs": [
        {
          "indexed": true,
          "internalType": "address",
          "name": "owner",
          "type": "address"
        },
        {
          "indexed": true,
          "internalType": "address",
          "name": "spender",
          "type": "address"
        },
        {
          "indexed": false,
          "internalType": "uint256",
          "name": "value",
          "type": "uint256"
        }
      ],
      "name": "Approval",
      "type": "event"
    },
    {
      "anonymous": false,
      "inputs": [
        {
          "indexed": false,
          "internalType": "address",
          "name": "_newBorrowerOperationsAddress",
          "type": "address"
        }
      ],
      "name": "BorrowerOperationsAddressChanged",
      "type": "event"
    },
    {
      "anonymous": false,
      "inputs": [
        {
          "indexed": false,
          "internalType": "address",
          "name": "_governanceAddress",
          "type": "address"
        }
      ],
      "name": "GovernanceAddressChanged",
      "type": "event"
    },
    {
      "anonymous": false,
      "inputs": [
        {
          "indexed": false,
          "internalType": "address",
          "name": "_guardianAddress",
          "type": "address"
        }
      ],
      "name": "GuardianAddressChanged",
      "type": "event"
    },
    {
      "anonymous": false,
      "inputs": [
        {
          "indexed": false,
          "internalType": "address",
          "name": "_user",
          "type": "address"
        },
        {
          "indexed": false,
          "internalType": "uint256",
          "name": "_amount",
          "type": "uint256"
        }
      ],
      "name": "LUSDTokenBalanceUpdated",
      "type": "event"
    },
    {
      "anonymous": false,
      "inputs": [
        {
          "indexed": false,
          "internalType": "address",
          "name": "_newStabilityPoolAddress",
          "type": "address"
        }
      ],
      "name": "StabilityPoolAddressChanged",
      "type": "event"
    },
    {
      "anonymous": false,
      "inputs": [
        {
          "indexed": true,
          "internalType": "address",
          "name": "from",
          "type": "address"
        },
        {
          "indexed": true,
          "internalType": "address",
          "name": "to",
          "type": "address"
        },
        {
          "indexed": false,
          "internalType": "uint256",
          "name": "value",
          "type": "uint256"
        }
      ],
      "name": "Transfer",
      "type": "event"
    },
    {
      "anonymous": false,
      "inputs": [
        {
          "indexed": false,
          "internalType": "address",
          "name": "_troveManagerAddress",
          "type": "address"
        }
      ],
      "name": "TroveManagerAddressChanged",
      "type": "event"
    },
    {
      "inputs": [
        {
          "internalType": "address",
          "name": "owner",
          "type": "address"
        },
        {
          "internalType": "address",
          "name": "spender",
          "type": "address"
        }
      ],
      "name": "allowance",
      "outputs": [
        {
          "internalType": "uint256",
          "name": "",
          "type": "uint256"
        }
      ],
      "stateMutability": "view",
      "type": "function"
    },
    {
      "inputs": [
        {
          "internalType": "address",
          "name": "spender",
          "type": "address"
        },
        {
          "internalType": "uint256",
          "name": "amount",
          "type": "uint256"
        }
      ],
      "name": "approve",
      "outputs": [
        {
          "internalType": "bool",
          "name": "",
          "type": "bool"
        }
      ],
      "stateMutability": "nonpayable",
      "type": "function"
    },
    {
      "inputs": [
        {
          "internalType": "address",
          "name": "account",
          "type": "address"
        }
      ],
      "name": "balanceOf",
      "outputs": [
        {
          "internalType": "uint256",
          "name": "",
          "type": "uint256"
        }
      ],
      "stateMutability": "view",
      "type": "function"
    },
    {
      "inputs": [
        {
          "internalType": "address",
          "name": "",
          "type": "address"
        }
      ],
      "name": "borrowerOperations",
      "outputs": [
        {
          "internalType": "bool",
          "name": "",
          "type": "bool"
        }
      ],
      "stateMutability": "view",
      "type": "function"
    },
    {
      "inputs": [],
      "name": "borrowerOperationsAddress",
      "outputs": [
        {
          "internalType": "address",
          "name": "",
          "type": "address"
        }
      ],
      "stateMutability": "view",
      "type": "function"
    },
    {
      "inputs": [
        {
          "internalType": "address",
          "name": "_account",
          "type": "address"
        },
        {
          "internalType": "uint256",
          "name": "_amount",
          "type": "uint256"
        }
      ],
      "name": "burn",
      "outputs": [],
      "stateMutability": "nonpayable",
      "type": "function"
    },
    {
      "inputs": [
        {
          "internalType": "address",
          "name": "owner",
          "type": "address"
        },
        {
          "internalType": "address",
          "name": "spender",
          "type": "address"
        },
        {
          "internalType": "uint256",
          "name": "amount",
          "type": "uint256"
        }
      ],
      "name": "callInternalApprove",
      "outputs": [
        {
          "internalType": "bool",
          "name": "",
          "type": "bool"
        }
      ],
      "stateMutability": "nonpayable",
      "type": "function"
    },
    {
      "inputs": [],
      "name": "decimals",
      "outputs": [
        {
          "internalType": "uint8",
          "name": "",
          "type": "uint8"
        }
      ],
      "stateMutability": "view",
      "type": "function"
    },
    {
      "inputs": [
        {
          "internalType": "address",
          "name": "spender",
          "type": "address"
        },
        {
          "internalType": "uint256",
          "name": "subtractedValue",
          "type": "uint256"
        }
      ],
      "name": "decreaseAllowance",
      "outputs": [
        {
          "internalType": "bool",
          "name": "",
          "type": "bool"
        }
      ],
      "stateMutability": "nonpayable",
      "type": "function"
    },
    {
      "inputs": [],
      "name": "domainSeparator",
      "outputs": [
        {
          "internalType": "bytes32",
          "name": "",
          "type": "bytes32"
        }
      ],
      "stateMutability": "view",
      "type": "function"
    },
    {
      "inputs": [],
      "name": "getChainId",
      "outputs": [
        {
          "internalType": "uint256",
          "name": "chainID",
          "type": "uint256"
        }
      ],
      "stateMutability": "pure",
      "type": "function"
    },
    {
      "inputs": [],
      "name": "getDeploymentStartTime",
      "outputs": [
        {
          "internalType": "uint256",
          "name": "",
          "type": "uint256"
        }
      ],
      "stateMutability": "view",
      "type": "function"
    },
    {
      "inputs": [
        {
          "internalType": "address",
          "name": "owner",
          "type": "address"
        },
        {
          "internalType": "address",
          "name": "spender",
          "type": "address"
        },
        {
          "internalType": "uint256",
          "name": "amount",
          "type": "uint256"
        },
        {
          "internalType": "uint256",
          "name": "nonce",
          "type": "uint256"
        },
        {
          "internalType": "uint256",
          "name": "deadline",
          "type": "uint256"
        }
      ],
      "name": "getDigest",
      "outputs": [
        {
          "internalType": "bytes32",
          "name": "",
          "type": "bytes32"
        }
      ],
      "stateMutability": "view",
      "type": "function"
    },
    {
      "inputs": [],
      "name": "governanceAddress",
      "outputs": [
        {
          "internalType": "address",
          "name": "",
          "type": "address"
        }
      ],
      "stateMutability": "view",
      "type": "function"
    },
    {
      "inputs": [],
      "name": "guardianAddress",
      "outputs": [
        {
          "internalType": "address",
          "name": "",
          "type": "address"
        }
      ],
      "stateMutability": "view",
      "type": "function"
    },
    {
      "inputs": [
        {
          "internalType": "address",
          "name": "spender",
          "type": "address"
        },
        {
          "internalType": "uint256",
          "name": "addedValue",
          "type": "uint256"
        }
      ],
      "name": "increaseAllowance",
      "outputs": [
        {
          "internalType": "bool",
          "name": "",
          "type": "bool"
        }
      ],
      "stateMutability": "nonpayable",
      "type": "function"
    },
    {
      "inputs": [
        {
          "internalType": "address",
          "name": "_account",
          "type": "address"
        },
        {
          "internalType": "uint256",
          "name": "_amount",
          "type": "uint256"
        }
      ],
      "name": "mint",
      "outputs": [],
      "stateMutability": "nonpayable",
      "type": "function"
    },
    {
      "inputs": [],
      "name": "mintingPaused",
      "outputs": [
        {
          "internalType": "bool",
          "name": "",
          "type": "bool"
        }
      ],
      "stateMutability": "view",
      "type": "function"
    },
    {
      "inputs": [],
      "name": "name",
      "outputs": [
        {
          "internalType": "string",
          "name": "",
          "type": "string"
        }
      ],
      "stateMutability": "view",
      "type": "function"
    },
    {
      "inputs": [
        {
          "internalType": "address",
          "name": "owner",
          "type": "address"
        }
      ],
      "name": "nonces",
      "outputs": [
        {
          "internalType": "uint256",
          "name": "",
          "type": "uint256"
        }
      ],
      "stateMutability": "view",
      "type": "function"
    },
    {
      "inputs": [],
      "name": "pauseMinting",
      "outputs": [],
      "stateMutability": "nonpayable",
      "type": "function"
    },
    {
      "inputs": [
        {
          "internalType": "address",
          "name": "owner",
          "type": "address"
        },
        {
          "internalType": "address",
          "name": "spender",
          "type": "address"
        },
        {
          "internalType": "uint256",
          "name": "amount",
          "type": "uint256"
        },
        {
          "internalType": "uint256",
          "name": "deadline",
          "type": "uint256"
        },
        {
          "internalType": "uint8",
          "name": "v",
          "type": "uint8"
        },
        {
          "internalType": "bytes32",
          "name": "r",
          "type": "bytes32"
        },
        {
          "internalType": "bytes32",
          "name": "s",
          "type": "bytes32"
        }
      ],
      "name": "permit",
      "outputs": [],
      "stateMutability": "nonpayable",
      "type": "function"
    },
    {
      "inputs": [],
      "name": "permitTypeHash",
      "outputs": [
        {
          "internalType": "bytes32",
          "name": "",
          "type": "bytes32"
        }
      ],
      "stateMutability": "view",
      "type": "function"
    },
    {
      "inputs": [
        {
          "internalType": "bytes32",
          "name": "digest",
          "type": "bytes32"
        },
        {
          "internalType": "uint8",
          "name": "v",
          "type": "uint8"
        },
        {
          "internalType": "bytes32",
          "name": "r",
          "type": "bytes32"
        },
        {
          "internalType": "bytes32",
          "name": "s",
          "type": "bytes32"
        }
      ],
      "name": "recoverAddress",
      "outputs": [
        {
          "internalType": "address",
          "name": "",
          "type": "address"
        }
      ],
      "stateMutability": "pure",
      "type": "function"
    },
    {
      "inputs": [
        {
          "internalType": "address",
          "name": "_poolAddress",
          "type": "address"
        },
        {
          "internalType": "address",
          "name": "_receiver",
          "type": "address"
        },
        {
          "internalType": "uint256",
          "name": "_amount",
          "type": "uint256"
        }
      ],
      "name": "returnFromPool",
      "outputs": [],
      "stateMutability": "nonpayable",
      "type": "function"
    },
    {
      "inputs": [
        {
          "internalType": "address",
          "name": "_sender",
          "type": "address"
        },
        {
          "internalType": "address",
          "name": "_poolAddress",
          "type": "address"
        },
        {
          "internalType": "uint256",
          "name": "_amount",
          "type": "uint256"
        }
      ],
      "name": "sendToPool",
      "outputs": [],
      "stateMutability": "nonpayable",
      "type": "function"
    },
    {
      "inputs": [],
      "name": "stabilityPoolAddress",
      "outputs": [
        {
          "internalType": "address",
          "name": "",
          "type": "address"
        }
      ],
      "stateMutability": "view",
      "type": "function"
    },
    {
      "inputs": [
        {
          "internalType": "address",
          "name": "",
          "type": "address"
        }
      ],
      "name": "stabilityPools",
      "outputs": [
        {
          "internalType": "bool",
          "name": "",
          "type": "bool"
        }
      ],
      "stateMutability": "view",
      "type": "function"
    },
    {
      "inputs": [],
      "name": "symbol",
      "outputs": [
        {
          "internalType": "string",
          "name": "",
          "type": "string"
        }
      ],
      "stateMutability": "view",
      "type": "function"
    },
    {
      "inputs": [],
      "name": "totalSupply",
      "outputs": [
        {
          "internalType": "uint256",
          "name": "",
          "type": "uint256"
        }
      ],
      "stateMutability": "view",
      "type": "function"
    },
    {
      "inputs": [
        {
          "internalType": "address",
          "name": "recipient",
          "type": "address"
        },
        {
          "internalType": "uint256",
          "name": "amount",
          "type": "uint256"
        }
      ],
      "name": "transfer",
      "outputs": [
        {
          "internalType": "bool",
          "name": "",
          "type": "bool"
        }
      ],
      "stateMutability": "nonpayable",
      "type": "function"
    },
    {
      "inputs": [
        {
          "internalType": "address",
          "name": "sender",
          "type": "address"
        },
        {
          "internalType": "address",
          "name": "recipient",
          "type": "address"
        },
        {
          "internalType": "uint256",
          "name": "amount",
          "type": "uint256"
        }
      ],
      "name": "transferFrom",
      "outputs": [
        {
          "internalType": "bool",
          "name": "",
          "type": "bool"
        }
      ],
      "stateMutability": "nonpayable",
      "type": "function"
    },
    {
      "inputs": [],
      "name": "troveManagerAddress",
      "outputs": [
        {
          "internalType": "address",
          "name": "",
          "type": "address"
        }
      ],
      "stateMutability": "view",
      "type": "function"
    },
    {
      "inputs": [
        {
          "internalType": "address",
          "name": "",
          "type": "address"
        }
      ],
      "name": "troveManagers",
      "outputs": [
        {
          "internalType": "bool",
          "name": "",
          "type": "bool"
        }
      ],
      "stateMutability": "view",
      "type": "function"
    },
    {
      "inputs": [],
      "name": "unpauseMinting",
      "outputs": [],
      "stateMutability": "nonpayable",
      "type": "function"
    },
    {
      "inputs": [
        {
          "internalType": "address",
          "name": "_account",
          "type": "address"
        },
        {
          "internalType": "uint256",
          "name": "_amount",
          "type": "uint256"
        }
      ],
      "name": "unprotectedBurn",
      "outputs": [],
      "stateMutability": "nonpayable",
      "type": "function"
    },
    {
      "inputs": [
        {
          "internalType": "address",
          "name": "_account",
          "type": "address"
        },
        {
          "internalType": "uint256",
          "name": "_amount",
          "type": "uint256"
        }
      ],
      "name": "unprotectedMint",
      "outputs": [],
      "stateMutability": "nonpayable",
      "type": "function"
    },
    {
      "inputs": [
        {
          "internalType": "address",
          "name": "_poolAddress",
          "type": "address"
        },
        {
          "internalType": "address",
          "name": "_receiver",
          "type": "address"
        },
        {
          "internalType": "uint256",
          "name": "_amount",
          "type": "uint256"
        }
      ],
      "name": "unprotectedReturnFromPool",
      "outputs": [],
      "stateMutability": "nonpayable",
      "type": "function"
    },
    {
      "inputs": [
        {
          "internalType": "address",
          "name": "_sender",
          "type": "address"
        },
        {
          "internalType": "address",
          "name": "_poolAddress",
          "type": "address"
        },
        {
          "internalType": "uint256",
          "name": "_amount",
          "type": "uint256"
        }
      ],
      "name": "unprotectedSendToPool",
      "outputs": [],
      "stateMutability": "nonpayable",
      "type": "function"
    },
    {
      "inputs": [
        {
          "internalType": "address",
          "name": "_newGovernanceAddress",
          "type": "address"
        }
      ],
      "name": "updateGovernance",
      "outputs": [],
      "stateMutability": "nonpayable",
      "type": "function"
    },
    {
      "inputs": [
        {
          "internalType": "address",
          "name": "_newGuardianAddress",
          "type": "address"
        }
      ],
      "name": "updateGuardian",
      "outputs": [],
      "stateMutability": "nonpayable",
      "type": "function"
    },
    {
      "inputs": [
        {
          "internalType": "address",
          "name": "_newTroveManagerAddress",
          "type": "address"
        },
        {
          "internalType": "address",
          "name": "_newStabilityPoolAddress",
          "type": "address"
        },
        {
          "internalType": "address",
          "name": "_newBorrowerOperationsAddress",
          "type": "address"
        }
      ],
      "name": "upgradeProtocol",
      "outputs": [],
      "stateMutability": "nonpayable",
      "type": "function"
    },
    {
      "inputs": [],
      "name": "version",
      "outputs": [
        {
          "internalType": "string",
          "name": "",
          "type": "string"
        }
      ],
      "stateMutability": "view",
      "type": "function"
    }
  ],
  "bytecode": "0x6101406040526001805460ff191690557f6e71edae12b1b97f4d1f60370fef10105fa2faae0126114a169c64845d6126c9610120523480156200004157600080fd5b50604051620022ae380380620022ae833981810160405260a08110156200006757600080fd5b5080516020820151604083015160608401516080909401519293919290919084848484846200009f856001600160e01b03620003c216565b620000b3846001600160e01b03620003c216565b620000c7836001600160e01b03620003c216565b620000db826001600160e01b03620003c216565b620000ef816001600160e01b03620003c216565b600880546001600160a01b0319166001600160a01b038716908117909155600081815260056020908152604091829020805460ff19166001179055815192835290517f143219c9e69b09e07e095fcc889b43d8f46ca892bba65f08dc3a0050869a56789281900390910190a1600980546001600160a01b0319166001600160a01b038616908117909155600081815260066020908152604091829020805460ff19166001179055815192835290517f82966d27eea39b038ee0fa30cd16532bb24f6e65d31cb58fb227aa5766cdcc7f9281900390910190a1600a80546001600160a01b0319166001600160a01b038516908117909155600081815260076020908152604091829020805460ff19166001179055815192835290517f3ca631ffcd2a9b5d9ae18543fc82f58eb4ca33af9e6ab01b7a8e95331e6ed9859281900390910190a1600b80546001600160a01b0384166001600160a01b0319909116811790915560408051918252517fa29a633a0eef2d1151c7c3b24a4f75c7c7a3b8a7eee6b54f75b7b168f1c87fec9181900360200190a1600c80546001600160a01b0383166001600160a01b0319909116811790915560408051918252517ff0ec871fc9fea2efa0febe6a5edbe4ffb7c4b3460cd48ca56833fb544595ce8c9181900360200190a1604080518082018252600f81526e262aa9a21029ba30b13632b1b7b4b760891b602091820152815180830190925260018252603160f81b9101527fabccaf2943f70764a048255e50e07d10e3c94973a6c6ba8b8ea62b1155209b0160c08190527fc89efdaa54c0f20c7adf612882df0950f5a951637e0307cdcb4c672f298b8bc660e08190526200036e6001600160e01b036200047716565b60a052620003a77f8b73c3c69bb8fe3d512ecc4cf759cc79239f7b179b0ffacaa9a75d522b39400f83836001600160e01b036200047b16565b6080525050426101005250620004dc98505050505050505050565b6001600160a01b0381166200041e576040805162461bcd60e51b815260206004820152601e60248201527f4163636f756e742063616e6e6f74206265207a65726f20616464726573730000604482015290519081900360640190fd5b803b8062000473576040805162461bcd60e51b815260206004820181905260248201527f4163636f756e7420636f64652073697a652063616e6e6f74206265207a65726f604482015290519081900360640190fd5b5050565b4690565b6000838383620004936001600160e01b036200047716565b6040805160208082019690965280820194909452606084019290925260808301523060a0808401919091528151808403909101815260c090920190528051910120949350505050565b60805160a05160c05160e0516101005161012051611d886200052660003980610a62525080610a045250806110c052508061109f5250806110255250806110555250611d886000f3fe608060405234801561001057600080fd5b50600436106102695760003560e01c80635a4d28bb11610151578063b655c276116100c3578063da8fbf2a11610087578063da8fbf2a146107c4578063dd62ed3e146107cc578063e1a283d6146107fa578063f698da2514610802578063fc5253951461080a578063fc72092f1461083057610269565b8063b655c276146104e7578063b7f8cf9b1461070f578063bb997bac14610717578063c0b94e9f1461074d578063d505accf1461077357610269565b806395d89b411161011557806395d89b41146106555780639dc29fac1461065d578063a457c2d714610689578063a9059cbb146106b5578063ae200322146106e1578063b2561263146106e957610269565b80635a4d28bb146105c757806370a08231146105cf578063795053d3146105f55780637ecebe00146105fd5780638428cf831461062357610269565b8063313ce567116101ea5780633dc2ea6d116101ae5780633dc2ea6d146104e757806340c10f191461051d57806342e44418146105495780635099f99f14610551578063519e2cee1461057d57806354fd4d50146105bf57610269565b8063313ce567146104615780633408e4701461047f57806339509351146104875780633ab60582146104b35780633c84b7c2146104df57610269565b8063122540cb11610231578063122540cb1461039f57806316d556d0146103c557806318160ddd146103eb57806320c582be146103f357806323b872dd1461042b57610269565b806303d999461461026e57806306fdde03146102b8578063095ea7b3146103355780630b622ab21461036157806310ce43bd14610385575b600080fd5b6102a46004803603606081101561028457600080fd5b506001600160a01b03813581169160208101359091169060400135610868565b604080519115158252519081900360200190f35b6102c061087c565b6040805160208082528351818301528351919283929083019185019080838360005b838110156102fa5781810151838201526020016102e2565b50505050905090810190601f1680156103275780820380516001836020036101000a031916815260200191505b509250505060405180910390f35b6102a46004803603604081101561034b57600080fd5b506001600160a01b0381351690602001356108a6565b6103696108bc565b604080516001600160a01b039092168252519081900360200190f35b61038d6108cb565b60408051918252519081900360200190f35b6102a4600480360360208110156103b557600080fd5b50356001600160a01b03166108ef565b6102a4600480360360208110156103db57600080fd5b50356001600160a01b0316610904565b61038d610919565b6104296004803603606081101561040957600080fd5b506001600160a01b0381358116916020810135909116906040013561091f565b005b6102a46004803603606081101561044157600080fd5b506001600160a01b03813581169160208101359091169060400135610937565b6104696109af565b6040805160ff9092168252519081900360200190f35b61038d6109b4565b6102a46004803603604081101561049d57600080fd5b506001600160a01b0381351690602001356109b8565b610429600480360360408110156104c957600080fd5b506001600160a01b0381351690602001356109f4565b61038d610a02565b610429600480360360608110156104fd57600080fd5b506001600160a01b03813581169160208101359091169060400135610927565b6104296004803603604081101561053357600080fd5b506001600160a01b038135169060200135610a26565b610369610a40565b6104296004803603604081101561056757600080fd5b506001600160a01b038135169060200135610a36565b61038d600480360360a081101561059357600080fd5b506001600160a01b03813581169160208101359091169060408101359060608101359060800135610a4f565b6102c0610b18565b610369610b33565b61038d600480360360208110156105e557600080fd5b50356001600160a01b0316610b42565b610369610b5d565b61038d6004803603602081101561061357600080fd5b50356001600160a01b0316610b6c565b6103696004803603608081101561063957600080fd5b5080359060ff6020820135169060408101359060600135610b87565b6102c0610bf3565b6104296004803603604081101561067357600080fd5b506001600160a01b038135169060200135610c11565b6102a46004803603604081101561069f57600080fd5b506001600160a01b038135169060200135610c19565b6102a4600480360360408110156106cb57600080fd5b506001600160a01b038135169060200135610c6e565b610429610c84565b610429600480360360208110156106ff57600080fd5b50356001600160a01b0316610c98565b610369610cfd565b6104296004803603606081101561072d57600080fd5b506001600160a01b03813581169160208101359091169060400135610d0c565b6102a46004803603602081101561076357600080fd5b50356001600160a01b0316610d14565b610429600480360360e081101561078957600080fd5b506001600160a01b03813581169160208101359091169060408101359060608101359060ff6080820135169060a08101359060c00135610d29565b610429610f81565b61038d600480360360408110156107e257600080fd5b506001600160a01b0381358116916020013516610fed565b6102a4611018565b61038d611021565b6104296004803603602081101561082057600080fd5b50356001600160a01b03166110eb565b6104296004803603606081101561084657600080fd5b506001600160a01b038135811691602081013582169160409091013516611150565b60006108758484846112bc565b9392505050565b60408051808201909152600f81526e262aa9a21029ba30b13632b1b7b4b760891b60208201525b90565b60006108b33384846112bc565b50600192915050565b6009546001600160a01b031681565b7f6e71edae12b1b97f4d1f60370fef10105fa2faae0126114a169c64845d6126c990565b60066020526000908152604090205460ff1681565b60056020526000908152604090205460ff1681565b60005490565b61092761133e565b6109328383836113a8565b505050565b60006109428361148a565b61094d8484846113a8565b6109a584336109a085604051806060016040528060288152602001611c11602891396001600160a01b038a166000908152600460209081526040808320338452909152902054919063ffffffff61158b16565b6112bc565b5060019392505050565b601290565b4690565b3360008181526004602090815260408083206001600160a01b038716845290915281205490916108b39185906109a0908663ffffffff61162216565b6109fe828261167c565b5050565b7f000000000000000000000000000000000000000000000000000000000000000090565b610a2e611732565b610a36611774565b6109fe82826117bd565b600c546001600160a01b031681565b6000611901610a5c611021565b604080517f00000000000000000000000000000000000000000000000000000000000000006020808301919091526001600160a01b03808c16838501528a1660608301526080820189905260a0820188905260c08083018890528351808403909101815260e0830184528051908201206001600160f01b031960f09690961b9590951661010083015261010282019390935261012280820194909452815180820390940184526101420190528151910120905095945050505050565b6040805180820190915260018152603160f81b602082015290565b6008546001600160a01b031681565b6001600160a01b031660009081526003602052604090205490565b600b546001600160a01b031681565b6001600160a01b031660009081526002602052604090205490565b604080516000808252602080830180855288905260ff87168385015260608301869052608083018590529251909260019260a080820193601f1981019281900390910190855afa158015610bdf573d6000803e3d6000fd5b5050604051601f1901519695505050505050565b604080518082019091526004815263131554d160e21b602082015290565b6109f4611851565b60006108b333846109a085604051806060016040528060258152602001611cda602591393360009081526004602090815260408083206001600160a01b038d168452909152902054919063ffffffff61158b16565b6000610c798361148a565b6108b33384846113a8565b610c8c6118d3565b6001805460ff19169055565b610ca06118d3565b610ca98161191c565b600b80546001600160a01b0383166001600160a01b0319909116811790915560408051918252517fa29a633a0eef2d1151c7c3b24a4f75c7c7a3b8a7eee6b54f75b7b168f1c87fec9181900360200190a150565b600a546001600160a01b031681565b6109276119cb565b60076020526000908152604090205460ff1681565b6fa2a8918ca85bafe22016d0b997e4df60600160ff1b03811115610d8c576040805162461bcd60e51b81526020600482015260156024820152744c5553443a20496e76616c696420732076616c756560581b604482015290519081900360640190fd5b42841015610dda576040805162461bcd60e51b81526020600482015260166024820152754c5553443a206578706972656420646561646c696e6560501b604482015290519081900360640190fd5b6000610de4611021565b6001600160a01b03808a1660008181526002602090815260408083208054600180820190925582517f6e71edae12b1b97f4d1f60370fef10105fa2faae0126114a169c64845d6126c98186015280840196909652958e166060860152608085018d905260a085019590955260c08085018c90528151808603909101815260e08501825280519083012061190160f01b6101008601526101028501969096526101228085019690965280518085039096018652610142840180825286519683019690962095839052610162840180825286905260ff8a166101828501526101a284018990526101c284018890525194955090936101e280840193601f198301929081900390910190855afa158015610eff573d6000803e3d6000fd5b505050602060405103519050886001600160a01b0316816001600160a01b031614610f6b576040805162461bcd60e51b81526020600482015260176024820152764c5553443a20696e76616c6964207369676e617475726560481b604482015290519081900360640190fd5b610f768989896112bc565b505050505050505050565b600c546001600160a01b0316331480610fa45750600b546001600160a01b031633145b610fdf5760405162461bcd60e51b815260040180806020018281038252602a815260200180611cb0602a913960400191505060405180910390fd5b6001805460ff191681179055565b6001600160a01b03918216600090815260046020908152604080832093909416825291909152205490565b60015460ff1681565b60007f000000000000000000000000000000000000000000000000000000000000000061104c6109b4565b141561107957507f00000000000000000000000000000000000000000000000000000000000000006108a3565b6110e47f8b73c3c69bb8fe3d512ecc4cf759cc79239f7b179b0ffacaa9a75d522b39400f7f00000000000000000000000000000000000000000000000000000000000000007f0000000000000000000000000000000000000000000000000000000000000000611a14565b90506108a3565b6110f36118d3565b6110fc8161191c565b600c80546001600160a01b0383166001600160a01b0319909116811790915560408051918252517ff0ec871fc9fea2efa0febe6a5edbe4ffb7c4b3460cd48ca56833fb544595ce8c9181900360200190a150565b6111586118d3565b6111618361191c565b61116a8261191c565b6111738161191c565b600880546001600160a01b0319166001600160a01b038516908117909155600081815260056020908152604091829020805460ff19166001179055815192835290517f143219c9e69b09e07e095fcc889b43d8f46ca892bba65f08dc3a0050869a56789281900390910190a1600980546001600160a01b0319166001600160a01b038416908117909155600081815260066020908152604091829020805460ff19166001179055815192835290517f82966d27eea39b038ee0fa30cd16532bb24f6e65d31cb58fb227aa5766cdcc7f9281900390910190a1600a80546001600160a01b0319166001600160a01b038316908117909155600081815260076020908152604091829020805460ff19166001179055815192835290517f3ca631ffcd2a9b5d9ae18543fc82f58eb4ca33af9e6ab01b7a8e95331e6ed9859281900390910190a1505050565b6001600160a01b0383166112cc57fe5b6001600160a01b0382166112dc57fe5b6001600160a01b03808416600081815260046020908152604080832094871680845294825291829020859055815185815291517f8c5be1e5ebec7d5bd14f71427d1e84f3dd0314c0f7b2291e5b200ac8c7c3b9259281900390910190a3505050565b3360009081526005602052604090205460ff168061136b57503360009081526006602052604090205460ff165b6113a65760405162461bcd60e51b8152600401808060200182810382526036815260200180611aad6036913960400191505060405180910390fd5b565b6001600160a01b0383166113b857fe5b6001600160a01b0382166113c857fe5b61140b81604051806060016040528060268152602001611b05602691396001600160a01b038616600090815260036020526040902054919063ffffffff61158b16565b6001600160a01b038085166000908152600360205260408082209390935590841681522054611440908263ffffffff61162216565b6001600160a01b038084166000818152600360209081526040918290209490945580518581529051919392871692600080516020611c9083398151915292918290030190a3505050565b6001600160a01b038116158015906114ab57506001600160a01b0381163014155b6114e65760405162461bcd60e51b8152600401808060200182810382526054815260200180611cff6054913960600191505060405180910390fd5b6001600160a01b03811660009081526006602052604090205460ff1615801561152857506001600160a01b03811660009081526005602052604090205460ff16155b801561154d57506001600160a01b03811660009081526007602052604090205460ff16155b6115885760405162461bcd60e51b8152600401808060200182810382526057815260200180611c396057913960600191505060405180910390fd5b50565b6000818484111561161a5760405162461bcd60e51b81526004018080602001828103825283818151815260200191508051906020019080838360005b838110156115df5781810151838201526020016115c7565b50505050905090810190601f16801561160c5780820380516001836020036101000a031916815260200191505b509250505060405180910390fd5b505050900390565b600082820183811015610875576040805162461bcd60e51b815260206004820152601b60248201527f536166654d6174683a206164646974696f6e206f766572666c6f770000000000604482015290519081900360640190fd5b6001600160a01b03821661168c57fe5b6116cf81604051806060016040528060228152602001611ae3602291396001600160a01b038516600090815260036020526040902054919063ffffffff61158b16565b6001600160a01b038316600090815260036020526040812091909155546116fc908263ffffffff611a6a16565b60009081556040805183815290516001600160a01b03851691600080516020611c90833981519152919081900360200190a35050565b60015460ff16156113a65760405162461bcd60e51b8152600401808060200182810382526026815260200180611b786026913960400191505060405180910390fd5b600a546001600160a01b031633146113a65760405162461bcd60e51b815260040180806020018281038252602b815260200180611be6602b913960400191505060405180910390fd5b6001600160a01b0382166117cd57fe5b6000546117e0908263ffffffff61162216565b60009081556001600160a01b03831681526003602052604090205461180b908263ffffffff61162216565b6001600160a01b0383166000818152600360209081526040808320949094558351858152935192939192600080516020611c908339815191529281900390910190a35050565b3360009081526005602052604090205460ff168061187e57503360009081526006602052604090205460ff165b8061189857503360009081526007602052604090205460ff165b6113a65760405162461bcd60e51b815260040180806020018281038252604d815260200180611b2b604d913960600191505060405180910390fd5b600b546001600160a01b031633146113a65760405162461bcd60e51b8152600401808060200182810382526023815260200180611bc36023913960400191505060405180910390fd5b6001600160a01b038116611977576040805162461bcd60e51b815260206004820152601e60248201527f4163636f756e742063616e6e6f74206265207a65726f20616464726573730000604482015290519081900360640190fd5b803b806109fe576040805162461bcd60e51b815260206004820181905260248201527f4163636f756e7420636f64652073697a652063616e6e6f74206265207a65726f604482015290519081900360640190fd5b6009546001600160a01b031633146113a65760405162461bcd60e51b8152600401808060200182810382526025815260200180611b9e6025913960400191505060405180910390fd5b6000838383611a216109b4565b6040805160208082019690965280820194909452606084019290925260808301523060a0808401919091528151808403909101815260c090920190528051910120949350505050565b600061087583836040518060400160405280601e81526020017f536166654d6174683a207375627472616374696f6e206f766572666c6f77000081525061158b56fe4c5553443a2043616c6c6572206973206e6569746865722054726f76654d616e61676572206e6f722053746162696c697479506f6f6c45524332303a206275726e20616d6f756e7420657863656564732062616c616e636545524332303a207472616e7366657220616d6f756e7420657863656564732062616c616e63654c5553443a2043616c6c6572206973206e65697468657220426f72726f7765724f7065726174696f6e73206e6f722054726f76654d616e61676572206e6f722053746162696c697479506f6f6c4c555344546f6b656e3a204d696e74696e672069732063757272656e746c79207061757365644c5553443a2043616c6c6572206973206e6f74207468652053746162696c697479506f6f6c4c555344546f6b656e3a2043616c6c6572206973206e6f7420476f7665726e616e63654c555344546f6b656e3a2043616c6c6572206973206e6f7420426f72726f7765724f7065726174696f6e7345524332303a207472616e7366657220616d6f756e74206578636565647320616c6c6f77616e63654c5553443a2043616e6e6f74207472616e7366657220746f6b656e73206469726563746c7920746f207468652053746162696c697479506f6f6c2c2054726f76654d616e61676572206f7220426f72726f7765724f7073ddf252ad1be2c89b69c2b068fc378daa952ba7f163c4a11628f55a4df523b3ef4c5553443a2043616c6c6572206973206e6f7420677561726469616e206f7220676f7665726e616e636545524332303a2064656372656173656420616c6c6f77616e63652062656c6f77207a65726f4c5553443a2043616e6e6f74207472616e7366657220746f6b656e73206469726563746c7920746f20746865204c55534420746f6b656e20636f6e7472616374206f7220746865207a65726f2061646472657373a2646970667358221220083d6ac57e15a7b5d947907a52b8eefd0057c97255d371ec9496f7ebb42cec6364736f6c634300060b0033",
  "linkReferences": {},
  "deployedLinkReferences": {}
}