{
  "_format": "hh-sol-artifact-1",
  "contractName": "PriceFeedTester",
  "sourceName": "contracts/TestContracts/PriceFeedTester.sol",
  "abi": [
    {
      "anonymous": false,
      "inputs": [
        {
          "indexed": false,
          "internalType": "address",
          "name": "_newCollateralConfigAddress",
          "type": "address"
        }
      ],
      "name": "CollateralConfigAddressChanged",
      "type": "event"
    },
    {
      "anonymous": false,
      "inputs": [
        {
          "indexed": false,
          "internalType": "address",
          "name": "_collateral",
          "type": "address"
        },
        {
          "indexed": false,
          "internalType": "uint256",
          "name": "_lastGoodPrice",
          "type": "uint256"
        }
      ],
      "name": "LastGoodPriceUpdated",
      "type": "event"
    },
    {
      "anonymous": false,
      "inputs": [
        {
          "indexed": true,
          "internalType": "address",
          "name": "previousOwner",
          "type": "address"
        },
        {
          "indexed": true,
          "internalType": "address",
          "name": "newOwner",
          "type": "address"
        }
      ],
      "name": "OwnershipTransferred",
      "type": "event"
    },
    {
      "anonymous": false,
      "inputs": [
        {
          "indexed": false,
          "internalType": "address",
          "name": "_collateral",
          "type": "address"
        },
        {
          "indexed": false,
          "internalType": "enum PriceFeed.Status",
          "name": "newStatus",
          "type": "uint8"
        }
      ],
      "name": "PriceFeedStatusChanged",
      "type": "event"
    },
    {
      "inputs": [],
      "name": "DECIMAL_PRECISION",
      "outputs": [
        {
          "internalType": "uint256",
          "name": "",
          "type": "uint256"
        }
      ],
      "stateMutability": "view",
      "type": "function"
    },
    {
      "inputs": [],
      "name": "MAX_PRICE_DEVIATION_FROM_PREVIOUS_ROUND",
      "outputs": [
        {
          "internalType": "uint256",
          "name": "",
          "type": "uint256"
        }
      ],
      "stateMutability": "view",
      "type": "function"
    },
    {
      "inputs": [],
      "name": "MAX_PRICE_DIFFERENCE_BETWEEN_ORACLES",
      "outputs": [
        {
          "internalType": "uint256",
          "name": "",
          "type": "uint256"
        }
      ],
      "stateMutability": "view",
      "type": "function"
    },
    {
      "inputs": [],
      "name": "NAME",
      "outputs": [
        {
          "internalType": "string",
          "name": "",
          "type": "string"
        }
      ],
      "stateMutability": "view",
      "type": "function"
    },
    {
      "inputs": [],
      "name": "TARGET_DIGITS",
      "outputs": [
        {
          "internalType": "uint256",
          "name": "",
          "type": "uint256"
        }
      ],
      "stateMutability": "view",
      "type": "function"
    },
    {
      "inputs": [],
      "name": "TELLOR_DIGITS",
      "outputs": [
        {
          "internalType": "uint256",
          "name": "",
          "type": "uint256"
        }
      ],
      "stateMutability": "view",
      "type": "function"
    },
    {
      "inputs": [],
      "name": "TIMEOUT",
      "outputs": [
        {
          "internalType": "uint256",
          "name": "",
          "type": "uint256"
        }
      ],
      "stateMutability": "view",
      "type": "function"
    },
    {
      "inputs": [],
      "name": "collateralConfig",
      "outputs": [
        {
          "internalType": "contract ICollateralConfig",
          "name": "",
          "type": "address"
        }
      ],
      "stateMutability": "view",
      "type": "function"
    },
    {
      "inputs": [
        {
          "internalType": "address",
          "name": "_collateral",
          "type": "address"
        }
      ],
      "name": "fetchPrice",
      "outputs": [
        {
          "internalType": "uint256",
          "name": "",
          "type": "uint256"
        }
      ],
      "stateMutability": "nonpayable",
      "type": "function"
    },
    {
      "inputs": [],
      "name": "initialized",
      "outputs": [
        {
          "internalType": "bool",
          "name": "",
          "type": "bool"
        }
      ],
      "stateMutability": "view",
      "type": "function"
    },
    {
      "inputs": [],
      "name": "isOwner",
      "outputs": [
        {
          "internalType": "bool",
          "name": "",
          "type": "bool"
        }
      ],
      "stateMutability": "view",
      "type": "function"
    },
    {
      "inputs": [
        {
          "internalType": "address",
          "name": "",
          "type": "address"
        }
      ],
      "name": "lastGoodPrice",
      "outputs": [
        {
          "internalType": "uint256",
          "name": "",
          "type": "uint256"
        }
      ],
      "stateMutability": "view",
      "type": "function"
    },
    {
      "inputs": [],
      "name": "owner",
      "outputs": [
        {
          "internalType": "address",
          "name": "",
          "type": "address"
        }
      ],
      "stateMutability": "view",
      "type": "function"
    },
    {
      "inputs": [
        {
          "internalType": "address",
          "name": "",
          "type": "address"
        }
      ],
      "name": "priceAggregator",
      "outputs": [
        {
          "internalType": "contract AggregatorV3Interface",
          "name": "",
          "type": "address"
        }
      ],
      "stateMutability": "view",
      "type": "function"
    },
    {
      "inputs": [
        {
          "internalType": "address",
          "name": "_collateralConfigAddress",
          "type": "address"
        },
        {
          "internalType": "address[]",
          "name": "_priceAggregatorAddresses",
          "type": "address[]"
        },
        {
          "internalType": "address",
          "name": "_tellorCallerAddress",
          "type": "address"
        },
        {
          "internalType": "bytes32[]",
          "name": "_tellorQueryIds",
          "type": "bytes32[]"
        }
      ],
      "name": "setAddresses",
      "outputs": [],
      "stateMutability": "nonpayable",
      "type": "function"
    },
    {
      "inputs": [
        {
          "internalType": "address",
          "name": "_collateral",
          "type": "address"
        },
        {
          "internalType": "uint256",
          "name": "_lastGoodPrice",
          "type": "uint256"
        }
      ],
      "name": "setLastGoodPrice",
      "outputs": [],
      "stateMutability": "nonpayable",
      "type": "function"
    },
    {
      "inputs": [
        {
          "internalType": "address",
          "name": "_collateral",
          "type": "address"
        },
        {
          "internalType": "enum PriceFeed.Status",
          "name": "_status",
          "type": "uint8"
        }
      ],
      "name": "setStatus",
      "outputs": [],
      "stateMutability": "nonpayable",
      "type": "function"
    },
    {
      "inputs": [
        {
          "internalType": "address",
          "name": "",
          "type": "address"
        }
      ],
      "name": "status",
      "outputs": [
        {
          "internalType": "enum PriceFeed.Status",
          "name": "",
          "type": "uint8"
        }
      ],
      "stateMutability": "view",
      "type": "function"
    },
    {
      "inputs": [
        {
          "internalType": "address",
          "name": "",
          "type": "address"
        }
      ],
      "name": "tellorQueryId",
      "outputs": [
        {
          "internalType": "bytes32",
          "name": "",
          "type": "bytes32"
        }
      ],
      "stateMutability": "view",
      "type": "function"
    },
    {
      "inputs": [
        {
          "internalType": "address",
          "name": "_collateral",
          "type": "address"
        },
        {
          "internalType": "address",
          "name": "_priceAggregatorAddress",
          "type": "address"
        }
      ],
      "name": "updateChainlinkAggregator",
      "outputs": [],
      "stateMutability": "nonpayable",
      "type": "function"
    }
  ],
  "bytecode": "0x60806040526000805460ff60a01b1916905534801561001d57600080fd5b50600080546001600160a01b0319163390811782556040519091907f8be0079c531659141344cd1fd0a4f28419497f9722a3daafe3b4186f6b6457e0908290a3611b7c8061006c6000396000f3fe608060405234801561001057600080fd5b506004361061012c5760003560e01c80638da5cb5b116100ad578063ace1798e11610071578063ace1798e14610349578063bae805b61461036f578063ebf8e6c61461044a578063f26c8ec914610452578063f56f48f2146104805761012c565b80638da5cb5b1461028e5780638f32d59b14610296578063a20baee61461029e578063a3f4df7e146102a6578063a733a8b2146103235761012c565b80634f722e11116100f45780634f722e11146101cc57806358a6aa881461020e5780635c0ab4de14610216578063645b8b1b1461021e5780638429bbf6146102685761012c565b8063158ef93e146101315780631be5c92f1461014d578063278e07ce146101675780633e4a106a1461019857806345079cb4146101c4575b600080fd5b610139610488565b604080519115158252519081900360200190f35b610155610498565b60408051918252519081900360200190f35b6101966004803603604081101561017d57600080fd5b5080356001600160a01b0316906020013560ff1661049d565b005b610196600480360360408110156101ae57600080fd5b506001600160a01b0381351690602001356104d5565b6101556104f1565b6101f2600480360360208110156101e257600080fd5b50356001600160a01b03166104fc565b604080516001600160a01b039092168252519081900360200190f35b610155610517565b6101f2610523565b6102446004803603602081101561023457600080fd5b50356001600160a01b0316610532565b6040518082600481111561025457fe5b60ff16815260200191505060405180910390f35b6101556004803603602081101561027e57600080fd5b50356001600160a01b0316610547565b6101f2610559565b610139610568565b610155610579565b6102ae610585565b6040805160208082528351818301528351919283929083019185019080838360005b838110156102e85781810151838201526020016102d0565b50505050905090810190601f1680156103155780820380516001836020036101000a031916815260200191505b509250505060405180910390f35b6101556004803603602081101561033957600080fd5b50356001600160a01b03166105aa565b6101556004803603602081101561035f57600080fd5b50356001600160a01b03166105bc565b6101966004803603608081101561038557600080fd5b6001600160a01b038235169190810190604081016020820135600160201b8111156103af57600080fd5b8201836020820111156103c157600080fd5b803590602001918460208302840111600160201b831117156103e257600080fd5b919390926001600160a01b0383351692604081019060200135600160201b81111561040c57600080fd5b82018360208201111561041e57600080fd5b803590602001918460208302840111600160201b8311171561043f57600080fd5b5090925090506109ea565b610155610ee3565b6101966004803603604081101561046857600080fd5b506001600160a01b0381358116916020013516610ee8565b61015561102b565b600054600160a01b900460ff1681565b601281565b6001600160a01b0382166000908152600660205260409020805482919060ff191660018360048111156104cc57fe5b02179055505050565b6001600160a01b03909116600090815260056020526040902055565b66b1a2bc2ec5000081565b6001602052600090815260409020546001600160a01b031681565b6706f05b59d3b2000081565b6004546001600160a01b031681565b60066020526000908152604090205460ff1681565b60056020526000908152604090205481565b6000546001600160a01b031690565b6000546001600160a01b0316331490565b670de0b6b3a764000081565b60405180604001604052806009815260200168141c9a58d95199595960ba1b81525081565b60036020526000908152604090205481565b60006105c782611031565b6105cf611a9b565b6105d883611102565b90506105e2611a9b565b6105f58483600001518460800151611254565b90506105ff611ac9565b6106088561133e565b905060006001600160a01b03861660009081526006602052604090205460ff16600481111561063357fe5b141561079a5761064383836113fd565b156106bb5761065181611420565b156106835761066185600261146d565b505050506001600160a01b0381166000908152600560205260409020546109e5565b61068c81611504565b1561069c5761066185600161146d565b6106a785600161146d565b6106b18582611527565b93505050506109e5565b6106c483611504565b1561071d576106d281611420565b156106e25761066185600461146d565b6106ed85600361146d565b6106f681611504565b156106a757505050506001600160a01b0381166000908152600560205260409020546109e5565b6107278383611543565b156107775761073581611420565b156107455761066185600261146d565b61074e81611504565b1561075e5761066185600161146d565b61076883826115e2565b1561069c576106b18584611661565b61078081611420565b156107905761079085600461146d565b6106b18584611661565b60016001600160a01b03861660009081526006602052604090205460ff1660048111156107c357fe5b14156107fd576107d4838383611679565b156107e45761079085600061146d565b6107ed81611420565b156106ed5761066185600261146d565b60026001600160a01b03861660009081526006602052604090205460ff16600481111561082657fe5b141561084757610837838383611679565b156106615761079085600061146d565b60036001600160a01b03861660009081526006602052604090205460ff16600481111561087057fe5b14156109335761088083836113fd565b156108a95761088e81611420565b1561089e5761066185600261146d565b6106ed85600161146d565b6108b283611504565b156108d0576108c081611420565b156106ed5761066185600461146d565b6108d981611420565b156108e95761079085600461146d565b6108f281611504565b1561091957505050506001600160a01b0381166000908152600560205260409020546109e5565b61092383826115e2565b1561069c5761079085600061146d565b60046001600160a01b03861660009081526006602052604090205460ff16600481111561095c57fe5b14156109e15761096c83836113fd565b1561097c5761066185600261146d565b61098583611504565b156109ac57505050506001600160a01b0381166000908152600560205260409020546109e5565b6109b7838383611679565b156109c75761079085600061146d565b6109d18383611543565b156107905761066185600261146d565b5050505b919050565b6109f2610568565b610a43576040805162461bcd60e51b815260206004820181905260248201527f4f776e61626c653a2063616c6c6572206973206e6f7420746865206f776e6572604482015290519081900360640190fd5b600054600160a01b900460ff1615610a9d576040805162461bcd60e51b815260206004820152601860248201527743616e206f6e6c7920696e697469616c697a65206f6e636560401b604482015290519081900360640190fd5b610aa6866116d1565b600480546001600160a01b0388166001600160a01b0319909116811790915560408051918252517f6a69409f44477d8556c3c8040edc75d9bc1b3dee7846f6045c0b99556fe7bc919181900360200190a16060600460009054906101000a90046001600160a01b03166001600160a01b031663b2604ecf6040518163ffffffff1660e01b815260040160006040518083038186803b158015610b4757600080fd5b505afa158015610b5b573d6000803e3d6000fd5b505050506040513d6000823e601f3d908101601f191682016040526020811015610b8457600080fd5b8101908080516040519392919084600160201b821115610ba357600080fd5b908301906020820185811115610bb857600080fd5b82518660208202830111600160201b82111715610bd457600080fd5b82525081516020918201928201910280838360005b83811015610c01578181015183820152602001610be9565b505050509190910160405250508251929350505080610c67576040805162461bcd60e51b815260206004820181905260248201527f4174206c65617374206f6e6520636f6c6c61746572616c207265717569726564604482015290519081900360640190fd5b858114610cb6576040805162461bcd60e51b8152602060048201526018602482015277082e4e4c2f240d8cadccee8d0e640daeae6e840dac2e8c6d60431b604482015290519081900360640190fd5b828114610d05576040805162461bcd60e51b8152602060048201526018602482015277082e4e4c2f240d8cadccee8d0e640daeae6e840dac2e8c6d60431b604482015290519081900360640190fd5b610d0e856116d1565b600280546001600160a01b0319166001600160a01b03871617905560005b81811015610ec5576000838281518110610d4257fe5b602002602001015190506000898984818110610d5a57fe5b905060200201356001600160a01b031690506000878785818110610d7a57fe5b905060200201359050610d8c826116d1565b80610dd8576040805162461bcd60e51b8152602060048201526017602482015276125b9d985b1a590815195b1b1bdc88145d595c9e481251604a1b604482015290519081900360640190fd5b6001600160a01b03838116600090815260016020908152604080832080546001600160a01b03191694871694909417909355600381528282208490556006905220805460ff19169055610e29611a9b565b610e3284611102565b9050610e3c611a9b565b610e4f8583600001518460800151611254565b9050610e5b82826113fd565b158015610e6e5750610e6c82611504565b155b610ea95760405162461bcd60e51b8152600401808060200182810382526030815260200180611b176030913960400191505060405180910390fd5b610eb38583611661565b505060019094019350610d2c92505050565b50506000805460ff60a01b1916600160a01b17905550505050505050565b600681565b610ef0610568565b610f41576040805162461bcd60e51b815260206004820181905260248201527f4f776e61626c653a2063616c6c6572206973206e6f7420746865206f776e6572604482015290519081900360640190fd5b610f4a82611031565b610f53816116d1565b6001600160a01b03828116600090815260016020908152604080832080546001600160a01b031916948616949094179093556006905220805460ff19169055610f9a611a9b565b610fa383611102565b9050610fad611a9b565b610fc08483600001518460800151611254565b9050610fcc82826113fd565b158015610fdf5750610fdd82611504565b155b61101a5760405162461bcd60e51b8152600401808060200182810382526030815260200180611b176030913960400191505060405180910390fd5b6110248483611661565b5050505050565b61384081565b6004805460408051630658339960e51b81526001600160a01b03858116948201949094529051929091169163cb06732091602480820192602092909190829003018186803b15801561108257600080fd5b505afa158015611096573d6000803e3d6000fd5b505050506040513d60208110156110ac57600080fd5b50516110ff576040805162461bcd60e51b815260206004820152601a60248201527f496e76616c696420636f6c6c61746572616c2061646472657373000000000000604482015290519081900360640190fd5b50565b61110a611a9b565b6001600160a01b0380831660009081526001602090815260409182902054825163313ce56760e01b8152925193169263313ce567926004808201939291829003018186803b15801561115b57600080fd5b505afa92505050801561118057506040513d602081101561117b57600080fd5b505160015b611189576109e5565b60ff1660808201526001600160a01b0380831660009081526001602052604090819020548151633fabe5a360e21b8152915192169163feaf968c9160048082019260a092909190829003018186803b1580156111e457600080fd5b505afa92505050801561122657506040513d60a081101561120457600080fd5b5080516020820151604083015160608401516080909401519293919290919060015b61122f576109e5565b506001600160501b0390931684525060208301526040820152600160608201526109e5565b61125c611a9b565b6001600160a01b0380851660009081526001602052604090819020548151639a6fc8f560e01b81526001600160501b0360001988011660048201529151921691639a6fc8f59160248082019260a092909190829003018186803b1580156112c257600080fd5b505afa92505050801561130457506040513d60a08110156112e257600080fd5b5080516020820151604083015160608401516080909401519293919290919060015b61130d57611337565b506001600160501b039093168452506020830152604082015260ff82166080820152600160608201525b9392505050565b611346611ac9565b6002546001600160a01b0383811660009081526003602052604090819020548151637835690560e01b81526004810191909152905191909216916378356905916024808301926060929190829003018186803b1580156113a557600080fd5b505afa9250505080156113d957506040513d60608110156113c557600080fd5b508051602082015160409092015190919060015b6113e2576109e5565b911515835260208301526040820152600160608201526109e5565b600061140883611784565b80611417575061141782611784565b90505b92915050565b60008160600151611433575060016109e5565b604082015115806114475750428260400151115b15611454575060016109e5565b6020820151611465575060016109e5565b506000919050565b6001600160a01b0382166000908152600660205260409020805482919060ff1916600183600481111561149c57fe5b02179055507feba39f437b810933b4ec5b994dfe4cb7ae3ad9d652a76aa5cdb34e57dc20d6df828260405180836001600160a01b03166001600160a01b031681526020018260048111156114ec57fe5b60ff1681526020019250505060405180910390a15050565b60006138406115208360400151426117e390919063ffffffff16565b1192915050565b6000806115378360200151611825565b9050611417848261183c565b60008061155b8460200151856080015160ff16611895565b905060006115748460200151856080015160ff16611895565b9050600061158283836118de565b9050600061159084846118f4565b905060006115cc826115c0670de0b6b3a76400006115b4838863ffffffff6117e316565b9063ffffffff61190416565b9063ffffffff61195d16565b6706f05b59d3b200001098975050505050505050565b6000806115fa8460200151856080015160ff16611895565b9050600061160b8460200151611825565b9050600061161982846118de565b9050600061162783856118f4565b9050600061164b836115c0670de0b6b3a76400006115b4868463ffffffff6117e316565b66b1a2bc2ec50000101598975050505050505050565b6000806115378360200151846080015160ff16611895565b600061168482611420565b80611693575061169382611504565b806116a357506116a384846113fd565b806116b257506116b284611504565b156116bf57506000611337565b6116c984836115e2565b949350505050565b6001600160a01b03811661172c576040805162461bcd60e51b815260206004820152601e60248201527f4163636f756e742063616e6e6f74206265207a65726f20616464726573730000604482015290519081900360640190fd5b803b80611780576040805162461bcd60e51b815260206004820181905260248201527f4163636f756e7420636f64652073697a652063616e6e6f74206265207a65726f604482015290519081900360640190fd5b5050565b60008160600151611797575060016109e5565b81516001600160501b03166117ae575060016109e5565b604082015115806117c25750428260400151115b156117cf575060016109e5565b6000826020015113611465575060016109e5565b600061141783836040518060400160405280601e81526020017f536166654d6174683a207375627472616374696f6e206f766572666c6f77000081525061199f565b600061141a8264e8d4a5100063ffffffff61190416565b6001600160a01b0382166000818152600560209081526040918290208490558151928352820183905280517f9a696fe6a955b23852e2b245b6847dfda7d8944623d9b42628e087344ad179639281900390910190a15050565b600080601283106118be576118b7846011198501600a0a63ffffffff61195d16565b9050611417565b6012831015611417576116c9846012859003600a0a63ffffffff61190416565b60008183106118ed5781611417565b5090919050565b6000818310156118ed5781611417565b6000826119135750600061141a565b8282028284828161192057fe5b04146114175760405162461bcd60e51b8152600401808060200182810382526021815260200180611af66021913960400191505060405180910390fd5b600061141783836040518060400160405280601a81526020017f536166654d6174683a206469766973696f6e206279207a65726f000000000000815250611a36565b60008184841115611a2e5760405162461bcd60e51b81526004018080602001828103825283818151815260200191508051906020019080838360005b838110156119f35781810151838201526020016119db565b50505050905090810190601f168015611a205780820380516001836020036101000a031916815260200191505b509250505060405180910390fd5b505050900390565b60008183611a855760405162461bcd60e51b81526020600482018181528351602484015283519092839260449091019190850190808383600083156119f35781810151838201526020016119db565b506000838581611a9157fe5b0495945050505050565b6040805160a08101825260008082526020820181905291810182905260608101829052608081019190915290565b60405180608001604052806000151581526020016000815260200160008152602001600015158152509056fe536166654d6174683a206d756c7469706c69636174696f6e206f766572666c6f775072696365466565643a20436861696e6c696e6b206d75737420626520776f726b696e6720616e642063757272656e74a2646970667358221220250d25a52334d50e3606a6d49ece2c19c7606a9953fd36750ebdc6581c1ecfcf64736f6c634300060b0033",
  "linkReferences": {},
  "deployedLinkReferences": {}
}