{
  "_format": "hh-sol-artifact-1",
  "contractName": "ERC4626",
  "sourceName": "contracts/TestContracts/ERC4626.sol",
  "abi": [
    {
      "inputs": [
        {
          "internalType": "contract ERC20",
          "name": "_asset",
          "type": "address"
        },
        {
          "internalType": "string",
          "name": "_name",
          "type": "string"
        },
        {
          "internalType": "string",
          "name": "_symbol",
          "type": "string"
        }
      ],
      "stateMutability": "nonpayable",
      "type": "constructor"
    },
    {
      "anonymous": false,
      "inputs": [
        {
          "indexed": true,
          "internalType": "address",
          "name": "owner",
          "type": "address"
        },
        {
          "indexed": true,
          "internalType": "address",
          "name": "spender",
          "type": "address"
        },
        {
          "indexed": false,
          "internalType": "uint256",
          "name": "value",
          "type": "uint256"
        }
      ],
      "name": "Approval",
      "type": "event"
    },
    {
      "anonymous": false,
      "inputs": [
        {
          "indexed": true,
          "internalType": "address",
          "name": "caller",
          "type": "address"
        },
        {
          "indexed": true,
          "internalType": "address",
          "name": "owner",
          "type": "address"
        },
        {
          "indexed": false,
          "internalType": "uint256",
          "name": "assets",
          "type": "uint256"
        },
        {
          "indexed": false,
          "internalType": "uint256",
          "name": "shares",
          "type": "uint256"
        }
      ],
      "name": "Deposit",
      "type": "event"
    },
    {
      "anonymous": false,
      "inputs": [
        {
          "indexed": true,
          "internalType": "address",
          "name": "from",
          "type": "address"
        },
        {
          "indexed": true,
          "internalType": "address",
          "name": "to",
          "type": "address"
        },
        {
          "indexed": false,
          "internalType": "uint256",
          "name": "value",
          "type": "uint256"
        }
      ],
      "name": "Transfer",
      "type": "event"
    },
    {
      "anonymous": false,
      "inputs": [
        {
          "indexed": true,
          "internalType": "address",
          "name": "caller",
          "type": "address"
        },
        {
          "indexed": true,
          "internalType": "address",
          "name": "receiver",
          "type": "address"
        },
        {
          "indexed": true,
          "internalType": "address",
          "name": "owner",
          "type": "address"
        },
        {
          "indexed": false,
          "internalType": "uint256",
          "name": "assets",
          "type": "uint256"
        },
        {
          "indexed": false,
          "internalType": "uint256",
          "name": "shares",
          "type": "uint256"
        }
      ],
      "name": "Withdraw",
      "type": "event"
    },
    {
      "inputs": [
        {
          "internalType": "address",
          "name": "owner",
          "type": "address"
        },
        {
          "internalType": "address",
          "name": "spender",
          "type": "address"
        }
      ],
      "name": "allowance",
      "outputs": [
        {
          "internalType": "uint256",
          "name": "",
          "type": "uint256"
        }
      ],
      "stateMutability": "view",
      "type": "function"
    },
    {
      "inputs": [
        {
          "internalType": "address",
          "name": "spender",
          "type": "address"
        },
        {
          "internalType": "uint256",
          "name": "amount",
          "type": "uint256"
        }
      ],
      "name": "approve",
      "outputs": [
        {
          "internalType": "bool",
          "name": "",
          "type": "bool"
        }
      ],
      "stateMutability": "nonpayable",
      "type": "function"
    },
    {
      "inputs": [],
      "name": "asset",
      "outputs": [
        {
          "internalType": "contract ERC20",
          "name": "",
          "type": "address"
        }
      ],
      "stateMutability": "view",
      "type": "function"
    },
    {
      "inputs": [
        {
          "internalType": "address",
          "name": "account",
          "type": "address"
        }
      ],
      "name": "balanceOf",
      "outputs": [
        {
          "internalType": "uint256",
          "name": "",
          "type": "uint256"
        }
      ],
      "stateMutability": "view",
      "type": "function"
    },
    {
      "inputs": [
        {
          "internalType": "uint256",
          "name": "shares",
          "type": "uint256"
        }
      ],
      "name": "convertToAssets",
      "outputs": [
        {
          "internalType": "uint256",
          "name": "",
          "type": "uint256"
        }
      ],
      "stateMutability": "view",
      "type": "function"
    },
    {
      "inputs": [
        {
          "internalType": "uint256",
          "name": "assets",
          "type": "uint256"
        }
      ],
      "name": "convertToShares",
      "outputs": [
        {
          "internalType": "uint256",
          "name": "",
          "type": "uint256"
        }
      ],
      "stateMutability": "view",
      "type": "function"
    },
    {
      "inputs": [],
      "name": "decimals",
      "outputs": [
        {
          "internalType": "uint8",
          "name": "",
          "type": "uint8"
        }
      ],
      "stateMutability": "view",
      "type": "function"
    },
    {
      "inputs": [
        {
          "internalType": "address",
          "name": "spender",
          "type": "address"
        },
        {
          "internalType": "uint256",
          "name": "subtractedValue",
          "type": "uint256"
        }
      ],
      "name": "decreaseAllowance",
      "outputs": [
        {
          "internalType": "bool",
          "name": "",
          "type": "bool"
        }
      ],
      "stateMutability": "nonpayable",
      "type": "function"
    },
    {
      "inputs": [
        {
          "internalType": "uint256",
          "name": "assets",
          "type": "uint256"
        },
        {
          "internalType": "address",
          "name": "receiver",
          "type": "address"
        }
      ],
      "name": "deposit",
      "outputs": [
        {
          "internalType": "uint256",
          "name": "shares",
          "type": "uint256"
        }
      ],
      "stateMutability": "nonpayable",
      "type": "function"
    },
    {
      "inputs": [
        {
          "internalType": "address",
          "name": "spender",
          "type": "address"
        },
        {
          "internalType": "uint256",
          "name": "addedValue",
          "type": "uint256"
        }
      ],
      "name": "increaseAllowance",
      "outputs": [
        {
          "internalType": "bool",
          "name": "",
          "type": "bool"
        }
      ],
      "stateMutability": "nonpayable",
      "type": "function"
    },
    {
      "inputs": [
        {
          "internalType": "address",
          "name": "",
          "type": "address"
        }
      ],
      "name": "maxDeposit",
      "outputs": [
        {
          "internalType": "uint256",
          "name": "",
          "type": "uint256"
        }
      ],
      "stateMutability": "view",
      "type": "function"
    },
    {
      "inputs": [
        {
          "internalType": "address",
          "name": "",
          "type": "address"
        }
      ],
      "name": "maxMint",
      "outputs": [
        {
          "internalType": "uint256",
          "name": "",
          "type": "uint256"
        }
      ],
      "stateMutability": "view",
      "type": "function"
    },
    {
      "inputs": [
        {
          "internalType": "address",
          "name": "owner",
          "type": "address"
        }
      ],
      "name": "maxRedeem",
      "outputs": [
        {
          "internalType": "uint256",
          "name": "",
          "type": "uint256"
        }
      ],
      "stateMutability": "view",
      "type": "function"
    },
    {
      "inputs": [
        {
          "internalType": "address",
          "name": "owner",
          "type": "address"
        }
      ],
      "name": "maxWithdraw",
      "outputs": [
        {
          "internalType": "uint256",
          "name": "",
          "type": "uint256"
        }
      ],
      "stateMutability": "view",
      "type": "function"
    },
    {
      "inputs": [
        {
          "internalType": "uint256",
          "name": "shares",
          "type": "uint256"
        },
        {
          "internalType": "address",
          "name": "receiver",
          "type": "address"
        }
      ],
      "name": "mint",
      "outputs": [
        {
          "internalType": "uint256",
          "name": "assets",
          "type": "uint256"
        }
      ],
      "stateMutability": "nonpayable",
      "type": "function"
    },
    {
      "inputs": [],
      "name": "name",
      "outputs": [
        {
          "internalType": "string",
          "name": "",
          "type": "string"
        }
      ],
      "stateMutability": "view",
      "type": "function"
    },
    {
      "inputs": [
        {
          "internalType": "uint256",
          "name": "assets",
          "type": "uint256"
        }
      ],
      "name": "previewDeposit",
      "outputs": [
        {
          "internalType": "uint256",
          "name": "",
          "type": "uint256"
        }
      ],
      "stateMutability": "view",
      "type": "function"
    },
    {
      "inputs": [
        {
          "internalType": "uint256",
          "name": "shares",
          "type": "uint256"
        }
      ],
      "name": "previewMint",
      "outputs": [
        {
          "internalType": "uint256",
          "name": "",
          "type": "uint256"
        }
      ],
      "stateMutability": "view",
      "type": "function"
    },
    {
      "inputs": [
        {
          "internalType": "uint256",
          "name": "shares",
          "type": "uint256"
        }
      ],
      "name": "previewRedeem",
      "outputs": [
        {
          "internalType": "uint256",
          "name": "",
          "type": "uint256"
        }
      ],
      "stateMutability": "view",
      "type": "function"
    },
    {
      "inputs": [
        {
          "internalType": "uint256",
          "name": "assets",
          "type": "uint256"
        }
      ],
      "name": "previewWithdraw",
      "outputs": [
        {
          "internalType": "uint256",
          "name": "",
          "type": "uint256"
        }
      ],
      "stateMutability": "view",
      "type": "function"
    },
    {
      "inputs": [
        {
          "internalType": "uint256",
          "name": "shares",
          "type": "uint256"
        },
        {
          "internalType": "address",
          "name": "receiver",
          "type": "address"
        },
        {
          "internalType": "address",
          "name": "owner",
          "type": "address"
        }
      ],
      "name": "redeem",
      "outputs": [
        {
          "internalType": "uint256",
          "name": "assets",
          "type": "uint256"
        }
      ],
      "stateMutability": "nonpayable",
      "type": "function"
    },
    {
      "inputs": [],
      "name": "symbol",
      "outputs": [
        {
          "internalType": "string",
          "name": "",
          "type": "string"
        }
      ],
      "stateMutability": "view",
      "type": "function"
    },
    {
      "inputs": [],
      "name": "totalAssets",
      "outputs": [
        {
          "internalType": "uint256",
          "name": "",
          "type": "uint256"
        }
      ],
      "stateMutability": "view",
      "type": "function"
    },
    {
      "inputs": [],
      "name": "totalSupply",
      "outputs": [
        {
          "internalType": "uint256",
          "name": "",
          "type": "uint256"
        }
      ],
      "stateMutability": "view",
      "type": "function"
    },
    {
      "inputs": [
        {
          "internalType": "address",
          "name": "recipient",
          "type": "address"
        },
        {
          "internalType": "uint256",
          "name": "amount",
          "type": "uint256"
        }
      ],
      "name": "transfer",
      "outputs": [
        {
          "internalType": "bool",
          "name": "",
          "type": "bool"
        }
      ],
      "stateMutability": "nonpayable",
      "type": "function"
    },
    {
      "inputs": [
        {
          "internalType": "address",
          "name": "sender",
          "type": "address"
        },
        {
          "internalType": "address",
          "name": "recipient",
          "type": "address"
        },
        {
          "internalType": "uint256",
          "name": "amount",
          "type": "uint256"
        }
      ],
      "name": "transferFrom",
      "outputs": [
        {
          "internalType": "bool",
          "name": "",
          "type": "bool"
        }
      ],
      "stateMutability": "nonpayable",
      "type": "function"
    },
    {
      "inputs": [
        {
          "internalType": "uint256",
          "name": "assets",
          "type": "uint256"
        },
        {
          "internalType": "address",
          "name": "receiver",
          "type": "address"
        },
        {
          "internalType": "address",
          "name": "owner",
          "type": "address"
        }
      ],
      "name": "withdraw",
      "outputs": [
        {
          "internalType": "uint256",
          "name": "shares",
          "type": "uint256"
        }
      ],
      "stateMutability": "nonpayable",
      "type": "function"
    }
  ],
  "bytecode": "0x60a06040523480156200001157600080fd5b5060405162001ba138038062001ba1833981810160405260608110156200003757600080fd5b8151602083018051604051929492938301929190846401000000008211156200005f57600080fd5b9083019060208201858111156200007557600080fd5b82516401000000008111828201881017156200009057600080fd5b82525081516020918201929091019080838360005b83811015620000bf578181015183820152602001620000a5565b50505050905090810190601f168015620000ed5780820380516001836020036101000a031916815260200191505b50604052602001805160405193929190846401000000008211156200011157600080fd5b9083019060208201858111156200012757600080fd5b82516401000000008111828201881017156200014257600080fd5b82525081516020918201929091019080838360005b838110156200017157818101518382015260200162000157565b50505050905090810190601f1680156200019f5780820380516001836020036101000a031916815260200191505b50604052505082518391508290620001bf906003906020850190620001ff565b508051620001d5906004906020840190620001ff565b505060058054601260ff1990911617905550505060601b6001600160601b031916608052620002a4565b828054600181600116156101000203166002900490600052602060002090601f016020900481019282601f106200024257805160ff191683800117855562000272565b8280016001018555821562000272579182015b828111156200027257825182559160200191906001019062000255565b506200028092915062000284565b5090565b620002a191905b808211156200028057600081556001016200028b565b90565b60805160601c6118c6620002db6000398061057e52806107bf52806108a152806109605280610b8e5280610cbc52506118c66000f3fe608060405234801561001057600080fd5b50600436106101795760003560e01c806370a08231116100d9578063ba08765211610087578063ba08765214610490578063c63d75b61461033b578063c6e6f59214610272578063ce96cb77146104c4578063d905777e146104ea578063dd62ed3e14610510578063ef8b30f71461053e57610179565b806370a08231146103aa57806394bf804d146103d057806395d89b41146103fc578063a457c2d714610404578063a9059cbb14610430578063b3d7f6b914610215578063b460af941461045c57610179565b806323b872dd1161013657806323b872dd14610297578063313ce567146102cd57806338d52e0f146102eb578063395093511461030f578063402d267d1461033b5780634cdad506146103615780636e553f651461037e57610179565b806301e1d1141461017e57806306fdde031461019857806307a2d13a14610215578063095ea7b3146102325780630a28a4771461027257806318160ddd1461028f575b600080fd5b61018661055b565b60408051918252519081900360200190f35b6101a06105f6565b6040805160208082528351818301528351919283929083019185019080838360005b838110156101da5781810151838201526020016101c2565b50505050905090810190601f1680156102075780820380516001836020036101000a031916815260200191505b509250505060405180910390f35b6101866004803603602081101561022b57600080fd5b503561068c565b61025e6004803603604081101561024857600080fd5b506001600160a01b0381351690602001356106d5565b604080519115158252519081900360200190f35b6101866004803603602081101561028857600080fd5b50356106f3565b610186610721565b61025e600480360360608110156102ad57600080fd5b506001600160a01b03813581169160208101359091169060400135610727565b6102d56107b4565b6040805160ff9092168252519081900360200190f35b6102f36107bd565b604080516001600160a01b039092168252519081900360200190f35b61025e6004803603604081101561032557600080fd5b506001600160a01b0381351690602001356107e1565b6101866004803603602081101561035157600080fd5b50356001600160a01b0316610835565b6101866004803603602081101561037757600080fd5b503561083c565b6101866004803603604081101561039457600080fd5b50803590602001356001600160a01b0316610847565b610186600480360360208110156103c057600080fd5b50356001600160a01b031661092b565b610186600480360360408110156103e657600080fd5b50803590602001356001600160a01b0316610946565b6101a06109ea565b61025e6004803603604081101561041a57600080fd5b506001600160a01b038135169060200135610a4b565b61025e6004803603604081101561044657600080fd5b506001600160a01b038135169060200135610ab9565b6101866004803603606081101561047257600080fd5b508035906001600160a01b0360208201358116916040013516610acd565b610186600480360360608110156104a657600080fd5b508035906001600160a01b0360208201358116916040013516610bbb565b610186600480360360208110156104da57600080fd5b50356001600160a01b0316610ce9565b6101866004803603602081101561050057600080fd5b50356001600160a01b0316610cfc565b6101866004803603604081101561052657600080fd5b506001600160a01b0381358116916020013516610d07565b6101866004803603602081101561055457600080fd5b5035610d32565b604080516370a0823160e01b815230600482015290516000916001600160a01b037f000000000000000000000000000000000000000000000000000000000000000016916370a0823191602480820192602092909190829003018186803b1580156105c557600080fd5b505afa1580156105d9573d6000803e3d6000fd5b505050506040513d60208110156105ef57600080fd5b5051905090565b60038054604080516020601f60026000196101006001881615020190951694909404938401819004810282018101909252828152606093909290918301828280156106825780601f1061065757610100808354040283529160200191610682565b820191906000526020600020905b81548152906001019060200180831161066557829003601f168201915b5050505050905090565b600080610697610721565b905080156106cc576106c7816106bb6106ae61055b565b869063ffffffff610d3d16565b9063ffffffff610d9616565b6106ce565b825b9392505050565b60006106e96106e2610dfd565b8484610e01565b5060015b92915050565b6000806106fe610721565b905080156106cc576106c761071161055b565b6106bb858463ffffffff610d3d16565b60025490565b6000610734848484610eed565b6107aa84610740610dfd565b6107a585604051806060016040528060288152602001611790602891396001600160a01b038a1660009081526001602052604081209061077e610dfd565b6001600160a01b03168152602081019190915260400160002054919063ffffffff61104216565b610e01565b5060019392505050565b60055460ff1690565b7f000000000000000000000000000000000000000000000000000000000000000081565b60006106e96107ee610dfd565b846107a585600160006107ff610dfd565b6001600160a01b03908116825260208083019390935260409182016000908120918c16815292529020549063ffffffff6110d916565b5060001990565b60006106ed8261068c565b600061085283610d32565b905080610894576040805162461bcd60e51b815260206004820152600b60248201526a5a45524f5f53484152455360a81b604482015290519081900360640190fd5b6108cf6001600160a01b037f00000000000000000000000000000000000000000000000000000000000000001633308663ffffffff61113316565b6108d98282611193565b604080518481526020810183905281516001600160a01b0385169233927fdcbc1c05240f31ff3ad067ef1ee35ce4997762752e3a095284754544f4c709d7929081900390910190a36106ed838261127d565b6001600160a01b031660009081526020819052604090205490565b60006109518361068c565b905061098e6001600160a01b037f00000000000000000000000000000000000000000000000000000000000000001633308463ffffffff61113316565b6109988284611193565b604080518281526020810185905281516001600160a01b0385169233927fdcbc1c05240f31ff3ad067ef1ee35ce4997762752e3a095284754544f4c709d7929081900390910190a36106ed818461127d565b60048054604080516020601f60026000196101006001881615020190951694909404938401819004810282018101909252828152606093909290918301828280156106825780601f1061065757610100808354040283529160200191610682565b60006106e9610a58610dfd565b846107a58560405180606001604052806025815260200161186c6025913960016000610a82610dfd565b6001600160a01b03908116825260208083019390935260409182016000908120918d1681529252902054919063ffffffff61104216565b60006106e9610ac6610dfd565b8484610eed565b6000610ad8846106f3565b9050336001600160a01b03831614610b10576000610af68333610d07565b90506000198114610b0e57610b0e8333848403610e01565b505b610b1a848261127d565b610b248282611281565b816001600160a01b0316836001600160a01b0316336001600160a01b03167ffbde797d201c681b91056529119e0b02407c7bb96a4a2c75c01fc9667232c8db8785604051808381526020018281526020019250505060405180910390a46106ce6001600160a01b037f000000000000000000000000000000000000000000000000000000000000000016848663ffffffff61137716565b6000336001600160a01b03831614610bf3576000610bd98333610d07565b90506000198114610bf157610bf18333878403610e01565b505b610bfc8461083c565b905080610c3e576040805162461bcd60e51b815260206004820152600b60248201526a5a45524f5f41535345545360a81b604482015290519081900360640190fd5b610c48818561127d565b610c528285611281565b816001600160a01b0316836001600160a01b0316336001600160a01b03167ffbde797d201c681b91056529119e0b02407c7bb96a4a2c75c01fc9667232c8db8488604051808381526020018281526020019250505060405180910390a46106ce6001600160a01b037f000000000000000000000000000000000000000000000000000000000000000016848363ffffffff61137716565b60006106ed610cf78361092b565b61068c565b60006106ed8261092b565b6001600160a01b03918216600090815260016020908152604080832093909416825291909152205490565b60006106ed826106f3565b600082610d4c575060006106ed565b82820282848281610d5957fe5b04146106ce5760405162461bcd60e51b815260040180806020018281038252602181526020018061176f6021913960400191505060405180910390fd5b6000808211610dec576040805162461bcd60e51b815260206004820152601a60248201527f536166654d6174683a206469766973696f6e206279207a65726f000000000000604482015290519081900360640190fd5b818381610df557fe5b049392505050565b3390565b6001600160a01b038316610e465760405162461bcd60e51b815260040180806020018281038252602481526020018061181e6024913960400191505060405180910390fd5b6001600160a01b038216610e8b5760405162461bcd60e51b81526004018080602001828103825260228152602001806117016022913960400191505060405180910390fd5b6001600160a01b03808416600081815260016020908152604080832094871680845294825291829020859055815185815291517f8c5be1e5ebec7d5bd14f71427d1e84f3dd0314c0f7b2291e5b200ac8c7c3b9259281900390910190a3505050565b6001600160a01b038316610f325760405162461bcd60e51b81526004018080602001828103825260258152602001806117f96025913960400191505060405180910390fd5b6001600160a01b038216610f775760405162461bcd60e51b81526004018080602001828103825260238152602001806116bc6023913960400191505060405180910390fd5b610f828383836113c9565b610fc581604051806060016040528060268152602001611723602691396001600160a01b038616600090815260208190526040902054919063ffffffff61104216565b6001600160a01b038085166000908152602081905260408082209390935590841681522054610ffa908263ffffffff6110d916565b6001600160a01b038084166000818152602081815260409182902094909455805185815290519193928716926000805160206117b883398151915292918290030190a3505050565b600081848411156110d15760405162461bcd60e51b81526004018080602001828103825283818151815260200191508051906020019080838360005b8381101561109657818101518382015260200161107e565b50505050905090810190601f1680156110c35780820380516001836020036101000a031916815260200191505b509250505060405180910390fd5b505050900390565b6000828201838110156106ce576040805162461bcd60e51b815260206004820152601b60248201527f536166654d6174683a206164646974696f6e206f766572666c6f770000000000604482015290519081900360640190fd5b604080516001600160a01b0380861660248301528416604482015260648082018490528251808303909101815260849091019091526020810180516001600160e01b03166323b872dd60e01b17905261118d9085906113ce565b50505050565b6001600160a01b0382166111ee576040805162461bcd60e51b815260206004820152601f60248201527f45524332303a206d696e7420746f20746865207a65726f206164647265737300604482015290519081900360640190fd5b6111fa600083836113c9565b60025461120d908263ffffffff6110d916565b6002556001600160a01b038216600090815260208190526040902054611239908263ffffffff6110d916565b6001600160a01b0383166000818152602081815260408083209490945583518581529351929391926000805160206117b88339815191529281900390910190a35050565b5050565b6001600160a01b0382166112c65760405162461bcd60e51b81526004018080602001828103825260218152602001806117d86021913960400191505060405180910390fd5b6112d2826000836113c9565b611315816040518060600160405280602281526020016116df602291396001600160a01b038516600090815260208190526040902054919063ffffffff61104216565b6001600160a01b038316600090815260208190526040902055600254611341908263ffffffff61147f16565b6002556040805182815290516000916001600160a01b038516916000805160206117b88339815191529181900360200190a35050565b604080516001600160a01b038416602482015260448082018490528251808303909101815260649091019091526020810180516001600160e01b031663a9059cbb60e01b1790526113c99084906113ce565b505050565b6060611423826040518060400160405280602081526020017f5361666545524332303a206c6f772d6c6576656c2063616c6c206661696c6564815250856001600160a01b03166114dc9092919063ffffffff16565b8051909150156113c95780806020019051602081101561144257600080fd5b50516113c95760405162461bcd60e51b815260040180806020018281038252602a815260200180611842602a913960400191505060405180910390fd5b6000828211156114d6576040805162461bcd60e51b815260206004820152601e60248201527f536166654d6174683a207375627472616374696f6e206f766572666c6f770000604482015290519081900360640190fd5b50900390565b60606114eb84846000856114f3565b949350505050565b6060824710156115345760405162461bcd60e51b81526004018080602001828103825260268152602001806117496026913960400191505060405180910390fd5b61153d8561164f565b61158e576040805162461bcd60e51b815260206004820152601d60248201527f416464726573733a2063616c6c20746f206e6f6e2d636f6e7472616374000000604482015290519081900360640190fd5b60006060866001600160a01b031685876040518082805190602001908083835b602083106115cd5780518252601f1990920191602091820191016115ae565b6001836020036101000a03801982511681845116808217855250505050505090500191505060006040518083038185875af1925050503d806000811461162f576040519150601f19603f3d011682016040523d82523d6000602084013e611634565b606091505b5091509150611644828286611655565b979650505050505050565b3b151590565b606083156116645750816106ce565b8251156116745782518084602001fd5b60405162461bcd60e51b815260206004820181815284516024840152845185939192839260440191908501908083836000831561109657818101518382015260200161107e56fe45524332303a207472616e7366657220746f20746865207a65726f206164647265737345524332303a206275726e20616d6f756e7420657863656564732062616c616e636545524332303a20617070726f766520746f20746865207a65726f206164647265737345524332303a207472616e7366657220616d6f756e7420657863656564732062616c616e6365416464726573733a20696e73756666696369656e742062616c616e636520666f722063616c6c536166654d6174683a206d756c7469706c69636174696f6e206f766572666c6f7745524332303a207472616e7366657220616d6f756e74206578636565647320616c6c6f77616e6365ddf252ad1be2c89b69c2b068fc378daa952ba7f163c4a11628f55a4df523b3ef45524332303a206275726e2066726f6d20746865207a65726f206164647265737345524332303a207472616e736665722066726f6d20746865207a65726f206164647265737345524332303a20617070726f76652066726f6d20746865207a65726f20616464726573735361666545524332303a204552433230206f7065726174696f6e20646964206e6f74207375636365656445524332303a2064656372656173656420616c6c6f77616e63652062656c6f77207a65726fa2646970667358221220505719669ee882fd1e763a1411a3d122031c5ced7623d3fbb5a8611d40b557c564736f6c634300060b0033",
  "linkReferences": {},
  "deployedLinkReferences": {}
}