{
  "_format": "hh-sol-artifact-1",
  "contractName": "FunctionCaller",
  "sourceName": "contracts/TestContracts/FunctionCaller.sol",
  "abi": [
    {
      "inputs": [],
      "name": "priceFeedAddress",
      "outputs": [
        {
          "internalType": "address",
          "name": "",
          "type": "address"
        }
      ],
      "stateMutability": "view",
      "type": "function"
    },
    {
      "inputs": [
        {
          "internalType": "address",
          "name": "_priceFeedAddress",
          "type": "address"
        }
      ],
      "name": "setPriceFeedAddress",
      "outputs": [],
      "stateMutability": "nonpayable",
      "type": "function"
    },
    {
      "inputs": [
        {
          "internalType": "address",
          "name": "_sortedTrovesAddress",
          "type": "address"
        }
      ],
      "name": "setSortedTrovesAddress",
      "outputs": [],
      "stateMutability": "nonpayable",
      "type": "function"
    },
    {
      "inputs": [
        {
          "internalType": "address",
          "name": "_troveManagerAddress",
          "type": "address"
        }
      ],
      "name": "setTroveManagerAddress",
      "outputs": [],
      "stateMutability": "nonpayable",
      "type": "function"
    },
    {
      "inputs": [],
      "name": "sortedTrovesAddress",
      "outputs": [
        {
          "internalType": "address",
          "name": "",
          "type": "address"
        }
      ],
      "stateMutability": "view",
      "type": "function"
    },
    {
      "inputs": [
        {
          "internalType": "address",
          "name": "_collateral",
          "type": "address"
        },
        {
          "internalType": "uint256",
          "name": "_NICR",
          "type": "uint256"
        },
        {
          "internalType": "address",
          "name": "_prevId",
          "type": "address"
        },
        {
          "internalType": "address",
          "name": "_nextId",
          "type": "address"
        }
      ],
      "name": "sortedTroves_findInsertPosition",
      "outputs": [
        {
          "internalType": "address",
          "name": "",
          "type": "address"
        },
        {
          "internalType": "address",
          "name": "",
          "type": "address"
        }
      ],
      "stateMutability": "view",
      "type": "function"
    },
    {
      "inputs": [],
      "name": "troveManagerAddress",
      "outputs": [
        {
          "internalType": "address",
          "name": "",
          "type": "address"
        }
      ],
      "stateMutability": "view",
      "type": "function"
    },
    {
      "inputs": [
        {
          "internalType": "address",
          "name": "_address",
          "type": "address"
        },
        {
          "internalType": "address",
          "name": "_collateral",
          "type": "address"
        },
        {
          "internalType": "uint256",
          "name": "_price",
          "type": "uint256"
        }
      ],
      "name": "troveManager_getCurrentICR",
      "outputs": [
        {
          "internalType": "uint256",
          "name": "",
          "type": "uint256"
        }
      ],
      "stateMutability": "view",
      "type": "function"
    }
  ],
  "bytecode": "0x608060405234801561001057600080fd5b506103ea806100206000396000f3fe608060405234801561001057600080fd5b50600436106100775760003560e01c8062cf5db41461007c5780632caffa81146100a45780635947185b146100c85780635a4d28bb14610110578063a06dec7114610118578063ced2027c1461013e578063e0abca0b14610164578063f1f89cab1461016c575b600080fd5b6100a26004803603602081101561009257600080fd5b50356001600160a01b03166101ce565b005b6100ac6101fa565b604080516001600160a01b039092168252519081900360200190f35b6100fe600480360360608110156100de57600080fd5b506001600160a01b03813581169160208101359091169060400135610209565b60408051918252519081900360200190f35b6100ac61029a565b6100a26004803603602081101561012e57600080fd5b50356001600160a01b03166102a9565b6100a26004803603602081101561015457600080fd5b50356001600160a01b03166102d5565b6100ac610301565b6101a86004803603608081101561018257600080fd5b506001600160a01b03813581169160208101359160408201358116916060013516610310565b604080516001600160a01b03938416815291909216602082015281519081900390910190f35b600580546001600160a01b039092166001600160a01b0319928316811790915560048054909216179055565b6003546001600160a01b031681565b600080546040805163b1eafaab60e01b81526001600160a01b0387811660048301528681166024830152604482018690529151919092169163b1eafaab916064808301926020929190829003018186803b15801561026657600080fd5b505afa15801561027a573d6000803e3d6000fd5b505050506040513d602081101561029057600080fd5b5051949350505050565b6001546001600160a01b031681565b600180546001600160a01b039092166001600160a01b0319928316811790915560028054909216179055565b600180546001600160a01b039092166001600160a01b0319928316811790915560008054909216179055565b6005546001600160a01b031681565b60025460408051632ffcd97160e21b81526001600160a01b03878116600483015260248201879052858116604483015284811660648301528251600094859492169263bff365c4926084808301939192829003018186803b15801561037457600080fd5b505afa158015610388573d6000803e3d6000fd5b505050506040513d604081101561039e57600080fd5b508051602090910151909790965094505050505056fea264697066735822122065305d1c39e1330a633e7cd33da05b1c023627a8bc388521a64475321810c0a464736f6c634300060b0033",
  "linkReferences": {},
  "deployedLinkReferences": {}
}