{
  "_format": "hh-sol-artifact-1",
  "contractName": "BorrowerOperationsScript",
  "sourceName": "contracts/Proxy/BorrowerOperationsScript.sol",
  "abi": [
    {
      "inputs": [
        {
          "internalType": "contract IBorrowerOperations",
          "name": "_borrowerOperations",
          "type": "address"
        }
      ],
      "stateMutability": "nonpayable",
      "type": "constructor"
    },
    {
      "inputs": [
        {
          "internalType": "address",
          "name": "_collateral",
          "type": "address"
        },
        {
          "internalType": "uint256",
          "name": "_collAmount",
          "type": "uint256"
        },
        {
          "internalType": "address",
          "name": "_upperHint",
          "type": "address"
        },
        {
          "internalType": "address",
          "name": "_lowerHint",
          "type": "address"
        }
      ],
      "name": "addColl",
      "outputs": [],
      "stateMutability": "nonpayable",
      "type": "function"
    },
    {
      "inputs": [
        {
          "internalType": "address",
          "name": "_collateral",
          "type": "address"
        },
        {
          "internalType": "uint256",
          "name": "_maxFee",
          "type": "uint256"
        },
        {
          "internalType": "uint256",
          "name": "_collTopUp",
          "type": "uint256"
        },
        {
          "internalType": "uint256",
          "name": "_collWithdrawal",
          "type": "uint256"
        },
        {
          "internalType": "uint256",
          "name": "_debtChange",
          "type": "uint256"
        },
        {
          "internalType": "bool",
          "name": "isDebtIncrease",
          "type": "bool"
        },
        {
          "internalType": "address",
          "name": "_upperHint",
          "type": "address"
        },
        {
          "internalType": "address",
          "name": "_lowerHint",
          "type": "address"
        }
      ],
      "name": "adjustTrove",
      "outputs": [],
      "stateMutability": "nonpayable",
      "type": "function"
    },
    {
      "inputs": [
        {
          "internalType": "address",
          "name": "_collateral",
          "type": "address"
        }
      ],
      "name": "claimCollateral",
      "outputs": [],
      "stateMutability": "nonpayable",
      "type": "function"
    },
    {
      "inputs": [
        {
          "internalType": "address",
          "name": "_collateral",
          "type": "address"
        }
      ],
      "name": "closeTrove",
      "outputs": [],
      "stateMutability": "nonpayable",
      "type": "function"
    },
    {
      "inputs": [
        {
          "internalType": "address",
          "name": "_collateral",
          "type": "address"
        },
        {
          "internalType": "uint256",
          "name": "_collAmount",
          "type": "uint256"
        },
        {
          "internalType": "uint256",
          "name": "_maxFee",
          "type": "uint256"
        },
        {
          "internalType": "uint256",
          "name": "_LUSDAmount",
          "type": "uint256"
        },
        {
          "internalType": "address",
          "name": "_upperHint",
          "type": "address"
        },
        {
          "internalType": "address",
          "name": "_lowerHint",
          "type": "address"
        }
      ],
      "name": "openTrove",
      "outputs": [],
      "stateMutability": "nonpayable",
      "type": "function"
    },
    {
      "inputs": [
        {
          "internalType": "address",
          "name": "_collateral",
          "type": "address"
        },
        {
          "internalType": "uint256",
          "name": "_amount",
          "type": "uint256"
        },
        {
          "internalType": "address",
          "name": "_upperHint",
          "type": "address"
        },
        {
          "internalType": "address",
          "name": "_lowerHint",
          "type": "address"
        }
      ],
      "name": "repayLUSD",
      "outputs": [],
      "stateMutability": "nonpayable",
      "type": "function"
    },
    {
      "inputs": [
        {
          "internalType": "address",
          "name": "_collateral",
          "type": "address"
        },
        {
          "internalType": "uint256",
          "name": "_amount",
          "type": "uint256"
        },
        {
          "internalType": "address",
          "name": "_upperHint",
          "type": "address"
        },
        {
          "internalType": "address",
          "name": "_lowerHint",
          "type": "address"
        }
      ],
      "name": "withdrawColl",
      "outputs": [],
      "stateMutability": "nonpayable",
      "type": "function"
    },
    {
      "inputs": [
        {
          "internalType": "address",
          "name": "_collateral",
          "type": "address"
        },
        {
          "internalType": "uint256",
          "name": "_maxFee",
          "type": "uint256"
        },
        {
          "internalType": "uint256",
          "name": "_amount",
          "type": "uint256"
        },
        {
          "internalType": "address",
          "name": "_upperHint",
          "type": "address"
        },
        {
          "internalType": "address",
          "name": "_lowerHint",
          "type": "address"
        }
      ],
      "name": "withdrawLUSD",
      "outputs": [],
      "stateMutability": "nonpayable",
      "type": "function"
    }
  ],
  "bytecode": "0x60a060405234801561001057600080fd5b50604051610e90380380610e908339818101604052602081101561003357600080fd5b5051610047816001600160e01b0361005c16565b60601b6001600160601b03191660805261010f565b6001600160a01b0381166100b7576040805162461bcd60e51b815260206004820152601e60248201527f4163636f756e742063616e6e6f74206265207a65726f20616464726573730000604482015290519081900360640190fd5b803b8061010b576040805162461bcd60e51b815260206004820181905260248201527f4163636f756e7420636f64652073697a652063616e6e6f74206265207a65726f604482015290519081900360640190fd5b5050565b60805160601c610d3261015e6000398061028c52806102f05280610391528061041b52806104b4528061053552806105cc528061063e52806106aa528061077452806107c05250610d326000f3fe608060405234801561001057600080fd5b50600436106100785760003560e01c806348a4a39d1461007d57806349b010c5146100bb5780635e66c921146100f7578063743990211461013b5780637da0b1fa146101925780638235b284146101da57806386a3e59a14610200578063cbd138ae1461023c575b600080fd5b6100b96004803603608081101561009357600080fd5b506001600160a01b03813581169160208101359160408201358116916060013516610262565b005b6100b9600480360360808110156100d157600080fd5b506001600160a01b03813581169160208101359160408201358116916060013516610358565b6100b9600480360360a081101561010d57600080fd5b506001600160a01b0381358116916020810135916040820135916060810135821691608090910135166103db565b6100b9600480360361010081101561015257600080fd5b506001600160a01b03813581169160208101359160408201359160608101359160808201359160a081013515159160c082013581169160e0013516610484565b6100b9600480360360c08110156101a857600080fd5b506001600160a01b038135811691602081013591604082013591606081013591608082013581169160a00135166105a2565b6100b9600480360360208110156101f057600080fd5b50356001600160a01b03166106a8565b6100b96004803603608081101561021657600080fd5b506001600160a01b0381358116916020810135916040820135811691606001351661073b565b6100b96004803603602081101561025257600080fd5b50356001600160a01b03166107be565b61027d6001600160a01b03851633308663ffffffff61083616565b6102b76001600160a01b0385167f00000000000000000000000000000000000000000000000000000000000000008563ffffffff61089616565b604080516348a4a39d60e01b81526001600160a01b038681166004830152602482018690528481166044830152838116606483015291517f0000000000000000000000000000000000000000000000000000000000000000909216916348a4a39d9160848082019260009290919082900301818387803b15801561033a57600080fd5b505af115801561034e573d6000803e3d6000fd5b5050505050505050565b604080516349b010c560e01b81526001600160a01b038681166004830152602482018690528481166044830152838116606483015291517f0000000000000000000000000000000000000000000000000000000000000000909216916349b010c59160848082019260009290919082900301818387803b15801561033a57600080fd5b60408051635e66c92160e01b81526001600160a01b03878116600483015260248201879052604482018690528481166064830152838116608483015291517f000000000000000000000000000000000000000000000000000000000000000090921691635e66c9219160a48082019260009290919082900301818387803b15801561046557600080fd5b505af1158015610479573d6000803e3d6000fd5b505050505050505050565b85156104df576104a56001600160a01b03891633308963ffffffff61083616565b6104df6001600160a01b0389167f00000000000000000000000000000000000000000000000000000000000000008863ffffffff61089616565b60408051637439902160e01b81526001600160a01b038a81166004830152602482018a905260448201899052606482018890526084820187905285151560a483015284811660c483015283811660e483015291517f0000000000000000000000000000000000000000000000000000000000000000909216916374399021916101048082019260009290919082900301818387803b15801561058057600080fd5b505af1158015610594573d6000803e3d6000fd5b505050505050505050505050565b6105bd6001600160a01b03871633308863ffffffff61083616565b6105f76001600160a01b0387167f00000000000000000000000000000000000000000000000000000000000000008763ffffffff61089616565b60408051633ed058fd60e11b81526001600160a01b038881166004830152602482018890526044820187905260648201869052848116608483015283811660a483015291517f000000000000000000000000000000000000000000000000000000000000000090921691637da0b1fa9160c48082019260009290919082900301818387803b15801561068857600080fd5b505af115801561069c573d6000803e3d6000fd5b50505050505050505050565b7f00000000000000000000000000000000000000000000000000000000000000006001600160a01b0316638235b284826040518263ffffffff1660e01b815260040180826001600160a01b03166001600160a01b03168152602001915050600060405180830381600087803b15801561072057600080fd5b505af1158015610734573d6000803e3d6000fd5b5050505050565b60408051634351f2cd60e11b81526001600160a01b038681166004830152602482018690528481166044830152838116606483015291517f0000000000000000000000000000000000000000000000000000000000000000909216916386a3e59a9160848082019260009290919082900301818387803b15801561033a57600080fd5b7f00000000000000000000000000000000000000000000000000000000000000006001600160a01b031663cbd138ae826040518263ffffffff1660e01b815260040180826001600160a01b03166001600160a01b03168152602001915050600060405180830381600087803b15801561072057600080fd5b604080516001600160a01b0380861660248301528416604482015260648082018490528251808303909101815260849091019091526020810180516001600160e01b03166323b872dd60e01b179052610890908590610978565b50505050565b60408051636eb1769f60e11b81523060048201526001600160a01b03848116602483015291516000926109279285929188169163dd62ed3e91604480820192602092909190829003018186803b1580156108ef57600080fd5b505afa158015610903573d6000803e3d6000fd5b505050506040513d602081101561091957600080fd5b50519063ffffffff610a2e16565b604080516001600160a01b038616602482015260448082018490528251808303909101815260649091019091526020810180516001600160e01b031663095ea7b360e01b1790529091506108909085905b60606109cd826040518060400160405280602081526020017f5361666545524332303a206c6f772d6c6576656c2063616c6c206661696c6564815250856001600160a01b0316610a8f9092919063ffffffff16565b805190915015610a29578080602001905160208110156109ec57600080fd5b5051610a295760405162461bcd60e51b815260040180806020018281038252602a815260200180610cd3602a913960400191505060405180910390fd5b505050565b600082820183811015610a88576040805162461bcd60e51b815260206004820152601b60248201527f536166654d6174683a206164646974696f6e206f766572666c6f770000000000604482015290519081900360640190fd5b9392505050565b6060610a9e8484600085610aa6565b949350505050565b606082471015610ae75760405162461bcd60e51b8152600401808060200182810382526026815260200180610cad6026913960400191505060405180910390fd5b610af085610c02565b610b41576040805162461bcd60e51b815260206004820152601d60248201527f416464726573733a2063616c6c20746f206e6f6e2d636f6e7472616374000000604482015290519081900360640190fd5b60006060866001600160a01b031685876040518082805190602001908083835b60208310610b805780518252601f199092019160209182019101610b61565b6001836020036101000a03801982511681845116808217855250505050505090500191505060006040518083038185875af1925050503d8060008114610be2576040519150601f19603f3d011682016040523d82523d6000602084013e610be7565b606091505b5091509150610bf7828286610c08565b979650505050505050565b3b151590565b60608315610c17575081610a88565b825115610c275782518084602001fd5b8160405162461bcd60e51b81526004018080602001828103825283818151815260200191508051906020019080838360005b83811015610c71578181015183820152602001610c59565b50505050905090810190601f168015610c9e5780820380516001836020036101000a031916815260200191505b509250505060405180910390fdfe416464726573733a20696e73756666696369656e742062616c616e636520666f722063616c6c5361666545524332303a204552433230206f7065726174696f6e20646964206e6f742073756363656564a2646970667358221220b94a73f8cf0ef282aa94ee04d193ffc0e3974d992eef9c217e0f6847d4bef00564736f6c634300060b0033",
  "linkReferences": {},
  "deployedLinkReferences": {}
}